:100000000C94CC000C949B7C0C94CC7C0C94FD7CCC
:100010000C942E7D0C945F7D0C94907D0C94C17D8E
:100020000C94F27D0C94F6000C94F6000C94F600FF
:100030000C94A7030C94F6000C94F6000C94570251
:100040000C94F6000C94F6000C94F6000C94F60058
:100050000C94F6000C94F6000C94F6000C9432020A
:100060000C94F6000C945C820C94F6000C94F60050
:100070000C94F6000C94F6000C94F6000C94F60028
:100080000C94F6000C94F6000C94F6000C94F60018
:100090000C949D820C94F6000C94F6000C94A47AB7
:1000A0000C94F6000C94F6000C94F6000C94F600F8
:1000B0000C94F6000C94F6000C94F6000C94F600E8
:1000C0000C94F6000C94F6000C94F6000021242702
:1000D0002A2D3033002225282B2E313400202326D0
:1000E000292C2F3205050505030303030101010433
:1000F00004030606060606060606010405010501B8
:1001000003020202020202010202050504040304C2
:1001100004010304070707010208101020408004AF
:1001200008102040020204081020408001028020B4
:100130004004200101020408102001408040800199
:1001400002080408800410040201000008090000ED
:10015000000000000000000000000000000000009F
:10016000000000000000000000000000000000008F
:1001700000000000000000000000000000009304E8
:100180005D094E0E790FE711DC19E31AE3242F29DC
:10019000A82BEA2BD778717911241FBECFEFD1E2BB
:1001A000DEBFCDBF11E1A0E0B2E0ECEEFFE101E087
:1001B0000BBF02C007900D92A83EB107D9F71BE113
:1001C000A8EEB1E101C01D92A839B107E1F711E035
:1001D000C8E9D1E004C02297FE010E940089CE3711
:1001E000D107C9F70E942B020C94F48F0C940000E5
:1001F000CF93DF9386EB93E160E072E00E942C2ABC
:1002000086EB93E164E172E00E9494290E947208F7
:10021000BC0186EB93E10E94842986EB93E162E2C4
:1002200072E00E949429609100187091011886EB89
:1002300093E10E948429609100187091011880EF69
:1002400092E10E94F215C82FD0E0209759F086EB7A
:1002500093E16FE272E00E94942986EB93E1BE0184
:100260000E94842986EB93E164E672E00E942C2AC6
:100270008AEF91E161E070E00E943D07C82FD0E075
:10028000209759F086EB93E165E772E00E9494298C
:1002900086EB93E1BE010E94842986EB93E165EA37
:1002A00072E00E942C2ACD2B79F086EB93E16AEB69
:1002B00072E00E949429609100187091011880EFFB
:1002C00092E10E943A125DC04091001850910118CD
:1002D0008FE592E161EF71E10E94E10AC82FD0E061
:1002E000209751F186EB93E161ED72E00E94942931
:1002F00086EB93E1BE010E9484298AEF91E10E947E
:100300003B084091001850910118882349F48FE56B
:1003100092E161EF71E10E94E10A882399F007C040
:1003200010922C1880EF92E1BA010E943A1286EBEB
:1003300093E165E073E004C086EB93E165E173E06F
:100340000E9494298AEF91E160E070E00E94C1056B
:10035000C82FD0E02097A9F0C130D10539F486EB41
:1003600093E161E373E00E9494290BC086EB93E173
:100370006DE573E00E94942986EB93E1BE010E9433
:10038000842986EB93E164E873E00E942C2A86EBD3
:1003900093E164E172E00E9494290E947208BC011A
:1003A00086EB93E10E9484298FEC92E160E070E09B
:1003B0000E94780EDF91CF910895EF92FF920F93F4
:1003C0001F9386EB93E10E943A2A86EB93E160EA61
:1003D00073E00E94942986EB93E164E172E00E944D
:1003E00094290E947208BC0186EB93E10E94842943
:1003F0008AEF91E16AE971E141E050E021EF31E1FA
:1004000003E010E0EEEAEE2EE3E0FE2E0E948C0701
:10041000882331F086EB93E164EB73E00E942C2A91
:100420008DE693E10E944320BC0186EB93E10E949C
:100430002C2A86EB93E164E172E00E9494290E94E9
:100440007208BC0186EB93E10E9484291F910F91F1
:10045000FF90EF9008950E94EA020E94DD010E9441
:10046000F800FDCF1F920F920FB60F9211248F93B9
:100470009F93AF93BF9380910C1990910D19A09108
:100480000E19B0910F190196A11DB11D80930C1981
:1004900090930D19A0930E19B0930F19BF91AF91BE
:1004A0009F918F910F900FBE0F901F9018951F92E4
:1004B0000F920FB60F9211248F939F93AF93BF9318
:1004C0008091101990911119A0911219B0911319DE
:1004D0000196A11DB11D8093101990931119A0933D
:1004E0001219B0931319BF91AF919F918F910F90F3
:1004F0000FBE0F901F90189560910C1970910D19F7
:1005000080910E1990910F1927E0660F771F881FB1
:10051000991F2A95D1F72EE330E040E050E00E9489
:10052000C188CA01B9010895AF92BF92CF92DF92FC
:10053000EF92FF920F931F935B016C0160910C1976
:1005400070910D1980910E1990910F1947E0660F67
:10055000771F881F991F4A95D1F72EE330E040E0BE
:1005600050E00E94C18879018A0160910C19709154
:100570000D1980910E1990910F1937E0660F771FB2
:10058000881F991F3A95D1F72EE330E040E050E004
:100590000E94C1882E193F09400B510B2A153B05BB
:1005A0004C055D0510F31F910F91FF90EF90DF90C8
:1005B000CF90BF90AF900895019759F0019749F0FF
:1005C000FC01EE0FFF1F31978FB7F8943197F1F7C9
:1005D0008FBF0895789484B7877F84BF10920C19D9
:1005E00010920D1910920E1910920F1984B5826095
:1005F00084BD84B5816084BD85B5826085BD85B5C7
:10060000816085BDEEE6F0E0808181608083E1E875
:10061000F0E0808182608083808181608083E0E877
:10062000F0E0808181608083E1EBF0E08081846094
:100630008083E1E9F0E0808184608083E0EBF0E09A
:10064000808181608083E0E9F0E080818160808347
:10065000E4E6F0E080818E7F8083ECE7F0E080814B
:100660008F778083808180648083EAE7F0E08081F7
:1006700084608083808182608083808180688083C1
:100680001092C1001092C90008959091F911982B11
:100690009093F91180FF32C0809164008E7F809327
:1006A000640080917C008F7780937C0080917C0037
:1006B000806480937C0080917A00846080937A00CB
:1006C00080917A00826080937A0080917A008068BD
:1006D00080937A00809164008F778093640080918A
:1006E00064008B7F80936400809164008D7F809391
:1006F0006400809165008E7F809365000895282FA7
:1007000020959091F91192239093F91180FF1EC0CA
:1007100080917A008F7780937A0080916400816065
:10072000809364008091640080688093640080916D
:100730006400846080936400809164008260809390
:1007400064008091650081608093650008951F9228
:100750000F920FB60F920BB60F9211242F933F9367
:100760004F935F936F937F938F939F93AF93BF93B9
:10077000EF93FF93F89481E08093A211E0E6F0E01C
:1007800080818068808380818F7B808383E060E0CC
:100790000E94FC037894FF91EF91BF91AF919F91DC
:1007A0008F917F916F915F914F913F912F910F901A
:1007B0000BBE0F900FBE0F901F901895282F30E0A2
:1007C000C901895E9E4FFC0194912C513F4FF90164
:1007D0008491882381F0E82FF0E0E453FF4FE49107
:1007E000F0E0662329F48081909589238083089521
:1007F0008081892B80830895482F50E0CA01865B51
:100800009E4FFC012491CA01895E9E4FFC01949188
:100810004C515F4FFA0134913323C1F1222331F15E
:10082000233021F4809180008F7705C0243031F48B
:10083000809180008F7D8093800018C0213019F452
:1008400084B58F7704C0223021F484B58F7D84BDB8
:100850000DC0263021F48091B0008F7705C027307D
:1008600029F48091B0008F7D8093B000E32FF0E0F9
:10087000EC52FF4FE491F0E0662329F480819095DB
:100880008923808308958081892B80830895482F50
:1008900050E0CA01865B9E4FFC012491CA01895E2B
:1008A0009E4FFC0194914C515F4FFA0134913323D8
:1008B00019F420E030E035C0222331F1233021F457
:1008C000809180008F7705C0243031F480918000C2
:1008D0008F7D8093800018C0213019F484B58F7704
:1008E00004C0223021F484B58F7D84BD0DC0263034
:1008F00021F48091B0008F7705C0273029F48091D2
:10090000B0008F7D8093B000E32FF0E0E452FF4F02
:10091000E491F0E0808120E030E0892311F021E0D3
:1009200030E0C90108951092FA110895CF92DF9234
:10093000EF920F931F93CF93DF93162F81E090E0F8
:1009400061E070E00E940489EC0118831A3014F40D
:10095000198201C01A8286EB93E166EE73E00E9471
:1009600094296881772767FD709586EB93E10E9453
:100970007C2986EB93E16FEF73E00E94942981E07C
:1009800090E064EB70E00E9404896C01FC01108629
:100990008AE790E0C80ED91EF601108282E090E04E
:1009A000C80ED91E8CE0F601808312926F0185E893
:1009B0009FEFC80ED91E10926E168BEF94E1B60110
:1009C00040E00E9463628BEF94E1B6014AEE57E18A
:1009D0009E0101E0EE240E945E638BEF94E1B6017C
:1009E0000E94EE551091D716C6010E94CD89CE0106
:1009F0000E94CD89812FDF91CF911F910F91EF90B0
:100A0000DF90CF900895CF92DF92EF92FF920F93F5
:100A10001F938B017A0181E090E064EB70E00E940B
:100A200004896C01FC0110868AE790E0C80ED91E8B
:100A3000F601108282E090E0C80ED91E8CE0F6012B
:100A4000808312926F0185E89FEFC80ED91E109225
:100A50006E168BEF94E1B60140E00E9463628BEF6B
:100A600094E1B601A801970101E0EE240E945E63C3
:100A70008BEF94E1B6010E94EE551091D716C60196
:100A80000E94CD89812F1F910F91FF90EF90DF90F1
:100A9000CF900895BF92CF92DF92EF92FF920F9383
:100AA0001F93CF93DF937B01B42EE90186EB93E193
:100AB0006CE074E00E94942986EB93E169E174E0B4
:100AC0000E94942986EB93E16B2D70E00E948429AB
:100AD00086EB93E167E274E00E94942900E010E065
:100AE000FE01E00FF11F6081772767FD709586EBAF
:100AF00093E10E9484290F5F1F4F0A30110581F78F
:100B000081E090E064EB70E00E9404896C01FC01DC
:100B100010868AE790E0C80ED91EF601108282E0A6
:100B200090E0C80ED91EF601B08212926F0185E8DE
:100B30009FEFC80ED91E10926E168BEF94E1B6018E
:100B400040E00E9463628BEF94E1B601A7019E0131
:100B500001E0EE240E945E638BEF94E1B6010E94F7
:100B6000EE551091D716C6010E94CD89812FDF91D5
:100B7000CF911F910F91FF90EF90DF90CF90BF909A
:100B800008955F926F927F928F929F92AF92BF92E1
:100B9000CF92DF92EF92FF920F931F93CF93DF9349
:100BA000582EC92E3B010E947C024B015C0186EB52
:100BB00093E16FE274E00E942C2A87EF94E10E9497
:100BC000462C882309F400C18BEF94E10E94F46C59
:100BD0008091D616882309F0F7C011E0DD24EBC020
:100BE000DF01A20FB31F1C969C911C979F3F61F4DD
:100BF0001D968C918E3F41F42F193109E20FF31F9E
:100C000014864F5FF39405C02F193109E20FF31FCB
:100C100094874F5FE0915A15F0E0EE0FFF1FE35B02
:100C2000FA4E0190F081E02D242F30E0E059FF4F83
:100C300080819181E057F0402817390788F286EBD0
:100C400093E16EE474E00E949429E0915A15F0E07B
:100C5000EE0FFF1FE35BFA4E0190F081E02DE458A8
:100C6000FF4F608186EB93E170E00E94842986EB60
:100C700093E164E574E00E949429252D3C2DC9017F
:100C80008C01C0E0D0E0EF2CFF240DC0EC0FFD1F65
:100C90006485F8016083772767FD709586EB93E1A3
:100CA0000E947C292196E0915A15F0E0EE0FFF1F7B
:100CB000E35BFA4E0190F081E02D0F5F1F4FE0598A
:100CC000FF4F80819181E057F0408E199F09C8172E
:100CD000D907E0F286EB93E164EE73E00E94942979
:100CE000E0915A15F0E0EE0FFF1FE35BFA4EA08192
:100CF000B181A458BF4F8C91AC57B040E82FF0E0C1
:100D000080E090E020E08E179F0709F421E0019633
:100D10008C309105C1F7222339F1EE0FFF1FE95402
:100D2000FE4E0190F081E02DCD010995182F88230A
:100D300039F086EB93E16CE574E00E94942914E0AD
:100D400086EB93E167E774E00E94942986EB93E1D8
:100D500068E874E00E9494290E947208BC0186EB46
:100D600093E10E9484290FC0852D9C2D68E070E0DE
:100D70000E94960486EB93E163E974E00E942C2ABA
:100D800013E0DD24D394E0915A15F0E0EE0FFF1F3D
:100D9000E35BFA4E808191810E94CD8980915A1542
:100DA000E82FF0E0EE0FFF1FE35BFA4E1182108296
:100DB000815080935A1580915A15882339F0DD208F
:100DC00029F4FF2440E026CF11E0DD24F1E06F1686
:100DD000710439F58091E8119091E911A091EA111F
:100DE000B091EB1184FF35C08091E8119091E91129
:100DF000A091EA11B091EB118F7E8093E81190934E
:100E0000E911A093EA11B093EB118BEF94E10E94EA
:100E1000127986EB93E165EA74E00E94942910E070
:100E20001BC00E947C02611571058105910531F49A
:100E300086EB93E166EB74E00E942C2A0E947C0210
:100E4000681979098A099B09685B7B40804090405A
:100E500018F4DD2009F4B1CE812FDF91CF911F91DD
:100E60000F91FF90EF90DF90CF90BF90AF909F9049
:100E70008F907F906F905F900895EF92FF920F9305
:100E80001F93CF93DF93EB010E947C027B018C01C7
:100E900006C060E777E180E090E00E9494028BEF6B
:100EA00094E10E94B16E8091D517882379F10E9458
:100EB0007C026E197F09800B910B68597A43804040
:100EC000904020F5209759F7E4CF8BEF94E10E94F2
:100ED000D16E8091C917882341F486EB93E16CE1D0
:100EE00076E00E942C2A81E00AC08BEF94E160E05A
:100EF0000E94556F8BEF94E10E94135A80E0DF91BE
:100F0000CF911F910F91FF90EF9008958091D51789
:100F10008823D9F282E0F3CF8F929F92AF92BF9253
:100F2000CF92DF92EF92FF920F931F93CF93DF93B5
:100F30005C016B01EA0149018BEF94E162E041E061
:100F400021E00E946B708BEF94E10E94756E8BEF35
:100F500094E10E94266E68EE73E080E090E00E94CB
:100F600094028BEF94E1B6010E948C588BEF94E1D0
:100F70006FE34FEF0E948C598BEF94E163E00E9486
:100F8000135C8BEF94E161E00E94556F8BEF94E16D
:100F9000B7010E94E8518BEF94E1BE010E942271DB
:100FA0008BEF94E10E94135A8BEF94E10E94546EF0
:100FB00068EB7BE080E090E00E9494028BEF94E18C
:100FC0000E94756E8BEF94E10E94266EC50160E071
:100FD00070E00E943D07F82E8DE693E10E94932079
:100FE0008DE693E160E140E00E944F20F5018081B1
:100FF000882371F48BED92E16AE376E00E9474112C
:1010000060910418709105188BED92E10E940C110B
:101010008BEF94E1B4010E947170CD2B69F41093B1
:1010200028180093271860910418709105188BED0B
:1010300092E10E940C1104C08BEF94E10E9412799E
:1010400084EB93E160E00E94F72664E670E080E0C4
:1010500090E00E9494028F2DF11081E0DF91CF91FA
:101060001F910F91FF90EF90DF90CF90BF90AF90C6
:101070009F908F900895DF92EF92FF920F931F93AE
:101080007C01DD24D394FC01D08286EB93E16FE4F4
:1010900076E00E9494298BEF94E10E94305A8BEF06
:1010A00094E10E948B5A4091FA175091FB170091DE
:1010B000271810912818C70168E075E12AEE37E17A
:1010C000E6E2EE2EE6E1FE2E0E948C07882321F454
:1010D000D0922C181092FA111F910F91FF90EF905F
:1010E000DF900895DF93CF9300D0CDB7DEB7209186
:1010F000941B3091951BCE0101962115310519F4F1
:1011000088599B4102C0821B930B9A8389838981F2
:101110009A810F900F90CF91DF910895CF93DF9335
:10112000EC01FB01EF57FF4F81918B8381918C8301
:1011300081918D8380818E833797DE0194E0819148
:1011400017968C9317979F5F11969830C1F79A85E1
:101150008091F517882319F48091F917811181E0A6
:1011600020E030E0992311F421E030E090E02817EE
:10117000390709F43CC099858091F417882319F444
:101180008091F817811181E020E030E0992311F47B
:1011900021E030E090E02817390749F198858091E7
:1011A000F317882319F48091F717811181E020E06B
:1011B00030E0992311F421E030E090E0281739075E
:1011C000B1F09F818091F217882319F48091F6176E
:1011D000811181E040E020E030E0992311F421E02A
:1011E00030E090E02817390719F041E001C040E0F5
:1011F000842FDF91CF910895CF93DF93EC01DB0132
:1012000090E030E05FEF4EEF18C0FE01E30FF11DFC
:101210002485E92FF0E0892F8F5F222349F4EA0F1C
:10122000FB1F5083FD01E80FF11D40839E5F04C04A
:10123000EA0FFB1F2083982F3F5F8B85381728F319
:10124000A90FB11D1C92DF91CF910895CF93DF9329
:10125000DC0182E01B968C931B971C967C931C9759
:101260001D966C931D97CDE4D3E142E021E030E080
:10127000C90186239723892BA1F0FD01E40FF11DFD
:1012800089818487942F9F5FFD01E90FF11D88817B
:1012900084874E5F1B968C911B978E5F1B968C9359
:1012A0001B97229683E1C136D80719F0220F331F0E
:1012B000DFCFDF91CF910895089508958AEF91E1EE
:1012C00067E070E00E94960481E008958AEF91E162
:1012D00066E070E00E94960481E008958AEF91E153
:1012E00065E070E00E94960481E008958AEF91E144
:1012F00064E070E00E94960481E008958AEF91E135
:1013000063E070E00E94960481E008958AEF91E125
:1013100062E070E00E94960481E008958AEF91E116
:1013200061E070E00E94960481E00895EF92FF92E0
:101330000F931F93CF93DF93EC0180912C18882398
:1013400041F48AEF91E16AE170E00E94960481E045
:1013500051C084E690E061E070E00E940489F92EBB
:10136000E82EC059DF4F68817981C057D040DE0137
:10137000282F3F2DF9016E0F7F1F04C01B968C9103
:101380001B9781931196E617F707C1F70BE612E159
:1013900084E6D8011D928A95E9F7EDB7FEB7389734
:1013A0000FB6F894FEBF0FBEEDBF3196ADB7BEB716
:1013B00012961C930E93119780E696E09383828396
:1013C00086E296E195838483E682F7820E94078D08
:1013D000EDB7FEB738960FB6F894FEBF0FBEEDBF5F
:1013E0008AEF91E16AEE77E1A8010E940305C70147
:1013F0000E94CD89DF91CF911F910F91FF90EF90C7
:101400000895EF92FF920F931F937C018B0186EB5F
:1014100093E165E976E00E942C2AF7018081080FAC
:10142000111D90913313F80190838F5FF701808332
:1014300080916A128F5F80936A1280E01F910F91F2
:10144000FF90EF9008950F931F93CF93DF93EC01DC
:1014500086EB93E16EE976E00E942C2A8FE592E11B
:10146000BE010E948E08882329F48AEF91E168E189
:1014700070E058C086EB93E16FEA76E00E942C2A78
:1014800080912C18882329F48AEF91E16AE170E0B9
:1014900049C08C85992787FD9095182F00278D8549
:1014A000992787FD9095080F191F86EB93E161EC52
:1014B00076E00E94942986EB93E1B8010E9484298A
:1014C0002C968BEF94E1BE010E942277882331F5A0
:1014D0008FE592E1B8010E94260980916A1290E09E
:1014E000880F991F019661E070E00E940489182F0F
:1014F000092F8FE592E1612F702F0E94FC088AEF7F
:1015000091E16AEE77E148E0212F302F0E944A05F1
:10151000812F902F0E94CD8980E007C08AEF91E152
:1015200060E170E00E94960481E0DF91CF911F910D
:101530000F910895FF920F931F93BC018FE592E1E5
:101540000E948E08882329F48AEF91E166E170E019
:1015500008C080912C18882341F48AEF91E16AE158
:1015600070E00E94960401E027C082E080936A1236
:101570009091FD178091FE1780936B1290936C12DF
:1015800083E090E061E070E00E940489182FF92E5A
:101590008FE592E1612F7F2D0E94FC088AEF91E197
:1015A0006AEE77E144E0212F3F2D0E944A05082F83
:1015B000812F9F2D0E94CD89802F1F910F91FF9029
:1015C00008952F923F924F925F926F927F928F92E7
:1015D0009F92AF92BF92CF92DF92FF920F931F9391
:1015E000DF93CF930F92CDB7DEB75C011B014A01A9
:1015F00082E08983D5011B968C931B971C969C9245
:101600001C971D964C93FCE06F2E712C6A0C7B1C72
:1016100003EA11E1E2E0FE2E71E0C72ED12C2E018B
:101620000894411C511CC60188219921892B91F0F5
:10163000D801ED91FC91C201B3010995F82E8823E0
:1016400049F08AEF91E164E170E00E949604FF2482
:10165000F39430C00E5F1F4FB1E1073B1B0719F039
:10166000CC0CDD1CE0CFE2E0FE1619F453E0F52EC1
:1016700021C0FF20F9F4D5011B968C9190E0880FD2
:10168000991F019661E070E00E940489182F092FCC
:10169000C501612F702F0E94FC088AEF91E1B10112
:1016A0004AE0212F302F0E944A05F82E812F902FDB
:1016B0000E94CD898F2D0F90CF91DF911F910F91B7
:1016C000FF90DF90CF90BF90AF909F908F907F90D2
:1016D0006F905F904F903F902F900895CF93DF933E
:1016E000EC018FE592E1BE010E948E08882329F467
:1016F0008AEF91E169E170E05CC086EB93E16FEA0B
:1017000076E00E942C2A80912C18882329F48AEFF5
:1017100091E16AE170E04DC08C85992787FD909535
:10172000782F66278D85992787FD9095680F791FFB
:101730007093611260936012A091FF17E091FD1702
:10174000F091FE1740E021E030E051E00EC0C90109
:101750008E239F23892B31F4C90186239723892B5C
:1017600009F050E0220F331F4F5F4A1780F35523D3
:1017700029F48AEF91E16EE070E01BC080EF92E106
:101780000E94F215882389F44091601250916112F1
:101790008FE592E162E672E10E94E10A882361F03E
:1017A0008AEF91E162E170E004C08AEF91E163E1C8
:1017B00070E00E94960481E0DF91CF9108950F932D
:1017C0001F93CF93DF93EC018FE592E1BE010E945E
:1017D0008E08882329F48AEF91E167E170E04BC01D
:1017E00080912C18882329F48AEF91E16AE170E056
:1017F00042C08BED92E10E943E116C85772767FD18
:101800007095762F66278D85992787FD9095680FAF
:10181000791F8BEF94E10E94BF73882341F582E02A
:1018200080936A12909104188091051880936B122E
:1018300090936C1283E090E061E070E00E94048974
:10184000182F092F8FE592E1612F702F0E94FC085D
:101850008AEF91E16AEE77E146E0212F302F0E9476
:101860004A05812F902F0E94CD8980E007C08AEF22
:1018700091E16AE070E00E94960481E0DF91CF91EF
:101880001F910F9108950F931F93CF93DF938C01B6
:101890008FE592E1B8010E948E08882341F48AEF17
:1018A00091E165E170E00E94960411E052C0E80108
:1018B0002C968BEF94E1BE010E94DC78182F8130CA
:1018C00039F48AEF91E169E070E00E94960441C02A
:1018D0008BEF94E1BE010E94067882E080936A1249
:1018E0009091FD178091FE1780936B1290936C126C
:1018F00083E090E061E070E00E940489182F092FD6
:101900008FE592E1612F702F0E94FC088AEF91E130
:101910006AEE77E142E0212F302F0E944A05812FA5
:10192000902F0E94CD8981E080932C18609100183F
:101930007091011880EF92E10E94F2154091001819
:10194000509101188FE592E16AEE77E10E94E10A79
:10195000182F812FDF91CF911F910F910895EF9252
:10196000FF920F931F937C018B0140914413509180
:101970004513609146137091471380EF92E120E088
:1019800031E00E949A12F7019081090F111D2091F8
:101990004813F80120839F5FF701908390916A12AA
:1019A0009F5F90936A121F910F91FF90EF9008959F
:1019B000EF92FF920F931F937C018B0186EB93E1D3
:1019C00062ED76E00E942C2A4091391350913A132F
:1019D00060913B1370913C1380EF92E120E830E07E
:1019E0000E949A12F7019081F801E90FF11D2091F0
:1019F0003D1320839F5FF7019083090F111D2091F4
:101A00003E13F80120839F5FF701908390916A1243
:101A10009E5F90936A121F910F91FF90EF9008952F
:101A2000CF92DF92EF92FF920F931F936C018B0185
:101A300086EB93E16DED76E00E942C2A40EFE42ED8
:101A400042E1F42E40912A1350912B1360912C13F4
:101A500070912D13C70120E230E00E949A12F60126
:101A60009081090F111DF70126ADF80120839F5FBA
:101A7000F601908390916A129F5F90936A121F9172
:101A80000F91FF90EF90DF90CF900895EF92FF922B
:101A90000F931F937C018B0186EB93E167EE76E059
:101AA0000E942C2A409124135091251360912613F3
:101AB0007091271380EF92E120E130E00E949A12AA
:101AC000F7019081F801E90FF11D2091281320837F
:101AD0009F5FF7019083090F111D20912913F801D1
:101AE00020839F5FF701908390916A129E5F90938D
:101AF0006A121F910F91FF90EF900895EF92FF925D
:101B00000F931F937C018B0186EB93E16FEE76E0E0
:101B10000E942C2A609121137091221380E090E0A2
:101B20000E945687AB01BC0180EF92E128E030E0D3
:101B30000E949A12F7019081090F111D2091231321
:101B4000F80120839F5FF701908390916A129F5F55
:101B500090936A121F910F91FF90EF900895EF926A
:101B6000FF920F931F937C018B0186EB93E168EF4B
:101B700076E00E942C2A40911B1350911C13609117
:101B80001D1370911E1380EF92E124E030E00E945B
:101B90009A12F7019081F801E90FF11D20911F13AE
:101BA00020839F5FF7019083090F111D209120135F
:101BB000F80120839F5FF701908390916A129E5FE6
:101BC00090936A121F910F91FF90EF900895EF92FA
:101BD000FF920F931F937C018B0186EB93E161E0F1
:101BE00077E00E942C2A40911613509117136091B0
:101BF00018137091191380EF92E122E030E00E94F7
:101C00009A12F7019081090F111D20911A13F80102
:101C100020839F5FF701908390916A129F5F90935A
:101C20006A121F910F91FF90EF900895EF92FF922B
:101C30000F931F937C018B0186EB93E169E077E0C2
:101C40000E942C2A4091101350911113609112138D
:101C50007091131380EF92E121E030E00E949A121C
:101C6000F7019081F801E90FF11D209114132083F1
:101C70009F5FF7019083090F111D20911513F80143
:101C800020839F5FF701908390916A129E5F9093EB
:101C90006A121F910F91FF90EF900895089561309F
:101CA000710571F06230710511F580912B18882350
:101CB00059F48BEF94E162E070E00E945075089552
:101CC00080912B18882349F06091041870910518B1
:101CD0008BED92E10E940C1108958BEF94E161E08D
:101CE00070E00E9450758BEF94E10E940E7508958C
:101CF000CF92DF92EF920F93CF93DF936C01EB01C2
:101D000086EB93E163E177E00E9494298DE693E10D
:101D10000E944320BC0186EB93E10E94942986EB4C
:101D200093E163E377E00E94942986EB93E164EE0C
:101D300072E10E9494298BED92E10E945311882355
:101D400089F486EB93E169E377E00E9494298AEFB6
:101D500091E161E170E00E949604C60161E070E0EB
:101D60000E944F0E86EB93E163E577E00E94942991
:101D7000C130D10561F484EB93E164EE72E141E09E
:101D800022E00EE150E1E52E0E94DE270FC084EB39
:101D900093E164EE72E141E022E00CE130E1E32EF8
:101DA0000E94DE278BEF94E10E94266E84EB93E184
:101DB0000E9426288DE693E10E9493208BED92E10C
:101DC0000E943E118DE693E160E140E00E944F20C9
:101DD0008091E8119091E911A091EA11B091EB1175
:101DE00096FF23C086EB93E167E677E00E94942993
:101DF0008DE693E10E944320BC0186EB93E10E94B3
:101E00002C2A80EF92E10E9473198091411388235C
:101E100049F08AEF91E16AEE77E14FE024E837E09C
:101E20000E944A050E94237E6BCF8091E811909119
:101E3000E911A091EA11B091EB1184FF2CC086EB5F
:101E400093E10E943A2A86EB93E165E877E00E94ED
:101E500094298DE693E10E944320BC0186EB93E137
:101E60000E942C2A80912B18882349F06091041835
:101E7000709105188BED92E10E940C110AC08BEF56
:101E800094E161E070E00E9450758BEF94E10E9454
:101E90000E750E94237EDF91CF910F91EF90DF901E
:101EA000CF900895FC0111821082809185136AE021
:101EB0000E948E8890E0918380832091841346E075
:101EC000249F90011124280F391F31832083809192
:101ED000831390E048E651E0BC01649FC001659F18
:101EE000900D749F900D1124280F391F318320838A
:101EF00008951092DE121092DD120895CF92DF92B3
:101F0000EF92FF920F931F93DF93CF93CDB7DEB77E
:101F10002C970FB6F894DEBF0FBECDBF8B016901C1
:101F2000DE011196E4EEF1E183E001900D92815023
:101F3000E1F7DE011496E1EEF1E183E001900D920C
:101F40008150E1F7DE011796EEEDF1E183E00190BB
:101F50000D928150E1F7DE011A96EBEDF1E183E09D
:101F600001900D928150E1F781E2003C180750F199
:101F7000C80160EC71E20E949A88462FC80160ECAB
:101F800071E20E949A888C0100D000D000D0EDB799
:101F9000FEB73196CE010196ADB7BEB712969C93AF
:101FA0008E93119780E997E093838283448315820F
:101FB0000E94078D8DB79EB706960FB6F8949EBF08
:101FC0000FBE8DBF91E008361907D8F1C80168E649
:101FD00071E00E949A88462FC80168E671E00E946D
:101FE0009A888C01CE0104964A3078F000D000D057
:101FF00000D0EDB7FEB73196ADB7BEB712969C9341
:102000008E93119784E997E00EC000D000D000D0E5
:10201000EDB7FEB73196ADB7BEB712969C938E93CF
:10202000119780E997E093838283448315820E940D
:10203000078D8DB79EB706960FB6F8949EBF0FBE5C
:102040008DBF0630110508F440C0C80166E070E09D
:102050000E949A88262FC80166E070E00E949A8844
:102060007C018C01CE0107962A3078F000D000D098
:1020700000D0EDB7FEB73196ADB7BEB712969C93C0
:102080008E93119784E997E00EC000D000D000D065
:10209000EDB7FEB73196ADB7BEB712969C938E934F
:1020A000119780E997E093838283248315820E94AD
:1020B000078D8DB79EB706960FB6F8949EBF0FBEDC
:1020C0008DBF96E0E916F10458F50115110541F1AF
:1020D00000D000D000D0EDB7FEB73196CE010A9601
:1020E000ADB7BEB712969C938E93119784E997E093
:1020F00093838283C80133E0880F991F3A95E1F7F3
:10210000000F111F800F911F848315820E94078D7D
:102110008DB79EB706960FB6F8949EBF0FBE8DBFC3
:10212000ADB7BEB71C970FB6F894BEBF0FBEADBF1C
:10213000EDB7FEB731961296DC92CE92119787E9F1
:1021400097E093838283CE01019695838483CE01A9
:10215000049697838683CE01079691878087CE0168
:102160000A96938782870E94078D8DB79EB70C963B
:102170000FB6F8949EBF0FBE8DBF80E02C960FB6B1
:10218000F894DEBF0FBECDBFCF91DF911F910F91AD
:10219000FF90EF90DF90CF9008950F931F93CF9310
:1021A000DF93FC01EB0141E2603C7407B8F0CB0126
:1021B00060EC71E20E949A88262F30E080E49EED68
:1021C000AC01249FC001259F900D349F900D1124D8
:1021D000C80FD91F80918613860F02C08091861385
:1021E0008087608171816C0F7D1F778366838F018B
:1021F000075F1F4FCF01408598010E947E0F8DE63B
:1022000093E1B80140E021E00E94AC1F80E0DF9143
:10221000CF911F910F910895CF93DF93FC01EB01B4
:1022200041E2603C7407B8F0CB0160EC71E20E94BF
:102230009A88262F30E080E49EEDAC01249FC001F7
:10224000259F900D349F900D1124C80FD91F8091A8
:102250008613860F02C0809186138087608171810A
:102260006C0F7D1F77836683CF01408539969F0170
:102270000E947E0F80E0DF91CF910895EF92FF9250
:102280000F931F937C010DE613E1C8010E944320C8
:10229000C7010E94520FC8010E9443201F910F9155
:1022A000FF90EF9008950F931F938C018BED92E1B7
:1022B0000E943E11F8012681378180819181821729
:1022C000930740F486EB93E163EA77E00E942C2ABF
:1022D00081E007C086EB93E169EA77E00E942C2A4F
:1022E00080E01F910F9108950F931F938C018DE64D
:1022F00093E10E94B61DC8010E943E111F910F91EB
:1023000008950F931F938C018DE693E160EB77E0C6
:102310000E94B61DC8010E943E111F910F910895A1
:10232000FC01138212828CE099E1918380831782F1
:1023300016828BEA98E195838483138612868AE459
:1023400098E1918780871786168682EA99E19587BA
:102350008487138A128A86EE91E1918B808B178A8B
:10236000168A87E098E1958B848B138E128E85E90F
:1023700097E1918F808F178E168E84EC95E1958F63
:10238000848F13A212A28BE297E191A380A317A2DC
:1023900016A28BEB96E195A384A3DF01A35ABF4F4E
:1023A00020E080910418909105188D939D932F5FE4
:1023B0002A30B9F7E15BFF4F1192119281E08083DF
:1023C000B4968FEE93E0918380830895089580EF13
:1023D00092E10E9490110895AF92BF92CF92DF9246
:1023E000EF92FF921F93CF93DF933DE5C32ED12C45
:1023F000C80ED91E21E0A22EB12C96EDE92E97E051
:10240000F92E80910018909101188A219B21892B27
:10241000B1F0B7016150704087EB93E10E94AE2BA1
:10242000182F87EB93E1B7010E94AE2BD82FC0E0A5
:10243000CE01810F911DF6019183808303C0F601C7
:102440001182108282E090E0E80EF91EC80ED91EBB
:1024500098EFE91697E0F90619F0AA0CBB1CD1CF4A
:10246000DF91CF911F91FF90EF90DF90CF90BF90C1
:10247000AF900895EF92FF920F931F93CF93DF9346
:102480007B01C1EDD1E101E010E0C8018E219F2167
:10249000892B19F0E881F9810995229681E1C53EE1
:1024A000D80719F0000F111FF0CF8BEF94E168EB04
:1024B0007BE041E00E943D71DF91CF911F910F9130
:1024C000FF90EF900895EF92FF920F931F93CF9399
:1024D000DF938C01035A1F4F61E0E62EF12CC6ED0D
:1024E000D7E080910018909101188E219F21892BAF
:1024F00081F0BE01615070408BEF94E1F8014081A2
:102500000E943D71F80141818BEF94E1BE010E9470
:102510003D7122960E5F1F4FF7E0C83FDF0719F0AD
:10252000EE0CFF1CDECFDF91CF911F910F91FF903A
:10253000EF900895EF92FF920F931F93CF93DF9345
:10254000EC017A018B012031310509F490C0213171
:102550003105ACF42230310509F469C0233031056E
:102560002CF42130310509F0BAC01EC024303105E9
:1025700009F463C02830310509F0B1C071C02034BE
:10258000310509F4AAC0213431052CF4203231057B
:1025900009F0A5C07BC02038310509F47DC020506A
:1025A000314009F09CC086C086EB93E164ED77E092
:1025B0000E94942986EB93E1B801A7010E94212A89
:1025C000C801B70120E030E040E252E40E945586A5
:1025D00020E030E048EC52E40E940C880E942A87F8
:1025E0007B018C01FCA26DA386EB93E162EE77E0A8
:1025F0000E9494296CA186EB93E170E00E948429EB
:1026000086EB93E16DEE77E00E9494296DA186EB55
:1026100093E170E00E94842940E09CA180E02DA11C
:10262000820F911DE816F90609F05FC05FC0CB016B
:10263000BA010E942A876AA718C0CB01BA0120E01C
:1026400030E048EC52E40E940C8820E030E543E49E
:1026500057E40E9454860E942A877FA768AB0DC06A
:10266000CB01BA010E942A876BAB40E03FC0CB018F
:10267000BA010E942A8778AF69AF40E0372F20E087
:10268000260F311D6217730781F530C0CB01BA01E7
:102690000E942A876EAFE9CFCB01BA010E942A8738
:1026A000FE01E35BFF4F7083C25BDF4F688340E056
:1026B0003081E5CFCB01BA0120E030E040E450E4C6
:1026C0000E94BD86C85ADF4F20E030E048EC52E45B
:1026D0000E940C880E942A87688342E007C086EB2C
:1026E00093E168EF77E00E942C2A41E0842FDF918C
:1026F000CF911F910F91FF90EF900895EF92FF926D
:102700000F931F9387EB93E16AEC7BE00E94AE2B63
:10271000082F10E00454134F87EB93E16BEC7BE040
:102720000E94AE2B409124135091251360912613E3
:102730007091271380EF92E120E130E00E949A121D
:1027400078010894E11CF11C8BEF94E1B8014091F1
:1027500028130E943D718BEF94E1B701409129133A
:102760000E943D7186EFE8168CE0F80619F020E033
:1027700030E002C020E130E0C9011F910F91FF90CD
:10278000EF9008950F931F9387EB93E168EC7BE044
:102790000E94AE2B082F10E00058134F87EB93E1F7
:1027A00069EC7BE00E94AE2B6091211370912213A3
:1027B00080E090E00E945687AB01BC0180EF92E17F
:1027C00028E030E00E949A128BEF94E1B80140912A
:1027D00023130E943D710A5B1C4019F020E030E099
:1027E00002C028E030E0C9011F910F910895EF92D7
:1027F000FF920F931F9387EB93E166EC7BE00E94BF
:10280000AE2B082F10E00C5B134F87EB93E167ECC6
:102810007BE00E94AE2B40911B1350911C136091E2
:102820001D1370911E1380EF92E124E030E00E94AE
:102830009A1278010894E11CF11C8BEF94E1B80125
:1028400040911F130E943D718BEF94E1B7014091BD
:1028500020130E943D718EE7E8168CE0F80619F00F
:1028600020E030E002C024E030E0C9011F910F9168
:10287000FF90EF9008950F931F9387EB93E164EC23
:102880007BE00E94AE2B082F10E0085F134F87EB10
:1028900093E165EC7BE00E94AE2B409116135091C2
:1028A0001713609118137091191380EF92E122E0D1
:1028B00030E00E949A128BEF94E1B80140911A1314
:1028C0000E943D7102541C4019F020E030E002C02B
:1028D00022E030E0C9011F910F910895EF92FF921D
:1028E0000F931F9387EB93E162EC7BE00E94AE2B8A
:1028F000082F10E00453144F87EB93E163EC7BE067
:102900000E94AE2B4091101350911113609112133D
:102910007091131380EF92E121E030E00E949A124F
:1029200078010894E11CF11C8BEF94E1B80140910F
:1029300014130E943D718BEF94E1B7014091151380
:102940000E943D7120E030E086E0E8168CE0F80659
:1029500011F421E030E0C9011F910F91FF90EF9039
:1029600008950F931F93CF93DF938C01C091B413FD
:10297000D091B513C034D10509F49CC0C134D10540
:1029800000F5C430D10509F469C0C530D10568F43B
:10299000C130D10509F451C0C130D10508F441C09E
:1029A000C230D10509F0EBC04DC0C031D10509F4EA
:1029B0006BC0C032D10509F472C0289709F0DFC09E
:1029C00058C084E0C030D80709F4A0C0E4E0C130AA
:1029D000DE0778F4F1E0C030DF0709F481C082E05F
:1029E000C030D80709F487C0C038D10509F0C7C086
:1029F0006CC0E0E1C030DE0709F49EC0F0E1C130F8
:102A0000DF0728F4C050D84009F0B9C08AC0E0E21E
:102A1000C030DE0709F49BC0C050D04409F0AFC0FD
:102A2000A1C086EB93E16AE078E00E942C2A0D5B5E
:102A30001F4FF80111821082A2C086EB93E16CE077
:102A400078E004C086EB93E160E178E00E942C2AF4
:102A50000D5B1F4FF801D183C08391C086EB93E1DA
:102A600063E178E00E942C2A0D5B1F4F83E090E029
:102A700083C086EB93E167E178E00E942C2A0D5B2E
:102A80001F4F84E090E078C086EB93E169E178E045
:102A90000E942C2A0D5B1F4F85E090E06DC086EBF5
:102AA00093E16DE178E00E942C2A0D5B1F4F86E0D8
:102AB00090E062C086EB93E160E278E00E942C2A0D
:102AC0000D5B1F4F87E090E057C086EB93E164E217
:102AD00078E00E942C2A0D5B1F4F88E090E04CC0EC
:102AE00086EB93E166E278E00E942C2A0D5B1F4F93
:102AF00089E090E041C086EB93E16AE278E00E94D1
:102B00002C2A0D5B1F4F8AE090E036C086EB93E1E4
:102B10006DE278E00E942C2A0D5B1F4F8BE090E065
:102B20002BC086EB93E161E378E00E942C2A0D5BD9
:102B30001F4F8CE090E020C086EB93E163E378E0E8
:102B40000E942C2A0D5B1F4F8DE090E015C086EB94
:102B500093E167E378E00E942C2A0D5B1F4F8EE023
:102B600090E00AC086EB93E16AE378E00E942C2AA9
:102B70000D5B1F4F8FE090E0F80191838083DF9120
:102B8000CF911F910F910895EF92FF920F931F9392
:102B90008C0176EBE72E73E1F72EC7016EE378E048
:102BA0000E942C2A015B1F4FF8016081718180E037
:102BB00090E00E94568724E83DE04FE85EE30E94E3
:102BC0000C8806501040F8016083718382839383E0
:102BD000C70168E578E00E942C2A1F910F91FF90B1
:102BE000EF900895AF92BF92DF92EF92FF920F9312
:102BF0001F93CF93DF93EC017B016115710511F4F5
:102C000081E0AFC068307105D9F48E859F852C8531
:102C10003D8580FF0EC0FC01F595E795EC0FFD1F8B
:102C20000190F081E02DE20FF31F0190F081E02D83
:102C300001C0F901959587958C0F9D1F099590C04E
:102C400086EB93E16BE778E00E949429609102188B
:102C500086EB93E170E00E94842986EB93E161E9C1
:102C600078E00E94942986EB93E1B7010E948429C1
:102C700084EB93E160E00E94F7268DE693E10E94E9
:102C8000932001E010E0DD2441E0A42EB12C63C0CC
:102C900080912B18882339F0C8018E219F21892B20
:102CA00009F456C02BC080912718909128189801DC
:102CB0002E213F210297A0F4232B09F449C08091D3
:102CC0001C1890911D188A199B09880F991FE09173
:102CD0001818F0911918E80FF91F6081718106C06A
:102CE000232BB1F160912018709121188091DB1293
:102CF0009091DC120E949A88892B51F58D2D90E0DD
:102D0000880F991F880F991FFE01E80FF91F228174
:102D10003381DC0120FF12C0F901F595E795EC0F36
:102D2000FD1FAC0FBD1F0190F081E02D8D919C9196
:102D3000E80FF91F0190F081E02D04C0AC0FBD1F1A
:102D4000ED91FC9135952795CE01820F931F099542
:102D5000000F111FD39480910218D81608F498CF51
:102D600080E0DF91CF911F910F91FF90EF90DF9066
:102D7000BF90AF900895AF92BF92CF92DF92EF9243
:102D8000FF920F931F93CF93DF936C0186EB93E138
:102D900069E978E00E942C2A89E590E0C80ED91EE6
:102DA00080E090E0A0E0B0E0F60180839183A28310
:102DB000B38384EB93E160E040E054E00E94D923C8
:102DC00064E670E080E090E00E949402C0E0D0E011
:102DD0005601F501E080F1800281138184EB93E1DB
:102DE00060E074E00E942B299B01AC01C801B7018F
:102DF0000E945586F50160837183828393832196B7
:102E0000CA30D10531F784EB93E161E040E054E052
:102E10000E94D923F601608171818281938120E033
:102E200030E040E251E40E94BD8622E539E44DE104
:102E300059E30E94BD86F601608371838283938388
:102E4000DF91CF911F910F91FF90EF90DF90CF9086
:102E5000BF90AF900895AF92BF92CF92DF92EF9262
:102E6000FF920F931F93CF93DF936C0186EB93E157
:102E70006AEA78E00E942C2A84E590E0C80ED91E08
:102E800080E090E0A0E0B0E0F60180839183A2832F
:102E9000B38384EB93E160E040E050E20E94D923E9
:102EA00064E670E080E090E00E949402C0E0D0E030
:102EB0005601F501E080F1800281138184EB93E1FA
:102EC00060E070E20E942B299B01AC01C801B701B0
:102ED0000E945586F50160837183828393832196D6
:102EE000CA30D10531F784EB93E161E040E050E274
:102EF0000E94D923F601608171818281938120E053
:102F000030E040E251E40E94BD86F60160837183A7
:102F100082839383DF91CF911F910F91FF90EF9068
:102F2000DF90CF90BF90AF9008958F929F92AF9215
:102F3000BF92CF92DF92EF92FF920F931F93CF93A6
:102F4000DF934C0186EB93E161ED78E00E942C2A3F
:102F5000EFE3CE2ED12CC80CD91C80E090E0A0E08D
:102F6000B0E0F60180839183A283B38384EB93E185
:102F700060E040E050E00E94D92364E670E080E029
:102F800090E00E949402C0E0D0E05601F501E0809C
:102F9000F1800281138184EB93E160E070E00E9494
:102FA0002B299B01AC01C801B7010E945586F50190
:102FB00060837183828393832196CA30D10531F770
:102FC00084EB93E161E040E050E00E94D923F601F8
:102FD000608171818281938120E030E040E251E4A0
:102FE0000E94BD86F6016083718382839383C4014E
:102FF0000E94B114DF91CF911F910F91FF90EF903C
:10300000DF90CF90BF90AF909F908F900895CF9218
:10301000DF92EF92FF920F931F937C01F6EBCF2E7E
:10302000F3E1DF2EC6016DED78E00E942C2A80E0EE
:1030300090E0A0E0B0E0F70182AF93AFA4AFB5AFEE
:1030400004EB13E1C80160E041E050E00E94D923A5
:1030500064E670E080E090E00E949402C80161E0C4
:1030600070E00E942B29F70162AF73AF84AF95AF78
:10307000C80161E041E050E00E94D923C6016AEE38
:1030800078E00E942C2A1F910F91FF90EF90DF9023
:10309000CF900895CF92DF92EF92FF920F931F93FC
:1030A000CF93DF936C0186EB93E161E079E00E94BE
:1030B0002C2A80E090E0A0E0B0E0F60183A794A77E
:1030C000A5A7B6A784EB93E160E040E050E10E9441
:1030D000D92364E670E080E090E00E949402C0E0B2
:1030E000D0E0F601E3A4F4A405A516A584EB93E1D2
:1030F00060E070E10E942B299B01AC01C801B7017F
:103100000E945586F60163A774A785A796A7219606
:10311000CA30D10531F784EB93E161E040E050E142
:103120000E94D923F60163A574A585A596A520E084
:1031300030E040E251E40E94BD86F60163A774A727
:1031400085A796A7DF91CF911F910F91FF90EF90E8
:10315000DF90CF900895CF92DF92EF92FF920F937E
:103160001F93CF93DF936C0186EB93E161E179E0EC
:103170000E942C2A80E090E0A0E0B0E0F60186A357
:1031800097A3A0A7B1A784EB93E160E040E052E0F1
:103190000E94D92364E670E080E090E00E949402EF
:1031A000C0E0D0E0F601E6A0F7A000A511A584EBF1
:1031B00093E160E072E00E942B299B01AC01C80101
:1031C000B7010E945586F60166A377A380A791A751
:1031D0002196CA30D10531F784EB93E161E040E0FC
:1031E00052E00E94D923F60166A177A180A591A59E
:1031F00020E030E040E251E40E94BD86F60166A383
:1032000077A380A791A7DF91CF911F910F91FF9096
:10321000EF90DF90CF900895CF92DF92EF92FF92E0
:103220000F931F93CF93DF936C0186EB93E161E2E1
:1032300079E00E942C2A80E090E0A0E0B0E0F60166
:1032400080A391A3A2A3B3A384EB93E160E040E049
:1032500051E00E94D92364E670E080E090E00E9493
:103260009402C0E0D0E0F601E0A0F1A002A113A119
:1032700084EB93E160E071E00E942B299B01AC019B
:10328000C801B7010E945586F60160A371A382A30D
:1032900093A36AE070E080E090E00E94940221969F
:1032A000CA30D10501F784EB93E161E040E051E0E1
:1032B0000E94D923F60160A171A182A193A120E00F
:1032C00030E040E251E40E94BD86F60160A371A3A4
:1032D00082A393A3DF91CF911F910F91FF90EF9065
:1032E000DF90CF900895CF93DF93EC01FC01E15B79
:1032F000FF4F808191812FEF8F3F920719F0019648
:10330000918380838BED92E10E943E11FE01EF5A82
:10331000FF4F8081DE01AE5ABF4F2091DB1230910A
:10332000DC12882321F010822D933C9308C08D91EC
:103330009C91281B390B2856314008F01082DF91F0
:10334000CF910895EF92FF920F931F93CF93DF9346
:103350007C0186EB93E164E379E00E942C2AF7017B
:1033600012AA11AAC0E0D0E0F70101A912A98BE6C8
:1033700093E10E94EA199801280F311DC901F70154
:1033800032AB21AB2196CA30D10571F76AE070E00B
:103390000E949A8872AB61ABDF91CF911F910F9120
:1033A000FF90EF900895EAE7F0E0808180688083E5
:1033B00008950C9400F00895089589E261E00E9458
:1033C000DE0388E261E00E94DE038BE798E10E9461
:1033D00072790895EF92FF920F931F9389E161E054
:1033E0000E94DE0389E161E00E94FC0380E00E940C
:1033F000CE81AA2797FDA095BA2FBC01CD010E94CE
:1034000058877B018C0120E030E040E054E40E94CA
:10341000B986882334F489E160E00E94FC0310E05F
:1034200046C0C801B70120E030EC42E254E40E94FB
:103430000888181634F489E160E00E94FC0314E661
:1034400036C0C801B70120E030EC42E254E40E94EB
:10345000B9861816BCF0C801B70120E030EC47E08F
:1034600054E40E94088818166CF4C801B70125E5D9
:1034700035E545E55FE30E940C8820E030E04DED46
:1034800053E40CC0C801B70120E030E040EA5EE33D
:103490000E940C8820E030E040E253E40E94548611
:1034A0000E942A87162F89E160E00E94FC03812F89
:1034B0001F910F91FF90EF9008951F93162F809109
:1034C0007A008F7780937A0081E261E00E94DE03C8
:1034D00081E260E00E94FC038BE161E00E94DE0378
:1034E0008BE160E00E94FC0310FF10C08AE161E004
:1034F0000E94DE038AE160E00E94FC0388E161E053
:103500000E94DE0388E160E00E94FC0311FF09C015
:1035100087EF94E10E94892C87EF94E163E00E9499
:103520004B2C12FF13C081E00E94E1838FE261E027
:103530000E94DE038FE260E00E94FC0383E261E010
:103540000E94DE0383E260E00E94FC0313FF08C0D8
:1035500089E161E00E94DE0389E160E00E94FC03F2
:103560001F9108950895FC01138A148A158A168AFA
:10357000178A108E118E128E138E148E158E168E43
:10358000178E10A211A212A280E090E0A0E0B0E09D
:1035900083A394A3A5A3B6A30895262F862F6AE03C
:1035A0000E948E88492F30E0C901841B91096AE08E
:1035B00070E00E94AE88E4E0660F771FEA95E1F7BD
:1035C000842F862B08950895CF93DF93EC018D8986
:1035D000843009F45FC0853048F4823059F183307B
:1035E00008F040C0813009F0D2C00AC0863009F42A
:1035F00081C0863008F466C0873009F0C8C092C028
:103600008DB79EB742970FB6F8949EBF0FBE8DBF81
:10361000EDB7FEB73196A896ADB7BEB71296DC935C
:10362000CE931197A89783E499E09383828387E6EA
:1036300099E08FC0ADB7BEB752970FB6F894BEBF32
:103640000FBEADBFEDB7FEB73196A8961296DC93CC
:10365000CE931197A89783E499E0938382838EE6B3
:1036600099E077C0ADB7BEB752970FB6F894BEBF1A
:103670000FBEADBFEDB7FEB73196A8961296DC939C
:10368000CE931197A89783E499E09383828385E78B
:1036900099E05FC0ADB7BEB752970FB6F894BEBF02
:1036A0000FBEADBFEDB7FEB73196A8961296DC936C
:1036B000CE931197A89783E499E0938382838DE753
:1036C00099E047C0ADB7BEB752970FB6F894BEBFEA
:1036D0000FBEADBFEDB7FEB73196A8961296DC933C
:1036E000CE931197A89783E499E09383828387E828
:1036F00099E02FC0ADB7BEB752970FB6F894BEBFD2
:103700000FBEADBFEDB7FEB73196A8961296DC930B
:10371000CE931197A89783E499E09383828380E9FD
:1037200099E017C0ADB7BEB752970FB6F894BEBFB9
:103730000FBEADBFEDB7FEB73196A8961296DC93DB
:10374000CE931197A89783E499E09383828387E9C6
:1037500099E0958384838B89868317828C898087FF
:103760001186898D828713868E89848715868F8935
:1037700086871786888D808B118A0E94078D8DB76A
:103780009EB742960FB6F8949EBF0FBE8DBF9E01A6
:10379000285D3F4FC901DF91CF910895DF92EF92ED
:1037A000FF920F931F938C01D62EABE7EA2EA8E170
:1037B000FA2EC70168E670E00E945079C7016D2DAE
:1037C0000E947C790D0D111DC701F80160810E94D6
:1037D0007C79C7010E94A3791F910F91FF90EF9010
:1037E000DF90089580917C138C7F80937C138DE60D
:1037F00093E16FE00E94CE1B08950F931F938C01FD
:1038000060E170E080E090E00E942C7EC8010E94A0
:10381000F21B1F910F9108951F93CF93DF93EC013B
:10382000142F613009F08CC08E858D7F85608E8766
:10383000CE016EE00E94CE1B8F858C7F8F87CE01DC
:103840006FE00E94CE1B133009F452C0143030F4E4
:10385000113031F18F811230D8F50AC0153009F4DA
:1038600054C0153008F44EC0163009F0DDC0D2C087
:103870008F778F83CE0167E00E94CE1B88858F777C
:103880008887CE0168E00E94CE1B89858F77898763
:10389000CE0169E00E94CE1B8A858F7780644CC080
:1038A0008F818F778F83CE0167E00E94CE1B888542
:1038B0008F778887CE0168E00E94CE1B89858F773D
:1038C0008987CE0169E00E94CE1B8A858F7334C040
:1038D0008F778F83CE0167E00E94CE1B88858F771C
:1038E0008887CE0168E00E94CE1B89858F771DC036
:1038F0008F818F778F83CE0167E00E94CE1B8885F2
:103900008F770CC08F818F7702C08F8180688F8303
:10391000CE0167E00E94CE1B888580688887CE0133
:1039200068E00E94CE1B898580688987CE0169E0A6
:103930000E94CE1B8A8580688A87CE016AE067C0B4
:10394000623009F071C08E858E7F86608E87CE01D1
:103950006EE00E94CE1B8F858C7F8F87CE016FE03B
:103960000E94CE1B123099F1133030F4112361F014
:10397000113009F059C01AC01430B1F1143088F177
:10398000153009F051C046C08B858F778B87CE01EB
:103990006BE00E94CE1B8C858F778C87CE016CE00C
:1039A0000E94CE1B8D858F7780642EC08B858F778C
:1039B0008B87CE016BE00E94CE1B8C858F778C8726
:1039C000CE016CE00E94CE1B8D858F731DC08B8550
:1039D0008F778B87CE016BE00E94CE1B8C858F7713
:1039E0000CC08B858F7702C08B8580688B87CE015A
:1039F0006BE00E94CE1B8C8580688C87CE016CE0CA
:103A00000E94CE1B8D8580688D87CE016DE00E945F
:103A1000CE1B0AC08E85887F8E87CE016EE00E9405
:103A2000CE1BCE010E94FD1B60E170E080E090E0C3
:103A30000E94867EDF91CF911F910895DF92EF92D1
:103A4000FF920F931F938C01ABE7EA2EA8E1FA2EA9
:103A5000C70168E670E00E945079C70167E070E036
:103A60000E94A079C801F801628D0E94CD1AFFE77B
:103A7000DF2ED822F801D782C801638D0E94CD1AAB
:103A80008F77F8018087C801648D0E94CD1A8F77E7
:103A9000F8018187C801658D0E94CD1A8F73F801E6
:103AA0008287C7016D2D0E947C79C701F80160856E
:103AB0000E947C79C701F80161850E947C79C70169
:103AC000F80162850E947C79C7010E94A3791F9149
:103AD0000F91FF90EF90DF9008950F931F93CF9376
:103AE000DF93EC018BE798E168E670E00E94507983
:103AF0008BE798E160E070E00E94A079CE01688DCC
:103B00000E94CD1A8883CE016F890E94CD1A8983C5
:103B1000CE016E890E94CD1A8A838D898B83CE0156
:103B2000698D0E94CD1A8C83CE016C890E94CD1ABA
:103B30008D83CE016B890E94CD1A8E8300E010E048
:103B4000FE01E00FF11F8BE798E160810E947C7914
:103B50000F5F1F4F0730110599F78BE798E10E941F
:103B6000A379DF91CF911F910F910895DC01FB01A3
:103B700021812053808180533AE0839FC00111242A
:103B8000280F53962C93539724812053838180537D
:103B9000839FC0011124280F54962C93549727819A
:103BA000205386818053839FC0011124280F59968A
:103BB0002C9359972285205381858053839FC00180
:103BC0001124280F55962C935597258520538485CD
:103BD0008053839FC0011124280F56962C9356972B
:103BE0002089205387858053839FC0011124280F8B
:103BF00057962C9357972389205382898053839F0C
:103C0000C0011124280F58962C935897CD010E947B
:103C10006D1D0895CF92DF92EF92FF921F93CF9385
:103C2000DF937C01162F8BE798E168E670E00E9435
:103C300050798BE798E160E070E00E94A0798BE713
:103C400098E10E94A3798BE798E168E670E042E191
:103C500050E00E94C479C0E0D0E0C12EDD241AE01B
:103C600009C18BE798E10E945A79882309F402C1BF
:103C70008BE798E10E946079282FF701EC0FFD1F78
:103C80008083C630D10509F482C0C730D105B8F4AD
:103C9000C230D10509F44EC0C330D10538F42097A5
:103CA00069F1C130D10509F0E4C036C0C430D10596
:103CB00009F451C0C530D10508F05BC049C0CA3015
:103CC000D10509F49BC0CB30D10558F4C830D105DB
:103CD00009F478C090E02F70C930D10508F081C098
:103CE00064C0CC30D10509F4A7C0CC30D10508F4AC
:103CF00094C0CD30D10509F0BCC0ADC090E054E017
:103D0000959587955A95E1F7819FC00111242F70F1
:103D1000280FF701208FADC090E044E0959587957E
:103D20004A95E1F7819FC00111242F70280FF701F8
:103D3000278B9FC090E034E0959587953A95E1F701
:103D4000819FC00111242F70280FF701268B91C08D
:103D5000F701858B8EC090E0B4E095958795BA9574
:103D6000E1F7819FC00111242F70280FF701218FE7
:103D700080C090E0A4E095958795AA95E1F7819F92
:103D8000C00111242F70280FF701248B72C090E01E
:103D9000F4E095958795FA95E1F7819FC00111248C
:103DA0002F70280FF701238B64C0E4E09595879569
:103DB000EA95E1F78770819FC0011124280FF70170
:103DC000228F57C090E074E0959587957A95E1F73A
:103DD0008770819FC00111242F70280FF701238F56
:103DE00048C064E0959587956A95E1F78370819F57
:103DF000C0011124280FF701248F3BC090E054E04C
:103E0000959587955A95E1F78370819FC00111249C
:103E10002F70280FF701258F2CC090E044E0959576
:103E200087954A95E1F78770819FC00111242F7013
:103E3000280FF701268F1DC090E034E095958795F7
:103E40003A95E1F78370819FC00111242F70280FEC
:103E5000F701278F0EC090E0B4E095958795BA954D
:103E6000E1F78370819FC00111242F70280FF701A3
:103E700020A32196CC16DD0608F0F3CEDF91CF917A
:103E80001F91FF90EF90DF90CF900895EF92FF92F7
:103E90000F931F93DF93CF93CDB7DEB7A8970FB6DD
:103EA000F894DEBF0FBECDBF8C016AE00E940A1EEF
:103EB0008DB79EB742970FB6F8949EBF0FBE8DBFC9
:103EC000EDB7FEB731967E010894E11CF11CADB749
:103ED000BEB71296FC92EE92119784EC99E0938310
:103EE0008283D80159968C91599784831582539671
:103EF0008C9153978683178254968C915497808720
:103F000011865D968C915D97828713865C968C9165
:103F10005C97848715865B968C915B97868717865E
:103F20005A968C91808B118A0E94078D8DB79EB70F
:103F300042960FB6F8949EBF0FBE8DBFC701A896DC
:103F40000FB6F894DEBF0FBECDBFCF91DF911F91AA
:103F50000F91FF90EF9008951F93CF93DF93EC01A3
:103F6000FB01122F21812053808180533AE0839FEF
:103F7000C0011124280F2D8F248120538381805369
:103F8000839FC0011124280F2C8F27812053868105
:103F90008053839FC0011124280F2B8F228520532B
:103FA00081858053839FC0011124280F2A8F4423C9
:103FB00009F05BC0CE0166E00E940A1E988D8A8DD2
:103FC000980F9A8F9C3328F09C539A8F8B8D8F5F1C
:103FD0008B8F9F898B8D980F9B8F9C3328F09C53E0
:103FE0009B8F8C8D8F5F8C8F9E898C8D980F9C8F73
:103FF000983128F098519C8F8D8D8F5F8D8F2D8DEE
:10400000112339F48D89820F8D8F883070F187509C
:104010002BC0998D920F9D8F8C89813051F0833008
:1040200041F0853031F0873021F0883011F08C304C
:1040300021F4903210F09F519D8F8C89843041F093
:10404000863031F0893021F08A3011F08B3029F43C
:104050008D8D8F3110F08E518D8F8C89823029F4A7
:104060008D8D8D3110F08C518D8F8DE693E10E94F6
:104070001E1D8DE693E161E0412F0E940C1CDF9133
:10408000CF911F9108950F931F938C0166E00E94BA
:104090000A1EC8010E94E41A1F910F9108950F9300
:1040A0001F93CF93DF93EC01042F6FA380E361E0B4
:1040B0000E94DE031FA1113019F0103199F40DC0D8
:1040C00080E361E00E94FC03013019F482E08A8BF6
:1040D00009C0002339F41A8B05C080E360E00E9418
:1040E000FC031A8ADF91CF911F910F910895CF930E
:1040F000DF93EC0161E040E00E944F2080917B184B
:10410000882321F48BE798E10E94C779CE010E94B1
:10411000F21BCE010E94B31ACE016DE00E940A1E6E
:10412000DF91CF9108950E9477200895AF92BF92BA
:10413000CF92DF92EF92FF920F931F939B01411555
:10414000510561F14130510559F00F2EF0E0EF2E8D
:10415000F0E0FF2EF0E00F2FF0E01F2FF02D49C010
:10416000B901882777FD8095982F0E9458877B0199
:104170008C012DEB32E546E15DE30E940C8825ECD5
:104180003EEF42E050E40E9454865B016C01C8019E
:10419000B70126EF34E246ED55EB1DC0B901882783
:1041A00077FD8095982F0E9458877B018C012DEB1D
:1041B00032E546E15FE30E940C8825EC3EEF42E0E9
:1041C00050E40E9454865B016C01C801B7012BE3E7
:1041D00035E246ED59EB0E940C88A80197010E9438
:1041E0000C889B01AC01C601B5010E9455867B017C
:1041F0008C01C801B70120E030E046EC52E40E9497
:104200000888181654F40F2EF0E0EF2EF0E0FF2E81
:10421000F8EC0F2FF2E41F2FF02DB701C8011F910A
:104220000F91FF90EF90DF90CF90BF90AF900895E7
:10423000882777FD8095982F0E94588720E030E4EA
:104240004EE455E40E940C8820E030EC4FE754E443
:104250000E94BD862AE939E949E15FE30E94BD86F3
:1042600020E030E047E853E40E94558620E030E447
:104270004CE955E40E94BD862CE53FE842EC5DE345
:104280000E94558620EE3DE240E15CE30E94BD863F
:104290000895EF92FF920F931F93CF93DF93EC015A
:1042A0007A018B01CB01BA0120E030E040E85EE307
:1042B0000E94B98688231CF480E190E04EC1C801B9
:1042C000B70120E030E040E85EE30E9408888823E0
:1042D0006CF0C801B70129E23CE54FE85EE30E94BB
:1042E000B98688231CF484E090E037C1C801B70187
:1042F00029E23CE54FE85EE30E94088888236CF0E1
:10430000C801B70123E333E343EB5EE30E94B986C0
:1043100088231CF488E090E020C1C801B70123E3A2
:1043200033E343EB5EE30E94088888236CF0C80106
:10433000B70120E030E040E05FE30E94B9868823C7
:104340001CF480E490E009C1C801B70120E030E02E
:1043500040E05FE30E94088888236CF0C801B70141
:1043600026E636E646E25FE30E94B98688231CF41F
:1043700080E290E0F2C0C801B70126E636E646E2E8
:104380005FE30E94088888236CF0C801B7012AE91E
:1043900039E949E55FE30E94B98688231CF480E08F
:1043A00091E0DBC0C801B7012AE939E949E55FE3DB
:1043B0000E94088888236CF0C801B7012DEC3CEC02
:1043C0004CE85FE30E94B98688231CF480E890E003
:1043D000C4C0C801B7012DEC3CEC4CE85FE30E947F
:1043E000088888236CF0C801B70127ED33EA40EB59
:1043F0005FE30E94B98688231CF481E090E0ADC0A1
:10440000C801B70127ED33EA40EB5FE30E9408885B
:1044100088236CF0C801B7012DEC3CEC4CEC5FE359
:104420000E94B98688231CF482E090E096C0C801FF
:10443000B7012DEC3CEC4CEC5FE30E94088888232C
:104440006CF0C801B70128E431EE4AEF5FE30E9447
:10445000B98688231CF480E094E07FC0C801B701CE
:1044600028E431EE4AEF5FE30E94088888236CF06D
:10447000C801B7012AE939E949E050E40E94B98648
:1044800088231CF480E092E068C0C801B7012AE9E3
:1044900039E949E050E40E94088888236CF0C8019B
:1044A000B70126E636E646E150E40E94B986882345
:1044B0001CF480E090E451C0C801B70126E636E65E
:1044C00046E150E40E94088888236CF0C801B701D7
:1044D00026E636E646E250E40E94B98688231CF4BC
:1044E000198218823CC0C801B70126E636E646E2CA
:1044F00050E40E94088888236CF0C801B70123E3C8
:1045000033E343E350E40E94B98688231CF480E03F
:1045100090E123C0C801B70123E333E343E350E450
:104520000E94088888236CF0C801B70126E636E6A9
:1045300046E450E40E94B98688231CF480E098E0A9
:104540000CC0C801B70126E636E646E450E40E94F6
:104550000888882324F080E090E299838883DF91A3
:10456000CF911F910F91FF90EF900895882777FDCD
:104570008095982F0E94588720E030E44EE455E45F
:104580000E940C8820E030EC4FE754E40E94BD8686
:104590002AE939E949E15FE30E94BD8620E030E085
:1045A00048E454E40E94548620E030E048EF51E4AF
:1045B0000E94BD860895882777FD8095982F0E94D8
:1045C000588720E030E44EE455E40E940C8820E057
:1045D00030EC4FE754E40E94BD8620E030E04AEF23
:1045E00053E40E94548620E030E040E251E40E940F
:1045F000BD860895AF92BF92CF92DF92EF92FF9265
:104600000F931F93CF93DF930E947C025B016C0199
:10461000EE24FF24C0E0D0E00EC089E00E944704F1
:104620008C0121E0E216F10419F4009709F42196B7
:104630000E947C0278010E947C026A197B098C0925
:104640009D09695B7B408040904038F364E670E0F0
:1046500080E090E00E949402CE01DF91CF911F9103
:104660000F91FF90EF90DF90CF90BF90AF900895A3
:10467000AF92BF92CF92DF92EF92FF920F931F9370
:10468000CF93DF930E947C025B016C01EE24FF2438
:10469000C0E0D0E00EC088E00E9447048C0121E019
:1046A000E216F10419F4009709F421960E947C02A5
:1046B00078010E947C026A197B098C099D09695B5B
:1046C0007B408040904038F364E670E080E090E00A
:1046D0000E949402BE01882777FD8095982F0E9442
:1046E0005887DF91CF911F910F91FF90EF90DF904E
:1046F000CF90BF90AF900895BF92CF92DF92EF928C
:10470000FF920F931F93CF93DF93162F8FE060E0FC
:104710000E94DE0381E160E00E94DE0383E160E04D
:104720000E94DE038AE060E00E94FC03143049F03E
:10473000183051F0123019F42FE0B22E07C0BB240C
:1047400005C093E1B92E02C081E1B82E0E947C021F
:104750006B017C01C0E0D0E000E010E08B2D0E94F6
:104760004704219739F4009729F40F5F1F4FC0E0E9
:10477000D0E001C0EC0187E0003D18077CF30E9407
:104780007C026C197D098E099F090E9456879B0146
:10479000AC0160E074E284EF99E40E94BD86DF9191
:1047A000CF911F910F91FF90EF90DF90CF90BF902E
:1047B0000895662309F051C04034510509F44AC0F8
:1047C00041345105C8F442305105D1F1433051050F
:1047D00040F441155105B1F14130510509F08DC04A
:1047E00031C04830510561F14032510599F14430F2
:1047F000510509F082C024C084E04030580751F1CF
:1048000084E04130580768F481E040305807E1F017
:1048100082E040305807C1F04038510509F06DC0C2
:1048200013C080E14030580749F080E2403058071B
:1048300089F04050584009F060C00CC084E00BC0C3
:1048400082E009C08EE007C087E061E00E94FC03BF
:104850008AE001C087E061E049C0613009F04DC0E5
:104860004034510509F440C041345105B8F4423098
:104870005105B1F14330510538F44115510591F11D
:1048800041305105D1F52EC04830510549F1403233
:10489000510551F14430510581F522C084E040308A
:1048A000580711F184E04130580760F481E040304E
:1048B0005807D1F082E040305807B1F04038510538
:1048C000E1F412C080E14030580741F080E240300E
:1048D000580779F04050584081F406C084E005C084
:1048E00082E003C08EE001C087E060E00E94FC032C
:1048F000089587E060E00E94FC03089582E360E091
:104900000E94DE0382E361E00E94FC0385E061E037
:104910000E94DE0384E061E00E94DE0386E061E045
:104920000E94DE0387E061E00E94DE0389E060E030
:104930000E94DE038AE061E00E94DE0388E060E01E
:104940000E94DE0382E061E00E94DE038EE061E00F
:104950000E94DE038AE161E00E94DE0388E161E0FB
:104960000E94DE038FE060E00E94DE0381E160E0F0
:104970000E94DE0383E160E00E94DE0385E060E0E8
:104980000E94FC0384E060E00E94FC0386E060E09B
:104990000E94FC0387E060E00E94FC038AE060E084
:1049A0000E94FC0382E060E00E94FC038EE060E075
:1049B0000E94FC038AE160E00E94FC0388E160E061
:1049C0000E94FC03089584EB93E10E947E240895E5
:1049D0004F925F927F928F929F92AF92BF92CF92AF
:1049E000DF92EF92FF920F931F93CF93DF932C01EF
:1049F000762E662319F463E0762E05C021E0621757
:104A000011F455E0752E86E061E00E94DE0385E03A
:104A100061E00E94DE0386E061E00E94FC0385E025
:104A200061E00E94FC0381E090E00E94DC0286E0ED
:104A300060E00E94FC0385E060E00E94FC0381E0EE
:104A400090E00E94DC0285E061E00E94FC0386E0C9
:104A500061E00E94FC0381E090E00E94DC0285E0BE
:104A600060E00E94FC0386E065E041E0272D0E94A3
:104A70007B8485E061E00E94FC0386E060E00E94A8
:104A8000DE030E947C025B016C0186E00E94470409
:104A9000EC0104C00E947C025B016C01219709F0CB
:104AA000DBC00E947C02750186016E197F09800BB4
:104AB000910B6A3071058105910508F0CDC086E043
:104AC0000E944704EC010E947C026E157F0580075E
:104AD000910720F7DFCF0E947C025B016C01CD2B98
:104AE00009F0C9C00E947C02750186016E197F0918
:104AF000800B910B6A3071058105910508F0BBC0F0
:104B000086E00E944704EC010E947C026E157F053E
:104B10008007910720F7DFCF0130110509F0B6C0FB
:104B20000E947C026C197D098E099F0960597140B1
:104B30008040904008F0AAC086E00E9447048C01A3
:104B4000EBCF85E061E00E94FC03CC0FDD1F86E027
:104B50000E944704C80FD91F85E060E00E94FC0353
:104B60000F5F1F4F0830110561F70E947C0286E03D
:104B70000E9447046C010E947C024B015C01CD281D
:104B800009F08DC00E947C02740185016E197F09B5
:104B9000800B910B6A3071058105910508F07FC08B
:104BA00086E00E9447046C010E947C026E157F051E
:104BB0008007910720F7DFCF85E061E00E94FC03CA
:104BC000CC0FDD1F86E00E944704C80FD91F85E087
:104BD00060E00E94FC030F5F1F4F0830110561F772
:104BE0000E947C0286E061E00E94DE0386E061E0D4
:104BF0000E94FC0385E061E00E94FC0380E991E0F3
:104C00000E94DC0285E060E00E94FC0386E060E038
:104C10000E94FC0383E07816A1F4BE01882777FD8B
:104C20008095982F0E9458872AE037ED43E25CE395
:104C30000E940C882DEC3CEC4EE152E40E9454861C
:104C400051C025E0721639F4C201BE0141E050E0C6
:104C50000E94962047C046C00E947C0285E060E02A
:104C60000E94FC030E947C025B016C0186E00E94B2
:104C70004704EC0134CF0E947C0286E00E94470486
:104C80008C010E947C026B017C0146CF0E947C0259
:104C90000E947C02C0E0D0E000E010E052CF0E9411
:104CA0007C0286E061E00E94DE0386E060E00E9414
:104CB000FC0381E090E00E94DC0285E061E00E945C
:104CC000FC0380E991E00E94DC0285E060E00E9444
:104CD000FC0386E060E00E94DE030E947C0200E0AC
:104CE00010E06ACFDF91CF911F910F91FF90EF906D
:104CF000DF90CF90BF90AF909F908F907F905F900C
:104D00004F9008950F931F93DF93CF9300D0CDB7AB
:104D1000DEB780917B18882321F48BE798E10E940D
:104D2000C77919821A8264E670E080E090E00E9400
:104D3000940262E370E080E090E00E9494028BE7CE
:104D400098E164E170E042E050E00E94C4798E0195
:104D50000F5F1F4F07C08BE798E10E946079F80151
:104D600081938F018BE798E10E945A79882399F704
:104D700080917B18882371F080917F13813051F0EE
:104D80008BE693E10E94DD198DE693E160E141E05D
:104D90000E944F20298130E040E050E0542F432F03
:104DA000322F22278A81280F311D411D511DCA0132
:104DB000B901E3E0660F771F881F991FEA95D1F7C5
:104DC000620F731F841F951F695070488440904084
:104DD0000E94588720E03FEF4FE757E40E94BD86CE
:104DE0000F900F90CF91DF911F910F91089566233F
:104DF00019F0613021F517C08AE161E00E94FC03DF
:104E000088E161E00E94FC0380917F13882331F4E4
:104E10008DE693E161E041E00E944F2087E061E090
:104E20000E94FC0308958AE160E00E94FC0388E18F
:104E300060E00E94FC0387E060E00E94FC030895AC
:104E400080917B18882321F48BE798E10E94C77931
:104E500064E670E080E090E00E94940264E670E016
:104E600080E090E00E94940264E670E080E090E0D0
:104E70000E9494028BE798E166E170E00E9450790D
:104E80008BE798E160EA0E947C798BE798E165E521
:104E900070E00E94A0798BE798E10E94A3796CE210
:104EA00071E080E090E00E9494028BE798E166E177
:104EB00070E043E050E00E94C47904C08BE798E1C1
:104EC0000E9460798BE798E10E945A798823B1F7B4
:104ED00080917B18882371F080917F13813051F08D
:104EE0008BE693E10E94DD198DE693E160E141E0FC
:104EF0000E944F2060E070E080E090E4089580918F
:104F00007B18882321F48BE798E10E94C77964E637
:104F100070E080E090E00E94940264E670E080E03F
:104F200090E00E94940264E670E080E090E00E94CD
:104F300094028BE798E166E170E00E9450798BE77C
:104F400098E161EA0E947C798BE798E165E570E081
:104F50000E94A0798BE798E10E94A3796CE271E04E
:104F600080E090E00E9494028BE798E166E170E0B7
:104F700043E050E00E94C47904C08BE798E10E94AE
:104F800060798BE798E10E945A798823B1F7809184
:104F90007B18882371F080917F13813051F08BE66C
:104FA00093E10E94DD198DE693E160E141E00E940A
:104FB0004F2060E070E080E090E40895EF920F935E
:104FC0008DE693E10E94AC1F8DE693E10E94B21A38
:104FD00084E060E00E94FC0382E060E00E94FC0349
:104FE00087E060E00E94FC038AE060E00E94FC032E
:104FF00086E060E00E94FC038EE060E00E94FC031B
:105000008BE693E1602F0E945D1AE4FE06C061E02A
:1050100070E480E090E00E94867E83B7817F8460A8
:1050200083BF83B7816083BF83B7816083BF889567
:1050300083B78E7F83BF83B78E7F83BF8BE693E179
:10504000602F0E94D3190F91EF90089561E070E4F2
:1050500080E090E00E942C7E0895EF92FF920F93E3
:105060001F93CF93DF93EC016034710509F494C072
:105070006134710508F56430710509F452C065307A
:10508000710568F46130710509F461C06130710522
:1050900008F460C06230710509F0D0C03BC06031D7
:1050A000710509F49EC06032710509F472C0683060
:1050B000710509F0C3C03CC084E06030780709F492
:1050C00080C084E06130780778F481E06030780750
:1050D00009F467C082E06030780709F46AC060387C
:1050E000710509F0ABC05BC080E16030780751F01A
:1050F00080E26030780709F489C06050784009F098
:105100009DC063C083E00E94CE81BC01CE010E949D
:10511000182191C08AE060E00E94FC03CE0162E0A9
:105120000DC08AE060E00E94FC03CE0164E006C08E
:105130008AE060E00E94FC03CE0168E00E947C23CC
:105140007B018C018AE061E00E94FC037BC00E942D
:10515000382371C085E00E94CE81A0E0B0E0BC01A0
:10516000CD010E94568723E333E343E550E40E94D8
:105170000C8820E030EC4FE754E40E94BD869B0190
:10518000AC017B018A01CE01A901B8010E9449212D
:1051900059C00E947F274FC00E9420274CC086E044
:1051A00036C084E00E94CE81BC01CE010E94DB2289
:1051B00042C082E00E94CE81BC01CE010E94B62294
:1051C0003AC0CE010E94822636C0442319F4CE0193
:1051D00060E004C0413091F5CE0161E00E94E82416
:1051E0002AC00E94FA22A0E0B0E0BC01CD010E94DA
:1051F000568724E83DE04FE85EE30E940C8820E0FB
:1052000030E040EA51E40E940C8815C087E00E941B
:10521000CE81A0E0B0E0BC01CD010E94568723E31F
:1052200033E343E550E40E940C8820E030EC4FE784
:1052300054E40E94BD867B018C0104C0EE24FF244F
:1052400000E010E0B701C801DF91CF911F910F91ED
:10525000FF90EF90089540E00E942D28089510924D
:10526000B61308950F93FC01CB01BA012AE030E098
:1052700040E050E000810E9405830F910895AB014A
:1052800060E070E00E94322908950F931F938C0113
:105290008DE0F80160810E94DE828AE0F801608181
:1052A0000E94DE821F910F910895EF92FF920F935B
:1052B0001F93CF93DF93EC017A018B0177FF0CC032
:1052C0008DE268810E94DE8210950095F094E09452
:1052D000E11CF11C011D111DC801B7012AE030E0DD
:1052E00040E050E008810E940583DF91CF911F913B
:1052F0000F91FF90EF900895AB01662757FD6095E1
:10530000762F0E94552908950F931F938C01AB01AE
:10531000662757FD6095762F0E945529C8010E9487
:1053200045291F910F910895FC01CB0160810E94D6
:10533000EF8208959F92AF92BF92CF92DF92EF9249
:10534000FF920F931F93CF93DF93EC017A018B01B0
:10535000922ECB01BA0120E030E040E050E00E9404
:10536000B986882344F48DE268810E94DE8217FBAF
:10537000109517F9109520E030E040E05FE3AA2493
:105380000BC0CA01B90120E030E040E251E40E94C4
:10539000BD869B01AC01A394A91498F3C801B70181
:1053A0000E9455865B016C010E942A877B018C015B
:1053B000CE01B801A7010E943229992029F08AEE76
:1053C00099E068810E94EF82C801B7010E94568768
:1053D0009B01AC01C601B5010E94548620C020E0AB
:1053E00030E040E251E40E940C887B018C010E9475
:1053F00025875B016C01CC24B7FCC094DC2CCE016A
:10540000B601A5010E945529C601B5010E94588721
:105410009B01AC01C801B7010E9454869A9499205F
:10542000F1F6DF91CF911F910F91FF90EF90DF90F8
:10543000CF90BF90AF909F9008952AE00E949A2944
:1054400008950F931F938C010E941D2AC8010E948A
:1054500045291F910F9108950F931F938C01CB0144
:10546000F80160810E94EF82C8010E9445291F91C6
:105470000F910895FC0160E076E980E090E04081C2
:105480000E94FF830895FB0120E030E002C02F5FFF
:105490003F4F81918823D9F7C90108950F931F9336
:1054A000CF93DF938B01BA01DA0140E050E0C22FC5
:1054B000D0E019C0F801E40FF51F8081982F929574
:1054C0009F708F709A3010F4905D01C0995C9C932E
:1054D0008A3010F4805D01C0895C11968C9311971D
:1054E0004F5F5F4F12964C175D0724F3CC0FDD1F03
:1054F000C60FD71F1882DF91CF911F910F9108958A
:1055000028E00E944E2A08958F929F92AF92BF92F8
:10551000CF92DF92EF92FF920F931F93CF93DF937F
:10552000992401C09394FB01E90DF11D8081805302
:105530008A30C0F35B01EE24FF24870120C02AE0FB
:1055400030E040E050E00E946F880894C11CD11CFC
:10555000CC16DD06A4F3282D332727FD30952053E4
:105560003040442737FD4095542F0E946F88E60E47
:10557000F71E081F191F9A940894A11CB11CF5016D
:105580008080882D80538A3050F461E070E080E0A4
:1055900090E0CC24DD24C92DD0E02197D9CFB701EC
:1055A000C801DF91CF911F910F91FF90EF90DF9095
:1055B000CF90BF90AF909F908F900895FB01908106
:1055C000892F80538A3038F4292F332727FD3095CF
:1055D000205330400DC0892F8154863018F020E0D0
:1055E00030E007C0292F332727FD3095275330405F
:1055F00031966081862F80538A3030F4772767FD9B
:105600007095605370400CC0862F8154863018F01E
:1056100060E070E005C0772767FD709567537040C4
:10562000A4E0220F331FAA95E1F7862F820F089579
:105630006833A1F1693380F4643341F1653338F4A0
:10564000623301F1633300F56133D1F417C066337F
:1056500009F1673308F51CC0633441F1643438F450
:10566000613401F1623400F5693351F419C06534D5
:1056700009F16534E8F0663419F41EC081E01DC0FC
:1056800080E01BC082E019C083E017C084E015C031
:1056900085E013C086E011C087E00FC088E00DC030
:1056A00089E00BC08AE009C08BE007C08CE005C030
:1056B0008DE003C08EE001C08FE04733A1F1483395
:1056C00080F4433341F1443338F44133F1F0423351
:1056D00000F54033E1F51BC0453309F1463308F5C9
:1056E0001CC0423441F1433438F4493301F14933A9
:1056F000E0F0413461F51DC0443409F14434E8F070
:105700004534F9F04634F9F0089591E01DC090E079
:105710001BC092E019C093E017C094E015C095E05B
:1057200013C096E011C097E00FC098E00DC099E05B
:105730000BC09AE009C09BE007C09CE005C09DE05B
:1057400003C09EE001C09FE08295807F890F08958D
:105750000895CB01642F0E94468F0895CB010E94CB
:105760003E8F08958FE261E00E94DE0384E261E0F3
:105770000E94DE0385E261E00E94DE038FE261E0C9
:105780000E94FC0384E261E00E94FC0385E261E088
:105790000E94FC0308950F931F93162F042F8FE28E
:1057A00061E00E94DE0384E261E00E94DE0385E2A4
:1057B00061E00E94DE038FE261E00E94FC0384E26C
:1057C000612F0E94FC0385E2602F0E94FC031F9161
:1057D0000F9108951092F7141092F9140895EF9212
:1057E000FF920F931F93CF93DF93EC017A018B010C
:1057F00077FF0CC08DE268810E94DE8210950095D3
:10580000F094E094E11CF11C011D111DC801B701C9
:105810002AE030E040E050E008810E940583DF91FB
:10582000CF911F910F91FF90EF9008950F931F93C9
:10583000FC01DA018B012115310529F4842F6081E7
:105840000E94DE8216C02A30310519F40E94EF2B27
:1058500010C02031310529F4842F60810E94A78374
:1058600008C030E040E050E0BD01C80100810E9466
:1058700005831F910F910895FC0180810E94488249
:105880000895FC0180810E940D820895FC018081B1
:105890000E94E9810895FC016183613019F0633051
:1058A000B9F518C08081882311F486E111C087EB17
:1058B00093E10E94B22B86E061E00E94DE0386E065
:1058C00061E00E94FC038AE261E00E94DE038AE25A
:1058D00061E005C08081882329F486E160E00E94B0
:1058E000FC03089587EB93E160E040E00E94CB2B3E
:1058F00086E061E00E94DE0386E060E00E94FC0337
:105900008AE261E00E94DE038AE260E00E94FC031A
:105910000895FC0180810E94E1830895FC01262FF7
:10592000608360E070E0CB01BA01422F0E94FF83E8
:1059300086E161E00E94DE0308950F931F93CF93E9
:10594000DF93DC018B01EC01C658DD4F1982188210
:1059500040E0BE0106C04F5F2F5F3F4FFB01318328
:105960002083FB0120813181F801E20FF31F808148
:10597000882389F7469583E090E09983888390E0B7
:10598000ED01C658DD4F50E00BC0FD01E20FF31FE3
:10599000E857FD4F8081980F2F5F3F4F3983288351
:1059A000288139812417350780F3892F8095A40F2A
:1059B000B51FA957BD4F8C93DF91CF911F910F91C8
:1059C0000895AF92BF92CF92DF92EF92FF920F9322
:1059D0001F93CF93DF937C018B0106551F4FD80196
:1059E0008C910A5A1040F801E855FF4F813009F0B8
:1059F00024C1C22EDD24DA01AC0DBD1D83E28C93DF
:105A00008081813009F446C0813020F0823009F075
:105A100038C2AAC011961C92119701571F4FF80166
:105A200081918F0112968C931297808100591040BA
:105A300013968C931397F701E658FD4F118210824D
:105A4000EF01FCE7CF2EF2E0DF2ECE0CDF1CB7011A
:105A500062587D4FAD010FC0FA01E20FF31FA00F96
:105A6000B11FA20FB31F1C968C91848388819981EA
:105A700001969983888328813981F601A081B181BB
:105A8000FB018081918101968A1B9B0B28173907A6
:105A900018F3F7C111968C93B70166587D4FDB015F
:105AA0001D921C92EB0110C0FA01EA0FFB1FEC0DD6
:105AB000FD1DA00FB11FA557BF4F8C918283888118
:105AC0009981019699838883A881B981A430B10511
:105AD00058F3FB0111821082E701C658DD4F10C058
