:100000000C94CF000C94C2560C94F3560C942457C5
:100010000C9455570C9486570C94B7570C94E8578A
:100020000C9419580C94F9000C94F9000C94F900F4
:100030000C942E030C94F9000C94F9000C94EC0130
:100040000C94F9000C94F9000C94F9000C94F9004C
:100050000C94F9000C94F9000C94F9000C94C7016D
:100060000C94F9000C947A5C0C94F9000C94F9004F
:100070000C94F9000C94F9000C94F9000C94F9001C
:100080000C94F9000C94F9000C94F9000C94F9000C
:100090000C94BB5C0C94F9000C94F9000C94CB54B8
:1000A0000C94F9000C94F9000C94F9000C94F900EC
:1000B0000C94F9000C94F9000C94F9000C94F900DC
:1000C0000C94F9000C94F9000C94F90000212427F9
:1000D0002A2D3033002225282B2E313400202326D0
:1000E000292C2F3205050505030303030101010433
:1000F00004030606060606060606010405010501B8
:1001000003020202020202010202050504040304C2
:1001100004010304070707010208101020408004AF
:1001200008102040020204081020408001028020B4
:100130004004200101020408102001408040800199
:1001400002080408800410040201000008090000ED
:10015000000000000000000000000000000000009F
:10016000000000000000000000000000000000008F
:1001700000000000000000000000000000001A0461
:10018000B7065F080C0B6A0CD914DE141817701729
:10019000A2529853995EA05EAF5EED5EF25E1124AE
:1001A0001FBECFEFD1E2DEBFCDBF1FE0A0E0B2E0C7
:1001B000E6E3FBEC00E00BBF02C007900D92A03815
:1001C000B107D9F71AE1A0E8BFE001C01D92AD3038
:1001D000B107E1F711E0CEE9D1E004C02297FE01BA
:1001E0000E948061CE37D107C9F70E94C0010C94EC
:1001F00099650C940000CF93DF938FE890E160E065
:1002000072E00E94F6156091D6147091D71484EDB7
:1002100091E10E94A7526091D6147091D7148BEF90
:100220009FE00E94DF08C82FD0E0209759F08FE8A8
:1002300090E165E172E00E945E158FE890E1BE01F9
:100240000E9425158AE89FE00E9473054091D6140C
:100250005091D7148BE89FE066E57FE00E94B806D6
:10026000C82FD0E0209759F08FE890E16AE472E05F
:100270000E945E158FE890E1BE010E9425158FE86F
:1002800090E16EE772E00E94F6156091660F709142
:10029000670F85E490E140E021E00E94EF0BDF91E1
:1002A000CF91089585E490E10E940D0B8091800F1D
:1002B0009091810FA091820FB091830F8070907800
:1002C000892BC1F08FE890E10E94041684ED91E142
:1002D0000E94F65284ED91E162E041E021E00E944B
:1002E0001C5184ED91E10E94674F84ED91E10E94E1
:1002F000184F08958FE890E10E9404168FE890E16E
:1003000061E972E00E94F6158AE89FE06EE57FE001
:100310000E943706882331F08FE890E16EE972E0A1
:100320000E94F6158DB79EB70A970FB6F8949EBF38
:100330000FBE8DBFEDB7FEB7319684ED91E1ADB73D
:10034000BEB712969C938E93119783E090E09383AF
:10035000828381E090E09583848388E090E09783B6
:10036000868382E090E0918780870E9413538DB747
:100370009EB70A960FB6F8949EBF0FBE8DBF089524
:100380000E9471020E9452010E94FB00FDCF1F9249
:100390000F920FB60F9211248F939F93AF93BF9339
:1003A0008091811790918217A0918317B091841743
:1003B0000196A11DB11D8093811790938217A09380
:1003C0008317B0938417BF91AF919F918F910F9036
:1003D0000FBE0F901F9018951F920F920FB60F929D
:1003E00011248F939F93AF93BF9380918517909122
:1003F0008617A0918717B09188170196A11DB11D8E
:100400008093851790938617A0938717B0938817CA
:10041000BF91AF919F918F910F900FBE0F901F9042
:100420001895609181177091821780918317909130
:10043000841727E0660F771F881F991F2A95D1F729
:100440002EE330E040E050E00E944161CA01B90172
:100450000895AF92BF92CF92DF92EF92FF920F93E7
:100460001F935B016C0160918117709182178091DD
:1004700083179091841747E0660F771F881F991F95
:100480004A95D1F72EE330E040E050E00E94416110
:1004900079018A0160918117709182178091831789
:1004A0009091841737E0660F771F881F991F3A9540
:1004B000D1F72EE330E040E050E00E9441612E1978
:1004C0003F09400B510B2A153B054C055D0510F308
:1004D0001F910F91FF90EF90DF90CF90BF90AF9062
:1004E0000895789484B7877F84BF10928117109203
:1004F0008217109283171092841784B5826084BD8E
:1005000084B5816084BD85B5826085BD85B5816017
:1005100085BDEEE6F0E0808181608083E1E8F0E077
:10052000808182608083808181608083E0E8F0E068
:10053000808181608083E1EBF0E080818460808352
:10054000E1E9F0E0808184608083E0EBF0E080818D
:1005500081608083E0E9F0E0808181608083E4E66F
:10056000F0E080818E7F8083ECE7F0E080818F7700
:100570008083808180648083EAE7F0E0808184600A
:1005800080838081826080838081806880831092F4
:10059000C1001092C90008959091890F982B9093F3
:1005A000890F80FF32C0809164008E7F8093640049
:1005B00080917C008F7780937C0080917C008064A8
:1005C00080937C0080917A00846080937A0080918F
:1005D0007A00826080937A0080917A0080688093AC
:1005E0007A00809164008F7780936400809164002A
:1005F0008B7F80936400809164008D7F8093640082
:10060000809165008E7F809365000895282F209546
:100610009091890F92239093890F80FF1EC0809143
:100620007A008F7780937A00809164008160809354
:10063000640080916400806880936400809164000D
:100640008460809364008091640082608093640081
:100650008091650081608093650008951F920F92DC
:100660000FB60F920BB60F9211242F933F934F9317
:100670005F936F937F938F939F93AF93BF93EF930A
:10068000FF93F89481E08093680FE0E6F0E08081CA
:100690008068808380818F7B808383E060E00E941C
:1006A00083037894FF91EF91BF91AF919F918F91C8
:1006B0007F916F915F914F913F912F910F900BBE62
:1006C0000F900FBE0F901F901895282F30E0C90192
:1006D000895E9E4FFC0194912C513F4FF90184910A
:1006E000882381F0E82FF0E0E453FF4FE491F0E03D
:1006F000662329F4808190958923808308958081E1
:10070000892B80830895482F50E0CA01865B9E4F55
:10071000FC012491CA01895E9E4FFC0194914C51C9
:100720005F4FFA0134913323C1F1222331F1233099
:1007300021F4809180008F7705C0243031F48091BE
:1007400080008F7D8093800018C0213019F484B51B
:100750008F7704C0223021F484B58F7D84BD0DC015
:10076000263021F48091B0008F7705C0273029F41E
:100770008091B0008F7D8093B000E32FF0E0EC52C9
:10078000FF4FE491F0E0662329F48081909589235E
:10079000808308958081892B80830895482F50E0BD
:1007A000CA01865B9E4FFC012491CA01895E9E4F5F
:1007B000FC0194914C515F4FFA013491332319F4A9
:1007C00020E030E035C0222331F1233021F4809144
:1007D00080008F7705C0243031F4809180008F7DB8
:1007E0008093800018C0213019F484B58F7704C03D
:1007F000223021F484B58F7D84BD0DC0263021F4D4
:100800008091B0008F7705C0273029F48091B00027
:100810008F7D8093B000E32FF0E0E452FF4FE4912E
:10082000F0E0808120E030E0892311F021E030E029
:10083000C90108950895DF92EF92FF920F931F93DD
:10084000CF93DF938B01D42E790181E090E064EBAC
:1008500070E00E948461EC011886C658DF4F188250
:100860002296D8821A92CB57D0401092471384ED2B
:1008700091E1BE0140E00E94E34D84ED91E1BE01B3
:10088000A801970101E0EE240E94DE4E84ED91E183
:10089000BE010E94EA490091B013011101E0CE01AE
:1008A0000E944D62802FDF91CF911F910F91FF9099
:1008B000EF90DF9008958091AE148A3209F44FC012
:1008C0008B3298F48332B9F1843238F4813249F1B1
:1008D000823260F5882301F16AC08532B1F1853238
:1008E00078F1873209F063C035C08C3A09F44BC007
:1008F0008D3A40F48C32E9F18C32B0F18B3A09F048
:1009000056C03CC08F3A09F448C08F3F09F44AC032
:100910008D3A09F04CC03CC08FE890E167EC72E082
:100920004AC08FE890E16FEE72E045C08FE890E139
:1009300062E073E040C08FE890E16FE373E03BC09A
:100940008FE890E162E973E036C08FE890E161EBF7
:1009500073E031C08FE890E166EF73E02CC08FE860
:1009600090E162E174E027C08FE890E163E374E016
:1009700022C08FE890E168E574E01DC08FE890E147
:100980006CE774E018C08FE890E16DEA74E013C082
:100990008FE890E16BEE74E00EC08FE890E163E2C7
:1009A00075E009C08FE890E167E775E004C08FE863
:1009B00090E16FEA75E00E94F6150895EF92FF92BC
:1009C0000F931F930FE810E1C8016FE276E00E94D9
:1009D0005E1554EDE52E51E1F52EC7010E94C34F7F
:1009E0004091A31450E060E070E0C80120E130E0E5
:1009F0000E9435154091A41450E060E070E0C801F9
:100A000020E130E00E945315C8016EE376E00E94B9
:100A10005E15C7010E94055040919B1450E060E0B4
:100A200070E0C80120E130E00E94351540919C142F
:100A300050E060E070E0C80120E130E00E94351530
:100A400040919D1450E060E070E0C80120E130E08A
:100A50000E94351540919E1450E060E070E0C8019E
:100A600020E130E00E94351540919F1450E060E095
:100A700070E0C80120E130E00E9435154091A014DB
:100A800050E060E070E0C80120E130E00E943515E0
:100A90004091A11450E060E070E0C80120E130E036
:100AA0000E9435154091A21450E060E070E0C8014A
:100AB00020E130E00E945315C8016CE476E00E940A
:100AC0005E15C7010E94E43F4091FE1250E060E0D5
:100AD00070E0C80120E130E00E9453151F910F9192
:100AE000FF90EF900895EF92FF920F931F93CF9393
:100AF000DF93EC010E9411027B018C0184ED91E1F6
:100B00000E94A34F8091AE14882309F4ABC00E94C9
:100B100011026E197F09800B910B605C744D81404E
:100B2000904008F09FC08FE890E166E576E00E9473
:100B3000F615CE010E94DE0480E990E16CE041E010
:100B40000E945A176CE271E080E090E00E94290256
:100B500080E990E16CE040E00E945A176CE271E09D
:100B600080E090E00E94290280E990E16CE041E0A1
:100B70000E945A176CE271E080E090E00E94290226
:100B800080E990E16CE040E00E945A1760E777E16D
:100B900080E090E00E94290284ED91E10E94A34F41
:100BA000CE010E945B04AECF84ED91E160E00E9433
:100BB000475084ED91E10E94C73F8FE890E16AE7DA
:100BC00076E00E94F61580E990E16DE041E00E9438
:100BD0005A1760ED77E080E090E00E94290280E9FA
:100BE00090E16DE040E00E945A17CE010E94DE04C1
:100BF00080E031C08FE890E169EA76E00E94F61566
:100C000080E990E16CE041E00E945A176CE271E0EB
:100C100080E090E00E94290280E990E16CE040E0F1
:100C20000E945A176CE271E080E090E00E94290275
:100C300080E990E16CE041E00E945A176CE271E0BB
:100C400080E090E00E94290280E990E16CE040E0C1
:100C50000E945A1781E0DF91CF911F910F91FF9071
:100C6000EF9008958091AE14882321F69DCFEF92E6
:100C7000FF920F931F937C018B0184ED91E162E061
:100C800041E021E00E941C5184ED91E10E94674FF8
:100C900084ED91E10E94184F68EE73E080E090E0EF
:100CA0000E94290284ED91E1B8010E940F3E84ED7B
:100CB00091E16FE34FEF0E940F3F84ED91E163E01C
:100CC0000E94424C84ED91E161E00E94475084ED26
:100CD00091E10E94C73F84ED91E10E94464F68EB8D
:100CE0007BE080E090E00E94290284ED91E10E9487
:100CF000674F84ED91E10E94184F68EB7BE080E044
:100D000090E00E942902C7010E947305811181E0D1
:100D10001F910F91FF90EF900895CF93DF93EC0117
:100D2000DB0190E030E05FEF4EEF18C0FE01E30F13
:100D3000F11D2485E92FF0E0892F8F5F222349F4EC
:100D4000EA0FFB1F5083FD01E80FF11D40839E5FFA
:100D500004C0EA0FFB1F2083982F3F5F8B85381755
:100D600028F3A90FB11D1C92DF91CF91089508952A
:100D70004F925F926F927F928F929F92AF92BF92AB
:100D8000CF92DF92EF92FF920F931F93DF93CF9357
:100D90000F92CDB7DEB76C012B015A0182E0898337
:100DA000D6011B968C931B971C96BC921C971D9684
:100DB0004C932CE0822E912C8C0C9D1C09E61FE09C
:100DC00022E091E0E92EF12C3E010894611C711C97
:100DD000C7018A219B21892B39F0D801ED91FC9123
:100DE000C301B401099520E00E5F1F4FBFE0093831
:100DF0001B0719F0EE0CFF1CEBCF223009F1222368
:100E0000F9F4F601838590E0880F991F019661E05F
:100E100070E00E948461182F092FC601612F702F86
:100E20000E948D068AE89FE0B2014AE0212F302F10
:100E30000E941B04F82E812F902F0E944D6202C049
:100E4000FF24F3948F2D0F90CF91DF911F910F917D
:100E5000FF90EF90DF90CF90BF90AF909F908F90DA
:100E60007F906F905F904F900895EF92FF920F9355
:100E70001F937C018B0140912F1050913010609195
:100E80003110709132108BEF9FE020E130E00E9432
:100E90006408F7019081F801E90FF11D20913310EA
:100EA00020839F5FF7019083090F111D209134105B
:100EB000F80120839F5FF70190839091960F9E5FCA
:100EC0009093960F1F910F91FF90EF900895EF92DE
:100ED000FF920F931F937C018B0160912C107091F6
:100EE0002D1080E090E00E94F55FAB01BC018BEF1C
:100EF0009FE028E030E00E946408F7019081090F2C
:100F0000111D20912E10F80120839F5FF70190831F
:100F10009091960F9F5F9093960F1F910F91FF9066
:100F2000EF900895EF92FF920F931F937C018B0136
:100F3000409126105091271060912810709129102F
:100F40008BEF9FE024E030E00E946408F70190817D
:100F5000F801E90FF11D20912A1020839F5FF7010E
:100F60009083090F111D20912B10F80120839F5FA2
:100F7000F70190839091960F9E5F9093960F1F912B
:100F80000F91FF90EF900895EF92FF920F931F93B0
:100F90007C018B014091211050912210609123100F
:100FA000709124108BEF9FE022E030E00E946408F3
:100FB000F7019081090F111D20912510F801208360
:100FC0009F5FF70190839091960F9F5F9093960F8C
:100FD0001F910F91FF90EF900895EF92FF920F9362
:100FE0001F937C018B0140911B1050911C1060914C
:100FF0001D1070911E108BEF9FE021E030E00E94E9
:101000006408F7019081F801E90FF11D20911F108C
:1010100020839F5FF7019083090F111D20912010FD
:10102000F80120839F5FF70190839091960F9E5F58
:101030009093960F1F910F91FF90EF900895FC01F0
:10104000138212828FE79AE091838083178216823F
:1010500084E29AE0958384831386128689ED99E071
:1010600091878087178616868AED9AE09587848710
:10107000138A128A81E699E0918B808B178A168AEF
:101080008CE598E0958B848B138E128E8DE598E01D
:10109000918F808F178E168E8EE598E0958F848FB6
:1010A000FA9620E08091D9149091DA14819391936B
:1010B0002F5F2830B9F708950895089508958BEFAC
:1010C0009FE00E941F080895EF92FF920F931F93D5
:1010D000CF93DF93EC017A018B012430310561F16C
:1010E0002530310544F42130310569F022303105D5
:1010F00009F057C01BC028303105E9F12031310516
:1011000009F04FC03FC0CB01BA0120E030E040E21F
:1011100052E40E94F45E20E030E048EC52E40E9489
:10112000AB600E94C95F7CA36DA332C0CB01BA0142
:101130000E94C95F6AA724C08FE890E162ED76E063
:101140000E945E158FE890E1B801A7010E94EB159F
:10115000C801B70120E030E048EC52E40E94AB60E7
:1011600020E030E543E457E40E94F35E0E94C95F4B
:101170007FA768AB0DC0CB01BA010E94C95F6BAB02
:1011800080E016C0CB01BA010E94C95F78AF69AF99
:1011900080E0372F20E0260F311D6217730739F4E6
:1011A00007C08FE890E16EED76E00E94F61581E0D1
:1011B000DF91CF911F910F91FF90EF900895DF92F3
:1011C000EF92FF920F931F93CF93DF93EC017B017C
:1011D0006115710511F481E06CC068307105D9F4B6
:1011E0008E859F852C853D8580FF0EC0FC01F59581
:1011F000E795EC0FFD1F0190F081E02DE20FF31F4A
:101200000190F081E02D01C0F901959587958C0F33
:101210009D1F09954DC08EE890E10E948C148EE8C8
:1012200090E160E00E94641464E670E080E090E089
:101230000E94290201E010E0DD2432C0C8018E21A5
:101240009F21892B51F18D2D90E0880F991F880FD8
:10125000991FFE01E80FF91F22813381DC0120FF75
:1012600012C0F901F595E795EC0FFD1FAC0FBD1FFE
:101270000190F081E02D8D919C91E80FF91F019074
:10128000F081E02D04C0AC0FBD1FED91FC913595B0
:101290002795CE01820F931F0995000F111FD3943C
:1012A0008091D814D81650F28EE890E10E948814EC
:1012B00080E0DF91CF911F910F91FF90EF90DF9031
:1012C0000895CF92DF92EF92FF920F931F93CF93E7
:1012D000DF936C0180E090E0A0E0B0E0F60184AB29
:1012E00095ABA6ABB7AB8FE890E160EF76E00E94DC
:1012F000F6158EE890E164E070E041E00E94501441
:101300008EE890E160E044E050E00E94A6100E9468
:1013100011027B018C0106C08EE890E164E070E070
:101320000E9448120E9411026E197F09800B910BD6
:10133000605375478040904078F3C0E0D0E0F601FC
:10134000E4A8F5A806A917A98EE890E164E070E08A
:101350000E9448129B01AC01C801B7010E94F45ED3
:10136000F60164AB75AB86AB97AB2196CA30D1055D
:1013700031F78EE890E161E044E050E00E94A61071
:10138000F60164A975A986A997A920E030E048EC88
:1013900052E40E94AB60F60164AB75AB86AB97ABD1
:1013A000DF91CF911F910F91FF90EF90DF90CF9041
:1013B0000895CF92DF92EF92FF920F931F93CF93F6
:1013C000DF936C0180E090E0A0E0B0E0F60183A73D
:1013D00094A7A5A7B6A78EE890E160E042E050E0B0
:1013E0000E94A610C0E0D0E0F601E3A4F4A405A595
:1013F00016A58EE890E162E070E00E9448129B0121
:10140000AC01C801B7010E94F45EF60163A774A79E
:1014100085A796A764E670E080E090E00E9429022C
:101420002196CA30D10501F78EE890E161E042E0F3
:1014300050E00E94A610DF91CF911F910F91FF9075
:10144000EF90DF90CF900895CF92DF92EF92FF92CE
:101450000F931F93CF93DF936C0180E090E0A0E0A7
:10146000B0E0F60186A397A3A0A7B1A78EE890E10C
:1014700060E041E050E00E94A610C0E0D0E0F6013C
:10148000E6A0F7A000A511A58EE890E161E070E06C
:101490000E9448129B01AC01C801B7010E94F45E92
:1014A000F60166A377A380A791A764E670E080E0C9
:1014B00090E00E9429022196CA30D10501F78EE8FA
:1014C00090E161E041E050E00E94A610F60166A1C3
:1014D00077A180A591A520E030E040E251E40E9490
:1014E0005C5FF60166A377A380A791A7DF91CF91F8
:1014F0001F910F91FF90EF90DF90CF900895CF92C2
:10150000DF92EF92FF920F931F93CF93DF936C01C3
:1015100080E090E0A0E0B0E0F60180A391A3A2A358
:10152000B3A38EE890E160E040E050E00E94A61096
:10153000C0E0D0E0F601E0A0F1A002A113A18EE886
:1015400090E160E070E00E9448129B01AC01C8018C
:10155000B7010E94F45EF60160A371A382A393A376
:1015600064E670E080E090E00E9429022196CA3093
:10157000D10501F78EE890E161E040E050E00E9483
:10158000A610F60160A171A182A193A120E030E034
:1015900040E251E40E945C5FF60160A371A382A364
:1015A00093A3DF91CF911F910F91FF90EF90DF9068
:1015B000CF900895EF92FF920F931F93CF93DF93F5
:1015C0007C01FC0112AA11AAC0E0D0E0F70101A938
:1015D00012A985E490E10E947C0B080F111DF70110
:1015E00012AB01AB64E670E080E090E00E9429025B
:1015F0002196CA30D10551F7F70181A992A96AE075
:1016000070E00E941A6172AB61ABDF91CF911F91C4
:101610000F91FF90EF900895089587E20E94CE0306
:10162000892BC9F080E990E160E070E00E941E170C
:101630008A3089F48091800F9091810FA091820F60
:10164000B091830F90688093800F9093810FA09347
:10165000820FB093830F80E990E160E070E040E09A
:101660000E9419178091800F9091810FA091820F95
:10167000B091830F80709078892B91F487E261E0BC
:101680000E94650387E260E00E9483036AE070E0E5
:1016900080E090E00E94290287E261E00E948303DB
:1016A0008091800F9091810FA091820FB091830F54
:1016B00080709078892B91F480E990E16CE041E0B2
:1016C0000E945A1768EE73E080E090E00E942902C1
:1016D00080E990E16CE040E00E945A17089589E2A9
:1016E00061E00E94650388E261E00E94650383E394
:1016F00095E10E9499530895EF92FF920F931F93E3
:1017000089E161E00E94650389E161E00E94830351
:1017100080E00E94EC5BAA2797FDA095BA2FBC0140
:10172000CD010E94F75F7B018C0120E030E040E0BA
:1017300054E40E94585F882334F489E160E00E94F9
:10174000830310E046C0C801B70120E030EC42E25C
:1017500054E40E94A760181634F489E160E00E9406
:10176000830314E636C0C801B70120E030EC42E242
:1017700054E40E94585F1816BCF0C801B70120E07D
:1017800030EC47E054E40E94A76018166CF4C801DE
:10179000B70125E535E545E55FE30E94AB6020E054
:1017A00030E04DED53E40CC0C801B70120E030E05B
:1017B00040EA5EE30E94AB6020E030E040E253E4A8
:1017C0000E94F35E0E94C95F162F89E160E00E94CB
:1017D0008303812F1F910F91FF90EF9008950F9336
:1017E0001F93CF93DF93EB01142F022F86E161E06B
:1017F0000E94650386E160E00E94830380E00E940E
:10180000FF5D04C083E260E00E94830383E20E94E4
:10181000CE03892BB9F787E490E10E942E1087E46C
:1018200090E1BE01412F202F0E94460F87E490E1F6
:101830000E94051087E490E160E140E00E94DD0F26
:1018400080E990E160E070E04AE00E94191781E3CE
:1018500061E00E94650381E361E00E94830362E12D
:1018600070E080E090E00E94290281E360E00E9445
:101870008303FFCFFC01138A148A158A168A178AFC
:10188000108E118E128E138E148E158E168E178E4C
:1018900010A211A212A280E090E0A0E0B0E083A329
:1018A00094A3A5A3B6A30895262F862F6AE00E94CD
:1018B0000E61492F30E0C901841B91096AE070E094
:1018C0000E942E61E4E0660F771FEA95E1F7842F0E
:1018D000862B08950895DF92EF92FF920F931F9346
:1018E0008C01D62EA3E3EA2EA5E1FA2EC70168E605
:1018F00070E00E947753C7016D2D0E94A3530D0D18
:10190000111DC701F80160810E94A353C7010E9405
:10191000CA531F910F91FF90EF90DF90089580912F
:1019200056108C7F8093561087E490E16FE00E9400
:101930006B0C08950F931F938C0160E170E080E0C1
:1019400090E00E944A58C8010E948F0C1F910F918D
:1019500008951F93CF93DF93EC01142F613009F0AA
:101960008CC08E858D7F85608E87CE016EE00E9453
:101970006B0C8F858C7F8F87CE016FE00E946B0C84
:10198000133009F452C0143030F4113031F18F812A
:101990001230D8F50AC0153009F454C0153008F4D7
:1019A0004EC0163009F0DDC0D2C08F778F83CE01D4
:1019B00067E00E946B0C88858F778887CE0168E08E
:1019C0000E946B0C89858F778987CE0169E00E9420
:1019D0006B0C8A858F7780644CC08F818F778F8363
:1019E000CE0167E00E946B0C88858F778887CE01D7
:1019F00068E00E946B0C89858F778987CE0169E04A
:101A00000E946B0C8A858F7334C08F778F83CE01D1
:101A100067E00E946B0C88858F778887CE0168E02D
:101A20000E946B0C89858F771DC08F818F778F8384
:101A3000CE0167E00E946B0C88858F770CC08F8188
:101A40008F7702C08F8180688F83CE0167E00E940C
:101A50006B0C888580688887CE0168E00E946B0CDB
:101A6000898580688987CE0169E00E946B0C8A8530
:101A700080688A87CE016AE067C0623009F071C071
:101A80008E858E7F86608E87CE016EE00E946B0C05
:101A90008F858C7F8F87CE016FE00E946B0C123098
:101AA00099F1133030F4112361F0113009F059C06D
:101AB0001AC01430B1F1143088F1153009F051C05A
:101AC00046C08B858F778B87CE016BE00E946B0CB5
:101AD0008C858F778C87CE016CE00E946B0C8D8596
:101AE0008F7780642EC08B858F778B87CE016BE0DC
:101AF0000E946B0C8C858F778C87CE016CE00E94E6
:101B00006B0C8D858F731DC08B858F778B87CE0176
:101B10006BE00E946B0C8C858F770CC08B858F7768
:101B200002C08B8580688B87CE016BE00E946B0CB6
:101B30008C8580688C87CE016CE00E946B0C8D8553
:101B400080688D87CE016DE00E946B0C0AC08E8587
:101B5000887F8E87CE016EE00E946B0CCE010E94C2
:101B60009A0C60E170E080E090E00E94A458DF9160
:101B7000CF911F910895DF92EF92FF920F931F93E1
:101B80008C01A3E3EA2EA5E1FA2EC70168E670E016
:101B90000E947753C70167E070E00E94C753C801F5
:101BA000F801628D0E94540CFFE7DF2ED822F80165
:101BB000D782C801638D0E94540C8F77F80180870B
:101BC000C801648D0E94540C8F77F8018187C80189
:101BD000658D0E94540C8F73F8018287C7016D2DAB
:101BE0000E94A353C701F80160850E94A353C70157
:101BF000F80161850E94A353C701F80162850E9424
:101C0000A353C7010E94CA531F910F91FF90EF90F9
:101C1000DF900895CF92DF92EF92FF921F93CF93C0
:101C2000DF937C01162F83E395E168E670E00E9464
:101C3000775383E395E160E070E00E94C75383E34C
:101C400095E10E94CA5383E395E168E670E042E1C2
:101C500050E00E94EB53C0E0D0E0C12EDD241AE03A
:101C600009C183E395E10E948153882309F402C1ED
:101C700083E395E10E948753282FF701EC0FFD1FA6
:101C80008083C630D10509F482C0C730D105B8F4CD
:101C9000C230D10509F44EC0C330D10538F42097C5
:101CA00069F1C130D10509F0E4C036C0C430D105B6
:101CB00009F451C0C530D10508F05BC049C0CA3035
:101CC000D10509F49BC0CB30D10558F4C830D105FB
:101CD00009F478C090E02F70C930D10508F081C0B8
:101CE00064C0CC30D10509F4A7C0CC30D10508F4CC
:101CF00094C0CD30D10509F0BCC0ADC090E054E037
:101D0000959587955A95E1F7819FC00111242F7011
:101D1000280FF701208FADC090E044E0959587959E
:101D20004A95E1F7819FC00111242F70280FF70118
:101D3000278B9FC090E034E0959587953A95E1F721
:101D4000819FC00111242F70280FF701268B91C0AD
:101D5000F701858B8EC090E0B4E095958795BA9594
:101D6000E1F7819FC00111242F70280FF701218F07
:101D700080C090E0A4E095958795AA95E1F7819FB2
:101D8000C00111242F70280FF701248B72C090E03E
:101D9000F4E095958795FA95E1F7819FC0011124AC
:101DA0002F70280FF701238B64C0E4E09595879589
:101DB000EA95E1F78770819FC0011124280FF70190
:101DC000228F57C090E074E0959587957A95E1F75A
:101DD0008770819FC00111242F70280FF701238F76
:101DE00048C064E0959587956A95E1F78370819F77
:101DF000C0011124280FF701248F3BC090E054E06C
:101E0000959587955A95E1F78370819FC0011124BC
:101E10002F70280FF701258F2CC090E044E0959596
:101E200087954A95E1F78770819FC00111242F7033
:101E3000280FF701268F1DC090E034E09595879517
:101E40003A95E1F78370819FC00111242F70280F0C
:101E5000F701278F0EC090E0B4E095958795BA956D
:101E6000E1F78370819FC00111242F70280FF701C3
:101E700020A32196CC16DD0608F0F3CEDF91CF919A
:101E80001F91FF90EF90DF90CF9008951F93CF9315
:101E9000DF93EC01FB01122F2181205380818053BD
:101EA0003AE0839FC0011124280F2D8F24812053F5
:101EB00083818053839FC0011124280F2C8F278199
:101EC000205386818053839FC0011124280F2B8FBC
:101ED0002285205381858053839FC0011124280FC0
:101EE0002A8F442309F05BC0CE0166E00E940A0EEF
:101EF000988D8A8D980F9A8F9C3328F09C539A8FD7
:101F00008B8D8F5F8B8F9F898B8D980F9B8F9C33D1
:101F100028F09C539B8F8C8D8F5F8C8F9E898C8D2E
:101F2000980F9C8F983128F098519C8F8D8D8F5FE2
:101F30008D8F2D8D112339F48D89820F8D8F8830EF
:101F400070F187502BC0998D920F9D8F8C898130B5
:101F500051F0833041F0853031F0873021F0883006
:101F600011F08C3021F4903210F09F519D8F8C89AC
:101F7000843041F0863031F0893021F08A3011F020
:101F80008B3029F48D8D8F3110F08E518D8F8C898F
:101F9000823029F48D8D8D3110F08C518D8F87E436
:101FA00090E10E94BB0D87E490E161E0412F0E9427
:101FB000A90CDF91CF911F9108950F931F93CF9399
:101FC000DF93EC01042F6FA380E361E00E946503BF
:101FD0001FA1113019F0103199F40DC080E361E0B8
:101FE0000E948303013019F482E08A8B09C0002328
:101FF00039F41A8B05C080E360E00E9483031A8ADB
:10200000DF91CF911F910F9108958091331588230F
:1020100041F080913416882321F485E490E10E94F8
:102020006F0B0895CF93DF93EC0161E040E00E94D5
:10203000DD0F80913315882321F483E395E10E941D
:10204000EE53CE010E948F0CCE010E943A0CCE01BD
:102050006DE00E940A0EDF91CF9108950E94121048
:102060000895882777FD8095982F0E94F75F20E0DC
:1020700030E44EE455E40E94AB6020E030EC4FE7E2
:1020800054E40E945C5F2AE939E949E15FE30E9478
:102090005C5F20E030E042E053E40E94F35E20E029
:1020A00030E44CE955E40E945C5F2CE53FE842ECEB
:1020B0005DE30E94F45E20EE3DE240E15CE30E94BD
:1020C0005C5F0895882777FD8095982F0E94F75FC1
:1020D00020E030E44EE455E40E94AB6020E030ECB8
:1020E0004FE754E40E945C5F20E030E04AEF53E4A5
:1020F0000E94F35E20E030E040E251E40E945C5F29
:102100000895882777FD8095982F0E94F75F20E03B
:1021100030E44EE455E40E94AB6020E030EC4FE741
:1021200054E40E945C5F2AE939E949E15FE30E94D7
:102130005C5F20E030E048E454E40E94F35E20E07D
:1021400030E048EF51E40E945C5F0895CF93DF9345
:10215000EC01662309F042C04031510509F468C022
:102160004131510560F444305105F9F048305105D2
:1021700009F45AC04230510509F073C014C040340C
:102180005105A9F04134510528F44032510509F0B8
:1021900068C04CC082E040305807D1F040505041F8
:1021A00009F05FC00AC085E044C088E042C082E018
:1021B00061E00E94830384E03CC086E061E00E940D
:1021C000830382E061E00E94830381E088834AC048
:1021D0008AE061E00E94830387E02BC0613011F048
:1021E00080E040C04032510519F14132510550F4B0
:1021F00044305105C9F040315105C1F0423051051C
:1022000081F50CC082E04030580729F180E1403070
:102210005807B9F04034510521F50DC085E060E064
:102220000E94830381E01EC088E0F9CF89E0F7CFE8
:1022300089E061E0F5CF82E060E00E94830384E002
:10224000EECF86E060E00E94830382E060E00E94BF
:1022500083031882E7CF8AE060E00E94830387E06F
:10226000DECF8FEFDF91CF910895EF92FF920F9322
:102270001F93CF93DF937C0181E06030780709F4EE
:1022800058C0E1E061307E0720F46038710551F4F8
:102290000CC0F4E060307F0709F493C060507840D0
:1022A00009F4BCC0CFEFDFEFEBC084E061E00E9437
:1022B00083036EE070E080E090E00E94290284E0F9
:1022C00060E00E94830364EC73E080E090E00E9491
:1022D000290286E060E00E9483036AE070E080E00B
:1022E00090E00E94290282E061E00E94830363E0A3
:1022F00070E080E090E00E94290287E00E94EC5BA1
:10230000EC0162E070E080E090E00E94290282E04F
:1023100060E00E94830368E070E080E090E00E944B
:102320002902F7018081882309F4AAC086E061E0D0
:1023300072C086E060E00E94830364E070E080E0A9
:1023400090E00E94290284E061E00E94830362E041
:1023500070E080E090E00E94290282E061E00E944B
:10236000830365E070E080E090E00E94290287E04E
:102370000E94EC5B182F092F82E060E00E9483032B
:1023800067E070E080E090E00E94290284E060E075
:102390000E94830362E070E080E090E00E942902E6
:1023A000F7018081882321F086E061E00E948303A9
:1023B000812F902F9C01E90166EE70E080E090E0B3
:1023C0005DC087E061E00E9483036EE070E080E022
:1023D00090E00E94290287E060E00E94830364EDA0
:1023E00073E080E090E00E9429028AE061E00E94B0
:1023F000830363E070E080E090E00E94290286E0C1
:102400000E94EC5BEC0162E070E080E090E00E94F2
:1024100029028AE060E00E94830332C087E061E025
:102420000E94830362E070E080E090E00E94290255
:102430008AE061E00E94830364E070E080E090E065
:102440000E94290286E00E94EC5BEC0161E070E0F2
:1024500080E090E00E9429028AE060E00E9483030D
:1024600067E070E080E090E00E94290287E060E091
:102470000E9483036CEE70E080E090E00E942902ED
:10248000CE01DF91CF911F910F91FF90EF900895B2
:102490000F931F93CF93DF93EC016032710509F422
:1024A00060C061327105D0F46230710509F44FC02B
:1024B0006330710538F461157105C9F1613071053A
:1024C00089F53DC06830710509F449C06031710576
:1024D00009F447C06430710529F541C082E06030DD
:1024E000780709F46BC082E06130780768F46038DF
:1024F000710509F45BC081E06030780709F45AC0C7
:102500006034710579F42FC088E06030780709F4F1
:102510005DC080E16030780709F446C060507440C7
:1025200009F450C060E070E080E89FEB68C081E093
:102530000E94EC5BBC01CE010E94621060C084E08E
:102540000E94EC5BBC01CE010E94811058C085E066
:102550000E94EC5BBC01CE010E94311050C083E0B0
:102560002EC082E02CC086E060E00E9483036AE017
:1025700070E080E090E00E94290287E00E94EC5B1E
:102580008C016AE070E080E090E00E94290288817E
:10259000882321F086E061E00E948303B801882748
:1025A00077FD8095982F1DC087E009C0CE0160E8B7
:1025B00070E00FC0CE0160E071E00BC086E00E94C9
:1025C000EC5B09C0CE0160E074E003C0CE0160E0C6
:1025D00078E00E943511AA2797FDA095BA2FBC017B
:1025E000CD010E94F75F23E333E343E550E40E940B
:1025F000AB6020E030EC4FE754E40E945C5FDF9179
:10260000CF911F910F9108950F931F93162F042FB1
:1026100080913315882321F483E395E10E94EE53E2
:1026200064E670E080E090E00E94290283E395E197
:10263000612F0E946D5383E395E160E170E00E9499
:10264000C753802F90E001979695982F88279795EC
:1026500087956CE97FEF0E942E61605883E395E1D6
:102660000E94A35383E395E10E94CA5380913315DE
:10267000882391F080913416882371F48091591049
:10268000813051F085E490E10E946F0B87E490E186
:1026900060E141E00E94DD0F1F910F9108956130CC
:1026A00049F0613028F0623039F0643061F408C0DC
:1026B00068E203C06CE201C06EE20E940413089558
:1026C0006AE20E9404130895DF92EF92FF920F9343
:1026D0001F93D62E79018A0180913315882321F426
:1026E00083E395E10E94EE5364E670E080E090E0C1
:1026F0000E94290283E395E16D2D0E946D5383E3CF
:1027000095E160E070E00E94C753C801B70120E086
:1027100030E040E053E40E94AB6020E030E048EC61
:1027200052E40E945C5F9B01AC0160E070E080E0DD
:1027300093E40E94F35E0E94C95F9B01AC0183E3B6
:1027400095E1622F0E94A35383E395E10E94CA534F
:1027500080913315882391F080913416882371F489
:1027600080915910813051F085E490E10E946F0B07
:1027700087E490E160E141E00E94DD0F1F910F913D
:10278000FF90EF90DF900895603131F0603241F0BA
:10279000683049F46CE201C06EE20E94641308954F
:1027A0006AE20E9464130895BF92CF92DF92EF9283
:1027B000FF920F931F93CF93DF936C01EB01B42E25
:1027C00078018901C801B70120E030E048EC52E40B
:1027D0000E94A760181614F480E058C085E68B1597
:1027E00010F48EEF53C0C038D105D9F1C138D105EE
:1027F00098F4C031D10561F1C131D10530F4C43054
:10280000D10519F12897F9F420C0C032D10501F1A2
:10281000C034D105C1F425C084E0C030D80751F1DF
:1028200084E0C130D80740F481E0C030D807C9F057
:10283000C050D24041F41EC088E0C030D807D1F06B
:10284000C050D04171F08FEF21C0C60160E01AC0C6
:10285000C60168E0A80197010E94C413C60161E0A7
:1028600011C0C60160E1A80197010E94C413C6010E
:1028700062E008C0C60160E2A80197010E94C4138B
:10288000C60164E04B2D0E944F1381E0DF91CF9190
:102890001F910F91FF90EF90DF90CF90BF90089520
:1028A0000F931F936430710529F06830710511F0A2
:1028B0008FEF07C000E010E020E030E00E94D4136A
:1028C00081E01F910F910895662321F06130B1F0EE
:1028D00080E008958AE161E00E94830388E161E07D
:1028E0000E94830380915910882331F487E490E19A
:1028F00061E041E00E94DD0F81E008958AE160E03F
:102900000E94830388E160E00E94830381E00895D0
:1029100061E00E946414089560E00E9464140895C8
:1029200084E061E00E94650386E061E00E94650347
:1029300087E061E00E94650388E061E00E94650332
:1029400089E061E00E9465038AE061E00E9465031E
:1029500082E061E00E9465038AE161E00E94650314
:1029600088E161E00E94650384E060E00E948303E7
:1029700086E060E00E94830387E060E00E948303BA
:1029800088E060E00E94830389E060E00E948303A6
:102990008AE060E00E94830382E060E00E9483039B
:1029A0008AE160E00E94830388E160E00E94830383
:1029B00008958EE890E10E949014089510928F106F
:1029C00008950F93FC01CB01BA012AE030E040E00A
:1029D00050E000810E94235D0F9108950F931F9393
:1029E0008C018DE0F80160810E94FC5C8AE0F801B6
:1029F00060810E94FC5C1F910F910895EF92FF92FD
:102A00000F931F93CF93DF93EC017A018B0177FF34
:102A10000CC08DE268810E94FC5C10950095F094DA
:102A2000E094E11CF11C011D111DC801B7012AE051
:102A300030E040E050E008810E94235DDF91CF91BB
:102A40001F910F91FF90EF9008950F931F938C01AA
:102A5000AB01662757FD6095762F0E94FE14C801D2
:102A60000E94EE141F910F9108950F931F93FC0184
:102A7000DA018B012115310529F4842F60810E9430
:102A8000FC5C0EC02A30310519F40E94FE1408C007
:102A900030E040E050E0BD01C80100810E94235DAC
:102AA0001F910F9108950F931F938C010E9435156C
:102AB000C8010E94EE141F910F910895FC01CB01F3
:102AC00060810E940D5D08959F92AF92BF92CF9258
:102AD000DF92EF92FF920F931F93CF93DF93EC015E
:102AE0007A018B01922ECB01BA0120E030E040E068
:102AF00050E00E94585F882344F48DE268810E9470
:102B0000FC5C17FB109517F9109520E030E040E0D1
:102B10005FE3AA240BC0CA01B90120E030E040E223
:102B200051E40E945C5F9B01AC01A394A91498F34B
:102B3000C801B7010E94F45E5B016C010E94C95F8D
:102B40007B018C01CE01B801A7010E94E1149920FC
:102B500029F086E097E068810E940D5DC801B70109
:102B60000E94F55F9B01AC01C601B5010E94F35EB6
:102B700020C020E030E040E251E40E94AB607B01E5
:102B80008C010E94C45F5B016C01CC24B7FCC09433
:102B9000DC2CCE01B601A5010E94FE14C601B501D0
:102BA0000E94F75F9B01AC01C801B7010E94F35E70
:102BB0009A949920F1F6DF91CF911F910F91FF9098
:102BC000EF90DF90CF90BF90AF909F9008952AE054
:102BD0000E94641508950F931F938C010E94E715BE
:102BE000C8010E94EE141F910F9108950F931F9337
:102BF0008C01CB01F80160810E940D5DC8010E942B
:102C0000EE141F910F910895FC0160E076E980E0D9
:102C100090E040810E941D5E0895FB0120E030E0BD
:102C200002C02F5F3F4F81918823D9F7C9010895D2
:102C30000F931F93CF93DF938B01BA01DA0140E02A
:102C400050E0C22FD0E019C0F801E40FF51F8081D9
:102C5000982F92959F708F709A3010F4905D01C0FC
:102C6000995C9C938A3010F4805D01C0895C119658
:102C70008C9311974F5F5F4F12964C175D0724F3AB
:102C8000CC0FDD1FC60FD71F1882DF91CF911F9188
:102C90000F91089528E00E9418160895FB01908175
:102CA000892F80538A3038F4292F332727FD309518
:102CB000205330400DC0892F8154863018F020E019
:102CC00030E007C0292F332727FD309527533040A8
:102CD00031966081862F80538A3030F4772767FDE4
:102CE0007095605370400CC0862F8154863018F068
:102CF00060E070E005C0772767FD7095675370400E
:102D0000A4E0220F331FAA95E1F7862F820F0895C2
:102D10006833A1F1693380F4643341F1653338F4E9
:102D2000623301F1633300F56133D1F417C06633C8
:102D300009F1673308F51CC0633441F1643438F499
:102D4000613401F1623400F5693351F419C065341E
:102D500009F16534E8F0663419F41EC081E01DC045
:102D600080E01BC082E019C083E017C084E015C07A
:102D700085E013C086E011C087E00FC088E00DC079
:102D800089E00BC08AE009C08BE007C08CE005C079
:102D90008DE003C08EE001C08FE04733A1F14833DE
:102DA00080F4433341F1443338F44133F1F042339A
:102DB00000F54033E1F51BC0453309F1463308F512
:102DC0001CC0423441F1433438F4493301F14933F2
:102DD000E0F0413461F51DC0443409F14434E8F0B9
:102DE0004534F9F04634F9F0089591E01DC090E0C3
:102DF0001BC092E019C093E017C094E015C095E0A5
:102E000013C096E011C097E00FC098E00DC099E0A4
:102E10000BC09AE009C09BE007C09CE005C09DE0A4
:102E200003C09EE001C09FE08295807F890F0895D6
:102E30000895CB01642F0E94EB640895CB010E949A
:102E4000E36408958FE261E00E94650384E261E03B
:102E50000E94650385E261E00E9465038FE261E004
:102E60000E94830384E261E00E94830385E261E0C3
:102E70000E94830308950F931F93162F042F8FE250
:102E800061E00E94650384E261E00E94650385E2DF
:102E900061E00E9465038FE261E00E94830384E2A7
:102EA000612F0E94830385E2602F0E9483031F919C
:102EB0000F9108950F931F93162F042F862F61E013
:102EC0000E946503013019F4812F61E004C00023E2
:102ED00021F4812F60E00E9483031F910F910895D8
:102EE0001092D0111092D2110895EF92FF920F9389
:102EF0001F93CF93DF93EC017A018B0177FF0CC016
:102F00008DE268810E94FC5C10950095F094E0943D
:102F1000E11CF11C011D111DC801B7012AE030E0C0
:102F200040E050E008810E94235DDF91CF911F9126
:102F30000F91FF90EF9008950F931F93FC01DA011A
:102F40008B012115310529F4842F60810E94FC5CDE
:102F500016C02A30310519F40E94751710C02031AF
:102F6000310529F4842F60810E94C55D08C030E0DE
:102F700040E050E0BD01C80100810E94235D1F9127
:102F80000F910895FC0180810E94665C0895FC0108
:102F900080810E942B5C0895FC0180810E94075C67
:102FA0000895FC016183613019F06330B9F518C0F0
:102FB0008081882311F486E111C080E990E10E94AC
:102FC000221786E061E00E94650386E061E00E94CE
:102FD00083038AE261E00E9465038AE261E005C042
:102FE0008081882329F486E160E00E9483030895AC
:102FF00080E990E160E040E00E943B1786E061E0FC
:103000000E94650386E060E00E9483038AE261E03B
:103010000E9465038AE260E00E9483030895FC0138
:1030200080810E94FF5D0895FC01262F608360E08F
:1030300070E0CB01BA01422F0E941D5E86E161E083
:103040000E94650308950F931F93CF93DF93DC01D4
:103050008B01EC01C658DD4F1982188240E0BE0199
:1030600006C04F5F2F5F3F4FFB0131832083FB0181
:1030700020813181F801E20FF31F8081882389F7D5
:10308000469583E090E09983888390E0ED01C658EF
:10309000DD4F50E00BC0FD01E20FF31FE857FD4F7D
:1030A0008081980F2F5F3F4F398328832881398192
:1030B0002417350780F3892F8095A40FB51FA957D2
:1030C000BD4F8C93DF91CF911F910F910895AF92D7
:1030D000BF92CF92DF92EF92FF920F931F93CF9305
:1030E000DF937C018B0106551F4FD8018C910A5A42
:1030F0001040F801E855FF4F813009F024C1C22E7D
:10310000DD24DA01AC0DBD1D83E28C93808181301A
:1031100009F446C0813020F0823009F038C2AAC0DC
:1031200011961C92119701571F4FF80181918F0141
:1031300012968C93129780810059104013968C93AD
:103140001397F701E658FD4F11821082EF01FCE75B
:10315000CF2EF2E0DF2ECE0CDF1CB70162587D4F80
:10316000AD010FC0FA01E20FF31FA00FB11FA20FB4
:10317000B31F1C968C9184838881998101969983D1
:10318000888328813981F601A081B181FB0180818A
:10319000918101968A1B9B0B2817390718F3F7C1F9
:1031A00011968C93B70166587D4FDB011D921C92DE
:1031B000EB0110C0FA01EA0FFB1FEC0DFD1DA00F83
:1031C000B11FA557BF4F8C91828388819981019649
:1031D00099838883A881B981A430B10558F3FB0194
:1031E00011821082E701C658DD4F10C0FA01EA0FC4
:1031F000FB1FEC0DFD1DA00FB11FA957BF4F8C91F8
:10320000868388819981019699838883A881B98171
:10321000A430B10558F319821882E701C658DD4F72
:10322000ECE7AE2EE2E0BE2EAE0CBF1C970122589A
:103230003D4F11C0FA01E60FF71FEC0DFD1DA00F69
:10324000B11FA60FB71F1C968C9182878881998128
:1032500001969983888368817981F501A081B18184
:10326000F9018081918101968A1B9B0B6817790770
:1032700008F38DC111968C93C0E0D0E0D701A65819
:10328000BD4F06C0E9016F5F7F4F11967C936E932F
:103290006D917C911197F801E60FF71FEF56FF4FE4
:1032A00080819E012F5F3F4F833261F71D921C92F8
:1032B000E701C658DD4F10C0FA01EA0FFB1FEC0D05
:1032C000FD1DA00FB11FAF56BF4F8C918283888127
:1032D0009981019699838883A881B981A217B30740
:1032E00058F319821882E701C658DD4F7CE7A72EF4
:1032F00072E0B72EAE0CBF1C8EE792E0E80EF91E0E
:1033000013C0FA01E60FF71FE20FF31FEC0DFD1DCE
:10331000A00FB11FA60FB71F1C968C9182838881C6
:10332000998101969983888368817981F501A081CB
:10333000B181F7018081918101968A1B9B0B6817EF
:103340007907F8F224C18081813009F446C08130C8
:1033500020F0823009F01BC1AEC030E0FA01E20F6C
:10336000F31F108201571F4FD8018D918D0181836A
:103370008C91005910408283F701E658FD4F11826D
:103380001082EF016CE7C62E62E0D62ECE0CDF1C59
:10339000EEE7F2E0EE0EFF1E11C0FA01E60FF71F96
:1033A000E20FF31FA00FB11FA60FB71F1C968C9141
:1033B0008383888199810196998388836881798143
:1033C000F601A081B181F7018081918101968A1B6C
:1033D0009B0B6817790708F3DAC030E0FA01E20FB7
:1033E000F31F8083B70166587D4FDB011D921C924D
:1033F000EB0110C0FA01EA0FFB1FE20FF31FA00F51
:10340000B11FA557BF4F8C91818388819981019607
:1034100099838883A881B981A430B10558F3FB0151
:1034200011821082E701C658DD4F10C0FA01EA0F81
:10343000FB1FE20FF31FA00FB11FA957BF4F8C91C5
:10344000858388819981019699838883A881B98130
:10345000A430B10558F319821882E701C658DD4F30
:103460009CE7C92E92E0D92ECE0CDF1C8EE792E0AD
:10347000E80EF91E11C0FA01E60FF71FE20FF31F65
:10348000A00FB11FA60FB71F1C968C918187888152
:10349000998101969983888368817981F601A08159
:1034A000B181F7018081918101968A1B9B0B68177E
:1034B000790708F36CC0C22EDD24FA01EC0DFD1D66
:1034C0008083C0E0D0E0D701A658BD4F06C0E90117
:1034D0006F5F7F4F11967C936E936D917C911197E6
:1034E000F801E60FF71FEF56FF4F80819E012F5F17
:1034F0003F4F833261F71D921C92E701C658DD4FA2
:1035000010C0FA01EA0FFB1FEC0DFD1DA00FB11F4B
:10351000AF56BF4F8C9181838881998101969983A1
:103520008883A881B981A217B30758F3198218823A
:10353000E701C658DD4F8CE7A82E82E0B82EAE0C0E
:10354000BF1C8EE792E0E80EF91E13C0FA01E60FE9
:10355000F71FE20FF31FEC0DFD1DA00FB11FA60F0B
:10356000B71F1C968C9181838881998101969983DC
:10357000888368817981F501A081B181F70180811B
:10358000918101968A1B9B0B68177907F8F2DF91EE
:10359000CF911F910F91FF90EF90DF90CF90BF9050
:1035A000AF9008953F924F925F926F927F928F9269
:1035B0009F92AF92BF92CF92DF92EF92FF920F93C2
:1035C0001F93DF93CF9300D000D0CDB7DEB76B0150
:1035D0004A017901AA24A39410E022E730E0C20E48
:1035E000D31E21E3422E9DE7792E83E3382EBEE5DC
:1035F0006B2EADE55A2E30C1D401A60FB71F8C91AA
:10360000813111F090E04AC04C92F70180818F5FC8
:1036100080838C917C926F5F7F4F9401260F371FC0
:103620003C832B8361507040FB013296FA83E9831F
:1036300020C0EB81FC81B180418349815A814F5F79
:103640005F4F3296FC83EB8329813A812E5F3F4F97
:103650003A832983F70180819801280F311DC90120
:10366000F60120813181820F931F48175907A8F472
:103670008B2DEB81FC8140818083F7018081980153
:10368000280F311DC901F60120813181820F931F5E
:1036900029813A812817390760F291E08C918331B2
:1036A00009F04DC0992309F04AC03C92F70180818E
:1036B0008F5F80838C917C926F5F7F4F9401260F88
:1036C000371F3C832B8361507040FB013296FA8395
:1036D000E98320C0EB81FC81B180418349815A811B
:1036E0004F5F5F4F3296FC83EB8329813A812E5FD7
:1036F0003F4F3A832983F70180819801280F311DBC
:10370000C901F60120813181820F931F48175907A3
:10371000A8F48B2DEB81FC8140818083F7018081AF
:103720009801280F311DC901F60120813181820FD6
:10373000931F29813A812817390760F291E08C9113
:103740008E3709F04DC0992309F04AC06C92F701F9
:1037500080818F5F80838C917C926F5F7F4F94011B
:10376000260F371F3C832B8361507040FB0132963C
:10377000FA83E98320C0EB81FC81B18041834981D8
:103780005A814F5F5F4F3296FC83EB8329813A81E8
:103790002E5F3F4F3A832983F70180819801280FDC
:1037A000311DC901F60120813181820F931F481715
:1037B0005907A8F48B2DEB81FC8140818083F701B0
:1037C00080819801280F311DC901F60120813181C6
:1037D000820F931F29813A812817390760F291E0FF
:1037E0002C912D37C1F59923B1F55C92F7018081B9
:1037F0008F5F80838C912C936F5F7F4FF401E60F76
:10380000F71F6F5F7F4F17C0B1804183AB014F5FE0
:103810005F4F32966E5F7F4FD7018C919801280FD2
:10382000311DC901D6012D913C91820F931F48177C
:10383000590788F48B2D40818083D7018C919801A2
:10384000280F311DC901D6012D913C91820F931F84
:1038500068177907C8F2A3946A2D70E0F701808198
:103860009801280F311DC901D6012D913C91820F7D
:10387000931F6817790708F4BFCE0F900F900F9031
:103880000F90CF91DF911F910F91FF90EF90DF90FC
:10389000CF90BF90AF909F908F907F906F905F90F0
:1038A0004F903F900895DF92EF92FF920F931F93F6
:1038B000CF93DF93890180E090E0F3E1DF2EEEE724
:1038C000EE2E31E1F32E37C02F5F3F4F9C919D3795
:1038D00031F01196319624173507B0F32DC0241717
:1038E000350750F5E9012196E60FF71F81818333F3
:1038F00061F0843318F4813369F405C08D3549F0E3
:103900008E3541F404C0FC9205C0DC9203C0EC92F9
:1039100001C09C9341505040F901E00FF11FE60FA8
:10392000F71F02C0818180832F5F3F4F3196CE0108
:1039300024173507B8F39C012417350738F4F9012B
:10394000E00FF11FDB01AE0FBF1FC0CFDF91CF91A2
:103950001F910F91FF90EF90DF900895EF92FF92EB
:103960000F931F93CF93DF938C01EB017A01FC013E
:10397000E658FD4F2D5F3F4F318320832350304069
:10398000A0E0B0E0AF010BC0FE01E60FF71F8081A1
:10399000A80FB11D6F5F7F4FFA0171836083FA0139
:1039A000608171816E157F0578F3AF3FB10521F01D
:1039B000AF3F11F081E008C008521E4FC20FD31F65
:1039C0008C81F801808380E0DF91CF911F910F916E
:1039D000FF90EF900895EF92FF920F931F93CF9374
:1039E000DF93EC01CA5BDD4FE8808DEEE80E249793
:1039F0008881C254D240813009F0C9C0CD5DDE4F0C
:103A0000F880C352D140FA948E0106581D4FD80158
:103A10001D921C92B8012F2D30E087E290E0289F84
:103A2000A001299F500D389F500D11244C0F5D1F90
:103A300011C0FA01EA0FFB1FE05AFF4FAC0FBD1F88
:103A4000A85BBD4F8C918083FB01808191810196A1
:103A500091838083FB01A081B181A230B10548F33D
:103A6000D8011D921C92AE0146585D4F2F2D30E0BB
:103A700087E290E0289FB001299F700D389F700D5C
:103A800011246C0F7D1F11C0FB01EA0FFB1FEE59C3
:103A9000FF4FAC0FBD1FA65BBD4F8C918083FA0119
:103AA00080819181019691838083FA01A081B18107
:103AB000A430B10548F311821082BE0166587D4FD3
:103AC0002F2D30E087E290E0289FA001299F500D24
:103AD000389F500D11244C0F5D1F12C0FA01EA0FE0
:103AE000FB1FEA59FF4FAC0FBD1FA25BBD4F8C916E
:103AF0008083DB018D919C91119701968D939C930E
:103B0000FB01A081B181A430B10540F387E290E0D0
:103B1000289FF001299FF00D389FF00D1124EC0F24
:103B2000FD1FEA57FF4FCE5ADD4F8881C255D24064
:103B30008083E658F040AE014A5B5D4FDA018D911B
:103B40009C910D9720F1DB011D921C929E0126583D
:103B50003D4FBA01AF0111C0FA01EA0FFB1FE65950
:103B6000FF4FAC0FBD1FAD5ABD4F8C918083F90143
:103B700080819181019691838083F901A081B18137
:103B8000FB01808191810C97A817B90728F3CE5BC0
:103B9000DD4F8881C254D2408250843008F047C142
:103BA000CD5DDE4FF880C352D140FA948E010658A5
:103BB0001D4FD8011D921C92B8012F2D30E087E2D5
:103BC00090E0289FA001299F500D389F500D11248F
:103BD0004C0F5D1F11C0FA01EA0FFB1FE05AFF4FA7
:103BE000AC0FBD1FA85BBD4F8C918083FB01808112
:103BF0009181019691838083FB01A081B181A230E4
:103C0000B10548F3D8011D921C92AE0146585D4F94
:103C10002F2D30E087E290E0289FB001299F700DA2
:103C2000389F700D11246C0F7D1F11C0FB01EA0F2E
:103C3000FB1FEE59FF4FAC0FBD1FA65BBD4F8C9114
:103C40008083FA0180819181019691838083FA01BA
:103C5000A081B181A430B10548F311821082AE0178
:103C600046585D4F2F2D30E087E290E0289FB0014D
:103C7000299F700D389F700D11246C0F7D1F12C08D
:103C8000FB01EA0FFB1FEA59FF4FAC0FBD1FA25B00
:103C9000BD4F8C918083DA018D919C911197019693
:103CA0008D939C93FA01A081B181A430B10540F3BA
:103CB00011821082AE0146585D4F0E2D10E02F2D5F
:103CC00030E087E290E0289FB001299F700D389F77
:103CD000700D11246C0F7D1F12C0FB01EA0FFB1F3A
:103CE000E659FF4FAC0FBD1FAE5ABD4F8C9180837C
:103CF000DA018D919C91119701968D939C93FA0115
:103D0000A081B181A017B10740F311821082BE01DA
:103D100066587D4F2F2D30E087E290E0289FA0016C
:103D2000299F500D389F500D11244C0F5D1F14C05A
:103D3000FA01EA0FFB1FE258FF4FAC0FBD1FA00FA7
:103D4000B11FAD5ABD4F8C918083DB018D919C9149
:103D5000119701968D939C93FB01A081B181A230B4
:103D6000B10530F387E290E0289FD001299FB00D84
:103D7000389FB00D1124AC0FBD1FA058BF4FFE01DE
:103D8000EE0DF11DEB5AFD4F81918D9380818C9347
:103D9000A158B040FB0111821082AE0146585D4F20
:103DA000BD0114C0FB01EA0FFB1FEE57FF4FAC0F24
:103DB000BD1FA00FB11FA95ABD4F8C918083DA019E
:103DC0008D919C91119701968D939C93FA01A081FE
:103DD000B181A230B10530F311821082BE01665864
:103DE0007D4F87E290E0289FA001299F500D389FCA
:103DF000500D11244C0F5D1F14C0FA01EA0FFB1F78
:103E0000EC57FF4FAC0FBD1FA00FB11FA75ABD4FFE
:103E10008C918083DB018D919C91119701968D93FC
:103E20009C93FB01A081B181A230B10530F3DF91F9
:103E3000CF911F910F91FF90EF900895CF92DF9255
:103E4000EF92FF920F931F93CF93DF93EC016B01DF
:103E50007A01B901FC01E658FD4F0D5F1F4F118338
:103E6000008303501040A0E0B0E09F010BC0F601BA
:103E7000E40FF51F8081A80FB11D4F5F5F4FF9015F
:103E800051834083F901408151814617570778F3E8
:103E9000AF3FB10519F0AF3F09F05AC0F601E00F8E
:103EA000F11F9581D70115968C911597981709F0F8
:103EB0004FC0968116968C91981709F049C09B01C6
:103EC000201B310B2930310529F48781882309F41F
:103ED00042C03EC087818823D9F5FE01E658FD4FD8
:103EE00011821082BF012950304012C0FE01E40F40
:103EF000F51FE85BFD4FD601A40FB51FA00FB11F42
:103F000018968C9180834F5F5F4FFB0151834083F4
:103F1000DB014D915C914217530740F3CA5BDD4FC3
:103F200039832883C654D240F70185818E3491F4B9
:103F30008681843479F42230310530F0FE01ED5D64
:103F4000FE4F80818F5F8083CE010E94EB1C02C0F8
:103F500081E001C080E0DF91CF911F910F91FF9030
:103F6000EF90DF90CF900895FC01E658FD4F11824D
:103F70001082DF010BC0FC01E20FF31FE857FD4F79
:103F800010822F5F3F4F11963C932E932D913C91C1
:103F900011972E31310578F30895CF92DF92EF9289
:103FA000FF920F931F93CF93DF936C01FC01E658B0
:103FB000FD4F118210828F01E62EFF24E701CC0F06
:103FC000DD1FCC0FDD1FCE0DDF1D1CC0EC0FFD1F54
:103FD0003B96EE0FFF1FEC0DFD1D808191810E942D
:103FE0004D62D8018D919C911197FE01E80FF91F48
:103FF0003B96EE0FFF1FEC0DFD1D11821082019606
:104000008D939C93D801ED91FC91E530F105F0F290
:104010008701000F111F0C0D1D1D075B1F4FD801DD
:10402000ED91FC9115AA16AA17AA10AECF010E9415
:104030004D62F80111821082F601ED5AFF4F808126
:1040400081508083DF91CF911F910F91FF90EF906E
:10405000DF90CF900895AF92BF92CF92DF92FF9200
:104060000F931F93CF93DF936C01FF2460E070E008
:104070008C0106581D4FD8016D937C93EB01AA96D5
:10408000CC0FDD1FCC0DDD1D23C05F010894A11CEA
:10409000B11CA881B981A555BF4FBB96EE0FFF1F7C
:1040A000EC0DFD1D0190F081E02DE555FF4F2D91A8
:1040B0003D914D915C9180819181A281B381821764
:1040C0009307A407B50754F4F394F801B182A082D2
:1040D000D801ED91FC91E430F105B8F2B4E0FB16A3
:1040E00021F4F62E65E070E002C0F62EF3946F5FC7
:1040F0007F4F6530710508F4BECF0F2D10E0065DCF
:104100001F4F000F111F0C0D1D1DF80180819181A3
:104110000E944D62D8011D921C928F2DDF91CF918C
:104120001F910F91FF90DF90CF90BF90AF900895B7
:10413000AF92BF92CF92DF92FF920F931F93CF93D4
:10414000DF936C01FF2460E070E08C0106581D4F86
:10415000D8016D937C93EB01AA96CC0FDD1FCC0D9B
:10416000DD1D23C05F010894A11CB11CA881B98189
:10417000A555BF4FBB96EE0FFF1FEC0DFD1D019027
:10418000F081E02DE555FF4F2D913D914D915C91D2
:1041900080819181A281B381281739074A075B0783
:1041A00054F4F394F801B182A082D801ED91FC910E
:1041B000E430F105B8F2B4E0FB1621F4F62E65E028
:1041C00070E002C0F62EF3946F5F7F4F653071058B
:1041D00008F4BECF0F2D10E0065D1F4F000F111F1A
:1041E0000C0D1D1DF801808191810E944D62D80146
:1041F0001D921C928F2DDF91CF911F910F91FF90F7
:10420000DF90CF90BF90AF9008950F931F93CF93FF
:10421000DF938C01FC01E658FD4F11821082EF0103
:1042200016C0BA96EE0FFF1FE00FF11F808191813B
:104230000E944D62888199818A96FC01EE0FFF1FD2
:10424000E00FF11F11821082899799838883E8819A
:10425000F981E530F10528F3DF91CF911F910F919E
:104260000895AF92BF92CF92DF92EF92FF920F9399
:104270001F93CF93DF93EC0109E4A02EB12CA80E7D
:10428000B91EEE24FF241AE7C12E12E0D12EC80E6B
:10429000D91ED6011D921C928701000F111F000F1D
:1042A000111F0E0D1F1D1CC0E00FF11F3B96EE0FDE
:1042B000FF1FEC0FFD1F808191810E944D62F6016E
:1042C00080819181F801E80FF91F3B96EE0FFF1FE7
:1042D000EC0FFD1F118210820196D6018D939C93E5
:1042E000D601ED91FC91E530F105F0F2D501ED91AB
:1042F000FC9115AA16AA17AA10AECF010E944D6212
:10430000F501119211925F010894E11CF11CF5E096
:10431000EF16F10409F0BDCFCD5ADF4F1882C65A0F
:10432000DD4F188222961882DF91CF911F910F9155
:10433000FF90EF90DF90CF90BF90AF900895AF9235
:10434000BF92CF92DF92EF92FF920F931F93CF9382
:10435000DF93EC01FC01E355FD4F108260E070E05B
:104360001AE7A12E12E0B12EA80EB91E7F01D501C9
:104370006D937C938B01000F111F0C0F1D1F075BAA
:104380001F4F28C0D8018D919C916F010894C11CCA
:10439000D11CF601EE0FFF1FEC0FFD1FE75BFF4F77
:1043A0000190F081E02DDC01D5962D913D914D914C
:1043B0005C91D89785A996A9A7A9B0AD2817390708
:1043C0004A075B076CF4F70180818F5F8083D5011A
:1043D000CD92DC92D501ED91FC91E430F10590F2A3
:1043E000F7018081843021F4608365E070E004C0CF
:1043F000862F8F5FD7018C936F5F7F4F653071057C
:1044000008F4B5CFFE01E658FD4F118210828F01EE
:104410007DEAE72E72E0F72EEC0EFD1E2FC0F701AD
:10442000808190E0FC01EE0FFF1FEE0FFF1FE80FF1
:10443000F91FE20FF31F3B96EE0FFF1FEC0FFD1F5E
:10444000808191810E944D62D7018C9190E0FC01A6
:10445000EE0FFF1FEE0FFF1FE80FF91FD8018D9120
:104460009C911197E80FF91F3B96EE0FFF1FEC0F81
:10447000FD1F1182108201968D939C93F80120817B
:1044800031812530310558F2D701EC91F0E0EE0F83
:10449000FF1FEC0FFD1FE75BFF4F0190F081E02D48
:1044A00015AA16AA17AA10AEEC91F0E0EE0FFF1FA6
:1044B000EC0FFD1FE75BFF4F808191810E944D62F1
:1044C000D701EC91F0E0EE0FFF1FEC0FFD1FE75B53
:1044D000FF4F11821082FE01ED5AFF4F8081815003
:1044E0008083C155DD4F1882DF91CF911F910F91CD
:1044F000FF90EF90DF90CF90BF90AF9008952F92F4
:104500003F924F925F926F927F928F929F92AF9263
:10451000BF92CF92DF92EF92FF920F931F93DF93A0
:10452000CF93CDB7DEB760970FB6F894DEBF0FBE5E
:10453000CDBF7C016B01FC01E658FD4F118210825A
:104540002FEA32E0E20EF31ED7018C9121E53DEF18
:10455000E20EF31E882311F1DF0110C0F901EE0F06
:10456000FF1FEE0DFF1DE75BFF4F80819181892BBF
:1045700059F02F5F3F4F11963C932E932D913C9114
:1045800011972530310550F34DEA52E0E40EF51E47
:10459000D7012C93E3E5FDEFEE0EFF1E2AE732E094
:1045A000E20EF31ED7011D921C92E8ECFFEFEE0E17
:1045B000FF1ED7018C91EEEBFDEFEE0EFF1E81305A
:1045C00079F026E432E0E20EF31ED7018D919C9142
:1045D000EAEBFDEFEE0EFF1E0C9770F50C947934AC
:1045E00020E832E0E20EF31ED7018C91E0E8FDEF07
:1045F000EE0EFF1E882379F426E432E0E20EF31E6D
:10460000D7018D919C91EAEBFDEFEE0EFF1E059711
:1046100098F40C947934813079F426E432E0E20E97
:10462000F31ED7018D919C91EAEBFDEFEE0EFF1E7C
:104630000B9710F40C94793400E010E06624882481
:1046400077249924B70166587D4FE2E44E2EE2E0CC
:104650005E2E4E0C5F1C51E8252E52E0352E2E0C9E
:104660003F1C970120583D4F3E872D87DB011D924F
:104670001C92F801EE0FFF1FEE0DFF1DE75BFF4FD1
:104680000190F081E02D85A996A9A7A9B0AD1816D3
:1046900019061A061B060CF08CC3D2018C918130CE
:1046A00009F0D0C1AD85BE858C91882309F0E1C0A9
:1046B000D60114969C9114978081981709F079C3BC
:1046C000AA24BB2416968C91833219F431E0A32ED0
:1046D000B12C96012A0D3B1DD90116968C91DB0158
:1046E0001D921C928130A9F0813020F0823009F0B7
:1046F00088C070C09389D90117968C911797981725
:1047000009F07FC0948918968C91981709F079C0A8
:104710007CC0FB0111821082A801440F551F4E0D71
:104720005F1D475B5F4F17C0FA01A081B181A20FE7
:10473000B31FF601E20FF31FEA0DFB1D1B969C91C0
:104740008781981719F0882483940BC02F5F3F4FFF
:10475000DB012D933C93FB01208131812430310515
:1047600018F3DB011D921C92A801440F551F4E0D3A
:104770005F1D475B5F4F14C0FA01A081B181A20F9A
:10478000B31FF601E20FF31FEA0DFB1D1F969C916C
:1047900083859817A1F52F5F3F4FDB012D933C9345
:1047A000FB01208131812430310530F325C0992768
:1047B00087FD9095F601E40FF51FEA0DFB1D27819B
:1047C00030E082179307D9F44F5F5F4FFB015183AD
:1047D000408307C0D801AA0FBB1FAE0DBF1DA75B4A
:1047E000BF4FFB0140815181ED91FC911197E40F86
:1047F000F51F85898332D9F6882039F002C08824D4
:104800008394F1E06F1609F0D4C2702E21E0A21655
:10481000B10479F4E02FF0E0EE0FFF1FEE0DFF1D65
:10482000E75BFF4F0190F081E02DD60115968C914A
:1048300082AFE72DF0E0EE0FFF1FEE0DFF1DE75BEF
:10484000FF4FA081B181DB968C91DB978F5FDB9668
:104850008C930190F081E02DD60112962C91129745
:1048600083A994A9820F911D94AB83AB15969C905C
:10487000E3C0813009F09DC2D6011A969C911A9727
:104880008081981709F095C2AA24BB241C968C91AC
:10489000833219F4B1E0AB2EB12C96012A0D3B1DE9
:1048A000D9011C968C91DB011D921C928130A9F0DC
:1048B000813020F0823009F088C070C09389D9011E
:1048C0001D968C911D97981709F07FC094891E96AC
:1048D0008C91981709F079C07CC0FB01118210827D
:1048E000A801440F551F4E0D5F1D475B5F4F17C05A
:1048F000FA01A081B181A20FB31FF601E20FF31FED
:10490000EA0DFB1D1B969C918585981719F088244C
:1049100083940BC02F5F3F4FDB012D933C93FB0132
:10492000208131812430310518F3DB011D921C9266
:10493000A801440F551F4E0D5F1D475B5F4F14C00C
:10494000FA01A081B181A20FB31FF601E20FF31F9C
:10495000EA0DFB1D1F969C9181899817A1F52F5F89
:104960003F4FDB012D933C93FB01208131812430AB
:10497000310530F325C0992787FD9095F601E40FA6
:10498000F51FEA0DFB1D258530E082179307D9F44A
:104990004F5F5F4FFB015183408307C0D801AA0FCF
:1049A000BB1FAE0DBF1DA75BBF4FFB0140815181F7
:1049B000ED91FC911197E40FF51F85898332D9F6AB
:1049C000882039F002C088248394F1E06F1609F042
:1049D000F0C1702E21E0A216B10479F4E02FF0E0CE
:1049E000EE0FFF1FEE0DFF1DE75BFF4F0190F08103
:1049F000E02DD6011B968C9182AFE72DF0E0EE0FF3
:104A0000FF1FEE0DFF1DE75BFF4FA081B181DB961D
:104A10008C91DB978F5FDB968C930190F081E02D7A
:104A2000D60118962C91189783A994A9820F911DED
:104A300094AB83AB1B969C909A94B4E0B91508F0A4
:104A4000B4C1F8C68250843008F0B3C1D1018C9152
:104A5000882309F0D2C0D6011B969C911B978081B8
:104A6000981709F0A6C1AA24BB241D968C91833205
:104A700019F431E0A32EB12C96012A0D3B1DD9016A
:104A80001D968C91DB011D921C928130A9F0813022
:104A900020F0823009F088C070C09389D9011E9639
:104AA0008C911E97981709F07FC094891F968C915E
:104AB000981709F079C07CC0FB0111821082A8010F
:104AC000440F551F4E0D5F1D475B5F4F17C0FA0126
:104AD000A081B181A20FB31FF601E20FF31FEA0D0F
:104AE000FB1D1B969C918685981719F0882483944A
:104AF0000BC02F5F3F4FDB012D933C93FB012081C7
:104B000031812430310518F3DB011D921C92A8017C
:104B1000440F551F4E0D5F1D475B5F4F14C0FA01D8
:104B2000A081B181A20FB31FF601E20FF31FEA0DBE
:104B3000FB1D1F969C9182899817A1F52F5F3F4F0F
:104B4000DB012D933C93FB01208131812430310521
:104B500030F325C0992787FD9095F601E40FF51FE6
:104B6000EA0DFB1D268530E082179307D9F44F5FCD
:104B70005F4FFB015183408307C0D801AA0FBB1FC1
:104B8000AE0DBF1DA75BBF4FFB0140815181ED9171
:104B9000FC911197E40FF51F85898332D9F688209F
:104BA00039F002C088248394F1E06F1609F001C146
:104BB000702E21E0A216B10479F4E02FF0E0EE0FA0
:104BC000FF1FEE0DFF1DE75BFF4F0190F081E02D11
:104BD000D6011C968C9182AFE72DF0E0EE0FFF1FFF
:104BE000EE0DFF1DE75BFF4F0190F081E02D83ADDF
:104BF0008F5F83AFF6019484D3C0823009F0D9C0AF
:104C0000D60151969C9151978081981709F0D1C097
:104C1000AA24BB2453968C91833219F4B1E0AB2EB5
:104C2000B12C96012A0D3B1DD90153968C91DB01C5
:104C30001D921C928130A9F0813020F0823009F061
:104C400088C070C09389D90154968C915497981755
:104C500009F07FC0948955968C91981709F079C016
:104C60007BC0FB0111821082A801440F551F4E0D1D
:104C70005F1D475B5F4F17C0FA01A081B181A20F92
:104C8000B31FF601E20FF31FEA0DFB1D1B969C916B
:104C90008489981719F0882483940BC02F5F3F4FA5
:104CA000DB012D933C93FB012081318124303105C0
:104CB00018F3DB011D921C92A801440F551F4E0DE5
:104CC0005F1D475B5F4F14C0FA01A081B181A20F45
:104CD000B31FF601E20FF31FEA0DFB1D1F969C9117
:104CE000808D9817A1F52F5F3F4FDB012D933C93EB
:104CF000FB01208131812430310530F325C0992713
:104D000087FD9095F601E40FF51FEA0DFB1D248940
:104D100030E082179307D9F44F5F5F4FFB01518357
:104D2000408307C0D801AA0FBB1FAE0DBF1DA75BF4
:104D3000BF4FFB0140815181ED91FC911197E40F30
:104D4000F51F85898332D9F6882031F002C0882486
:104D50008394F1E06F1669F5702E21E0A216B1047C
:104D600079F4E02FF0E0EE0FFF1FEE0DFF1DE75B83
:104D7000FF4F0190F081E02DD60152968C9182AFC9
:104D8000E72DF0E0EE0FFF1FEE0DFF1DE75BFF4F7D
:104D90000190F081E02D83AD8F5F83AFF6019288A3
:104DA0009A94F4E0F91508F445C505E010E066248E
:104DB00063940F5F1F4F0530110508F457CC2AE7A5
:104DC00032E0E20EF31ED7011D921C92E6E8FDEFE1
:104DD000EE0EFF1E662009F015C6870103551D4F14
:104DE000D8017C90EFEAF2E0EE0EFF1E81E0D701E1
:104DF0008C93E4EAFDEFEE0EFF1ED7018C91EDEAF5
:104E0000FFEFEE0EFF1E853028F0C7010E949F21A4
:104E1000D8017C90F701ED5AFF4F80818F5F80832E
:104E2000A72CBB2481E090E06EE370E00E948461D7
:104E3000FC012501440C551C4E0C5F1C29E430E09C
:104E4000420E531ED2018D939C93009709F4F8C52E
:104E500022E432E0E20EF31ED7018C912EEB3DEFFF
:104E6000E20EF31E813009F084C240E852E0E40E05
:104E7000F51ED7018C9120E83DEFE20EF31E88234A
:104E800009F022C112A6D201ED91FC91D60114962F
:104E90008C918083F201008111810E941102D8015E
:104EA000D5966D937D938D939C93D897F701E65893
:104EB000FD4F118210829F01A20111C0FA01608191
:104EC00071816A0F7B1FAC0DBD1D8C91DB011996A2
:104ED0008C93F90180819181019691838083F901FE
:104EE000A081B181A230B10548F340E050E0D60185
:104EF00016968C91833211F441E050E0D501AA0F4F
:104F0000BB1FAE0DBF1DA75BBF4F2D913C911197ED
:104F1000B601640F751FFB018681F90181A7970116
:104F200026583D4FF901118210820D911C91119765
:104F3000F80181A5813089F0813020F0823009F0BC
:104F400089C063C0FB018781F801838BED91FC91DF
:104F5000DB0118968C91848B7DC0F901118210823F
:104F60004901BD0114C0FB01008111810A0F1B1F03
:104F7000AC0DBD1DA40FB51F17968C91D8011B96C3
:104F80008C93F40180819181019691838083F40157
:104F9000A081B181A430B10530F3D9011D921C92DA
:104FA000970126583D4FB501660F771F6E0D7F1D87
:104FB000675B7F4F14C0FB01008111810A0F1B1F2B
:104FC000AC0DBD1DA40FB51F1B968C91D8011F966B
:104FD0008C93F90180819181019691838083F901FD
:104FE000A081B181A430B10530F334C0ED91FC91C2
:104FF0001197E80FF91F258BFB01808191810196A4
:1050000091838083459710F00CC0B901FB0180812A
:105010009181F601E80FF91FE40FF51F2781233274
:1050200029F7F501EE0FFF1FEE0DFF1DE75BFF4FA8
:105030000190F081E02D2AE732E0E20EF31ED70165
:105040008D919C9126E83DEFE20EF31EE80FF91FCB
:1050500083E2858B4130510571F4F501EE0FFF1F9E
:10506000EE0DFF1DE75BFF4F0190F081E02DD601B3
:1050700015968C9182AFD501AA0FBB1FAE0DBF1D37
:10508000A75BBF4FED91FC91119791E093AFF601B3
:1050900095809A94F4E0F91508F4CCC32D913C91D5
:1050A0001197F6018281F90183AB14AAF60183817D
:1050B000F90182ABED91FC9182A98150823010F40C
:1050C00093A7A0C413A69EC4813009F09BC482A7F5
:1050D000D201ED91FC91D6011A968C918083F20158
:1050E000008111810E941102D801D5966D937D93A4
:1050F0008D939C93D897A70146585D4FFA01118272
:1051000010829A01B20111C0FB01008111810A0FC6
:105110001B1FAC0DBD1D8C91D80115968C93F90108
:1051200080819181019691838083F901A081B18171
:10513000A430B10548F3DA011D921C92970126585C
:105140003D4FA501440F551F4E0D5F1D475B5F4F3F
:1051500012C0FA01608171816A0F7B1FAC0DBD1D09
:1051600014968C91DB0111968C93F90180819181C9
:10517000019691838083F901A081B181A430B105AA
:1051800040F360E070E0D6011C968C91833211F4FC
:1051900061E070E0D501AA0FBB1FAE0DBF1DA75B7C
:1051A000BF4F2D913C911197A601460F571FFA0151
:1051B0008485F90181A7970126583D4FF901118295
:1051C00010820D911C911197F80181A5813089F011
:1051D000813020F0823009F089C063C0FA018585F2
:1051E000F801838BED91FC91DA011E968C91848BF2
:1051F0007DC0F901118210824901AD0114C0FA018C
:10520000008111810A0F1B1FAC0DBD1DA60FB71F1A
:105210001D968C91D8011B968C93F401808191810D
:10522000019691838083F401A081B181A430B105FE
:1052300030F3D9011D921C92970126583D4FA501CC
:10524000440F551F4E0D5F1D475B5F4F14C0FA01A1
:10525000008111810A0F1B1FAC0DBD1DA60FB71FCA
:1052600051968C91D8011F968C93F9018081918180
:10527000019691838083F901A081B181A430B105A9
:1052800030F334C0ED91FC911197E80FF91F258B95
:10529000FA0180819181019691838083459710F076
:1052A0000CC0A901FA0180819181F601E80FF91F74
:1052B000E60FF71F2585233229F7F501EE0FFF1FB3
:1052C000EE0DFF1DE75BFF4F0190F081E02D2AE717
:1052D00032E0E20EF31ED7018D919C9126E83DEF5E
:1052E000E20EF31EE80FF91F83E2858BD501AA0FAA
:1052F000BB1FAE0DBF1DA75BBF4F2D913C911197FA
:10530000F6018085F90183AB14AAF6018185F901C4
:1053100082ABED91FC9182A98150823018F481E03A
:1053200083A701C013A66130710571F4F501EE0F7A
:10533000FF1FEE0DFF1DE75BFF4F0190F081E02D99
:10534000D6011B968C9182AFAA0CBB1CAE0CBF1C65
:10535000E9E4F0E0AE0EBF1ED501ED91FC9181E0D5
:1053600083AFF60193849A94F4E0F91508F04AC3E8
:1053700061C28250843008F045C321E832E0E20E79
:10538000F31ED7018C912FE73DEFE20EF31E882329
:1053900009F066C1D6011B968C918083F2010081D1
:1053A00011810E941102D801D5966D937D938D9342
:1053B0009C93D89740E050E0F6018585833211F444
:1053C00041E050E0D501AA0FBB1FAE0DBF1DA75B8A
:1053D000BF4F2D913C911197B601640F751FFB01D2
:1053E0008585F90181A7970126583D4FF901118262
:1053F00010820D911C911197F80181A5813089F0DF
:10540000813020F0823009F089C063C0FB018685BD
:10541000F801838BED91FC91DB011F968C91848BBD
:105420007DC0F901118210824901BD0114C0FB0148
:10543000008111810A0F1B1FAC0DBD1DA40FB51FEC
:105440001E968C91D8011B968C93F40180819181DA
:10545000019691838083F401A081B181A430B105CC
:1054600030F3D9011D921C92970126583D4FB5018A
:10547000660F771F6E0D7F1D675B7F4F14C0FB01AA
:10548000008111810A0F1B1FAC0DBD1DA40FB51F9C
:1054900052968C91D8011F968C93F901808191814D
:1054A000019691838083F901A081B181A430B10577
:1054B00030F334C0ED91FC911197E80FF91F258B63
:1054C000FB0180819181019691838083459710F043
:1054D0000CC0B901FB0180819181F601E80FF91F31
:1054E000E40FF51F2685233229F7F501EE0FFF1F84
:1054F000EE0DFF1DE75BFF4F0190F081E02D2AE7E5
:1055000032E0E20EF31ED7018D919C9126E83DEF2B
:10551000E20EF31EE80FF91F83E2858B413051053F
:1055200071F4F501EE0FFF1FEE0DFF1DE75BFF4F5E
:105530000190F081E02DD6011C968C9182AFD501AF
:10554000AA0FBB1FAE0DBF1DA75BBF4FED91FC9116
:10555000119781E083AFF60194849A94F4E0F915F1
:1055600008F468C1970126583D4FF9011182108255
:105570008901AD0111C0FA01608171816A0F7B1F41
:10558000AC0DBD1D8C91DB0115968C93F8018081CB
:105590009181019691838083F801A081B181A4302B
:1055A000B10548F3D9011D921C92970126583D4F31
:1055B000A501440F551F4E0D5F1D475B5F4F12C085
:1055C000FA01608171816A0F7B1FAC0DBD1D1496BD
:1055D0008C91DB0111968C93F90180819181019668
:1055E00091838083F901A081B181A430B10540F39A
:1055F00011821082970126583D4FA501440F551F77
:10560000D701A40FB51FA75BBF4F11C06D917C914F
:105610001197680F791F8C0D9D1DFC018085FB0182
:105620008187F90180819181019691838083F901BD
:10563000808191818230910548F3D701A40FB51F75
:10564000A75BBF4FED91FC91119713A62D913C9153
:105650001197F6018285F90182ABED91FC91CDC1E4
:10566000823009F0CFC1D60151968C918083F2012E
:10567000008111810E941102D801D5966D937D930E
:105680008D939C93D89740E050E0F6018389833254
:1056900011F441E050E0D501AA0FBB1FAE0DBF1DB4
:1056A000A75BBF4F2D913C911197B601640F751FF9
:1056B000FB018389F90181A7970126583D4FF90124
:1056C000118210820D911C911197F80181A58130F2
:1056D00089F0813020F0823009F089C063C0FB017D
:1056E0008489F801838BED91FC91DB0155968C91B7
:1056F000848B7DC0F901118210824901BD0114C063
:10570000FB01008111810A0F1B1FAC0DBD1DA40FF1
:10571000B51F54968C91D8011B968C93F40180810F
:105720009181019691838083F401A081B181A4309D
:10573000B10530F3D9011D921C92970126583D4FB7
:10574000B501660F771F6E0D7F1D675B7F4F14C01D
:10575000FB01008111810A0F1B1FAC0DBD1DA40FA1
:10576000B51F58968C91D8011F968C93F9018081B2
:105770009181019691838083F901A081B181A43048
:10578000B10530F334C0ED91FC911197E80FF91F8A
:10579000258BFB01808191810196918380834597C0
:1057A00010F00CC0B901FB0180819181F601E80F76
:1057B000F91FE40FF51F2489233229F7F501EE0FB5
:1057C000FF1FEE0DFF1DE75BFF4F0190F081E02D05
:1057D0002AE732E0E20EF31ED7018D919C9126E874
:1057E0003DEFE20EF31EE80FF91F83E2858B413097
:1057F000510571F4F501EE0FFF1FEE0DFF1DE75B84
:10580000FF4F0190F081E02DD60152968C9182AF2E
:10581000D501AA0FBB1FAE0DBF1DA75BBF4FED91FA
:10582000FC91119781E083AFF60192889A94F4E09D
:10583000F91518F4C701672D2BC5970126583D4F60
:10584000F901118210828901AD0111C0FA01608154
:1058500071816A0F7B1FAC0DBD1D8C91DB0115960C
:105860008C93F80180819181019691838083F80166
:10587000A081B181A430B10548F3D9011D921C92D9
:10588000970126583D4FA501440F551F4E0D5F1D32
:10589000475B5F4F12C0FA01608171816A0F7B1F05
:1058A000AC0DBD1D14968C91DB0111968C93F90102
:1058B00080819181019691838083F901A081B181DA
:1058C000A430B10540F311821082970126583D4F54
:1058D000A501440F551FB701640F751F675B7F4F0C
:1058E00012C0FB01008111810A0F1B1FAC0DBD1DF1
:1058F00018968C91D80119968C93F9018081918129
:10590000019691838083F901A081B181A230B10514
:1059100040F3F701E40FF51FE75BFF4FA081B18172
:1059200082E09B968C9340815181D6011A968C918E
:10593000DA019C968C930190F081E02DD6011B96A4
:105940008C9185A7F90111821082970126583D4F4D
:10595000A501440F551F4E0D5F1D475B5F4F12C0E1
:10596000FA01608171816A0F7B1FAC0DBD1D1C9611
:105970008C91DB019E968C93F90180819181019637
:1059800091838083F901A081B181A230B10540F3F8
:1059900011821082970126583D4FA501440F551FD3
:1059A000D701A40FB51FA75BBF4F11C06D917C91AC
:1059B0001197680F791F8C0D9D1DFC018685FB01D9
:1059C00080ABF90180819181019691838083F901F7
:1059D000808191818230910548F3F701E40FF51F32
:1059E000E75BFF4F20813181D60150968C91D90120
:1059F000D2968C930190F081E02D82A9823011F42F
:105A000081E083A7072D10E0A92CBB2481E090E062
:105A100068E670E00E948461AC01F801EE0FFF1FA0
:105A2000EE0FFF1FE00FF11FEA0DFB1D3B96EE0F7F
:105A3000FF1FEE0DFF1D518340834115510521F4D9
:105A4000C7010E94312126C422E432E0E20EF31E97
:105A5000D7019C912EEB3DEFE20EF31E913009F041
:105A6000A2C1A0E8B2E0EA0EFB1ED7018C9120E8AB
:105A70003DEFE20EF31E882309F0BCC04A595F4F88
:105A8000D60115968C91DA018C93D60116968C91DD
:105A90000190F081E02D833221F4E959FF4F90838A
:105AA00003C0E959FF4F1082F801EE0FFF1FEE0F00
:105AB000FF1FE00FF11FEA0DFB1D3B96EE0FFF1FCE
:105AC000EE0DFF1D0190F081E02DE959FF4F60813F
:105AD000862E9924D701A658BD4F11961C921E926E
