:100000000C94CC000C9456790C9487790C94B879A4
:100010000C94E9790C941A7A0C944B7A0C947C7AAF
:100020000C94AD7A0C94F6000C94F6000C94F60047
:100030000C942F030C94F6000C94F6000C94DF0142
:100040000C94F6000C94F6000C94F6000C94F60058
:100050000C94F6000C94F6000C94F6000C94BA0183
:100060000C94F6000C940E7F0C94F6000C94F600A1
:100070000C94F6000C94F6000C94F6000C94F60028
:100080000C94F6000C94F6000C94F6000C94F60018
:100090000C944F7F0C94F6000C94F6000C945F7750
:1000A0000C94F6000C94F6000C94F6000C94F600F8
:1000B0000C94F6000C94F6000C94F6000C94F600E8
:1000C0000C94F6000C94F6000C94F6000021242702
:1000D0002A2D3033002225282B2E313400202326D0
:1000E000292C2F3205050505030303030101010433
:1000F00004030606060606060606010405010501B8
:1001000003020202020202010202050504040304C2
:1001100004010304070707010208101020408004AF
:1001200008102040020204081020408001028020B4
:100130004004200101020408102001408040800199
:1001400002080408800410040201000008090000ED
:10015000000000000000000000000000000000009F
:10016000000000000000000000000000000000008F
:1001700000000000000000000000000000001B0460
:100180002307A50CCA0E5A130B14F01ED927DE271D
:10019000C529072A6C752C7611241FBECFEFD1E23A
:1001A000DEBFCDBF11E1A0E0B2E0E6E4F9E101E09D
:1001B0000BBF02C007900D92A834B107D9F71AE11E
:1001C000A8E4B1E101C01D92AE3CB107E1F711E036
:1001D000C8E9D1E004C02297FE010E94AD85CE3768
:1001E000D107C9F70E94B3010C94A18C0C940000B4
:1001F000CF93DF938DEE92E160E072E00E94492898
:100200008DEE92E164E172E00E9443280E94DD06D7
:10021000BC018DEE92E10E9433288DEE92E162E204
:1002200072E00E94432860913617709137178DEE67
:1002300092E10E943328609136177091371783E45A
:1002400092E10E94B90FC82FD0E0209759F08DEEAF
:1002500092E16FE272E00E9443288DEE92E1BE01CE
:100260000E9433288AE591E161E070E00E94F60582
:10027000C82FD0E0209759F08DEE92E164E672E04D
:100280000E9443288DEE92E1BE010E9433284091E6
:100290003617509137178EEB91E161E571E10E94BD
:1002A0001D0BC82FD0E0209759F08DEE92E164E944
:1002B00072E00E9443288DEE92E1BE010E94332835
:1002C0008AE591E161E070E00E94B204C82FD0E0BD
:1002D000209759F08DEE92E168EC72E00E9443287D
:1002E0008DEE92E1BE010E943328DF91CF910895F7
:1002F000EF92FF920F931F938DEE92E10E94572889
:100300008DEE92E16FEE72E00E9449280E94DD06B8
:10031000BC018DEE92E10E9433288AE591E168E00C
:1003200071E141E050E020E030E003E010E0ECEF6C
:10033000EE2EE2E0FE2E0E944506882331F08DEE7F
:1003400092E162E073E00E94492883EA92E10E9410
:100350006B19BC018DEE92E10E9449281F910F910B
:10036000FF90EF9008950E9472020E9478010E940F
:10037000F800FDCF1F920F920FB60F9211248F93AA
:100380009F93AF93BF938091421890914318A0918F
:100390004418B09145180196A11DB11D80934218D3
:1003A00090934318A0934418B0934518BF91AF9110
:1003B0009F918F910F900FBE0F901F9018951F92D5
:1003C0000F920FB60F9211248F939F93AF93BF9309
:1003D0008091461890914718A0914818B0914918FB
:1003E0000196A11DB11D8093461890934718A093C4
:1003F0004818B0934918BF91AF919F918F910F907A
:100400000FBE0F901F90189560914218709143187D
:10041000809144189091451827E0660F771F881F38
:10042000991F2A95D1F72EE330E040E050E00E947A
:100430006E85CA01B9010895AF92BF92CF92DF9243
:10044000EF92FF920F931F935B016C016091421832
:1004500070914318809144189091451847E0660FB9
:10046000771F881F991F4A95D1F72EE330E040E0AF
:1004700050E00E946E8579018A0160914218709166
:100480004318809144189091451837E0660F771F04
:10049000881F991F3A95D1F72EE330E040E050E0F5
:1004A0000E946E852E193F09400B510B2A153B0502
:1004B0004C055D0510F31F910F91FF90EF90DF90B9
:1004C000CF90BF90AF900895019759F0019749F0F0
:1004D000FC01EE0FFF1F31978FB7F8943197F1F7BA
:1004E0008FBF0895789484B7877F84BF1092421895
:1004F00010924318109244181092451884B58260E7
:1005000084BD84B5816084BD85B5826085BD85B5B7
:10051000816085BDEEE6F0E0808181608083E1E866
:10052000F0E0808182608083808181608083E0E868
:10053000F0E0808181608083E1EBF0E08081846085
:100540008083E1E9F0E0808184608083E0EBF0E08B
:10055000808181608083E0E9F0E080818160808338
:10056000E4E6F0E080818E7F8083ECE7F0E080813C
:100570008F778083808180648083EAE7F0E08081E8
:1005800084608083808182608083808180688083B2
:100590001092C1001092C900089590915911982BA2
:1005A0009093591180FF32C0809164008E7F8093B8
:1005B000640080917C008F7780937C0080917C0028
:1005C000806480937C0080917A00846080937A00BC
:1005D00080917A00826080937A0080917A008068AE
:1005E00080937A00809164008F778093640080917B
:1005F00064008B7F80936400809164008D7F809382
:100600006400809165008E7F809365000895282F97
:1006100020959091591192239093591180FF1EC0FB
:1006200080917A008F7780937A0080916400816056
:10063000809364008091640080688093640080915E
:100640006400846080936400809164008260809381
:1006500064008091650081608093650008951F9219
:100660000F920FB60F920BB60F9211242F933F9358
:100670004F935F936F937F938F939F93AF93BF93AA
:10068000EF93FF93F89481E080931011E0E6F0E09F
:1006900080818068808380818F7B808383E060E0BD
:1006A0000E9484037894FF91EF91BF91AF919F9145
:1006B0008F917F916F915F914F913F912F910F900B
:1006C0000BBE0F900FBE0F901F901895282F30E093
:1006D000C901895E9E4FFC0194912C513F4FF90155
:1006E0008491882381F0E82FF0E0E453FF4FE491F8
:1006F000F0E0662329F48081909589238083089512
:100700008081892B80830895482F50E0CA01865B41
:100710009E4FFC012491CA01895E9E4FFC01949179
:100720004C515F4FFA0134913323C1F1222331F14F
:10073000233021F4809180008F7705C0243031F47C
:10074000809180008F7D8093800018C0213019F443
:1007500084B58F7704C0223021F484B58F7D84BDA9
:100760000DC0263021F48091B0008F7705C027306E
:1007700029F48091B0008F7D8093B000E32FF0E0EA
:10078000EC52FF4FE491F0E0662329F480819095CC
:100790008923808308958081892B80830895482F41
:1007A00050E0CA01865B9E4FFC012491CA01895E1C
:1007B0009E4FFC0194914C515F4FFA0134913323C9
:1007C00019F420E030E035C0222331F1233021F448
:1007D000809180008F7705C0243031F480918000B3
:1007E0008F7D8093800018C0213019F484B58F77F5
:1007F00004C0223021F484B58F7D84BD0DC0263025
:1008000021F48091B0008F7705C0273029F48091C2
:10081000B0008F7D8093B000E32FF0E0E452FF4FF3
:10082000E491F0E0808120E030E0892311F021E0C4
:1008300030E0C90108950895BF92CF92DF92EF9200
:10084000FF920F931F937B01B42E890181E090E00A
:1008500064EB70E00E94B1856C01FC0110868AE7B0
:1008600090E0C80ED91EF601108282E090E0C80E1A
:10087000D91EF601B08212926F0185E89FEFC80E73
:10088000D91E1092A51582E394E1B60140E00E94C2
:10089000C85F82E394E1B601A701980101E0EE246C
:1008A0000E94C36082E394E1B6010E940B54109150
:1008B0000E16C6010E947A86812F1F910F91FF901C
:1008C000EF90DF90CF90BF900895CF92DF92EF929C
:1008D0000F931F938A0181E090E064EB70E00E9427
:1008E000B1856C01FC0110868AE790E0C80ED91E24
:1008F000F601108282E090E0C80ED91E8CE0F6016D
:10090000808312926F0185E89FEFC80ED91E109266
:10091000A5158DEE92E164E373E00E94492882E31D
:1009200094E1B6014FE353E020E00E949C5E82E335
:1009300094E1B60144E453E0980101E0EE240E9402
:10094000CE5F82E394E1B6010E940B5410910E1623
:10095000C6010E947A86812F1F910F91EF90DF9040
:10096000CF9008956F927F928F929F92AF92BF9295
:10097000CF92DF92FF920F931F93CF93DF933C01AF
:100980004B010E9404025B016C018DEE92E165E572
:1009900073E00E9449288EE294E10E94632A882332
:1009A00009F4DAC082E394E10E94596A80910D163D
:1009B000882309F0D1C011E0FF24C5C0DF01A20FD8
:1009C000B31F1C969C911C979F3F61F41D968C91C0
:1009D0008E3F41F4211B3109E20FF31F14864F5F54
:1009E0001F5F05C0211B3109E20FF31F94874F5F82
:1009F000E0919114F0E0EE0FFF1FEC57FB4E0190D9
:100A0000F081E02D242F30E0E059FF4F808191816B
:100A1000E057F0402817390788F28DEE92E164E73D
:100A200073E00E944328C0E0D0E0012F10E00FC027
:100A3000EC0FFD1F6485F301EC0FFD1F608377272A
:100A400067FD70958DEE92E10E942B282196E09132
:100A50009114F0E0EE0FFF1FEC57FB4E0190F08178
:100A6000E02DE059FF4F80819181E057F040801BDD
:100A7000910BC817D907E0F28DEE92E162E373E0C3
:100A80000E9443288DEE92E16CE773E00E944328B8
:100A9000E0919114F0E0EE0FFF1FEC57FB4E019038
:100AA000F081E02DE458FF4F60818DEE92E170E01F
:100AB0000E943328E0919114F0E0EE0FFF1FEC57F5
:100AC000FB4EA081B181A458BF4F8C91AC57B04070
:100AD000E82FF0E080E090E020E08E179F0709F417
:100AE00021E001968C309105C1F7222369F0EE0FC9
:100AF000FF1FE55EFE4E0190F081E02DCD010995CE
:100B0000182FFF24F39407C08DEE92E160E973E0A3
:100B10000E94492811E0E0919114F0E0EE0FFF1FD0
:100B2000EC57FB4E808191810E947A8680919114CE
:100B3000E82FF0E0EE0FFF1FEC57FB4E1182108202
:100B400081508093911480919114882339F0FF2073
:100B500029F410E040E04CCF11E0FF2421E08216A0
:100B6000910439F58091481190914911A0914A1151
:100B7000B0914B1184FF28C0809148119091491188
:100B8000A0914A11B0914B118F7E809348119093A0
:100B90004911A0934A11B0934B1182E394E10E9452
:100BA000C3758DEE92E162EA73E00E94432810E083
:100BB0000EC00E9404026A197B098C099D096054C9
:100BC0007F418040904018F4FF2009F4E4CE812F4B
:100BD000DF91CF911F910F91FF90DF90CF90BF9049
:100BE000AF909F908F907F906F900895EF92FF92BB
:100BF0000F931F93CF93DF93EB010E9404027B01BD
:100C00008C0106C060E777E180E090E00E941C0262
:100C100082E394E10E94166C80910C17882379F18D
:100C20000E9404026E197F09800B910B60527E4472
:100C30008040904020F5209759F7E4CF82E394E17B
:100C40000E94366C80910017882341F48DEE92E16A
:100C500068E075E00E94492881E00AC082E394E1DF
:100C600060E00E94BA6C82E394E10E94305880E018
:100C7000DF91CF911F910F91FF90EF900895809198
:100C80000C178823D9F282E0F3CF6F927F928F9274
:100C90009F92AF92BF92CF92DF92EF92FF920F930B
:100CA0001F934C016B015A01390182E394E162E028
:100CB00041E021E00E94D06D82E394E10E94DA6B72
:100CC00082E394E10E948B6B68EE73E080E090E039
:100CD0000E941C0282E394E1B6010E94A95682E3BD
:100CE00094E16FE34FEF0E94A95782E394E163E040
:100CF0000E94785982E394E161E00E94BA6C82E339
:100D000094E1B7010E94055082E394E1B5010E948D
:100D1000956E82E394E10E94305882E394E10E9450
:100D2000B96B68EB7BE080E090E00E941C0282E3FC
:100D300094E10E94DA6B82E394E10E948B6BC40120
:100D400060E070E00E94F605F82E83EA92E10E94CE
:100D5000BB1983EA92E160E140E00E9477198EE2DC
:100D600092E166E275E00E947F0E82E394E1B301B6
:100D70000E94D66DAB2869F410935E1700935D173F
:100D800060913A1770913B178EE292E10E94380E03
:100D900004C082E394E10E94C3758F2DF11081E0BD
:100DA0001F910F91FF90EF90DF90CF90BF90AF9089
:100DB0009F908F907F906F900895DF93CF9300D096
:100DC000CDB7DEB72091CA1A3091CB1ACE01019669
:100DD0002115310519F48E5C9A4102C0821B930BD8
:100DE0009A83898389819A810F900F90CF91DF91A7
:100DF0000895CF93DF93EC01DB0190E030E05FEFEB
:100E00004EEF18C0FE01E30FF11D2485E92FF0E03D
:100E1000892F8F5F222349F4EA0FFB1F5083FD01C6
:100E2000E80FF11D40839E5F04C0EA0FFB1F208383
:100E3000982F3F5F8B85381728F3A90FB11D1C929F
:100E4000DF91CF9108950895FF920F931F9381E052
:100E50008093C91186E08093CA1182E090E061E03E
:100E600070E00E94B185182F092F8EEB91E1612F60
:100E7000702F0E94F9068AE591E169E277E14CE082
:100E8000212F302F0E941C04F82E812F902F0E94BA
:100E90007A868F2D1F910F91FF900895FF920F93E7
:100EA0001F9381E08093C91185E08093CA1182E08D
:100EB00090E061E070E00E94B185182F092F8EEB61
:100EC00091E1612F702F0E94F9068AE591E169E2B4
:100ED00077E14CE0212F302F0E941C04F82E812F47
:100EE000902F0E947A868F2D1F910F91FF90089569
:100EF000FF920F931F9381E08093C91184E0809348
:100F0000CA1182E090E061E070E00E94B185182F84
:100F1000092F8EEB91E1612F702F0E94F9068AE56F
:100F200091E169E277E14CE0212F302F0E941C040F
:100F3000F82E812F902F0E947A868F2D1F910F916E
:100F4000FF900895FF920F931F9381E08093C91142
:100F500083E08093CA1182E090E061E070E00E943B
:100F6000B185182F092F8EEB91E1612F702F0E9410
:100F7000F9068AE591E169E277E14CE0212F302F13
:100F80000E941C04F82E812F902F0E947A868F2DAC
:100F90001F910F91FF900895FF920F931F9381E08F
:100FA0008093C91182E08093CA1182E090E061E0F1
:100FB00070E00E94B185182F092F8EEB91E1612F0F
:100FC000702F0E94F9068AE591E169E277E14CE031
:100FD000212F302F0E941C04F82E812F902F0E9469
:100FE0007A868F2D1F910F91FF900895FF920F9396
:100FF0001F9382E08093C911909133178091341729
:101000008093CA119093CB1183E090E061E070E08F
:101010000E94B185182F092F8EEB91E1612F702F5F
:101020000E94F9068AE591E169E277E144E0212F27
:10103000302F0E941C04F82E812F902F0E947A8658
:101040008F2D1F910F91FF900895FF920F931F9383
:1010500081E08093C9118093CA1182E090E061E041
:1010600070E00E94B185182F092F8EEB91E1612F5E
:10107000702F0E94F9068AE591E169E277E14CE080
:10108000212F302F0E941C04F82E812F902F0E94B8
:101090007A868F2D1F910F91FF900895FF920F93E5
:1010A0001F9381E08093C9111092CA1182E090E0F1
:1010B00061E070E00E94B185182F092F8EEB91E15D
:1010C000612F702F0E94F9068AE591E169E277E1CC
:1010D0004CE0212F302F0E941C04F82E812F902FDE
:1010E0000E947A868F2D1F910F91FF900895BF92D5
:1010F000CF92DF92EF92FF920F931F938C016B01BF
:10110000B42E82E0F80183873487258785E090E05C
:1011100061E070E00E94B185F82EE92EC8016F2DC4
:101120007E2D0E94F9068AE591E1B6014B2D2F2D07
:101130003E2D0E941C04182F8F2D9E2D0E947A8612
:10114000812F1F910F91FF90EF90DF90CF90BF9074
:101150000895EF92FF920F931F938C0184E690E025
:1011600061E070E00E94B185F92E282F392FE82E1A
:1011700000591F4FD8014D915C9100571040D80184
:10118000C901FC01480F591F04C01B968C911B9785
:1011900081931196E417F507C1F70AEC11E184E693
:1011A000F80111928A95E9F78DB79EB708970FB6A7
:1011B000F8949EBF0FBE8DBFEDB7FEB73196ADB7A9
:1011C000BEB712961C930E9311978BE395E0938311
:1011D00082838DE595E195838483E682F7820E9480
:1011E000B489EDB7FEB738960FB6F894FEBF0FBEC0
:1011F000EDBF8AE591E169E277E1A8010E9465040B
:10120000C7010E947A861F910F91FF90EF90089579
:10121000FF920F931F93CF93DF93FC010485F58416
:10122000EF57FF4F81918093C11181918093C2113B
:1012300081918093C3118081E458F0408093C41160
:10124000DF01A358BF4FC5ECD1E18D91899381E1B6
:10125000C93CD807D1F73C9682E394E1BF010E94D4
:10126000F573182F8DEE92E160E775E00E94432838
:101270008DEE92E1612F70E00E943328112301F17D
:101280008BE08093CA1182E090E061E070E00E9400
:10129000B185182F092FCE010B97612F702F0E9457
:1012A000F9068AE591E169E277E14CE0212F302FE0
:1012B0000E941C04F82E812F902F0E947A8615C060
:1012C000202F332727FD3095322F22278F2D992766
:1012D00087FD9095280F391FCE010B97BE016850EE
:1012E000704048E00E947708F82E8F2DDF91CF9153
:1012F0001F910F91FF900895FF920F931F938C0100
:101300008EE292E10E946A0EC8010C960E94766EEF
:10131000BC0182E394E10E9447718823F9F4909123
:101320003A1780913B178093CA119093CB1182E0BA
:101330008093C91183E090E061E070E00E94B18584
:10134000182F092F8EEB91E1612F702F0E94F90663
:101350008AE591E169E277E146E019C081E0809396
:10136000C91187E08093CA1182E090E061E070E0EB
:101370000E94B185182F092F8EEB91E1612F702FFC
:101380000E94F9068AE591E169E277E14CE0212FBC
:10139000302F0E941C04F82E812F902F0E947A86F5
:1013A0008F2D1F910F91FF900895EF92FF920F9351
:1013B0001F930CE0E02EF12CE80EF91E02E314E17D
:1013C000C801B7010E947175C801B7010E949A75E2
:1013D00082E08093C91190913317809134178093E4
:1013E000CA119093CB1183E090E061E070E00E941D
:1013F000B185182F092F8EEB91E1612F702F0E947C
:10140000F9068AE591E169E277E142E0212F302F88
:101410000E941C04F82E812F902F0E947A868F2D17
:101420001F910F91FF90EF900895EF92FF920F930D
:101430001F937C018B018DEE92E166E975E00E94BD
:1014400049284091771250917812609179127091E9
:101450007A1283E492E120E130E00E94540FF70118
:101460009081F801E90FF11D20917B1220839F5F8D
:10147000F7019083090F111D20917C12F801208340
:101480009F5FF70190839091C9119E5F9093C9115E
:101490001F910F91FF90EF900895EF92FF920F939D
:1014A0001F937C018B018DEE92E16FE975E00E9444
:1014B0004928609174127091751280E090E00E944A
:1014C0000384AB01BC0183E492E128E030E00E9498
:1014D000540FF7019081090F111D20917612F80128
:1014E00020839F5FF70190839091C9119F5F909334
:1014F000C9111F910F91FF90EF900895EF92FF9205
:101500000F931F937C018B018DEE92E168EA75E0E9
:101510000E94492840916E1250916F126091701292
:101520007091711283E492E124E030E00E94540F44
:10153000F7019081F801E90FF11D209172122083CB
:101540009F5FF7019083090F111D20917312F8011D
:1015500020839F5FF70190839091C9119E5F9093C4
:10156000C9111F910F91FF90EF900895EF92FF9294
:101570000F931F937C018B018DEE92E162EB75E07E
:101580000E9449284091691250916A1260916B1231
:1015900070916C1283E492E122E030E00E94540FDB
:1015A000F7019081090F111D20916D12F801208320
:1015B0009F5FF70190839091C9119F5F9093C9112C
:1015C0001F910F91FF90EF900895EF92FF920F936C
:1015D0001F937C018B018DEE92E16BEB75E00E9415
:1015E0004928409163125091641260916512709184
:1015F000661283E492E121E030E00E94540FF7018B
:101600009081F801E90FF11D2091671220839F5FFF
:10161000F7019083090F111D20916812F8012083B2
:101620009F5FF70190839091C9119E5F9093C911BC
:101630001F910F91FF90EF9008954F925F926F92DC
:101640007F928F929F92AF92BF92CF92DF92EF9252
:10165000FF920F931F93DF93CF930F92CDB7DEB717
:101660005C012B016A0182E08983D5011B968C9372
:101670008DEE92E165EC75E00E9443280E94DD0644
:10168000BC018DEE92E10E943328F501D486C58617
:101690005CE0852E912C8A0C9B1C01E111E122E07B
:1016A00041E0E42EF12C3E010894611C711CC7013D
:1016B0008C219D21892B39F0D801ED91FC91C3013A
:1016C000B401099520E00E5F1F4FB1E101331B0704
:1016D00019F0EE0CFF1CEBCF223009F449C0222395
:1016E00009F046C08DEE92E165EC75E00E9443285A
:1016F0000E94DD06BC018DEE92E10E943328F501C7
:10170000838590E0880F991F019661E070E00E9448
:10171000B185182F092F8DEE92E165EC75E00E94DE
:1017200043280E94DD06BC018DEE92E10E94332821
:10173000C501612F702F0E94F9068AE591E1B2017F
:101740004AE0212F302F0E941C04F82E812F902F69
:101750000E947A868DEE92E165EC75E00E94432846
:101760000E94DD06BC018DEE92E10E94332802C08A
:10177000FF24F3948F2D0F90CF91DF911F910F9144
:10178000FF90EF90DF90CF90BF90AF909F908F90A1
:101790007F906F905F904F9008950F931F93CF931A
:1017A000DF93FC01EF57FF4F81918093C11181912D
:1017B0008093C21181918093C3118081E458F040DD
:1017C0008093C411EF01C358DF4FA5ECB1E18991BB
:1017D0008D9381E1A93CB807D1F78485992787FDCE
:1017E0009095782F66278585992787FD9095680FB6
:1017F000791F7093C0116093BF11A0913517E091CC
:101800003317F091341740E021E030E051E00EC092
:10181000C9018E239F23892B31F4C9018623972385
:10182000892B09F050E0220F331F4F5F4A1780F3D6
:10183000552351F48AE591E169E277E143ED55E002
:101840000E94650481E055C083E492E10E94B90FD3
:10185000882319F54091BF115091C0118EEB91E191
:1018600061EC71E10E941D0B882309F442C00AEC6F
:1018700011E184E6D8011D928A95E9F700D000D0E5
:1018800000D0EDB7FEB73196ADB7BEB712961C9338
:101890000E93119783E196E015C00AEC11E184E6FE
:1018A000D8011D928A95E9F700D000D000D0EDB79D
:1018B000FEB73196ADB7BEB712961C930E93119733
:1018C00080E496E0938382838DE595E1958384831C
:1018D0000E94B489EDB7FEB736960FB6F894FEBFF6
:1018E0000FBEEDBF8AE591E169E277E1A8010E94B0
:1018F0006504DF91CF911F910F910895FC01118232
:1019000010828091BB126AE00E943B8590E0918337
:1019100080832091BA1246E0249F90011124280F61
:10192000391F318320838091B91290E048E651E05D
:10193000BC01649FC001659F900D749F900D1124A0
:10194000280F391F3183208308951092311210928D
:1019500030120895CF92DF92EF92FF920F931F9370
:10196000DF93CF93CDB7DEB72C970FB6F894DEBFD9
:101970000FBECDBF8B016901DE011196EEE3F1E1EF
:1019800083E001900D928150E1F7DE011496EBE3C4
:10199000F1E183E001900D928150E1F7DE011796AD
:1019A000E8E3F1E183E001900D928150E1F7DE017F
:1019B0001A96E5E3F1E183E001900D928150E1F7A1
:1019C00081E2003C180750F1C80160EC71E20E940E
:1019D0004785462FC80160EC71E20E9447858C0163
:1019E00000D000D000D0EDB7FEB73196CE01019601
:1019F000ADB7BEB712969C938E93119784E796E08D
:101A000093838283448315820E94B4898DB79EB7E5
:101A100006960FB6F8949EBF0FBE8DBF91E00836B4
:101A20001907D8F1C80168E671E00E944785462F82
:101A3000C80168E671E00E9447858C01CE010496DA
:101A40004A3078F000D000D000D0EDB7FEB7319624
:101A5000ADB7BEB712969C938E93119788E796E028
:101A60000EC000D000D000D0EDB7FEB73196ADB7B4
:101A7000BEB712969C938E93119784E796E093835A
:101A80008283448315820E94B4898DB79EB70696DF
:101A90000FB6F8949EBF0FBE8DBF0630110508F437
:101AA00040C0C80166E070E00E944785262FC8014B
:101AB00066E070E00E9447857C018C01CE010796AC
:101AC0002A3078F000D000D000D0EDB7FEB73196C4
:101AD000ADB7BEB712969C938E93119788E796E0A8
:101AE0000EC000D000D000D0EDB7FEB73196ADB734
:101AF000BEB712969C938E93119784E796E09383DA
:101B00008283248315820E94B4898DB79EB706967E
:101B10000FB6F8949EBF0FBE8DBF96E0E916F10494
:101B200058F50115110541F100D000D000D0EDB7F6
:101B3000FEB73196CE010A96ADB7BEB712969C930A
:101B40008E93119788E796E093838283C80133E0F0
:101B5000880F991F3A95E1F7000F111F800F911F11
:101B6000848315820E94B4898DB79EB706960FB6FE
:101B7000F8949EBF0FBE8DBFADB7BEB71C970FB612
:101B8000F894BEBF0FBEADBFEDB7FEB7319612964B
:101B9000DC92CE9211978BE796E093838283CE01FD
:101BA000019695838483CE01049697838683CE0124
:101BB000079691878087CE010A96938782870E9435
:101BC000B4898DB79EB70C960FB6F8949EBF0FBE22
:101BD0008DBF80E02C960FB6F894DEBF0FBECDBF50
:101BE000CF91DF911F910F91FF90EF90DF90CF90F9
:101BF00008950F931F93CF93DF93FC01EB0141E214
:101C0000603C7407B8F0CB0160EC71E20E9447853C
:101C1000262F30E080E49EEDAC01249FC001259F7B
:101C2000900D349F900D1124C80FD91F8091BC12C4
:101C3000860F02C08091BC128087608171816C0F19
:101C40007D1F778366838F01075F1F4FCF0140851C
:101C500098010E94AA0C83EA92E1B80140E021E0D9
:101C60000E94D41880E0DF91CF911F910F910895C9
:101C7000CF93DF93FC01EB0141E2603C7407B8F0C5
:101C8000CB0160EC71E20E944785262F30E080E4B2
:101C90009EEDAC01249FC001259F900D349F900DB7
:101CA0001124C80FD91F8091BC12860F02C08091E9
:101CB000BC128087608171816C0F7D1F7783668382
:101CC000CF01408539969F010E94AA0C80E0DF91E8
:101CD000CF910895EF92FF920F931F937C0103EA37
:101CE00012E1C8010E946B19C7010E947E0CC80155
:101CF0000E946B191F910F91FF90EF9008950F9321
:101D00001F938C0183EA92E10E94DE16C8010E94B3
:101D10006A0E1F910F910895FC011382128280EDCB
:101D200092E191838083178216828AE792E19583FC
:101D300084831386128684E292E1918780871786D6
:101D4000168686E293E195878487138A128A80EA51
:101D500091E1918B808B178A168A8FE391E1958BA5
:101D6000848B138E128E85ED90E1918F808F178E6C
:101D7000168E84E890E1958F848FEA5BFF4F20E018
:101D800080913A1790913B17819391932F5F283060
:101D9000B9F7089583E492E10E948C0E0895AF9202
:101DA000BF92CF92DF92EF92FF921F93CF93DF9378
:101DB00036E4C32ED12CC80ED91E21E0A22EB12CA0
:101DC00096EDE92E97E0F92E80913617909137170E
:101DD0008A219B21892BB1F0B701615070408EEEB2
:101DE00092E10E94CB29182F8EEE92E1B7010E945A
:101DF000CB29D82FC0E0CE01810F911DF601918330
:101E0000808303C0F6011182108282E090E0E80E28
:101E1000F91EC80ED91E98EFE91697E0F90619F0D9
:101E2000AA0CBB1CD1CFDF91CF911F91FF90EF90F7
:101E3000DF90CF90BF90AF900895EF92FF920F93F5
:101E40001F93CF93DF938C010A5B1F4F51E0E52E68
:101E5000F12CC6EDD7E080913617909137178E217F
:101E60009F21892B81F0BE016150704082E394E193
:101E7000F80140810E94B06EF801418182E394E153
:101E8000BE010E94B06E22960E5F1F4FF7E0C83F62
:101E9000DF0719F0EE0CFF1CDECFDF91CF911F9111
:101EA0000F91FF90EF900895CF93DF93EC012430D2
:101EB000310561F12530310544F42130310569F0F7
:101EC0002230310509F04BC01BC02830310589F1A3
:101ED0002031310509F043C033C0CB01BA0120E005
:101EE00030E040E252E40E94078320E030E048EC1A
:101EF00052E40E94B9840E94D7837CA36DA326C0BC
:101F0000CB01BA010E94D7836AA718C0CB01BA01DE
:101F100020E030E048EC52E40E94B98420E030E553
:101F200043E457E40E9406830E94D7837FA768ABEF
:101F30000DC0CB01BA010E94D7836BAB80E016C005
:101F4000CB01BA010E94D78378AF69AF80E0372F09
:101F500020E0260F311D6217730739F407C08DEE9C
:101F600092E16BEA76E00E94492881E0DF91CF910F
:101F70000895AF92BF92DF92EF92FF920F931F935B
:101F8000CF93DF93EC017B016115710511F481E0C2
:101F9000B1C068307105D9F48E859F852C853D854B
:101FA00080FF0EC0FC01F595E795EC0FFD1F019039
:101FB000F081E02DE20FF31F0190F081E02D01C0D0
:101FC000F901959587958C0F9D1F099592C065FD28
:101FD00003C0862F807C31F08AEE92E160E00E949F
:101FE000042109C08CEE92E10E948C278CEE92E1D4
:101FF00060E00E94642764E670E080E090E00E9468
:102000001C0201E010E0DD2441E0A42EB12C63C0ED
:1020100080916117882339F0C8018E219F21892B77
:1020200009F456C02BC080915D1790915E179801FE
:102030002E213F210297A0F4232B09F449C080915F
:102040005217909153178A199B09880F991FE09195
:102050004E17F0914F17E80FF91F6081718106C08C
:10206000232BB1F1609156177091571780912E1262
:1020700090912F120E944785892B51F58D2D90E06C
:10208000880F991F880F991FFE01E80FF91F228101
:102090003381DC0120FF12C0F901F595E795EC0FC3
:1020A000FD1FAC0FBD1F0190F081E02D8D919C9123
:1020B000E80FF91F0190F081E02D04C0AC0FBD1FA7
:1020C000ED91FC9135952795CE01820F931F0995CF
:1020D000000F111FD39480913817D81608F498CFA9
:1020E0008AEE92E161E00E9404218CEE92E10E946E
:1020F000882780E0DF91CF911F910F91FF90EF90A3
:10210000DF90BF90AF900895AF92BF92CF92DF92D1
:10211000EF92FF920F931F93CF93DF936C018DEE9D
:1021200092E16DEB76E00E94492882E490E0C80ECF
:10213000D91E80E090E0A0E0B0E0F60180839183BA
:10214000A283B383C0E0D0E05601F501E080F180C6
:10215000028113818AEE92E160E170E00E943523F2
:102160009B01AC01C801B7010E940783F5016083A0
:102170007183828393832196CA30D10531F720E0A1
:1021800030E040E251E40E946F83F6016083718386
:1021900082839383DF91CF911F910F91FF90EF90F6
:1021A000DF90CF90BF90AF900895AF92BF92CF9243
:1021B000DF92EF92FF920F931F93CF93DF936C0107
:1021C0008DEE92E16BEC76E00E9449288EE390E080
:1021D000C80ED91E80E090E0A0E0B0E0F601808358
:1021E0009183A283B3838AEE92E160E040E050E005
:1021F0000E94E61D62E370E080E090E00E941C0215
:10220000C0E0D0E05601F501E080F1800281138149
:102210008AEE92E160E070E00E9435239B01AC0100
:10222000C801B7010E940783F5016083718382832F
:1022300093832196CA30D10531F78AEE92E161E0AD
:1022400040E050E00E94E61DF601608171818281CC
:10225000938120E030E040E251E40E946F83F60178
:102260006083718382839383DF91CF911F910F915C
:10227000FF90EF90DF90CF90BF90AF900895CF92F6
:10228000DF92EF92FF920F931F93CF93DF936C0136
:102290008DEE92E167ED76E00E94492880E090E0C3
:1022A000A0E0B0E0F60182AF93AFA4AFB5AF8AEE85
:1022B00092E160E041E050E00E94E61D62E370E0E0
:1022C00080E090E00E941C02C0E0D0E0F601E2ACA9
:1022D000F3AC04AD15AD8AEE92E161E070E00E94CE
:1022E00035239B01AC01C801B7010E940783F601A9
:1022F00062AF73AF84AF95AF2196CA30D10531F785
:102300008AEE92E161E041E050E00E94E61DF601B4
:1023100062AD73AD84AD95AD20E030E040E251E4B4
:102320000E946F83F60162AF73AF84AF95AFDF9108
:10233000CF911F910F91FF90EF90DF90CF90089574
:10234000CF92DF92EF92FF920F931F93CF93DF9381
:102350006C018DEE92E164EE76E00E94492880E007
:1023600090E0A0E0B0E0F60184AB95ABA6ABB7ABD4
:102370008DEE92E16FEE76E00E9449288CEE92E1BC
:1023800064E070E041E00E9450278CEE92E160E052
:1023900044E050E00E94AE230E9404027B018C01C5
:1023A00006C08CEE92E164E070E00E9450250E942D
:1023B00004026E197F09800B910B605375478040B2
:1023C000904078F3C0E0D0E0F601E4A8F5A806A9B3
:1023D00017A98CEE92E164E070E00E9450259B0109
:1023E000AC01C801B7010E940783F60164AB75AB6D
:1023F00086AB97AB2196CA30D10531F78CEE92E1CE
:1024000061E044E050E00E94AE23F60164A975A9A2
:1024100086A997A920E030E040E251E40E946F8352
:1024200020E030E04AE754E40E94B984F60164AB4E
:1024300075AB86AB97ABDF91CF911F910F91FF905A
:10244000EF90DF90CF900895CF92DF92EF92FF92BE
:102450000F931F93CF93DF936C018DEE92E165E0B4
:1024600077E00E94492880E090E0A0E0B0E0F6012B
:1024700083A794A7A5A7B6A78CEE92E160E042E0FF
:1024800050E00E94AE23C0E0D0E0F601E3A4F4A443
:1024900005A516A58CEE92E162E070E00E94502541
:1024A0009B01AC01C801B7010E940783F60163A735
:1024B00074A785A796A72196CA30D10531F720E0E9
:1024C00030E040E251E40E946F83F60163A774A7F5
:1024D00085A796A78CEE92E161E042E050E00E9471
:1024E000AE23DF91CF911F910F91FF90EF90DF907E
:1024F000CF900895CF92DF92EF92FF920F931F93A8
:10250000CF93DF936C018DEE92E165E177E00E945D
:10251000492880E090E0A0E0B0E0F60186A397A310
:10252000A0A7B1A78CEE92E160E041E050E00E94EC
:10253000AE23C0E0D0E0F601E6A0F7A000A511A50B
:102540008CEE92E161E070E00E9450259B01AC01AD
:10255000C801B7010E940783F60166A377A380A78D
:1025600091A72196CA30D10531F720E030E040E252
:1025700051E40E946F83F60166A377A380A791A719
:102580008CEE92E161E041E050E00E94AE23DF91E9
:10259000CF911F910F91FF90EF90DF90CF90089512
:1025A000CF92DF92EF92FF920F931F93CF93DF931F
:1025B0006C018DEE92E165E277E00E94492880E0AF
:1025C00090E0A0E0B0E0F60180A391A3A2A3B3A3A2
:1025D0008CEE92E160E040E050E00E94AE23C0E06B
:1025E000D0E0F601E0A0F1A002A113A18CEE92E1EF
:1025F00060E070E00E9450259B01AC01C801B7016A
:102600000E940783F60160A371A382A393A321967E
:10261000CA30D10531F720E030E040E251E40E94B9
:102620006F83F60160A371A382A393A38CEE92E162
:1026300061E040E050E00E94AE23DF91CF911F9116
:102640000F91FF90EF90DF90CF900895EF92FF925F
:102650000F931F93CF93DF937C018DEE92E168E39C
:1026600077E00E944928F70112AA11AAC0E0D0E041
:10267000F70101A912A981EA92E10E946813980169
:10268000280F311DC901F70132AB21AB2196CA30A9
:10269000D10571F76AE070E00E94478572AB61ABCB
:1026A000DF91CF911F910F91FF90EF9008950C94BF
:1026B00000F00895089589E261E00E94660388E2CF
:1026C00061E00E94660381EB97E10E942D760895F8
:1026D000EF92FF920F931F9389E161E00E946603DE
:1026E00089E161E00E94840380E00E94807EAA2745
:1026F00097FDA095BA2FBC01CD010E9405847B01F6
:102700008C0120E030E040E054E40E946B83882399
:1027100034F489E160E00E94840310E046C0C801FF
:10272000B70120E030EC42E254E40E94B584181670
:1027300034F489E160E00E94840314E636C0C801E5
:10274000B70120E030EC42E254E40E946B8318169B
:10275000BCF0C801B70120E030EC47E054E40E942F
:10276000B58418166CF4C801B70125E535E545E5D3
:102770005FE30E94B98420E030E04DED53E40CC0EB
:10278000C801B70120E030E040EA5EE30E94B9846E
:1027900020E030E040E253E40E9406830E94D783A9
:1027A000162F89E160E00E948403812F1F910F9111
:1027B000FF90EF900895FC01138A148A158A168AF7
:1027C000178A108E118E128E138E148E158E168E01
:1027D000178E10A211A212A280E090E0A0E0B0E05B
:1027E00083A394A3A5A3B6A30895262F862F6AE0FA
:1027F0000E943B85492F30E0C901841B91096AE0A2
:1028000070E00E945B85E4E0660F771FEA95E1F7D0
:10281000842F862B08950895CF93DF93EC018D8943
:10282000843009F45FC0853048F4823059F1833038
:1028300008F040C0813009F0D2C00AC0863009F4E7
:1028400081C0863008F466C0873009F0C8C092C0E5
:102850008DB79EB742970FB6F8949EBF0FBE8DBF3F
:10286000EDB7FEB73196A896ADB7BEB71296DC931A
:10287000CE931197A89787E497E0938382838BE6A2
:1028800097E08FC0ADB7BEB752970FB6F894BEBFF2
:102890000FBEADBFEDB7FEB73196A8961296DC938A
:1028A000CE931197A89787E497E09383828382E77A
:1028B00097E077C0ADB7BEB752970FB6F894BEBFDA
:1028C0000FBEADBFEDB7FEB73196A8961296DC935A
:1028D000CE931197A89787E497E09383828389E743
:1028E00097E05FC0ADB7BEB752970FB6F894BEBFC2
:1028F0000FBEADBFEDB7FEB73196A8961296DC932A
:10290000CE931197A89787E497E09383828381E819
:1029100097E047C0ADB7BEB752970FB6F894BEBFA9
:102920000FBEADBFEDB7FEB73196A8961296DC93F9
:10293000CE931197A89787E497E0938382838BE8DF
:1029400097E02FC0ADB7BEB752970FB6F894BEBF91
:102950000FBEADBFEDB7FEB73196A8961296DC93C9
:10296000CE931197A89787E497E09383828384E9B5
:1029700097E017C0ADB7BEB752970FB6F894BEBF79
:102980000FBEADBFEDB7FEB73196A8961296DC9399
:10299000CE931197A89787E497E0938382838BE97E
:1029A00097E0958384838B89868317828C898087BF
:1029B0001186898D828713868E89848715868F89F3
:1029C00086871786888D808B118A0E94B4898DB77F
:1029D0009EB742960FB6F8949EBF0FBE8DBF9E0164
:1029E000285D3F4FC901DF91CF910895DF92EF92AB
:1029F000FF920F931F938C01D62EA1EBEA2EA7E135
:102A0000FA2EC70168E670E00E940B76C7016D2DB3
:102A10000E9437760D0D111DC701F80160810E94DB
:102A20003776C7010E945E761F910F91FF90EF905D
:102A3000DF9008958091B2128C7F8093B21283EA66
:102A400092E16FE00E94F61408950F931F938C019A
:102A500060E170E080E090E00E94DE7AC8010E94B0
:102A60001A151F910F9108951F93CF93DF93EC01D7
:102A7000142F613009F08CC08E858D7F85608E8724
:102A8000CE016EE00E94F6148F858C7F8F87CE0179
:102A90006FE00E94F614133009F452C0143030F481
:102AA000113031F18F811230D8F50AC0153009F498
:102AB00054C0153008F44EC0163009F0DDC0D2C045
:102AC0008F778F83CE0167E00E94F61488858F7719
:102AD0008887CE0168E00E94F61489858F77898700
:102AE000CE0169E00E94F6148A858F7780644CC01D
:102AF0008F818F778F83CE0167E00E94F6148885DF
:102B00008F778887CE0168E00E94F61489858F77D9
:102B10008987CE0169E00E94F6148A858F7334C0DC
:102B20008F778F83CE0167E00E94F61488858F77B8
:102B30008887CE0168E00E94F61489858F771DC0D2
:102B40008F818F778F83CE0167E00E94F61488858E
:102B50008F770CC08F818F7702C08F8180688F83C1
:102B6000CE0167E00E94F614888580688887CE01D0
:102B700068E00E94F614898580688987CE0169E043
:102B80000E94F6148A8580688A87CE016AE067C051
:102B9000623009F071C08E858E7F86608E87CE018F
:102BA0006EE00E94F6148F858C7F8F87CE016FE0D8
:102BB0000E94F614123099F1133030F4112361F0B1
:102BC000113009F059C01AC01430B1F1143088F135
:102BD000153009F051C046C08B858F778B87CE01A9
:102BE0006BE00E94F6148C858F778C87CE016CE0A9
:102BF0000E94F6148D858F7780642EC08B858F7729
:102C00008B87CE016BE00E94F6148C858F778C87C2
:102C1000CE016CE00E94F6148D858F731DC08B85EC
:102C20008F778B87CE016BE00E94F6148C858F77AF
:102C30000CC08B858F7702C08B8580688B87CE0117
:102C40006BE00E94F6148C8580688C87CE016CE066
:102C50000E94F6148D8580688D87CE016DE00E94FC
:102C6000F6140AC08E85887F8E87CE016EE00E94A2
:102C7000F614CE010E94251560E170E080E090E03E
:102C80000E94387BDF91CF911F910895DF92EF92E0
:102C9000FF920F931F938C01A1EBEA2EA7E1FA2E6E
:102CA000C70168E670E00E940B76C70167E070E03C
:102CB0000E945B76C801F801628D0E94F513FFE760
:102CC000DF2ED822F801D782C801638D0E94F51348
:102CD0008F77F8018087C801648D0E94F5138F7784
:102CE000F8018187C801658D0E94F5138F73F80183
:102CF0008287C7016D2D0E943776C701F801608574
:102D00000E943776C701F80161850E943776C701B6
:102D1000F80162850E943776C7010E945E761F9196
:102D20000F91FF90EF90DF9008950F931F93CF9333
:102D3000DF93EC0181EB97E168E670E00E940B768F
:102D400081EB97E160E070E00E945B76CE01688DD8
:102D50000E94F5138883CE016F890E94F513898341
:102D6000CE016E890E94F5138A838D898B83CE01F3
:102D7000698D0E94F5138C83CE016C890E94F51336
:102D80008D83CE016B890E94F5138E8300E010E0E5
:102D9000FE01E00FF11F81EB97E160810E94377621
:102DA0000F5F1F4F0730110599F781EB97E10E94E4
:102DB0005E76DF91CF911F910F910895DC01FB01A9
:102DC00021812053808180533AE0839FC0011124E8
:102DD000280F53962C93539724812053838180533B
:102DE000839FC0011124280F54962C935497278158
:102DF000205386818053839FC0011124280F599648
:102E00002C9359972285205381858053839FC0013D
:102E10001124280F55962C9355972585205384858A
:102E20008053839FC0011124280F56962C935697E8
:102E30002089205387858053839FC0011124280F48
:102E400057962C9357972389205382898053839FC9
:102E5000C0011124280F58962C935897CD010E9439
:102E600095160895CF92DF92EF92FF921F93CF9322
:102E7000DF937C01162F81EB97E168E670E00E94FA
:102E80000B7681EB97E160E070E00E945B7681EB6E
:102E900097E10E945E7681EB97E168E670E042E19F
:102EA00050E00E947F76C0E0D0E0C12EDD241AE021
:102EB00009C181EB97E10E941576882309F402C1CC
:102EC00081EB97E10E941B76282FF701EC0FFD1F85
:102ED0008083C630D10509F482C0C730D105B8F46B
:102EE000C230D10509F44EC0C330D10538F4209763
:102EF00069F1C130D10509F0E4C036C0C430D10554
:102F000009F451C0C530D10508F05BC049C0CA30D2
:102F1000D10509F49BC0CB30D10558F4C830D10598
:102F200009F478C090E02F70C930D10508F081C055
:102F300064C0CC30D10509F4A7C0CC30D10508F469
:102F400094C0CD30D10509F0BCC0ADC090E054E0D4
:102F5000959587955A95E1F7819FC00111242F70AF
:102F6000280FF701208FADC090E044E0959587953C
:102F70004A95E1F7819FC00111242F70280FF701B6
:102F8000278B9FC090E034E0959587953A95E1F7BF
:102F9000819FC00111242F70280FF701268B91C04B
:102FA000F701858B8EC090E0B4E095958795BA9532
:102FB000E1F7819FC00111242F70280FF701218FA5
:102FC00080C090E0A4E095958795AA95E1F7819F50
:102FD000C00111242F70280FF701248B72C090E0DC
:102FE000F4E095958795FA95E1F7819FC00111244A
:102FF0002F70280FF701238B64C0E4E09595879527
:10300000EA95E1F78770819FC0011124280FF7012D
:10301000228F57C090E074E0959587957A95E1F7F7
:103020008770819FC00111242F70280FF701238F13
:1030300048C064E0959587956A95E1F78370819F14
:10304000C0011124280FF701248F3BC090E054E009
:10305000959587955A95E1F78370819FC00111245A
:103060002F70280FF701258F2CC090E044E0959534
:1030700087954A95E1F78770819FC00111242F70D1
:10308000280FF701268F1DC090E034E095958795B5
:103090003A95E1F78370819FC00111242F70280FAA
:1030A000F701278F0EC090E0B4E095958795BA950B
:1030B000E1F78370819FC00111242F70280FF70161
:1030C00020A32196CC16DD0608F0F3CEDF91CF9138
:1030D0001F91FF90EF90DF90CF900895EF92FF92B5
:1030E0000F931F93DF93CF93CDB7DEB7A8970FB69B
:1030F000F894DEBF0FBECDBF8C016AE00E9432178C
:103100008DB79EB742970FB6F8949EBF0FBE8DBF86
:10311000EDB7FEB731967E010894E11CF11CADB706
:10312000BEB71296FC92EE92119788EC97E09383CB
:103130008283D80159968C9159978483158253962E
:103140008C9153978683178254968C9154978087DD
:1031500011865D968C915D97828713865C968C9123
:103160005C97848715865B968C915B97868717861C
:103170005A968C91808B118A0E94B4898DB79EB724
:1031800042960FB6F8949EBF0FBE8DBFC701A8969A
:103190000FB6F894DEBF0FBECDBFCF91DF911F9168
:1031A0000F91FF90EF9008951F93CF93DF93EC0161
:1031B000FB01122F21812053808180533AE0839FAD
:1031C000C0011124280F2D8F248120538381805327
:1031D000839FC0011124280F2C8F278120538681C3
:1031E0008053839FC0011124280F2B8F22852053E9
:1031F00081858053839FC0011124280F2A8F442387
:1032000009F05BC0CE0166E00E943217988D8A8D6E
:10321000980F9A8F9C3328F09C539A8F8B8D8F5FD9
:103220008B8F9F898B8D980F9B8F9C3328F09C539D
:103230009B8F8C8D8F5F8C8F9E898C8D980F9C8F30
:10324000983128F098519C8F8D8D8F5F8D8F2D8DAB
:10325000112339F48D89820F8D8F883070F187505A
:103260002BC0998D920F9D8F8C89813051F08330C6
:1032700041F0853031F0873021F0883011F08C300A
:1032800021F4903210F09F519D8F8C89843041F051
:10329000863031F0893021F08A3011F08B3029F4FA
:1032A0008D8D8F3110F08E518D8F8C89823029F465
:1032B0008D8D8D3110F08C518D8F83EA92E10E94BB
:1032C000461683EA92E161E0412F0E943415DF91B6
:1032D000CF911F9108950F931F938C0166E00E9478
:1032E0003217C8010E940C141F910F9108950F937B
:1032F0001F93CF93DF93EC01042F6FA380E361E072
:103300000E9466031FA1113019F0103199F40DC00D
:1033100080E361E00E948403013019F482E08A8B2B
:1033200009C0002339F41A8B05C080E360E00E94D5
:1033300084031A8ADF91CF911F910F910895CF9343
:10334000DF93EC0161E040E00E9477198091B117B2
:10335000882321F481EB97E10E948276CE010E94BE
:103360001A15CE010E94DB13CE016DE00E943217C8
:10337000DF91CF9108950E949F190895AF92BF9257
:10338000CF92DF92EF92FF920F931F939B01411513
:10339000510561F14130510559F00F2EF0E0EF2E4B
:1033A000F0E0FF2EF0E00F2FF0E01F2FF02D49C0CE
:1033B000B901882777FD8095982F0E9405847B01AD
:1033C0008C012DEB32E546E15DE30E94B98425ECEA
:1033D0003EEF42E050E40E9406835B016C01C801AD
:1033E000B70126EF34E246ED55EB1DC0B901882741
:1033F00077FD8095982F0E9405847B018C012DEB31
:1034000032E546E15FE30E94B98425EC3EEF42E0FD
:1034100050E40E9406835B016C01C801B7012BE3F5
:1034200035E246ED59EB0E94B984A80197010E944C
:10343000B9849B01AC01C601B5010E9407837B01E1
:103440008C01C801B70120E030E046EC52E40E9454
:10345000B584181654F40F2EF0E0EF2EF0E0FF2E96
:10346000F8EC0F2FF2E41F2FF02DB701C8011F91C8
:103470000F91FF90EF90DF90CF90BF90AF900895A5
:10348000AF92BF92CF92DF92EF92FF920F931F9372
:10349000FB01142F8081282F30E066E035952795B9
:1034A0006A95E1F751E0C52ED12CC222D32290E0DB
:1034B000A0E0B0E08F739070A070B0704427582FD8
:1034C000692F7A2F8181480F511D611D711D92E076
:1034D000440F551F661F771F9A95D1F782818295F9
:1034E000869586958370480F511D611D711D359518
:1034F00027952130310579F481E0C816D104E1F433
:103500000F2EF0E0AF2EF0E0BF2EF0E0CF2EF0E473
:10351000DF2EF02D23C0CD2859F40F2EF0E0AF2E72
:10352000F0E0BF2EF0E0CF2EF0ECDF2EF02D16C035
:103530004F5F5F4F60407040CB01BA010E9405842D
:1035400020E030E040EC5FE30E94B98420E03FEFF0
:103550004FE757E40E946F835B016C01113009F063
:103560004FC0C601B50120E030E44BE754E40E94AF
:10357000B98420E030E44BEF54E40E94B9842AE699
:103580003FE64BE45AE40E9407837B018C01C601AD
:10359000B50120E030E44BEF54E40E94B9849B0174
:1035A000AC0160E078E48FE495E40E9406839B011F
:1035B000AC01C801B7010E946F8328E431E64AE7F5
:1035C00054E40E9406832EEA3FEF48EA54E40E9446
:1035D0006F8328EB3EEC4AEB54E40E94B9842FE859
:1035E00032E049E754E40E94078320E030E04AE7F4
:1035F00054E40E94068326E931E24AE750E40EC013
:103600001123A1F4C601B50120E030EE4BE256E4EF
:103610000E94B98420E030E04AE754E40E946F83BE
:103620009B01AC01832F942F752F00C0262F382FBC
:10363000492F572FB901CA011F910F91FF90EF90A9
:10364000DF90CF90BF90AF900895882777FD809549
:10365000982F0E94058420E030E44EE455E40E9457
:10366000B98420E030EC4FE754E40E946F832AE9EC
:1036700039E949E15FE30E946F8320E030E047E8E9
:1036800053E40E94078320E030E44CE955E40E94B3
:103690006F832CE53FE842EC5DE30E94078320EE58
:1036A0003DE240E15CE30E946F830895EF92FF9258
:1036B0000F931F93CF93DF93EC017A018B01CB0122
:1036C000BA0120E030E040E85EE30E946B8388238B
:1036D0001CF480E190E04EC1C801B70120E030E069
:1036E00040E85EE30E94B58488236CF0C801B7010E
:1036F00029E23CE54FE85EE30E946B8388231CF4DB
:1037000084E090E037C1C801B70129E23CE54FE809
:103710005EE30E94B58488236CF0C801B70123E3FF
:1037200033E343EB5EE30E946B8388231CF488E061
:1037300090E020C1C801B70123E333E343EB5EE32C
:103740000E94B58488236CF0C801B70120E030E006
:1037500040E05FE30E946B8388231CF480E490E0E8
:1037600009C1C801B70120E030E040E05FE30E94FA
:10377000B58488236CF0C801B70126E636E646E238
:103780005FE30E946B8388231CF480E290E0F2C028
:10379000C801B70126E636E646E25FE30E94B5843B
:1037A00088236CF0C801B7012AE939E949E55FE3EC
:1037B0000E946B8388231CF480E091E0DBC0C80189
:1037C000B7012AE939E949E55FE30E94B584882316
:1037D0006CF0C801B7012DEC3CEC4CE85FE30E94B3
:1037E0006B8388231CF480E890E0C4C0C801B70153
:1037F0002DEC3CEC4CE85FE30E94B58488236CF030
:10380000C801B70127ED33EA40EB5FE30E946B8309
:1038100088231CF481E090E0ADC0C801B70127ED1A
:1038200033EA40EB5FE30E94B58488236CF0C80163
:10383000B7012DEC3CEC4CEC5FE30E946B838823DA
:103840001CF482E090E096C0C801B7012DEC3CEC7E
:103850004CEC5FE30E94B58488236CF0C801B7018B
:1038600028E431EE4AEF5FE30E946B8388231CF467
:1038700080E094E07FC0C801B70128E431EE4AEF50
:103880005FE30E94B58488236CF0C801B7012AE980
:1038900039E949E050E40E946B8388231CF480E0FE
:1038A00092E068C0C801B7012AE939E949E050E46B
:1038B0000E94B58488236CF0C801B70126E636E67D
:1038C00046E150E40E946B8388231CF480E090E47E
:1038D00051C0C801B70126E636E646E150E40E9431
:1038E000B58488236CF0C801B70126E636E646E2C7
:1038F00050E40E946B8388231CF4198218823CC018
:10390000C801B70126E636E646E250E40E94B584D7
:1039100088236CF0C801B70123E333E343E350E4A9
:103920000E946B8388231CF480E090E123C0C801CF
:10393000B70123E333E343E350E40E94B5848823D3
:103940006CF0C801B70126E636E646E450E40E9472
:103950006B8388231CF480E098E00CC0C801B70199
:1039600026E636E646E450E40E94B584882324F037
:1039700080E090E299838883DF91CF911F910F912E
:10398000FF90EF900895882777FD8095982F0E94EB
:10399000058420E030E44EE455E40E94B98420E040
:1039A00030EC4FE754E40E946F832AE939E949E19A
:1039B0005FE30E946F8320E030E048E454E40E941B
:1039C000068320E030E048EF51E40E946F830895C1
:1039D000882777FD8095982F0E94058420E030E4A9
:1039E0004EE455E40E94B98420E030EC4FE754E403
:1039F0000E946F8320E030E04AEF53E40E94068388
:103A000020E030E040E251E40E946F830895AF92DD
:103A1000BF92CF92DF92EF92FF920F931F93CF93BB
:103A2000DF930E9404025B016C01EE24FF24C0E0DE
:103A3000D0E00EC089E00E94CF038C0121E0E216A5
:103A4000F10419F4009709F421960E940402780108
:103A50000E9404026A197B098C099D09695B7B40FD
:103A60008040904038F364E670E080E090E00E948F
:103A70001C02CE01DF91CF911F910F91FF90EF902B
:103A8000DF90CF90BF90AF900895AF92BF92CF924A
:103A9000DF92EF92FF920F931F93CF93DF930E94D9
:103AA00004025B016C01EE24FF24C0E0D0E00EC0F4
:103AB00088E00E94CF038C0121E0E216F10419F4A2
:103AC000009709F421960E94040278010E940402E2
:103AD0006A197B098C099D09695B7B408040904095
:103AE00038F364E670E080E090E00E941C02BE01C2
:103AF000882777FD8095982F0E940584DF91CF91CC
:103B00001F910F91FF90EF90DF90CF90BF90AF90FB
:103B10000895BF92CF92DF92EF92FF920F931F937F
:103B2000CF93DF93162F8FE060E00E94660381E160
:103B300060E00E94660383E160E00E9466038AE021
:103B400060E00E948403143049F0183051F01230C4
:103B500019F4FFE0BF2E07C0BB2405C0E3E1BE2E71
:103B600002C071E1B72E0E9404026B017C01C0E02B
:103B7000D0E000E010E08B2D0E94CF03219739F4B4
:103B8000009729F40F5F1F4FC0E0D0E001C0EC01A7
:103B900087E0003D18077CF30E9404026C197D0940
:103BA0008E099F090E9403849B01AC0160E074E2CE
:103BB00084EF99E40E946F83DF91CF911F910F9161
:103BC000FF90EF90DF90CF90BF900895662309F0AB
:103BD00051C04034510509F44AC041345105C8F47C
:103BE00042305105D1F14330510540F441155105A2
:103BF000B1F14130510509F08DC031C04830510557
:103C000061F14032510599F14430510509F082C00B
:103C100024C084E04030580751F184E04130580717
:103C200068F481E040305807E1F082E04030580706
:103C3000C1F04038510509F06DC013C080E140303B
:103C4000580749F080E24030580789F0405058400A
:103C500009F060C00CC084E00BC082E009C08EE0B7
:103C600007C087E061E00E9484038AE001C087E02A
:103C700061E049C0613009F04DC04034510509F49C
:103C800040C041345105B8F442305105B1F14330E0
:103C9000510538F44115510591F141305105D1F5E7
:103CA0002EC04830510549F14032510551F14430A0
:103CB000510581F522C084E04030580711F184E0BD
:103CC0004130580760F481E040305807D1F082E07D
:103CD00040305807B1F040385105E1F412C080E19E
:103CE0004030580741F080E24030580779F04050AA
:103CF000584081F406C084E005C082E003C08EE035
:103D000001C087E060E00E948403089587E060E0DE
:103D10000E948403089582E360E00E94660382E3C8
:103D200061E00E94840385E061E00E94660384E014
:103D300061E00E94660386E061E00E94660387E01E
:103D400061E00E94660389E060E00E9466038AE009
:103D500061E00E94660388E060E00E94660382E002
:103D600061E00E9466038EE061E00E9466038AE1E2
:103D700061E00E94660388E161E00E9466038FE0D3
:103D800060E00E94660381E160E00E94660383E1D7
:103D900060E00E94660385E060E00E94840384E0A6
:103DA00060E00E94840386E060E00E94840387E074
:103DB00060E00E9484038AE060E00E94840382E065
:103DC00060E00E9484038EE060E00E9484038AE148
:103DD00060E00E94840388E160E00E94840308950B
:103DE0008AEE92E10E948B1E08954F925F927F921D
:103DF0008F929F92AF92BF92CF92DF92EF92FF92FB
:103E00000F931F93CF93DF932C01762E662319F423
:103E100003E0702E05C021E0621711F415E0712E49
:103E200086E061E00E94660385E061E00E9466032F
:103E300086E061E00E94840385E061E00E948403E3
:103E400081E090E00E94640286E060E00E948403CA
:103E500085E060E00E94840381E090E00E946402BB
:103E600085E061E00E94840386E061E00E948403B3
:103E700081E090E00E94640285E060E00E9484039B
:103E800086E065E041E0272D0E942D8185E061E01C
:103E90000E94840386E060E00E9466030E940402A0
:103EA0005B016C0186E00E94CF03EC0104C00E941C
:103EB00004025B016C01219709F0DBC00E9404023F
:103EC000750186016E197F09800B910B6A307105AF
:103ED0008105910508F0CDC086E00E94CF03EC017A
:103EE0000E9404026E157F058007910720F7DFCF3F
:103EF0000E9404025B016C01CD2B09F0C9C00E9435
:103F00000402750186016E197F09800B910B6A30DE
:103F100071058105910508F0BBC086E00E94CF03C2
:103F2000EC010E9404026E157F058007910720F7BF
:103F3000DFCF0130110509F0B6C00E9404026C19F0
:103F40007D098E099F09605971408040904008F0BA
:103F5000AAC086E00E94CF038C01EBCF85E061E030
:103F60000E948403CC0FDD1F86E00E94CF03C80FA0
:103F7000D91F85E060E00E9484030F5F1F4F083067
:103F8000110561F70E94040286E00E94CF036C01D4
:103F90000E9404024B015C01CD2809F08DC00E94F3
:103FA0000402740185016E197F09800B910B6A3040
:103FB00071058105910508F07FC086E00E94CF035E
:103FC0006C010E9404026E157F058007910720F79F
:103FD000DFCF85E061E00E948403CC0FDD1F86E027
:103FE0000E94CF03C80FD91F85E060E00E948403C0
:103FF0000F5F1F4F0830110561F70E94040286E031
:1040000061E00E94660386E061E00E94840385E02F
:1040100061E00E94840380E991E00E94640285E0EF
:1040200060E00E94840386E060E00E94840383E0F5
:104030007816A1F4BE01882777FD8095982F0E94FD
:1040400005842AE037ED43E25CE30E94B9842DEC5D
:104050003CEC4EE152E40E94068351C025E072160A
:1040600039F4C201BE0141E050E00E94BE1947C0D0
:1040700046C00E94040285E060E00E9484030E9422
:1040800004025B016C0186E00E94CF03EC0134CF97
:104090000E94040286E00E94CF038C010E94040269
:1040A0006B017C0146CF0E9404020E940402C0E022
:1040B000D0E000E010E052CF0E94040286E061E010
:1040C0000E94660386E060E00E94840381E090E045
:1040D0000E94640285E061E00E94840380E991E02F
:1040E0000E94640285E060E00E94840386E060E054
:1040F0000E9466030E94040200E010E06ACFDF9194
:10410000CF911F910F91FF90EF90DF90CF90BF90D4
:10411000AF909F908F907F905F904F9008950F93F6
:104120001F93DF93CF9300D0CDB7DEB78091B11747
:10413000882321F481EB97E10E94827619821A820A
:1041400064E670E080E090E00E941C0262E370E0B0
:1041500080E090E00E941C0281EB97E164E170E056
:1041600042E050E00E947F768E010F5F1F4F07C034
:1041700081EB97E10E941B76F80181938F0181EB1F
:1041800097E10E941576882399F78091B1178823CB
:1041900071F08091B512813051F081EA92E10E9474
:1041A0005B1383EA92E160E141E00E947719298183
:1041B00030E040E050E0542F432F322F22278A81F5
:1041C000280F311D411D511DCA01B901E3E0660FE1
:1041D000771F881F991FEA95D1F7620F731F841FFD
:1041E000951F69507048844090400E94058420E0EB
:1041F0003FEF4FE757E40E946F830F900F90CF91EE
:10420000DF911F910F910895662319F0613021F518
:1042100017C08AE161E00E94840388E161E00E94A6
:1042200084038091B512882331F483EA92E161E03E
:1042300041E00E94771987E061E00E9484030895BD
:104240008AE160E00E94840388E160E00E948403C8
:1042500087E060E00E9484030895EF92FF920F933D
:104260001F93DF93CF9300D00F92CDB7DEB77C01C1
:10427000DE011196E1E4F1E183E001900D928150BD
:10428000E1F78091B117882321F481EB97E10E9437
:10429000827664E670E080E090E00E941C0264E6B2
:1042A00070E080E090E00E941C0264E670E080E034
:1042B00090E00E941C0281EB97E166E170E00E94B1
:1042C0000B7681EB97E160EA0E94377681EB97E10C
:1042D00065E570E00E945B7681EB97E10E945E7677
:1042E0006CE271E080E090E00E941C0281EB97E1BB
:1042F00066E170E043E050E00E947F768E010F5F40
:104300001F4F07C081EB97E10E941B76F801819354
:104310008F0181EB97E10E941576882399F78091B0
:10432000B117882371F08091B512813051F081EA84
:1043300092E10E945B1383EA92E160E141E00E9416
:104340007719C701BE016F5F7F4F41E00E94401A9D
:104350000F900F900F90CF91DF911F910F91FF90D1
:10436000EF900895EF92FF920F931F93DF93CF93F7
:1043700000D00F92CDB7DEB77C01DE011196E4E4E8
:10438000F1E183E001900D928150E1F78091B11746
:10439000882321F481EB97E10E94827664E670E045
:1043A00080E090E00E941C0264E670E080E090E013
:1043B0000E941C0264E670E080E090E00E941C0213
:1043C00081EB97E166E170E00E940B7681EB97E16B
:1043D00061EA0E94377681EB97E165E570E00E9423
:1043E0005B7681EB97E10E945E766CE271E080E0A3
:1043F00090E00E941C0281EB97E166E170E043E0EF
:1044000050E00E947F768E010F5F1F4F07C081EB47
:1044100097E10E941B76F80181938F0181EB97E170
:104420000E941576882399F78091B117882371F03F
:104430008091B512813051F081EA92E10E945B13C4
:1044400083EA92E160E141E00E947719C701BE0171
:104450006F5F7F4F40E00E94401A0F900F900F90C7
:10446000CF91DF911F910F91FF90EF900895EF9200
:10447000FF920F931F93CF93DF93EC01603471058C
:1044800009F494C06134710508F56430710509F4CC
:1044900052C06530710568F46130710509F461C07E
:1044A0006130710508F460C06230710509F0D0C058
:1044B0003BC06031710509F49EC06032710509F49A
:1044C00072C06830710509F0C3C03CC084E0603040
:1044D000780709F480C084E06130780778F481E0DF
:1044E0006030780709F467C082E06030780709F42B
:1044F0006AC06038710509F0ABC05BC080E1603014
:10450000780751F080E26030780709F489C0605084
:10451000784009F09DC063C083E00E94807EBC01AA
:10452000CE010E94251B91C08AE060E00E948403B6
:10453000CE0162E00DC08AE060E00E948403CE01FB
:1045400064E006C08AE060E00E948403CE0168E077
:104550000E94891D7B018C018AE061E00E94840336
:104560007BC00E94451D71C085E00E94807EA0E056
:10457000B0E0BC01CD010E94038423E333E343E5B3
:1045800050E40E94B98420E030EC4FE754E40E94EC
:104590006F839B01AC017B018A01CE01A901B801A7
:1045A0000E94561B59C00E94B2214FC00E942D216B
:1045B0004CC086E036C084E00E94807EBC01CE0103
:1045C0000E94E81C42C082E00E94807EBC01CE01B5
:1045D0000E94C31C3AC0CE010E948F2036C04423E3
:1045E00019F4CE0160E004C0413091F5CE0161E0E4
:1045F0000E94F51E2AC00E94071DA0E0B0E0BC0189
:10460000CD010E94038424E83DE04FE85EE30E9470
:10461000B98420E030E040EA51E40E94B98415C03A
:1046200087E00E94807EA0E0B0E0BC01CD010E9446
:10463000038423E333E343E550E40E94B98420E09C
:1046400030EC4FE754E40E946F837B018C0104C07F
:10465000EE24FF2400E010E0B701C801DF91CF9104
:104660001F910F91FF90EF90089540E00E94372234
:104670000895882777FD8095982F0E94058420E073
:1046800030E44EE455E40E94B98420E030EC4FE77A
:1046900054E40E946F832AE939E949E15FE30E940B
:1046A0006F8320E030E042E053E40E94068320E084
:1046B00030E44CE955E40E946F832CE53FE842EC7E
:1046C0005DE30E94078320EE3DE240E15CE30E944F
:1046D0006F830895882777FD8095982F0E94058421
:1046E00020E030E44EE455E40E94B98420E030EC50
:1046F0004FE754E40E946F8320E030E04AEF53E438
:104700000E94068320E030E040E251E40E946F8383
:104710000895882777FD8095982F0E94058420E0D2
:1047200030E44EE455E40E94B98420E030EC4FE7D9
:1047300054E40E946F832AE939E949E15FE30E946A
:104740006F8320E030E048E454E40E94068320E0D8
:1047500030E048EF51E40E946F830895CF93DF93D8
:10476000EC01662309F042C04031510509F468C0EC
:104770004131510560F444305105F9F0483051059C
:1047800009F45AC04230510509F073C014C04034D6
:104790005105A9F04134510528F44032510509F082
:1047A00068C04CC082E040305807D1F040505041C2
:1047B00009F05FC00AC085E044C088E042C082E0E2
:1047C00061E00E94840384E03CC086E061E00E94D6
:1047D000840382E061E00E94840381E088834AC010
:1047E0008AE061E00E94840387E02BC0613011F011
:1047F00080E040C04032510519F14132510550F47A
:1048000044305105C9F040315105C1F042305105E5
:1048100081F50CC082E04030580729F180E140303A
:104820005807B9F04034510521F50DC085E060E02E
:104830000E94840381E01EC088E0F9CF89E0F7CFB1
:1048400089E061E0F5CF82E060E00E94840384E0CB
:10485000EECF86E060E00E94840382E060E00E9488
:1048600084031882E7CF8AE060E00E94840387E037
:10487000DECF8FEFDF91CF910895EF92FF920F93EC
:104880001F93CF93DF937C0181E06030780709F4B8
:1048900058C0E1E061307E0720F46038710551F4C2
:1048A0000CC0F4E060307F0709F493C0605078409A
:1048B00009F4BCC0CFEFDFEFEBC084E061E00E9401
:1048C00084036EE070E080E090E00E941C0284E0CF
:1048D00060E00E94840364EC73E080E090E00E945A
:1048E0001C0286E060E00E9484036AE070E080E0E1
:1048F00090E00E941C0282E061E00E94840363E079
:1049000070E080E090E00E941C0287E00E94807EC0
:10491000EC0162E070E080E090E00E941C0282E026
:1049200060E00E94840368E070E080E090E00E9414
:104930001C02F7018081882309F4AAC086E061E0A7
:1049400072C086E060E00E94840364E070E080E072
:1049500090E00E941C0284E061E00E94840362E017
:1049600070E080E090E00E941C0282E061E00E9422
:10497000840365E070E080E090E00E941C0287E024
:104980000E94807E182F092F82E060E00E9484033D
:1049900067E070E080E090E00E941C0284E060E04C
:1049A0000E94840362E070E080E090E00E941C02BC
:1049B000F7018081882321F086E061E00E94840372
:1049C000812F902F9C01E90166EE70E080E090E07D
:1049D0005DC087E061E00E9484036EE070E080E0EB
:1049E00090E00E941C0287E060E00E94840364ED76
:1049F00073E080E090E00E941C028AE061E00E9487
:104A0000840363E070E080E090E00E941C0286E096
:104A10000E94807EEC0162E070E080E090E00E9405
:104A20001C028AE060E00E94840332C087E061E0FB
:104A30000E94840362E070E080E090E00E941C022B
:104A40008AE061E00E94840364E070E080E090E02E
:104A50000E941C0286E00E94807EEC0161E070E012
:104A600080E090E00E941C028AE060E00E948403E3
:104A700067E070E080E090E00E941C0287E060E068
:104A80000E9484036CEE70E080E090E00E941C02C3
:104A9000CE01DF91CF911F910F91FF90EF9008957C
:104AA0000F931F93CF93DF93EC016032710509F4EC
:104AB00060C061327105D0F46230710509F44FC0F5
:104AC0006330710538F461157105C9F16130710504
:104AD00089F53DC06830710509F449C06031710540
:104AE00009F447C06430710529F541C082E06030A7
:104AF000780709F46BC082E06130780768F46038A9
:104B0000710509F45BC081E06030780709F45AC090
:104B10006034710579F42FC088E06030780709F4BB
:104B20005DC080E16030780709F446C06050744091
:104B300009F450C060E070E080E89FEB68C081E05D
:104B40000E94807EBC01CE010E946A2360C084E086
:104B50000E94807EBC01CE010E94892358C085E05E
:104B60000E94807EBC01CE010E94392350C083E0A8
:104B70002EC082E02CC086E060E00E9484036AE0E0
:104B800070E080E090E00E941C0287E00E94807E3E
:104B90008C016AE070E080E090E00E941C02888155
:104BA000882321F086E061E00E948403B801882711
:104BB00077FD8095982F1DC087E009C0CE0160E881
:104BC00070E00FC0CE0160E071E00BC086E00E9493
:104BD000807E09C0CE0160E074E003C0CE0160E0D9
:104BE00078E00E943D24AA2797FDA095BA2FBC012A
:104BF000CD010E94058423E333E343E550E40E94A2
:104C0000B98420E030EC4FE754E40E946F83DF91D9
:104C1000CF911F910F9108950F931F93162F042F7B
:104C20008091B117882321F481EB97E10E9482766D
:104C300064E670E080E090E00E941C0281EB97E166
:104C4000612F0E94017681EB97E160E170E00E94A4
:104C50005B76802F90E001979695982F88279795FF
:104C600087956CE97FEF0E945B85605881EB97E147
:104C70000E94377681EB97E10E945E768091B117B2
:104C8000882371F08091B512813051F081EA92E170
:104C90000E945B1383EA92E160E141E00E94771990
:104CA0001F910F910895613049F0613028F0623012
:104CB00039F0643061F408C068E203C06CE201C0FE
:104CC0006EE20E940C2608956AE20E940C26089566
:104CD000DF92EF92FF920F931F93D62E79018A01F4
:104CE0008091B117882321F481EB97E10E948276AD
:104CF00064E670E080E090E00E941C0281EB97E1A6
:104D00006D2D0E94017681EB97E160E070E00E94DA
:104D10005B76C801B70120E030E040E053E40E9438
:104D2000B98420E030E048EC52E40E946F839B019C
:104D3000AC0160E070E080E093E40E9406830E9492
:104D4000D7839B01AC0181EB97E1622F0E943776FC
:104D500081EB97E10E945E768091B117882371F014
:104D60008091B512813051F081EA92E10E945B138B
:104D700083EA92E160E141E00E9477191F910F916F
:104D8000FF90EF90DF900895603131F0603241F094
:104D9000683049F46CE201C06EE20E946826089512
:104DA0006AE20E9468260895BF92CF92DF92EF9246
:104DB000FF920F931F93CF93DF936C01EB01B42EFF
:104DC00078018901C801B70120E030E048EC52E4E5
:104DD0000E94B584181614F480E058C085E68B153F
:104DE00010F48EEF53C0C038D105D9F1C138D105C8
:104DF00098F4C031D10561F1C131D10530F4C4302E
:104E0000D10519F12897F9F420C0C032D10501F17C
:104E1000C034D105C1F425C084E0C030D80751F1B9
:104E200084E0C130D80740F481E0C030D807C9F031
:104E3000C050D24041F41EC088E0C030D807D1F045
:104E4000C050D04171F08FEF21C0C60160E01AC0A0
:104E5000C60168E0A80197010E94C426C60161E06E
:104E600011C0C60160E1A80197010E94C426C601D5
:104E700062E008C0C60160E2A80197010E94C42652
:104E8000C60164E04B2D0E94532681E0DF91CF9153
:104E90001F910F91FF90EF90DF90CF90BF900895FA
:104EA0000F931F936430710529F06830710511F07C
:104EB0008FEF07C000E010E020E030E00E94D42631
:104EC00081E01F910F910895662321F06130B1F0C8
:104ED00080E008958AE161E00E94840388E161E056
:104EE0000E9484038091B512882331F483EA92E111
:104EF00061E041E00E94771981E008958AE160E075
:104F00000E94840388E160E00E94840381E00895A8
:104F100061E00E946427089560E00E94642708957C
:104F200084E061E00E94660386E061E00E9466031F
:104F300087E061E00E94660388E061E00E9466030A
:104F400089E061E00E9466038AE061E00E946603F6
:104F500082E061E00E9466038AE161E00E946603EC
:104F600088E161E00E94660384E060E00E948403BF
:104F700086E060E00E94840387E060E00E94840392
:104F800088E060E00E94840389E060E00E9484037E
:104F90008AE060E00E94840382E060E00E94840373
:104FA0008AE160E00E94840388E160E00E9484035B
:104FB00008958CEE92E10E94902708951092ED12D0
:104FC00008950F93FC01CB01BA012AE030E040E0E4
:104FD00050E000810E94B77F0F910895AB0160E01F
:104FE00070E00E94E12708950F931F938C018DE0DC
:104FF000F80160810E94907F8AE0F80160810E9440
:10500000907F1F910F910895EF92FF920F931F933E
:10501000CF93DF93EC017A018B0177FF0CC08DE217
:1050200068810E94907F10950095F094E094E11CB7
:10503000F11C011D111DC801B7012AE030E040E05C
:1050400050E008810E94B77FDF91CF911F910F91AF
:10505000FF90EF900895AB01662757FD6095762F7E
:105060000E94042808950F931F938C01AB016627BB
:1050700057FD6095762F0E940428C8010E94F427EE
:105080001F910F910895FC01CB0160810E94A17FC7
:1050900008950F931F938C01CB01F80160810E944A
:1050A000A17FC8010E94F4271F910F910895FC0170
:1050B00060E076E980E090E040810E94B180089550
:1050C000FB0120E030E002C02F5F3F4F8191882339
:1050D000D9F7C90108950F931F93CF93DF938B01E5
:1050E000BA01DA0140E050E0C22FD0E019C0F80167
:1050F000E40FF51F8081982F92959F708F709A30E2
:1051000010F4905D01C0995C9C938A3010F4805D2E
:1051100001C0895C11968C9311974F5F5F4F129677
:105120004C175D0724F3CC0FDD1FC60FD71F188265
:10513000DF91CF911F910F91089528E00E946B2875
:1051400008958F929F92AF92BF92CF92DF92EF928B
:10515000FF920F931F93CF93DF93992401C09394F1
:10516000FB01E90DF11D808180538A30C0F35B01A2
:10517000EE24FF24870120C02AE030E040E050E028
:105180000E941C850894C11CD11CCC16DD06A4F31A
:10519000282D332727FD309520533040442737FDF5
:1051A0004095542F0E941C85E60EF71E081F191FFC
:1051B0009A940894A11CB11CF5018080882D80531D
:1051C0008A3050F461E070E080E090E0CC24DD248F
:1051D000C92DD0E02197D9CFB701C801DF91CF9178
:1051E0001F910F91FF90EF90DF90CF90BF90AF9005
:1051F0009F908F900895FB019081892F80538A3072
:1052000038F4292F332727FD3095205330400DC027
:10521000892F8154863018F020E030E007C0292F14
:10522000332727FD30952753304031966081862FF4
:1052300080538A3030F4772767FD70956053704053
:105240000CC0862F8154863018F060E070E005C0F5
:10525000772767FD709567537040A4E0220F331FD6
:10526000AA95E1F7862F820F08956833A1F169337B
:1052700080F4643341F1653338F4623301F1633310
:1052800000F56133D1F417C0663309F1673308F5CF
:105290001CC0633441F1643438F4613401F1623488
:1052A00000F5693351F419C0653409F16534E8F04B
:1052B000663419F41EC081E01DC080E01BC082E08E
:1052C00019C083E017C084E015C085E013C086E0F4
:1052D00011C087E00FC088E00DC089E00BC08AE0F4
:1052E00009C08BE007C08CE005C08DE003C08EE0F4
:1052F00001C08FE04733A1F1483380F4433341F1DB
:10530000443338F44133F1F0423300F54033E1F5F2
:105310001BC0453309F1463308F51CC0423441F146
:10532000433438F4493301F14933E0F0413461F555
:105330001DC0443409F14434E8F04534F9F04634F2
:10534000F9F0089591E01DC090E01BC092E019C0F3
:1053500093E017C094E015C095E013C096E011C02B
:1053600097E00FC098E00DC099E00BC09AE009C02B
:105370009BE007C09CE005C09DE003C09EE001C02B
:105380009FE08295807F890F08950895CB01642F57
:105390000E94F38B0895CB010E94EB8B08958FE25E
:1053A00061E00E94660384E261E00E94660385E298
:1053B00061E00E9466038FE261E00E94840384E260
:1053C00061E00E94840385E261E00E948403089505
:1053D0000F931F93162F042F8FE261E00E94660344
:1053E00084E261E00E94660385E261E00E94660358
:1053F0008FE261E00E94840384E2612F0E948403B3
:1054000085E2602F0E9484031F910F9108951092EE
:105410002E14109230140895EF92FF920F931F9361
:10542000CF93DF93EC017A018B0177FF0CC08DE203
:1054300068810E94907F10950095F094E094E11CA3
:10544000F11C011D111DC801B7012AE030E040E048
:1054500050E008810E94B77FDF91CF911F910F919B
:10546000FF90EF9008950F931F93FC01DA018B01D9
:105470002115310529F4842F60810E94907F16C088
:105480002A30310519F40E940C2A10C02031310550
:1054900029F4842F60810E94598008C030E040E0E8
:1054A00050E0BD01C80100810E94B77F1F910F919C
:1054B0000895FC0180810E94FA7E0895FC0180819C
:1054C0000E94BF7E0895FC0180810E949B7E08950A
:1054D000FC016183613019F06330B9F518C0808137
:1054E000882311F486E111C08EEE92E10E94CF294B
:1054F00086E061E00E94660386E061E00E9484032A
:105500008AE261E00E9466038AE261E005C0808170
:10551000882329F486E160E00E94840308958EEEDA
:1055200092E160E040E00E94E82986E061E00E94AC
:10553000660386E060E00E9484038AE261E00E94E4
:1055400066038AE260E00E9484030895FC01808182
:105550000E9493800895FC01262F608360E070E034
:10556000CB01BA01422F0E94B18086E161E00E9426
:10557000660308950F931F93CF93DF93DC018B0194
:10558000EC01C658DD4F1982188240E0BE0106C00A
:105590004F5F2F5F3F4FFB0131832083FB01208151
:1055A0003181F801E20FF31F8081882389F7469546
:1055B00083E090E09983888390E0ED01C658DD4F49
:1055C00050E00BC0FD01E20FF31FE857FD4F808153
:1055D000980F2F5F3F4F3983288328813981241703
:1055E000350780F3892F8095A40FB51FA957BD4FAC
:1055F0008C93DF91CF911F910F910895AF92BF923D
:10560000CF92DF92EF92FF920F931F93CF93DF938E
:105610007C018B0106551F4FD8018C910A5A10400E
:10562000F801E855FF4F813009F024C1C22EDD2476
:10563000DA01AC0DBD1D83E28C938081813009F4C9
:1056400046C0813020F0823009F038C2AAC01196DD
:105650001C92119701571F4FF80181918F011296EB
:105660008C93129780810059104013968C93139756
:10567000F701E658FD4F11821082EF01FCE7CF2EB3
:10568000F2E0DF2ECE0CDF1CB70162587D4FAD017A
:105690000FC0FA01E20FF31FA00FB11FA20FB31F3B
:1056A0001C968C9184838881998101969983888343
:1056B00028813981F601A081B181FB01808191812E
:1056C00001968A1B9B0B2817390718F3F7C111960F
:1056D0008C93B70166587D4FDB011D921C92EB0144
:1056E00010C0FA01EA0FFB1FEC0DFD1DA00FB11F4A
:1056F000A557BF4F8C9182838881998101969983A8
:105700008883A881B981A430B10558F3FB011182C7
:105710001082E701C658DD4F10C0FA01EA0FFB1FE7
:10572000EC0DFD1DA00FB11FA957BF4F8C918683B3
:1057300088819981019699838883A881B981A43051
:10574000B10558F319821882E701C658DD4FECE71E
:10575000AE2EE2E0BE2EAE0CBF1C970122583D4F8C
:1057600011C0FA01E60FF71FEC0DFD1DA00FB11FD0
:10577000A60FB71F1C968C9182878881998101960C
:105780009983888368817981F501A081B181F901CC
:105790008081918101968A1B9B0B6817790708F31A
:1057A0008DC111968C93C0E0D0E0D701A658BD4FB3
:1057B00006C0E9016F5F7F4F11967C936E936D91E8
:1057C0007C911197F801E60FF71FEF56FF4F80818C
:1057D0009E012F5F3F4F833261F71D921C92E701BC
:1057E000C658DD4F10C0FA01EA0FFB1FEC0DFD1D7E
:1057F000A00FB11FAF56BF4F8C91828388819981D2
:10580000019699838883A881B981A217B30758F3B9
:1058100019821882E701C658DD4F7CE7A72E72E097
:10582000B72EAE0CBF1C8EE792E0E80EF91E13C037
:10583000FA01E60FF71FE20FF31FEC0DFD1DA00F9D
:10584000B11FA60FB71F1C968C9182838881998106
:1058500001969983888368817981F501A081B1815E
:10586000F7018081918101968A1B9B0B681779074C
:10587000F8F224C18081813009F446C0813020F0E3
:10588000823009F01BC1AEC030E0FA01E20FF31F15
:10589000108201571F4FD8018D918D0181838C910A
:1058A000005910408283F701E658FD4F11821082A3
:1058B000EF016CE7C62E62E0D62ECE0CDF1CEEE7C1
:1058C000F2E0EE0EFF1E11C0FA01E60FF71FE20F25
:1058D000F31FA00FB11FA60FB71F1C968C918383D7
:1058E0008881998101969983888368817981F601FD
:1058F000A081B181F7018081918101968A1B9B0B68
:105900006817790708F3DAC030E0FA01E20FF31FF5
:105910008083B70166587D4FDB011D921C92EB011D
:1059200010C0FA01EA0FFB1FE20FF31FA00FB11F17
:10593000A557BF4F8C918183888199810196998366
:105940008883A881B981A430B10558F3FB01118285
:105950001082E701C658DD4F10C0FA01EA0FFB1FA5
:10596000E20FF31FA00FB11FA957BF4F8C91858382
:1059700088819981019699838883A881B981A4300F
:10598000B10558F319821882E701C658DD4F9CE72C
:10599000C92E92E0D92ECE0CDF1C8EE792E0E80EE5
:1059A000F91E11C0FA01E60FF71FE20FF31FA00F57
:1059B000B11FA60FB71F1C968C9181878881998192
:1059C00001969983888368817981F601A081B181EC
:1059D000F7018081918101968A1B9B0B68177907DB
:1059E00008F36CC0C22EDD24FA01EC0DFD1D80838E
:1059F000C0E0D0E0D701A658BD4F06C0E9016F5FF7
:105A00007F4F11967C936E936D917C911197F80165
:105A1000E60FF71FEF56FF4F80819E012F5F3F4F2C
:105A2000833261F71D921C92E701C658DD4F10C00A
:105A3000FA01EA0FFB1FEC0DFD1DA00FB11FAF56C1
:105A4000BF4F8C9181838881998101969983888346
:105A5000A881B981A217B30758F319821882E70108
:105A6000C658DD4F8CE7A82E82E0B82EAE0CBF1CC6
:105A70008EE792E0E80EF91E13C0FA01E60FF71F59
:105A8000E20FF31FEC0DFD1DA00FB11FA60FB71FF6
:105A90001C968C9181838881998101969983888352
:105AA00068817981F501A081B181F70180819181BF
:105AB00001968A1B9B0B68177907F8F2DF91CF914B
:105AC0001F910F91FF90EF90DF90CF90BF90AF901C
:105AD00008953F924F925F926F927F928F929F9222
