:100000000C94CB000C941C6E0C944D6E0C947E6E74
:100010000C94AF6E0C94E06E0C94116F0C94426FC4
:100020000C94736F0C94F5000C94F5000C94F5008F
:100030000C948F030C94F5000C94F5000C944D0275
:100040000C94F5000C94F5000C94F5000C94F5005C
:100050000C94F5000C94F5000C94F5000C94280217
:100060000C94F5000C9432700C94F5000C94F5008F
:100070000C94F5000C94F5000C94F5000C94F5002C
:100080000C94F5000C94F5000C94F5000C94F5001C
:100090000C9473700C94F5000C94F5000C94BC6CEB
:1000A0000C94F5000C94F5000C94F5000C94F500FC
:1000B0000C94F5000C94F5000C94F5000C94F500EC
:1000C0000C94F5000C94F5000C94F5000021242705
:1000D0002A2D3033002225282B2E313400202326D0
:1000E000292C2F3205050505030303030101010433
:1000F00004030606060606060606010405010501B8
:1001000003020202020202010202050504040304C2
:1001100004010304070707010208101020408004AF
:1001200008102040020204081020408001028020B4
:100130004004200101020408102001408040800199
:1001400002080408800410040201000008090000ED
:10015000000000000000000000000000000000009F
:10016000000000000000000000000000000000008F
:1001700000000000000000000000000000002F044C
:100180000307700D4810F910DF18E418EA1A2C1B49
:10019000596B896B517211241FBECFEFD1E2DEBFC4
:1001A000CDBF1EE0A0E0B2E0E0E1FEEF00E00BBF5B
:1001B00002C007900D92A83EB107D9F718E1A8EE4A
:1001C000BEE001C01D92AF32B107E1F711E0C6E910
:1001D000D1E004C02297FE010E941278CE37D107E9
:1001E000C9F70E9421020C94067F0C940000CF9363
:1001F000DF9389E590E160E072E00E946E190E9451
:100200009E06BC0189E590E10E943A1989E590E1DA
:1002100064E172E00E94681981E190E10E94EC13B0
:10022000BC0189E590E10E946E196091A214709161
:10023000A3148DEB9FE00E94220EC82FD0E02097E0
:1002400059F089E590E16FE172E00E94681989E553
:1002500090E1BE010E943A1989EE9EE061E070E0F3
:100260000E94DD05C82FD0E0209759F089E590E184
:1002700064E572E00E94681989E590E1BE010E9480
:100280003A194091A2145091A3148DE49FE066EABC
:100290007EE00E94F908C82FD0E0209759F089E548
:1002A00090E164E872E00E94681989E590E1BE017E
:1002B0000E943A1989E590E168EB72E00E946E199C
:1002C0000E949E06BC0189E590E10E943A1989EEE0
:1002D0009EE00E94C004C82FD0E0209759F089E525
:1002E00090E160EC72E00E94681989E590E1BE013E
:1002F0000E943A190E949E06BC0189E590E10E9485
:100300003A1968E873E180E090E00E948A02DF9188
:10031000CF910895EF92FF920F931F9389E590E19B
:100320000E947C1989E590E167EE72E00E946E19E7
:100330000E949E06BC0189E590E10E943A1989EE6F
:100340009EE06EEA7EE046EA5EE024EF32E00E9444
:100350002C06882331F089E590E169EF72E00E9474
:100360006E190E949E06BC0189E590E10E943A192F
:1003700081E190E166E173E00E945C1281E190E12D
:100380000E94EC13BC0189E590E10E946E190E9465
:100390009E06BC0189E590E10E943A198DB79EB78F
:1003A0000C970FB6F8949EBF0FBE8DBFEDB7FEB78A
:1003B00031968EE9E82E81E1F82EADB7BEB71296E0
:1003C000FC92EE92119704E010E01383028381E027
:1003D00090E09583848388E090E09783868382E031
:1003E00090E091878087138702870E94D06AEDB7DB
:1003F000FEB73196ADB7BEB71296FC92EE9211974A
:10040000138302838EE190E09583848384E190E0FE
:100410009783868382E390E09187808784E690E0EB
:10042000938782870E948C678DB79EB70C960FB614
:10043000F8949EBF0FBE8DBF1F910F91FF90EF905C
:1004400008950E94D2020E948A010E94F700FDCF07
:100450001F920F920FB60F9211248F939F93AF9319
:10046000BF938091A3159091A415A091A515B0916B
:10047000A6150196A11DB11D8093A3159093A415F7
:10048000A093A515B093A615BF91AF919F918F91A1
:100490000F900FBE0F901F9018951F920F920FB6DE
:1004A0000F9211248F939F93AF93BF938091A715C1
:1004B0009091A815A091A915B091AA150196A11D1A
:1004C000B11D8093A7159093A815A093A915B0937B
:1004D000AA15BF91AF919F918F910F900FBE0F9072
:1004E0001F9018956091A3157091A4158091A51582
:1004F0009091A61527E0660F771F881F991F2A95F0
:10050000D1F72EE330E040E050E00E94D377CA01FB
:10051000B9010895AF92BF92CF92DF92EF92FF920E
:100520000F931F935B016C016091A3157091A4154B
:100530008091A5159091A61547E0660F771F881F3B
:10054000991F4A95D1F72EE330E040E050E00E9439
:10055000D37779018A016091A3157091A4158091D8
:10056000A5159091A61537E0660F771F881F991F74
:100570003A95D1F72EE330E040E050E00E94D37787
:100580002E193F09400B510B2A153B054C055D0503
:1005900010F31F910F91FF90EF90DF90CF90BF90DD
:1005A000AF900895789484B7877F84BF1092A31585
:1005B0001092A4151092A5151092A61584B582600C
:1005C00084BD84B5816084BD85B5826085BD85B5F7
:1005D000816085BDEEE6F0E0808181608083E1E8A6
:1005E000F0E0808182608083808181608083E0E8A8
:1005F000F0E0808181608083E1EBF0E080818460C5
:100600008083E1E9F0E0808184608083E0EBF0E0CA
:10061000808181608083E0E9F0E080818160808377
:10062000E4E6F0E080818E7F8083ECE7F0E080817B
:100630008F778083808180648083EAE7F0E0808127
:1006400084608083808182608083808180688083F1
:100650001092C1001092C90008959091E80E982B55
:100660009093E80E80FF32C0809164008E7F80936B
:10067000640080917C008F7780937C0080917C0067
:10068000806480937C0080917A00846080937A00FB
:1006900080917A00826080937A0080917A008068ED
:1006A00080937A00809164008F77809364008091BA
:1006B00064008B7F80936400809164008D7F8093C1
:1006C0006400809165008E7F809365000895282FD7
:1006D00020959091E80E92239093E80E80FF1EC023
:1006E00080917A008F7780937A0080916400816096
:1006F000809364008091640080688093640080919E
:1007000064008460809364008091640082608093C0
:1007100064008091650081608093650008951F9258
:100720000F920FB60F920BB60F9211242F933F9397
:100730004F935F936F937F938F939F93AF93BF93E9
:10074000EF93FF93F89481E08093B60EE0E6F0E03B
:1007500080818068808380818F7B808383E060E0FC
:100760000E94E4037894FF91EF91BF91AF919F9124
:100770008F917F916F915F914F913F912F910F904A
:100780000BBE0F900FBE0F901F901895282F30E0D2
:10079000C901895E9E4FFC0194912C513F4FF90194
:1007A0008491882381F0E82FF0E0E453FF4FE49137
:1007B000F0E0662329F48081909589238083089551
:1007C0008081892B80830895482F50E0CA01865B81
:1007D0009E4FFC012491CA01895E9E4FFC019491B9
:1007E0004C515F4FFA0134913323C1F1222331F18F
:1007F000233021F4809180008F7705C0243031F4BC
:10080000809180008F7D8093800018C0213019F482
:1008100084B58F7704C0223021F484B58F7D84BDE8
:100820000DC0263021F48091B0008F7705C02730AD
:1008300029F48091B0008F7D8093B000E32FF0E029
:10084000EC52FF4FE491F0E0662329F4808190950B
:100850008923808308958081892B8083089508955A
:10086000BF92CF92DF92EF92FF920F931F937B0183
:10087000B42E890181E090E064EB70E00E9416786C
:100880006C01FC0110868AE790E0C80ED91EF601C3
:10089000108282E090E0C80ED91EF601B08212925A
:1008A0006F0185E89FEFC80ED91E109211138EE9D3
:1008B00091E1B60140E00E94F1578EE991E1B60165
:1008C000A701980101E0EE240E94EC588EE991E125
:1008D000B6010E94494F10917A13C6010E94DF7839
:1008E000812F1F910F91FF90EF90DF90CF90BF90DD
:1008F0000895CF92DF92EF92FF920F931F938B0197
:100900007A0181E090E064EB70E00E9416786C015F
:10091000FC0110868AE790E0C80ED91EF60110820D
:1009200082E090E0C80ED91E8CE0F601808312921E
:100930006F0185E89FEFC80ED91E109211138EE942
:1009400091E1B60140E00E94F1578EE991E1B601D4
:10095000A801970101E0EE240E94EC588EE991E194
:10096000B6010E94494F10917A13C6010E94DF78A8
:10097000812F1F910F91FF90EF90DF90CF900895FE
:10098000AF92BF92DF92EF92FF920F931F93CF939C
:10099000DF935C010E9472027B018C0189E590E18A
:1009A0006BE273E00E946E1982E0D82EEFC08AE9F4
:1009B00091E10E94881BDD24D394882309F4E6C0CA
:1009C0008EE991E10E94826280917913882309F077
:1009D000DDC0D6C089E590E16AE473E00E94681941
:1009E000C0E0D0E021C0F501EC0FFD1FAC0FBD1F32
:1009F0001C968C918083E091FD11F0E0EE0FFF1FBB
:100A0000E051FE4E0190F081E02DEC0FFD1F44857A
:100A1000552747FD5095652F752F89E590E120E01A
:100A200030E00E944A192196E091FD11F0E0EE0FAE
:100A3000FF1FE051FE4EA081B181A059BF4F8D91A3
:100A40009C911197A057B040C817D90760F289E56B
:100A500090E162E573E00E946819E091FD11F0E019
:100A6000EE0FFF1FE051FE4E0190F081E02D448516
:100A7000552747FD5095652F752F89E590E120E0BA
:100A800030E00E944A19E091FD11F0E0EE0FFF1FE7
:100A9000E051FE4E0190F081E02D4585552747FD40
:100AA0005095652F752F89E590E120E030E00E9498
:100AB0004A19E091FD11F0E0EE0FFF1FE051FE4EEC
:100AC0000190F081E02D89E590E164850E94E718AE
:100AD000E091FD11F0E0EE0FFF1FE051FE4E01909E
:100AE000F081E02D89E590E165850E94E71889E5B0
:100AF00090E165E573E00E946819E091FD11F0E076
:100B0000EE0FFF1FE051FE4E0190F081E02DE45802
:100B1000FF4F608189E590E170E00E943A19E09111
:100B2000FD11F0E0EE0FFF1FE051FE4EA081B181FC
:100B3000A458BF4FEC91AC57B040F0E0EE0FFF1F50
:100B4000EF53F14F0190F081E02DCD010995E09137
:100B5000FD11F0E0EE0FFF1FE051FE4E808191810C
:100B60000E94DF788091FD11E82FF0E0EE0FFF1F6B
:100B7000E051FE4E1182108281508093FD11DD24E0
:100B80008091FD11882309F025CF0CC00E947202CC
:100B90006E197F09800B910B60527E44804090401B
:100BA00008F405CF8D2DDF91CF911F910F91FF900C
:100BB000EF90DF90BF90AF900895EF92FF920F9368
:100BC0001F93CF93DF93EB010E9472027B018C0194
:100BD00006C060E777E180E090E00E948A028EE93B
:100BE00091E10E943F6480917814882379F10E94FA
:100BF00072026E197F09800B910B60527E44804017
:100C0000904020F5209759F7E4CF8EE991E10E94BA
:100C10005F6480916C14882341F489E590E162E877
:100C200073E00E946E1981E00AC08EE991E160E0F4
:100C30000E94A1648EE991E10E94264580E0DF9147
:100C4000CF911F910F91FF90EF90089580917814AC
:100C50008823D9F282E0F3CFAF92BF92CF92DF9296
:100C6000EF92FF920F931F936C018B015A01790150
:100C70008EE991E162E041E021E00E9476658EE933
:100C800091E10E9403648EE991E10E94B46368EEF1
:100C900073E080E090E00E948A028EE991E1B80161
:100CA0000E946E438EE991E16FE34FEF0E946E4424
:100CB0008EE991E163E00E94A1518EE991E161E04A
:100CC0000E94A1648EE991E1B7010E94EF408EE994
:100CD00091E10E9426458EE991E10E94E26368EB72
:100CE0007BE080E090E00E948A028EE991E10E9420
:100CF00003648EE991E10E94B463C60160E070E094
:100D00000E94DD05182F81E190E10E943C1481E1F1
:100D100090E160E140E00E94F8138EE991E1B501B5
:100D20000E947C65111111E0812F1F910F91FF909E
:100D3000EF90DF90CF90BF90AF900895DF93CF9367
:100D400000D0CDB7DEB720912B1830912C18CE01F2
:100D500001962115310519F48F52984102C0821B6A
:100D6000930B9A83898389819A810F900F90CF91F9
:100D7000DF910895FB01DA01948114968C91149708
:100D80009817A1F4958115968C911597981771F481
:100D9000968116968C911697981741F420E09781CA
:100DA00017968C91981719F421E001C020E0822F4A
:100DB0000895CF93DF93EC01DB0190E030E05FEF2B
:100DC0004EEF18C0FE01E30FF11D2485E92FF0E07E
:100DD000892F8F5F222349F4EA0FFB1F5083FD0107
:100DE000E80FF11D40839E5F04C0EA0FFB1F2083C4
:100DF000982F3F5F8B85381728F3A90FB11D1C92E0
:100E0000DF91CF91089508950F931F9309E51FE097
:100E100084E6D8011D928A95E9F7EDB7FEB73A97B7
:100E20000FB6F894FEBF0FBEEDBF3196ADB7BEB79B
:100E300012961C930E93119780EA93E0938382831A
:100E400089EC92E19583848381EB93E09783868399
:100E50008CE090E0918780870E94197CEDB7FEB707
:100E60003A960FB6F894FEBF0FBEEDBF89EE9EE036
:100E700066E974E1A8010E9479041F910F91089519
:100E80000F931F9309E51FE084E6D8011D928A9510
:100E9000E9F7EDB7FEB73A970FB6F894FEBF0FBE6D
:100EA000EDBF3196ADB7BEB712961C930E93119756
:100EB00080EA93E09383828389EC92E19583848333
:100EC00081EB93E0978386838AE090E09187808727
:100ED0000E94197CEDB7FEB73A960FB6F894FEBFA4
:100EE0000FBEEDBF89EE9EE066E974E1A8010E94A5
:100EF00079041F910F9108950F931F9309E51FE047
:100F000084E6D8011D928A95E9F7EDB7FEB73A97C6
:100F10000FB6F894FEBF0FBEEDBF3196ADB7BEB7AA
:100F200012961C930E93119780EA93E09383828329
:100F300089EC92E19583848381EB93E097838683A8
:100F400088E090E0918780870E94197CEDB7FEB71A
:100F50003A960FB6F894FEBF0FBEEDBF89EE9EE045
:100F600066E974E1A8010E9479041F910F91089528
:100F70000F931F9309E51FE084E6D8011D928A951F
:100F8000E9F7EDB7FEB73A970FB6F894FEBF0FBE7C
:100F9000EDBF3196ADB7BEB712961C930E93119765
:100FA00080EA93E09383828389EC92E19583848342
:100FB00081EB93E09783868386E090E0918780873A
:100FC0000E94197CEDB7FEB73A960FB6F894FEBFB3
:100FD0000FBEEDBF89EE9EE066E974E1A8010E94B4
:100FE00079041F910F9108950F931F9309E51FE056
:100FF00084E6D8011D928A95E9F7EDB7FEB73A97D6
:101000000FB6F894FEBF0FBEEDBF3196ADB7BEB7B9
:1010100012961C930E93119780EA93E09383828338
:1010200089EC92E19583848381EB93E097838683B7
:1010300084E090E0918780870E94197CEDB7FEB72D
:101040003A960FB6F894FEBF0FBEEDBF89EE9EE054
:1010500066E974E1A8010E9479041F910F91089537
:101060000F931F938DB79EB70A970FB6F8949EBF44
:101070000FBE8DBFEDB7FEB7319609E51FE0ADB7E6
:10108000BEB712961C930E93119780EA93E0938358
:10109000828389EC92E19583848381EB93E097834B
:1010A000868382E090E0918780870E94197C8DB7CB
:1010B0009EB70A960FB6F8949EBF0FBE8DBF89EEFD
:1010C0009EE066E974E1A8010E9479041F910F91E6
:1010D00008950F931F9309E51FE084E6D8011D9240
:1010E0008A95E9F700D000D000D0EDB7FEB7319671
:1010F000ADB7BEB712961C930E93119785ED93E092
:101100009383828389EC92E1958384830E94197C86
:10111000EDB7FEB736960FB6F894FEBF0FBEEDBF23
:1011200089EE9EE066E974E1A8010E9479041F91AE
:101130000F910895EF92FF920F931F938C0184E615
:1011400090E061E070E00E941678F92E282F392F88
:10115000E82E00591F4FD8014D915C910057104067
:10116000D801C901FC01480F591F04C01B968C917E
:101170001B9781931196E417F507C1F709E51FE066
:1011800084E6F80111928A95E9F78DB79EB7089722
:101190000FB6F8949EBF0FBE8DBFEDB7FEB7319668
:1011A000ADB7BEB712961C930E93119780E194E0F1
:1011B0009383828389EC92E195838483E682F7822C
:1011C0000E94197CEDB7FEB738960FB6F894FEBFB3
:1011D0000FBEEDBF89EE9EE066E974E1A8010E94B2
:1011E0007904C7010E94DF781F910F91FF90EF9063
:1011F00008954F925F926F927F928F929F92AF92DB
:10120000BF92CF92DF92EF92FF920F931F93DF93E3
:10121000CF930F92CDB7DEB76C012B015A0182E05C
:101220008983D6011B968C931B971C96BC921C97A6
:101230001D964C932CE0822E912C8C0C9D1C07EB60
:101240001EE022E091E0E92EF12C3E010894611CA1
:10125000711CC7018A219B21892B39F0D801ED919E
:10126000FC91C301B401099520E00E5F1F4FBEE061
:10127000073D1B0719F0EE0CFF1CEBCF223009F1E4
:101280002223F9F4F601838590E0880F991F0196D7
:1012900061E070E00E941678182F092FC601612FB7
:1012A000702F0E94D90689EE9EE0B2014AE0212FFC
:1012B000302F0E943004F82E812F902F0E94DF786B
:1012C00002C0FF24F3948F2D0F90CF91DF911F91D7
:1012D0000F91FF90EF90DF90CF90BF90AF909F90D5
:1012E0008F907F906F905F904F900895BF92CF92B4
:1012F000DF92EF92FF920F931F938C016B01B42E3C
:1013000082E0F80183873487258785E090E061E0FB
:1013100070E00E941678F82EE92EC8016F2D7E2D00
:101320000E94D90689EE9EE0B6014B2D2F2D3E2D51
:101330000E943004182F8F2D9E2D0E94DF78812F60
:101340001F910F91FF90EF90DF90CF90BF90089585
:10135000EF92FF920F931F93CF93DF93FC01EF5710
:10136000FF4F81918093500F81918093510F819114
:101370008093520F80818093530F3797C4E5DFE04D
:10138000819189938FE0C835D807D1F78E010B5032
:10139000104038EFE32E3FEFF32EEC0EFD1EC80198
:1013A000B70146E954E10E94BA062196882371F0FC
:1013B00020919F143091A0143093590F20935A0F0D
:1013C000C801B70144E00E9476092AC084E6DE0124
:1013D0001D928A95E9F700D000D000D0EDB7FEB796
:1013E0003196ADB7BEB71296DC93CE93119785E4D4
:1013F00094E09383828389EC92E1958384830E94B5
:10140000197CEDB7FEB736960FB6F894FEBF0FBE47
:10141000EDBF89EE9EE066E974E1AE010E947904B9
:10142000DF91CF911F910F91FF90EF9008950F934F
:101430001F93CF93DF93FC01EF57FF4F8191809370
:10144000500F81918093510F81918093520F808131
:10145000E458F0408093530FEF01C358DF4FA4E5E9
:10146000BFE089918D938FE0A835B807D1F78485C7
:10147000992787FD9095782F66278585992787FD81
:101480009095680F791F70934F0F60934E0FA09146
:10149000A114E0919F14F091A01440E021E030E00D
:1014A00051E00EC0C9018E239F23892B31F4C9015D
:1014B00086239723892B09F050E0220F331F4F5FBB
:1014C0004A1780F3552351F489EE9EE066E974E1F2
:1014D0004FE854E00E94790481E055C08DEB9FE015
:1014E0000E94220E882319F540914E0F50914F0F04
:1014F0008DE49FE060E57FE00E94F908882309F40D
:1015000042C009E51FE084E6D8011D928A95E9F7FB
:1015100000D000D000D0EDB7FEB73196ADB7BEB762
:1015200012961C930E9311978FEC94E015C009E569
:101530001FE084E6D8011D928A95E9F700D000D01B
:1015400000D0EDB7FEB73196ADB7BEB712961C937B
:101550000E9311978CEF94E09383828389EC92E150
:10156000958384830E94197CEDB7FEB736960FB63B
:10157000F894FEBF0FBEEDBF89EE9EE066E974E110
:10158000A8010E947904DF91CF911F910F910895D6
:101590000F931F93CF93DF93FC0114850585EF57BD
:1015A000FF4F81918093500F81918093510F8191D2
:1015B0008093520F8081E458F0408093530FDF01F5
:1015C000A358BF4FC4E5DFE08D9189938FE0C83504
:1015D000D807D1F73C968EE991E1BF010E9444699A
:1015E0008823E1F0FE01319684E6DF011D928A95A1
:1015F000E9F700D000D0ADB7BEB71296FC93EE93DA
:10160000119780E395E014969C938E9313970E9414
:10161000197C0F900F900F900F9014C0212F33273B
:1016200027FD3095322F2227802F992787FD90950F
:10163000280F391FCE010B97BE016850704048E05B
:101640000E947609DF91CF911F910F910895FF922B
:101650000F931F93CF93DF93FC016485772767FD7A
:101660007095762F66278585992787FD9095680F59
:10167000791F8EE991E10E94CB67C9E5DFE08823FD
:1016800041F59091A6148091A7148093590F9093DF
:101690005A0F82E08093580F85E090E061E070E09F
:1016A0000E941678182F092FCE010C97612F702FEA
:1016B0000E94D90689EE9EE066E974E146E0212F9A
:1016C000302F0E943004F82E812F902F0E94DF7857
:1016D0002BC084E6DE011D928A95E9F700D000D088
:1016E00000D0EDB7FEB73196ADB7BEB71296DC931A
:1016F000CE9311978DE695E09383828389EC92E1F6
:10170000958384830E94197CEDB7FEB736960FB699
:10171000F894FEBF0FBEEDBF89EE9EE066E974E16E
:10172000AE010E947904F82E8F2DDF91CF911F9189
:101730000F91FF900895EF92FF920F931F93DF9305
:10174000CF9300D0CDB7DEB78C0189E590E16AEC8C
:1017500075E00E946E190F571F4FD8018D9180932D
:10176000500FFD0181918093510FDF018D918D010B
:101770008093520F8C91045810408093530FF801BE
:10178000E358FF4F24E5E22E2FE0F22E8191D7019E
:101790008D937D01B8E5EB16BFE0FB06B9F7F801C4
:1017A0008485898385858A8389E590E167ED75E085
:1017B0000E946E1989E590E1D8011C966C910E94F7
:1017C000FD1889E590E1F80165850E94FD1889E51D
:1017D00090E163EE75E00E946819D8011C967C9137
:1017E00089E590E160E00E9432190EE911E1C8013B
:1017F000BE016F5F7F4F0E94A76A89E590E169EEA5
:1018000075E00E946E1960919F147091A01489E593
:1018100090E10E94321989E590E168EF75E00E943D
:10182000681900D000D000D0EDB7FEB73196ADB743
:10183000BEB712961C930E93119781E090E09383AC
:10184000828388E090E0958384830E94D06AEDB71C
:10185000FEB736960FB6F894FEBF0FBEEDBF2091CF
:101860009F143091A014C7010B9748EF5FEFE40E6F
:10187000F51EB70142E00E9476090F900F90CF91BC
:10188000DF911F910F91FF90EF900895EF92FF92DB
:101890000F931F937C018B014091F10F5091F20F38
:1018A0006091F30F7091F40F8DEB9FE020E130E039
:1018B0000E94BD0DF7019081F801E90FF11D209103
:1018C000F50F20839F5FF7019083090F111D209171
:1018D000F60FF80120839F5FF70190839091580FD6
:1018E0009E5F9093580F1F910F91FF90EF90089576
:1018F000EF92FF920F931F937C018B016091EE0F8B
:101900007091EF0F80E090E00E946876AB01BC011F
:101910008DEB9FE028E030E00E94BD0DF701908143
:10192000090F111D2091F00FF80120839F5FF7012F
:1019300090839091580F9F5F9093580F1F910F9134
:10194000FF90EF900895EF92FF920F931F937C0109
:101950008B014091E80F5091E90F6091EA0F70916F
:10196000EB0F8DEB9FE024E030E00E94BD0DF7010E
:101970009081F801E90FF11D2091EC0F20839F5F0A
:10198000F7019083090F111D2091ED0FF8012083BD
:101990009F5FF70190839091580F9E5F9093580F2F
:1019A0001F910F91FF90EF900895EF92FF920F9388
:1019B0001F937C018B014091E30F5091E40F6091E4
:1019C000E50F7091E60F8DEB9FE022E030E00E9482
:1019D000BD0DF7019081090F111D2091E70FF8014E
:1019E00020839F5FF70190839091580F9F5F9093A2
:1019F000580F1F910F91FF90EF900895EF92FF9273
:101A00000F931F937C018B014091DD0F5091DE0FEE
:101A10006091DF0F7091E00F8DEB9FE021E030E0EF
:101A20000E94BD0DF7019081F801E90FF11D209191
:101A3000E10F20839F5FF7019083090F111D209113
:101A4000E20FF80120839F5FF70190839091580F78
:101A50009E5F9093580F1F910F91FF90EF90089504
:101A6000FC011382128282EC9FE0918380831782B3
:101A7000168282E79FE0958384831386128682E232
:101A80009FE0918780871786168682E190E195878F
:101A90008487138A128A84EA9EE0918B808B178A4E
:101AA000168A8DE69DE0958B848B138E128E8EE6C2
:101AB0009DE0918F808F178E168E8FE69DE0958F1B
:101AC000848FFA9620E08091A6149091A7148193B8
:101AD00091932F5F2830B9F70895089508950895D8
:101AE0008DEB9FE00E94300D0895AF92BF92DF9280
:101AF000EF92FF920F931F93CF93DF935C0121E04E
:101B0000E22EF12C65ED77E0DD248091A214909116
:101B1000A3148E219F21EB012196892BC9F00D2D55
:101B200010E0035E1F4F000F111F0A0D1B1D8EE9F1
:101B300091E1F80140810E941C66F80141818EE923
:101B400091E1BE010E941C66BE016F5F7F4F01C024
:101B5000BE016F5F7F4FF7E0663F7F0720F4D394AD
:101B6000EE0CFF1CD2CFDF91CF911F910F91FF9010
:101B7000EF90DF90BF90AF900895CF93DF93EC018B
:101B80002430310561F12530310544F4213031052F
:101B900069F02230310509F04BC01BC028303105F7
:101BA00089F12031310509F043C033C0CB01BA01BE
:101BB00020E030E040E252E40E946C7520E030E02A
:101BC00048EC52E40E941E770E943C767CA36DA3F1
:101BD00026C0CB01BA010E943C766AA718C0CB018F
:101BE000BA0120E030E048EC52E40E941E7720E089
:101BF00030E543E457E40E946B750E943C767FA772
:101C000068AB0DC0CB01BA010E943C766BAB80E0A3
:101C100016C0CB01BA010E943C7678AF69AF80E074
:101C2000372F20E0260F311D6217730739F407C0E4
:101C300089E590E16AEF75E00E946E1981E0DF911D
:101C4000CF910895DF92EF92FF920F931F93CF935E
:101C5000DF93EC017B016115710511F481E06CC02B
:101C600068307105D9F48E859F852C853D8580FF70
:101C70000EC0FC01F595E795EC0FFD1F0190F0817A
:101C8000E02DE20FF31F0190F081E02D01C0F9017A
:101C9000959587958C0F9D1F09954DC088E590E11E
:101CA0000E94921888E590E160E00E946A1864E65C
:101CB00070E080E090E00E948A0201E010E0DD2404
:101CC00032C0C8018E219F21892B51F18D2D90E0CA
:101CD000880F991F880F991FFE01E80FF91F2281B5
:101CE0003381DC0120FF12C0F901F595E795EC0F77
:101CF000FD1FAC0FBD1F0190F081E02D8D919C91D7
:101D0000E80FF91F0190F081E02D04C0AC0FBD1F5A
:101D1000ED91FC9135952795CE01820F931F099582
:101D2000000F111FD3948091A414D81650F288E5A7
:101D300090E10E948E1880E0DF91CF911F910F916A
:101D4000FF90EF90DF900895CF92DF92EF92FF9295
:101D50000F931F93CF93DF936C0180E090E0A0E09E
:101D6000B0E0F60184AB95ABA6ABB7AB89E590E1EB
:101D70006CE076E00E946E1988E590E164E070E026
:101D800041E00E94561888E590E160E044E050E0B0
:101D90000E94B4140E9472027B018C0106C088E587
:101DA00090E164E070E00E9456160E9472026E1983
:101DB0007F09800B910B605375478040904078F30A
:101DC000C0E0D0E0F601E4A8F5A806A917A988E5C7
:101DD00090E164E070E00E9456169B01AC01C801DE
:101DE000B7010E946C75F60164AB75AB86AB97AB1F
:101DF0002196C330D10531F788E590E161E044E0F8
:101E000050E00E94B414F60164A975A986A997A9A7
:101E100020E030E040E450E40E94D47520E030E05F
:101E20004AE754E40E941E77F60164AB75AB86ABBB
:101E300097ABDF91CF911F910F91FF90EF90DF90C3
:101E4000CF900895CF92DF92EF92FF920F931F935E
:101E5000CF93DF936C0180E090E0A0E0B0E0F6016A
:101E600083A794A7A5A7B6A788E590E160E042E024
:101E700050E00E94B414C0E0D0E0F601E3A4F4A462
:101E800005A516A588E590E162E070E00E9456166F
:101E90009B01AC01C801B7010E946C75F60163A7F4
:101EA00074A785A796A72196C330D10531F720E006
:101EB00030E040E450E40E94D475F60163A774A7B3
:101EC00085A796A788E590E161E042E050E00E9496
:101ED000B414DF91CF911F910F91FF90EF90DF909D
:101EE000CF900895CF92DF92EF92FF920F931F93BE
:101EF000CF93DF936C0180E090E0A0E0B0E0F601CA
:101F000086A397A3A0A7B1A788E590E160E041E090
:101F100050E00E94B414C0E0D0E0F601E6A0F7A0C3
:101F200000A511A588E590E161E070E00E945616D9
:101F30009B01AC01C801B7010E946C75F60166A354
:101F400077A380A791A72196C330D10531F720E070
:101F500030E040E450E40E94D475F60166A377A314
:101F600080A791A788E590E161E041E050E00E9400
:101F7000B414DF91CF911F910F91FF90EF90DF90FC
:101F8000CF900895CF92DF92EF92FF920F931F931D
:101F9000CF93DF936C0180E090E0A0E0B0E0F60129
:101FA00080A391A3A2A3B3A388E590E160E040E001
:101FB00050E00E94B414C0E0D0E0F601E0A0F1A02F
:101FC00002A113A188E590E160E070E00E9456163E
:101FD0009B01AC01C801B7010E946C75F60160A3BA
:101FE00071A382A393A32196C330D10531F720E0DA
:101FF00030E040E450E40E94D475F60160A371A380
:1020000082A393A388E590E161E040E050E00E9464
:10201000B414DF91CF911F910F91FF90EF90DF905B
:10202000CF900895CF92DF92EF92FF920F931F937C
:102030006C01FC0112AA11AA9FE0E92E90E1F92E91
:10204000C7010E945610082F10E0F60112AB01AB39
:10205000C7010E945610080F111DF60112AB01AB0B
:10206000C7010E9456109801280F311DC90163E075
:1020700070E00E94AC77F60172AB61AB1F910F91DB
:10208000FF90EF90DF90CF9008950C9400F00895AA
:10209000089589E261E00E94C60388E261E00E943F
:1020A000C6038CE095E10E948A6B0895EF92FF923F
:1020B0000F931F9389E161E00E94C60389E161E00B
:1020C0000E94E40380E00E94A46FAA2797FDA095D8
:1020D000BA2FBC01CD010E946A767B018C0120E001
:1020E00030E040E054E40E94D075882334F489E164
:1020F00060E00E94E40310E046C0C801B70120E0A0
:1021000030EC42E254E40E941A77181634F489E164
:1021100060E00E94E40314E636C0C801B70120E085
:1021200030EC42E254E40E94D0751816BCF0C801AD
:10213000B70120E030EC47E054E40E941A7718160B
:102140006CF4C801B70125E535E545E55FE30E947C
:102150001E7720E030E04DED53E40CC0C801B7011C
:1021600020E030E040EA5EE30E941E7720E030E0AD
:1021700040E253E40E946B750E943C76162F89E181
:1021800060E00E94E403812F1F910F91FF90EF9078
:102190000895FC01138A148A158A168A178A108EEC
:1021A000118E128E138E148E158E168E178E10A20F
:1021B00011A212A280E090E0A0E0B0E083A394A37B
:1021C000A5A3B6A30895262F862F6AE00E94A077C4
:1021D000492F30E0C901841B91096AE070E00E9438
:1021E000C077E4E0660F771FEA95E1F7842F862B2E
:1021F00008950895CF93DF93EC018D89843009F41D
:102200005FC0853048F4823059F1833008F040C017
:10221000813009F0D2C00AC0863009F481C086300E
:1022200008F466C0873009F0C8C092C08DB79EB769
:1022300042970FB6F8949EBF0FBE8DBFEDB7FEB7A5
:102240003196A896ADB7BEB71296DC93CE93119790
:10225000A89782E296E09383828386E496E08FC01B
:10226000ADB7BEB752970FB6F894BEBF0FBEADBFA5
:10227000EDB7FEB73196A8961296DC93CE931197E0
:10228000A89782E296E0938382838DE496E077C0FC
:10229000ADB7BEB752970FB6F894BEBF0FBEADBF75
:1022A000EDB7FEB73196A8961296DC93CE931197B0
:1022B000A89782E296E09383828384E596E05FC0EC
:1022C000ADB7BEB752970FB6F894BEBF0FBEADBF45
:1022D000EDB7FEB73196A8961296DC93CE93119780
:1022E000A89782E296E0938382838CE596E047C0CC
:1022F000ADB7BEB752970FB6F894BEBF0FBEADBF15
:10230000EDB7FEB73196A8961296DC93CE9311974F
:10231000A89782E296E09383828386E696E02FC0B8
:10232000ADB7BEB752970FB6F894BEBF0FBEADBFE4
:10233000EDB7FEB73196A8961296DC93CE9311971F
:10234000A89782E296E0938382838FE696E017C097
:10235000ADB7BEB752970FB6F894BEBF0FBEADBFB4
:10236000EDB7FEB73196A8961296DC93CE931197EF
:10237000A89782E296E09383828386E796E095832E
:1023800084838B89868317828C8980871186898DC7
:10239000828713868E89848715868F89868717861C
:1023A000888D808B118A0E94197C8DB79EB74296CA
:1023B0000FB6F8949EBF0FBE8DBF9E01285D3F4FA4
:1023C000C901DF91CF910895DF92EF92FF920F93B1
:1023D0001F938C01D62EACE0EA2EA5E1FA2EC701A0
:1023E00068E670E00E94686BC7016D2D0E94946BD7
:1023F0000D0D111DC701F80160810E94946BC7018A
:102400000E94BB6B1F910F91FF90EF90DF9008959A
:10241000809120108C7F8093201081E190E16FE00B
:102420000E94E41108950F931F93CF93DF93EC0163
:102430008CE095E168E670E00E94686B8CE095E1C5
:1024400060E070E00E94B86BCE01688D0E94E310DE
:102450008883CE016F890E94E3108983CE016E8943
:102460000E94E3108A838D898B83CE01698D0E943F
:10247000E3108C83CE016C890E94E3108D83CE0122
:102480006B890E94E3108E8300E010E0FE01E00FF4
:10249000F11F8CE095E160810E94946B0F5F1F4FEC
:1024A0000730110599F78CE095E10E94BB6BDF9135
:1024B000CF911F910F910895DC01FB0121812053E1
:1024C000808180533AE0839FC0011124280F5396E6
:1024D0002C9353972481205383818053839FC00181
:1024E0001124280F54962C935497278120538681CA
:1024F0008053839FC0011124280F59962C9359971C
:102500002285205381858053839FC0011124280F89
:1025100055962C9355972585205384858053839F0A
:10252000C0011124280F56962C93569720892053CA
:1025300087858053839FC0011124280F57962C93C1
:1025400057972389205382898053839FC001112488
:10255000280F58962C935897CD010E941312089576
:10256000CF92DF92EF92FF921F93CF93DF937C0184
:10257000162F8CE095E168E670E00E94686B8CE0B5
:1025800095E160E070E00E94B86B8CE095E10E94FC
:10259000BB6B8CE095E168E670E042E150E00E94A0
:1025A000DC6BC0E0D0E0C12EDD241AE009C18CE074
:1025B00095E10E94726B882309F402C18CE095E1D9
:1025C0000E94786B282FF701EC0FFD1F8083C63027
:1025D000D10509F482C0C730D105B8F4C230D105A5
:1025E00009F44EC0C330D10538F4209769F1C130E9
:1025F000D10509F0E4C036C0C430D10509F451C09A
:10260000C530D10508F05BC049C0CA30D10509F416
:102610009BC0CB30D10558F4C830D10509F478C03F
:1026200090E02F70C930D10508F081C064C0CC3073
:10263000D10509F4A7C0CC30D10508F494C0CD3041
:10264000D10509F0BCC0ADC090E054E095958795E8
:102650005A95E1F7819FC00111242F70280FF701CF
:10266000208FADC090E044E0959587954A95E1F7BD
:10267000819FC00111242F70280FF701278B9FC065
:1026800090E034E0959587953A95E1F7819FC001F8
:1026900011242F70280FF701268B91C0F701858B2D
:1026A0008EC090E0B4E095958795BA95E1F7819F4B
:1026B000C00111242F70280FF701218F80C090E0F6
:1026C000A4E095958795AA95E1F7819FC001112413
:1026D0002F70280FF701248B72C090E0F4E09595DD
:1026E0008795FA95E1F7819FC00111242F70280F7B
:1026F000F701238B64C0E4E095958795EA95E1F7AF
:102700008770819FC0011124280FF701228F57C0C5
:1027100090E074E0959587957A95E1F78770819FB1
:10272000C00111242F70280FF701238F48C064E0E7
:10273000959587956A95E1F78370819FC001112473
:10274000280FF701248F3BC090E054E095958795C2
:102750005A95E1F78370819FC00111242F70280FD3
:10276000F701258F2CC090E044E0959587954A9518
:10277000E1F78770819FC00111242F70280FF701A6
:10278000268F1DC090E034E0959587953A95E1F746
:102790008370819FC00111242F70280FF701278FAC
:1027A0000EC090E0B4E095958795BA95E1F78370F7
:1027B000819FC00111242F70280FF70120A32196BB
:1027C000CC16DD0608F0F3CEDF91CF911F91FF907C
:1027D000EF90DF90CF9008950F931F938C0166E0E8
:1027E0000E94B012C8010E94FA101F910F91089523
:1027F0000F931F93CF93DF93EC01042F6FA380E31C
:1028000061E00E94C6031FA1113019F0103199F444
:102810000DC080E361E00E94E403013019F482E01E
:102820008A8B09C0002339F41A8B05C080E360E06D
:102830000E94E4031A8ADF91CF911F910F910895AE
:10284000CF93DF93EC0161E040E00E94F8138091A8
:102850000C15882321F48CE095E10E94DF6BCE01FA
:102860000E940812CE010E94C910CE016DE00E94A4
:10287000B012DF91CF9108950E9420140895882707
:1028800077FD8095982F0E946A7620E030E44EE430
:1028900055E40E941E7720E030EC4FE754E40E949C
:1028A000D4752AE939E949E15FE30E94D47520E053
:1028B00030E042E053E40E946B7520E030E44CE9E4
:1028C00055E40E94D4752CE53FE842EC5DE30E949C
:1028D0006C7520EE3DE240E15CE30E94D475089502
:1028E000882777FD8095982F0E946A7620E030E453
:1028F0004EE455E40E941E7720E030EC4FE754E4AC
:102900000E94D47520E030E04AEF53E40E946B75DA
:1029100020E030E040E251E40E94D4750895882719
:1029200077FD8095982F0E946A7620E030E44EE48F
:1029300055E40E941E7720E030EC4FE754E40E94FB
:10294000D4752AE939E949E15FE30E94D47520E0B2
:1029500030E048E454E40E946B7520E030E048EF3A
:1029600051E40E94D4750895CF93DF93EC01662360
:1029700009F042C04031510509F468C041315105A8
:1029800060F444305105F9F04830510509F45AC05B
:102990004230510509F073C014C040345105A9F00C
:1029A0004134510528F44032510509F068C04CC04B
:1029B00082E040305807D1F04050504109F05FC0EC
:1029C0000AC085E044C088E042C082E061E00E9425
:1029D000E40384E03CC086E061E00E94E40382E01E
:1029E00061E00E94E40381E088834AC08AE061E0FC
:1029F0000E94E40387E02BC0613011F080E040C00A
:102A00004032510519F14132510550F4443051051D
:102A1000C9F040315105C1F04230510581F50CC07B
:102A200082E04030580729F180E140305807B9F082
:102A30004034510521F50DC085E060E00E94E403BB
:102A400081E01EC088E0F9CF89E0F7CF89E061E03E
:102A5000F5CF82E060E00E94E40384E0EECF86E000
:102A600060E00E94E40382E060E00E94E4031882D8
:102A7000E7CF8AE060E00E94E40387E0DECF8FEFDB
:102A8000DF91CF910895EF92FF920F931F93CF9311
:102A9000DF937C0181E06030780709F458C0E1E001
:102AA00061307E0720F46038710551F40CC0F4E009
:102AB00060307F0709F493C06050784009F4BCC0CF
:102AC000CFEFDFEFEBC084E061E00E94E4036EE053
:102AD00070E080E090E00E948A0284E060E00E9462
:102AE000E40364EC73E080E090E00E948A0286E0F8
:102AF00060E00E94E4036AE070E080E090E00E9401
:102B00008A0282E061E00E94E40363E070E080E01A
:102B100090E00E948A0287E00E94A46FEC0162E0CC
:102B200070E080E090E00E948A0282E060E00E9413
:102B3000E40368E070E080E090E00E948A02F70120
:102B40008081882309F4AAC086E061E072C086E033
:102B500060E00E94E40364E070E080E090E00E94A6
:102B60008A0284E061E00E94E40362E070E080E0B9
:102B700090E00E948A0282E061E00E94E40365E046
:102B800070E080E090E00E948A0287E00E94A46FDB
:102B9000182F092F82E060E00E94E40367E070E0F4
:102BA00080E090E00E948A0284E060E00E94E403FA
:102BB00062E070E080E090E00E948A02F70180818C
:102BC000882321F086E061E00E94E403812F902FAA
:102BD0009C01E90166EE70E080E090E05DC087E076
:102BE00061E00E94E4036EE070E080E090E00E940B
:102BF0008A0287E060E00E94E40364ED73E080E015
:102C000090E00E948A028AE061E00E94E40363E0AF
:102C100070E080E090E00E948A0286E00E94A46F4B
:102C2000EC0162E070E080E090E00E948A028AE0BD
:102C300060E00E94E40332C087E061E00E94E403A8
:102C400062E070E080E090E00E948A028AE061E049
:102C50000E94E40364E070E080E090E00E948A0259
:102C600086E00E94A46FEC0161E070E080E090E0FB
:102C70000E948A028AE060E00E94E40367E070E05C
:102C800080E090E00E948A0287E060E00E94E40316
:102C90006CEE70E080E090E00E948A02CE01DF914D
:102CA000CF911F910F91FF90EF9008950F931F9375
:102CB000CF93DF93EC016032710509F460C061329B
:102CC0007105D0F46230710509F44FC063307105AD
:102CD00038F461157105C9F16130710589F53DC0A0
:102CE0006830710509F449C06031710509F447C0C5
:102CF0006430710529F541C082E06030780709F43D
:102D00006BC082E06130780768F46038710509F4BF
:102D10005BC081E06030780709F45AC06034710507
:102D200079F42FC088E06030780709F45DC080E155
:102D30006030780709F446C06050744009F450C010
:102D400060E070E080E89FEB68C081E00E94A46FC3
:102D5000BC01CE010E94701460C084E00E94A46F88
:102D6000BC01CE010E948F1458C085E00E94A46F60
:102D7000BC01CE010E943F1450C083E02EC082E00F
:102D80002CC086E060E00E94E4036AE070E080E02E
:102D900090E00E948A0287E00E94A46F8C016AE0A2
:102DA00070E080E090E00E948A028881882321F010
:102DB00086E061E00E94E403B801882777FD8095F2
:102DC000982F1DC087E009C0CE0160E870E00FC0F9
:102DD000CE0160E071E00BC086E00E94A46F09C0E4
:102DE000CE0160E074E003C0CE0160E078E00E94B4
:102DF0004315AA2797FDA095BA2FBC01CD010E94CB
:102E00006A7623E333E343E550E40E941E7720E033
:102E100030EC4FE754E40E94D475DF91CF911F91BD
:102E20000F9108950F931F93162F042F80910C1567
:102E3000882321F48CE095E10E94DF6B64E670E06A
:102E400080E090E00E948A028CE095E1612F0E9470
:102E50005E6B8CE095E160E170E00E94B86B802FC2
:102E600090E001979695982F8827979587956CE91C
:102E70007FEF0E94C07760588CE095E10E94946BD0
:102E80008CE095E10E94BB6B80910C15882371F05A
:102E900080912310813051F08FE090E10E94491021
:102EA00081E190E160E141E00E94F8131F910F91F0
:102EB0000895613049F0613028F0623039F06430B3
:102EC00061F408C068E203C06CE201C06EE20E94D7
:102ED000121708956AE20E9412170895DF92EF9286
:102EE000FF920F931F93D62E79018A0180910C15C2
:102EF000882321F48CE095E10E94DF6B64E670E0AA
:102F000080E090E00E948A028CE095E16D2D0E94A5
:102F10005E6B8CE095E160E070E00E94B86BC801E8
:102F2000B70120E030E040E053E40E941E7720E04B
:102F300030E048EC52E40E94D4759B01AC0160E0A3
:102F400070E080E093E40E946B750E943C769B01E8
:102F5000AC018CE095E1622F0E94946B8CE095E1CE
:102F60000E94BB6B80910C15882371F08091231017
:102F7000813051F08FE090E10E94491081E190E1B1
:102F800060E141E00E94F8131F910F91FF90EF90D4
:102F9000DF900895603131F0603241F0683049F4DB
:102FA0006CE201C06EE20E946E1708956AE20E9410
:102FB0006E170895BF92CF92DF92EF92FF920F9318
:102FC0001F93CF93DF936C01EB01B42E780189013D
:102FD000C801B70120E030E048EC52E40E941A77C3
:102FE000181614F480E058C085E68B1510F48EEFA7
:102FF00053C0C038D105D9F1C138D10598F4C031DA
:10300000D10561F1C131D10530F4C430D10519F1D8
:103010002897F9F420C0C032D10501F1C034D105A0
:10302000C1F425C084E0C030D80751F184E0C1303C
:10303000D80740F481E0C030D807C9F0C050D24072
:1030400041F41EC088E0C030D807D1F0C050D04154
:1030500071F08FEF21C0C60160E01AC0C60168E0C0
:10306000A80197010E94CA17C60161E011C0C601FC
:1030700060E1A80197010E94CA17C60162E008C07A
:10308000C60160E2A80197010E94CA17C60164E068
:103090004B2D0E94591781E0DF91CF911F910F9125
:1030A000FF90EF90DF90CF90BF9008950F931F9304
:1030B0006430710529F06830710511F08FEF07C099
:1030C00000E010E020E030E00E94DA1781E01F917C
:1030D0000F910895662321F06130B1F080E00895EA
:1030E0008AE161E00E94E40388E161E00E94E40378
:1030F00080912310882331F481E190E161E041E087
:103100000E94F81381E008958AE160E00E94E403E0
:1031100088E160E00E94E40381E0089561E00E949C
:103120006A18089560E00E946A18089584E061E0DA
:103130000E94C60386E061E00E94C60387E061E06A
:103140000E94C60388E061E00E94C60389E061E056
:103150000E94C6038AE061E00E94C60382E061E04B
:103160000E94C6038AE161E00E94C60388E161E033
:103170000E94C60384E060E00E94E40386E060E011
:103180000E94E40387E060E00E94E40388E060E0DE
:103190000E94E40389E060E00E94E4038AE060E0CA
:1031A0000E94E40382E060E00E94E4038AE160E0C0
:1031B0000E94E40388E160E00E94E403089588E54A
:1031C00090E10E9496180895109259100895FC01FC
:1031D000862F60810E94B47008950F931F938C0115
:1031E0008DE0F80160810E94B4708AE0F80160818E
:1031F0000E94B4701F910F9108950F931F938C013B
:10320000862FF80160810E94B470C8010E94ED18F9
:103210001F910F910895EF92FF920F931F93CF93F9
:10322000DF93EC017A018B0177FF0CC08DE268819E
:103230000E94B47010950095F094E094E11CF11C8C
:10324000011D111DC801B7012AE030E040E050E047
:1032500008810E94DB70DF91CF911F910F91FF9049
:10326000EF900895AB01662757FD6095762F0E9479
:103270000B1908950F931F938C01AB01662757FD1F
:103280006095762F0E940B19C8010E94ED181F91BE
:103290000F9108950F931F93FC01DA018B01211503
:1032A000310529F4842F60810E94B4700EC02A3049
:1032B000310519F40E940B1908C030E040E050E0DD
:1032C000BD01C80100810E94DB701F910F9108951C
:1032D000FC01CB0160810E94C57008950F931F937C
:1032E0008C01CB01F80160810E94C570C8010E9469
:1032F000ED181F910F910895FC0160E076E980E0E0
:1033000090E040810E94D5710895FB0120E030E0FB
:1033100002C02F5F3F4F81918823D9F7C9010895DB
:103320000F931F93CF93DF938B01BA01DA0140E033
:1033300050E0C22FD0E019C0F801E40FF51F8081E2
:10334000982F92959F708F709A3010F4905D01C005
:10335000995C9C938A3010F4805D01C0895C119661
:103360008C9311974F5F5F4F12964C175D0724F3B4
:10337000CC0FDD1FC60FD71F1882DF91CF911F9191
:103380000F91089528E00E94901908958F929F92BE
:10339000AF92BF92CF92DF92EF92FF920F931F9363
:1033A000CF93DF93992401C09394FB01E90DF11DA4
:1033B000808180538A30C0F35B01EE24FF248701B3
:1033C00020C02AE030E040E050E00E94817708947D
:1033D000C11CD11CCC16DD06A4F3282D332727FDF4
:1033E000309520533040442737FD4095542F0E949C
:1033F0008177E60EF71E081F191F9A940894A11CE6
:10340000B11CF5018080882D80538A3050F461E032
:1034100070E080E090E0CC24DD24C92DD0E021973D
:10342000D9CFB701C801DF91CF911F910F91FF90C4
:10343000EF90DF90CF90BF90AF909F908F900895C6
:10344000FB019081892F80538A3038F4292F33274C
:1034500027FD3095205330400DC0892F8154863090
:1034600018F020E030E007C0292F332727FD3095E2
:103470002753304031966081862F80538A3030F454
:10348000772767FD7095605370400CC0862F81547C
:10349000863018F060E070E005C0772767FD709512
:1034A00067537040A4E0220F331FAA95E1F7862FDF
:1034B000820F08956833A1F1693380F4643341F1D8
:1034C000653338F4623301F1633300F56133D1F4CD
:1034D00017C0663309F1673308F51CC0633441F146
:1034E000643438F4613401F1623400F5693351F425
:1034F00019C0653409F16534E8F0663419F41EC06A
:1035000081E01DC080E01BC082E019C083E017C0CD
:1035100084E015C085E013C086E011C087E00FC0CD
:1035200088E00DC089E00BC08AE009C08BE007C0CD
:103530008CE005C08DE003C08EE001C08FE0473312
:10354000A1F1483380F4433341F1443338F441333B
:10355000F1F0423300F54033E1F51BC0453309F18A
:10356000463308F51CC0423441F1433438F4493342
:1035700001F14933E0F0413461F51DC0443409F1F3
:103580004434E8F04534F9F04634F9F0089591E018
:103590001DC090E01BC092E019C093E017C094E0FA
:1035A00015C095E013C096E011C097E00FC098E0F9
:1035B0000DC099E00BC09AE009C09BE007C09CE0F9
:1035C00005C09DE003C09EE001C09FE08295807F22
:1035D000890F08950895CB01642F0E94587E0895A5
:1035E000CB010E94507E08958FE261E00E94C603E5
:1035F00084E261E00E94C60385E261E00E94C603A6
:103600008FE261E00E94E40384E261E00E94E4034F
:1036100085E261E00E94E40308950F931F93162F43
:10362000042F8FE261E00E94C60384E261E00E9401
:10363000C60385E261E00E94C6038FE261E00E945A
:10364000E40384E2612F0E94E40385E2602F0E947C
:10365000E4031F910F91089510929A1110929C11FA
:103660000895EF92FF920F931F93CF93DF93EC0196
:103670007A018B0177FF0CC08DE268810E94B470E3
:1036800010950095F094E094E11CF11C011D111DB2
:10369000C801B7012AE030E040E050E008810E9414
:1036A000DB70DF91CF911F910F91FF90EF90089504
:1036B0000F931F93FC01DA018B012115310529F4C9
:1036C000842F60810E94B47016C02A30310519F42D
:1036D0000E94311B10C02031310529F4842F6081F4
:1036E0000E947D7108C030E040E050E0BD01C8019B
:1036F00000810E94DB701F910F910895FC01808171
:103700000E941E700895FC0180810E94E36F08955D
:10371000FC0180810E94BF6F0895FC0161836130CC
:1037200019F06330B9F518C08081882311F486E15F
:1037300011C08AE590E10E94F41A86E061E00E94DF
:10374000C60386E061E00E94E4038AE261E00E9431
:10375000C6038AE261E005C08081882329F486E1FE
:1037600060E00E94E40308958AE590E160E040E0B3
:103770000E940D1B86E061E00E94C60386E060E0C7
:103780000E94E4038AE261E00E94C6038AE260E0EC
:103790000E94E4030895FC0180810E94B77108959E
:1037A000FC01262F608360E070E0CB01BA01422F5C
:1037B0000E94D57186E161E00E94C60308950F93CF
:1037C0001F93CF93DF93DC018B01EC01C658DD4FD3
:1037D0001982188240E0BE0106C04F5F2F5F3F4F45
:1037E000FB0131832083FB0120813181F801E20F4D
:1037F000F31F8081882389F7469583E090E09983C1
:10380000888390E0ED01C658DD4F50E00BC0FD010C
:10381000E20FF31FE857FD4F8081980F2F5F3F4F56
:1038200039832883288139812417350780F3892F2C
:103830008095A40FB51FA957BD4F8C93DF91CF91F1
:103840001F910F910895AF92BF92CF92DF92EF92A6
:10385000FF920F931F93CF93DF937C018B0106554B
:103860001F4FD8018C910A5A1040F801E855FF4FBC
:10387000813009F024C1C22EDD24DA01AC0DBD1D5A
:1038800083E28C938081813009F446C0813020F03E
:10389000823009F038C2AAC011961C9211970157C4
:1038A0001F4FF80181918F0112968C93129780819E
:1038B0000059104013968C931397F701E658FD4F6B
:1038C00011821082EF01FCE7CF2EF2E0DF2ECE0C4A
:1038D000DF1CB70162587D4FAD010FC0FA01E20F46
:1038E000F31FA00FB11FA20FB31F1C968C918483EE
:1038F0008881998101969983888328813981F6018D
:10390000A081B181FB018081918101968A1B9B0B73
:103910002817390718F3F7C111968C93B701665829
:103920007D4FDB011D921C92EB0110C0FA01EA0FE2
:10393000FB1FEC0DFD1DA00FB11FA557BF4F8C91B4
:10394000828388819981019699838883A881B9812E
:10395000A430B10558F3FB0111821082E701C6586B
:10396000DD4F10C0FA01EA0FFB1FEC0DFD1DA00F8B
:10397000B11FA957BF4F8C91868388819981019689
:1039800099838883A881B981A430B10558F319823D
:103990001882E701C658DD4FECE7AE2EE2E0BE2EFE
:1039A000AE0CBF1C970122583D4F11C0FA01E60F23
:1039B000F71FEC0DFD1DA00FB11FA60FB71F1C9622
:1039C0008C91828788819981019699838883688107
:1039D0007981F501A081B181F90180819181019600
:1039E0008A1B9B0B6817790708F38DC111968C937E
:1039F000C0E0D0E0D701A658BD4F06C0E9016F5F17
:103A00007F4F11967C936E936D917C911197F80185
:103A1000E60FF71FEF56FF4F80819E012F5F3F4F4C
:103A2000833261F71D921C92E701C658DD4F10C02A
:103A3000FA01EA0FFB1FEC0DFD1DA00FB11FAF56E1
:103A4000BF4F8C9182838881998101969983888365
:103A5000A881B981A217B30758F319821882E70128
:103A6000C658DD4F7CE7A72E72E0B72EAE0CBF1C08
:103A70008EE792E0E80EF91E13C0FA01E60FF71F79
:103A8000E20FF31FEC0DFD1DA00FB11FA60FB71F16
:103A90001C968C9182838881998101969983888371
:103AA00068817981F501A081B181F70180819181DF
:103AB00001968A1B9B0B68177907F8F224C1808155
:103AC000813009F446C0813020F0823009F01BC1FA
:103AD000AEC030E0FA01E20FF31F108201571F4F12
:103AE000D8018D918D0181838C9100591040828382
:103AF000F701E658FD4F11821082EF016CE7C62EE8
:103B000062E0D62ECE0CDF1CEEE7F2E0EE0EFF1EDA
:103B100011C0FA01E60FF71FE20FF31FA00FB11F4C
:103B2000A60FB71F1C968C9183838881998101967B
:103B30009983888368817981F601A081B181F70139
:103B40008081918101968A1B9B0B6817790708F386
:103B5000DAC030E0FA01E20FF31F8083B701665844
:103B60007D4FDB011D921C92EB0110C0FA01EA0FA0
:103B7000FB1FE20FF31FA00FB11FA557BF4F8C9182
:103B8000818388819981019699838883A881B981ED
:103B9000A430B10558F3FB0111821082E701C65829
:103BA000DD4F10C0FA01EA0FFB1FE20FF31FA00F59
:103BB000B11FA957BF4F8C91858388819981019648
:103BC00099838883A881B981A430B10558F31982FB
:103BD0001882E701C658DD4F9CE7C92E92E0D92E26
:103BE000CE0CDF1C8EE792E0E80EF91E11C0FA0140
:103BF000E60FF71FE20FF31FA00FB11FA60FB71FAD
:103C00001C968C91818788819981019699838883FC
:103C100068817981F601A081B181F701808191816C
:103C200001968A1B9B0B6817790708F36CC0C22E9C
:103C3000DD24FA01EC0DFD1D8083C0E0D0E0D7014A
:103C4000A658BD4F06C0E9016F5F7F4F11967C9368
:103C50006E936D917C911197F801E60FF71FEF5667
:103C6000FF4F80819E012F5F3F4F833261F71D928E
:103C70001C92E701C658DD4F10C0FA01EA0FFB1F86
:103C8000EC0DFD1DA00FB11FAF56BF4F8C9181836E
:103C900088819981019699838883A881B981A21727
:103CA000B30758F319821882E701C658DD4F8CE735
:103CB000A82E82E0B82EAE0CBF1C8EE792E0E80E74
:103CC000F91E13C0FA01E60FF71FE20FF31FEC0D08
:103CD000FD1DA00FB11FA60FB71F1C968C918183ED
:103CE0008881998101969983888368817981F5011A
:103CF000A081B181F7018081918101968A1B9B0B84
:103D000068177907F8F2DF91CF911F910F91FF901B
:103D1000EF90DF90CF90BF90AF9008953F924F9279
:103D20005F926F927F928F929F92AF92BF92CF924B
:103D3000DF92EF92FF920F931F93DF93CF9300D008
:103D400000D0CDB7DEB76B014A017901AA24A39454
:103D500010E022E730E0C20ED31E21E3422E9DE7A1
:103D6000792E83E3382EBEE56B2EADE55A2E30C199
:103D7000D401A60FB71F8C91813111F090E04AC099
:103D80004C92F70180818F5F80838C917C926F5F72
:103D90007F4F9401260F371F3C832B836150704067
:103DA000FB013296FA83E98320C0EB81FC81B1806C
:103DB000418349815A814F5F5F4F3296FC83EB8389
:103DC00029813A812E5F3F4F3A832983F701808111
:103DD0009801280F311DC901F60120813181820F20
:103DE000931F48175907A8F48B2DEB81FC81408164
:103DF0008083F70180819801280F311DC901F601E8
:103E000020813181820F931F29813A812817390738
:103E100060F291E08C91833109F04DC0992309F053
:103E20004AC03C92F70180818F5F80838C917C92A5
:103E30006F5F7F4F9401260F371F3C832B836150A8
:103E40007040FB013296FA83E98320C0EB81FC814C
:103E5000B180418349815A814F5F5F4F3296FC8325
:103E6000EB8329813A812E5F3F4F3A832983F70103
:103E700080819801280F311DC901F601208131810F
:103E8000820F931F48175907A8F48B2DEB81FC81F3
:103E900040818083F70180819801280F311DC9017D
:103EA000F60120813181820F931F29813A812817E1
:103EB000390760F291E08C918E3709F04DC099235B
:103EC00009F04AC06C92F70180818F5F80838C91EA
:103ED0007C926F5F7F4F9401260F371F3C832B83AB
:103EE00061507040FB013296FA83E98320C0EB8178
:103EF000FC81B180418349815A814F5F5F4F329687
:103F0000FC83EB8329813A812E5F3F4F3A832983DB
:103F1000F70180819801280F311DC901F601208128
:103F20003181820F931F48175907A8F48B2DEB811D
:103F3000FC8140818083F70180819801280F311D29
:103F4000C901F60120813181820F931F29813A81B5
:103F50002817390760F291E02C912D37C1F599238C
:103F6000B1F55C92F70180818F5F80838C912C93F7
:103F70006F5F7F4FF401E60FF71F6F5F7F4F17C032
:103F8000B1804183AB014F5F5F4F32966E5F7F4FD1
:103F9000D7018C919801280F311DC901D6012D91AF
:103FA0003C91820F931F4817590788F48B2D40814D
:103FB0008083D7018C919801280F311DC901D6014A
:103FC0002D913C91820F931F68177907C8F2A39433
:103FD0006A2D70E0F70180819801280F311DC90119
:103FE000D6012D913C91820F931F6817790708F431
:103FF000BFCE0F900F900F900F90CF91DF911F9138
:104000000F91FF90EF90DF90CF90BF90AF909F9077
:104010008F907F906F905F904F903F900895DF92C8
:10402000EF92FF920F931F93CF93DF93890180E06C
:1040300090E0F3E1DF2EEEE7EE2E31E1F32E37C014
:104040002F5F3F4F9C919D3731F011963196241789
:104050003507B0F32DC02417350750F5E901219637
:10406000E60FF71F8181833361F0843318F48133C5
:1040700069F405C08D3549F08E3541F404C0FC92D9
:1040800005C0DC9203C0EC9201C09C9341505040AB
:10409000F901E00FF11FE60FF71F02C08181808355
:1040A0002F5F3F4F3196CE0124173507B8F39C019F
:1040B0002417350738F4F901E00FF11FDB01AE0FCB
:1040C000BF1FC0CFDF91CF911F910F91FF90EF9055
:1040D000DF900895EF92FF920F931F93CF93DF939A
:1040E0008C01EB017A01FC01E658FD4F2D5F3F4F3B
:1040F0003183208323503040A0E0B0E0AF010BC0FB
:10410000FE01E60FF71F8081A80FB11D6F5F7F4F83
:10411000FA0171836083FA01608171816E157F05F8
:1041200078F3AF3FB10521F0AF3F11F081E008C057
:1041300008521E4FC20FD31F8C81F801808380E08C
:10414000DF91CF911F910F91FF90EF900895EF9223
:10415000FF920F931F93CF93DF93EC01CA5BDD4F68
:10416000E8808DEEE80E24978881C254D2408130D9
:1041700009F0C9C0CD5DDE4FF880C352D140FA943A
:104180008E0106581D4FD8011D921C92B8012F2D8B
:1041900030E087E290E0289FA001299F500D389FD2
:1041A000500D11244C0F5D1F11C0FA01EA0FFB1FC7
:1041B000E05AFF4FAC0FBD1FA85BBD4F8C918083B1
:1041C000FB0180819181019691838083FB01A08115
:1041D000B181A230B10548F3D8011D921C92AE0105
:1041E00046585D4F2F2D30E087E290E0289FB001C8
:1041F000299F700D389F700D11246C0F7D1F11C009
:10420000FB01EA0FFB1FEE59FF4FAC0FBD1FA65B72
:10421000BD4F8C918083FA018081918101969183B9
:104220008083FA01A081B181A430B10548F31182E5
:104230001082BE0166587D4F2F2D30E087E290E05E
:10424000289FA001299F500D389F500D11244C0F1D
:104250005D1F12C0FA01EA0FFB1FEA59FF4FAC0FB6
:10426000BD1FA25BBD4F8C918083DB018D919C9122
:10427000119701968D939C93FB01A081B181A4308D
:10428000B10540F387E290E0289FF001299FF00DEF
:10429000389FF00D1124EC0FFD1FEA57FF4FCE5A47
:1042A000DD4F8881C255D2408083E658F040AE0190
:1042B0004A5B5D4FDA018D919C910D9720F1DB01F6
:1042C0001D921C929E0126583D4FBA01AF0111C0AC
:1042D000FA01EA0FFB1FE659FF4FAC0FBD1FAD5AA5
:1042E000BD4F8C918083F9018081918101969183EA
:1042F0008083F901A081B181FB01808191810C97BC
:10430000A817B90728F3CE5BDD4F8881C254D2408D
:104310008250843008F047C1CD5DDE4FF880C35233
:10432000D140FA948E0106581D4FD8011D921C925F
:10433000B8012F2D30E087E290E0289FA001299F4F
:10434000500D389F500D11244C0F5D1F11C0FA0104
:10435000EA0FFB1FE05AFF4FAC0FBD1FA85BBD4F1C
:104360008C918083FB018081918101969183808370
:10437000FB01A081B181A230B10548F3D8011D92A3
:104380001C92AE0146585D4F2F2D30E087E290E041
:10439000289FB001299F700D389F700D11246C0F5C
:1043A0007D1F11C0FB01EA0FFB1FEE59FF4FAC0F41
:1043B000BD1FA65BBD4F8C918083FA0180819181E6
:1043C000019691838083FA01A081B181A430B10567
:1043D00048F311821082AE0146585D4F2F2D30E018
:1043E00087E290E0289FB001299F700D389F700DE3
:1043F00011246C0F7D1F12C0FB01EA0FFB1FEA594D
:10440000FF4FAC0FBD1FA25BBD4F8C918083DA01C3
:104410008D919C91119701968D939C93FA01A081A7
:10442000B181A430B10540F311821082AE0146582B
:104430005D4F0E2D10E02F2D30E087E290E0289F99
:10444000B001299F700D389F700D11246C0F7D1FD6
:1044500012C0FB01EA0FFB1FE659FF4FAC0FBD1F57
:10446000AE5ABD4F8C918083DA018D919C9111974A
:1044700001968D939C93FA01A081B181A017B10799
:1044800040F311821082BE0166587D4F2F2D30E01F
:1044900087E290E0289FA001299F500D389F500D82
:1044A00011244C0F5D1F14C0FA01EA0FFB1FE258E4
:1044B000FF4FAC0FBD1FA00FB11FAD5ABD4F8C9168
:1044C0008083DB018D919C91119701968D939C9334
:1044D000FB01A081B181A230B10530F387E290E009
:1044E000289FD001299FB00D389FB00D1124AC0F2B
:1044F000BD1FA058BF4FFE01EE0DF11DEB5AFD4F41
:1045000081918D9380818C93A158B040FB011182E1
:104510001082AE0146585D4FBD0114C0FB01EA0F89
:10452000FB1FEE57FF4FAC0FBD1FA00FB11FA95AC5
:10453000BD4F8C918083DA018D919C9111970196EA
:104540008D939C93FA01A081B181A230B10530F323
:1045500011821082BE0166587D4F87E290E0289F4D
:10456000A001299F500D389F500D11244C0F5D1F45
:1045700014C0FA01EA0FFB1FEC57FF4FAC0FBD1F31
:10458000A00FB11FA75ABD4F8C918083DB018D9185
:104590009C91119701968D939C93FB01A081B18111
:1045A000A230B10530F3DF91CF911F910F91FF90B1
:1045B000EF900895CF92DF92EF92FF920F931F93A7
:1045C000CF93DF93EC016B017A01B901FC01E6584E
:1045D000FD4F0D5F1F4F1183008303501040A0E07B
:1045E000B0E09F010BC0F601E40FF51F8081A80F1A
:1045F000B11D4F5F5F4FF90151834083F901408145
:1046000051814617570778F3AF3FB10519F0AF3F17
:1046100009F05AC0F601E00FF11F9581D7011596F8
:104620008C911597981709F04FC0968116968C912A
:10463000981709F049C09B01201B310B2930310527
:1046400029F48781882309F442C03EC087818823EA
:10465000D9F5FE01E658FD4F11821082BF012950A5
:10466000304012C0FE01E40FF51FE85BFD4FD6019C
:10467000A40FB51FA00FB11F18968C9180834F5FB8
:104680005F4FFB0151834083DB014D915C914217E9
:10469000530740F3CA5BDD4F39832883C654D240A9
:1046A000F70185818E3491F48681843479F4223047
:1046B000310530F0FE01ED5DFE4F80818F5F80831C
:1046C000CE010E94A72002C081E001C080E0DF91FE
:1046D000CF911F910F91FF90EF90DF90CF900895B1
:1046E000FC01E658FD4F11821082DF010BC0FC0176
:1046F000E20FF31FE857FD4F10822F5F3F4F1196D7
:104700003C932E932D913C9111972E31310578F3E6
:104710000895CF92DF92EF92FF920F931F93CF9362
:10472000DF936C01FC01E658FD4F118210828F016E
:10473000E62EFF24E701CC0FDD1FCC0FDD1FCE0DD1
:10474000DF1D1CC0EC0FFD1F3B96EE0FFF1FEC0D95
:10475000FD1D808191810E94DF78D8018D919C910F
:104760001197FE01E80FF91F3B96EE0FFF1FEC0DAE
:10477000FD1D1182108201968D939C93D801ED91BD
:10478000FC91E530F105F0F28701000F111F0C0DCF
:104790001D1D075B1F4FD801ED91FC9115AA16AAAC
:1047A00017AA10AECF010E94DF78F80111821082A3
:1047B000F601ED5AFF4F808181508083DF91CF91C8
:1047C0001F910F91FF90EF90DF90CF900895AF92DF
:1047D000BF92CF92DF92FF920F931F93CF93DF93FD
:1047E0006C01FF2460E070E08C0106581D4FD80179
:1047F0006D937C93EB01AA96CC0FDD1FCC0DDD1DD4
:1048000023C05F010894A11CB11CA881B981A555E2
:10481000BF4FBB96EE0FFF1FEC0DFD1D0190F08109
:10482000E02DE555FF4F2D913D914D915C9180819B
:104830009181A281B38182179307A407B50754F42D
:10484000F394F801B182A082D801ED91FC91E4309B
:10485000F105B8F2B4E0FB1621F4F62E65E070E045
:1048600002C0F62EF3946F5F7F4F6530710508F438
:10487000BECF0F2D10E0065D1F4F000F111F0C0D56
:104880001D1DF801808191810E94DF78D8011D9261
:104890001C928F2DDF91CF911F910F91FF90DF9090
:1048A000CF90BF90AF900895AF92BF92CF92DF921A
:1048B000FF920F931F93CF93DF936C01FF2460E06F
:1048C00070E08C0106581D4FD8016D937C93EB016D
:1048D000AA96CC0FDD1FCC0DDD1D23C05F0108940F
:1048E000A11CB11CA881B981A555BF4FBB96EE0F85
:1048F000FF1FEC0DFD1D0190F081E02DE555FF4FF0
:104900002D913D914D915C9180819181A281B381E6
:10491000281739074A075B0754F4F394F801B1826A
:10492000A082D801ED91FC91E430F105B8F2B4E039
:10493000FB1621F4F62E65E070E002C0F62EF3942B
:104940006F5F7F4F6530710508F4BECF0F2D10E00B
:10495000065D1F4F000F111F0C0D1D1DF8018081FA
:1049600091810E94DF78D8011D921C928F2DDF91DA
:10497000CF911F910F91FF90DF90CF90BF90AF909C
:1049800008950F931F93CF93DF938C01FC01E6589A
:10499000FD4F11821082EF0116C0BA96EE0FFF1F75
:1049A000E00FF11F808191810E94DF7888819981D9
:1049B0008A96FC01EE0FFF1FE00FF11F118210829B
:1049C000899799838883E881F981E530F10528F397
:1049D000DF91CF911F910F910895AF92BF92CF9227
:1049E000DF92EF92FF920F931F93CF93DF93EC012F
:1049F00009E4A02EB12CA80EB91EEE24FF241AE75C
:104A0000C12E12E0D12EC80ED91ED6011D921C92C5
:104A10008701000F111F000F111F0E0D1F1D1CC05D
:104A2000E00FF11F3B96EE0FFF1FEC0FFD1F808183
:104A300091810E94DF78F60180819181F801E80F71
:104A4000F91F3B96EE0FFF1FEC0FFD1F1182108226
:104A50000196D6018D939C93D601ED91FC91E530A2
:104A6000F105F0F2D501ED91FC9115AA16AA17AA4D
:104A700010AECF010E94DF78F501119211925F0113
:104A80000894E11CF11CF5E0EF16F10409F0BDCF2C
:104A9000CD5ADF4F1882C65ADD4F188222961882EF
:104AA000DF91CF911F910F91FF90EF90DF90CF900A
:104AB000BF90AF900895AF92BF92CF92DF92EF92E6
:104AC000FF920F931F93CF93DF93EC01FC01E3550B
:104AD000FD4F108260E070E01AE7A12E12E0B12EC7
:104AE000A80EB91E7F01D5016D937C938B01000F39
:104AF000111F0C0F1D1F075B1F4F28C0D8018D9180
:104B00009C916F010894C11CD11CF601EE0FFF1F90
:104B1000EC0FFD1FE75BFF4F0190F081E02DDC0102
:104B2000D5962D913D914D915C91D89785A996A9E7
:104B3000A7A9B0AD281739074A075B076CF4F7013E
:104B400080818F5F8083D501CD92DC92D501ED917C
:104B5000FC91E430F10590F2F7018081843021F47A
:104B6000608365E070E004C0862F8F5FD7018C936F
:104B70006F5F7F4F6530710508F4B5CFFE01E658D1
:104B8000FD4F118210828F017DEAE72E72E0F72E31
:104B9000EC0EFD1E2FC0F701808190E0FC01EE0FAE
:104BA000FF1FEE0FFF1FE80FF91FE20FF31F3B96E9
:104BB000EE0FFF1FEC0FFD1F808191810E94DF78B7
:104BC000D7018C9190E0FC01EE0FFF1FEE0FFF1F4D
:104BD000E80FF91FD8018D919C911197E80FF91FEB
:104BE0003B96EE0FFF1FEC0FFD1F11821082019606
:104BF0008D939C93F801208131812530310558F245
:104C0000D701EC91F0E0EE0FFF1FEC0FFD1FE75B0B
:104C1000FF4F0190F081E02D15AA16AA17AA10AE39
:104C2000EC91F0E0EE0FFF1FEC0FFD1FE75BFF4F75
:104C3000808191810E94DF78D701EC91F0E0EE0F46
:104C4000FF1FEC0FFD1FE75BFF4F11821082FE017B
:104C5000ED5AFF4F808181508083C155DD4F18820E
:104C6000DF91CF911F910F91FF90EF90DF90CF9048
:104C7000BF90AF9008952F923F924F925F926F92A4
:104C80007F928F929F92AF92BF92CF92DF92EF92DC
:104C9000FF920F931F93DF93CF93CDB7DEB760974B
:104CA0000FB6F894DEBF0FBECDBF7C016B01FC01D7
:104CB000E658FD4F118210822FEA32E0E20EF31E19
:104CC000D7018C9121E53DEFE20EF31E882311F10F
:104CD000DF0110C0F901EE0FFF1FEE0DFF1DE75BB6
:104CE000FF4F80819181892B59F02F5F3F4F1196A3
:104CF0003C932E932D913C9111972530310550F323
:104D00004DEA52E0E40EF51ED7012C93E3E5FDEFEA
:104D1000EE0EFF1E2AE732E0E20EF31ED7011D92CF
:104D20001C92E8ECFFEFEE0EFF1ED7018C91EEEB2C
:104D3000FDEFEE0EFF1E813079F026E432E0E20E48
:104D4000F31ED7018D919C91EAEBFDEFEE0EFF1E55
:104D50000C9770F50C94353820E832E0E20EF31E23
:104D6000D7018C91E0E8FDEFEE0EFF1E882379F469
:104D700026E432E0E20EF31ED7018D919C91EAEB1E
:104D8000FDEFEE0EFF1E059798F40C943538813038
:104D900079F426E432E0E20EF31ED7018D919C9166
:104DA000EAEBFDEFEE0EFF1E0B9710F40C94353876
:104DB00000E010E06624882477249924B70166581F
:104DC0007D4FE2E44E2EE2E05E2E4E0C5F1C51E879
:104DD000252E52E0352E2E0C3F1C970120583D4FBA
:104DE0003E872D87DB011D921C92F801EE0FFF1FFD
:104DF000EE0DFF1DE75BFF4F0190F081E02D85A9CF
:104E000096A9A7A9B0AD181619061A061B060CF02C
:104E10008CC3D2018C91813009F0D0C1AD85BE85A3
:104E20008C91882309F0E1C0D60114969C911497C7
:104E30008081981709F079C3AA24BB2416968C9117
:104E4000833219F431E0A32EB12C96012A0D3B1DBB
:104E5000D90116968C91DB011D921C928130A9F02C
:104E6000813020F0823009F088C070C09389D90168
:104E700017968C911797981709F07FC09489189608
:104E80008C91981709F079C07CC0FB0111821082C7
:104E9000A801440F551F4E0D5F1D475B5F4F17C0A4
:104EA000FA01A081B181A20FB31FF601E20FF31F37
:104EB000EA0DFB1D1B969C918781981719F0882499
:104EC00083940BC02F5F3F4FDB012D933C93FB017D
:104ED000208131812430310518F3DB011D921C92B1
:104EE000A801440F551F4E0D5F1D475B5F4F14C057
:104EF000FA01A081B181A20FB31FF601E20FF31FE7
:104F0000EA0DFB1D1F969C9183859817A1F52F5FD5
:104F10003F4FDB012D933C93FB01208131812430F5
:104F2000310530F325C0992787FD9095F601E40FF0
:104F3000F51FEA0DFB1D278130E082179307D9F496
:104F40004F5F5F4FFB015183408307C0D801AA0F19
:104F5000BB1FAE0DBF1DA75BBF4FFB014081518141
:104F6000ED91FC911197E40FF51F85898332D9F6F5
:104F7000882039F002C088248394F1E06F1609F08C
:104F8000D4C2702E21E0A216B10479F4E02FF0E033
:104F9000EE0FFF1FEE0DFF1DE75BFF4F0190F0814D
:104FA000E02DD60115968C9182AFE72DF0E0EE0F43
:104FB000FF1FEE0DFF1DE75BFF4FA081B181DB9668
:104FC0008C91DB978F5FDB968C930190F081E02DC5
:104FD000D60112962C91129783A994A9820F911D44
:104FE00094AB83AB15969C90E3C0813009F09DC2D1
:104FF000D6011A969C911A978081981709F095C24C
:10500000AA24BB241C968C91833219F4B1E0AB2EF8
:10501000B12C96012A0D3B1DD9011C968C91DB0108
:105020001D921C928130A9F0813020F0823009F06D
:1050300088C070C09389D9011D968C911D979817CF
:1050400009F07FC094891E968C91981709F079C059
:105050007CC0FB0111821082A801440F551F4E0D28
:105060005F1D475B5F4F17C0FA01A081B181A20F9E
:10507000B31FF601E20FF31FEA0DFB1D1B969C9177
:105080008585981719F0882483940BC02F5F3F4FB4
:10509000DB012D933C93FB012081318124303105CC
:1050A00018F3DB011D921C92A801440F551F4E0DF1
:1050B0005F1D475B5F4F14C0FA01A081B181A20F51
:1050C000B31FF601E20FF31FEA0DFB1D1F969C9123
:1050D00081899817A1F52F5F3F4FDB012D933C93FA
:1050E000FB01208131812430310530F325C099271F
:1050F00087FD9095F601E40FF51FEA0DFB1D258550
:1051000030E082179307D9F44F5F5F4FFB01518363
:10511000408307C0D801AA0FBB1FAE0DBF1DA75B00
:10512000BF4FFB0140815181ED91FC911197E40F3C
:10513000F51F85898332D9F6882039F002C088248A
:105140008394F1E06F1609F0F0C1702E21E0A216F1
:10515000B10479F4E02FF0E0EE0FFF1FEE0DFF1D1C
:10516000E75BFF4F0190F081E02DD6011B968C91FB
:1051700082AFE72DF0E0EE0FFF1FEE0DFF1DE75BA6
:10518000FF4FA081B181DB968C91DB978F5FDB961F
:105190008C930190F081E02DD60118962C911897F0
:1051A00083A994A9820F911D94AB83AB1B969C900D
:1051B0009A94B4E0B91508F0B4C1F8C682508430AE
:1051C00008F0B3C1D1018C91882309F0D2C0D60177
:1051D0001B969C911B978081981709F0A6C1AA2461
:1051E000BB241D968C91833219F431E0A32EB12C8F
:1051F00096012A0D3B1DD9011D968C91DB011D9254
:105200001C928130A9F0813020F0823009F088C0F2
:1052100070C09389D9011E968C911E97981709F03A
:105220007FC094891F968C91981709F079C07CC033
:10523000FB0111821082A801440F551F4E0D5F1D06
:10524000475B5F4F17C0FA01A081B181A20FB31F66
:10525000F601E20FF31FEA0DFB1D1B969C9186855C
:10526000981719F0882483940BC02F5F3F4FDB0100
:105270002D933C93FB01208131812430310518F3BB
:10528000DB011D921C92A801440F551F4E0D5F1D9E
:10529000475B5F4F14C0FA01A081B181A20FB31F19
:1052A000F601E20FF31FEA0DFB1D1F969C91828908
:1052B0009817A1F52F5F3F4FDB012D933C93FB0126
:1052C000208131812430310530F325C0992787FDB5
:1052D0009095F601E40FF51FEA0DFB1D268530E0E1
:1052E00082179307D9F44F5F5F4FFB0151834083CF
:1052F00007C0D801AA0FBB1FAE0DBF1DA75BBF4FD4
:10530000FB0140815181ED91FC911197E40FF51F54
:1053100085898332D9F6882039F002C088248394A5
:10532000F1E06F1609F001C1702E21E0A216B10460
:1053300079F4E02FF0E0EE0FFF1FEE0DFF1DE75BAD
:10534000FF4F0190F081E02DD6011C968C9182AF29
:10535000E72DF0E0EE0FFF1FEE0DFF1DE75BFF4FA7
:105360000190F081E02D83AD8F5F83AFF6019484CF
:10537000D3C0823009F0D9C0D60151969C91519783
:105380008081981709F0D1C0AA24BB2453968C9130
:10539000833219F4B1E0AB2EB12C96012A0D3B1DDE
:1053A000D90153968C91DB011D921C928130A9F09A
:1053B000813020F0823009F088C070C09389D90113
:1053C00054968C915497981709F07FC094895596FC
:1053D0008C91981709F079C07BC0FB011182108273
:1053E000A801440F551F4E0D5F1D475B5F4F17C04F
:1053F000FA01A081B181A20FB31FF601E20FF31FE2
:10540000EA0DFB1D1B969C918489981719F088243E
:1054100083940BC02F5F3F4FDB012D933C93FB0127
:10542000208131812430310518F3DB011D921C925B
:10543000A801440F551F4E0D5F1D475B5F4F14C001
:10544000FA01A081B181A20FB31FF601E20FF31F91
:10545000EA0DFB1D1F969C91808D9817A1F52F5F7B
:105460003F4FDB012D933C93FB01208131812430A0
:10547000310530F325C0992787FD9095F601E40F9B
:10548000F51FEA0DFB1D248930E082179307D9F43C
:105490004F5F5F4FFB015183408307C0D801AA0FC4
:1054A000BB1FAE0DBF1DA75BBF4FFB0140815181EC
:1054B000ED91FC911197E40FF51F85898332D9F6A0
:1054C000882031F002C088248394F1E06F1669F5DA
:1054D000702E21E0A216B10479F4E02FF0E0EE0F77
:1054E000FF1FEE0DFF1DE75BFF4F0190F081E02DE8
:1054F000D60152968C9182AFE72DF0E0EE0FFF1FA0
:10550000EE0DFF1DE75BFF4F0190F081E02D83ADB5
:105510008F5F83AFF60192889A94F4E0F91508F44E
:1055200045C505E010E0662463940F5F1F4F05300A
:10553000110508F457CC2AE732E0E20EF31ED7013A
:105540001D921C92E6E8FDEFEE0EFF1E662009F0AC
:1055500015C6870103551D4FD8017C90EFEAF2E094
:10556000EE0EFF1E81E0D7018C93E4EAFDEFEE0E14
:10557000FF1ED7018C91EDEAFFEFEE0EFF1E853086
:1055800028F0C7010E945B25D8017C90F701ED5AF5
:10559000FF4F80818F5F8083A72CBB2481E090E048
:1055A0006EE370E00E941678FC012501440C551C46
:1055B0004E0C5F1C29E430E0420E531ED2018D9345
:1055C0009C93009709F4F8C522E432E0E20EF31E42
:1055D000D7018C912EEB3DEFE20EF31E813009F0E6
:1055E00084C240E852E0E40EF51ED7018C9120E819
:1055F0003DEFE20EF31E882309F022C112A6D2016C
:10560000ED91FC91D60114968C918083F20100817A
:1056100011810E947202D801D5966D937D938D936E
:105620009C93D897F701E658FD4F118210829F0195
:10563000A20111C0FA01608171816A0F7B1FAC0D5C
:10564000BD1D8C91DB0119968C93F90180819181AC
:10565000019691838083F901A081B181A230B105C7
:1056600048F340E050E0D60116968C91833211F455
:1056700041E050E0D501AA0FBB1FAE0DBF1DA75BD7
:10568000BF4F2D913C911197B601640F751FFB011F
:105690008681F90181A7970126583D4FF9011182B2
:1056A00010820D911C911197F80181A5813089F02C
:1056B000813020F0823009F089C063C0FB0187810E
:1056C000F801838BED91FC91DB0118968C91848B12
:1056D0007DC0F901118210824901BD0114C0FB0196
:1056E000008111810A0F1B1FAC0DBD1DA40FB51F3A
:1056F00017968C91D8011B968C93F401808191812F
:10570000019691838083F401A081B181A430B10519
:1057100030F3D9011D921C92970126583D4FB501D7
:10572000660F771F6E0D7F1D675B7F4F14C0FB01F7
:10573000008111810A0F1B1FAC0DBD1DA40FB51FE9
:105740001B968C91D8011F968C93F90180819181D1
:10575000019691838083F901A081B181A430B105C4
:1057600030F334C0ED91FC911197E80FF91F258BB0
:10577000FB0180819181019691838083459710F090
:105780000CC0B901FB0180819181F601E80FF91F7E
:10579000E40FF51F2781233229F7F501EE0FFF1FD4
:1057A000EE0DFF1DE75BFF4F0190F081E02D2AE732
:1057B00032E0E20EF31ED7018D919C9126E83DEF79
:1057C000E20EF31EE80FF91F83E2858B413051058D
:1057D00071F4F501EE0FFF1FEE0DFF1DE75BFF4FAC
:1057E0000190F081E02DD60115968C9182AFD50104
:1057F000AA0FBB1FAE0DBF1DA75BBF4FED91FC9164
:10580000119791E093AFF60195809A94F4E0F91521
:1058100008F4CCC32D913C911197F6018281F901D6
:1058200083AB14AAF6018381F90182ABED91FC915F
:1058300082A98150823010F493A7A0C413A69EC4FD
:10584000813009F09BC482A7D201ED91FC91D60171
:105850001A968C918083F201008111810E9472025C
:10586000D801D5966D937D938D939C93D897A7017E
:1058700046585D4FFA01118210829A01B20111C09F
:10588000FB01008111810A0F1B1FAC0DBD1D8C9106
:10589000D80115968C93F9018081918101969183AD
:1058A0008083F901A081B181A430B10548F3DA0108
:1058B0001D921C92970126583D4FA501440F551F7C
:1058C0004E0D5F1D475B5F4F12C0FA016081718111
:1058D0006A0F7B1FAC0DBD1D14968C91DB011196D8
:1058E0008C93F90180819181019691838083F901E4
:1058F000A081B181A430B10540F360E070E0D60131
:105900001C968C91833211F461E070E0D501AA0FEE
:10591000BB1FAE0DBF1DA75BBF4F2D913C911197D3
:10592000A601460F571FFA018485F90181A7970147
:1059300026583D4FF901118210820D911C9111974B
:10594000F80181A5813089F0813020F0823009F0A2
:1059500089C063C0FA018585F801838BED91FC91C4
:10596000DA011E968C91848B7DC0F9011182108220
:105970004901AD0114C0FA01008111810A0F1B1FFA
:10598000AC0DBD1DA60FB71F1D968C91D8011B969F
:105990008C93F40180819181019691838083F4013D
:1059A000A081B181A430B10530F3D9011D921C92C0
:1059B000970126583D4FA501440F551F4E0D5F1D01
:1059C000475B5F4F14C0FA01008111810A0F1B1F52
:1059D000AC0DBD1DA60FB71F51968C91D8011F9617
:1059E0008C93F90180819181019691838083F901E3
:1059F000A081B181A430B10530F334C0ED91FC91A8
:105A00001197E80FF91F258BFA018081918101968A
:105A100091838083459710F00CC0A901FA01808121
:105A20009181F601E80FF91FE60FF71F2585233254
:105A300029F7F501EE0FFF1FEE0DFF1DE75BFF4F8E
:105A40000190F081E02D2AE732E0E20EF31ED7014B
:105A50008D919C9126E83DEFE20EF31EE80FF91FB1
:105A600083E2858BD501AA0FBB1FAE0DBF1DA75BBF
:105A7000BF4F2D913C911197F6018085F90183ABC1
:105A800014AAF6018185F90182ABED91FC9182A9FE
:105A90008150823018F481E083A701C013A66130E1
:105AA000710571F4F501EE0FFF1FEE0DFF1DE75BB1
:105AB000FF4F0190F081E02DD6011B968C9182AFB3
:105AC000AA0CBB1CAE0CBF1CE9E4F0E0AE0EBF1E7E
:105AD000D501ED91FC9181E083AFF60193849A9416
