:100000000C94C5000C945E0B0C948F0B0C94C00BDD
:100010000C94F10B0C94220C0C94530C0C94840C47
:100020000C94B50C0C94EF000C94EF000C94EF00C2
:100030000C94DC020C94EF000C94EF000C94A201E1
:100040000C94EF000C94EF000C94EF000C94EF0074
:100050000C94EF000C94EF000C94EF000C947D01D5
:100060000C94EF000C9488100C94EF000C94EF00AB
:100070000C94EF000C94EF000C94EF000C94EF0044
:100080000C94EF000C94EF000C94EF000C94EF0034
:100090000C94C9100C94EF000C94EF000C946709B9
:1000A0000C94EF000C94EF000C94EF000C94EF0014
:1000B0000C94EF000C94EF000C94EF000C94EF0004
:1000C0000C94EF000C94EF000C94EF000021242717
:1000D0002A2D3033002225282B2E313400202326D0
:1000E000292C2F3205050505030303030101010433
:1000F00004030606060606060606010405010501B8
:1001000003020202020202010202050504040304C2
:1001100004010304070707010208101020408004AF
:1001200008102040020204081020408001028020B4
:100130004004200101020408102001408040800199
:1001400002080408800410040201000008090000ED
:10015000000000000000000000000000000000009F
:10016000000000000000000000000000000000008F
:100170000000000000000000000000000000E40398
:1001800091046107C2073D08A60811241FBECFEFE6
:10019000D1E2DEBFCDBF12E0A0E0B2E0E8E7FBE2D3
:1001A00000E00BBF02C007900D92A03EB107D9F747
:1001B00017E0A0EEB2E001C01D92AB3DB107E1F740
:1001C00011E0CAE8D1E004C02297FE010E94DF12CC
:1001D000CE37D107C9F70E9459010C94BA150C9477
:1001E000000083E393E00E94B90783E393E060E0BB
:1001F00072E00E94AB070E94C803BC0183E393E056
:100200000E949B078AEE92E069E04FE10E9454044D
:100210008091E0029091E102A091E202B091E302AC
:1002200085FF23C084E393E068EE73E00E94110829
:1002300084E393E068EE73E00E94110884E393E0A6
:1002400068EE73E00E9411088091E0029091E10253
:10025000A091E202B091E3028F7D8093E00290933F
:10026000E102A093E202B093E3020895EF92FF92BD
:100270000F931F9383E3E82E83E0F82EC7010E94BB
:10028000B907C70165E172E00E94AB070CEE12E00E
:10029000C80162E272E00E94C505C8010E945507CC
:1002A000BC01C7010E94AB071F910F91FF90EF9017
:1002B00008950E940F020E9436010E94F100FDCFB6
:1002C000F8941092DE028A3008F089E0982F977037
:1002D000883008F09062906184B7877F84BF8091F6
:1002E000600088618093600090936000809160005E
:1002F000806480936000789408951F920F920FB6E7
:100300000F9211248F939F93AF93BF9380914F05CA
:1003100090915005A0915105B09152050196A11DF3
:10032000B11D80934F0590935005A0935105B09354
:100330005205BF91AF919F918F910F900FBE0F907B
:100340001F9018951F920F920FB60F9211248F9342
:100350009F93AF93BF938091530590915405A091C3
:100360005505B09156050196A11DB11D8093530509
:1003700090935405A0935505B0935605BF91AF9146
:100380009F918F910F900FBE0F901F901895AF9275
:10039000BF92CF92DF92EF92FF920F931F935B0178
:1003A0006C0160914F0570915005809151059091BD
:1003B000520547E0660F771F881F991F4A95D1F7AE
:1003C0002EE330E040E050E00E948C1279018A0177
:1003D00060914F05709150058091510590915205A3
:1003E00037E0660F771F881F991F3A95D1F72EE3E4
:1003F00030E040E050E00E948C122E193F09400B83
:10040000510B2A153B054C055D0510F31F910F910B
:10041000FF90EF90DF90CF90BF90AF9008957894C9
:1004200084B7877F84BF10924F05109250051092B9
:1004300051051092520584B5826084BD84B58160F7
:1004400084BD85B5826085BD85B5816085BDEEE6DC
:10045000F0E0808181608083E1E8F0E0808182606B
:100460008083808181608083E0E8F0E0808181602A
:100470008083E1EBF0E0808184608083E1E9F0E05B
:10048000808184608083E0EBF0E080818160808304
:10049000E0E9F0E0808181608083E4E6F0E0808143
:1004A0008E7F8083ECE7F0E080818F77808380818E
:1004B00080648083EAE7F0E08081846080838081CB
:1004C000826080838081806880831092C100109256
:1004D000C90008959091E902982B9093E90280FF5A
:1004E00032C0809164008E7F8093640080917C0094
:1004F0008F7780937C0080917C00806480937C0067
:1005000080917A00846080937A0080917A00826082
:1005100080937A0080917A00806880937A0080913D
:1005200064008F7780936400809164008B7F809358
:100530006400809164008D7F8093640080916500E9
:100540008E7F809365000895282F20959091E90271
:1005500092239093E90280FF1EC080917A008F77EA
:1005600080937A0080916400816080936400809120
:10057000640080688093640080916400846080934C
:1005800064008091640082608093640080916500C3
:100590008160809365000895F89484B7877F84BF55
:1005A000E0E6F0E0808188658083108283E061E08E
:1005B0000E943103789408951F920F920FB60F9204
:1005C0000BB60F9211242F933F934F935F936F932A
:1005D0007F938F939F93AF93BF93EF93FF93F89481
:1005E00081E08093DE02E0E6F0E080818068808335
:1005F00080818F7B808383E060E00E943103789468
:10060000FF91EF91BF91AF919F918F917F916F91EA
:100610005F914F913F912F910F900BBE0F900FBEA6
:100620000F901F901895282F30E0C901895E9E4FCA
:10063000FC0194912C513F4FF9018491882381F062
:10064000E82FF0E0E453FF4FE491F0E0662329F453
:10065000808190958923808308958081892B808370
:100660000895482F50E0CA01865B9E4FFC012491FB
:10067000CA01895E9E4FFC0194914C515F4FFA0173
:1006800034913323C1F1222331F1233021F48091BD
:1006900080008F7705C0243031F4809180008F7DF9
:1006A0008093800018C0213019F484B58F7704C07E
:1006B000223021F484B58F7D84BD0DC0263021F415
:1006C0008091B0008F7705C0273029F48091B00069
:1006D0008F7D8093B000E32FF0E0EC52FF4FE49168
:1006E000F0E0662329F48081909589238083089522
:1006F0008081892B80830895482F50E0CA01865B52
:100700009E4FFC012491CA01895E9E4FFC01949189
:100710004C515F4FFA013491332319F420E030E05B
:1007200035C0222331F1233021F4809180008F776E
:1007300005C0243031F4809180008F7D809380004B
:1007400018C0213019F484B58F7704C0223021F409
:1007500084B58F7D84BD0DC0263021F48091B0001A
:100760008F7705C0273029F48091B0008F7D80936A
:10077000B000E32FF0E0E452FF4FE491F0E080811D
:1007800020E030E0892311F021E030E0C901089534
:10079000DF93CF9300D0CDB7DEB72091D70730914C
:1007A000D807CE0101962115310519F48B5D9740CC
:1007B00002C0821B930B9A83898389819A810F904F
:1007C0000F90CF91DF91089508951F93162F809178
:1007D0007A008F7780937A0081E261E00E941303B0
:1007E00081E260E00E9431038BE161E00E9413032B
:1007F0008BE160E00E94310310FF10C08AE161E0EC
:100800000E9413038AE160E00E94310388E161E005
:100810000E94130388E160E00E94310311FF09C0C8
:1008200084E794E00E94800884E794E063E00E94FB
:10083000420812FF13C081E00E94D3118FE261E0F1
:100840000E9413038FE260E00E94310383E261E0C3
:100850000E94130383E260E00E94310313FF08C08B
:1008600089E161E00E94130389E160E00E943103A5
:100870001F9108951F93142F613051F460E270E0CE
:1008800080E090E00E94400D812F0E9460010AC02C
:10089000623041F460E270E080E090E00E94E60C9B
:1008A0000E94CC021F910895FF920F931F938C0119
:1008B000F62E642F0E94E50383B7817F846083BF97
:1008C00083B7816083BFC80161E04F2D0E943A0465
:1008D00083B7816083BF889583B78E7F83BF83B7DB
:1008E0008E7F83BFEAE7F0E08081806880831F917C
:1008F0000F91FF900895262F862F6AE00E946D12B7
:10090000492F30E0C901841B91096AE070E00E9420
:100910007912E4E0660F771FEA95E1F7842F862BC2
:1009200008950895CF93DF93EC018D89843009F405
:100930005FC0853048F4823059F1833008F040C000
:10094000813009F0D2C00AC0863009F481C08630F7
:1009500008F466C0873009F0C8C092C08DB79EB752
:1009600042970FB6F8949EBF0FBE8DBFEDB7FEB78E
:100970003196A896ADB7BEB71296DC93CE93119779
:10098000A89787E392E0938382838BE592E08FC000
:10099000ADB7BEB752970FB6F894BEBF0FBEADBF8E
:1009A000EDB7FEB73196A8961296DC93CE931197C9
:1009B000A89787E392E09383828382E692E077C0F0
:1009C000ADB7BEB752970FB6F894BEBF0FBEADBF5E
:1009D000EDB7FEB73196A8961296DC93CE93119799
:1009E000A89787E392E09383828389E692E05FC0D1
:1009F000ADB7BEB752970FB6F894BEBF0FBEADBF2E
:100A0000EDB7FEB73196A8961296DC93CE93119768
:100A1000A89787E392E09383828381E792E047C0BF
:100A2000ADB7BEB752970FB6F894BEBF0FBEADBFFD
:100A3000EDB7FEB73196A8961296DC93CE93119738
:100A4000A89787E392E0938382838BE792E02FC09D
:100A5000ADB7BEB752970FB6F894BEBF0FBEADBFCD
:100A6000EDB7FEB73196A8961296DC93CE93119708
:100A7000A89787E392E09383828384E892E017C08B
:100A8000ADB7BEB752970FB6F894BEBF0FBEADBF9D
:100A9000EDB7FEB73196A8961296DC93CE931197D8
:100AA000A89787E392E0938382838BE892E0958313
:100AB00084838B89868317828C8980871186898DB0
:100AC000828713868E89848715868F898687178605
:100AD000888D808B118A0E94E3128DB79EB7429653
:100AE0000FB6F8949EBF0FBE8DBF9E01285D3F4F8D
:100AF000C901DF91CF9108950F931F93CF93DF9397
:100B0000EC018EEB94E068E670E00E9485088EEBC5
:100B100094E060E070E00E94CB08CE01688D0E94F6
:100B20007B048883CE016F890E947B048983CE0178
:100B30006E890E947B048A838D898B83CE01698DA7
:100B40000E947B048C83CE016C890E947B048D8380
:100B5000CE016B890E947B048E8300E010E0FE01D1
:100B6000E00FF11F8EEB94E060810E94A7080F5FF9
:100B70001F4F0730110599F78EEB94E00E94CE08C5
:100B8000DF91CF911F910F910895DC01FB0121812D
:100B90002053808180533AE0839FC0011124280FA5
:100BA00053962C9353972481205383818053839FA2
:100BB000C0011124280F54962C9354972781205359
:100BC00086818053839FC0011124280F59962C934E
:100BD00059972285205381858053839FC00111241A
:100BE000280F55962C93559725852053848580533F
:100BF000839FC0011124280F56962C935697208965
:100C0000205387858053839FC0011124280F579656
:100C10002C9357972389205382898053839FC00147
:100C20001124280F58962C935897CD010E947C05CB
:100C30000895CF92DF92EF92FF921F93CF93DF93AD
:100C40007C01162F8EEB94E068E670E00E94850828
:100C50008EEB94E060E070E00E94CB088EEB94E0B5
:100C60000E94CE088EEB94E068E670E042E150E02E
:100C70000E94EF08C0E0D0E0C12EDD241AE009C1D7
:100C80008EEB94E00E948F08882309F402C18EEB5A
:100C900094E00E949508282FF701EC0FFD1F808338
:100CA000C630D10509F482C0C730D105B8F4C230CE
:100CB000D10509F44EC0C330D10538F4209769F14D
:100CC000C130D10509F0E4C036C0C430D10509F403
:100CD00051C0C530D10508F05BC049C0CA30D1054C
:100CE00009F49BC0CB30D10558F4C830D10509F4C4
:100CF00078C090E02F70C930D10508F081C064C081
:100D0000CC30D10509F4A7C0CC30D10508F494C08B
:100D1000CD30D10509F0BCC0ADC090E054E0959550
:100D200087955A95E1F7819FC00111242F70280FF4
:100D3000F701208FADC090E044E0959587954A95E6
:100D4000E1F7819FC00111242F70280FF701278B35
:100D50009FC090E034E0959587953A95E1F7819FA3
:100D6000C00111242F70280FF701268B91C0F701C5
:100D7000858B8EC090E0B4E095958795BA95E1F7A4
:100D8000819FC00111242F70280FF701218F80C08F
:100D900090E0A4E095958795AA95E1F7819FC00121
:100DA00011242F70280FF701248B72C090E0F4E01B
:100DB00095958795FA95E1F7819FC00111242F70D1
:100DC000280FF701238B64C0E4E095958795EA9599
:100DD000E1F78770819FC0011124280FF701228F4E
:100DE00057C090E074E0959587957A95E1F7877004
:100DF000819FC00111242F70280FF701238F48C055
:100E000064E0959587956A95E1F78370819FC001AD
:100E10001124280FF701248F3BC090E054E09595F2
:100E200087955A95E1F78370819FC00111242F7037
:100E3000280FF701258F2CC090E044E09595879509
:100E40004A95E1F78770819FC00111242F70280F08
:100E5000F701268F1DC090E034E0959587953A956F
:100E6000E1F78370819FC00111242F70280FF701D3
:100E7000278F0EC090E0B4E095958795BA95E1F77D
:100E80008370819FC00111242F70280FF70120A3C8
:100E90002196CC16DD0608F0F3CEDF91CF911F919D
:100EA000FF90EF90DF90CF9008950F931F938C01E8
:100EB00066E00E941906C8010E9492041F910F91DA
:100EC00008951092330308950F931F938C018DE0C2
:100ED000F80160810E940A118AE0F80160810E9495
:100EE0000A111F910F910895EF92FF920F931F9394
:100EF000CF93DF93EC017A018B0177FF0CC08DE279
:100F000068810E940A1110950095F094E094E11C0C
:100F1000F11C011D111DC801B7012AE030E040E0BD
:100F200050E008810E943111DF91CF911F910F9104
:100F3000FF90EF9008950F931F938C01AB016627EC
:100F400057FD6095762F0E947407C8010E946407C0
:100F50001F910F9108950F931F938C01CB01F801FE
:100F600060810E941B11C8010E9464071F910F91AC
:100F70000895FC0160E076E980E090E040810E9405
:100F8000F111089508958FE261E00E94130384E255
:100F900061E00E94130385E261E00E9413038FE287
:100FA00061E00E94310384E261E00E94310385E246
:100FB00061E00E94310308950F931F93162F042FB1
:100FC0008FE261E00E94130384E261E00E94130358
:100FD00085E261E00E9413038FE261E00E94310329
:100FE00084E2612F0E94310385E2602F0E94310369
:100FF0001F910F9108950F931F93162F042F862F83
:1010000061E00E941303013019F4812F61E004C0F4
:10101000002321F4812F60E00E9431031F910F9182
:101020000895CF92DF92EF92FF920F931F936C017E
:101030007B016CE041E00E94FB07C6016DE041E0EE
:101040000E94FB0700E010E0C801B7010E94C70141
:10105000C6016CE040E00E94FB07C6016DE040E085
:101060000E94FB07C801B7010E94C7011F910F91A1
:10107000FF90EF90DF90CF9008951092740410923B
:1010800076040895FC016183613019F06330B9F58D
:1010900018C08081882311F486E111C084E393E0B5
:1010A0000E94C30786E061E00E94130386E061E0CE
:1010B0000E9431038AE261E00E9413038AE261E048
:1010C00005C08081882329F486E160E00E94310315
:1010D000089584E393E060E040E00E94DC0786E04E
:1010E00061E00E94130386E060E00E9431038AE21F
:1010F00061E00E9413038AE260E00E9431030895D8
:10110000FC0180810E94D311089581E08093BD0489
:1011100060939A041092BB041092BC0408958091CD
:10112000990490919804891B089590919804809156
:101130009904981710F080E00895E92FF0E0E8583E
:10114000FB4F80819F5F9093980408950895DF93EB
:10115000CF930F92CDB7DEB769838091BD0488230A
:1011600089F08091BC04803290F48091BB04E82F18
:10117000F0E0E556FB4F60838F5F8093BB04809364
:10118000BC0405C0CE01019661E00E944C090F909D
:10119000CF91DF9108950E94A708089580919A0445
:1011A0006BE974E04091BC0421E00E941E0910929A
:1011B000BB041092BC041092BD0408951F93142F19
:1011C000413208F010E2862F68E774E0412F0E9458
:1011D000F20810929804109399041F9108950E94A8
:1011E000DE080895982F413210F081E00895809133
:1011F000BF048823E1F781E08093BF041092E504E7
:101200004093E604990F91609093C00485EE80931B
:10121000BC008091BF048130E1F320E030E00AC0DF
:10122000FB01E20FF31FD901AB53BB4F8C918083BD
:101230002F5F3F4F2417A0F380E008951F93582F8E
:10124000122F413210F081E025C08091BF04882325
:10125000E1F782E08093BF041092E5044093E60436
:10126000A5ECB4E0FB0102C081918D938E2F861B0B
:101270008417D0F3852F90E0880F991F8093C004C6
:1012800085EE8093BC00112321F08091BF04823051
:10129000E1F380E01F910895482F613210F081E062
:1012A00008958091BF04843011F082E00895609326
:1012B0000805A7EEB4E0842F9C01F90102C08191DA
:1012C0008D938E2F841B8617D0F380E008951F9294
:1012D0000F920FB60F920BB60F9211242F933F93DC
:1012E0004F935F936F937F938F939F93AF93BF932E
:1012F000EF93FF938091B90090E0887F90708036E3
:10130000910509F4CAC081369105CCF58832910562
:1013100009F47BC089329105B4F48031910509F458
:101320006FC0813191053CF4009709F414C108970E
:1013300009F01AC165C08831910509F466C080972B
:1013400009F012C17DC08034910509F48DC081344B
:10135000910544F48033910509F472C0C89709F0EF
:1013600003C1F5C08035910509F472C08835910537
:1013700009F47FC08834910509F0F6C086C0883929
:10138000910509F4E0C089399105ECF4883791059D
:1013900009F483C0893791054CF48836910509F426
:1013A0007CC08037910509F0DFC077C0883891058F
:1013B00009F4C9C08039910509F475C080389105D8
:1013C00009F0D2C070C0803B910509F493C0813B05
:1013D00091054CF4803A910509F477C0883A91055B
:1013E00009F0C2C087C0803C910509F4B0C0883CB8
:1013F000910509F4ACC0883B910509F0B5C08FC0D8
:101400008091C0048093BB009CC09091E5048091C2
:10141000E604981768F49091E504E92FF0E0EB53A7
:10142000FB4F80818093BB009F5F9093E50489C050
:1014300085ED8093BC008091BC0084FDFCCF92C000
:1014400085ED8093BC008091BC0084FDFCCF8AC0F8
:101450008091E5049091BB00E82FF0E0EB53FB4F47
:1014600090838F5F8093E5049091E5048091E6047A
:1014700066C08091E5049091BB00E82FF0E0EB534B
:10148000FB4F90838F5F8093E50485ED8093BC00D4
:101490008091BC0084FDFCCF65C083E08093BF04D5
:1014A000109229054EC080912905803208F04BC06A
:1014B000809129059091BB00E82FF0E0E75FFA4F9B
:1014C00090838F5F809329053CC0809129058032ED
:1014D00030F4E0912905F0E0E75FFA4F1082609167
:1014E0002905E091C304F091C40489E095E070E01F
:1014F00009952DC084E08093BF04109207051092D7
:101500000805E091C104F091C20409958091080595
:10151000882329F481E0809308051092E7049091D4
:101520000705E92FF0E0E951FB4F80818093BB0074
:101530009F5F909307059091070580910805981784
:1015400010F485EC01C085E88093BC000DC085ECEB
:101550008093BC0007C085ED8093BC008091BC00E7
:1015600084FDFCCF1092BF04FF91EF91BF91AF912A
:101570009F918F917F916F915F914F913F912F91AB
:101580000F900BBE0F900FBE0F901F9018958830D4
:1015900008F069C0E82FF0E0EE0FFF1FE95CFA4F9A
:1015A00071836083833089F1843028F48130A1F025
:1015B0008230F0F409C08630E9F1873009F447C081
:1015C000843009F050C02EC0809169008C7F842B3C
:1015D00080936900E89A089580916900440F551F2F
:1015E000440F551F837F842B80936900E99A0895E7
:1015F0008091690064E0440F551F6A95E1F78F7C84
:10160000842B80936900EA9A08958091690036E0FE
:10161000440F551F3A95E1F78F73842B809369002F
:10162000EB9A089580916A008C7F842B80936A00E6
:10163000EC9A089580916A0024E0440F551F2A9582
:10164000E1F78F7C842B80936A00EE9A0895809155
:101650006A0096E0440F551F9A95E1F78F73842B2B
:1016600080936A00EF9A0895F894883028F58330C3
:10167000A1F0843028F4813061F0823060F407C03A
:10168000863079F0873079F0843071F408C0E898BA
:101690000BC0E99809C0EA9807C0EB9805C0EC9820
:1016A00003C0EE9801C0EF98E82FF0E0EE0FFF1FA7
:1016B000E95CFA4F11821082789408951F920F927C
:1016C0000FB60F920BB60F9211242F933F934F93A7
:1016D0005F936F937F938F939F93AF93BF93EF939A
:1016E000FF938091370590913805892B29F0E0917F
:1016F0003705F09138050995FF91EF91BF91AF91B2
:101700009F918F917F916F915F914F913F912F9119
:101710000F900BBE0F900FBE0F901F9018951F9249
:101720000F920FB60F920BB60F9211242F933F9387
:101730004F935F936F937F938F939F93AF93BF93D9
:10174000EF93FF938091390590913A05892B29F009
:10175000E0913905F0913A050995FF91EF91BF911C
:10176000AF919F918F917F916F915F914F913F9139
:101770002F910F900BBE0F900FBE0F901F901895DA
:101780001F920F920FB60F920BB60F9211242F9348
:101790003F934F935F936F937F938F939F93AF93F9
:1017A000BF93EF93FF9380913B0590913C05892B6C
:1017B00029F0E0913B05F0913C050995FF91EF91EF
:1017C000BF91AF919F918F917F916F915F914F9159
:1017D0003F912F910F900BBE0F900FBE0F901F9057
:1017E00018951F920F920FB60F920BB60F921124FD
:1017F0002F933F934F935F936F937F938F939F9319
:10180000AF93BF93EF93FF9380913D0590913E0579
:10181000892B29F0E0913D05F0913E050995FF9156
:10182000EF91BF91AF919F918F917F916F915F9158
:101830004F913F912F910F900BBE0F900FBE0F90C5
:101840001F9018951F920F920FB60F920BB60F9222
:1018500011242F933F934F935F936F937F938F93B5
:101860009F93AF93BF93EF93FF9380913F05909128
:101870004005892B29F0E0913F05F091400509953D
:10188000FF91EF91BF91AF919F918F917F916F9158
:101890005F914F913F912F910F900BBE0F900FBE14
:1018A0000F901F9018951F920F920FB60F920BB6C4
:1018B0000F9211242F933F934F935F936F937F93D6
:1018C0008F939F93AF93BF93EF93FF9380914105C5
:1018D00090914205892B29F0E0914105F091420554
:1018E0000995FF91EF91BF91AF919F918F917F915A
:1018F0006F915F914F913F912F910F900BBE0F9081
:101900000FBE0F901F9018951F920F920FB60F9257
:101910000BB60F9211242F933F934F935F936F93C6
:101920007F938F939F93AF93BF93EF93FF93809198
:10193000430590914405892B29F0E0914305F091EE
:1019400044050995FF91EF91BF91AF919F918F91C0
:101950007F916F915F914F913F912F910F900BBEAF
:101960000F900FBE0F901F9018951F920F920FB6F9
:101970000F920BB60F9211242F933F934F935F93C7
:101980006F937F938F939F93AF93BF93EF93FF9347
:101990008091450590914605892B29F0E0914505F8
:1019A000F09146050995FF91EF91BF91AF919F91FD
:1019B0008F917F916F915F914F913F912F910F90F8
:1019C0000BBE0F900FBE0F901F901895EF92FF92D5
:1019D0000F931F937B018C01F894CB018170907061
:1019E000892B19F082E00E94340BE1FE03C083E0F2
:1019F0000E94340BE2FE03C082E00E94340BE3FE3F
:101A000003C083E00E94340BE4FE03C082E00E9426
:101A1000340BF3FE03C082E00E94340BE5FE03C0EA
:101A200084E00E94340BF4FE03C082E00E94340B79
:101A3000F5FE03C082E00E94340BF6FE03C083E093
:101A40000E94340B8091E4029091E502A091E6029D
:101A5000B091E702E094F094009510958E219F21BB
:101A6000A023B1238093E4029093E502A093E602C1
:101A7000B093E70278941F910F91FF90EF90089533
:101A8000EF92FF920F931F937B018C018091E402F0
:101A90009091E502A091E602B091E7028E299F297C
:101AA000A02BB12B8093E4029093E502A093E60271
:101AB000B093E702C70181709070892B59F08BE2D7
:101AC00060E00E94130382E067E27FE041E050E0C3
:101AD0000E94C70AE1FE0BC08CE260E00E94130383
:101AE00083E069E27EE040E050E00E94C70AE2FE47
:101AF0000FC08BE260E00E94130386E260E00E9468
:101B0000130382E067E27FE041E050E00E94C70AF1
:101B1000E3FE13C08CE260E00E94130382E360E006
:101B20000E9413038CE261E00E94310383E069E2CA
:101B30007EE040E050E00E94C70AE4FE0FC08BE266
:101B400060E00E94130387E260E00E94130382E0DA
:101B500067E27FE041E050E00E94C70AE5FE0FC067
:101B600083E061E00E94130383E061E00E9431039F
:101B700084E069E27EE040E050E00E94C70AF3FEA4
:101B80000FC08BE260E00E9413038EE260E00E94CF
:101B9000130382E067E27FE041E050E00E94C70A61
:101BA000F4FE0FC08BE260E00E94130388E060E067
:101BB0000E94130382E067E27FE041E050E00E9470
:101BC000C70AF5FE17C08BE260E00E9413038CE2A7
:101BD00060E00E94130387E060E00E9413038AE044
:101BE00060E00E94130382E067E27FE041E050E0A2
:101BF0000E94C70AF6FE17C08BE260E00E94130342
:101C00008CE260E00E94130387E060E00E9413030F
:101C10008AE060E00E94130383E069E27EE040E036
:101C200050E00E94C70A00FF0FC084E060E00E94FD
:101C300013038CE260E00E94130383E069E27EE01C
:101C400040E050E00E94C70A1F910F91FF90EF9073
:101C50000895F8948091E4029091E502A091E60243
:101C6000B091E70283FF26C082E30E947C03892BA8
:101C700009F58091E8028F5F8093E8028091E0028D
:101C80009091E102A091E202B091E302886080931A
:101C9000E0029093E102A093E202B093E30280910C
:101CA0002D058F5F80932D0568E070E080E090E067
:101CB0000E94E60C8091E4029091E502A091E60278
:101CC000B091E702A0FF26C084E00E947C03892B2C
:101CD00009F58091E8028F5F8093E8028091E0022D
:101CE0009091E102A091E202B091E302A1608093A1
:101CF000E0029093E102A093E202B093E3028091AC
:101D000038058F5F8093380560E070E081E090E0F7
:101D10000E94E60C8091E4029091E502A091E60217
:101D2000B091E70285FF24C083E00E947C03892BE9
:101D3000F9F48091E8028F5F8093E8028091E002DD
:101D40009091E102A091E202B091E302806280935F
:101D5000E0029093E102A093E202B093E30280914B
:101D60002F058F5F80932F0583E061E00E94310390
:101D70008091E4029091E502A091E602B091E70221
:101D800081FF20C089E20E947C03892BD9F48091D5
:101D9000E8028F5F8093E8028091E0029091E10277
:101DA000A091E202B091E30282608093E0029093FE
:101DB000E102A093E202B093E30280912B058F5FD2
:101DC00080932B058091E4029091E502A091E602B8
:101DD000B091E70296FF39C08091E4029091E5024C
:101DE000A091E602B091E70283FF05C082E30E9462
:101DF0007C03892B51F58091E4029091E502A0913A
:101E0000E602B091E70285FF05C083E00E947C03F3
:101E1000892BD9F48091E8028F5F8093E80280914A
:101E2000E0029091E102A091E202B091E30290649D
:101E30008093E0029093E102A093E202B093E30268
:101E4000809137058F5F8093370578940895F894D3
:101E50008091E4029091E502A091E602B091E70240
:101E600082FF20C086E20E947C03892BD9F08091FA
:101E7000E8028F5F8093E8028091E0029091E10296
:101E8000A091E202B091E30284608093E00290931B
:101E9000E102A093E202B093E30280912C058F5FF0
:101EA00080932C058091E4029091E502A091E602D6
:101EB000B091E70284FF20C087E20E947C03892B57
:101EC000D9F08091E8028F5F8093E8028091E00270
:101ED0009091E102A091E202B091E30280618093CF
:101EE000E0029093E102A093E202B093E3028091BA
:101EF0002E058F5F80932E058091E4029091E5027C
:101F0000A091E602B091E70293FF20C08EE20E940A
:101F10007C03892BD9F08091E8028F5F8093E802DF
:101F20008091E0029091E102A091E202B091E3027F
:101F300098608093E0029093E102A093E202B09354
:101F4000E302809135058F5F809335058091E4022F
:101F50009091E502A091E602B091E7028170907045
:101F6000892B51F18091E4029091E502A091E60263
:101F7000B091E70296FD20C089E20E947C03892B84
:101F8000D9F08091E8028F5F8093E8028091E002AF
:101F90009091E102A091E202B091E302816080930E
:101FA000E0029093E102A093E202B093E3028091F9
:101FB0002A058F5F80932A058091E4029091E502C3
:101FC000A091E602B091E70294FF24C088E00E944D
:101FD0007C03892BF9F08091E8028F5F8093E802FF
:101FE00085E060E00E9431038091E0029091E1027F
:101FF000A091E202B091E30290618093E00290939D
:10200000E102A093E202B093E302809136058F5F74
:10201000809336058091E4029091E502A091E6025A
:10202000B091E70295FF20C088E00E947C03892BD5
:10203000D9F08091E8028F5F8093E8028091E002FE
:102040009091E102A091E202B091E302906280934C
:10205000E0029093E102A093E202B093E302809148
:1020600037058F5F809337058091E4029091E502F8
:10207000A091E602B091E70296FF48C08091E40289
:102080009091E502A091E602B091E70282FF05C0BF
:1020900086E20E947C03892BC9F58091E40290912D
:1020A000E502A091E602B091E70284FF05C087E255
:1020B0000E947C03892B51F58091E4029091E50206
:1020C000A091E602B091E70293FF05C08EE20E9464
:1020D0007C03892BD9F48091E8028F5F8093E8021A
:1020E0008091E0029091E102A091E202B091E302BE
:1020F00090648093E0029093E102A093E202B09397
:10210000E302809137058F5F8093370578940895B7
:102110001F920F920FB60F920BB60F9211242F93AE
:102120003F934F935F936F937F938F939F93AF935F
:10213000BF93EF93FF934091C600E0914705F09164
:102140004805CF01019660E072E00E9479129C017F
:102150008091490590914A052817390739F0E952CD
:10216000FA4F40833093480520934705FF91EF9144
:10217000BF91AF919F918F917F916F915F914F919F
:102180003F912F910F900BBE0F900FBE0F901F909D
:1021900018951F920F920FB60F920BB60F92112443
:1021A0002F933F934F935F936F937F938F939F935F
:1021B000AF93BF93EF93FF934091CE00E0914B0517
:1021C000F0914C05CF01019660E870E00E94791211
:1021D0009C0180914D0590914E052817390739F0E3
:1021E000E95AFA4F408330934C0520934B05FF91F9
:1021F000EF91BF91AF919F918F917F916F915F917F
:102200004F913F912F910F900BBE0F900FBE0F90EB
:102210001F901895982F662339F48091C00085FF90
:10222000FCCF9093C60008958091C80085FFFCCF35
:102230009093CE000895FC0110C03196662339F4C6
:102240008091C00085FFFCCF9093C60006C08091AE
:10225000C80085FFFCCF9093CE009081992369F749
:1022600008952F923F924F925F926F927F928F923A
:102270009F92AF92BF92CF92DF92EF92FF920F9315
:102280001F93DF93CF93CDB7DEB7A1970FB6F89426
:10229000DEBF0FBECDBF6B017C0129013A0109A34E
:1022A000611571058105910591F4002341F4809138
:1022B000C00085FFFCCF80E38093C6005BC08091A7
:1022C000C80085FFFCCF80E38093CE0053C08824F4
:1022D000992454011E010894211C311C8101080D10
:1022E000191DC701B601A30192010E948C12F801C9
:1022F00060830894811C911CA11CB11CC701B6010C
:10230000A30192010E948C12C901DA016C017D01C6
:10231000C114D104E104F10409F79101280D391D1C
:10232000BE016F5F7F4FD501C4010197A109B109BB
:10233000AC01481959091BC0FA01E20FF31FE081F3
:10234000EA3010F4E05D01C0E95CF9A1FF2339F443
:102350008091C00085FFFCCFE093C60006C080914D
:10236000C80085FFFCCFE093CE00215030406217BB
:10237000730711F7A1960FB6F894DEBF0FBECDBF5D
:10238000CF91DF911F910F91FF90EF90DF90CF9051
:10239000BF90AF909F908F907F906F905F904F9085
:1023A0003F902F900895882371F488E00E94A40242
:1023B0008091C1008F7E8093C1008091C100877F92
:1023C0008093C100089580E10E94A4028091C90019
:1023D0008F7E8093C9008091C900877F8093C90058
:1023E0000895EF92FF920F931F937B018C0144237A
:1023F000C1F588E00E946A02C801B70122E030E01E
:1024000040E050E00E94AE12205E3E45484F5F4FD4
:10241000CA01B901A80197010E94AE12C901DA01EF
:102420000197A109B109292F3A2F4B2F552747FDB5
:102430005A950196A11DB11D2093C500815080932E
:10244000C4008091C10080618093C1008091C1006F
:1024500088608093C1008091C10080688093C10032
:1024600037C080E10E946A02C801B70122E030E073
:1024700040E050E00E94AE12205E3E45484F5F4F64
:10248000CA01B901A80197010E94AE12C901DA017F
:102490000197A109B109292F3A2F4B2F552747FD45
:1024A0005A950196A11DB11D2093CD0081508093B6
:1024B000CC008091C90080618093C9008091C900DF
:1024C00088608093C9008091C90080688093C900AA
:1024D0001F910F91FF90EF900895991B79E004C030
:1024E000991F961708F0961B881F7A95C9F7809553
:1024F000089597FB092E07260AD077FD04D049D00E
:1025000006D000201AF4709561957F4F0895F6F774
:10251000909581959F4F0895A1E21A2EAA1BBB1B8F
:10252000FD010DC0AA1FBB1FEE1FFF1FA217B3079F
:10253000E407F50720F0A21BB30BE40BF50B661FB5
:10254000771F881F991F1A9469F760957095809579
:1025500090959B01AC01BD01CF01089597FB092E19
:1025600005260ED057FD04D0D7DF0AD0001C38F462
:1025700050954095309521953F4F4F4F5F4F0895AF
:10258000F6F790958095709561957F4F8F4F9F4F8F
:102590000895AA1BBB1B51E107C0AA1FBB1FA617AA
:1025A000B70710F0A61BB70B881F991F5A95A9F7FC
:1025B00080959095BC01CD010895EE0FFF1F059009
:1025C000F491E02D09940F931F93DF93CF93CDB730
:1025D000DEB72E970FB6F894DEBF0FBECDBF0D89C4
:1025E0001E8986E08C831A8309838FEF9FE79E8381
:1025F0008D839E01275E3F4FCE0101966F89788DB6
:10260000A9010E9414132F813885020F131FF801AE
:1026100010822E960FB6F894DEBF0FBECDBFCF91BD
:10262000DF911F910F9108952F923F924F925F92E9
:102630006F927F928F929F92AF92BF92CF92DF92D2
:10264000EF92FF920F931F93DF93CF93CDB7DEB737
:102650002B970FB6F894DEBF0FBECDBF3C012B0108
:102660005A01FC0117821682838181FD03C06FEF3E
:102670007FEFC6C19AE0892E1E010894211C311CEF
:10268000F3012381F20123FD859123FF81912F0125
:10269000882309F4B2C1853239F423FD859123FFE3
:1026A00081912F01853229F490E0B3010E94301509
:1026B000E7CF982FFF24EE249924FFE1FF15D0F0F7
:1026C0009B3269F09C3228F4903259F0933291F4A5
:1026D0000EC09D3249F0903369F441E024C052E0CD
:1026E000F52A84E0F82A28C098E0F92A25C0E0E11C
:1026F000FE2A22C0F7FC29C0892F80538A3070F44B
:10270000F6FE05C0989C902C1124980E15C0E89CEC
:10271000E02C1124E80EF0E2FF2A0EC09E3229F4CC
:10272000F6FC6BC140E4F42A07C09C3619F450E86B
:10273000F52A02C0983649F4F20123FD959123FF52
:1027400091912F01992309F0B8CF892F85548330B7
:1027500018F08052833038F444E050E0A40EB51EE7
:102760005FE359830FC0933631F0933779F0933597
:1027700009F056C020C0F5018081898342E050E015
:10278000A40EB51E610101E010E012C0F501C08089
:10279000D180F6FC03C06FEF7FEF02C0692D70E0BF
:1027A00042E050E0A40EB51EC6010E9425158C0122
:1027B0005FE7F52214C0F501C080D180F6FC03C0AC
:1027C0006FEF7FEF02C0692D70E042E050E0A40E91
:1027D000B51EC6010E941A158C0150E8F52AF3FEB9
:1027E00007C01AC080E290E0B3010E943015EA945D
:1027F0008E2D90E008171907A8F30EC0F601F7FC1C
:102800008591F7FE81916F0190E0B3010E94301530
:10281000E110EA94015010400115110579F7EAC062
:10282000943611F0993669F5F7FE08C0F50120815C
:1028300031814281538184E090E00AC0F5018081BA
:1028400091819C01442737FD4095542F82E090E010
:10285000A80EB91E9FE6F92257FF09C05095409572
:10286000309521953F4F4F4F5F4FE0E8FE2ACA0158
:10287000B901A1012AE030E00E945C15D82ED218DF
:1028800040C0953729F41F2D1F7E2AE030E01DC07F
:102890001F2D197F9F3661F0903720F4983509F08D
:1028A000ACC00FC0903739F0983709F0A6C004C00B
:1028B00028E030E00AC0106114FD146020E130E02F
:1028C00004C014FD166020E132E017FF08C0F501D6
:1028D000608171818281938144E050E008C0F501FC
:1028E00080819181BC0180E090E042E050E0A40E44
:1028F000B51EA1010E945C15D82ED2188FE7F82EC4
:10290000F122F6FE0BC05EEFF522D91438F4F4FE86
:1029100007C0F2FC05C08FEEF82202C01D2D01C0D9
:10292000192DF4FE0DC0FE01ED0DF11D80818033E7
:1029300019F499EEF92208C01F5FF2FE05C003C02A
:102940008F2D867809F01F5F0F2DF3FC14C0F0FE69
:102950000FC01E1510F09D2C0BC09D2C9E0C911AC3
:102960001E2D06C080E290E0B3010E9430151F5F6B
:102970001E15C0F304C01E1510F4E11A01C0EE24A8
:1029800004FF0FC080E390E0B3010E94301502FF06
:102990001DC001FD03C088E790E00EC088E590E00F
:1029A0000BC0802F867891F001FF02C08BE201C03E
:1029B00080E2F7FC8DE290E0B3010E94301506C082
:1029C00080E390E0B3010E9430159A94D914C0F3CB
:1029D000DA94F101ED0DF11D808190E0B3010E94C8
:1029E0003015DD20A9F706C080E290E0B3010E9417
:1029F0003015EA94EE20C1F743CEF301668177816A
:102A0000CB012B960FB6F894DEBF0FBECDBFCF9192
:102A1000DF911F910F91FF90EF90DF90CF90BF90CB
:102A2000AF909F908F907F906F905F904F903F906E
:102A30002F900895FC010590615070400110D8F767
:102A4000809590958E0F9F1F0895FC0161507040F6
:102A500001900110D8F7809590958E0F9F1F0895D3
:102A60000F931F93CF93DF938C01EB018B8181FF39
:102A70001BC082FF0DC02E813F818C819D81281754
:102A8000390764F4E881F9810193F983E88306C08A
:102A9000E885F985802F0995892B31F48E819F81F6
:102AA00001969F838E8302C00FEF1FEFC801DF9155
:102AB000CF911F910F910895FA01AA27283051F163
:102AC000203181F1E8946F936E7F6E5F7F4F8F4F5F
:102AD0009F4FAF4FB1E03ED0B4E03CD0670F781FBE
:102AE000891F9A1FA11D680F791F8A1F911DA11DA3
:102AF0006A0F711D811D911DA11D20D009F46894DC
:102B00003F912AE0269F11243019305D3193DEF683
:102B1000CF010895462F4770405D4193B3E00FD039
:102B2000C9F7F6CF462F4F70405D4A3318F0495D24
:102B300031FD4052419302D0A9F7EACFB4E0A69507
:102B40009795879577956795BA95C9F70097610529
:102B5000710508959B01AC010A2E0694579547957F
:102B600037952795BA95C9F7620F731F841F951F74
:082B7000A01D0895F894FFCFA9
:102B78000A64657669636520656E74657273206C96
:102B88006F6F700A00757362207374617274656484
:102B98000A0031333A30343A30343A30353A313544
:102BA8003A30303A30300025732C20253032642FEB
:102BB800253032642F25303264202D2025303264B0
:102BC8003A253032642E253032640053756E6461C4
:102BD80079004D6F6E64617900547565736461792D
:102BE800005765646E657364617900546875727323
:102BF8006461790046726964617900536174757221
:102C080064617900257500253032642C2025303226
:102C1800643A253032643A25303264202D2025303C
:102C280032643A2530326400253032642C20253055
:102C380032643A253032643A25303264202D20251A
:102C48003032643A253032643A253032640001006B
:00000001FF
