:100000000C94CB000C9464590C9495590C94C659DB
:100010000C94F7590C94285A0C94595A0C948A5AF7
:100020000C94BB5A0C94F5000C94F5000C94F5005C
:100030000C94A5030C94F5000C94F5000C94630249
:100040000C94F5000C94F5000C94F5000C94F5005C
:100050000C94F5000C94F5000C94F5000C943E0201
:100060000C94F5000C941C5F0C94F5000C94F500B6
:100070000C94F5000C94F5000C94F5000C94F5002C
:100080000C94F5000C94F5000C94F5000C94F5001C
:100090000C945D5F0C94F5000C94F5000C946D5776
:1000A0000C94F5000C94F5000C94F5000C94F500FC
:1000B0000C94F5000C94F5000C94F5000C94F500EC
:1000C0000C94F5000C94F5000C94F5000021242705
:1000D0002A2D3033002225282B2E313400202326D0
:1000E000292C2F3205050505030303030101010433
:1000F00004030606060606060606010405010501B8
:1001000003020202020202010202050504040304C2
:1001100004010304070707010208101020408004AF
:1001200008102040020204081020408001028020B4
:100130004004200101020408102001408040800199
:1001400002080408800410040201000008090000ED
:10015000000000000000000000000000000000009F
:10016000000000000000000000000000000000008F
:1001700000000000000000000000000000009104EA
:10018000F40583075A09E70B460D33173817B518DE
:100190000D190A563A5611241FBECFEFD1E2DEBF29
:1001A000CDBF1CE0A0E0B2E0EAE8F4ED00E00BBF58
:1001B00002C007900D92A23EB107D9F716E1A2EE58
:1001C000BCE001C01D92A334B107E1F711E0C6E91C
:1001D000D1E004C02297FE010E94C363CE37D1074D
:1001E000C9F70E9437020C94436A0C940000CF9325
:1001F000DF9383E79EE060E072E00E9493176091D6
:10020000BC127091BD1287ED9DE00E94C409C82FF9
:10021000D0E0209759F083E79EE065E172E00E940C
:100220008D1783E79EE0BE010E947D1780EF9CE062
:1002300061E070E00E94F804C82FD0E0209759F0E8
:1002400083E79EE06AE472E00E948D1783E79EE0F8
:10025000BE010E947D174091BC125091BD1284E5F1
:100260009DE063EC7CE00E94F505C82FD0E020976C
:1002700059F083E79EE06AE772E00E948D1783E7FA
:100280009EE0BE010E947D170E9488026093EB0CE5
:100290007093EC0C8093ED0C9093EE0C83E79EE052
:1002A0006EEA72E00E948D174091EB0C5091EC0CBD
:1002B0006091ED0C7091EE0C83E79EE00E94721746
:1002C00088EB9FE00E94DB52DF91CF910895EF927F
:1002D000FF920F931F9389E29EE00E94E80B8091AA
:1002E000E20C9091E30CA091E40CB091E50C8070CD
:1002F0009078892BD1F183E79EE00E94A11788EBCB
:100300009FE00E9486550E9488026093EB0C7093D8
:10031000EC0C8093ED0C9093EE0C83E79EE062EC86
:1003200072E00E948D174091EB0C5091EC0C6091A3
:10033000ED0C7091EE0C83E79EE00E94721783E74C
:100340009EE068EC72E00E948D1788EB9FE062E00F
:1003500041E021E00E94575288EB9FE00E94E45068
:1003600088EB9FE00E9495507DC083E79EE00E944D
:10037000A11783E79EE06AEC72E00E94931780EF7A
:100380009CE00E944705882331F083E79EE067EDFB
:1003900072E00E9493178BE29EE064EF72E00E948D
:1003A00019108BE29EE00E944012BC0183E79EE0A0
:1003B0000E94931784EC9DE00E94050984EC9DE067
:1003C00064E070E00E94D3088DB79EB70C970FB61B
:1003D000F8949EBF0FBE8DBFEDB7FEB7319688EB88
:1003E000E82E8FE0F82EADB7BEB71296FC92EE92D3
:1003F000119704E010E01383028381E090E095837D
:10040000848388E090E09783868382E090E0918700
:100410008087138702870E944955EDB7FEB7319652
:10042000ADB7BEB71296FC92EE921197138302837A
:100430008EE190E09583848384E190E097838683C6
:1004400082E390E09187808784E690E093878287BB
:100450000E94C9548DB79EB70C960FB6F8949EBFF4
:100460000FBE8DBF1F910F91FF90EF9008950E94D6
:10047000E8020E9467010E94F700FDCF1F920F92D1
:100480000FB60F9211248F939F93AF93BF938091D8
:10049000B7139091B813A091B913B091BA13019604
:1004A000A11DB11D8093B7139093B813A093B913F6
:1004B000B093BA13BF91AF919F918F910F900FBEE0
:1004C0000F901F9018951F920F920FB60F92112444
:1004D0008F939F93AF93BF938091BB139091BC1365
:1004E000A091BD13B091BE130196A11DB11D8093C3
:1004F000BB139093BC13A093BD13B093BE13BF91D5
:10050000AF919F918F910F900FBE0F901F901895F4
:100510006091B7137091B8138091B9139091BA1389
:1005200027E0660F771F881F991F2A95D1F72EE3C2
:1005300030E040E050E00E948463CA01B9010895B0
:10054000AF92BF92CF92DF92EF92FF920F931F93E1
:100550005B016C016091B7137091B8138091B9136E
:100560009091BA1347E0660F771F881F991F4A952D
:10057000D1F72EE330E040E050E00E94846379013F
:100580008A016091B7137091B8138091B91390915B
:10059000BA1337E0660F771F881F991F3A95D1F776
:1005A0002EE330E040E050E00E9484632E193F09C2
:1005B000400B510B2A153B054C055D0510F31F91AF
:1005C0000F91FF90EF90DF90CF90BF90AF90089584
:1005D000789484B7877F84BF1092B7131092B813B2
:1005E0001092B9131092BA1384B5826084BD84B599
:1005F000816084BD85B5826085BD85B5816085BD1E
:10060000EEE6F0E0808181608083E1E8F0E08081C7
:1006100082608083808181608083E0E8F0E0808177
:1006200081608083E1EBF0E0808184608083E1E998
:10063000F0E0808184608083E0EBF0E08081816085
:100640008083E0E9F0E0808181608083E4E6F0E08F
:1006500080818E7F8083ECE7F0E080818F778083DC
:10066000808180648083EAE7F0E080818460808319
:100670008081826080838081806880831092C10045
:100680001092C90008959091EF0C982B9093EF0C65
:1006900080FF32C0809164008E7F809364008091DF
:1006A0007C008F7780937C0080917C0080648093B5
:1006B0007C0080917A00846080937A0080917A0037
:1006C000826080937A0080917A00806880937A00BB
:1006D000809164008F7780936400809164008B7FA9
:1006E00080936400809164008D7F8093640080918A
:1006F00065008E7F809365000895282F2095909146
:10070000EF0C92239093EF0C80FF1EC080917A0033
:100710008F7780937A008091640081608093640079
:10072000809164008068809364008091640084609C
:100730008093640080916400826080936400809163
:10074000650081608093650008951F920F920FB637
:100750000F920BB60F9211242F933F934F935F93F9
:100760006F937F938F939F93AF93BF93EF93FF9379
:10077000F89481E08093CB0CE0E6F0E08081806823
:10078000808380818F7B808383E060E00E94FA0316
:100790007894FF91EF91BF91AF919F918F917F914D
:1007A0006F915F914F913F912F910F900BBE0F90E2
:1007B0000FBE0F901F901895282F30E0C901895E59
:1007C0009E4FFC0194912C513F4FF9018491882355
:1007D00081F0E82FF0E0E453FF4FE491F0E066236E
:1007E00029F4808190958923808308958081892BC5
:1007F00080830895482F50E0CA01865B9E4FFC011C
:100800002491CA01895E9E4FFC0194914C515F4F27
:10081000FA0134913323C1F1222331F1233021F441
:10082000809180008F7705C0243031F48091800062
:100830008F7D8093800018C0213019F484B58F77A4
:1008400004C0223021F484B58F7D84BD0DC02630D4
:1008500021F48091B0008F7705C0273029F4809172
:10086000B0008F7D8093B000E32FF0E0EC52FF4F9B
:10087000E491F0E0662329F48081909589238083B8
:1008800008958081892B80830895482F50E0CA0104
:10089000865B9E4FFC012491CA01895E9E4FFC013C
:1008A00094914C515F4FFA013491332319F420E0B5
:1008B00030E035C0222331F1233021F480918000D3
:1008C0008F7705C0243031F4809180008F7D809334
:1008D000800018C0213019F484B58F7704C022300D
:1008E00021F484B58F7D84BD0DC0263021F4809124
:1008F000B0008F7705C0273029F48091B0008F7D3C
:100900008093B000E32FF0E0E452FF4FE491F0E079
:10091000808120E030E0892311F021E030E0C9013E
:1009200008950895DF92EF92FF920F931F93CF9354
:10093000DF937B01D42E890181E090E064EB70E0CD
:100940000E94C763EC0183E79EE065E173E00E94CB
:100950008D1783E79EE06EE173E00E948D170E9481
:10096000AE05BC0183E79EE00E947D171886C6583D
:10097000DF4F18822296D8821A92CB57D04010921D
:100980002B1188EB9FE0BE0140E00E94604F88EB96
:100990009FE0BE01A701980101E0EE240E945B5098
:1009A00088EB9FE0BE010E94674B009194110111FA
:1009B00001E0CE010E94906483E79EE065E173E070
:1009C0000E948D1783E79EE06EE173E00E948D1711
:1009D0000E94AE05BC0183E79EE00E947D17802F38
:1009E000DF91CF911F910F91FF90EF90DF900895CD
:1009F000EF92FF920F931F93CF93DF93EB010E942F
:100A000088027B018C0106C060E777E180E090E01E
:100A10000E94A00288EB9FE00E94205180919212D8
:100A2000882379F10E9488026E197F09800B910B4F
:100A300060527E448040904020F5209759F7E4CFE3
:100A400088EB9FE00E94405180918612882341F4F8
:100A500083E79EE063EF73E00E94931781E00AC092
:100A600088EB9FE060E00E94825188EB9FE00E944B
:100A7000644180E0DF91CF911F910F91FF90EF9043
:100A80000895809192128823D9F282E0F3CF0F93D8
:100A90001F938C0188EB9FE062E041E021E00E941F
:100AA000575288EB9FE00E94E45088EB9FE00E9441
:100AB000955068EE73E080E090E00E94A00288EB21
:100AC0009FE068EA72E10E94AC3F88EB9FE06FE331
:100AD0004FEF0E94AC4088EB9FE063E00E94BF4D67
:100AE00088EB9FE061E00E94825188EB9FE00E94CA
:100AF000644188EB9FE00E94C35068EB7BE080E09C
:100B000090E00E94A00288EB9FE00E94E45088EBF6
:100B10009FE00E949550C80160E070E00E94F804D8
:100B2000182F8BE29EE00E9490128BE29EE060E123
:100B300040E00E944C1283E79EE065E173E00E9472
:100B40008D170E94AE05BC0183E79EE00E947D17D1
:100B5000111111E0812F1F910F910895DF93CF9311
:100B600000D0CDB7DEB720913F1630914016CE01B0
:100B700001962115310519F48354964102C0821B58
:100B8000930B9A83898389819A810F900F90CF91DB
:100B9000DF910895CF93DF93EC01DB0190E030E02B
:100BA0005FEF4EEF18C0FE01E30FF11D2485E92F22
:100BB000F0E0892F8F5F222349F4EA0FFB1F508357
:100BC000FD01E80FF11D40839E5F04C0EA0FFB1F8B
:100BD0002083982F3F5F8B85381728F3A90FB11D0D
:100BE0001C92DF91CF91089508954F925F926F927A
:100BF0007F928F929F92AF92BF92CF92DF92EF92AD
:100C0000FF920F931F93DF93CF930F92CDB7DEB771
:100C10006C012B015A0182E08983D6011B968C93CB
:100C20001B971C96BC921C971D964C932CE0822E11
:100C3000912C8C0C9D1C0CEC1CE022E091E0E92E28
:100C4000F12C3E010894611C711CC7018A219B2173
:100C5000892B39F0D801ED91FC91C301B4010995BC
:100C600020E00E5F1F4FBCE00C3E1B0719F0EE0C9E
:100C7000FF1CEBCF223009F12223F9F4F601838522
:100C800090E0880F991F019661E070E00E94C763B1
:100C9000182F092FC601612F702F0E94CA0580EFFF
:100CA0009CE0B2014AE0212F302F0E949204F82EDE
:100CB000812F902F0E94906402C0FF24F3948F2D07
:100CC0000F90CF91DF911F910F91FF90EF90DF90E8
:100CD000CF90BF90AF909F908F907F906F905F90DC
:100CE0004F900895EF92FF920F931F937C018B0119
:100CF00040910B0E50910C0E60910D0E70910E0EE6
:100D000087ED9DE020E130E00E945F09F7019081CE
:100D1000F801E90FF11D20910F0E20839F5FF7016D
:100D20009083090F111D2091100EF80120839F5F01
:100D3000F701908390915F0D9E5F90935F0D1F91DF
:100D40000F91FF90EF900895EF92FF920F931F93F2
:100D50007C018B016091080E7091090E80E090E09B
:100D60000E943862AB01BC0187ED9DE028E030E0D5
:100D70000E945F09F7019081090F111D20910A0E51
:100D8000F80120839F5FF701908390915F0D9F5F33
:100D900090935F0D1F910F91FF90EF900895EF9248
:100DA000FF920F931F937C018B014091020E509193
:100DB000030E6091040E7091050E87ED9DE024E016
:100DC00030E00E945F09F7019081F801E90FF11D01
:100DD0002091060E20839F5FF7019083090F111D5C
:100DE0002091070EF80120839F5FF7019083909177
:100DF0005F0D9E5F90935F0D1F910F91FF90EF909D
:100E00000895EF92FF920F931F937C018B01409105
:100E1000FD0D5091FE0D6091FF0D7091000E87ED5C
:100E20009DE022E030E00E945F09F7019081090F08
:100E3000111D2091010EF80120839F5FF70190831F
:100E400090915F0D9F5F90935F0D1F910F91FF90A9
:100E5000EF900895EF92FF920F931F937C018B0107
:100E60004091F70D5091F80D6091F90D7091FA0DC8
:100E700087ED9DE021E030E00E945F09F70190815D
:100E8000F801E90FF11D2091FB0D20839F5FF70111
:100E90009083090F111D2091FC0DF80120839F5FA5
:100EA000F701908390915F0D9E5F90935F0D1F916E
:100EB0000F91FF90EF900895FC01118210828091B4
:100EC000430E6AE00E94516390E0918380832091F9
:100ED000420E46E0249F90011124280F391F3183D0
:100EE00020838091410E90E048E651E0BC01649F70
:100EF000C001659F900D749F900D1124280F391F1C
:100F00003183208308950895CF92DF92EF92FF926C
:100F10000F931F93DF93CF93CDB7DEB72C970FB608
:100F2000F894DEBF0FBECDBF8B016901DE011196C3
:100F3000EFEDFCE083E001900D928150E1F7DE01DE
:100F40001496ECEDFCE083E001900D928150E1F706
:100F5000DE011796E9EDFCE083E001900D928150EF
:100F6000E1F7DE011A96E6EDFCE083E001900D92D8
:100F70008150E1F781E2003C180750F1C80160ECB4
:100F800071E20E945D63462FC80160EC71E20E942D
:100F90005D638C0100D000D000D0EDB7FEB7319674
:100FA000CE010196ADB7BEB712969C938E93119762
:100FB0008BE194E093838283448315820E94566779
:100FC0008DB79EB706960FB6F8949EBF0FBE8DBF25
:100FD00091E008361907D8F1C80168E671E00E946F
:100FE0005D63462FC80168E671E00E945D638C0175
:100FF000CE0104964A3078F000D000D000D0EDB792
:10100000FEB73196ADB7BEB712969C938E931197EB
:101010008FE194E00EC000D000D000D0EDB7FEB755
:101020003196ADB7BEB712969C938E9311978BE114
:1010300094E093838283448315820E9456678DB720
:101040009EB706960FB6F8949EBF0FBE8DBF0630B2
:10105000110508F440C0C80166E070E00E945D63BD
:10106000262FC80166E070E00E945D637C018C0160
:10107000CE0107962A3078F000D000D000D0EDB72E
:10108000FEB73196ADB7BEB712969C938E9311976B
:101090008FE194E00EC000D000D000D0EDB7FEB7D5
:1010A0003196ADB7BEB712969C938E9311978BE194
:1010B00094E093838283248315820E9456678DB7C0
:1010C0009EB706960FB6F8949EBF0FBE8DBF96E0F2
:1010D000E916F10458F50115110541F100D000D0D1
:1010E00000D0EDB7FEB73196CE010A96ADB7BEB7C8
:1010F00012969C938E9311978FE194E09383828351
:10110000C80133E0880F991F3A95E1F7000F111FCE
:10111000800F911F848315820E9456678DB79EB7FA
:1011200006960FB6F8949EBF0FBE8DBFADB7BEB783
:101130001C970FB6F894BEBF0FBEADBFEDB7FEB79C
:1011400031961296DC92CE92119782E294E09383CC
:101150008283CE01019695838483CE010496978382
:101160008683CE01079691878087CE010A96938762
:1011700082870E9456678DB79EB70C960FB6F8947B
:101180009EBF0FBE8DBF80E02C960FB6F894DEBFD9
:101190000FBECDBFCF91DF911F910F91FF90EF90C8
:1011A000DF90CF900895CF93DF93FC01EB0141E2F4
:1011B000603C7407B8F0CB0160EC71E20E945D63A3
:1011C000262F30E080E49EEDAC01249FC001259FD6
:1011D000900D349F900D1124C80FD91F8091440E9B
:1011E000860F02C08091440E8683608171816C0FEE
:1011F0007D1F75836483CF01468137969F010E94CE
:10120000840780E0DF91CF910895EF92FF920F93D2
:101210001F937C010BE21EE0C8010E944012C7012F
:101220000E945C07C8010E9440121F910F91FF901D
:10123000EF900895FC011382128284E69BE0918373
:1012400080831782168284E19BE0958384831386D2
:10125000128684EC9AE0918780871786168684EB45
:101260009BE095878487138A128A86E49AE0918BA3
:10127000808B178A168A87E599E0958B848B138E6D
:10128000128E88E599E0918F808F178E168E89E5F2
:1012900099E0958F848FFA9620E08091C01290910A
:1012A000C112819391932F5F2830B9F70895089563
:1012B0000895089587ED9DE00E941A090895CF933F
:1012C000DF93EC012430310561F12530310544F420
:1012D0002130310569F02230310509F04BC01BC0C7
:1012E0002830310589F12031310509F043C033C080
:1012F000CB01BA0120E030E040E252E40E943C61C0
:1013000020E030E048EC52E40E94EE620E940C6261
:101310007CA36DA326C0CB01BA010E940C626AA710
:1013200018C0CB01BA0120E030E048EC52E40E9442
:10133000EE6220E030E543E457E40E943B610E9406
:101340000C627FA768AB0DC0CB01BA010E940C6292
:101350006BAB80E016C0CB01BA010E940C6278AF83
:1013600069AF80E0372F20E0260F311D6217730729
:1013700039F407C083E79EE063E474E00E949317AA
:1013800081E0DF91CF910895DF92EF92FF920F936A
:101390001F93CF93DF93EC017B016115710511F46D
:1013A00081E06CC068307105D9F48E859F852C85ED
:1013B0003D8580FF0EC0FC01F595E795EC0FFD1F04
:1013C0000190F081E02DE20FF31F0190F081E02DFC
:1013D00001C0F901959587958C0F9D1F09954DC00A
:1013E00082E79EE00E94E61682E79EE060E00E94AF
:1013F000BE1664E670E080E090E00E94A00201E08A
:1014000010E0DD2432C0C8018E219F21892B51F1CB
:101410008D2D90E0880F991F880F991FFE01E80F0E
:10142000F91F22813381DC0120FF12C0F901F595FB
:10143000E795EC0FFD1FAC0FBD1F0190F081E02D73
:101440008D919C91E80FF91F0190F081E02D04C06F
:10145000AC0FBD1FED91FC9135952795CE01820F04
:10146000931F0995000F111FD3948091BE12D816B7
:1014700050F282E79EE00E94E21680E0DF91CF9179
:101480001F910F91FF90EF90DF900895CF92DF9220
:10149000EF92FF920F931F93CF93DF936C0180E045
:1014A00090E0A0E0B0E0F60184AB95ABA6ABB7ABA3
:1014B00083E79EE065E574E00E94931782E79EE073
:1014C00064E070E041E00E94AA1682E79EE060E0DE
:1014D00044E050E00E9408130E9488027B018C01C6
:1014E00006C082E79EE064E070E00E94AA140E94B9
:1014F00088026E197F09800B910B605375478040FD
:10150000904078F3C0E0D0E0F601E4A8F5A806A981
:1015100017A982E79EE064E070E00E94AA149B0194
:10152000AC01C801B7010E943C61F60164AB75AB28
:1015300086AB97AB2196C330D10531F782E79EE0A9
:1015400061E044E050E00E940813F60164A975A927
:1015500086A997A920E030E040E450E40E94A4610D
:1015600020E030E04AE754E40E94EE62F60164AB0A
:1015700075AB86AB97ABDF91CF911F910F91FF9029
:10158000EF90DF90CF900895CF92DF92EF92FF928D
:101590000F931F93CF93DF936C0180E090E0A0E066
:1015A000B0E0F60183A794A7A5A7B6A782E79EE0BF
:1015B00060E042E050E00E940813C0E0D0E0F60195
:1015C000E3A4F4A405A516A582E79EE062E070E01E
:1015D0000E94AA149B01AC01C801B7010E943C61A2
:1015E000F60163A774A785A796A72196C330D105F6
:1015F00031F720E030E040E450E40E94A461F601BD
:1016000063A774A785A796A782E79EE061E042E002
:1016100050E00E940813DF91CF911F910F91FF902E
:10162000EF90DF90CF900895CF92DF92EF92FF92EC
:101630000F931F93CF93DF936C0180E090E0A0E0C5
:10164000B0E0F60186A397A3A0A7B1A782E79EE02A
:1016500060E041E050E00E940813C0E0D0E0F601F5
:10166000E6A0F7A000A511A582E79EE061E070E08A
:101670000E94AA149B01AC01C801B7010E943C6101
:10168000F60166A377A380A791A72196C330D10561
:1016900031F720E030E040E450E40E94A461F6011C
:1016A00066A377A380A791A782E79EE061E041E06F
:1016B00050E00E940813DF91CF911F910F91FF908E
:1016C000EF90DF90CF900895CF92DF92EF92FF924C
:1016D0000F931F93CF93DF936C0180E090E0A0E025
:1016E000B0E0F60180A391A3A2A3B3A382E79EE09A
:1016F00060E040E050E00E940813C0E0D0E0F60156
:10170000E0A0F1A002A113A182E79EE060E070E0FA
:101710000E94AA149B01AC01C801B7010E943C6160
:10172000F60160A371A382A393A32196C330D105D0
:1017300031F720E030E040E450E40E94A461F6017B
:1017400060A371A382A393A382E79EE061E040E0DF
:1017500050E00E940813DF91CF911F910F91FF90ED
:10176000EF90DF90CF900895CF92DF92EF92FF92AB
:101770000F931F936C01FC0112AA11AA99E2E92EA2
:101780009EE0F92EC7010E94570C082F10E0F601C9
:1017900012AB01ABC7010E94570C080F111DF601D7
:1017A00012AB01ABC7010E94570C9801280F311DE5
:1017B000C90163E070E00E945D63F60172AB61AB4A
:1017C0001F910F91FF90EF90DF90CF9008950895B3
:1017D00087E20E944504892BC9F084E79EE060E01F
:1017E00070E00E94BB188A3089F48091E20C9091DD
:1017F000E30CA091E40CB091E50C90688093E20CAE
:101800009093E30CA093E40CB093E50C84E79EE086
:1018100060E070E040E00E94B6188091E20C909188
:10182000E30CA091E40CB091E50C80709078892BCA
:1018300091F487E261E00E94DC0387E260E00E94AD
:10184000FA036AE070E080E090E00E94A00287E284
:1018500061E00E94FA038091E20C9091E30CA09168
:10186000E40CB091E50C80709078892B91F484E7BA
:101870009EE06CE041E00E94F71868EE73E080E0C3
:1018800090E00E94A00284E79EE06CE040E00E94AD
:10189000F718089589E261E00E94DC0388E261E0C4
:1018A0000E94DC0386E293E10E943B560895EF928A
:1018B000FF920F931F9389E161E00E94DC0389E1AD
:1018C00061E00E94FA0380E00E948E5EAA2797FDE5
:1018D000A095BA2FBC01CD010E943A627B018C0118
:1018E00020E030E040E054E40E94A061882334F41A
:1018F00089E160E00E94FA0310E046C0C801B70128
:1019000020E030EC42E254E40E94EA62181634F41B
:1019100089E160E00E94FA0314E636C0C801B7010D
:1019200020E030EC42E254E40E94A0611816BCF0C2
:10193000C801B70120E030EC47E054E40E94EA62BD
:1019400018166CF4C801B70125E535E545E55FE3F8
:101950000E94EE6220E030E04DED53E40CC0C8017F
:10196000B70120E030E040EA5EE30E94EE6220E052
:1019700030E040E253E40E943B610E940C62162F6B
:1019800089E160E00E94FA03812F1F910F91FF907F
:10199000EF9008950F931F93CF93DF93EB01142FD4
:1019A000022F86E161E00E94DC0386E160E00E9494
:1019B000FA0380E00E94A16004C083E260E00E941C
:1019C000FA0383E20E944504892BB9F78BE29EE07B
:1019D0000E9490128BE29EE0BE01412F202F0E94B8
:1019E000A9118BE29EE00E94150D8BE29EE060E162
:1019F00040E00E944C1284E79EE060E070E04AE024
:101A00000E94B61881E361E00E94DC0381E361E09B
:101A10000E94FA0362E170E080E090E00E94A00280
:101A200081E360E00E94FA03FFCF0895FC01138A6E
:101A3000148A158A168A178A108E118E128E138EAA
:101A4000148E158E168E178E10A211A212A280E08F
:101A500090E0A0E0B0E083A394A3A5A3B6A308956B
:101A6000262F862F6AE00E945163492F30E0C9017A
:101A7000841B91096AE070E00E947163E4E0660FE4
:101A8000771FEA95E1F7842F862B08950895CF9369
:101A9000DF93EC018D89843009F45FC0853048F410
:101AA000823059F1833008F040C0813009F0D2C053
:101AB0000AC0863009F481C0863008F466C08730D9
:101AC00009F0C8C092C08DB79EB742970FB6F89480
:101AD0009EBF0FBE8DBFEDB7FEB73196A896ADB7CE
:101AE000BEB71296DC93CE931197A8978BE694E03D
:101AF000938382838FE894E08FC0ADB7BEB75297CF
:101B00000FB6F894BEBF0FBEADBFEDB7FEB73196AE
:101B1000A8961296DC93CE931197A8978BE694E043
:101B20009383828386E994E077C0ADB7BEB75297BE
:101B30000FB6F894BEBF0FBEADBFEDB7FEB731967E
:101B4000A8961296DC93CE931197A8978BE694E013
:101B5000938382838DE994E05FC0ADB7BEB752979F
:101B60000FB6F894BEBF0FBEADBFEDB7FEB731964E
:101B7000A8961296DC93CE931197A8978BE694E0E3
:101B80009383828385EA94E047C0ADB7BEB752978E
:101B90000FB6F894BEBF0FBEADBFEDB7FEB731961E
:101BA000A8961296DC93CE931197A8978BE694E0B3
:101BB000938382838FEA94E02FC0ADB7BEB752976C
:101BC0000FB6F894BEBF0FBEADBFEDB7FEB73196EE
:101BD000A8961296DC93CE931197A8978BE694E083
:101BE0009383828388EB94E017C0ADB7BEB752975A
:101BF0000FB6F894BEBF0FBEADBFEDB7FEB73196BE
:101C0000A8961296DC93CE931197A8978BE694E052
:101C1000938382838FEB94E0958384838B8986837F
:101C200017828C8980871186898D828713868E8999
:101C3000848715868F8986871786888D808B118A81
:101C40000E9456678DB79EB742960FB6F8949EBF16
:101C50000FBE8DBF9E01285D3F4FC901DF91CF911F
:101C60000895DF92EF92FF920F931F938C01D62E6F
:101C7000A6E2EA2EA3E1FA2EC70168E670E00E9410
:101C80001956C7016D2D0E9445560D0D111DC70136
:101C9000F80160810E944556C7010E946C561F9151
:101CA0000F91FF90EF90DF90089580913A0E8C7F16
:101CB00080933A0E8BE29EE06FE00E94310E089511
:101CC0000F931F938C0160E170E080E090E00E9430
:101CD000EC5AC8010E94550E1F910F9108951F9351
:101CE000CF93DF93EC01142F613009F08CC08E8507
:101CF0008D7F85608E87CE016EE00E94310E8F85CC
:101D00008C7F8F87CE016FE00E94310E133009F473
:101D100052C0143030F4113031F18F811230D8F5C7
:101D20000AC0153009F454C0153008F44EC01630FE
:101D300009F0DDC0D2C08F778F83CE0167E00E94AB
:101D4000310E88858F778887CE0168E00E94310E3A
:101D500089858F778987CE0169E00E94310E8A8557
:101D60008F7780644CC08F818F778F83CE0167E03F
:101D70000E94310E88858F778887CE0168E00E94A7
:101D8000310E89858F778987CE0169E00E94310EF7
:101D90008A858F7334C08F778F83CE0167E00E946E
:101DA000310E88858F778887CE0168E00E94310EDA
:101DB00089858F771DC08F818F778F83CE0167E0F4
:101DC0000E94310E88858F770CC08F818F7702C07B
:101DD0008F8180688F83CE0167E00E94310E8885F5
:101DE00080688887CE0168E00E94310E898580680E
:101DF0008987CE0169E00E94310E8A8580688A87D2
:101E0000CE016AE067C0623009F071C08E858E7FB6
:101E100086608E87CE016EE00E94310E8F858C7FAA
:101E20008F87CE016FE00E94310E123099F113308E
:101E300030F4112361F0113009F059C01AC0143088
:101E4000B1F1143088F1153009F051C046C08B85CE
:101E50008F778B87CE016BE00E94310E8C858F7758
:101E60008C87CE016CE00E94310E8D858F77806467
:101E70002EC08B858F778B87CE016BE00E94310E51
:101E80008C858F778C87CE016CE00E94310E8D851A
:101E90008F731DC08B858F778B87CE016BE00E947F
:101EA000310E8C858F770CC08B858F7702C08B8528
:101EB00080688B87CE016BE00E94310E8C85806834
:101EC0008C87CE016CE00E94310E8D8580688D87F5
:101ED000CE016DE00E94310E0AC08E85887F8E870C
:101EE000CE016EE00E94310ECE010E94600E60E1D4
:101EF00070E080E090E00E94465BDF91CF911F91FF
:101F00000895DF92EF92FF920F931F938C01A6E248
:101F1000EA2EA3E1FA2EC70168E670E00E94195686
:101F2000C70167E070E00E946956C801F801628D40
:101F30000E94300DFFE7DF2ED822F801D782C801BA
:101F4000638D0E94300D8F77F8018087C801648D02
:101F50000E94300D8F77F8018187C801658D0E943E
:101F6000300D8F73F8018287C7016D2D0E94455691
:101F7000C701F80160850E944556C701F8016185D7
:101F80000E944556C701F80162850E944556C70167
:101F90000E946C561F910F91FF90EF90DF90089573
:101FA0000F931F93CF93DF93EC0186E293E168E6F2
:101FB00070E00E94195686E293E160E070E00E94B2
:101FC0006956CE01688D0E94300D8883CE016F89DD
:101FD0000E94300D8983CE016E890E94300D8A8364
:101FE0008D898B83CE01698D0E94300D8C83CE014B
:101FF0006C890E94300D8D83CE016B890E94300D5B
:102000008E8300E010E0FE01E00FF11F86E293E115
:1020100060810E9445560F5F1F4F0730110599F7E9
:1020200086E293E10E946C56DF91CF911F910F9150
:102030000895DC01FB0121812053808180533AE027
:10204000839FC0011124280F53962C93539724810A
:10205000205383818053839FC0011124280F5496FD
:102060002C9354972781205386818053839FC001EE
:102070001124280F59962C93599722852053818536
:102080008053839FC0011124280F55962C93559798
:102090002585205384858053839FC0011124280FF8
:1020A00056962C9356972089205387858053839F7B
:1020B000C0011124280F57962C935797238920533A
:1020C00082898053839FC0011124280F58962C9336
:1020D0005897CD010E94D00F0895CF92DF92EF92D2
:1020E000FF921F93CF93DF937C01162F86E293E13B
:1020F00068E670E00E94195686E293E160E070E0C5
:102100000E94695686E293E10E946C5686E293E152
:1021100068E670E042E150E00E948D56C0E0D0E0F9
:10212000C12EDD241AE009C186E293E10E94235604
:10213000882309F402C186E293E10E942956282FE0
:10214000F701EC0FFD1F8083C630D10509F482C072
:10215000C730D105B8F4C230D10509F44EC0C33040
:10216000D10538F4209769F1C130D10509F0E4C0F8
:1021700036C0C430D10509F451C0C530D10508F0CE
:102180005BC049C0CA30D10509F49BC0CB30D10532
:1021900058F4C830D10509F478C090E02F70C930E8
:1021A000D10508F081C064C0CC30D10509F4A7C0C6
:1021B000CC30D10508F494C0CD30D10509F0BCC0B5
:1021C000ADC090E054E0959587955A95E1F7819FD1
:1021D000C00111242F70280FF701208FADC090E0AF
:1021E00044E0959587954A95E1F7819FC0011124B8
:1021F0002F70280FF701278B9FC090E034E0959552
:1022000087953A95E1F7819FC00111242F70280F1F
:10221000F701268B91C0F701858B8EC090E0B4E06A
:1022200095958795BA95E1F7819FC00111242F708C
:10223000280FF701218F80C090E0A4E09595879545
:10224000AA95E1F7819FC00111242F70280FF70193
:10225000248B72C090E0F4E095958795FA95E1F7AC
:10226000819FC00111242F70280FF701238B64C0B8
:10227000E4E095958795EA95E1F78770819FC00125
:102280001124280FF701228F57C090E074E0959534
:1022900087957A95E1F78770819FC00111242F708F
:1022A000280FF701238F48C064E0959587956A95BC
:1022B000E1F78370819FC0011124280FF701248F5B
:1022C0003BC090E054E0959587955A95E1F783706F
:1022D000819FC00111242F70280FF701258F2CC07A
:1022E00090E044E0959587954A95E1F78770819F46
:1022F000C00111242F70280FF701268F1DC090E018
:1023000034E0959587953A95E1F78370819FC001F8
:1023100011242F70280FF701278F0EC090E0B4E032
:1023200095958795BA95E1F78370819FC001112437
:102330002F70280FF70120A32196CC16DD0608F098
:10234000F3CEDF91CF911F91FF90EF90DF90CF9070
:1023500008951F93CF93DF93EC01FB01122F21818E
:102360002053808180533AE0839FC0011124280FBD
:102370002D8F2481205383818053839FC00111249A
:10238000280F2C8F2781205386818053839FC00183
:102390001124280F2B8F2285205381858053839F02
:1023A000C0011124280F2A8F442309F05BC0CE01FD
:1023B00066E00E946D10988D8A8D980F9A8F9C33DD
:1023C00028F09C539A8F8B8D8F5F8B8F9F898B8D7D
:1023D000980F9B8F9C3328F09C539B8F8C8D8F5F25
:1023E0008C8F9E898C8D980F9C8F983128F09851F6
:1023F0009C8F8D8D8F5F8D8F2D8D112339F48D895D
:10240000820F8D8F883070F187502BC0998D920F7D
:102410009D8F8C89813051F0833041F0853031F0CF
:10242000873021F0883011F08C3021F4903210F098
:102430009F519D8F8C89843041F0863031F08930F6
:1024400021F08A3011F08B3029F48D8D8F3110F00E
:102450008E518D8F8C89823029F48D8D8D3110F0C5
:102460008C518D8F8BE29EE00E94810F8BE29EE06B
:1024700061E0412F0E946F0EDF91CF911F9108956F
:102480000F931F938C0166E00E946D10C8010E949B
:10249000470D1F910F9108950F931F93CF93DF93D3
:1024A000EC01042F6FA380E361E00E94DC031FA115
:1024B000113019F0103199F40DC080E361E00E94F1
:1024C000FA03013019F482E08A8B09C0002339F441
:1024D0001A8B05C080E360E00E94FA031A8ADF913C
:1024E000CF911F910F910895CF93DF93EC0161E09D
:1024F00040E00E944C1280912613882321F486E24A
:1025000093E10E949056CE010E94550ECE010E948A
:10251000160DCE016DE00E946D10DF91CF910895F0
:102520000E9474120895882777FD8095982F0E9445
:102530003A6220E030E44EE455E40E94EE6220E08E
:1025400030EC4FE754E40E94A4612AE939E949E1FB
:102550005FE30E94A46120E030E042E053E40E9487
:102560003B6120E030E44CE955E40E94A4612CE595
:102570003FE842EC5DE30E943C6120EE3DE240E139
:102580005CE30E94A4610895882777FD8095982FC9
:102590000E943A6220E030E44EE455E40E94EE628C
:1025A00020E030EC4FE754E40E94A46120E030E0EA
:1025B0004AEF53E40E943B6120E030E040E251E406
:1025C0000E94A4610895882777FD8095982F0E9426
:1025D0003A6220E030E44EE455E40E94EE6220E0EE
:1025E00030EC4FE754E40E94A4612AE939E949E15B
:1025F0005FE30E94A46120E030E048E454E40E94DC
:102600003B6120E030E048EF51E40E94A46108956E
:10261000CF93DF93EC01662309F042C040315105AE
:1026200009F468C04131510560F444305105F9F0B6
:102630004830510509F45AC04230510509F073C0C1
:1026400014C040345105A9F04134510528F44032FA
:10265000510509F068C04CC082E040305807D1F005
:102660004050504109F05FC00AC085E044C088E096
:1026700042C082E061E00E94FA0384E03CC086E050
:1026800061E00E94FA0382E061E00E94FA0381E0C7
:1026900088834AC08AE061E00E94FA0387E02BC089
:1026A000613011F080E040C04032510519F14132F3
:1026B000510550F444305105C9F040315105C1F085
:1026C0004230510581F50CC082E04030580729F1B5
:1026D00080E140305807B9F04034510521F50DC074
:1026E00085E060E00E94FA0381E01EC088E0F9CF37
:1026F00089E0F7CF89E061E0F5CF82E060E00E94F9
:10270000FA0384E0EECF86E060E00E94FA0382E004
:1027100060E00E94FA031882E7CF8AE060E00E943E
:10272000FA0387E0DECF8FEFDF91CF910895EF922C
:10273000FF920F931F93CF93DF937C0181E0603072
:10274000780709F458C0E1E061307E0720F4603872
:10275000710551F40CC0F4E060307F0709F493C0B8
:102760006050784009F4BCC0CFEFDFEFEBC084E0ED
:1027700061E00E94FA036EE070E080E090E00E9469
:10278000A00284E060E00E94FA0364EC73E080E061
:1027900090E00E94A00286E060E00E94FA036AE0F6
:1027A00070E080E090E00E94A00282E061E00E9480
:1027B000FA0363E070E080E090E00E94A00287E00E
:1027C0000E948E5EEC0162E070E080E090E00E948A
:1027D000A00282E060E00E94FA0368E070E080E01E
:1027E00090E00E94A002F7018081882309F4AAC02A
:1027F00086E061E072C086E060E00E94FA0364E077
:1028000070E080E090E00E94A00284E061E00E941D
:10281000FA0362E070E080E090E00E94A00282E0B3
:1028200061E00E94FA0365E070E080E090E00E94C1
:10283000A00287E00E948E5E182F092F82E060E0E0
:102840000E94FA0367E070E080E090E00E94A0023E
:1028500084E060E00E94FA0362E070E080E090E0D3
:102860000E94A002F7018081882321F086E061E0C8
:102870000E94FA03812F902F9C01E90166EE70E01F
:1028800080E090E05DC087E061E00E94FA036EE0C6
:1028900070E080E090E00E94A00287E060E00E948B
:1028A000FA0364ED73E080E090E00E94A0028AE009
:1028B00061E00E94FA0363E070E080E090E00E9433
:1028C000A00286E00E948E5EEC0162E070E080E093
:1028D00090E00E94A0028AE060E00E94FA0332C009
:1028E00087E061E00E94FA0362E070E080E090E03F
:1028F0000E94A0028AE061E00E94FA0364E070E0B6
:1029000080E090E00E94A00286E00E948E5EEC01D2
:1029100061E070E080E090E00E94A0028AE060E068
:102920000E94FA0367E070E080E090E00E94A0025D
:1029300087E060E00E94FA036CEE70E080E090E0D7
:102940000E94A002CE01DF91CF911F910F91FF90C5
:10295000EF9008950F931F93CF93DF93EC016032B4
:10296000710509F460C061327105D0F462307105FF
:1029700009F44FC06330710538F461157105C9F170
:102980006130710589F53DC06830710509F449C0B1
:102990006031710509F447C06430710529F541C003
:1029A00082E06030780709F46BC082E0613078071C
:1029B00068F46038710509F45BC081E06030780725
:1029C00009F45AC06034710579F42FC088E0603092
:1029D000780709F45DC080E16030780709F446C0EB
:1029E0006050744009F450C060E070E080E89FEBF4
:1029F00068C081E00E948E5EBC01CE010E94C412BC
:102A000060C084E00E948E5EBC01CE010E94E31291
:102A100058C085E00E948E5EBC01CE010E949312D8
:102A200050C083E02EC082E02CC086E060E00E94AF
:102A3000FA036AE070E080E090E00E94A00287E084
:102A40000E948E5E8C016AE070E080E090E00E945F
:102A5000A0028881882321F086E061E00E94FA03C9
:102A6000B801882777FD8095982F1DC087E009C0A1
:102A7000CE0160E870E00FC0CE0160E071E00BC0F5
:102A800086E00E948E5E09C0CE0160E074E003C063
:102A9000CE0160E078E00E949713AA2797FDA095E9
:102AA000BA2FBC01CD010E943A6223E333E343E530
:102AB00050E40E94EE6220E030EC4FE754E40E94C4
:102AC000A461DF91CF911F910F9108950F931F93F0
:102AD000162F042F80912613882321F486E293E198
:102AE0000E94905664E670E080E090E00E94A002B0
:102AF00086E293E1612F0E940F5686E293E160E146
:102B000070E00E946956802F90E001979695982F6B
:102B10008827979587956CE97FEF0E9471636058CD
:102B200086E293E10E94455686E293E10E946C564C
:102B300080912613882371F080913D0E813051F0F1
:102B400089E29EE00E944A0C8BE29EE060E141E057
:102B50000E944C121F910F910895613049F061302D
:102B600028F0623039F0643061F408C068E203C0D4
:102B70006CE201C06EE20E94661508956AE20E944E
:102B800066150895DF92EF92FF920F931F93D62E52
:102B900079018A0180912613882321F486E293E14A
:102BA0000E94905664E670E080E090E00E94A002EF
:102BB00086E293E16D2D0E940F5686E293E160E07C
:102BC00070E00E946956C801B70120E030E040E0A3
:102BD00053E40E94EE6220E030E048EC52E40E94B0
:102BE000A4619B01AC0160E070E080E093E40E948E
:102BF0003B610E940C629B01AC0186E293E1622F73
:102C00000E94455686E293E10E946C5680912613FD
:102C1000882371F080913D0E813051F089E29EE071
:102C20000E944A0C8BE29EE060E141E00E944C125F
:102C30001F910F91FF90EF90DF900895603131F078
:102C4000603241F0683049F46CE201C06EE20E94EB
:102C5000C21508956AE20E94C2150895BF92CF92EC
:102C6000DF92EF92FF920F931F93CF93DF936C014C
:102C7000EB01B42E78018901C801B70120E030E0F2
:102C800048EC52E40E94EA62181614F480E058C03E
:102C900085E68B1510F48EEF53C0C038D105D9F1FD
:102CA000C138D10598F4C031D10561F1C131D105E8
:102CB00030F4C430D10519F12897F9F420C0C0329E
:102CC000D10501F1C034D105C1F425C084E0C03084
:102CD000D80751F184E0C130D80740F481E0C0301A
:102CE000D807C9F0C050D24041F41EC088E0C030BF
:102CF000D807D1F0C050D04171F08FEF21C0C6018C
:102D000060E01AC0C60168E0A80197010E941E1683
:102D1000C60161E011C0C60160E1A80197010E94EF
:102D20001E16C60162E008C0C60160E2A801970154
:102D30000E941E16C60164E04B2D0E94AD1581E075
:102D4000DF91CF911F910F91FF90EF90DF90CF9087
:102D5000BF9008950F931F936430710529F0683078
:102D6000710511F08FEF07C000E010E020E030E0C7
:102D70000E942E1681E01F910F910895662321F085
:102D80006130B1F080E008958AE161E00E94FA03C9
:102D900088E161E00E94FA0380913D0E882331F4BE
:102DA0008BE29EE061E041E00E944C1281E00895D8
:102DB0008AE160E00E94FA0388E160E00E94FA0381
:102DC00081E0089561E00E94BE16089560E00E94CF
:102DD000BE16089584E061E00E94DC0386E061E0B5
:102DE0000E94DC0387E061E00E94DC0388E061E090
:102DF0000E94DC0389E061E00E94DC038AE061E07C
:102E00000E94DC0382E061E00E94DC038AE161E071
:102E10000E94DC0388E161E00E94DC0384E060E062
:102E20000E94FA0386E060E00E94FA0387E060E017
:102E30000E94FA0388E060E00E94FA0389E060E003
:102E40000E94FA038AE060E00E94FA0382E060E0F8
:102E50000E94FA038AE160E00E94FA0388E160E0E0
:102E60000E94FA03089582E79EE00E94EA16089500
:102E70001092730E08950F931F938C018DE0F8014B
:102E800060810E949E5F8AE0F80160810E949E5FDF
:102E90001F910F910895EF92FF920F931F93CF937D
:102EA000DF93EC017A018B0177FF0CC08DE2688122
:102EB0000E949E5F10950095F094E094E11CF11C37
:102EC000011D111DC801B7012AE030E040E050E0CB
:102ED00008810E94C55FDF91CF911F910F91FF90F4
:102EE000EF9008950F931F938C010E944B17C80118
:102EF0000E943B171F910F9108950F931F938C0110
:102F0000AB01662757FD6095762F0E944B17C801CD
:102F10000E943B171F910F910895FC01CB01608126
:102F20000E94AF5F08950F931F938C01CB01F801AE
:102F300060810E94AF5FC8010E943B171F910F91F3
:102F40000895FC0160E076E980E090E040810E9415
:102F5000BF600895FB0120E030E002C02F5F3F4FCB
:102F600081918823D9F7C90108950F931F93CF93B7
:102F7000DF938B01BA01DA0140E050E0C22FD0E0CC
:102F800019C0F801E40FF51F8081982F92959F706A
:102F90008F709A3010F4905D01C0995C9C938A30D8
:102FA00010F4805D01C0895C11968C9311974F5F7E
:102FB0005F4F12964C175D0724F3CC0FDD1FC60F31
:102FC000D71F1882DF91CF911F910F91089528E0AC
:102FD0000E94B5170895FB019081892F80538A3094
:102FE00038F4292F332727FD3095205330400DC06A
:102FF000892F8154863018F020E030E007C0292F57
:10300000332727FD30952753304031966081862F36
:1030100080538A3030F4772767FD70956053704095
:103020000CC0862F8154863018F060E070E005C037
:10303000772767FD709567537040A4E0220F331F18
:10304000AA95E1F7862F820F08956833A1F16933BD
:1030500080F4643341F1653338F4623301F1633352
:1030600000F56133D1F417C0663309F1673308F511
:103070001CC0633441F1643438F4613401F16234CA
:1030800000F5693351F419C0653409F16534E8F08D
:10309000663419F41EC081E01DC080E01BC082E0D0
:1030A00019C083E017C084E015C085E013C086E036
:1030B00011C087E00FC088E00DC089E00BC08AE036
:1030C00009C08BE007C08CE005C08DE003C08EE036
:1030D00001C08FE04733A1F1483380F4433341F11D
:1030E000443338F44133F1F0423300F54033E1F535
:1030F0001BC0453309F1463308F51CC0423441F189
:10310000433438F4493301F14933E0F0413461F597
:103110001DC0443409F14434E8F04534F9F0463434
:10312000F9F0089591E01DC090E01BC092E019C035
:1031300093E017C094E015C095E013C096E011C06D
:1031400097E00FC098E00DC099E00BC09AE009C06D
:103150009BE007C09CE005C09DE003C09EE001C06D
:103160009FE08295807F890F08950895CB01642F99
:103170000E9495690895CB010E948D6908958FE2A0
:1031800061E00E94DC0384E261E00E94DC0385E2EE
:1031900061E00E94DC038FE261E00E94FA0384E2B6
:1031A00061E00E94FA0385E261E00E94FA0308955B
:1031B0000F931F93162F042F8FE261E00E94DC0310
:1031C00084E261E00E94DC0385E261E00E94DC03AE
:1031D0008FE261E00E94FA0384E2612F0E94FA0309
:1031E00085E2602F0E94FA031F910F9108950F93BB
:1031F0001F93162F042F862F61E00E94DC030130FD
:1032000019F4812F61E004C0002321F4812F60E0D4
:103210000E94FA031F910F9108951092B40F10921B
:10322000B60F0895EF92FF920F931F93CF93DF9302
:10323000EC017A018B0177FF0CC08DE268810E945E
:103240009E5F10950095F094E094E11CF11C011D27
:10325000111DC801B7012AE030E040E050E00881CC
:103260000E94C55FDF91CF911F910F91FF90EF906A
:1032700008950F931F93FC01DA018B01211531058D
:1032800029F4842F60810E949E5F16C02A30310588
:1032900019F40E94121910C02031310529F4842F2D
:1032A00060810E94676008C030E040E050E0BD01EE
:1032B000C80100810E94C55F1F910F910895FC0114
:1032C00080810E94085F0895FC0180810E94CD5E8C
:1032D0000895FC0180810E94A95E0895FC0161832C
:1032E000613019F06330B9F518C08081882311F47A
:1032F00086E111C084E79EE00E94BF1886E061E08D
:103300000E94DC0386E061E00E94FA038AE261E049
:103310000E94DC038AE261E005C08081882329F4F1
:1033200086E160E00E94FA03089584E79EE060E091
:1033300040E00E94D81886E061E00E94DC0386E04D
:1033400060E00E94FA038AE261E00E94DC038AE204
:1033500060E00E94FA030895FC0180810E94A16050
:103360000895FC01262F608360E070E0CB01BA0174
:10337000422F0E94BF6086E161E00E94DC03089555
:103380000F931F93CF93DF93DC018B01EC01C658A1
:10339000DD4F1982188240E0BE0106C04F5F2F5FEB
:1033A0003F4FFB0131832083FB0120813181F801F4
:1033B000E20FF31F8081882389F7469583E090E030
:1033C0009983888390E0ED01C658DD4F50E00BC033
:1033D000FD01E20FF31FE857FD4F8081980F2F5F2B
:1033E0003F4F39832883288139812417350780F39B
:1033F000892F8095A40FB51FA957BD4F8C93DF91DE
:10340000CF911F910F910895AF92BF92CF92DF920B
:10341000EF92FF920F931F93CF93DF937C018B0169
:1034200006551F4FD8018C910A5A1040F801E855F3
:10343000FF4F813009F024C1C22EDD24DA01AC0D2A
:10344000BD1D83E28C938081813009F446C08130B8
:1034500020F0823009F038C2AAC011961C92119750
:1034600001571F4FF80181918F0112968C9312978B
:1034700080810059104013968C931397F701E658FA
:10348000FD4F11821082EF01FCE7CF2EF2E0DF2E1C
:10349000CE0CDF1CB70162587D4FAD010FC0FA01A1
:1034A000E20FF31FA00FB11FA20FB31F1C968C9148
:1034B00084838881998101969983888328813981C1
:1034C000F601A081B181FB018081918101968A1B67
:1034D0009B0B2817390718F3F7C111968C93B70186
:1034E00066587D4FDB011D921C92EB0110C0FA0162
:1034F000EA0FFB1FEC0DFD1DA00FB11FA557BF4F1D
:103500008C91828388819981019699838883A8818F
:10351000B981A430B10558F3FB0111821082E70193
:10352000C658DD4F10C0FA01EA0FFB1FEC0DFD1D60
:10353000A00FB11FA957BF4F8C91868388819981B5
:10354000019699838883A881B981A430B10558F385
:1035500019821882E701C658DD4FECE7AE2EE2E093
:10356000BE2EAE0CBF1C970122583D4F11C0FA0170
:10357000E60FF71FEC0DFD1DA00FB11FA60FB71F23
:103580001C968C9182878881998101969983888382
:1035900068817981F501A081B181F90180819181F2
:1035A00001968A1B9B0B6817790708F38DC111964A
:1035B0008C93C0E0D0E0D701A658BD4F06C0E9010A
:1035C0006F5F7F4F11967C936E936D917C911197F5
:1035D000F801E60FF71FEF56FF4F80819E012F5F26
:1035E0003F4F833261F71D921C92E701C658DD4FB1
:1035F00010C0FA01EA0FFB1FEC0DFD1DA00FB11F5B
:10360000AF56BF4F8C9182838881998101969983AF
:103610008883A881B981A217B30758F31982188249
:10362000E701C658DD4F7CE7A72E72E0B72EAE0C3F
:10363000BF1C8EE792E0E80EF91E13C0FA01E60FF8
:10364000F71FE20FF31FEC0DFD1DA00FB11FA60F1A
:10365000B71F1C968C9182838881998101969983EA
:10366000888368817981F501A081B181F70180812A
:10367000918101968A1B9B0B68177907F8F224C188
:103680008081813009F446C0813020F0823009F019
:103690001BC1AEC030E0FA01E20FF31F10820157E8
:1036A0001F4FD8018D918D0181838C91005910405D
:1036B0008283F701E658FD4F11821082EF016CE71B
:1036C000C62E62E0D62ECE0CDF1CEEE7F2E0EE0E48
:1036D000FF1E11C0FA01E60FF71FE20FF31FA00F44
:1036E000B11FA60FB71F1C968C9183838881998187
:1036F00001969983888368817981F601A081B181DF
:10370000F7018081918101968A1B9B0B68177907CD
:1037100008F3DAC030E0FA01E20FF31F8083B7014B
:1037200066587D4FDB011D921C92EB0110C0FA011F
:10373000EA0FFB1FE20FF31FA00FB11FA557BF4FEA
:103740008C91818388819981019699838883A8814E
:10375000B981A430B10558F3FB0111821082E70151
:10376000C658DD4F10C0FA01EA0FFB1FE20FF31F2E
:10377000A00FB11FA957BF4F8C9185838881998174
:10378000019699838883A881B981A430B10558F343
:1037900019821882E701C658DD4F9CE7C92E92E0D6
:1037A000D92ECE0CDF1C8EE792E0E80EF91E11C078
:1037B000FA01E60FF71FE20FF31FA00FB11FA60FCC
:1037C000B71F1C968C918187888199810196998376
:1037D000888368817981F601A081B181F7018081B8
:1037E000918101968A1B9B0B6817790708F36CC0BF
:1037F000C22EDD24FA01EC0DFD1D8083C0E0D0E077
:10380000D701A658BD4F06C0E9016F5F7F4F1196E3
:103810007C936E936D917C911197F801E60FF71FE1
:10382000EF56FF4F80819E012F5F3F4F833261F73C
:103830001D921C92E701C658DD4F10C0FA01EA0F35
:10384000FB1FEC0DFD1DA00FB11FAF56BF4F8C919C
:10385000818388819981019699838883A881B98120
:10386000A217B30758F319821882E701C658DD4F33
:103870008CE7A82E82E0B82EAE0CBF1C8EE792E03B
:10388000E80EF91E13C0FA01E60FF71FE20FF31F4F
:10389000EC0DFD1DA00FB11FA60FB71F1C968C913C
:1038A0008183888199810196998388836881798150
:1038B000F501A081B181F7018081918101968A1B78
:1038C0009B0B68177907F8F2DF91CF911F910F9149
:1038D000FF90EF90DF90CF90BF90AF9008953F9210
:1038E0004F925F926F927F928F929F92AF92BF9210
:1038F000CF92DF92EF92FF920F931F93DF93CF93BC
:1039000000D000D0CDB7DEB76B014A017901AA24FF
:10391000A39410E022E730E0C20ED31E21E3422E32
:103920009DE7792E83E3382EBEE56B2EADE55A2E4A
:1039300030C1D401A60FB71F8C91813111F090E0F6
:103940004AC04C92F70180818F5F80838C917C927A
:103950006F5F7F4F9401260F371F3C832B8361508D
:103960007040FB013296FA83E98320C0EB81FC8131
:10397000B180418349815A814F5F5F4F3296FC830A
:10398000EB8329813A812E5F3F4F3A832983F701E8
:1039900080819801280F311DC901F60120813181F4
:1039A000820F931F48175907A8F48B2DEB81FC81D8
:1039B00040818083F70180819801280F311DC90162
:1039C000F60120813181820F931F29813A812817C6
:1039D000390760F291E08C91833109F04DC0992351
:1039E00009F04AC03C92F70180818F5F80838C91FF
:1039F0007C926F5F7F4F9401260F371F3C832B8390
:103A000061507040FB013296FA83E98320C0EB815C
:103A1000FC81B180418349815A814F5F5F4F32966B
:103A2000FC83EB8329813A812E5F3F4F3A832983C0
:103A3000F70180819801280F311DC901F60120810D
:103A40003181820F931F48175907A8F48B2DEB8102
:103A5000FC8140818083F70180819801280F311D0E
:103A6000C901F60120813181820F931F29813A819A
:103A70002817390760F291E08C918E3709F04DC01C
:103A8000992309F04AC06C92F70180818F5F80838F
:103A90008C917C926F5F7F4F9401260F371F3C8380
:103AA0002B8361507040FB013296FA83E98320C07A
:103AB000EB81FC81B180418349815A814F5F5F4F27
:103AC0003296FC83EB8329813A812E5F3F4F3A8304
:103AD0002983F70180819801280F311DC901F60162
:103AE00020813181820F931F48175907A8F48B2D2D
:103AF000EB81FC8140818083F70180819801280F50
:103B0000311DC901F60120813181820F931F298166
:103B10003A812817390760F291E02C912D37C1F5D1
:103B20009923B1F55C92F70180818F5F80838C913E
:103B30002C936F5F7F4FF401E60FF71F6F5F7F4F8E
:103B400017C0B1804183AB014F5F5F4F32966E5F0C
:103B50007F4FD7018C919801280F311DC901D601E3
:103B60002D913C91820F931F4817590788F48B2D94
:103B700040818083D7018C919801280F311DC901A4
:103B8000D6012D913C91820F931F68177907C8F2D7
:103B9000A3946A2D70E0F70180819801280F311DF0
:103BA000C901D6012D913C91820F931F68177907A7
:103BB00008F4BFCE0F900F900F900F90CF91DF9130
:103BC0001F910F91FF90EF90DF90CF90BF90AF903B
:103BD0009F908F907F906F905F904F903F9008954F
:103BE000DF92EF92FF920F931F93CF93DF938901A0
:103BF00080E090E0F3E1DF2EEEE7EE2E31E1F32EF0
:103C000037C02F5F3F4F9C919D3731F01196319611
:103C100024173507B0F32DC02417350750F5E901F7
:103C20002196E60FF71F8181833361F0843318F406
:103C3000813369F405C08D3549F08E3541F404C0F7
:103C4000FC9205C0DC9203C0EC9201C09C934150F1
:103C50005040F901E00FF11FE60FF71F02C081810C
:103C600080832F5F3F4F3196CE0124173507B8F37D
:103C70009C012417350738F4F901E00FF11FDB012F
:103C8000AE0FBF1FC0CFDF91CF911F910F91FF905B
:103C9000EF90DF900895EF92FF920F931F93CF93D1
:103CA000DF938C01EB017A01FC01E658FD4F2D5F9B
:103CB0003F4F3183208323503040A0E0B0E0AF017C
:103CC0000BC0FE01E60FF71F8081A80FB11D6F5FCB
:103CD0007F4FFA0171836083FA01608171816E15F3
:103CE0007F0578F3AF3FB10521F0AF3F11F081E0E0
:103CF00008C008521E4FC20FD31F8C81F801808369
:103D000080E0DF91CF911F910F91FF90EF90089588
:103D1000EF92FF920F931F93CF93DF93EC01CA5B57
:103D2000DD4FE8808DEEE80E24978881C254D240A2
:103D3000813009F0C9C0CD5DDE4FF880C352D1405B
:103D4000FA948E0106581D4FD8011D921C92B8019D
:103D50002F2D30E087E290E0289FA001299F500D91
:103D6000389F500D11244C0F5D1F11C0FA01EA0F4E
:103D7000FB1FE05AFF4FAC0FBD1FA85BBD4F8C91DE
:103D80008083FB0180819181019691838083FB0177
:103D9000A081B181A230B10548F3D8011D921C92D7
:103DA000AE0146585D4F2F2D30E087E290E0289F0E
:103DB000B001299F700D389F700D11246C0F7D1F6D
:103DC00011C0FB01EA0FFB1FEE59FF4FAC0FBD1FE7
:103DD000A65BBD4F8C918083FA0180819181019611
:103DE00091838083FA01A081B181A430B10548F3A9
:103DF00011821082BE0166587D4F2F2D30E087E280
:103E000090E0289FA001299F500D389F500D11244C
:103E10004C0F5D1F12C0FA01EA0FFB1FEA59FF4F5A
:103E2000AC0FBD1FA25BBD4F8C918083DB018D91D8
:103E30009C91119701968D939C93FB01A081B18178
:103E4000A430B10540F387E290E0289FF001299F5C
:103E5000F00D389FF00D1124EC0FFD1FEA57FF4FB6
:103E6000CE5ADD4F8881C255D2408083E658F0405B
:103E7000AE014A5B5D4FDA018D919C910D9720F167
:103E8000DB011D921C929E0126583D4FBA01AF01E5
:103E900011C0FA01EA0FFB1FE659FF4FAC0FBD1F1F
:103EA000AD5ABD4F8C918083F9018081918101963B
:103EB00091838083F901A081B181FB01808191818F
:103EC0000C97A817B90728F3CE5BDD4F8881C25441
:103ED000D2408250843008F047C1CD5DDE4FF8807B
:103EE000C352D140FA948E0106581D4FD8011D923D
:103EF0001C92B8012F2D30E087E290E0289FA001AE
:103F0000299F500D389F500D11244C0F5D1F11C07B
:103F1000FA01EA0FFB1FE05AFF4FAC0FBD1FA85B71
:103F2000BD4F8C918083FB018081918101969183AB
:103F30008083FB01A081B181A230B10548F3D80193
:103F40001D921C92AE0146585D4F2F2D30E087E246
:103F500090E0289FB001299F700D389F700D1124AB
:103F60006C0F7D1F11C0FB01EA0FFB1FEE59FF4FC5
:103F7000AC0FBD1FA65BBD4F8C918083FA01808181
:103F80009181019691838083FA01A081B181A4304F
:103F9000B10548F311821082AE0146585D4F2F2DB6
:103FA00030E087E290E0289FB001299F700D389F94
:103FB000700D11246C0F7D1F12C0FB01EA0FFB1F57
:103FC000EA59FF4FAC0FBD1FA25BBD4F8C918083A0
:103FD000DA018D919C91119701968D939C93FA0132
:103FE000A081B181A430B10540F311821082AE01ED
:103FF00046585D4F0E2D10E02F2D30E087E290E007
:10400000289FB001299F700D389F700D11246C0FEF
:104010007D1F12C0FB01EA0FFB1FE659FF4FAC0FDB
:10402000BD1FAE5ABD4F8C918083DA018D919C915A
:10403000119701968D939C93FA01A081B181A017ED
:10404000B10740F311821082BE0166587D4F2F2DBB
:1040500030E087E290E0289FA001299F500D389F13
:10406000500D11244C0F5D1F14C0FA01EA0FFB1F05
:10407000E258FF4FAC0FBD1FA00FB11FAD5ABD4F8F
:104080008C918083DB018D919C91119701968D938A
:104090009C93FB01A081B181A230B10530F387E28E
:1040A00090E0289FD001299FB00D389FB00D1124BA
:1040B000AC0FBD1FA058BF4FFE01EE0DF11DEB5A16
:1040C000FD4F81918D9380818C93A158B040FB016D
:1040D00011821082AE0146585D4FBD0114C0FB0134
:1040E000EA0FFB1FEE57FF4FAC0FBD1FA00FB11F14
:1040F000A95ABD4F8C918083DA018D919C911197C3
:1041000001968D939C93FA01A081B181A230B105F3
:1041100030F311821082BE0166587D4F87E290E035
:10412000289FA001299F500D389F500D11244C0F3E
:104130005D1F14C0FA01EA0FFB1FEC57FF4FAC0FD5
:10414000BD1FA00FB11FA75ABD4F8C918083DB010B
:104150008D919C91119701968D939C93FB01A08169
:10416000B181A230B10530F3DF91CF911F910F9152
:10417000FF90EF900895CF92DF92EF92FF920F930E
:104180001F93CF93DF93EC016B017A01B901FC011E
:10419000E658FD4F0D5F1F4F118300830350104001
:1041A000A0E0B0E09F010BC0F601E40FF51F808195
:1041B000A80FB11D4F5F5F4FF90151834083F90193
:1041C000408151814617570778F3AF3FB10519F089
:1041D000AF3F09F05AC0F601E00FF11F9581D701FA
:1041E00015968C911597981709F04FC096811696E1
:1041F0008C91981709F049C09B01201B310B293085
:10420000310529F48781882309F442C03EC08781A3
:104210008823D9F5FE01E658FD4F11821082BF01B7
:104220002950304012C0FE01E40FF51FE85BFD4F3E
:10423000D601A40FB51FA00FB11F18968C918083D3
:104240004F5F5F4FFB0151834083DB014D915C91D8
:104250004217530740F3CA5BDD4F39832883C654A6
:10426000D240F70185818E3491F48681843479F4CB
:104270002230310530F0FE01ED5DFE4F80818F5F11
:104280008083CE010E94881E02C081E001C080E0D0
:10429000DF91CF911F910F91FF90EF90DF90CF9022
:1042A0000895FC01E658FD4F11821082DF010BC01A
:1042B000FC01E20FF31FE857FD4F10822F5F3F4FC5
:1042C00011963C932E932D913C9111972E313105EF
:1042D00078F30895CF92DF92EF92FF920F931F939E
:1042E000CF93DF936C01FC01E658FD4F11821082E1
:1042F0008F01E62EFF24E701CC0FDD1FCC0FDD1F61
:10430000CE0DDF1D1CC0EC0FFD1F3B96EE0FFF1FF7
:10431000EC0DFD1D808191810E949064D8018D91EA
:104320009C911197FE01E80FF91F3B96EE0FFF1FBE
:10433000EC0DFD1D1182108201968D939C93D80186
:10434000ED91FC91E530F105F0F28701000F111FAE
:104350000C0D1D1D075B1F4FD801ED91FC9115AA97
:1043600016AA17AA10AECF010E949064F80111821C
:104370001082F601ED5AFF4F808181508083DF91DA
:10438000CF911F910F91FF90EF90DF90CF90089504
:10439000AF92BF92CF92DF92FF920F931F93CF9372
:1043A000DF936C01FF2460E070E08C0106581D4F24
:1043B000D8016D937C93EB01AA96CC0FDD1FCC0D39
:1043C000DD1D23C05F010894A11CB11CA881B98127
:1043D000A555BF4FBB96EE0FFF1FEC0DFD1D0190C5
:1043E000F081E02DE555FF4F2D913D914D915C9170
:1043F00080819181A281B38182179307A407B507B9
:1044000054F4F394F801B182A082D801ED91FC91AB
:10441000E430F105B8F2B4E0FB1621F4F62E65E0C5
:1044200070E002C0F62EF3946F5F7F4F6530710528
:1044300008F4BECF0F2D10E0065D1F4F000F111FB7
:104440000C0D1D1DF801808191810E949064D8019E
:104450001D921C928F2DDF91CF911F910F91FF9094
:10446000DF90CF90BF90AF900895AF92BF92CF9260
:10447000DF92FF920F931F93CF93DF936C01FF2482
:1044800060E070E08C0106581D4FD8016D937C935D
:10449000EB01AA96CC0FDD1FCC0DDD1D23C05F0103
:1044A0000894A11CB11CA881B981A555BF4FBB962A
:1044B000EE0FFF1FEC0DFD1D0190F081E02DE55585
:1044C000FF4F2D913D914D915C9180819181A28111
:1044D000B381281739074A075B0754F4F394F801AE
:1044E000B182A082D801ED91FC91E430F105B8F2DF
:1044F000B4E0FB1621F4F62E65E070E002C0F62E63
:10450000F3946F5F7F4F6530710508F4BECF0F2DB8
:1045100010E0065D1F4F000F111F0C0D1D1DF8014F
:10452000808191810E949064D8011D921C928F2DF0
:10453000DF91CF911F910F91FF90DF90CF90BF90AF
:10454000AF9008950F931F93CF93DF938C01FC01DD
:10455000E658FD4F11821082EF0116C0BA96EE0F99
:10456000FF1FE00FF11F808191810E94906488817C
:1045700099818A96FC01EE0FFF1FE00FF11F118257
:104580001082899799838883E881F981E530F10564
:1045900028F3DF91CF911F910F910895AF92BF92B1
:1045A000CF92DF92EF92FF920F931F93CF93DF93FF
:1045B000EC0109E4A02EB12CA80EB91EEE24FF24B4
:1045C0001AE7C12E12E0D12EC80ED91ED6011D92B7
:1045D0001C928701000F111F000F111F0E0D1F1DD0
:1045E0001CC0E00FF11F3B96EE0FFF1FEC0FFD1FED
:1045F000808191810E949064F60180819181F8010F
:10460000E80FF91F3B96EE0FFF1FEC0FFD1F118205
:1046100010820196D6018D939C93D601ED91FC9169
:10462000E530F105F0F2D501ED91FC9115AA16AA3D
:1046300017AA10AECF010E949064F5011192119259
:104640005F010894E11CF11CF5E0EF16F10409F09C
:10465000BDCFCD5ADF4F1882C65ADD4F1882229641
:104660001882DF91CF911F910F91FF90EF90DF9013
:10467000CF90BF90AF900895AF92BF92CF92DF924C
:10468000EF92FF920F931F93CF93DF93EC01FC0106
:10469000E355FD4F108260E070E01AE7A12E12E0B2
:1046A000B12EA80EB91E7F01D5016D937C938B01AD
:1046B000000F111F0C0F1D1F075B1F4F28C0D801D3
:1046C0008D919C916F010894C11CD11CF601EE0FD5
:1046D000FF1FEC0FFD1FE75BFF4F0190F081E02D06
:1046E000DC01D5962D913D914D915C91D89785A98E
:1046F00096A9A7A9B0AD281739074A075B076CF43C
:10470000F70180818F5F8083D501CD92DC92D50146
:10471000ED91FC91E430F10590F2F7018081843055
:1047200021F4608365E070E004C0862F8F5FD701BD
:104730008C936F5F7F4F6530710508F4B5CFFE0134
:10474000E658FD4F118210828F017DEAE72E72E05C
:10475000F72EEC0EFD1E2FC0F701808190E0FC01CA
:10476000EE0FFF1FEE0FFF1FE80FF91FE20FF31F01
:104770003B96EE0FFF1FEC0FFD1F808191810E9481
:104780009064D7018C9190E0FC01EE0FFF1FEE0FBB
:10479000FF1FE80FF91FD8018D919C911197E80F29
:1047A000F91F3B96EE0FFF1FEC0FFD1F11821082C9
:1047B00001968D939C93F80120813181253031053C
:1047C00058F2D701EC91F0E0EE0FFF1FEC0FFD1F48
:1047D000E75BFF4F0190F081E02D15AA16AA17AAFA
:1047E00010AEEC91F0E0EE0FFF1FEC0FFD1FE75B4A
:1047F000FF4F808191810E949064D701EC91F0E09D
:10480000EE0FFF1FEC0FFD1FE75BFF4F11821082C1
:10481000FE01ED5AFF4F808181508083C155DD4FED
:104820001882DF91CF911F910F91FF90EF90DF9051
:10483000CF90BF90AF9008952F923F924F925F928A
:104840006F927F928F929F92AF92BF92CF92DF92A0
:10485000EF92FF920F931F93DF93CF93CDB7DEB705
:1048600060970FB6F894DEBF0FBECDBF7C016B0121
:10487000FC01E658FD4F118210822FEA32E0E20E71
:10488000F31ED7018C9121E53DEFE20EF31E882344
:1048900011F1DF0110C0F901EE0FFF1FEE0DFF1D3A
:1048A000E75BFF4F80819181892B59F02F5F3F4F4C
:1048B00011963C932E932D913C9111972530310503
:1048C00050F34DEA52E0E40EF51ED7012C93E3E5D8
:1048D000FDEFEE0EFF1E2AE732E0E20EF31ED701D7
:1048E0001D921C92E8ECFFEFEE0EFF1ED7018C919B
:1048F000EEEBFDEFEE0EFF1E813079F026E432E0A4
:10490000E20EF31ED7018D919C91EAEBFDEFEE0EC6
:10491000FF1E0C9770F50C94163620E832E0E20E7C
:10492000F31ED7018C91E0E8FDEFEE0EFF1E882309
:1049300079F426E432E0E20EF31ED7018D919C91CA
:10494000EAEBFDEFEE0EFF1E059798F40C94163679
:10495000813079F426E432E0E20EF31ED7018D9126
:104960009C91EAEBFDEFEE0EFF1E0B9710F40C94FA
:10497000163600E010E06624882477249924B701D5
:1049800066587D4FE2E44E2EE2E05E2E4E0C5F1C38
:1049900051E8252E52E0352E2E0C3F1C9701205851
:1049A0003D4F3E872D87DB011D921C92F801EE0FD3
:1049B000FF1FEE0DFF1DE75BFF4F0190F081E02D23
:1049C00085A996A9A7A9B0AD181619061A061B063F
:1049D0000CF08CC3D2018C91813009F0D0C1AD852F
:1049E000BE858C91882309F0E1C0D60114969C9174
:1049F00014978081981709F079C3AA24BB241696CE
:104A00008C91833219F431E0A32EB12C96012A0D3A
:104A10003B1DD90116968C91DB011D921C928130B1
:104A2000A9F0813020F0823009F088C070C09389ED
:104A3000D90117968C911797981709F07FC0948920
:104A400018968C91981709F079C07CC0FB011182EF
:104A50001082A801440F551F4E0D5F1D475B5F4F2D
:104A600017C0FA01A081B181A20FB31FF601E20FB6
:104A7000F31FEA0DFB1D1B969C918781981719F077
:104A8000882483940BC02F5F3F4FDB012D933C9311
:104A9000FB01208131812430310518F3DB011D92A7
:104AA0001C92A801440F551F4E0D5F1D475B5F4FC1
:104AB00014C0FA01A081B181A20FB31FF601E20F69
:104AC000F31FEA0DFB1D1F969C9183859817A1F596
:104AD0002F5F3F4FDB012D933C93FB012081318100
:104AE0002430310530F325C0992787FD9095F601D4
:104AF000E40FF51FEA0DFB1D278130E082179307B5
:104B0000D9F44F5F5F4FFB015183408307C0D80149
:104B1000AA0FBB1FAE0DBF1DA75BBF4FFB0140819E
:104B20005181ED91FC911197E40FF51F8589833236
:104B3000D9F6882039F002C088248394F1E06F16FA
:104B400009F0D4C2702E21E0A216B10479F4E02F4E
:104B5000F0E0EE0FFF1FEE0DFF1DE75BFF4F019032
:104B6000F081E02DD60115968C9182AFE72DF0E013
:104B7000EE0FFF1FEE0DFF1DE75BFF4FA081B18120
:104B8000DB968C91DB978F5FDB968C930190F081A5
:104B9000E02DD60112962C91129783A994A9820F29
:104BA000911D94AB83AB15969C90E3C0813009F0C6
:104BB0009DC2D6011A969C911A978081981709F088
:104BC00095C2AA24BB241C968C91833219F4B1E0BF
:104BD000AB2EB12C96012A0D3B1DD9011C968C9150
:104BE000DB011D921C928130A9F0813020F08230CF
:104BF00009F088C070C09389D9011D968C911D97CA
:104C0000981709F07FC094891E968C91981709F027
:104C100079C07CC0FB0111821082A801440F551F8E
:104C20004E0D5F1D475B5F4F17C0FA01A081B18138
:104C3000A20FB31FF601E20FF31FEA0DFB1D1B9637
:104C40009C918585981719F0882483940BC02F5F59
:104C50003F4FDB012D933C93FB01208131812430B8
:104C6000310518F3DB011D921C92A801440F551F5A
:104C70004E0D5F1D475B5F4F14C0FA01A081B181EB
:104C8000A20FB31FF601E20FF31FEA0DFB1D1F96E3
:104C90009C9181899817A1F52F5F3F4FDB012D93E0
:104CA0003C93FB01208131812430310530F325C054
:104CB000992787FD9095F601E40FF51FEA0DFB1D7E
:104CC000258530E082179307D9F44F5F5F4FFB01D2
:104CD0005183408307C0D801AA0FBB1FAE0DBF1D73
:104CE000A75BBF4FFB0140815181ED91FC91119772
:104CF000E40FF51F85898332D9F6882039F002C088
:104D000088248394F1E06F1609F0F0C1702E21E041
:104D1000A216B10479F4E02FF0E0EE0FFF1FEE0DC4
:104D2000FF1DE75BFF4F0190F081E02DD6011B9640
:104D30008C9182AFE72DF0E0EE0FFF1FEE0DFF1D0F
:104D4000E75BFF4FA081B181DB968C91DB978F5F92
:104D5000DB968C930190F081E02DD60118962C9172
:104D6000189783A994A9820F911D94AB83AB1B96CE
:104D70009C909A94B4E0B91508F0B4C1F8C682507A
:104D8000843008F0B3C1D1018C91882309F0D2C0DE
:104D9000D6011B969C911B978081981709F0A6C19C
:104DA000AA24BB241D968C91833219F431E0A32EE2
:104DB000B12C96012A0D3B1DD9011D968C91DB016A
:104DC0001D921C928130A9F0813020F0823009F0D0
:104DD00088C070C09389D9011E968C911E97981730
:104DE00009F07FC094891F968C91981709F079C0BB
:104DF0007CC0FB0111821082A801440F551F4E0D8B
:104E00005F1D475B5F4F17C0FA01A081B181A20F00
:104E1000B31FF601E20FF31FEA0DFB1D1B969C91D9
:104E20008685981719F0882483940BC02F5F3F4F15
:104E3000DB012D933C93FB0120813181243031052E
:104E400018F3DB011D921C92A801440F551F4E0D53
:104E50005F1D475B5F4F14C0FA01A081B181A20FB3
:104E6000B31FF601E20FF31FEA0DFB1D1F969C9185
:104E700082899817A1F52F5F3F4FDB012D933C935B
:104E8000FB01208131812430310530F325C0992781
:104E900087FD9095F601E40FF51FEA0DFB1D2685B1
:104EA00030E082179307D9F44F5F5F4FFB015183C6
:104EB000408307C0D801AA0FBB1FAE0DBF1DA75B63
:104EC000BF4FFB0140815181ED91FC911197E40F9F
:104ED000F51F85898332D9F6882039F002C08824ED
:104EE0008394F1E06F1609F001C1702E21E0A21643
:104EF000B10479F4E02FF0E0EE0FFF1FEE0DFF1D7F
:104F0000E75BFF4F0190F081E02DD6011C968C915C
:104F100082AFE72DF0E0EE0FFF1FEE0DFF1DE75B08
:104F2000FF4F0190F081E02D83AD8F5F83AFF601DD
:104F30009484D3C0823009F0D9C0D60151969C9197
:104F400051978081981709F0D1C0AA24BB245396A9
:104F50008C91833219F4B1E0AB2EB12C96012A0D5D
:104F60003B1DD90153968C91DB011D921C9281301F
:104F7000A9F0813020F0823009F088C070C0938998
:104F8000D90154968C915497981709F07FC0948951
:104F900055968C91981709F079C07BC0FB0111825E
:104FA0001082A801440F551F4E0D5F1D475B5F4FD8
:104FB00017C0FA01A081B181A20FB31FF601E20F61
:104FC000F31FEA0DFB1D1B969C918489981719F01D
:104FD000882483940BC02F5F3F4FDB012D933C93BC
:104FE000FB01208131812430310518F3DB011D9252
:104FF0001C92A801440F551F4E0D5F1D475B5F4F6C
:1050000014C0FA01A081B181A20FB31FF601E20F13
:10501000F31FEA0DFB1D1F969C91808D9817A1F53B
:105020002F5F3F4FDB012D933C93FB0120813181AA
:105030002430310530F325C0992787FD9095F6017E
:10504000E40FF51FEA0DFB1D248930E0821793075A
:10505000D9F44F5F5F4FFB015183408307C0D801F4
:10506000AA0FBB1FAE0DBF1DA75BBF4FFB01408149
:105070005181ED91FC911197E40FF51F85898332E1
:10508000D9F6882031F002C088248394F1E06F16AD
:1050900069F5702E21E0A216B10479F4E02FF0E05A
:1050A000EE0FFF1FEE0DFF1DE75BFF4F0190F0813C
:1050B000E02DD60152968C9182AFE72DF0E0EE0FF5
:1050C000FF1FEE0DFF1DE75BFF4F0190F081E02D0C
:1050D00083AD8F5F83AFF60192889A94F4E0F9155F
:1050E00008F445C505E010E0662463940F5F1F4F88
:1050F0000530110508F457CC2AE732E0E20EF31E22
:10510000D7011D921C92E6E8FDEFEE0EFF1E662011
:1051100009F015C6870103551D4FD8017C90EFEAB1
:10512000F2E0EE0EFF1E81E0D7018C93E4EAFDEF82
:10513000EE0EFF1ED7018C91EDEAFFEFEE0EFF1E83
:10514000853028F0C7010E943C23D8017C90F701EC
:10515000ED5AFF4F80818F5F8083A72CBB2481E0B5
:1051600090E06EE370E00E94C763FC012501440CEF
:10517000551C4E0C5F1C29E430E0420E531ED20138
:105180008D939C93009709F4F8C522E432E0E20E77
:10519000F31ED7018C912EEB3DEFE20EF31E813012
:1051A00009F084C240E852E0E40EF51ED7018C916C
:1051B00020E83DEFE20EF31E882309F022C112A67B
:1051C000D201ED91FC91D60114968C918083F2016D
:1051D000008111810E948802D801D5966D937D933C
:1051E0008D939C93D897F701E658FD4F118210825A
:1051F0009F01A20111C0FA01608171816A0F7B1FBA
:10520000AC0DBD1D8C91DB0119968C93F901808149
:105210009181019691838083F901A081B181A230AF
:10522000B10548F340E050E0D60116968C918332E8
:1052300011F441E050E0D501AA0FBB1FAE0DBF1D18
:10524000A75BBF4F2D913C911197B601640F751F5D
:10525000FB018681F90181A7970126583D4FF9018D
:10526000118210820D911C911197F80181A5813056
:1052700089F0813020F0823009F089C063C0FB01E1
:105280008781F801838BED91FC91DB0118968C915D
:10529000848B7DC0F901118210824901BD0114C0C7
:1052A000FB01008111810A0F1B1FAC0DBD1DA40F56
:1052B000B51F17968C91D8011B968C93F4018081B1
:1052C0009181019691838083F401A081B181A43002
:1052D000B10530F3D9011D921C92970126583D4F1C
:1052E000B501660F771F6E0D7F1D675B7F4F14C082
:1052F000FB01008111810A0F1B1FAC0DBD1DA40F06
:10530000B51F1B968C91D8011F968C93F901808153
:105310009181019691838083F901A081B181A430AC
:10532000B10530F334C0ED91FC911197E80FF91FEE
:10533000258BFB0180819181019691838083459724
:1053400010F00CC0B901FB0180819181F601E80FDA
:10535000F91FE40FF51F2781233229F7F501EE0F1E
:10536000FF1FEE0DFF1DE75BFF4F0190F081E02D69
:105370002AE732E0E20EF31ED7018D919C9126E8D8
:105380003DEFE20EF31EE80FF91F83E2858B4130FB
:10539000510571F4F501EE0FFF1FEE0DFF1DE75BE8
:1053A000FF4F0190F081E02DD60115968C9182AFD0
:1053B000D501AA0FBB1FAE0DBF1DA75BBF4FED915F
:1053C000FC91119791E093AFF60195809A94F4E0E7
:1053D000F91508F4CCC32D913C911197F601828107
:1053E000F90183AB14AAF6018381F90182ABED9137
:1053F000FC9182A98150823010F493A7A0C413A617
:105400009EC4813009F09BC482A7D201ED91FC912A
:10541000D6011A968C918083F201008111810E943D
:105420008802D801D5966D937D938D939C93D897E0
:10543000A70146585D4FFA01118210829A01B2010C
:1054400011C0FB01008111810A0F1B1FAC0DBD1D96
:105450008C91D80115968C93F901808191810196E8
:1054600091838083F901A081B181A430B10548F313
:10547000DA011D921C92970126583D4FA501440F59
:10548000551F4E0D5F1D475B5F4F12C0FA016081D3
:1054900071816A0F7B1FAC0DBD1D14968C91DB01D1
:1054A00011968C93F901808191810196918380837B
:1054B000F901A081B181A430B10540F360E070E052
:1054C000D6011C968C91833211F461E070E0D50115
:1054D000AA0FBB1FAE0DBF1DA75BBF4F2D913C9107
:1054E0001197A601460F571FFA018485F90181A77C
:1054F000970126583D4FF901118210820D911C91A0
:105500001197F80181A5813089F0813020F0823037
:1055100009F089C063C0FA018585F801838BED919C
:10552000FC91DA011E968C91848B7DC0F901118269
:1055300010824901AD0114C0FA01008111810A0FE6
:105540001B1FAC0DBD1DA60FB71F1D968C91D8015A
:105550001B968C93F40180819181019691838083C5
:10556000F401A081B181A430B10530F3D9011D92BD
:105570001C92970126583D4FA501440F551F4E0D13
:105580005F1D475B5F4F14C0FA01008111810A0F54
:105590001B1FAC0DBD1DA60FB71F51968C91D801D6
:1055A0001F968C93F901808191810196918380836C
:1055B000F901A081B181A430B10530F334C0ED917F
:1055C000FC911197E80FF91F258BFA0180819181D9
:1055D000019691838083459710F00CC0A901FA01D0
:1055E00080819181F601E80FF91FE60FF71F2585ED
:1055F000233229F7F501EE0FFF1FEE0DFF1DE75BCC
:10560000FF4F0190F081E02D2AE732E0E20EF31E19
:10561000D7018D919C9126E83DEFE20EF31EE80F35
:10562000F91F83E2858BD501AA0FBB1FAE0DBF1DED
:10563000A75BBF4F2D913C911197F6018085F90131
:1056400083AB14AAF6018185F90182ABED91FC913F
:1056500082A98150823018F481E083A701C013A68B
:105660006130710571F4F501EE0FFF1FEE0DFF1DA6
:10567000E75BFF4F0190F081E02DD6011B968C91E6
:1056800082AFAA0CBB1CAE0CBF1CE9E4F0E0AE0E6E
:10569000BF1ED501ED91FC9181E083AFF6019384AB
:1056A0009A94F4E0F91508F04AC361C2825084303C
:1056B00008F045C321E832E0E20EF31ED7018C91D9
:1056C0002FE73DEFE20EF31E882309F066C1D601F5
:1056D0001B968C918083F201008111810E948802C7
:1056E000D801D5966D937D938D939C93D89740E088
:1056F00050E0F6018585833211F441E050E0D50198
:10570000AA0FBB1FAE0DBF1DA75BBF4F2D913C91D4
:105710001197B601640F751FFB018585F90181A7FB
:10572000970126583D4FF901118210820D911C916D
:105730001197F80181A5813089F0813020F0823005
:1057400009F089C063C0FB018685F801838BED9168
:10575000FC91DB011F968C91848B7DC0F901118235
:1057600010824901BD0114C0FB01008111810A0FA3
:105770001B1FAC0DBD1DA40FB51F1E968C91D8012B
:105780001B968C93F4018081918101969183808393
:10579000F401A081B181A430B10530F3D9011D928B
:1057A0001C92970126583D4FB501660F771F6E0D6D
:1057B0007F1D675B7F4F14C0FB01008111810A0FC1
:1057C0001B1FAC0DBD1DA40FB51F52968C91D801A7
:1057D0001F968C93F901808191810196918380833A
:1057E000F901A081B181A430B10530F334C0ED914D
:1057F000FC911197E80FF91F258BFB0180819181A6
:10580000019691838083459710F00CC0B901FB018C
:1058100080819181F601E80FF91FE40FF51F2685BD
:10582000233229F7F501EE0FFF1FEE0DFF1DE75B99
:10583000FF4F0190F081E02D2AE732E0E20EF31EE7
:10584000D7018D919C9126E83DEFE20EF31EE80F03
:10585000F91F83E2858B4130510571F4F501EE0F9C
:10586000FF1FEE0DFF1DE75BFF4F0190F081E02D64
:10587000D6011C968C9182AFD501AA0FBB1FAE0D2D
:10588000BF1DA75BBF4FED91FC91119781E083AFE6
:10589000F60194849A94F4E0F91508F468C197012C
:1058A00026583D4FF901118210828901AD0111C0C6
:1058B000FA01608171816A0F7B1FAC0DBD1D8C9157
:1058C000DB0115968C93F80180819181019691837B
:1058D0008083F801A081B181A430B10548F3D901DA
:1058E0001D921C92970126583D4FA501440F551F4C
:1058F0004E0D5F1D475B5F4F12C0FA0160817181E1
:105900006A0F7B1FAC0DBD1D14968C91DB011196A7
:105910008C93F90180819181019691838083F901B3
:10592000A081B181A430B10540F3118210829701AA
:1059300026583D4FA501440F551FD701A40FB51F91
:10594000A75BBF4F11C06D917C911197680F791FB4
:105950008C0D9D1DFC018085FB018187F9018081F3
:105960009181019691838083F901808191818230B8
:10597000910548F3D701A40FB51FA75BBF4FED9169
:10598000FC91119713A62D913C911197F6018285F8
:10599000F90182ABED91FC91CDC1823009F0CFC10C
:1059A000D60151968C918083F201008111810E9471
:1059B0008802D801D5966D937D938D939C93D8974B
:1059C00040E050E0F6018389833211F441E050E079
:1059D000D501AA0FBB1FAE0DBF1DA75BBF4F2D91F9
:1059E0003C911197B601640F751FFB018389F90182
:1059F00081A7970126583D4FF901118210820D9120
:105A00001C911197F80181A5813089F0813020F037
:105A1000823009F089C063C0FB018489F801838B5F
:105A2000ED91FC91DB0155968C91848B7DC0F90141
:105A3000118210824901BD0114C0FB010081118156
:105A40000A0F1B1FAC0DBD1DA40FB51F54968C91E2
:105A5000D8011B968C93F4018081918101969183EA
:105A60008083F401A081B181A430B10530F3D90164
:105A70001D921C92970126583D4FB501660F771F66
:105A80006E0D7F1D675B7F4F14C0FB01008111818C
:105A90000A0F1B1FAC0DBD1DA40FB51F58968C918E
:105AA000D8011F968C93F901808191810196918391
:105AB0008083F901A081B181A430B10530F334C0F5
:105AC000ED91FC911197E80FF91F258BFB01808167
:105AD0009181019691838083459710F00CC0B901A4
