:100000000C94CB000C94704C0C94A14C0C94D24CDE
:100010000C94034D0C94344D0C94654D0C94964DFA
:100020000C94C74D0C94F5000C94F5000C94F5005D
:100030000C94CE020C94F5000C94F5000C948C01F9
:100040000C94F5000C94F5000C94F5000C94F5005C
:100050000C94F5000C94F5000C94F5000C946701D9
:100060000C94F5000C94864E0C94F5000C94F5005D
:100070000C94F5000C94F5000C94F5000C94F5002C
:100080000C94F5000C94F5000C94F5000C94F5001C
:100090000C94C74E0C94F5000C94F5000C94104B86
:1000A0000C94F5000C94F5000C94F5000C94F500FC
:1000B0000C94F5000C94F5000C94F5000C94F500EC
:1000C0000C94F5000C94F5000C94F5000021242705
:1000D0002A2D3033002225282B2E313400202326D0
:1000E000292C2F3205050505030303030101010433
:1000F00004030606060606060606010405010501B8
:1001000003020202020202010202050504040304C2
:1001100004010304070707010208101020408004AF
:1001200008102040020204081020408001028020B4
:100130004004200101020408102001408040800199
:1001400002080408800410040201000008090000ED
:10015000000000000000000000000000000000009F
:10016000000000000000000000000000000000008F
:1001700000000000000000000000000000006E030E
:100180009504D6047C0617073E0D430DB50EEE0E02
:10019000AD49DD49A55011241FBECFEFD1E2DEBF2E
:1001A000CDBF1AE0A0E0B2E0ECEEF0EB00E00BBF58
:1001B00002C007900D92A03DB107D9F713E1A0ED61
:1001C000BAE001C01D92AF3AB107E1F711E0C6E90C
:1001D000D1E004C02297FE010E947154CE37D107AE
:1001E000C9F70E9460010C9474580C940000CF93DE
:1001F000DF9381ED9BE060E072E00E94930D81ED62
:100200009AE061E070E00E94B803C82FD0E0209728
:1002100059F081ED9BE067E172E00E948D0D81ED68
:100220009BE0BE010E947D0D81ED9AE06FEA7AE0CD
:1002300041E02FEB3AE00E946F03C82FD0E02097F7
:1002400059F081ED9BE067E472E00E948D0D81ED35
:100250009BE0BE010E947D0D68E873E180E090E0C4
:100260000E94C901DF91CF91089581ED9BE00E942A
:10027000A10D81ED9BE06AE672E00E94930D0E9461
:100280007904BC0181ED9BE00E947D0D81ED9AE037
:1002900067EB7AE047EA5AE025EA32E00E94070479
:1002A000882331F081ED9BE06BEA72E00E94930DB0
:1002B0000E947904BC0181ED9BE00E947D0D0895B0
:1002C0000E9411020E9435010E94F700FDCF1F928B
:1002D0000F920FB60F9211248F939F93AF93BF93FA
:1002E0008091231190912411A0912511B091261194
:1002F0000196A11DB11D8093231190932411A09309
:100300002511B0932611BF91AF919F918F910F90BE
:100310000FBE0F901F9018951F920F920FB60F925D
:1003200011248F939F93AF93BF9380912711909146
:100330002811A0912911B0912A110196A11DB11D7A
:100340008093271190932811A0932911B0932A111B
:10035000BF91AF919F918F910F900FBE0F901F9003
:10036000189560912311709124118091251190911D
:10037000261127E0660F771F881F991F2A95D1F74E
:100380002EE330E040E050E00E943254CA01B9014F
:100390000895AF92BF92CF92DF92EF92FF920F93A8
:1003A0001F935B016C016091231170912411809166
:1003B00025119091261147E0660F771F881F991F1E
:1003C0004A95D1F72EE330E040E050E00E943254ED
:1003D00079018A0160912311709124118091251176
:1003E0009091261137E0660F771F881F991F3A9565
:1003F000D1F72EE330E040E050E00E9432542E1955
:100400003F09400B510B2A153B054C055D0510F3C8
:100410001F910F91FF90EF90DF90CF90BF90AF9022
:100420000895789484B7877F84BF10922311109227
:100430002411109225111092261184B5826084BD7A
:1004400084B5816084BD85B5826085BD85B58160D8
:1004500085BDEEE6F0E0808181608083E1E8F0E038
:10046000808182608083808181608083E0E8F0E029
:10047000808181608083E1EBF0E080818460808313
:10048000E1E9F0E0808184608083E0EBF0E080814E
:1004900081608083E0E9F0E0808181608083E4E630
:1004A000F0E080818E7F8083ECE7F0E080818F77C1
:1004B0008083808180648083EAE7F0E080818460CB
:1004C00080838081826080838081806880831092B5
:1004D000C1001092C90008959091D00A982B909372
:1004E000D00A80FF32C0809164008E7F80936400C8
:1004F00080917C008F7780937C0080917C00806469
:1005000080937C0080917A00846080937A0080914F
:100510007A00826080937A0080917A00806880936C
:100520007A00809164008F778093640080916400EA
:100530008B7F80936400809164008D7F8093640042
:10054000809165008E7F809365000895282F209507
:100550009091D00A92239093D00A80FF1EC0809180
:100560007A008F7780937A00809164008160809315
:1005700064008091640080688093640080916400CE
:100580008460809364008091640082608093640042
:100590008091650081608093650008951F920F929D
:1005A0000FB60F920BB60F9211242F933F934F93D8
:1005B0005F936F937F938F939F93AF93BF93EF93CB
:1005C000FF93F89481E08093C20AE0E6F0E0808136
:1005D0008068808380818F7B808383E060E00E94DD
:1005E00023037894FF91EF91BF91AF919F918F91E9
:1005F0007F916F915F914F913F912F910F900BBE23
:100600000F900FBE0F901F901895282F30E0C90152
:10061000895E9E4FFC0194912C513F4FF9018491CA
:10062000882381F0E82FF0E0E453FF4FE491F0E0FD
:10063000662329F4808190958923808308958081A1
:10064000892B80830895482F50E0CA01865B9E4F16
:10065000FC012491CA01895E9E4FFC0194914C518A
:100660005F4FFA0134913323C1F1222331F123305A
:1006700021F4809180008F7705C0243031F480917F
:1006800080008F7D8093800018C0213019F484B5DC
:100690008F7704C0223021F484B58F7D84BD0DC0D6
:1006A000263021F48091B0008F7705C0273029F4DF
:1006B0008091B0008F7D8093B000E32FF0E0EC528A
:1006C000FF4FE491F0E0662329F48081909589231F
:1006D000808308958081892B808308950895BF9237
:1006E000CF92DF92EF92FF920F931F937B01B42E74
:1006F000890181E090E064EB70E00E9475546C0128
:10070000FC0110868AE790E0C80ED91EF60110821F
:1007100082E090E0C80ED91EF601B08212926F01FD
:1007200085E89FEFC80ED91E1092890E86E19DE0E4
:10073000B60140E00E94444686E19DE0B601A70173
:10074000980101E0EE240E943F4786E19DE0B6015A
:100750000E944B421091F20EC6010E943E55812F1D
:100760001F910F91FF90EF90DF90CF90BF90089571
:10077000EF92FF920F931F93CF93DF93EB010E94B1
:10078000B1017B018C0106C060E777E180E090E079
:100790000E94C90186E19DE00E9404488091F00F0B
:1007A000882379F10E94B1016E197F09800B910BAA
:1007B00060527E448040904020F5209759F7E4CF66
:1007C00086E19DE00E9424488091E40F882341F453
:1007D00081ED9BE061E373E00E94930D81E00AC02C
:1007E00086E19DE060E00E94664886E19DE00E940F
:1007F000483880E0DF91CF911F910F91FF90EF90EB
:1008000008958091F00F8823D9F282E0F3CFAF9260
:10081000BF92CF92DF92EF92FF920F931F936C01E2
:100820008B015A01790186E19DE062E041E021E01F
:100830000E943B4986E19DE00E94C84786E19DE019
:100840000E94794768EE73E080E090E00E94C90161
:1008500086E19DE0B8010E94903686E19DE06FE35D
:100860004FEF0E94903786E19DE063E00E94A34431
:1008700086E19DE061E00E94664886E19DE0B70167
:100880000E94523486E19DE00E94483886E19DE056
:100890000E94A74768EB7BE080E090E00E94C901DE
:1008A00086E19DE00E94C84786E19DE00E9479476D
:1008B000C60160E070E00E94B803182F89E89BE051
:1008C0000E94C70889E89BE060E140E00E9483083D
:1008D00086E19DE0B5010E944149111111E0812F8F
:1008E0001F910F91FF90EF90DF90CF90BF90AF904E
:1008F0000895DF93CF9300D0CDB7DEB72091AB132F
:100900003091AC13CE0101962115310519F48F5A9F
:10091000934102C0821B930B9A83898389819A81B8
:100920000F900F90CF91DF9108950895FC011382ED
:10093000128289EF95E0918380831782168289EA7B
:1009400095E0958384831386128689E595E09187E7
:1009500080871786168689E496E095878487138AB0
:10096000128A8BED94E0918B808B178A168A83ED27
:1009700094E0958B848B138E128E84ED94E0918F8E
:10098000808F178E168E85ED94E0958F848FFA9662
:1009900020E080911E1090911F10819391932F5F02
:1009A0002830B9F7089508950895089585E39BE0E8
:1009B0000E9496040895CF92DF92EF92FF920F93D8
:1009C0001F93CF93DF936C0180E090E0A0E0B0E054
:1009D000F60184AB95ABA6ABB7AB81ED9BE061E6CE
:1009E00073E00E94930D80ED9BE064E070E041E0D5
:1009F0000E94E10C80ED9BE060E044E050E00E944A
:100A00003F090E94B1017B018C0106C080ED9BE093
:100A100064E070E00E94E10A0E94B1016E197F0952
:100A2000800B910B605375478040904078F3C0E095
:100A3000D0E0F601E4A8F5A806A917A980ED9BE08F
:100A400064E070E00E94E10A9B01AC01C801B701BB
:100A50000E94F651F60164AB75AB86AB97AB21965D
:100A6000C330D10531F780ED9BE061E044E050E018
:100A70000E943F09F60164A975A986A997A920E0FB
:100A800030E040E450E40E945E5220E030E04AE76B
:100A900054E40E94A853F60164AB75AB86AB97ABE8
:100AA000DF91CF911F910F91FF90EF90DF90CF904A
:100AB0000895CF92DF92EF92FF920F931F93CF93FF
:100AC000DF936C0180E090E0A0E0B0E0F60183A746
:100AD00094A7A5A7B6A780ED9BE060E042E050E0B8
:100AE0000E943F09C0E0D0E0F601E3A4F4A405A50C
:100AF00016A580ED9BE062E070E00E94E10A9B0198
:100B0000AC01C801B7010E94F651F60163A774A7B2
:100B100085A796A72196C330D10531F720E030E0B4
:100B200040E450E40E945E52F60163A774A785A7D3
:100B300096A780ED9BE061E042E050E00E943F0913
:100B4000DF91CF911F910F91FF90EF90DF90CF90A9
:100B50000895CF92DF92EF92FF920F931F93CF935E
:100B6000DF936C0180E090E0A0E0B0E0F60186A3A6
:100B700097A3A0A7B1A780ED9BE060E041E050E023
:100B80000E943F09C0E0D0E0F601E6A0F7A000A572
:100B900011A580ED9BE061E070E00E94E10A9B01FD
:100BA000AC01C801B7010E94F651F60166A377A314
:100BB00080A791A72196C330D10531F720E030E01E
:100BC00040E450E40E945E52F60166A377A380A73A
:100BD00091A780ED9BE061E041E050E00E943F0979
:100BE000DF91CF911F910F91FF90EF90DF90CF9009
:100BF0000895CF92DF92EF92FF920F931F93CF93BE
:100C0000DF936C0180E090E0A0E0B0E0F60180A30B
:100C100091A3A2A3B3A380ED9BE060E040E050E08D
:100C20000E943F09C0E0D0E0F601E0A0F1A002A1DF
:100C300013A180ED9BE060E070E00E94E10A9B015F
:100C4000AC01C801B7010E94F651F60160A371A37F
:100C500082A393A32196C330D10531F720E030E081
:100C600040E450E40E945E52F60160A371A382A3A7
:100C700093A380ED9BE061E040E050E00E943F09DB
:100C8000DF91CF911F910F91FF90EF90DF90CF9068
:100C90000895CF92DF92EF92FF920F931F936C0112
:100CA000FC0112AA11AA97E8E92E9BE0F92EC701D0
:100CB0000E948A06082F10E0F60112AB01ABC701B3
:100CC0000E948A06080F111DF60112AB01ABC70185
:100CD0000E948A069801280F311DC90163E070E067
:100CE0000E940B54F60172AB61AB1F910F91FF9004
:100CF000EF90DF90CF900895089589E261E00E941F
:100D0000050388E261E00E9405038CE890E10E94FF
:100D1000DE490895EF92FF920F931F9389E161E0FE
:100D20000E94050389E161E00E94230380E00E94A4
:100D3000F84DAA2797FDA095BA2FBC01CD010E94BE
:100D4000F4527B018C0120E030E040E054E40E944A
:100D50005A52882334F489E160E00E94230310E0B2
:100D600046C0C801B70120E030EC42E254E40E94E2
:100D7000A453181634F489E160E00E94230314E6BA
:100D800036C0C801B70120E030EC42E254E40E94D2
:100D90005A521816BCF0C801B70120E030EC47E009
:100DA00054E40E94A45318166CF4C801B70125E559
:100DB00035E545E55FE30E94A85320E030E04DEDC6
:100DC00053E40CC0C801B70120E030E040EA5EE324
:100DD0000E94A85320E030E040E253E40E94F55125
:100DE0000E94C652162F89E160E00E942303812FE2
:100DF0001F910F91FF90EF900895FC01138A148AC0
:100E0000158A168A178A108E118E128E138E148EE2
:100E1000158E168E178E10A211A212A280E090E0FD
:100E2000A0E0B0E083A394A3A5A3B6A3089508957A
:100E3000DF92EF92FF920F931F938C01D62EACE8B6
:100E4000EA2EA0E1FA2EC70168E670E00E94BC49D4
:100E5000C7016D2D0E94E8490D0D111DC701F80154
:100E600060810E94E849C7010E940F4A1F910F91BB
:100E7000FF90EF90DF9008958091980B8C7F809386
:100E8000980B89E89BE06FE00E9418070895CF92C5
:100E9000DF92EF92FF921F93CF93DF937C01162F87
:100EA0008CE890E168E670E00E94BC498CE890E133
:100EB00060E070E00E940C4A8CE890E10E940F4ACA
:100EC0008CE890E168E670E042E150E00E94304A30
:100ED000C0E0D0E0C12EDD241AE009C18CE890E129
:100EE0000E94C649882309F402C18CE890E10E945F
:100EF000CC49282FF701EC0FFD1F8083C630D105A8
:100F000009F482C0C730D105B8F4C230D10509F464
:100F10004EC0C330D10538F4209769F1C130D105F6
:100F200009F0E4C036C0C430D10509F451C0C53061
:100F3000D10508F05BC049C0CA30D10509F49BC097
:100F4000CB30D10558F4C830D10509F478C090E011
:100F50002F70C930D10508F081C064C0CC30D105F4
:100F600009F4A7C0CC30D10508F494C0CD30D10528
:100F700009F0BCC0ADC090E054E0959587955A95B6
:100F8000E1F7819FC00111242F70280FF701208FF6
:100F9000ADC090E044E0959587954A95E1F7819F33
:100FA000C00111242F70280FF701278B9FC090E0FC
:100FB00034E0959587953A95E1F7819FC00111241A
:100FC0002F70280FF701268B91C0F701858B8EC0FB
:100FD00090E0B4E095958795BA95E1F7819FC001BF
:100FE00011242F70280FF701218F80C090E0A4E01A
:100FF00095958795AA95E1F7819FC00111242F70DF
:10100000280FF701248B72C090E0F4E09595879546
:10101000FA95E1F7819FC00111242F70280FF70185
:10102000238B64C0E4E095958795EA95E1F7877096
:10103000819FC0011124280FF701228F57C090E033
:1010400074E0959587957A95E1F78770819FC00147
:1010500011242F70280FF701238F48C064E0959565
:1010600087956A95E1F78370819FC0011124280F4D
:10107000F701248F3BC090E054E0959587955A95F1
:10108000E1F78370819FC00111242F70280FF701B1
:10109000258F2CC090E044E0959587954A95E1F71F
:1010A0008770819FC00111242F70280FF701268FB0
:1010B0001DC090E034E0959587953A95E1F78370EF
:1010C000819FC00111242F70280FF701278F0EC0B8
:1010D00090E0B4E095958795BA95E1F78370819F8C
:1010E000C00111242F70280FF70120A32196CC16E0
:1010F000DD0608F0F3CEDF91CF911F91FF90EF90C6
:10110000DF90CF9008950F931F93CF93DF93EC015F
:10111000042F6FA380E361E00E9405031FA111303B
:1011200019F0103199F40DC080E361E00E942303AF
:10113000013019F482E08A8B09C0002339F41A8B3C
:1011400005C080E360E00E9423031A8ADF91CF91FB
:101150001F910F910895CF93DF93EC0161E040E080
:101160000E94830880918C10882321F48CE890E100
:101170000E94334ACE010E943C07CE010E94FD0628
:10118000CE016DE00E944707DF91CF9108950E9444
:10119000AB080895882777FD8095982F0E94F45218
:1011A00020E030E44EE455E40E94A85320E030EC07
:1011B0004FE754E40E945E522AE939E949E15FE3CE
:1011C0000E945E5220E030E042E053E40E94F5517C
:1011D00020E030E44CE955E40E945E522CE53FE803
:1011E00042EC5DE30E94F65120EE3DE240E15CE31B
:1011F0000E945E520895882777FD8095982F0E945F
:10120000F45220E030E44EE455E40E94A85320E07C
:1012100030EC4FE754E40E945E5220E030E04AEFA9
:1012200053E40E94F55120E030E040E251E40E9496
:101230005E520895882777FD8095982F0E94F4527A
:1012400020E030E44EE455E40E94A85320E030EC66
:101250004FE754E40E945E522AE939E949E15FE32D
:101260000E945E5220E030E048E454E40E94F551D0
:1012700020E030E048EF51E40E945E520895CF93A1
:10128000DF93EC01662309F042C04031510509F4B7
:1012900068C04131510560F444305105F9F04830DF
:1012A000510509F45AC04230510509F073C014C009
:1012B00040345105A9F04134510528F4403251051C
:1012C00009F068C04CC082E040305807D1F040506F
:1012D000504109F05FC00AC085E044C088E042C0C8
:1012E00082E061E00E94230384E03CC086E061E08C
:1012F0000E94230382E061E00E94230381E088834F
:101300004AC08AE061E00E94230387E02BC061307D
:1013100011F080E040C04032510519F141325105D1
:1013200050F444305105C9F040315105C1F042300C
:10133000510581F50CC082E04030580729F180E169
:1013400040305807B9F04034510521F50DC085E013
:1013500060E00E94230381E01EC088E0F9CF89E0AD
:10136000F7CF89E061E0F5CF82E060E00E942303DF
:1013700084E0EECF86E060E00E94230382E060E03C
:101380000E9423031882E7CF8AE060E00E942303D3
:1013900087E0DECF8FEFDF91CF910895EF92FF923C
:1013A0000F931F93CF93DF937C0181E06030780728
:1013B00009F458C0E1E061307E0720F4603871051F
:1013C00051F40CC0F4E060307F0709F493C0605022
:1013D000784009F4BCC0CFEFDFEFEBC084E061E000
:1013E0000E9423036EE070E080E090E00E94C9015B
:1013F00084E060E00E94230364EC73E080E090E00E
:101400000E94C90186E060E00E9423036AE070E068
:1014100080E090E00E94C90182E061E00E94230325
:1014200063E070E080E090E00E94C90187E00E94E4
:10143000F84DEC0162E070E080E090E00E94C901AC
:1014400082E060E00E94230368E070E080E090E0CA
:101450000E94C901F7018081882309F4AAC086E0AF
:1014600061E072C086E060E00E94230364E070E007
:1014700080E090E00E94C90184E061E00E942303C3
:1014800062E070E080E090E00E94C90182E061E0EB
:101490000E94230365E070E080E090E00E94C901B3
:1014A00087E00E94F84D182F092F82E060E00E942B
:1014B000230367E070E080E090E00E94C90184E0CF
:1014C00060E00E94230362E070E080E090E00E9410
:1014D000C901F7018081882321F086E061E00E9444
:1014E0002303812F902F9C01E90166EE70E080E0DC
:1014F00090E05DC087E061E00E9423036EE070E051
:1015000080E090E00E94C90187E060E00E94230330
:1015100064ED73E080E090E00E94C9018AE061E040
:101520000E94230363E070E080E090E00E94C90124
:1015300086E00E94F84DEC0162E070E080E090E00F
:101540000E94C9018AE060E00E94230332C087E064
:1015500061E00E94230362E070E080E090E00E947E
:10156000C9018AE061E00E94230364E070E080E04A
:1015700090E00E94C90186E00E94F84DEC0161E014
:1015800070E080E090E00E94C9018AE060E00E9483
:10159000230367E070E080E090E00E94C90187E0EB
:1015A00060E00E9423036CEE70E080E090E00E9417
:1015B000C901CE01DF91CF911F910F91FF90EF9064
:1015C00008950F931F93CF93DF93EC016032710561
:1015D00009F460C061327105D0F46230710509F41C
:1015E0004FC06330710538F461157105C9F1613080
:1015F000710589F53DC06830710509F449C0603155
:10160000710509F447C06430710529F541C082E0D5
:101610006030780709F46BC082E06130780768F4C5
:101620006038710509F45BC081E06030780709F427
:101630005AC06034710579F42FC088E060307807B3
:1016400009F45DC080E16030780709F446C060505D
:10165000744009F450C060E070E080E89FEB68C01F
:1016600081E00E94F84DBC01CE010E94FB0860C0E1
:1016700084E00E94F84DBC01CE010E941A0958C0B6
:1016800085E00E94F84DBC01CE010E94CA0850C0FE
:1016900083E02EC082E02CC086E060E00E9423033D
:1016A0006AE070E080E090E00E94C90187E00E945B
:1016B000F84D8C016AE070E080E090E00E94C90182
:1016C0008881882321F086E061E00E942303B8012D
:1016D000882777FD8095982F1DC087E009C0CE012F
:1016E00060E870E00FC0CE0160E071E00BC086E002
:1016F0000E94F84D09C0CE0160E074E003C0CE0145
:1017000060E078E00E94CE09AA2797FDA095BA2F45
:10171000BC01CD010E94F45223E333E343E550E4DE
:101720000E94A85320E030EC4FE754E40E945E5240
:10173000DF91CF911F910F9108950F931F93162F53
:10174000042F80918C10882321F48CE890E10E9472
:10175000334A64E670E080E090E00E94C9018CE8C2
:1017600090E1612F0E94B2498CE890E160E170E065
:101770000E940C4A802F90E001979695982F882719
:10178000979587956CE97FEF0E941F5460588CE80D
:1017900090E10E94E8498CE890E10E940F4A809114
:1017A0008C10882371F080919B0B813051F087E879
:1017B0009BE00E947D0689E89BE060E141E00E9499
:1017C00083081F910F910895613049F0613028F02E
:1017D000623039F0643061F408C068E203C06CE242
:1017E00001C06EE20E949D0B08956AE20E949D0B6B
:1017F0000895DF92EF92FF920F931F93D62E7901F7
:101800008A0180918C10882321F48CE890E10E9459
:10181000334A64E670E080E090E00E94C9018CE801
:1018200090E16D2D0E94B2498CE890E160E070E09B
:101830000E940C4AC801B70120E030E040E053E4C8
:101840000E94A85320E030E048EC52E40E945E522F
:101850009B01AC0160E070E080E093E40E94F551F0
:101860000E94C6529B01AC018CE890E1622F0E945D
:10187000E8498CE890E10E940F4A80918C108823FF
:1018800071F080919B0B813051F087E89BE00E94C2
:101890007D0689E89BE060E141E00E9483081F919A
:1018A0000F91FF90EF90DF900895603131F060323A
:1018B00041F0683049F46CE201C06EE20E94F90B1D
:1018C00008956AE20E94F90B0895BF92CF92DF92C9
:1018D000EF92FF920F931F93CF93DF936C01EB0175
:1018E000B42E78018901C801B70120E030E048EC4E
:1018F00052E40E94A453181614F480E058C085E600
:101900008B1510F48EEF53C0C038D105D9F1C13812
:10191000D10598F4C031D10561F1C131D10530F460
:10192000C430D10519F12897F9F420C0C032D1058F
:1019300001F1C034D105C1F425C084E0C030D8071E
:1019400051F184E0C130D80740F481E0C030D807BD
:10195000C9F0C050D24041F41EC088E0C030D80762
:10196000D1F0C050D04171F08FEF21C0C60160E0CE
:101970001AC0C60168E0A80197010E94550CC60173
:1019800061E011C0C60160E1A80197010E94550CF9
:10199000C60162E008C0C60160E2A80197010E948A
:1019A000550CC60164E04B2D0E94E40B81E0DF91F1
:1019B000CF911F910F91FF90EF90DF90CF90BF904C
:1019C00008950F931F936430710529F068307105F5
:1019D00011F08FEF07C000E010E020E030E00E943F
:1019E000650C81E01F910F91089584E061E00E94F1
:1019F000050386E061E00E94050387E061E00E9444
:101A0000050388E061E00E94050389E061E00E942F
:101A100005038AE061E00E94050382E061E00E9424
:101A200005038AE161E00E94050388E161E00E940C
:101A3000050384E060E00E94230386E060E00E94EA
:101A4000230387E060E00E94230388E060E00E94B7
:101A5000230389E060E00E9423038AE060E00E94A3
:101A6000230382E060E00E9423038AE160E00E9499
:101A7000230388E160E00E942303089580ED9BE04A
:101A80000E94F50C08951092D10B08950F931F93A7
:101A90008C018DE0F80160810E94084F8AE0F80116
:101AA00060810E94084F1F910F910895EF92FF925D
:101AB0000F931F93CF93DF93EC017A018B0177FF94
:101AC0000CC08DE268810E94084F10950095F0943B
:101AD000E094E11CF11C011D111DC801B7012AE0B1
:101AE00030E040E050E008810E942F4FDF91CF911D
:101AF0001F910F91FF90EF9008950F931F938C010A
:101B0000AB01662757FD6095762F0E94560DC801E0
:101B10000E94460D1F910F910895FC01CB01608139
:101B20000E94194F08950F931F938C01CB01F80168
:101B300060810E94194FC8010E94460D1F910F91AC
:101B40000895FC0160E076E980E090E040810E9429
:101B500029500895FB0120E030E002C02F5F3F4F85
:101B600081918823D9F7C90108950F931F93CF93CB
:101B7000DF938B01BA01DA0140E050E0C22FD0E0E0
:101B800019C0F801E40FF51F8081982F92959F707E
:101B90008F709A3010F4905D01C0995C9C938A30EC
:101BA00010F4805D01C0895C11968C9311974F5F92
:101BB0005F4F12964C175D0724F3CC0FDD1FC60F45
:101BC000D71F1882DF91CF911F910F91089528E0C0
:101BD0000E94B50D0895FB019081892F80538A30B2
:101BE00038F4292F332727FD3095205330400DC07E
:101BF000892F8154863018F020E030E007C0292F6B
:101C0000332727FD30952753304031966081862F4A
:101C100080538A3030F4772767FD709560537040A9
:101C20000CC0862F8154863018F060E070E005C04B
:101C3000772767FD709567537040A4E0220F331F2C
:101C4000AA95E1F7862F820F08956833A1F16933D1
:101C500080F4643341F1653338F4623301F1633366
:101C600000F56133D1F417C0663309F1673308F525
:101C70001CC0633441F1643438F4613401F16234DE
:101C800000F5693351F419C0653409F16534E8F0A1
:101C9000663419F41EC081E01DC080E01BC082E0E4
:101CA00019C083E017C084E015C085E013C086E04A
:101CB00011C087E00FC088E00DC089E00BC08AE04A
:101CC00009C08BE007C08CE005C08DE003C08EE04A
:101CD00001C08FE04733A1F1483380F4433341F131
:101CE000443338F44133F1F0423300F54033E1F549
:101CF0001BC0453309F1463308F51CC0423441F19D
:101D0000433438F4493301F14933E0F0413461F5AB
:101D10001DC0443409F14434E8F04534F9F0463448
:101D2000F9F0089591E01DC090E01BC092E019C049
:101D300093E017C094E015C095E013C096E011C081
:101D400097E00FC098E00DC099E00BC09AE009C081
:101D50009BE007C09CE005C09DE003C09EE001C081
:101D60009FE08295807F890F089508958FE261E05A
:101D70000E94050384E261E00E94050385E261E0C0
:101D80000E9405038FE261E00E94230384E261E088
:101D90000E94230385E261E00E94230308950F93CC
:101DA0001F93162F042F8FE261E00E94050384E247
:101DB00061E00E94050385E261E00E9405038FE275
:101DC00061E00E94230384E2612F0E94230385E2E5
:101DD000602F0E9423031F910F9108951092120DFE
:101DE0001092140D0895EF92FF920F931F93CF93CB
:101DF000DF93EC017A018B0177FF0CC08DE26881E3
:101E00000E94084F10950095F094E094E11CF11C9D
:101E1000011D111DC801B7012AE030E040E050E08B
:101E200008810E942F4FDF91CF911F910F91FF905A
:101E3000EF9008950F931F93FC01DA018B01211598
:101E4000310529F4842F60810E94084F16C02A3082
:101E5000310519F40E94F30E10C02031310529F428
:101E6000842F60810E94D14F08C030E040E050E0F4
:101E7000BD01C80100810E942F4F1F910F9108954D
:101E8000FC0180810E94724E0895FC0180810E94B5
:101E9000374E0895FC0180810E94134E0895FC0185
:101EA0006183613019F06330B9F518C080818823EF
:101EB00011F486E111C082ED9BE00E94B60E86E02F
:101EC00061E00E94050386E061E00E9423038AE24C
:101ED00061E00E9405038AE261E005C080818823F9
:101EE00029F486E160E00E942303089582ED9BE0DF
:101EF00060E040E00E94CF0E86E061E00E940503B2
:101F000086E060E00E9423038AE261E00E9405030C
:101F10008AE260E00E9423030895FC0180810E9410
:101F20000B500895FC01262F608360E070E0CB0128
:101F3000BA01422F0E94295086E161E00E94050308
:101F400008950F931F93CF93DF93DC018B01EC0176
:101F5000C658DD4F1982188240E0BE0106C04F5FAF
:101F60002F5F3F4FFB0131832083FB0120813181B3
:101F7000F801E20FF31F8081882389F7469583E0FB
:101F800090E09983888390E0ED01C658DD4F50E0E2
:101F90000BC0FD01E20FF31FE857FD4F8081980F42
:101FA0002F5F3F4F398328832881398124173507D4
:101FB00080F3892F8095A40FB51FA957BD4F8C932F
:101FC000DF91CF911F910F910895AF92BF92CF9261
:101FD000DF92EF92FF920F931F93CF93DF937C01D9
:101FE0008B0106551F4FD8018C910A5A1040F801F9
:101FF000E855FF4F813009F024C1C22EDD24DA01FB
:10200000AC0DBD1D83E28C938081813009F446C004
:10201000813020F0823009F038C2AAC011961C929B
:10202000119701571F4FF80181918F0112968C93E0
:10203000129780810059104013968C931397F701E3
:10204000E658FD4F11821082EF01FCE7CF2EF2E03F
:10205000DF2ECE0CDF1CB70162587D4FAD010FC0E3
:10206000FA01E20FF31FA00FB11FA20FB31F1C96BE
:102070008C918483888199810196998388832881B2
:102080003981F601A081B181FB01808191810196A6
:102090008A1B9B0B2817390718F3F7C111968C93ED
:1020A000B70166587D4FDB011D921C92EB0110C0F9
:1020B000FA01EA0FFB1FEC0DFD1DA00FB11FA55784
:1020C000BF4F8C91828388819981019699838883FF
:1020D000A881B981A430B10558F3FB0111821082A7
:1020E000E701C658DD4F10C0FA01EA0FFB1FEC0DE7
:1020F000FD1DA00FB11FA957BF4F8C91868388810A
:102100009981019699838883A881B981A430B1050A
:1021100058F319821882E701C658DD4FECE7AE2E5E
:10212000E2E0BE2EAE0CBF1C970122583D4F11C0FD
:10213000FA01E60FF71FEC0DFD1DA00FB11FA60F52
:10214000B71F1C968C91828788819981019699830B
:10215000888368817981F501A081B181F90180814D
:10216000918101968A1B9B0B6817790708F38DC133
:1021700011968C93C0E0D0E0D701A658BD4F06C0A1
:10218000E9016F5F7F4F11967C936E936D917C9107
:102190001197F801E60FF71FEF56FF4F80819E0160
:1021A0002F5F3F4F833261F71D921C92E701C658A3
:1021B000DD4F10C0FA01EA0FFB1FEC0DFD1DA00F53
:1021C000B11FAF56BF4F8C91828388819981019650
:1021D00099838883A881B981A217B30758F319821C
:1021E0001882E701C658DD4F7CE7A72E72E0B72EB4
:1021F000AE0CBF1C8EE792E0E80EF91E13C0FA0188
:10220000E60FF71FE20FF31FEC0DFD1DA00FB11F2E
:10221000A60FB71F1C968C918283888199810196A5
:102220009983888368817981F501A081B181F70163
:102230008081918101968A1B9B0B68177907F8F2C0
:1022400024C18081813009F446C0813020F0823081
:1022500009F01BC1AEC030E0FA01E20FF31F10829B
:1022600001571F4FD8018D918D0181838C910059A9
:1022700010408283F701E658FD4F11821082EF0172
:102280006CE7C62E62E0D62ECE0CDF1CEEE7F2E045
:10229000EE0EFF1E11C0FA01E60FF71FE20FF31F4B
:1022A000A00FB11FA60FB71F1C968C918383888146
:1022B000998101969983888368817981F601A0814B
:1022C000B181F7018081918101968A1B9B0B681770
:1022D000790708F3DAC030E0FA01E20FF31F8083D8
:1022E000B70166587D4FDB011D921C92EB0110C0B7
:1022F000FA01EA0FFB1FE20FF31FA00FB11FA55752
:10230000BF4F8C91818388819981019699838883BD
:10231000A881B981A430B10558F3FB011182108264
:10232000E701C658DD4F10C0FA01EA0FFB1FE20FAC
:10233000F31FA00FB11FA957BF4F8C9185838881D0
:102340009981019699838883A881B981A430B105C8
:1023500058F319821882E701C658DD4F9CE7C92E51
:1023600092E0D92ECE0CDF1C8EE792E0E80EF91E2B
:1023700011C0FA01E60FF71FE20FF31FA00FB11F04
:10238000A60FB71F1C968C91818788819981019631
:102390009983888368817981F601A081B181F701F1
:1023A0008081918101968A1B9B0B6817790708F33E
:1023B0006CC0C22EDD24FA01EC0DFD1D8083C0E04F
:1023C000D0E0D701A658BD4F06C0E9016F5F7F4F2F
:1023D00011967C936E936D917C911197F801E60FA5
:1023E000F71FEF56FF4F80819E012F5F3F4F8332D3
:1023F00061F71D921C92E701C658DD4F10C0FA012B
:10240000EA0FFB1FEC0DFD1DA00FB11FAF56BF4F14
:102410008C91818388819981019699838883A88191
:10242000B981A217B30758F319821882E701C65879
:10243000DD4F8CE7A82E82E0B82EAE0CBF1C8EE7D5
:1024400092E0E80EF91E13C0FA01E60FF71FE20F43
:10245000F31FEC0DFD1DA00FB11FA60FB71F1C969B
:102460008C91818388819981019699838883688181
:102470007981F501A081B181F70180819181019677
:102480008A1B9B0B68177907F8F2DF91CF911F9198
:102490000F91FF90EF90DF90CF90BF90AF90089595
:1024A0003F924F925F926F927F928F929F92AF92E4
:1024B000BF92CF92DF92EF92FF920F931F93DF9321
:1024C000CF9300D000D0CDB7DEB76B014A017901C0
:1024D000AA24A39410E022E730E0C20ED31E21E329
:1024E000422E9DE7792E83E3382EBEE56B2EADE5B7
:1024F0005A2E30C1D401A60FB71F8C91813111F033
:1025000090E04AC04C92F70180818F5F80838C916C
:102510007C926F5F7F4F9401260F371F3C832B8384
:1025200061507040FB013296FA83E98320C0EB8151
:10253000FC81B180418349815A814F5F5F4F329660
:10254000FC83EB8329813A812E5F3F4F3A832983B5
:10255000F70180819801280F311DC901F601208102
:102560003181820F931F48175907A8F48B2DEB81F7
:10257000FC8140818083F70180819801280F311D03
:10258000C901F60120813181820F931F29813A818F
:102590002817390760F291E08C91833109F04DC022
:1025A000992309F04AC03C92F70180818F5F8083B4
:1025B0008C917C926F5F7F4F9401260F371F3C8375
:1025C0002B8361507040FB013296FA83E98320C06F
:1025D000EB81FC81B180418349815A814F5F5F4F1C
:1025E0003296FC83EB8329813A812E5F3F4F3A83F9
:1025F0002983F70180819801280F311DC901F60157
:1026000020813181820F931F48175907A8F48B2D21
:10261000EB81FC8140818083F70180819801280F44
:10262000311DC901F60120813181820F931F29815B
:102630003A812817390760F291E08C918E3709F0C2
:102640004DC0992309F04AC06C92F70180818F5FD9
:1026500080838C917C926F5F7F4F9401260F371F90
:102660003C832B8361507040FB013296FA83E983EF
:1026700020C0EB81FC81B180418349815A814F5F49
:102680005F4F3296FC83EB8329813A812E5F3F4F67
:102690003A832983F70180819801280F311DC901F0
:1026A000F60120813181820F931F48175907A8F442
:1026B0008B2DEB81FC8140818083F7018081980123
:1026C000280F311DC901F60120813181820F931F2E
:1026D00029813A812817390760F291E02C912D3732
:1026E000C1F59923B1F55C92F70180818F5F8083FA
:1026F0008C912C936F5F7F4FF401E60FF71F6F5F94
:102700007F4F17C0B1804183AB014F5F5F4F32965F
:102710006E5F7F4FD7018C919801280F311DC90141
:10272000D6012D913C91820F931F4817590788F4C9
:102730008B2D40818083D7018C919801280F311D0A
:10274000C901D6012D913C91820F931F681779071B
:10275000C8F2A3946A2D70E0F70180819801280FD8
:10276000311DC901D6012D913C91820F931F68172D
:10277000790708F4BFCE0F900F900F900F90CF9174
:10278000DF911F910F91FF90EF90DF90CF90BF905E
:10279000AF909F908F907F906F905F904F903F9001
:1027A0000895DF92EF92FF920F931F93CF93DF93E1
:1027B000890180E090E0F3E1DF2EEEE7EE2E31E1DB
:1027C000F32E37C02F5F3F4F9C919D3731F011960C
:1027D000319624173507B0F32DC02417350750F56F
:1027E000E9012196E60FF71F8181833361F084337D
:1027F00018F4813369F405C08D3549F08E3541F404
:1028000004C0FC9205C0DC9203C0EC9201C09C9312
:1028100041505040F901E00FF11FE60FF71F02C0D1
:10282000818180832F5F3F4F3196CE01241735077A
:10283000B8F39C012417350738F4F901E00FF11FB4
:10284000DB01AE0FBF1FC0CFDF91CF911F910F9162
:10285000FF90EF90DF900895EF92FF920F931F93F8
:10286000CF93DF938C01EB017A01FC01E658FD4F19
:102870002D5F3F4F3183208323503040A0E0B0E0F4
:10288000AF010BC0FE01E60FF71F8081A80FB11D3D
:102890006F5F7F4FFA0171836083FA0160817181FC
:1028A0006E157F0578F3AF3FB10521F0AF3F11F012
:1028B00081E008C008521E4FC20FD31F8C81F8015F
:1028C000808380E0DF91CF911F910F91FF90EF9077
:1028D0000895EF92FF920F931F93CF93DF93EC0134
:1028E000CA5BDD4FE8808DEEE80E24978881C254E4
:1028F000D240813009F0C9C0CD5DDE4FF880C352AF
:10290000D140FA948E0106581D4FD8011D921C9299
:10291000B8012F2D30E087E290E0289FA001299F89
:10292000500D389F500D11244C0F5D1F11C0FA013E
:10293000EA0FFB1FE05AFF4FAC0FBD1FA85BBD4F56
:102940008C918083FB0180819181019691838083AA
:10295000FB01A081B181A230B10548F3D8011D92DD
:102960001C92AE0146585D4F2F2D30E087E290E07B
:10297000289FB001299F700D389F700D11246C0F96
:102980007D1F11C0FB01EA0FFB1FEE59FF4FAC0F7B
:10299000BD1FA65BBD4F8C918083FA018081918120
:1029A000019691838083FA01A081B181A430B105A1
:1029B00048F311821082BE0166587D4F2F2D30E002
:1029C00087E290E0289FA001299F500D389F500D6D
:1029D00011244C0F5D1F12C0FA01EA0FFB1FEA59C8
:1029E000FF4FAC0FBD1FA25BBD4F8C918083DB01FD
:1029F0008D919C91119701968D939C93FB01A081E1
:102A0000B181A430B10540F387E290E0289FF00146
:102A1000299FF00D389FF00D1124EC0FFD1FEA5790
:102A2000FF4FCE5ADD4F8881C255D2408083E65891
:102A3000F040AE014A5B5D4FDA018D919C910D979C
:102A400020F1DB011D921C929E0126583D4FBA01D8
:102A5000AF0111C0FA01EA0FFB1FE659FF4FAC0F9F
:102A6000BD1FAD5ABD4F8C918083F901808191814A
:102A7000019691838083F901A081B181FB0180815E
:102A800091810C97A817B90728F3CE5BDD4F888199
:102A9000C254D2408250843008F047C1CD5DDE4F31
:102AA000F880C352D140FA948E0106581D4FD801C8
:102AB0001D921C92B8012F2D30E087E290E0289FF4
:102AC000A001299F500D389F500D11244C0F5D1F00
:102AD00011C0FA01EA0FFB1FE05AFF4FAC0FBD1FF8
:102AE000A85BBD4F8C918083FB0180819181019611
:102AF00091838083FB01A081B181A230B10548F3AD
:102B0000D8011D921C92AE0146585D4F2F2D30E02A
:102B100087E290E0289FB001299F700D389F700DCB
:102B200011246C0F7D1F11C0FB01EA0FFB1FEE5932
:102B3000FF4FAC0FBD1FA65BBD4F8C918083FA0188
:102B400080819181019691838083FA01A081B18176
:102B5000A430B10548F311821082AE0146585D4F92
:102B60002F2D30E087E290E0289FB001299F700D63
:102B7000389F700D11246C0F7D1F12C0FB01EA0FEE
:102B8000FB1FEA59FF4FAC0FBD1FA25BBD4F8C91DD
:102B90008083DA018D919C91119701968D939C937E
:102BA000FA01A081B181A430B10540F311821082F5
:102BB000AE0146585D4F0E2D10E02F2D30E087E21C
:102BC00090E0289FB001299F700D389F700D11244F
:102BD0006C0F7D1F12C0FB01EA0FFB1FE659FF4F70
:102BE000AC0FBD1FAE5ABD4F8C918083DA018D9121
:102BF0009C91119701968D939C93FA01A081B181CC
:102C0000A017B10740F311821082BE0166587D4FB4
:102C10002F2D30E087E290E0289FA001299F500DE2
:102C2000389F500D11244C0F5D1F14C0FA01EA0F9C
:102C3000FB1FE258FF4FAC0FBD1FA00FB11FAD5AD5
:102C4000BD4F8C918083DB018D919C9111970196F2
:102C50008D939C93FB01A081B181A230B10530F32B
:102C600087E290E0289FD001299FB00D389FB00DDA
:102C70001124AC0FBD1FA058BF4FFE01EE0DF11D7A
:102C8000EB5AFD4F81918D9380818C93A158B04078
:102C9000FB0111821082AE0146585D4FBD0114C088
:102CA000FB01EA0FFB1FEE57FF4FAC0FBD1FA00F3C
:102CB000B11FA95ABD4F8C918083DA018D919C91EF
:102CC000119701968D939C93FA01A081B181A23056
:102CD000B10530F311821082BE0166587D4F87E244
:102CE00090E0289FA001299F500D389F500D11247E
:102CF0004C0F5D1F14C0FA01EA0FFB1FEC57FF4F8A
:102D0000AC0FBD1FA00FB11FA75ABD4F8C91808380
:102D1000DB018D919C91119701968D939C93FB0102
:102D2000A081B181A230B10530F3DF91CF911F9125
:102D30000F91FF90EF900895CF92DF92EF92FF9264
:102D40000F931F93CF93DF93EC016B017A01B901CD
:102D5000FC01E658FD4F0D5F1F4F118300830350A8
:102D60001040A0E0B0E09F010BC0F601E40FF51F9A
:102D70008081A80FB11D4F5F5F4FF90151834083E0
:102D8000F901408151814617570778F3AF3FB105EC
:102D900019F0AF3F09F05AC0F601E00FF11F95811D
:102DA000D70115968C911597981709F04FC0968109
:102DB00016968C91981709F049C09B01201B310B86
:102DC0002930310529F48781882309F442C03EC0A7
:102DD00087818823D9F5FE01E658FD4F11821082C4
:102DE000BF012950304012C0FE01E40FF51FE85B1F
:102DF000FD4FD601A40FB51FA00FB11F18968C91DF
:102E000080834F5F5F4FFB0151834083DB014D9116
:102E10005C914217530740F3CA5BDD4F3983288327
:102E2000C654D240F70185818E3491F48681843472
:102E300079F42230310530F0FE01ED5DFE4F8081E6
:102E40008F5F8083CE010E94691402C081E001C0BF
:102E500080E0DF91CF911F910F91FF90EF90DF9075
:102E6000CF900895FC01E658FD4F11821082DF01DA
:102E70000BC0FC01E20FF31FE857FD4F10822F5FDC
:102E80003F4F11963C932E932D913C9111972E31EB
:102E9000310578F30895CF92DF92EF92FF920F936E
:102EA0001F93CF93DF936C01FC01E658FD4F118215
:102EB00010828F01E62EFF24E701CC0FDD1FCC0F1F
:102EC000DD1FCE0DDF1D1CC0EC0FFD1F3B96EE0F6E
:102ED000FF1FEC0DFD1D808191810E943E55D801A0
:102EE0008D919C911197FE01E80FF91F3B96EE0F13
:102EF000FF1FEC0DFD1D1182108201968D939C9396
:102F0000D801ED91FC91E530F105F0F28701000F59
:102F1000111F0C0D1D1D075B1F4FD801ED91FC917A
:102F200015AA16AA17AA10AECF010E943E55F801A5
:102F300011821082F601ED5AFF4F8081815080830B
:102F4000DF91CF911F910F91FF90EF90DF90CF9085
:102F50000895AF92BF92CF92DF92FF920F931F938B
:102F6000CF93DF936C01FF2460E070E08C01065882
:102F70001D4FD8016D937C93EB01AA96CC0FDD1FFA
:102F8000CC0DDD1D23C05F010894A11CB11CA881DC
:102F9000B981A555BF4FBB96EE0FFF1FEC0DFD1D70
:102FA0000190F081E02DE555FF4F2D913D914D9120
:102FB0005C9180819181A281B38182179307A407DC
:102FC000B50754F4F394F801B182A082D801ED91D1
:102FD000FC91E430F105B8F2B4E0FB1621F4F62ED2
:102FE00065E070E002C0F62EF3946F5F7F4F6530AE
:102FF000710508F4BECF0F2D10E0065D1F4F000FC6
:10300000111F0C0D1D1DF801808191810E943E55FC
:10301000D8011D921C928F2DDF91CF911F910F919E
:10302000FF90DF90CF90BF90AF900895AF92BF9286
:10303000CF92DF92FF920F931F93CF93DF936C0198
:10304000FF2460E070E08C0106581D4FD8016D939D
:103050007C93EB01AA96CC0FDD1FCC0DDD1D23C0A8
:103060005F010894A11CB11CA881B981A555BF4F6F
:10307000BB96EE0FFF1FEC0DFD1D0190F081E02DC2
:10308000E555FF4F2D913D914D915C91808191814E
:10309000A281B381281739074A075B0754F4F394D8
:1030A000F801B182A082D801ED91FC91E430F105E4
:1030B000B8F2B4E0FB1621F4F62E65E070E002C031
:1030C000F62EF3946F5F7F4F6530710508F4BECF25
:1030D0000F2D10E0065D1F4F000F111F0C0D1D1D61
:1030E000F801808191810E943E55D8011D921C9269
:1030F0008F2DDF91CF911F910F91FF90DF90CF9097
:10310000BF90AF9008950F931F93CF93DF938C01DF
:10311000FC01E658FD4F11821082EF0116C0BA96ED
:10312000EE0FFF1FE00FF11F808191810E943E553D
:10313000888199818A96FC01EE0FFF1FE00FF11F35
:1031400011821082899799838883E881F981E5301B
:10315000F10528F3DF91CF911F910F910895AF9260
:10316000BF92CF92DF92EF92FF920F931F93CF9374
:10317000DF93EC0109E4A02EB12CA80EB91EEE24B9
:10318000FF241AE7C12E12E0D12EC80ED91ED60197
:103190001D921C928701000F111F000F111F0E0DB1
:1031A0001F1D1CC0E00FF11F3B96EE0FFF1FEC0F21
:1031B000FD1F808191810E943E55F60180819181A1
:1031C000F801E80FF91F3B96EE0FFF1FEC0FFD1FF4
:1031D000118210820196D6018D939C93D601ED91B8
:1031E000FC91E530F105F0F2D501ED91FC9115AAC5
:1031F00016AA17AA10AECF010E943E55F5011192F2
:1032000011925F010894E11CF11CF5E0EF16F10446
:1032100009F0BDCFCD5ADF4F1882C65ADD4F188254
:1032200022961882DF91CF911F910F91FF90EF901E
:10323000DF90CF90BF90AF900895AF92BF92CF92A2
:10324000DF92EF92FF920F931F93CF93DF93EC01E6
:10325000FC01E355FD4F108260E070E01AE7A12EFB
:1032600012E0B12EA80EB91E7F01D5016D937C939B
:103270008B01000F111F0C0F1D1F075B1F4F28C074
:10328000D8018D919C916F010894C11CD11CF6014D
:10329000EE0FFF1FEC0FFD1FE75BFF4F0190F0816A
:1032A000E02DDC01D5962D913D914D915C91D89703
:1032B00085A996A9A7A9B0AD281739074A075B07C2
:1032C0006CF4F70180818F5F8083D501CD92DC9211
:1032D000D501ED91FC91E430F10590F2F701808188
:1032E000843021F4608365E070E004C0862F8F5F36
:1032F000D7018C936F5F7F4F6530710508F4B5CFB0
:10330000FE01E658FD4F118210828F017DEAE72E03
:1033100072E0F72EEC0EFD1E2FC0F701808190E0C9
:10332000FC01EE0FFF1FEE0FFF1FE80FF91FE20F6A
:10333000F31F3B96EE0FFF1FEC0FFD1F8081918165
:103340000E943E55D7018C9190E0FC01EE0FFF1FCB
:10335000EE0FFF1FE80FF91FD8018D919C91119777
:10336000E80FF91F3B96EE0FFF1FEC0FFD1F1182B8
:10337000108201968D939C93F80120813181253034
:10338000310558F2D701EC91F0E0EE0FFF1FEC0F82
:10339000FD1FE75BFF4F0190F081E02D15AA16AAF3
:1033A00017AA10AEEC91F0E0EE0FFF1FEC0FFD1F1F
:1033B000E75BFF4F808191810E943E55D701EC91E0
:1033C000F0E0EE0FFF1FEC0FFD1FE75BFF4F1182D8
:1033D0001082FE01ED5AFF4F808181508083C155DC
:1033E000DD4F1882DF91CF911F910F91FF90EF90E9
:1033F000DF90CF90BF90AF9008952F923F924F9261
:103400005F926F927F928F929F92AF92BF92CF9274
:10341000DF92EF92FF920F931F93DF93CF93CDB77D
:10342000DEB760970FB6F894DEBF0FBECDBF7C014C
:103430006B01FC01E658FD4F118210822FEA32E049
:10344000E20EF31ED7018C9121E53DEFE20EF31E53
:10345000882311F1DF0110C0F901EE0FFF1FEE0DFF
:10346000FF1DE75BFF4F80819181892B59F02F5F12
:103470003F4F11963C932E932D913C9111972530FF
:10348000310550F34DEA52E0E40EF51ED7012C93BE
:10349000E3E5FDEFEE0EFF1E2AE732E0E20EF31E3B
:1034A000D7011D921C92E8ECFFEFEE0EFF1ED70134
:1034B0008C91EEEBFDEFEE0EFF1E813079F026E4ED
:1034C00032E0E20EF31ED7018D919C91EAEBFDEF05
:1034D000EE0EFF1E0C9770F50C94F72B20E832E0EF
:1034E000E20EF31ED7018C91E0E8FDEFEE0EFF1E19
:1034F000882379F426E432E0E20EF31ED7018D91A1
:103500009C91EAEBFDEFEE0EFF1E059798F40C94EC
:10351000F72B813079F426E432E0E20EF31ED70176
:103520008D919C91EAEBFDEFEE0EFF1E0B9710F4D0
:103530000C94F72B00E010E066248824772499246B
:10354000B70166587D4FE2E44E2EE2E05E2E4E0C4F
:103550005F1C51E8252E52E0352E2E0C3F1C9701A2
:1035600020583D4F3E872D87DB011D921C92F801AC
:10357000EE0FFF1FEE0DFF1DE75BFF4F0190F08187
:10358000E02D85A996A9A7A9B0AD181619061A06A7
:103590001B060CF08CC3D2018C91813009F0D0C194
:1035A000AD85BE858C91882309F0E1C0D6011496C3
:1035B0009C9114978081981709F079C3AA24BB24A1
:1035C00016968C91833219F431E0A32EB12C96011A
:1035D0002A0D3B1DD90116968C91DB011D921C9280
:1035E0008130A9F0813020F0823009F088C070C0AD
:1035F0009389D90117968C911797981709F07FC076
:10360000948918968C91981709F079C07CC0FB01B9
:1036100011821082A801440F551F4E0D5F1D475B9C
:103620005F4F17C0FA01A081B181A20FB31FF6014D
:10363000E20FF31FEA0DFB1D1B969C9187819817E3
:1036400019F0882483940BC02F5F3F4FDB012D932B
:103650003C93FB01208131812430310518F3DB01DB
:103660001D921C92A801440F551F4E0D5F1D475B14
:103670005F4F14C0FA01A081B181A20FB31FF60100
:10368000E20FF31FEA0DFB1D1F969C91838598178F
:10369000A1F52F5F3F4FDB012D933C93FB01208170
:1036A00031812430310530F325C0992787FD90956D
:1036B000F601E40FF51FEA0DFB1D278130E08217AC
:1036C0009307D9F44F5F5F4FFB015183408307C0DD
:1036D000D801AA0FBB1FAE0DBF1DA75BBF4FFB01DB
:1036E00040815181ED91FC911197E40FF51F85897F
:1036F0008332D9F6882039F002C088248394F1E01F
:103700006F1609F0D4C2702E21E0A216B10479F42C
:10371000E02FF0E0EE0FFF1FEE0DFF1DE75BFF4F08
:103720000190F081E02DD60115968C9182AFE72DA6
:10373000F0E0EE0FFF1FEE0DFF1DE75BFF4FA081D6
:10374000B181DB968C91DB978F5FDB968C93019038
:10375000F081E02DD60112962C91129783A994A99D
:10376000820F911D94AB83AB15969C90E3C0813082
:1037700009F09DC2D6011A969C911A9780819817DC
:1037800009F095C2AA24BB241C968C91833219F4AB
:10379000B1E0AB2EB12C96012A0D3B1DD9011C9630
:1037A0008C91DB011D921C928130A9F0813020F0B8
:1037B000823009F088C070C09389D9011D968C9120
:1037C0001D97981709F07FC094891E968C919817C1
:1037D00009F079C07CC0FB0111821082A801440F5E
:1037E000551F4E0D5F1D475B5F4F17C0FA01A0814B
:1037F000B181A20FB31FF601E20FF31FEA0DFB1D0B
:103800001B969C918585981719F0882483940BC08A
:103810002F5F3F4FDB012D933C93FB0120813181D2
:103820002430310518F3DB011D921C92A801440FCE
:10383000551F4E0D5F1D475B5F4F14C0FA01A081FD
:10384000B181A20FB31FF601E20FF31FEA0DFB1DBA
:103850001F969C9181899817A1F52F5F3F4FDB013F
:103860002D933C93FB01208131812430310530F3CD
:1038700025C0992787FD9095F601E40FF51FEA0D05
:10388000FB1D258530E082179307D9F44F5F5F4F0A
:10389000FB015183408307C0D801AA0FBB1FAE0DA7
:1038A000BF1DA75BBF4FFB0140815181ED91FC9192
:1038B0001197E40FF51F85898332D9F6882039F0F6
:1038C00002C088248394F1E06F1609F0F0C1702ED5
:1038D00021E0A216B10479F4E02FF0E0EE0FFF1F13
:1038E000EE0DFF1DE75BFF4F0190F081E02DD6014B
:1038F0001B968C9182AFE72DF0E0EE0FFF1FEE0DCF
:10390000FF1DE75BFF4FA081B181DB968C91DB97B8
:103910008F5FDB968C930190F081E02DD601189695
:103920002C91189783A994A9820F911D94AB83AB16
:103930001B969C909A94B4E0B91508F0B4C1F8C6EF
:103940008250843008F0B3C1D1018C91882309F0F2
:10395000D2C0D6011B969C911B978081981709F0C5
:10396000A6C1AA24BB241D968C91833219F431E0A0
:10397000A32EB12C96012A0D3B1DD9011D968C91C9
:10398000DB011D921C928130A9F0813020F0823041
:1039900009F088C070C09389D9011E968C911E973A
:1039A000981709F07FC094891F968C91981709F099
:1039B00079C07CC0FB0111821082A801440F551F01
:1039C0004E0D5F1D475B5F4F17C0FA01A081B181AB
:1039D000A20FB31FF601E20FF31FEA0DFB1D1B96AA
:1039E0009C918685981719F0882483940BC02F5FCB
:1039F0003F4FDB012D933C93FB012081318124302B
:103A0000310518F3DB011D921C92A801440F551FCC
:103A10004E0D5F1D475B5F4F14C0FA01A081B1815D
:103A2000A20FB31FF601E20FF31FEA0DFB1D1F9655
:103A30009C9182899817A1F52F5F3F4FDB012D9351
:103A40003C93FB01208131812430310530F325C0C6
:103A5000992787FD9095F601E40FF51FEA0DFB1DF0
:103A6000268530E082179307D9F44F5F5F4FFB0143
:103A70005183408307C0D801AA0FBB1FAE0DBF1DE5
:103A8000A75BBF4FFB0140815181ED91FC911197E4
:103A9000E40FF51F85898332D9F6882039F002C0FA
:103AA00088248394F1E06F1609F001C1702E21E0A3
:103AB000A216B10479F4E02FF0E0EE0FFF1FEE0D37
:103AC000FF1DE75BFF4F0190F081E02DD6011C96B2
:103AD0008C9182AFE72DF0E0EE0FFF1FEE0DFF1D82
:103AE000E75BFF4F0190F081E02D83AD8F5F83AFE7
:103AF000F6019484D3C0823009F0D9C0D601519622
:103B00009C9151978081981709F0D1C0AA24BB24B9
:103B100053968C91833219F4B1E0AB2EB12C9601FF
:103B20002A0D3B1DD90153968C91DB011D921C92ED
:103B30008130A9F0813020F0823009F088C070C057
:103B40009389D90154968C915497981709F07FC0A6
:103B5000948955968C91981709F079C07BC0FB0128
:103B600011821082A801440F551F4E0D5F1D475B47
:103B70005F4F17C0FA01A081B181A20FB31FF601F8
:103B8000E20FF31FEA0DFB1D1B969C918489981789
:103B900019F0882483940BC02F5F3F4FDB012D93D6
:103BA0003C93FB01208131812430310518F3DB0186
:103BB0001D921C92A801440F551F4E0D5F1D475BBF
:103BC0005F4F14C0FA01A081B181A20FB31FF601AB
:103BD000E20FF31FEA0DFB1D1F969C91808D981735
:103BE000A1F52F5F3F4FDB012D933C93FB0120811B
:103BF00031812430310530F325C0992787FD909518
:103C0000F601E40FF51FEA0DFB1D248930E0821751
:103C10009307D9F44F5F5F4FFB015183408307C087
:103C2000D801AA0FBB1FAE0DBF1DA75BBF4FFB0185
:103C300040815181ED91FC911197E40FF51F858929
:103C40008332D9F6882031F002C088248394F1E0D1
:103C50006F1669F5702E21E0A216B10479F4E02FF9
:103C6000F0E0EE0FFF1FEE0DFF1DE75BFF4F019031
:103C7000F081E02DD60152968C9182AFE72DF0E0D5
:103C8000EE0FFF1FEE0DFF1DE75BFF4F0190F08170
:103C9000E02D83AD8F5F83AFF60192889A94F4E0B4
:103CA000F91508F445C505E010E0662463940F5F3C
:103CB0001F4F0530110508F457CC2AE732E0E20E19
:103CC000F31ED7011D921C92E6E8FDEFEE0EFF1EDB
:103CD000662009F015C6870103551D4FD8017C9059
:103CE000EFEAF2E0EE0EFF1E81E0D7018C93E4EAEA
:103CF000FDEFEE0EFF1ED7018C91EDEAFFEFEE0E09
:103D0000FF1E853028F0C7010E941D19D8017C9044
:103D1000F701ED5AFF4F80818F5F8083A72CBB2472
:103D200081E090E06EE370E00E947554FC01250193
:103D3000440C551C4E0C5F1C29E430E0420E531E0F
:103D4000D2018D939C93009709F4F8C522E432E0E8
:103D5000E20EF31ED7018C912EEB3DEFE20EF31E27
:103D6000813009F084C240E852E0E40EF51ED7012C
:103D70008C9120E83DEFE20EF31E882309F022C16A
:103D800012A6D201ED91FC91D60114968C918083FC
:103D9000F201008111810E94B101D801D5966D9385
:103DA0007D938D939C93D897F701E658FD4F118230
:103DB00010829F01A20111C0FA01608171816A0F16
:103DC0007B1FAC0DBD1D8C91DB0119968C93F90105
:103DD00080819181019691838083F901A081B181D5
:103DE000A230B10548F340E050E0D60116968C9120
:103DF000833211F441E050E0D501AA0FBB1FAE0D94
:103E0000BF1DA75BBF4F2D913C911197B601640F69
:103E1000751FFB018681F90181A7970126583D4F47
:103E2000F901118210820D911C911197F80181A561
:103E3000813089F0813020F0823009F089C063C080
:103E4000FB018781F801838BED91FC91DB011896D2
:103E50008C91848B7DC0F901118210824901BD01D2
:103E600014C0FB01008111810A0F1B1FAC0DBD1D89
:103E7000A40FB51F17968C91D8011B968C93F40153
:103E800080819181019691838083F401A081B18129
:103E9000A430B10530F3D9011D921C929701265828
:103EA0003D4FB501660F771F6E0D7F1D675B7F4F1E
:103EB00014C0FB01008111810A0F1B1FAC0DBD1D39
:103EC000A40FB51F1B968C91D8011F968C93F901F6
:103ED00080819181019691838083F901A081B181D4
:103EE000A430B10530F334C0ED91FC911197E80F87
:103EF000F91F258BFB01808191810196918380833D
:103F0000459710F00CC0B901FB0180819181F60149
:103F1000E80FF91FE40FF51F2781233229F7F50178
:103F2000EE0FFF1FEE0DFF1DE75BFF4F0190F081CD
:103F3000E02D2AE732E0E20EF31ED7018D919C912D
:103F400026E83DEFE20EF31EE80FF91F83E2858BB2
:103F50004130510571F4F501EE0FFF1FEE0DFF1D0D
:103F6000E75BFF4F0190F081E02DD60115968C9113
:103F700082AFD501AA0FBB1FAE0DBF1DA75BBF4F00
:103F8000ED91FC91119791E093AFF60195809A9491
:103F9000F4E0F91508F4CCC32D913C911197F6018A
:103FA0008281F90183AB14AAF6018381F90182AB06
:103FB000ED91FC9182A98150823010F493A7A0C4A6
:103FC00013A69EC4813009F09BC482A7D201ED9153
:103FD000FC91D6011A968C918083F20100811181A7
:103FE0000E94B101D801D5966D937D938D939C93DA
:103FF000D897A70146585D4FFA01118210829A01A5
:10400000B20111C0FB01008111810A0F1B1FAC0D11
:10401000BD1D8C91D80115968C93F90180819181F9
:10402000019691838083F901A081B181A430B1050B
:1040300048F3DA011D921C92970126583D4FA501C5
:10404000440F551F4E0D5F1D475B5F4F12C0FA01B5
:10405000608171816A0F7B1FAC0DBD1D14968C9120
:10406000DB0111968C93F9018081918101969183F6
:104070008083F901A081B181A430B10540F360E0F3
:1040800070E0D6011C968C91833211F461E070E0EF
:10409000D501AA0FBB1FAE0DBF1DA75BBF4F2D9152
:1040A0003C911197A601460F571FFA018485F9012B
:1040B00081A7970126583D4FF901118210820D9179
:1040C0001C911197F80181A5813089F0813020F091
:1040D000823009F089C063C0FA018585F801838BBD
:1040E000ED91FC91DA011E968C91848B7DC0F901D3
:1040F000118210824901AD0114C0FA0100811181C1
:104100000A0F1B1FAC0DBD1DA60FB71F1D968C916E
:10411000D8011B968C93F401808191810196918343
:104120008083F401A081B181A430B10530F3D901BD
:104130001D921C92970126583D4FA501440F551F13
:104140004E0D5F1D475B5F4F14C0FA010081118166
:104150000A0F1B1FAC0DBD1DA60FB71F51968C91EA
:10416000D8011F968C93F9018081918101969183EA
:104170008083F901A081B181A430B10530F334C04E
:10418000ED91FC911197E80FF91F258BFA018081C1
:104190009181019691838083459710F00CC0A9010D
:1041A000FA0180819181F601E80FF91FE60FF71FF0
:1041B0002585233229F7F501EE0FFF1FEE0DFF1DB8
:1041C000E75BFF4F0190F081E02D2AE732E0E20E3D
:1041D000F31ED7018D919C9126E83DEFE20EF31E70
:1041E000E80FF91F83E2858BD501AA0FBB1FAE0D27
:1041F000BF1DA75BBF4F2D913C911197F6018085A4
:10420000F90183AB14AAF6018185F90182ABED9126
:10421000FC9182A98150823018F481E083A701C00B
:1042200013A66130710571F4F501EE0FFF1FEE0D5D
:10423000FF1DE75BFF4F0190F081E02DD6011B963B
:104240008C9182AFAA0CBB1CAE0CBF1CE9E4F0E061
:10425000AE0EBF1ED501ED91FC9181E083AFF6015A
:1042600093849A94F4E0F91508F04AC361C282502D
:10427000843008F045C321E832E0E20EF31ED70196
:104280008C912FE73DEFE20EF31E882309F066C103
:10429000D6011B968C918083F201008111810E94CE
:1042A000B101D801D5966D937D938D939C93D8974A
:1042B00040E050E0F6018585833211F441E050E0A2
:1042C000D501AA0FBB1FAE0DBF1DA75BBF4F2D9120
:1042D0003C911197B601640F751FFB018585F901AB
:1042E00081A7970126583D4FF901118210820D9147
:1042F0001C911197F80181A5813089F0813020F05F
:10430000823009F089C063C0FB018685F801838B88
:10431000ED91FC91DB011F968C91848B7DC0F9019E
:10432000118210824901BD0114C0FB01008111817D
:104330000A0F1B1FAC0DBD1DA40FB51F1E968C913F
:10434000D8011B968C93F401808191810196918311
:104350008083F401A081B181A430B10530F3D9018B
:104360001D921C92970126583D4FB501660F771F8D
:104370006E0D7F1D675B7F4F14C0FB0100811181B3
:104380000A0F1B1FAC0DBD1DA40FB51F52968C91BB
:10439000D8011F968C93F9018081918101969183B8
:1043A0008083F901A081B181A430B10530F334C01C
:1043B000ED91FC911197E80FF91F258BFB0180818E
:1043C0009181019691838083459710F00CC0B901CB
:1043D000FB0180819181F601E80FF91FE40FF51FC1
:1043E0002685233229F7F501EE0FFF1FEE0DFF1D85
:1043F000E75BFF4F0190F081E02D2AE732E0E20E0B
:10440000F31ED7018D919C9126E83DEFE20EF31E3D
:10441000E80FF91F83E2858B4130510571F4F501F6
:10442000EE0FFF1FEE0DFF1DE75BFF4F0190F081C8
:10443000E02DD6011C968C9182AFD501AA0FBB1F2F
:10444000AE0DBF1DA75BBF4FED91FC91119781E0B1
:1044500083AFF60194849A94F4E0F91508F468C1E6
:10446000970126583D4FF901118210828901AD0153
:1044700011C0FA01608171816A0F7B1FAC0DBD1DF7
:104480008C91DB0115968C93F801808191810196C6
:1044900091838083F801A081B181A430B10548F3F4
:1044A000D9011D921C92970126583D4FA501440F3A
:1044B000551F4E0D5F1D475B5F4F12C0FA016081B3
:1044C00071816A0F7B1FAC0DBD1D14968C91DB01B1
:1044D00011968C93F901808191810196918380835B
:1044E000F901A081B181A430B10540F3118210829D
:1044F000970126583D4FA501440F551FD701A40F22
:10450000B51FA75BBF4F11C06D917C911197680FCC
:10451000791F8C0D9D1DFC018085FB018187F901B0
:1045200080819181019691838083F90180819181BD
:104530008230910548F3D701A40FB51FA75BBF4F89
:10454000ED91FC91119713A62D913C911197F601D5
:104550008285F90182ABED91FC91CDC1823009F0E9
:10456000CFC1D60151968C918083F20100811181D7
:104570000E94B101D801D5966D937D938D939C9344
:10458000D89740E050E0F6018389833211F441E08E
:1045900050E0D501AA0FBB1FAE0DBF1DA75BBF4FDB
:1045A0002D913C911197B601640F751FFB01838912
:1045B000F90181A7970126583D4FF9011182108218
:1045C0000D911C911197F80181A5813089F08130FE
:1045D00020F0823009F089C063C0FB018489F801B2
:1045E000838BED91FC91DB0155968C91848B7DC082
:1045F000F901118210824901BD0114C0FB01008143
:1046000011810A0F1B1FAC0DBD1DA40FB51F5496C1
:104610008C91D8011B968C93F40180819181019635
:1046200091838083F401A081B181A430B10530F37E
:10463000D9011D921C92970126583D4FB501660F76
:10464000771F6E0D7F1D675B7F4F14C0FB010081DC
:1046500011810A0F1B1FAC0DBD1DA40FB51F58966D
:104660008C91D8011F968C93F901808191810196DC
:1046700091838083F901A081B181A430B10530F329
:1046800034C0ED91FC911197E80FF91F258BFB01C8
:1046900080819181019691838083459710F00CC0B1
:1046A000B901FB0180819181F601E80FF91FE40F48
:1046B000F51F2489233229F7F501EE0FFF1FEE0DB8
:1046C000FF1DE75BFF4F0190F081E02D2AE732E00C
:1046D000E20EF31ED7018D919C9126E83DEFE20E8C
:1046E000F31EE80FF91F83E2858B4130510571F409
:1046F000F501EE0FFF1FEE0DFF1DE75BFF4F019071
:10470000F081E02DD60152968C9182AFD501AA0F8F
:10471000BB1FAE0DBF1DA75BBF4FED91FC91119765
:1047200081E083AFF60192889A94F4E0F91518F4C9
:10473000C701672D2BC5970126583D4FF9011182FE
:1047400010828901AD0111C0FA01608171816A0F87
:104750007B1FAC0DBD1D8C91DB0115968C93F80170
:1047600080819181019691838083F801A081B1813C
:10477000A430B10548F3D9011D921C929701265827
:104780003D4FA501440F551F4E0D5F1D475B5F4F09
:1047900012C0FA01608171816A0F7B1FAC0DBD1DD3
:1047A00014968C91DB0111968C93F9018081918193
:1047B000019691838083F901A081B181A430B10574
:1047C00040F311821082970126583D4FA501440FF6
:1047D000551FB701640F751F675B7F4F12C0FB0148
:1047E000008111810A0F1B1FAC0DBD1D18968C9105
:1047F000D80119968C93F90180819181019691835A
:104800008083F901A081B181A230B10540F3F701A5
:10481000E40FF51FE75BFF4FA081B18182E09B961B
:104820008C9340815181D6011A968C91DA019C9625
:104830008C930190F081E02DD6011B968C9185A779
:10484000F90111821082970126583D4FA501440FAE
:10485000551F4E0D5F1D475B5F4F12C0FA0160810F
:1048600071816A0F7B1FAC0DBD1D1C968C91DB0105
:104870009E968C93F901808191810196918380832A
:10488000F901A081B181A230B10540F311821082FB
:10489000970126583D4FA501440F551FD701A40F7E
:1048A000B51FA75BBF4F11C06D917C911197680F29
:1048B000791F8C0D9D1DFC018685FB0180ABF901E4
:1048C00080819181019691838083F901808191811A
:1048D0008230910548F3F701E40FF51FE75BFF4FC6
:1048E00020813181D60150968C91D901D2968C933A
:1048F0000190F081E02D82A9823011F481E083A73C
:10490000072D10E0A92CBB2481E090E068E670E060
:104910000E947554AC01F801EE0FFF1FEE0FFF1F50
:10492000E00FF11FEA0DFB1D3B96EE0FFF1FEE0D92
:10493000FF1D518340834115510521F4C7010E9499
:10494000AF1826C422E432E0E20EF31ED7019C9198
:104950002EEB3DEFE20EF31E913009F0A2C1A0E86C
:10496000B2E0EA0EFB1ED7018C9120E83DEFE20E8B
:10497000F31E882309F0BCC04A595F4FD601159633
:104980008C91DA018C93D60116968C910190F0816E
:10499000E02D833221F4E959FF4F908303C0E95998
:1049A000FF4F1082F801EE0FFF1FEE0FFF1FE00F09
:1049B000F11FEA0DFB1D3B96EE0FFF1FEE0DFF1DD5
:1049C0000190F081E02DE959FF4F6081862E9924F6
:1049D000D701A658BD4F11961C921E92F801EE0FFA
:1049E000FF1FEE0DFF1DE75BFF4F0190F081E02DF3
:1049F00081A5813071F0813018F0823039F403C024
:104A000082E090E01CC040E050E00BC080E090E00D
:104A100016C088E090E013C02F5F3F4F11963C9383
:104A20002E932D913C911197F601E20FF31FE80DA3
:104A3000F91D87814F5F5F4F833271F7CA01695F4C
:104A4000680F262F30E0F701EA5BFD4F80819181EE
:104A50008217930710F431832083F801EE0FFF1FB4
:104A6000EE0FFF1FE00FF11FEA0DFB1D3B96EE0F4F
:104A7000FF1FEE0DFF1D608171816C597F4F46E471
:104A800052E0E40EF51ED7018D919C914AEB5DEF4B
:104A9000E40EF51E821B930BDB018D939C93D701D3
:104AA000A658BD4F11961C921E924D01AF0110C029
:104AB0006E0F7F1FEC0DFD1DE20FF31F8081FB01C8
:104AC0008083D4018D919C91119701968D939C9335
:104AD000D401ED91FC91DA016D917C916C597F4F7D
:104AE000DB018D919C9164567040E817F90700F343
:104AF000E0E8F2E0EE0EFF1ED7019C91E0E8FDEF4A
:104B0000EE0EFF1E913009F0CCC0F801EE0FFF1F32
:104B1000EE0FFF1FE00FF11FEA0DFB1D3B96EE0F9E
:104B2000FF1FEE0DFF1D208131812A593F4FD60115
:104B30001B968C91D9018C93D6011C968C91019077
:104B4000F081E02D833221F4E959FF4F908303C0B7
:104B5000E959FF4F1082F801EE0FFF1FEE0FFF1F04
:104B6000E00FF11FEA0DFB1D3B96EE0FFF1FEE0D50
:104B7000FF1D0190F081E02DE959FF4F6081862EE5
:104B80009924D701A658BD4F11961C921E92F80188
:104B9000EE0FFF1FEE0DFF1DE75BFF4F0190F08151
:104BA000E02D81A5813071F0813018F0823039F428
:104BB00003C082E090E01CC040E050E00BC080E009
:104BC00090E016C088E090E013C02F5F3F4F119631
:104BD0003C932E932D913C911197F601E20FF31F18
:104BE000E80DF91D85854F5F5F4F833271F7CA016C
:104BF000635F680F262F30E0F701EA5BFD4F80818D
:104C000091818217930710F431832083F801EE0F0E
:104C1000FF1FEE0FFF1FE00FF11FEA0DFB1D3B967C
:104C2000EE0FFF1FEE0DFF1D608171816C597F4FEC
:104C300046E452E0E40EF51ED7018D919C914AEBBB
:104C40005DEFE40EF51E821B930BDB018D939C93AD
:104C5000D701A658BD4F11961C921E924D01AF016F
:104C600010C06E0F7F1FEC0DFD1DE20FF31F808142
:104C7000FB018083D4018D919C91119701968D93B6
:104C80009C93D401ED91FC91DA016D917C916C596A
:104C90007F4FDB018D919C9164567040E817F907B6
:104CA00000F3E2E4F2E0EE0EFF1ED7018C91EEEB92
:104CB000FDEFEE0EFF1E8250843008F0ABC121E8FC
:104CC00032E0E20EF31ED7018C91EFE7FDEFEE0E1E
:104CD000FF1E882309F0CEC0F801EE0FFF1FEE0F74
:104CE000FF1FE00FF11FEA0DFB1D3B96EE0FFF1FAC
:104CF000EE0DFF1D208131812A593F4FD6011C96B0
:104D00008C91D9018C93D6011D968C910190F081E4
:104D1000E02D833229F4E959FF4F81E0808303C0FD
:104D2000E959FF4F1082F801EE0FFF1FEE0FFF1F32
:104D3000E00FF11FEA0DFB1D3B96EE0FFF1FEE0D7E
:104D4000FF1D0190F081E02DE959FF4F6081862E13
:104D50009924D701A658BD4F11961C921E92F801B6
:104D6000EE0FFF1FEE0DFF1DE75BFF4F0190F0817F
:104D7000E02D81A5813071F0813018F0823039F456
:104D800003C082E090E01CC040E050E00BC080E037
:104D900090E016C088E090E013C02F5F3F4F11965F
:104DA0003C932E932D913C911197F601E20FF31F46
:104DB000E80DF91D86854F5F5F4F833271F7CA0199
:104DC000625F680F262F30E0F701EA5BFD4F8081BC
:104DD00091818217930710F431832083F801EE0F3D
:104DE000FF1FEE0FFF1FE00FF11FEA0DFB1D3B96AB
:104DF000EE0FFF1FEE0DFF1D608171816C597F4F1B
:104E000046E452E0E40EF51ED7018D919C914AEBE9
:104E10005DEFE40EF51E821B930BDB018D939C93DB
:104E2000D701A658BD4F11961C921E925D01AF018D
:104E300010C06E0F7F1FEC0DFD1DE20FF31F808170
:104E4000FB018083D5018D919C91119701968D93E3
:104E50009C93D501ED91FC91DA016D917C916C5997
:104E60007F4FDB018D919C9164567040E817F907E4
:104E700000F3D0C0823009F0CDC0F801EE0FFF1F63
:104E8000EE0FFF1FE00FF11FEA0DFB1D3B96EE0F2B
:104E9000FF1FEE0DFF1D208131812A593F4FD601A2
:104EA00052968C91D9018C93D60153968C91019096
:104EB000F081E02D833229F4E959FF4F81E08083AE
:104EC00003C0E959FF4F1082F801EE0FFF1FEE0FEC
:104ED000FF1FE00FF11FEA0DFB1D3B96EE0FFF1FBA
:104EE000EE0DFF1D0190F081E02DE959FF4F60812B
:104EF000862E9924D701A658BD4F11961C921E925A
:104F0000F801EE0FFF1FEE0DFF1DE75BFF4F019055
:104F1000F081E02D81A5813071F0813018F0823070
:104F200039F403C082E090E01CC040E050E00BC0C8
:104F300080E090E016C088E090E013C02F5F3F4F04
:104F400011963C932E932D913C911197F601E20F0F
:104F5000F31FE80DF91D87894F5F5F4F833271F7AB
:104F6000CA016C5E680F262F30E0F701EA5BFD4F47
:104F7000808191818217930710F431832083F80197
:104F8000EE0FFF1FEE0FFF1FE00FF11FEA0DFB1DDD
:104F90003B96EE0FFF1FEE0DFF1D608171816C5976
:104FA0007F4F46E452E0E40EF51ED7018D919C91AF
:104FB0004AEB5DEFE40EF51E821B930BDB018D9334
:104FC0009C93D701A658BD4F11961C921E925D016D
:104FD000AF0110C06E0F7F1FEC0DFD1DE20FF31F20
:104FE0008081FB018083D5018D919C911197019661
:104FF0008D939C93D501ED91FC91DA016D917C919B
:105000006C597F4FDB018D919C9164567040E8177D
:10501000F90700F3F701E85BFF4F80818F5F808322
:10502000853009F41082000F111F0E0D1F1D075B44
:105030001F4FD801ED91FC9193AD82AD981711F4FB
:1050400081E081AF99E4C92ED12CCE0CDF1C6624FF
:105050007724870106581D4F83E5282E312C2E0C0E
:105060003F1CF701E355FD4FFA83E9839701215572
:105070003D4F3C832B83A701415A5F4F5E834D8395
:10508000C7018E5B9D4F98878F83D701AF57BD4F68
:10509000BA87A987F701E752FE4FFC87EB87D80153
:1050A0001D921C920E94B101D601ED91FC913097A6
:1050B00009F48FC325A936A947A950AD12161306C6
:1050C000140615060CF085C3621B730B840B950B3D
:1050D00069557B41804090400CF037C381AD8130F1
:1050E00009F000C3B62CE981FA816082AB81BC81F2
:1050F0001C92ED81FE8180818F5F8083D8011D929B
:105100001C920FC0F901BA96EE0FFF1FEE0DFF1DA6
:1051100080819181892B59F02F5F3F4FF8013183B6
:105120002083D8012D913C912530310558F3E22F91
:10513000AD81BE818C91853090F0AB85BC858C9122
:10514000813029F0813038F0823049F41DC0C70128
:105150000E94161803C0C7010E94A917E82F4E2EFF
:10516000552481E090E064EB70E00E947554AC013E
:105170009201265D3F4F220F331F2E0D3F1DF90177
:1051800091838083009731F4C7016B2D0E944B17E8
:105190008FEF2EC3D1018C9181508C9345555F4F79
:1051A000D601ED91FC9185A896A8A7A8B0ACDA012C
:1051B0008D929D92AD92BC9213974F525040808138
:1051C000FA018083D901ED91FC91E955FF4FD60199
:1051D0008D919C91DC019A968C918083F901A0813C
:1051E000B181F60180819181FC0183A518968C9391
:1051F000AF81B8858C91813009F060C0F901A08140
:10520000B181A955BF4F8C91A75AB040813009F0A8
:1052100048C0D8011D921C92A90116C0FA01A081B4
:10522000B181A80FB91FAF57BF4FF601208131815F
:10523000280F391FF90185818C93D8018D919C919C
:10524000119701968D939C93F80180819181843010
:10525000910520F311821082A201465D5F4F440F39
:10526000551F4E0D5F1D16C0FA01A081B181A80F18
:10527000B91FA358BF4FF60120813181280F391F74
:10528000F90181818C93D8018D919C9111970196A0
:105290008D939C93F801808191818430910520F356
:1052A0006EC0882309F06BC0AB57BF4FF6018081F9
:1052B0009181FC0181858C93D90156C0F80111823E
:1052C0001082A90116C0FA01A081B181A80FB91FEF
:1052D000AF57BF4FF60120813181280F391FF901E7
:1052E00085818C93D8018D919C91119701968D9316
:1052F0009C93F801808191818430910520F3118283
:1053000010829201265D3F4FB901660F771F6E0D27
:105310007F1D13C0DB01ED91FC91E80FF91FE358ED
:10532000FF4F480F591FDA0111968C918083F801C5
:1053300080819181019691838083D8018D919C9188
:10534000F601408151818430910520F3D901AA0FE3
:10535000BB1FAE0DBF1D2D913C9111972B573F4F99
:10536000FA018185F9018083ED91FC91EA57FF4FA5
:10537000D6018D919C91DC011A968C918083F60167
:10538000808191813AE2A32EB12CA40CB51CAA0C09
:10539000BB1CAE0CBF1CD501ED91FC91EA55FF4F33
:1053A000DC01DA966C91DA97D3968D919C91D49723
:1053B00070E00E940B546083D501ED91FC91E8559B
:1053C000FF4FD6018D919C91DC0199968C91808341
:1053D000F501A081B181A855BF4F8C91A85AB0406A
:1053E0008130D9F0813020F0823009F08BC05DC06F
:1053F000A157BF4FF60180819181FC0183898C9375
:10540000D501ED91FC91E057FF4FD6018D919C9114
:10541000DC0154968C91808375C0F8011182108252
:10542000A50116C0FA01A081B181A80FB91FA55727
:10543000BF4FF60120813181280F391FF901838583
:105440008C93D8018D919C91119701968D939C938B
:10545000F801808191818430910520F311821082BE
:10546000A201465D5F4F440F551F4E0D5F1D16C0D4
:10547000FA01A081B181A80FB91FA957BF4FF6014A
:1054800020813181280F391FF90187858C93D8013C
:105490008D919C91119701968D939C93F801808139
:1054A00091818430910520F32DC0D8011D921C926A
:1054B000A501F80180819181FA01A081B181A80F35
:1054C000B91FAF56BF4FF60120813181280F391F18
:1054D000F90185898C93D8018D919C911197019642
:1054E0008D939C93D601ED91FC91E80FF91F2589CE
:1054F0002332F9F6D501ED91FC91E80FF91FEF5633
:10550000FF4F2083D601ED91FC9182AD682F70E0B2
:1055100061507040F301EE0FFF1FEE0FFF1FE60D0D
:10552000F71DE60FF71F3B96EE0FFF1FEE0DFF1D59
:10553000F88BEF8788249924AA24BB24A201465D16
:105540005F4F440F551F4E0D5F1D32C0D8011D9295
:105550001C9216C0FA0120813181280F391F2A0DB3
:105560003B1DA80FB91F8C91D9011C968C930894F0
:10557000811C911CF8018081918101969183808327
:10558000D8018D919C91EF85F889A081B181AC59AA
:10559000BF4F2D913C911197A456B04082179307AD
:1055A000C8F2A20EB31E615070403297F88BEF879D
:1055B000FFEF6F3F7F0751F69201265D3F4F220FAD
:1055C000331F2E0D3F1DF901A081B181A059BF4F9E
:1055D00011969C928E92A057B040E985FA85808101
:1055E000823009F044C0AC58BF4FF60180819181F0
:1055F000FC0184A58C93D901ED91FC91EB58FF4FF0
:10560000D6018D919C91DC019D968C918083D9016E
:10561000ED91FC91EA58FF4FD6018D919C91DC01F0
:105620009E968C918083D901ED91FC91E958FF4FB2
:10563000D6018D919C91DC019F968C918083D9013C
:10564000ED91FC91E858FF4FD6018D919C91DC01C2
:10565000D0968C918083D901ED91FC91E758FF4F52
:10566000D6018D919C91DC01D1968C918083F801BB
:10567000118210825301AA0CBB1CAA0CBB1CA60CE5
:10568000B71C1CC0EA0DFB1D3B96EE0FFF1FEE0D75
:10569000FF1D808191810E943E55D8018D919C9182
:1056A0001197F501E80FF91F3B96EE0FFF1FEE0D66
:1056B000FF1D1182108201968D939C93D801ED916C
:1056C000FC91E530F105F0F2D601ED91FC9115AABF
:1056D00016AA17AA10AECF010E943E55F6011182FC
:1056E000108277C092AD83AD981709F072C0D801CF
:1056F0001D921C925301AA0CBB1CAA0CBB1CA60C2D
:10570000B71C1CC0EA0DFB1D3B96EE0FFF1FEE0DF4
:10571000FF1D808191810E943E55F8018081918119
:10572000F501E80FF91F3B96EE0FFF1FEE0DFF1D71
:10573000118210820196D8018D939C93D801ED912E
:10574000FC91E530F105F0F22DC0F80111821082D4
:105750005301AA0CBB1CAA0CBB1CA60CB71C1CC07A
:10576000EA0DFB1D3B96EE0FFF1FEE0DFF1D808126
:1057700091810E943E55D8018D919C911197F50120
:10578000E80FF91F3B96EE0FFF1FEE0DFF1D118274
:10579000108201968D939C93D801ED91FC91E53098
:1057A000F105F0F2D601ED91FC9115AA16AA17AAFF
:1057B00010AECF010E943E55F60111821082D10138
:1057C0008C9181508C93E981FA816082AB81BC819C
:1057D0001C920894611C711CE2E0F0E0CE0EDF1E0A
:1057E000F5E06F16710409F05ACC80E001C081E049
:1057F00060960FB6F894DEBF0FBECDBFCF91DF919C
:105800001F910F91FF90EF90DF90CF90BF90AF90DE
:105810009F908F907F906F905F904F903F902F90D0
:105820000895AF92BF92CF92DF92EF92FF920F93C3
:105830001F93CF93DF93EC016B015A01890188E735
:1058400090E061E070E00E9475547C01009711F4D3
:105850001FEF81C0B8016D5F7F4FFE01E658FD4F1D
:105860007183608340E050E0DF010BC0F601E20F7E
:10587000F31F8081480F511D2F5F3F4F11963C93BE
:105880002E932D913C9111972A153B0578F34F3FAC
:10589000510519F04F3F09F06AC0DE01AA5BBD4F08
:1058A00011961C921E92FE01E658FD4F0C5F1F4F91
:1058B00011830083045010409F010894A108B1088F
:1058C000AD0116C0FD013497E01BF10BEE0DFF1D7D
:1058D000AC0DBD1D8C918083FA0180819181019670
:1058E00091838083F90180819181019691838083E6
:1058F000F901A081B181AA15BB0520F36C0D7D1DB6
:10590000FB018081813879F0823818F48038D9F42D
:1059100005C0803971F08139B1F40FC0C058DD4F36
:1059200081E0888303C0C058DD4F1882C058D24040
:105930000AC0CF57DD4F188204C0CF57DD4F82E039
:105940008883C158D240CE01B7010E94FD19182F9B
:10595000C7010E943E55812FDF91CF911F910F917A
:10596000FF90EF90DF90CF90BF90AF900895C70168
:105970000E943E5511E0EFCF2F923F924F925F92DF
:105980006F927F928F929F92AF92BF92CF92DF924F
:10599000EF92FF920F931F93DF93CF93CDB7DEB7B4
:1059A00062970FB6F894DEBF0FBECDBF6C014B01FE
:1059B0000E94B101F82E2CED31E0C20ED31E82E020
:1059C000D6018C93E4E2FEEFCE0EDF1EF601E25527
:1059D000FD4F8081882321F400E010E0332408C0CB
:1059E0008EE7D4018C93108201E010E033243394CD
:1059F0004F2D592FCB01DA012C013D01EBE0F0E0F6
:105A0000FA8BE98BEE2422245EEAA52E52E0B52E15
:105A1000AC0CBD1C96012B5B3D4F388B2F875FC1B3
:105A2000AF85B889FC90FF2009F0A9C082E19DE014
:105A30000E944A0F882309F491C082E19DE00E94F0
:105A4000450FF401E00FF11F80830F5F1F4F0E948D
:105A5000B101AC01CB01DA012C013D010150104034
:105A6000F401E00FF11F0F5F1F4F80818E3761F44B
:105A70008CE291E0801B910B8E36910520F421E0A1
:105A8000D5012C9301C033940130110541F400E09D
:105A900010E080818E3751F401E010E007C031E062
:105AA0000C32130718F0FF24F39401C0FF2486E0A2
:105AB000289E900111242C5F3F4FC9018E0D911D2E
:105AC0000817190799F491E0E91699F0F401E00F2D
:105AD000F11F319780818A58823080F0A989BA8974
