:100000000C94CC000C94FA830C942B840C945C8498
:100010000C948D840C94BE840C94EF840C942085F5
:100020000C9451850C94F6000C94F6000C94F60098
:100030000C94BC030C94F6000C94F6000C945C0237
:100040000C94F6000C94F6000C94F6000C94F60058
:100050000C94F6000C94F6000C94F6000C94370205
:100060000C94F6000C94B2890C94F6000C94F600F3
:100070000C94F6000C94F6000C94F6000C94F60028
:100080000C94F6000C94F6000C94F6000C94F60018
:100090000C94F3890C94F6000C94F6000C940382F3
:1000A0000C94F6000C94F6000C94F6000C94F600F8
:1000B0000C94F6000C94F6000C94F6000C94F600E8
:1000C0000C94F6000C94F6000C94F6000021242702
:1000D0002A2D3033002225282B2E313400202326D0
:1000E000292C2F3205050505030303030101010433
:1000F00004030606060606060606010405010501B8
:1001000003020202020202010202050504040304C2
:1001100004010304070707010208101020408004AF
:1001200008102040020204081020408001028020B4
:100130004004200101020408102001408040800199
:1001400002080408800410040201000008090000ED
:10015000000000000000000000000000000000009F
:10016000000000000000000000000000000000008F
:100170000000000000000000000000000000A804D3
:10018000AB07530D440FD4139F1523200C291129BD
:10019000F82A3A2B4E80D08011241FBECFEFD1E237
:1001A000DEBFCDBF11E1A0E0B2E0EEE8FEE201E08B
:1001B0000BBF02C007900D92AA39B107D9F71BE116
:1001C000AAE9B1E101C01D92A431B107E1F711E044
:1001D000C8E9D1E004C02297FE010E945190CE37B9
:1001E000D107C9F70E9413020C9445970C940000A4
:1001F000CF93DF9385E393E160E072E00E947C2976
:1002000085E393E164E172E00E9476290E9465072C
:10021000BC0185E393E10E94662985E393E162E2F4
:1002200072E00E94762960917E1770917F1785E3B6
:1002300093E10E94662985E393E164E172E00E9404
:1002400076290E946507BC0185E393E10E94662937
:1002500060917E1770917F178BE892E10E943310B6
:10026000C82FD0E0209759F085E393E16FE272E068
:100270000E94762985E393E1BE010E94662985E309
:1002800093E164E172E00E9476290E946507BC0157
:1002900085E393E10E94662984EA91E161E070E0E0
:1002A0000E948506C82FD0E0209759F085E393E19E
:1002B00064E672E00E94762985E393E1BE010E9424
:1002C000662985E393E164E172E00E9476290E9449
:1002D0006507BC0185E393E10E94662940917E1782
:1002E00050917F1788E092E162E571E10E94A50BD1
:1002F000C82FD0E0209759F085E393E164E972E0DC
:100300000E94762985E393E1BE010E94662985E378
:1003100093E164E172E00E9476290E946507BC01C6
:1003200085E393E10E94662984EA91E10E947205C7
:10033000C82FD0E0209759F085E393E168EC72E094
:100340000E94762985E393E1BE010E94662985E338
:1003500093E164E172E00E9476290E946507BC0186
:1003600085E393E10E9466298AE794E161E070E009
:100370000E94717C85E393E164E172E00E9476293A
:100380000E946507BC0185E393E10E946629DF9125
:10039000CF910895EF92FF920F931F9385E393E11E
:1003A0000E948A2985E393E16FEE72E00E947C2926
:1003B0000E946507BC0185E393E10E94662984EAF7
:1003C00091E16AE571E141E050E020E030E003E0D6
:1003D00010E0ECEFEE2EE2E0FE2E0E94D406882321
:1003E00031F085E393E162E073E00E947C290E9492
:1003F0006507BC0185E393E10E9466298BEE92E1DB
:100400000E94991ABC0185E393E10E947C290E9415
:100410006507BC0185E393E10E9466291F910F9156
:10042000FF90EF9008950E94EF020E94CA010E947F
:10043000F800FDCFF894109262118A3008F089E03C
:10044000982F9770883008F09062906184B7877F0A
:1004500084BF809160008861809360009093600009
:1004600080916000806480936000789408951F926A
:100470000F920FB60F9211248F939F93AF93BF9358
:100480008091881890918918A0918A18B0918B1842
:100490000196A11DB11D8093881890938918A0938F
:1004A0008A18B0938B18BF91AF919F918F910F9045
:1004B0000FBE0F901F9018951F920F920FB60F92BC
:1004C00011248F939F93AF93BF9380918C18909139
:1004D0008D18A0918E18B0918F180196A11DB11D95
:1004E00080938C1890938D18A0938E18B0938F18CA
:1004F000BF91AF919F918F910F900FBE0F901F9062
:100500001895609188187091891880918A18909137
:100510008B1827E0660F771F881F991F2A95D1F740
:100520002EE330E040E050E00E941290CA01B90191
:100530000895AF92BF92CF92DF92EF92FF920F9306
:100540001F935B016C0160918818709189188091EC
:100550008A1890918B1847E0660F771F881F991FA4
:100560004A95D1F72EE330E040E050E00E9412902F
:1005700079018A01609188187091891880918A1890
:1005800090918B1837E0660F771F881F991F3A9557
:10059000D1F72EE330E040E050E00E9412902E1997
:1005A0003F09400B510B2A153B054C055D0510F327
:1005B0001F910F91FF90EF90DF90CF90BF90AF9081
:1005C0000895019759F0019749F0FC01EE0FFF1FC4
:1005D00031978FB7F8943197F1F78FBF08957894DA
:1005E00084B7877F84BF1092881810928918109260
:1005F0008A1810928B1884B5826084BD84B581609E
:1006000084BD85B5826085BD85B5816085BDEEE61A
:10061000F0E0808181608083E1E8F0E080818260A9
:100620008083808181608083E0E8F0E08081816068
:100630008083E1EBF0E0808184608083E1E9F0E099
:10064000808184608083E0EBF0E080818160808342
:10065000E0E9F0E0808181608083E4E6F0E0808181
:100660008E7F8083ECE7F0E080818F7780838081CC
:1006700080648083EAE7F0E0808184608083808109
:10068000826080838081806880831092C100109294
:10069000C90008959091A311982B9093A31180FF06
:1006A00032C0809164008E7F8093640080917C00D2
:1006B0008F7780937C0080917C00806480937C00A5
:1006C00080917A00846080937A0080917A008260C1
:1006D00080937A0080917A00806880937A0080917C
:1006E00064008F7780936400809164008B7F809397
:1006F0006400809164008D7F809364008091650028
:100700008E7F809365000895282F20959091A311E6
:1007100092239093A31180FF1EC080917A008F775F
:1007200080937A008091640081608093640080915E
:10073000640080688093640080916400846080938A
:100740006400809164008260809364008091650001
:100750008160809365000895F89484B7877F84BF93
:10076000E0E6F0E0808188658083108283E061E0CC
:100770000E941104789408951F920F920FB60F9261
:100780000BB60F9211242F933F934F935F936F9368
:100790007F938F939F93AF93BF93EF93FF93F894BF
:1007A00081E080936211E0E6F0E0808180688083E0
:1007B00080818F7B808383E060E00E9411047894C5
:1007C000FF91EF91BF91AF919F918F917F916F9129
:1007D0005F914F913F912F910F900BBE0F900FBEE5
:1007E0000F901F901895282F30E0C901895E9E4F09
:1007F000FC0194912C513F4FF9018491882381F0A1
:10080000E82FF0E0E453FF4FE491F0E0662329F491
:10081000808190958923808308958081892B8083AE
:100820000895482F50E0CA01865B9E4FFC01249139
:10083000CA01895E9E4FFC0194914C515F4FFA01B1
:1008400034913323C1F1222331F1233021F48091FB
:1008500080008F7705C0243031F4809180008F7D37
:100860008093800018C0213019F484B58F7704C0BC
:10087000223021F484B58F7D84BD0DC0263021F453
:100880008091B0008F7705C0273029F48091B000A7
:100890008F7D8093B000E32FF0E0EC52FF4FE491A6
:1008A000F0E0662329F48081909589238083089560
:1008B0008081892B80830895482F50E0CA01865B90
:1008C0009E4FFC012491CA01895E9E4FFC019491C8
:1008D0004C515F4FFA013491332319F420E030E09A
:1008E00035C0222331F1233021F4809180008F77AD
:1008F00005C0243031F4809180008F7D809380008A
:1009000018C0213019F484B58F7704C0223021F447
:1009100084B58F7D84BD0DC0263021F48091B00058
:100920008F7705C0273029F48091B0008F7D8093A8
:10093000B000E32FF0E0E452FF4FE491F0E080815B
:1009400020E030E0892311F021E030E0C901089572
:100950000895BF92CF92DF92EF92FF920F931F9371
:100960007B01B42E890185E393E164E373E00E9487
:10097000762985E393E162E473E00E9476290E9480
:100980006507BC0185E393E10E94662981E090E060
:1009900064EB70E00E9455906C01FC0110868AE7C0
:1009A00090E0C80ED91EF601108282E090E0C80ED9
:1009B000D91EF601B08212926F0185E89FEFC80E32
:1009C000D91E1092ED158AE794E1B60140E00E942D
:1009D000FF678AE794E1B601A701980101E0EE24E0
:1009E0000E94FA6885E393E164E373E00E9476294C
:1009F00085E393E165E473E00E9476290E94650730
:100A0000BC0185E393E10E9466298AE794E1B6017F
:100A10000E94575F85E393E164E373E00E947629C7
:100A200085E393E16AE473E00E9476290E946507FA
:100A3000BC0185E393E10E94662910915616C60118
:100A40000E941E91812F1F910F91FF90EF90DF90D8
:100A5000CF90BF900895CF92DF92EF92FF920F93C5
:100A60001F938B017A0181E090E064EB70E00E94BB
:100A700055906C01FC0110868AE790E0C80ED91EE3
:100A8000F601108282E090E0C80ED91E8CE0F601DB
:100A9000808312926F0185E89FEFC80ED91E1092D5
:100AA000ED158AE794E1B60140E00E94FF678AE70E
:100AB00094E1B601A801970101E0EE240E94FA68D2
:100AC0008AE794E1B6010E94575F10915616C6015D
:100AD0000E941E91812F1F910F91FF90EF90DF9048
:100AE000CF9008958F929F92AF92BF92CF92DF9254
:100AF000FF920F931F93CF93DF934C010E948102CB
:100B00005B016C0185E393E16FE473E00E947C2953
:100B100012E0FF24D8C08AE794E10E94907280918D
:100B20005516882309F0CFC0C5C0DF01A20FB31F3F
:100B30001C969C911C979F3F61F41D968C918E3F53
:100B400041F4211B3109E20FF31F14864F5F1F5F31
:100B500005C0211B3109E20FF31F94874F5FE0911D
:100B6000D914F0E0EE0FFF1FE453FB4E0190F0812B
:100B7000E02D242F30E0E059FF4F80819181E05734
:100B8000F0402817390788F285E393E16EE673E0B9
:100B90000E947629C0E0D0E0012F10E00FC0EC0FDA
:100BA000FD1F6485F401EC0FFD1F6083772767FD4F
:100BB000709585E393E10E945E292196E091D91416
:100BC000F0E0EE0FFF1FE453FB4E0190F081E02DAB
:100BD000E059FF4F80819181E057F040801B910BDD
:100BE000C817D907E0F285E393E162E373E00E945E
:100BF000762985E393E166E773E00E947629E09128
:100C0000D914F0E0EE0FFF1FE453FB4E0190F0818A
:100C1000E02DE458FF4F608185E393E170E00E948E
:100C20006629E091D914F0E0EE0FFF1FE453FB4E6C
:100C3000A081B181A458BF4F8C91AC57B040E82F30
:100C4000F0E080E090E020E08E179F0709F421E0BB
:100C500001968C309105C1F7222369F0EE0FFF1F3A
:100C6000E359FE4E0190F081E02DCD010995182F3A
:100C7000FF24F39407C085E393E16CE773E00E94DF
:100C80007C2911E0E091D914F0E0EE0FFF1FE4534E
:100C9000FB4E808191810E941E918091D914E82F92
:100CA000F0E0EE0FFF1FE453FB4E118210828150E3
:100CB0008093D9148091D914882329F0FF2019F446
:100CC00010E040E04CCF0E9481026A197B098C0938
:100CD0009D0960547F418040904050F4FF2041F4D2
:100CE00086E794E10E94962B11E0882361F313CFED
:100CF000812FDF91CF911F910F91FF90DF90CF90C7
:100D0000BF90AF909F908F900895EF92FF920F93B6
:100D10001F93CF93DF93EB010E9481027B018C0133
:100D200006C060E777E180E090E00E9499028AE7E0
:100D300094E10E944D7480915417882379F10E94A8
:100D400081026E197F09800B910B60527E448040B6
:100D5000904020F5209759F7E4CF8AE794E10E946C
:100D60006D7480914817882341F485E393E161EF26
:100D700074E00E947C2981E00AC08AE794E160E087
:100D80000E94F1748AE794E10E94345580E0DF917B
:100D9000CF911F910F91FF90EF900895809154177C
:100DA0008823D9F282E0F3CF6F927F928F929F9245
:100DB000AF92BF92CF92DF92EF92FF920F931F9369
:100DC0004C016B015A0139018AE794E162E041E08C
:100DD00021E00E9407768AE794E10E9411748AE775
:100DE00094E10E94C27368EE73E080E090E00E949C
:100DF00099028AE794E1B6010E947C538AE794E164
:100E00006FE34FEF0E947C548AE794E163E00E9415
:100E1000AF618AE794E161E00E94F1748AE794E1AE
:100E2000B7010E94FD508AE794E1B5010E94CC769B
:100E30008AE794E10E9434558AE794E10E94F073B6
:100E400068EB7BE080E090E00E9499028AE794E101
:100E50000E9411748AE794E10E94C273C40160E0A9
:100E600070E00E948506F82E8BEE92E10E94EE1A49
:100E70008BEE92E160E140E00E94A51A88E792E1E2
:100E80006FE075E00E94EA0E8AE794E1B3010E94E8
:100E90000D761093A6170093A51760918217709195
:100EA000831788E792E10E94A30E8F2DF11081E055
:100EB0001F910F91FF90EF90DF90CF90BF90AF9078
:100EC0009F908F907F906F900895DF93CF9300D085
:100ED000CDB7DEB72091101B3091111BCE010196CA
:100EE0002115310519F484519B4102C0821B930BDB
:100EF0009A83898389819A810F900F90CF91DF9196
:100F00000895CF93DF93EC01DB0190E030E05FEFD9
:100F10004EEF18C0FE01E30FF11D2485E92FF0E02C
:100F2000892F8F5F222349F4EA0FFB1F5083FD01B5
:100F3000E80FF11D40839E5F04C0EA0FFB1F208372
:100F4000982F3F5F8B85381728F3A90FB11D1C928E
:100F5000DF91CF9108950895FF920F931F9381E041
:100F60008093131286E08093141282E090E061E097
:100F700070E00E945590182F092F88E092E1612FB0
:100F8000702F0E94810784EA91E161E777E14CE0EC
:100F9000212F302F0E94A904F82E812F902F0E941C
:100FA0001E918F2D1F910F91FF900895FF920F9327
:100FB0001F9381E08093131285E08093141282E0E6
:100FC00090E061E070E00E945590182F092F88E0B2
:100FD00092E1612F702F0E94810784EA91E161E71D
:100FE00077E14CE0212F302F0E94A904F82E812FA9
:100FF000902F0E941E918F2D1F910F91FF900895A9
:10100000FF920F931F9381E08093131284E08093EB
:10101000141282E090E061E070E00E945590182F79
:10102000092F88E092E1612F702F0E94810784EAE6
:1010300091E161E777E14CE0212F302F0E94A90474
:10104000F82E812F902F0E941E918F2D1F910F91AE
:10105000FF900895FF920F931F9381E080931312E6
:1010600083E08093141282E090E061E070E00E94DF
:101070005590182F092F88E092E1612F702F0E9460
:10108000810784EA91E161E777E14CE0212F302F7D
:101090000E94A904F82E812F902F0E941E918F2D5F
:1010A0001F910F91FF900895FF920F931F9381E07E
:1010B0008093131282E08093141282E090E061E04A
:1010C00070E00E945590182F092F88E092E1612F5F
:1010D000702F0E94810784EA91E161E777E14CE09B
:1010E000212F302F0E94A904F82E812F902F0E94CB
:1010F0001E918F2D1F910F91FF900895FF920F93D6
:101100001F9382E08093131290917B1780917C173C
:10111000809314129093151283E090E061E070E0E8
:101120000E945590182F092F88E092E1612F702FAF
:101130000E94810784EA91E161E777E144E0212F91
:10114000302F0E94A904F82E812F902F0E941E910B
:101150008F2D1F910F91FF900895FF920F931F9372
:1011600081E0809313128093141282E090E061E09A
:1011700070E00E945590182F092F88E092E1612FAE
:10118000702F0E94810784EA91E161E777E14CE0EA
:10119000212F302F0E94A904F82E812F902F0E941A
:1011A0001E918F2D1F910F91FF900895FF920F9325
:1011B0001F9381E0809313121092141282E090E04A
:1011C00061E070E00E945590182F092F88E092E1AD
:1011D000612F702F0E94810784EA91E161E777E136
:1011E0004CE0212F302F0E94A904F82E812F902F40
:1011F0000E941E918F2D1F910F91FF900895BF9215
:10120000CF92DF92EF92FF920F931F938C016B01AD
:10121000B42E82E0F80183873487258785E090E04B
:1012200061E070E00E945590F82EE92EC8016F2D04
:101230007E2D0E94810784EA91E1B6014B2D2F2D6E
:101240003E2D0E94A904182F8F2D9E2D0E941E91C5
:10125000812F1F910F91FF90EF90DF90CF90BF9063
:101260000895EF92FF920F931F938C0184E690E014
:1012700061E070E00E945590F92E282F392FE82E5A
:1012800000591F4FD8014D915C9100571040D80173
:10129000C901FC01480F591F04C01B968C911B9774
:1012A00081931196E417F507C1F704E112E184E692
:1012B000F80111928A95E9F78DB79EB708970FB696
:1012C000F8949EBF0FBE8DBFEDB7FEB73196ADB798
:1012D000BEB712961C930E93119784E295E0938308
:1012E000828385EA95E195838483E682F7820E9472
:1012F0005894EDB7FEB738960FB6F894FEBF0FBE00
:10130000EDBF84EA91E161E777E1A8010E942B0536
:10131000C7010E941E911F910F91FF90EF900895B9
:10132000FF920F931F93CF93DF93FC010485F58405
:10133000EF57FF4F819180930B12819180930C1294
:10134000819180930D128081E458F04080930E12B9
:10135000DF01A358BF4FCFE0D2E18D91899382E1A5
:10136000C331D807D1F73C968AE794E1BF010E94C8
:10137000DD7E182F85E393E169E575E00E9476290B
:1013800085E393E1612F70E00E946629112301F14A
:101390008BE08093141282E090E061E070E00E94A4
:1013A0005590182F092FCE010B97612F702F0E9497
:1013B000810784EA91E161E777E14CE0212F302F4A
:1013C0000E94A904F82E812F902F0E941E9115C013
:1013D000202F332727FD3095322F22278F2D992755
:1013E00087FD9095280F391FCE010B97BE016850DD
:1013F000704048E00E94FF08F82E8F2DDF91CF91BA
:101400001F910F91FF900895FF920F931F938C01EE
:1014100088E792E10E94D50EC8010C960E94AD7635
:10142000BC018AE794E10E9475798823F9F49091D0
:10143000821780918317809314129093151282E083
:101440008093131283E090E061E070E00E94559079
:10145000182F092F88E092E1612F702F0E948107D9
:1014600084EA91E161E777E146E019C081E0809389
:10147000131287E08093141282E090E061E070E044
:101480000E945590182F092F88E092E1612F702F4C
:101490000E94810784EA91E161E777E14CE0212F26
:1014A000302F0E94A904F82E812F902F0E941E91A8
:1014B0008F2D1F910F91FF900895EF92FF920F9340
:1014C0001F930CE0E02EF12CE80EF91E0AE714E160
:1014D000C801B7010E945380C801B7010E947C80F7
:1014E00082E08093131290917B1780917C178093F8
:1014F00014129093151283E090E061E070E00E9476
:101500005590182F092F88E092E1612F702F0E94CB
:10151000810784EA91E161E777E142E0212F302FF2
:101520000E94A904F82E812F902F0E941E918F2DCA
:101530001F910F91FF90EF900895EF92FF920F93FC
:101540001F937C018B0185E393E16FE775E00E94B7
:101550007C294091BF125091C0126091C1127091CC
:10156000C2128BE892E120E130E00E94CE0FF70139
:101570009081F801E90FF11D2091C31220839F5F34
:10158000F7019083090F111D2091C412F8012083E7
:101590009F5FF7019083909113129E5F90931312B7
:1015A0001F910F91FF90EF900895EF92FF920F938C
:1015B0001F937C018B0185E393E168E875E00E944D
:1015C0007C296091BC127091BD1280E090E00E9475
:1015D000A78EAB01BC018BE892E128E030E00E94CD
:1015E000CE0FF7019081090F111D2091BE12F80155
:1015F00020839F5FF7019083909113129F5F9093D8
:1016000013121F910F91FF90EF900895EF92FF92A8
:101610000F931F937C018B0185E393E161E975E0F2
:101620000E947C294091B6125091B7126091B81275
:101630007091B9128BE892E124E030E00E94CE0F65
:10164000F7019081F801E90FF11D2091BA12208372
:101650009F5FF7019083090F111D2091BB12F801C4
:1016600020839F5FF7019083909113129E5F909368
:1016700013121F910F91FF90EF900895EF92FF9238
:101680000F931F937C018B0185E393E16BE975E078
:101690000E947C294091B1125091B2126091B31214
:1016A0007091B4128BE892E122E030E00E94CE0FFC
:1016B000F7019081090F111D2091B512F8012083C7
:1016C0009F5FF7019083909113129F5F9093131285
:1016D0001F910F91FF90EF900895EF92FF920F935B
:1016E0001F937C018B0185E393E164EA75E00E941E
:1016F0007C294091AB125091AC126091AD12709167
:10170000AE128BE892E121E030E00E94CE0FF701AB
:101710009081F801E90FF11D2091AF1220839F5FA6
:10172000F7019083090F111D2091B012F801208359
:101730009F5FF7019083909113129E5F9093131215
:101740001F910F91FF90EF9008954F925F926F92CB
:101750007F928F929F92AF92BF92CF92DF92EF9241
:10176000FF920F931F93DF93CF930F92CDB7DEB706
:101770005C012B016A0182E08983D5011B968C9361
:1017800085E393E16EEA75E00E9476290E94650781
:10179000BC0185E393E10E946629F501D486C586E4
:1017A0005CE0852E912C8A0C9B1C03E611E122E063
:1017B00041E0E42EF12C3E010894611C711CC7012C
:1017C0008C219D21892B39F0D801ED91FC91C30129
:1017D000B401099520E00E5F1F4FB1E103381B07EC
:1017E00019F0EE0CFF1CEBCF223009F46FC022235E
:1017F00009F06CC085E393E16EEA75E00E947629FA
:101800000E946507BC0185E393E10E946629F5010A
:10181000838590E0880F991F019661E070E00E9437
:101820005590182F092F85E393E16EEA75E00E9429
:1018300076290E946507BC0185E393E10E94662931
:10184000C501612F702F0E94810785E393E16EEA45
:1018500075E00E94762985E393E16CEB75E00E94C8
:1018600076290E946507BC0185E393E10E94662901
:1018700084EA91E1B2014AE0212F302F0E94A904AD
:10188000F82E85E393E16EEA75E00E94762985E300
:1018900093E163EC75E00E9476290E946507BC0124
:1018A00085E393E10E946629812F902F0E941E916B
:1018B00085E393E16EEA75E00E9476290E94650750
:1018C000BC0185E393E10E94662902C0FF24F394E2
:1018D0008F2D0F90CF91DF911F910F91FF90EF907F
:1018E000DF90CF90BF90AF909F908F907F906F9040
:1018F0005F904F9008950F931F93CF93DF93FC0158
:10190000EF57FF4F819180930B12819180930C12BE
:10191000819180930D128081E458F04080930E12E3
:10192000EF01C358DF4FAFE0B2E189918D9382E1BF
:10193000A331B807D1F78485992787FD9095782F33
:1019400066278585992787FD9095680F791F709385
:101950000A1260930912A0917D17E0917B17F09114
:101960007C1740E021E030E051E00EC0C9018E2339
:101970009F23892B31F4C90186239723892B09F0F2
:1019800050E0220F331F4F5F4A1780F3552351F465
:1019900084EA91E161E777E149EC55E00E942B058B
:1019A00081E055C08BE892E10E943310882319F53D
:1019B0004091091250910A1288E092E16BE072E1C5
:1019C0000E94A50B882309F442C004E112E184E6D9
:1019D000D8011D928A95E9F700D000D000D0EDB76C
:1019E000FEB73196ADB7BEB712961C930E93119702
:1019F00089E096E015C004E112E184E6D8011D9269
:101A00008A95E9F700D000D000D0EDB7FEB7319647
:101A1000ADB7BEB712961C930E93119786E396E06E
:101A20009383828385EA95E1958384830E94589409
:101A3000EDB7FEB736960FB6F894FEBF0FBEEDBFFA
:101A400084EA91E161E777E1A8010E942B05DF912B
:101A5000CF911F910F910895FC0111821082809106
:101A600003136AE00E94DF8F90E0918380832091CE
:101A7000021346E0249F90011124280F391F31835F
:101A800020838091011390E048E651E0BC01649FFF
:101A9000C001659F900D749F900D1124280F391F70
:101AA0003183208308950895CF92DF92EF92FF92C1
:101AB0000F931F93DF93CF93CDB7DEB72C970FB65D
:101AC000F894DEBF0FBECDBF8B016901DE01119618
:101AD000E0E9F1E183E001900D928150E1F7DE0150
:101AE0001496EDE8F1E183E001900D928150E1F769
:101AF000DE011796EAE8F1E183E001900D92815052
:101B0000E1F7DE011A96E7E8F1E183E001900D923A
:101B10008150E1F781E2003C180750F1C80160EC08
:101B200071E20E94EB8F462FC80160EC71E20E94C7
:101B3000EB8F8C0100D000D000D0EDB7FEB731960E
:101B4000CE010196ADB7BEB712969C938E931197B6
:101B50008AE696E093838283448315820E94589498
:101B60008DB79EB706960FB6F8949EBF0FBE8DBF79
:101B700091E008361907D8F1C80168E671E00E94C3
:101B8000EB8F462FC80168E671E00E94EB8F8C0155
:101B9000CE0104964A3078F000D000D000D0EDB7E6
:101BA000FEB73196ADB7BEB712969C938E93119740
:101BB0008EE696E00EC000D000D000D0EDB7FEB7A4
:101BC0003196ADB7BEB712969C938E9311978AE665
:101BD00096E093838283448315820E9458948DB744
:101BE0009EB706960FB6F8949EBF0FBE8DBF063007
:101BF000110508F440C0C80166E070E00E94EB8F58
:101C0000262FC80166E070E00E94EB8F7C018C01FA
:101C1000CE0107962A3078F000D000D000D0EDB782
:101C2000FEB73196ADB7BEB712969C938E931197BF
:101C30008EE696E00EC000D000D000D0EDB7FEB723
:101C40003196ADB7BEB712969C938E9311978AE6E4
:101C500096E093838283248315820E9458948DB7E3
:101C60009EB706960FB6F8949EBF0FBE8DBF96E046
:101C7000E916F10458F50115110541F100D000D025
:101C800000D0EDB7FEB73196CE010A96ADB7BEB71C
:101C900012969C938E9311978EE696E0938382839F
:101CA000C80133E0880F991F3A95E1F7000F111F23
:101CB000800F911F848315820E9458948DB79EB720
:101CC00006960FB6F8949EBF0FBE8DBFADB7BEB7D8
:101CD0001C970FB6F894BEBF0FBEADBFEDB7FEB7F1
:101CE00031961296DC92CE92119781E796E093831B
:101CF0008283CE01019695838483CE0104969783D7
:101D00008683CE01079691878087CE010A969387B6
:101D100082870E9458948DB79EB70C960FB6F894A0
:101D20009EBF0FBE8DBF80E02C960FB6F894DEBF2D
:101D30000FBECDBFCF91DF911F910F91FF90EF901C
:101D4000DF90CF900895CF93DF93FC01EB0141E248
:101D5000603C7407B8F0CB0160EC71E20E94EB8F3D
:101D6000262F30E080E49EEDAC01249FC001259F2A
:101D7000900D349F900D1124C80FD91F809104132A
:101D8000860F02C0809104138683608171816C0F7D
:101D90007D1F75836483CF01468137969F010E9422
:101DA000540D80E0DF91CF910895EF92FF920F9351
:101DB0001F937C010BEE12E1C8010E94991AC70122
:101DC0000E942C0DC8010E94991A1F910F91FF903B
:101DD000EF9008950F931F938C018BEE92E10E9478
:101DE0007218C8010E94D50E1F910F9108950F938C
:101DF0001F938C018BEE92E16DE776E00E947218E2
:101E0000C8010E94D50E1F910F910895FC01138205
:101E100012828AE493E1918380831782168284EF91
:101E200092E195838483138612868EE992E19187ED
:101E300080871786168680EA93E195878487138AC0
:101E4000128A8AE192E1918B808B178A168A89EB3C
:101E500091E1958B848B138E128E8FE491E1918F9B
:101E6000808F178E168E8EEF90E1958F848FEA5BB0
:101E7000FF4F20E080918217909183178193919377
:101E80002F5F2830B9F708958BE892E10E94060F82
:101E90000895AF92BF92CF92DF92EF92FF921F937D
:101EA000CF93DF9336E4C32ED12CC80ED91E21E088
:101EB000A22EB12C96EDE92E97E0F92E80917E1797
:101EC00090917F178A219B21892BB1F0B701615036
:101ED000704086E393E10E94FE2A182F86E393E187
:101EE000B7010E94FE2AD82FC0E0CE01810F911DBC
:101EF000F6019183808303C0F6011182108282E093
:101F000090E0E80EF91EC80ED91E98EFE91697E08A
:101F1000F90619F0AA0CBB1CD1CFDF91CF911F910C
:101F2000FF90EF90DF90CF90BF90AF900895EF9229
:101F3000FF920F931F93CF93DF938C010A5B1F4F88
:101F400051E0E52EF12CC6EDD7E080917E179091FF
:101F50007F178E219F21892B81F0BE016150704037
:101F60008AE794E1F80140810E94E776F801418117
:101F70008AE794E1BE010E94E77622960E5F1F4F2A
:101F8000F7E0C83FDF0719F0EE0CFF1CDECFDF9152
:101F9000CF911F910F91FF90EF900895CF93DF9312
:101FA000EC012430310561F12530310544F4213054
:101FB000310569F02230310509F04BC01BC02830D3
:101FC000310589F12031310509F043C033C0CB011F
:101FD000BA0120E030E040E252E40E94AB8D20E004
:101FE00030E048EC52E40E945D8F0E947B8E7CA31F
:101FF0006DA326C0CB01BA010E947B8E6AA718C0D0
:10200000CB01BA0120E030E048EC52E40E945D8F41
:1020100020E030E543E457E40E94AA8D0E947B8EC5
:102020007FA768AB0DC0CB01BA010E947B8E6BAB62
:1020300080E016C0CB01BA010E947B8E78AF69AFF9
:1020400080E0372F20E0260F311D6217730739F427
:1020500007C085E393E161EA76E00E947C2981E094
:10206000DF91CF910895AF92BF92DF92EF92FF92EE
:102070000F931F93CF93DF93EC017B0161157105E3
:1020800011F481E0B1C068307105D9F48E859F8567
:102090002C853D8580FF0EC0FC01F595E795EC0F82
:1020A000FD1F0190F081E02DE20FF31F0190F08100
:1020B000E02D01C0F901959587958C0F9D1F09951D
:1020C00092C065FD03C0862F807C31F082E393E1EE
:1020D00060E00E94372209C084E393E10E94BF2898
:1020E00084E393E160E00E94972864E670E080E07A
:1020F00090E00E94990201E010E0DD2441E0A42E6E
:10210000B12C63C08091A917882339F0C8018E21B2
:102110009F21892B09F456C02BC08091A51790915F
:10212000A61798012E213F210297A0F4232B09F432
:1021300049C080919A1790919B178A199B09880F23
:10214000991FE0919617F0919717E80FF91F60819A
:10215000718106C0232BB1F160919E1770919F177A
:1021600080917812909179120E94EB8F892B51F512
:102170008D2D90E0880F991F880F991FFE01E80FA1
:10218000F91F22813381DC0120FF12C0F901F5958E
:10219000E795EC0FFD1FAC0FBD1F0190F081E02D06
:1021A0008D919C91E80FF91F0190F081E02D04C002
:1021B000AC0FBD1FED91FC9135952795CE01820F97
:1021C000931F0995000F111FD39480918017D81683
:1021D00008F498CF82E393E161E00E94372284E320
:1021E00093E10E94BB2880E0DF91CF911F910F9176
:1021F000FF90EF90DF90BF90AF900895AF92BF92A5
:10220000CF92DF92EF92FF920F931F93CF93DF93C2
:102210006C0185E393E163EB76E00E947C2982E424
:1022200090E0C80ED91E80E090E0A0E0B0E0F6019A
:1022300080839183A283B383C0E0D0E05601F5018F
:10224000E080F1800281138182E393E160E170E03C
:102250000E9468249B01AC01C801B7010E94AB8DAC
:10226000F50160837183828393832196CA30D105FF
:1022700031F720E030E040E251E40E94138EF60195
:102280006083718382839383DF91CF911F910F913C
:10229000FF90EF90DF90CF90BF90AF900895AF92F6
:1022A000BF92CF92DF92EF92FF920F931F93CF9343
:1022B000DF936C0185E393E161EC76E00E947C2979
:1022C0008EE390E0C80ED91E80E090E0A0E0B0E080
:1022D000F60180839183A283B38382E393E160E07C
:1022E00040E050E00E94191F62E370E080E090E05F
:1022F0000E949902C0E0D0E05601F501E080F18033
:102300000281138182E393E160E070E00E9468241F
:102310009B01AC01C801B7010E94AB8DF501608340
:102320007183828393832196CA30D10531F782E38A
:1023300093E161E040E050E00E94191FF6016081E6
:1023400071818281938120E030E040E251E40E947B
:10235000138EF6016083718382839383DF91CF9123
:102360001F910F91FF90EF90DF90CF90BF90AF90B3
:102370000895CF92DF92EF92FF920F931F93CF9326
:10238000DF936C0185E393E16DEC76E00E947C299C
:1023900080E090E0A0E0B0E0F60182AF93AFA4AFA0
:1023A000B5AF82E393E160E041E050E00E94191F85
:1023B00062E370E080E090E00E949902C0E0D0E02B
:1023C000F601E2ACF3AC04AD15AD82E393E161E05C
:1023D00070E00E9468249B01AC01C801B7010E9413
:1023E000AB8DF60162AF73AF84AF95AF2196CA3063
:1023F000D10531F782E393E161E041E050E00E94D2
:10240000191FF60162AD73AD84AD95AD20E030E0EB
:1024100040E251E40E94138EF60162AF73AF84AFC5
:1024200095AFDF91CF911F910F91FF90EF90DF90CB
:10243000CF900895CF92DF92EF92FF920F931F9368
:10244000CF93DF936C0185E393E16AED76E00E9420
:102450007C2980E090E0A0E0B0E0F60184AB95AB91
:10246000A6ABB7AB85E393E165EE76E00E947C29ED
:1024700084E393E164E070E041E00E94832884E318
:1024800093E160E044E050E00E94E1240E94810278
:102490007B018C0106C084E393E164E070E00E945C
:1024A00083260E9481026E197F09800B910B605375
:1024B00075478040904078F3C0E0D0E0F601E4A892
:1024C000F5A806A917A984E393E164E070E00E94EF
:1024D00083269B01AC01C801B7010E94AB8DF601B8
:1024E00064AB75AB86AB97AB2196CA30D10531F79B
:1024F00084E393E161E044E050E00E94E124F601CE
:1025000064A975A986A997A920E030E040E251E4CA
:102510000E94138E20E030E04AE754E40E945D8F71
:10252000F60164AB75AB86AB97ABDF91CF911F9192
:102530000F91FF90EF90DF90CF900895CF92DF92B0
:10254000EF92FF920F931F93CF93DF936C0185E37C
:1025500093E16BEF76E00E947C2980E090E0A0E0C0
:10256000B0E0F60183A794A7A5A7B6A784E393E1FB
:1025700060E042E050E00E94E124C0E0D0E0F601DB
:10258000E3A4F4A405A516A584E393E162E070E05A
:102590000E9483269B01AC01C801B7010E94AB8D4C
:1025A000F60163A774A785A796A72196CA30D1051F
:1025B00031F720E030E040E251E40E94138EF60152
:1025C00063A774A785A796A784E393E161E042E03F
:1025D00050E00E94E124DF91CF911F910F91FF9075
:1025E000EF90DF90CF900895CF92DF92EF92FF921D
:1025F0000F931F93CF93DF936C0185E393E16BE01F
:1026000077E00E947C2980E090E0A0E0B0E0F60155
:1026100086A397A3A0A7B1A784E393E160E041E07C
:1026200050E00E94E124C0E0D0E0F601E6A0F7A06F
:1026300000A511A584E393E161E070E00E94832688
:102640009B01AC01C801B7010E94AB8DF60166A3E6
:1026500077A380A791A72196CA30D10531F720E052
:1026600030E040E251E40E94138EF60166A377A3A6
:1026700080A791A784E393E161E041E050E00E94EC
:10268000E124DF91CF911F910F91FF90EF90DF90A8
:10269000CF900895CF92DF92EF92FF920F931F9306
:1026A000CF93DF936C0185E393E16BE177E00E94C8
:1026B0007C2980E090E0A0E0B0E0F60180A391A347
:1026C000A2A3B3A384E393E160E040E050E00E9462
:1026D000E124C0E0D0E0F601E0A0F1A002A113A146
:1026E00084E393E160E070E00E9483269B01AC01EB
:1026F000C801B7010E94AB8DF60160A371A382A34C
:1027000093A32196CA30D10531F720E030E040E2B2
:1027100051E40E94138EF60160A371A382A393A3D8
:1027200084E393E161E040E050E00E94E124DF9126
:10273000CF911F910F91FF90EF90DF90CF90089570
:10274000EF92FF920F931F93CF93DF937C0185E36A
:1027500093E16EE277E00E947C29F70112AA11AAA8
:10276000C0E0D0E0F70101A912A989EE92E10E9430
:10277000E2139801280F311DC901F70132AB21ABDB
:102780002196CA30D10571F76AE070E00E94EB8FA4
:1027900072AB61ABDF91CF911F910F91FF90EF90E2
:1027A00008950C9400F00895089589E261E00E9474
:1027B000F30388E261E00E94F30387EF97E10E9450
:1027C000D1800895EF92FF920F931F9389E161E00A
:1027D0000E94F30389E161E00E94110480E00E94FD
:1027E0002489AA2797FDA095BA2FBC01CD010E948C
:1027F000A98E7B018C0120E030E040E054E40E948F
:102800000F8E882334F489E160E00E94110410E007
:1028100046C0C801B70120E030EC42E254E40E9417
:10282000598F181634F489E160E00E94110414E60F
:1028300036C0C801B70120E030EC42E254E40E9407
:102840000F8E1816BCF0C801B70120E030EC47E04D
:1028500054E40E94598F18166CF4C801B70125E59D
:1028600035E545E55FE30E945D8F20E030E04DED0A
:1028700053E40CC0C801B70120E030E040EA5EE359
:102880000E945D8F20E030E040E253E40E94AA8D78
:102890000E947B8E162F89E160E00E941104812F37
:1028A0001F910F91FF90EF9008950F931F93CF9377
:1028B000DF93EB01142F022F86E161E00E94F30306
:1028C00086E160E00E94110480E00E94378B04C022
:1028D00083E260E00E94110483E20E945C04892B81
:1028E000B9F78BEE92E10E94EE1A8BEE92E1BE01F7
:1028F000412F202F0E94021A8BEE92E10E946E154A
:102900008BEE92E160E140E00E94A51A86E393E13C
:1029100060E070E04AE00E94F92A81E361E00E94F1
:10292000F30381E361E00E94110462E170E080E062
:1029300090E00E94990281E360E00E941104FFCFC1
:102940001F93162F80917A008F7780937A0081E20F
:1029500061E00E94F30381E260E00E9411048BE1D8
:1029600061E00E94F3038BE160E00E94110410FF1C
:1029700010C08AE161E00E94F3038AE160E00E94F6
:10298000110488E161E00E94F30388E160E00E94A5
:10299000110411FF09C086E794E10E94D92B86E754
:1029A00094E163E00E949B2B12FF13C081E00E9420
:1029B000378B8FE261E00E94F3038FE260E00E94B8
:1029C000110483E261E00E94F30383E260E00E946D
:1029D000110413FF08C089E161E00E94F30389E15B
:1029E00060E00E9411041F910895EF92FF920F93EF
:1029F0007C018BEE92E10E94021A8BEE92E10E9422
:102A00006E15C701602F0E94A01483B7817F846078
:102A100083BF83B7816083BF83B7816083BF88959D
:102A200083B78E7F83BF83B78E7F83BF80917A0009
:102A3000806880937A008BEE92E10E94EE1A8BEE12
:102A400092E10E94AE1604FF04C08BEE92E10E9458
:102A5000CD1A0F91FF90EF9008951F93142F6130BE
:102A600051F460E270E080E090E00E94DC85812F0C
:102A70000E941A020AC0623041F460E270E080E015
:102A800090E00E9482850E94AC031F910895FF92FE
:102A90000F931F938C01F62E642F0E94A01483B70E
:102AA000817F846083BF83B7816083BFC80161E099
:102AB0004F2D0E942D1583B7816083BF889583B702
:102AC0008E7F83BF83B78E7F83BFEAE7F0E080818C
:102AD000806880831F910F91FF9008950895FC01F5
:102AE000138A148A158A168A178A108E118E128EEE
:102AF000138E148E158E168E178E10A211A212A28E
:102B000080E090E0A0E0B0E083A394A3A5A3B6A3E7
:102B10000895262F862F6AE00E94DF8F492F30E02C
:102B2000C901841B91096AE070E00E94FF8FE4E014
:102B3000660F771FEA95E1F7842F862B0895089595
:102B4000CF93DF93EC018D89843009F45FC0853029
:102B500048F4823059F1833008F040C0813009F0E8
:102B6000D2C00AC0863009F481C0863008F466C03D
:102B7000873009F0C8C092C08DB79EB742970FB694
:102B8000F8949EBF0FBE8DBFEDB7FEB73196A896E5
:102B9000ADB7BEB71296DC93CE931197A8978DE38D
:102BA00097E09383828381E697E08FC0ADB7BEB78D
:102BB00052970FB6F894BEBF0FBEADBFEDB7FEB7CC
:102BC0003196A8961296DC93CE931197A8978DE331
:102BD00097E09383828388E697E077C0ADB7BEB76E
:102BE00052970FB6F894BEBF0FBEADBFEDB7FEB79C
:102BF0003196A8961296DC93CE931197A8978DE301
:102C000097E0938382838FE697E05FC0ADB7BEB74E
:102C100052970FB6F894BEBF0FBEADBFEDB7FEB76B
:102C20003196A8961296DC93CE931197A8978DE3D0
:102C300097E09383828387E797E047C0ADB7BEB73D
:102C400052970FB6F894BEBF0FBEADBFEDB7FEB73B
:102C50003196A8961296DC93CE931197A8978DE3A0
:102C600097E09383828381E897E02FC0ADB7BEB72A
:102C700052970FB6F894BEBF0FBEADBFEDB7FEB70B
:102C80003196A8961296DC93CE931197A8978DE370
:102C900097E0938382838AE897E017C0ADB7BEB709
:102CA00052970FB6F894BEBF0FBEADBFEDB7FEB7DB
:102CB0003196A8961296DC93CE931197A8978DE340
:102CC00097E09383828381E997E0958384838B895E
:102CD000868317828C8980871186898D82871386E7
:102CE0008E89848715868F8986871786888D808B45
:102CF000118A0E9458948DB79EB742960FB6F894E9
:102D00009EBF0FBE8DBF9E01285D3F4FC901DF9161
:102D1000CF910895DF92EF92FF920F931F938C0152
:102D2000D62EA7EFEA2EA7E1FA2EC70168E670E0DB
:102D30000E94AF80C7016D2D0E94DB800D0D111D1B
:102D4000C701F80160810E94DB80C7010E940281F7
:102D50001F910F91FF90EF90DF9008958091FA12EC
:102D60008C7F8093FA128BEE92E16FE00E948A16BC
:102D700008950F931F938C0160E170E080E090E074
:102D80000E948285C8010E94AE161F910F9108957E
:102D90001F93CF93DF93EC01142F613009F08CC0A7
:102DA0008E858D7F85608E87CE016EE00E948A16AB
:102DB0008F858C7F8F87CE016FE00E948A1613303B
:102DC00009F452C0143030F4113031F18F811230D7
:102DD000D8F50AC0153009F454C0153008F44EC0B7
:102DE000163009F0DDC0D2C08F778F83CE0167E047
:102DF0000E948A1688858F778887CE0168E00E94B6
:102E00008A1689858F778987CE0169E00E948A16A4
:102E10008A858F7780644CC08F818F778F83CE01B6
:102E200067E00E948A1688858F778887CE0168E0E0
:102E30000E948A1689858F778987CE0169E00E9472
:102E40008A168A858F7334C08F778F83CE0167E0AF
:102E50000E948A1688858F778887CE0168E00E9455
:102E60008A1689858F771DC08F818F778F83CE01DA
:102E700067E00E948A1688858F770CC08F818F77D4
:102E800002C08F8180688F83CE0167E00E948A161E
:102E9000888580688887CE0168E00E948A168985C7
:102EA00080688987CE0169E00E948A168A858068D9
:102EB0008A87CE016AE067C0623009F071C08E85F2
:102EC0008E7F86608E87CE016EE00E948A168F8587
:102ED0008C7F8F87CE016FE00E948A16123099F1A5
:102EE000133030F4112361F0113009F059C01AC0C9
:102EF0001430B1F1143088F1153009F051C046C0DA
:102F00008B858F778B87CE016BE00E948A168C852C
:102F10008F778C87CE016CE00E948A168D858F7723
:102F200080642EC08B858F778B87CE016BE00E94EB
:102F30008A168C858F778C87CE016CE00E948A166A
:102F40008D858F731DC08B858F778B87CE016BE04E
:102F50000E948A168C858F770CC08B858F7702C074
:102F60008B8580688B87CE016BE00E948A168C85EA
:102F700080688C87CE016CE00E948A168D858068FF
:102F80008D87CE016DE00E948A160AC08E85887FEB
:102F90008E87CE016EE00E948A16CE010E94B9167D
:102FA00060E170E080E090E00E94DC85DF91CF91ED
:102FB0001F910895DF92EF92FF920F931F938C0160
:102FC000A7EFEA2EA7E1FA2EC70168E670E00E949B
:102FD000AF80C70167E070E00E94FF80C801F80180
:102FE000628D0E948915FFE7DF2ED822F801D78273
:102FF000C801638D0E9489158F77F8018087C80109
:10300000648D0E9489158F77F8018187C801658DCD
:103010000E9489158F73F8018287C7016D2D0E9468
:10302000DB80C701F80160850E94DB80C701F801E1
:1030300061850E94DB80C701F80162850E94DB8008
:10304000C7010E9402811F910F91FF90EF90DF90C6
:1030500008950F931F93CF93DF93EC0187EF97E1D0
:1030600068E670E00E94AF8087EF97E160E070E073
:103070000E94FF80CE01688D0E9489158883CE0151
:103080006F890E9489158983CE016E890E948915F6
:103090008A838D898B83CE01698D0E9489158C83EB
:1030A000CE016C890E9489158D83CE016B890E94A7
:1030B00089158E8300E010E0FE01E00FF11F87EF1D
:1030C00097E160810E94DB800F5F1F4F0730110581
:1030D00099F787EF97E10E940281DF91CF911F91CD
:1030E0000F910895DC01FB012181205380818053E1
:1030F0003AE0839FC0011124280F53962C935397D5
:103100002481205383818053839FC0011124280F81
:1031100054962C9354972781205386818053839F04
:10312000C0011124280F59962C93599722852053BA
:1031300081858053839FC0011124280F55962C93BD
:1031400055972585205384858053839FC001112482
:10315000280F56962C9356972089205387858053A5
:10316000839FC0011124280F57962C9357972389CA
:10317000205382898053839FC0011124280F5896C1
:103180002C935897CD010E9429180895CF92DF9271
:10319000EF92FF921F93CF93DF937C01162F87EF5F
:1031A00097E168E670E00E94AF8087EF97E160E00A
:1031B00070E00E94FF8087EF97E10E94028187EF15
:1031C00097E168E670E042E150E00E942381C0E0B0
:1031D000D0E0C12EDD241AE009C187EF97E10E94FB
:1031E000B980882309F402C187EF97E10E94BF806C
:1031F000282FF701EC0FFD1F8083C630D10509F49D
:1032000082C0C730D105B8F4C230D10509F44EC030
:10321000C330D10538F4209769F1C130D10509F0E8
:10322000E4C036C0C430D10509F451C0C530D10561
:1032300008F05BC049C0CA30D10509F49BC0CB304F
:10324000D10558F4C830D10509F478C090E02F704A
:10325000C930D10508F081C064C0CC30D10509F473
:10326000A7C0CC30D10508F494C0CD30D10509F009
:10327000BCC0ADC090E054E0959587955A95E1F7B4
:10328000819FC00111242F70280FF701208FADC03E
:1032900090E044E0959587954A95E1F7819FC001BC
:1032A00011242F70280FF701278B9FC090E034E086
:1032B000959587953A95E1F7819FC00111242F706C
:1032C000280FF701268B91C0F701858B8EC090E007
:1032D000B4E095958795BA95E1F7819FC0011124D7
:1032E0002F70280FF701218F80C090E0A4E0959502
:1032F0008795AA95E1F7819FC00111242F70280FAF
:10330000F701248B72C090E0F4E095958795FA95CB
:10331000E1F7819FC00111242F70280FF701238B43
:1033200064C0E4E095958795EA95E1F78770819F01
:10333000C0011124280FF701228F57C090E074E0DC
:10334000959587957A95E1F78770819FC001112443
:103350002F70280FF701238F48C064E0959587955B
:103360006A95E1F78370819FC0011124280FF7014E
:10337000248F3BC090E054E0959587955A95E1F7EE
:103380008370819FC00111242F70280FF701258FB2
:103390002CC090E044E0959587954A95E1F78770B9
:1033A000819FC00111242F70280FF701268F1DC0A7
:1033B00090E034E0959587953A95E1F78370819F89
:1033C000C00111242F70280FF701278F0EC090E045
:1033D000B4E095958795BA95E1F78370819FC00118
:1033E00011242F70280FF70120A32196CC16DD069B
:1033F00008F0F3CEDF91CF911F91FF90EF90DF9017
:10340000CF9008951F93CF93DF93EC01FB01122F10
:1034100021812053808180533AE0839FC001112491
:10342000280F2D8F2481205383818053839FC001D7
:103430001124280F2C8F2781205386818053839F4E
:10344000C0011124280F2B8F2285205381858053A2
:10345000839FC0011124280F2A8F442309F05BC0E9
:10346000CE0166E00E94C618988D8A8D980F9A8FBB
:103470009C3328F09C539A8F8B8D8F5F8B8F9F8905
:103480008B8D980F9B8F9C3328F09C539B8F8C8D3A
:103490008F5F8C8F9E898C8D980F9C8F983128F030
:1034A00098519C8F8D8D8F5F8D8F2D8D112339F4C9
:1034B0008D89820F8D8F883070F187502BC0998D48
:1034C000920F9D8F8C89813051F0833041F085308F
:1034D00031F0873021F0883011F08C3021F49032B7
:1034E00010F09F519D8F8C89843041F0863031F0EF
:1034F000893021F08A3011F08B3029F48D8D8F3195
:1035000010F08E518D8F8C89823029F48D8D8D3104
:1035100010F08C518D8F8BEE92E10E94DA178BEEBA
:1035200092E161E0412F0E94C816DF91CF911F9177
:1035300008950F931F938C0166E00E94C618C8017E
:103540000E94A0151F910F9108950F931F93CF9381
:10355000DF93EC01042F6FA380E361E00E94F3038B
:103560001FA1113019F0103199F40DC080E361E012
:103570000E941104013019F482E08A8B09C00023F3
:1035800039F41A8B05C080E360E00E9411041A8AA6
:10359000DF91CF911F910F91089560E140E00E946B
:1035A000A51A0895CF93DF93EC0161E040E00E94FB
:1035B000A51A8091F717882321F487EF97E10E94DD
:1035C0002681CE010E94AE16CE010E946F15CE015B
:1035D0006DE00E94C618DF91CF9108950E94D21A23
:1035E0000895AF92BF92CF92DF92EF92FF920F9326
:1035F0001F939B014115510561F14130510559F06F
:103600000F2EF0E0EF2EF0E0FF2EF0E00F2FF0E0B5
:103610001F2FF02D49C0B901882777FD8095982F7D
:103620000E94A98E7B018C012DEB32E546E15DE322
:103630000E945D8F25EC3EEF42E050E40E94AA8D8F
:103640005B016C01C801B70126EF34E246ED55EB92
:103650001DC0B901882777FD8095982F0E94A98EFB
:103660007B018C012DEB32E546E15FE30E945D8F2B
:1036700025EC3EEF42E050E40E94AA8D5B016C0114
:10368000C801B7012BE335E246ED59EB0E945D8F8F
:10369000A80197010E945D8F9B01AC01C601B50195
:1036A0000E94AB8D7B018C01C801B70120E030E0A6
:1036B00046EC52E40E94598F181654F40F2EF0E095
:1036C000EF2EF0E0FF2EF8EC0F2FF2E41F2FF02D7D
:1036D000B701C8011F910F91FF90EF90DF90CF903D
:1036E000BF90AF900895AF92BF92CF92DF92EF92CA
:1036F000FF920F931F93FB01142F8081282F30E03E
:1037000066E0359527956A95E1F751E0C52ED12CF5
:10371000C222D32290E0A0E0B0E08F739070A0703E
:10372000B0704427582F692F7A2F8181480F511D7F
:10373000611D711D92E0440F551F661F771F9A95FA
:10374000D1F782818295869586958370480F511DA9
:10375000611D711D359527952130310579F481E082
:10376000C816D104E1F40F2EF0E0AF2EF0E0BF2E2A
:10377000F0E0CF2EF0E4DF2EF02D23C0CD2859F459
:103780000F2EF0E0AF2EF0E0BF2EF0E0CF2EF0ECE9
:10379000DF2EF02D16C04F5F5F4F60407040CB01B1
:1037A000BA010E94A98E20E030E040EC5FE30E9465
:1037B0005D8F20E03FEF4FE757E40E94138E5B01DF
:1037C0006C01113009F04FC0C601B50120E030E4B2
:1037D0004BE754E40E945D8F20E030E44BEF54E46B
:1037E0000E945D8F2AE63FE64BE45AE40E94AB8DCF
:1037F0007B018C01C601B50120E030E44BEF54E4BD
:103800000E945D8F9B01AC0160E078E48FE495E459
:103810000E94AA8D9B01AC01C801B7010E94138EC2
:1038200028E431E64AE754E40E94AA8D2EEA3FEFED
:1038300048EA54E40E94138E28EB3EEC4AEB54E431
:103840000E945D8F2FE832E049E754E40E94AB8D7F
:1038500020E030E04AE754E40E94AA8D26E931E2F4
:103860004AE750E40EC01123A1F4C601B50120E0DF
:1038700030EE4BE256E40E945D8F20E030E04AE7F4
:1038800054E40E94138E9B01AC01832F942F752F5B
:1038900000C0262F382F492F572FB901CA011F9179
:1038A0000F91FF90EF90DF90CF90BF90AF90089571
:1038B000882777FD8095982F0E94A98E20E030E41C
:1038C0004EE455E40E945D8F20E030EC4FE754E475
:1038D0000E94138E2AE939E949E15FE30E94138EC1
:1038E00020E030E047E853E40E94AB8D20E030E474
:1038F0004CE955E40E94138E2CE53FE842EC5DE371
:103900000E94AB8D20EE3DE240E15CE30E94138E0D
:103910000895EF92FF920F931F93CF93DF93EC01E3
:103920007A018B01CB01BA0120E030E040E85EE390
:103930000E940F8E88231CF480E190E04EC1C801E4
:10394000B70120E030E040E85EE30E94598F882311
:103950006CF0C801B70129E23CE54FE85EE30E9444
:103960000F8E88231CF484E090E037C1C801B701B2
:1039700029E23CE54FE85EE30E94598F88236CF012
:10398000C801B70123E333E343EB5EE30E940F8EEC
:1039900088231CF488E090E020C1C801B70123E32C
:1039A00033E343EB5EE30E94598F88236CF0C80138
:1039B000B70120E030E040E05FE30E940F8E8823F3
:1039C0001CF480E490E009C1C801B70120E030E0B8
:1039D00040E05FE30E94598F88236CF0C801B70173
:1039E00026E636E646E25FE30E940F8E88231CF44B
:1039F00080E290E0F2C0C801B70126E636E646E272
:103A00005FE30E94598F88236CF0C801B7012AE94F
:103A100039E949E55FE30E940F8E88231CF480E0BA
:103A200091E0DBC0C801B7012AE939E949E55FE364
:103A30000E94598F88236CF0C801B7012DEC3CEC33
:103A40004CE85FE30E940F8E88231CF480E890E02E
:103A5000C4C0C801B7012DEC3CEC4CE85FE30E9408
:103A6000598F88236CF0C801B70127ED33EA40EB8A
:103A70005FE30E940F8E88231CF481E090E0ADC0CC
:103A8000C801B70127ED33EA40EB5FE30E94598F8D
:103A900088236CF0C801B7012DEC3CEC4CEC5FE3E3
:103AA0000E940F8E88231CF482E090E096C0C8012B
:103AB000B7012DEC3CEC4CEC5FE30E94598F88235E
:103AC0006CF0C801B70128E431EE4AEF5FE30E94D1
:103AD0000F8E88231CF480E094E07FC0C801B701FA
:103AE00028E431EE4AEF5FE30E94598F88236CF09F
:103AF000C801B7012AE939E949E050E40E940F8E74
:103B000088231CF480E092E068C0C801B7012AE96C
:103B100039E949E050E40E94598F88236CF0C801CC
:103B2000B70126E636E646E150E40E940F8E882370
:103B30001CF480E090E451C0C801B70126E636E6E7
:103B400046E150E40E94598F88236CF0C801B70108
:103B500026E636E646E250E40E940F8E88231CF4E7
:103B6000198218823CC0C801B70126E636E646E253
:103B700050E40E94598F88236CF0C801B70123E3F9
:103B800033E343E350E40E940F8E88231CF480E06B
:103B900090E123C0C801B70123E333E343E350E4DA
:103BA0000E94598F88236CF0C801B70126E636E6DB
:103BB00046E450E40E940F8E88231CF480E098E0D5
:103BC0000CC0C801B70126E636E646E450E40E9480
:103BD000598F882324F080E090E299838883DF91D5
:103BE000CF911F910F91FF90EF900895882777FD57
:103BF0008095982F0E94A98E20E030E44EE455E491
:103C00000E945D8F20E030EC4FE754E40E94138E59
:103C10002AE939E949E15FE30E94138E20E030E0B0
:103C200048E454E40E94AA8D20E030E048EF51E4DB
:103C30000E94138E0895882777FD8095982F0E9403
:103C4000A98E20E030E44EE455E40E945D8F20E030
:103C500030EC4FE754E40E94138E20E030E04AEF4E
:103C600053E40E94AA8D20E030E040E251E40E943B
:103C7000138E0895AF92BF92CF92DF92EF92FF9290
:103C80000F931F93CF93DF930E9481025B016C011E
:103C9000EE24FF24C0E0D0E00EC089E00E945C0466
:103CA0008C0121E0E216F10419F4009709F4219641
:103CB0000E94810278010E9481026A197B098C09A5
:103CC0009D09695B7B408040904038F364E670E07A
:103CD00080E090E00E949902CE01DF91CF911F9188
:103CE0000F91FF90EF90DF90CF90BF90AF9008952D
:103CF000AF92BF92CF92DF92EF92FF920F931F93FA
:103D0000CF93DF930E9481025B016C01EE24FF24BC
:103D1000C0E0D0E00EC088E00E945C048C0121E08D
:103D2000E216F10419F4009709F421960E94810229
:103D300078010E9481026A197B098C099D09695BDF
:103D40007B408040904038F364E670E080E090E093
:103D50000E949902BE01882777FD8095982F0E94C6
:103D6000A98EDF91CF911F910F91FF90EF90DF907F
:103D7000CF90BF90AF900895BF92CF92DF92EF9215
:103D8000FF920F931F93CF93DF93162F8FE060E086
:103D90000E94F30381E160E00E94F30383E160E0AD
:103DA0000E94F3038AE060E00E941104143049F09D
:103DB000183051F0123019F4FFE0BF2E07C0BB24B9
:103DC00005C0E3E1BE2E02C071E1B72E0E94810260
:103DD0006B017C01C0E0D0E000E010E08B2D0E9480
:103DE0005C04219739F4009729F40F5F1F4FC0E05E
:103DF000D0E001C0EC0187E0003D18077CF30E9491
:103E000081026C197D098E099F090E94A78E9B0172
:103E1000AC0160E074E284EF99E40E94138EDF91BC
:103E2000CF911F910F91FF90EF90DF90CF90BF90B7
:103E30000895662309F051C04034510509F44AC081
:103E400041345105C8F442305105D1F14330510598
:103E500040F441155105B1F14130510509F08DC0D3
:103E600031C04830510561F14032510599F144307B
:103E7000510509F082C024C084E04030580751F158
:103E800084E04130580768F481E040305807E1F0A1
:103E900082E040305807C1F04038510509F06DC04C
:103EA00013C080E14030580749F080E240305807A5
:103EB00089F04050584009F060C00CC084E00BC04D
:103EC00082E009C08EE007C087E061E00E94110433
:103ED0008AE001C087E061E049C0613009F04DC06F
:103EE0004034510509F440C041345105B8F4423022
:103EF0005105B1F14330510538F44115510591F1A7
:103F000041305105D1F52EC04830510549F14032BC
:103F1000510551F14430510581F522C084E0403013
:103F2000580711F184E04130580760F481E04030D7
:103F30005807D1F082E040305807B1F040385105C1
:103F4000E1F412C080E14030580741F080E2403097
:103F5000580779F04050584081F406C084E005C00D
:103F600082E003C08EE001C087E060E00E9411049F
:103F7000089587E060E00E941104089582E360E004
:103F80000E94F30382E361E00E94110485E061E096
:103F90000E94F30384E061E00E94F30386E061E0A5
:103FA0000E94F30387E061E00E94F30389E060E090
:103FB0000E94F3038AE061E00E94F30388E060E07E
:103FC0000E94F30382E061E00E94F3038EE061E06F
:103FD0000E94F3038AE161E00E94F30388E161E05B
:103FE0000E94F3038FE060E00E94F30381E160E050
:103FF0000E94F30383E160E00E94F30385E060E048
:104000000E94110484E060E00E94110486E060E0F8
:104010000E94110487E060E00E9411048AE060E0E1
:104020000E94110482E060E00E9411048EE060E0D2
:104030000E9411048AE160E00E94110488E160E0BE
:104040000E941104089582E393E10E94BE1F089527
:104050004F925F927F928F929F92AF92BF92CF9238
:10406000DF92EF92FF920F931F93CF93DF932C0178
:10407000762E662319F403E0702E05C021E0621746
:1040800011F415E0712E86E061E00E94F30385E0F3
:1040900061E00E94F30386E061E00E94110485E084
:1040A00061E00E94110481E090E00E94E10286E05C
:1040B00060E00E94110485E060E00E94110481E04C
:1040C00090E00E94E10285E061E00E94110486E038
:1040D00061E00E94110481E090E00E94E10285E02D
:1040E00060E00E94110486E065E041E0272D0E9417
:1040F000D18B85E061E00E94110486E060E00E94BF
:10410000F3030E9481025B016C0186E00E945C0463
:10411000EC0104C00E9481025B016C01219709F04F
:10412000DBC00E948102750186016E197F09800B38
:10413000910B6A3071058105910508F0CDC086E0CC
:104140000E945C04EC010E9481026E157F058007CD
:10415000910720F7DFCF0E9481025B016C01CD2B1C
:1041600009F0C9C00E948102750186016E197F099C
:10417000800B910B6A3071058105910508F0BBC079
:1041800086E00E945C04EC010E9481026E157F05AE
:104190008007910720F7DFCF0130110509F0B6C085
:1041A0000E9481026C197D098E099F096059714036
:1041B0008040904008F0AAC086E00E945C048C0118
:1041C000EBCF85E061E00E941104CC0FDD1F86E09B
:1041D0000E945C04C80FD91F85E060E00E941104B2
:1041E0000F5F1F4F0830110561F70E94810286E0C2
:1041F0000E945C046C010E9481024B015C01CD288D
:1042000009F08DC00E948102740185016E197F0939
:10421000800B910B6A3071058105910508F07FC014
:1042200086E00E945C046C010E9481026E157F058D
:104230008007910720F7DFCF85E061E00E9411043D
:10424000CC0FDD1F86E00E945C04C80FD91F85E0FB
:1042500060E00E9411040F5F1F4F0830110561F7E5
:104260000E94810286E061E00E94F30386E061E043
:104270000E94110485E061E00E94110480E991E050
:104280000E94E10285E060E00E94110486E060E0A7
:104290000E94110483E07816A1F4BE01882777FDFF
:1042A0008095982F0E94A98E2AE037ED43E25CE3C7
:1042B0000E945D8F2DEC3CEC4EE152E40E94AA8DF1
:1042C00051C025E0721639F4C201BE0141E050E050
:1042D0000E94F11A47C046C00E94810285E060E05A
:1042E0000E9411040E9481025B016C0186E00E9421
:1042F0005C04EC0134CF0E94810286E00E945C04E1
:104300008C010E9481026B017C0146CF0E948102D8
:104310000E948102C0E0D0E000E010E052CF0E9495
:10432000810286E061E00E94F30386E060E00E9483
:10433000110481E090E00E94E10285E061E00E94CA
:10434000110480E991E00E94E10285E060E00E94B2
:10435000110486E060E00E94F3030E94810200E005
:1043600010E06ACFDF91CF911F910F91FF90EF90F6
:10437000DF90CF90BF90AF909F908F907F905F9095
:104380004F9008950F931F93DF93CF9300D0CDB735
:10439000DEB78091F717882321F487EF97E10E9419
:1043A000268119821A8264E670E080E090E00E9423
:1043B000990262E370E080E090E00E94990287EF4A
:1043C00097E164E170E042E050E00E9423818E01B9
:1043D0000F5F1F4F07C087EF97E10E94BF80F80172
:1043E00081938F0187EF97E10E94B980882399F725
:1043F0008091F717882371F08091FD12813051F080
:1044000089EE92E10E94D5138BEE92E160E141E0EA
:104410000E94A51A298130E040E050E0542F432F3C
:10442000322F22278A81280F311D411D511DCA01BB
:10443000B901E3E0660F771F881F991FEA95D1F74E
:10444000620F731F841F951F69507048844090400D
:104450000E94A98E20E03FEF4FE757E40E94138EA1
:104460000F900F90CF91DF911F910F9108956623C8
:1044700019F0613021F517C08AE161E00E94110452
:1044800088E161E00E9411048091FD12882331F4DB
:104490008BEE92E161E041E00E94A51A87E061E0C5
:1044A0000E94110408958AE160E00E94110488E1ED
:1044B00060E00E94110487E060E00E94110408950A
:1044C000EF92FF920F931F93DF93CF9300D00F9241
:1044D000CDB7DEB77C01DE011196E3E9F1E183E0BF
:1044E00001900D928150E1F78091F717882321F414
:1044F00087EF97E10E94268164E670E080E090E01B
:104500000E94990264E670E080E090E00E949902C7
:1045100064E670E080E090E00E94990287EF97E106
:1045200066E170E00E94AF8087EF97E160EA0E9449
:10453000DB8087EF97E165E570E00E94FF8087EF01
:1045400097E10E9402816CE271E080E090E00E94BD
:10455000990287EF97E166E170E043E050E00E9446
:1045600023818E010F5F1F4F07C087EF97E10E94E5
:10457000BF80F80181938F0187EF97E10E94B98096
:10458000882399F78091F717882371F08091FD12A5
:10459000813051F089EE92E10E94D5138BEE92E1C9
:1045A00060E141E00E94A51AC701BE016F5F7F4F25
:1045B00041E00E94731B0F900F900F90CF91DF91FD
:1045C0001F910F91FF90EF900895EF92FF920F933C
:1045D0001F93DF93CF9300D00F92CDB7DEB77C014E
:1045E000DE011196E6E9F1E183E001900D92815040
:1045F000E1F78091F717882321F487EF97E10E9474
:10460000268164E670E080E090E00E94990264E612
:1046100070E080E090E00E94990264E670E080E043
:1046200090E00E94990287EF97E166E170E00E94B6
:10463000AF8087EF97E161EA0E94DB8087EF97E127
:1046400065E570E00E94FF8087EF97E10E9402819C
:104650006CE271E080E090E00E94990287EF97E1C0
:1046600066E170E043E050E00E9423818E010F5F1D
:104670001F4F07C087EF97E10E94BF80F801819329
:104680008F0187EF97E10E94B980882399F7809185
:10469000F717882371F08091FD12813051F089EE77
:1046A00092E10E94D5138BEE92E160E141E00E941D
:1046B000A51AC701BE016F5F7F4F40E00E94731BC8
:1046C0000F900F900F90CF91DF911F910F91FF905E
:1046D000EF900895EF92FF920F931F93CF93DF9384
:1046E000EC016034710509F494C06134710508F57A
:1046F0006430710509F452C06530710568F46130A9
:10470000710509F461C06130710508F460C0623060
:10471000710509F0D0C03BC06031710509F49EC03D
:104720006032710509F472C06830710509F0C3C0C8
:104730003CC084E06030780709F480C084E06130D8
:10474000780778F481E06030780709F467C082E088
:104750006030780709F46AC06038710509F0ABC0B1
:104760005BC080E16030780751F080E2603078070C
:1047700009F489C06050784009F09DC063C083E0AF
:104780000E942489BC01CE010E94581C91C08AE07D
:1047900060E00E941104CE0162E00DC08AE060E09A
:1047A0000E941104CE0164E006C08AE060E00E942D
:1047B0001104CE0168E00E94BC1E7B018C018AE0DE
:1047C00061E00E9411047BC00E94781E71C085E0E8
:1047D0000E942489A0E0B0E0BC01CD010E94A78E18
:1047E00023E333E343E550E40E945D8F20E030ECA7
:1047F0004FE754E40E94138E9B01AC017B018A01B8
:10480000CE01A901B8010E94891C59C00E94E5226D
:104810004FC00E9460224CC086E036C084E00E94F7
:104820002489BC01CE010E941B1E42C082E00E946E
:104830002489BC01CE010E94F61D3AC0CE010E941F
:10484000C22136C0442319F4CE0160E004C04130D7
:1048500091F5CE0161E00E9428202AC00E943A1EF4
:10486000A0E0B0E0BC01CD010E94A78E24E83DE0AD
:104870004FE85EE30E945D8F20E030E040EA51E4C3
:104880000E945D8F15C087E00E942489A0E0B0E0FF
:10489000BC01CD010E94A78E23E333E343E550E43E
:1048A0000E945D8F20E030EC4FE754E40E94138EAD
:1048B0007B018C0104C0EE24FF2400E010E0B7016E
:1048C000C801DF91CF911F910F91FF90EF90089554
:1048D00040E00E946A230895882777FD8095982FED
:1048E0000E94A98E20E030E44EE455E40E945D8FE2
:1048F00020E030EC4FE754E40E94138E2AE939E9B6
:1049000049E15FE30E94138E20E030E042E053E48F
:104910000E94AA8D20E030E44CE955E40E94138EF9
:104920002CE53FE842EC5DE30E94AB8D20EE3DE2DA
:1049300040E15CE30E94138E0895882777FD8095FF
:10494000982F0E94A98E20E030E44EE455E40E94A6
:104950005D8F20E030EC4FE754E40E94138E20E09E
:1049600030E04AEF53E40E94AA8D20E030E040E2BC
:1049700051E40E94138E0895882777FD8095982F23
:104980000E94A98E20E030E44EE455E40E945D8F41
:1049900020E030EC4FE754E40E94138E2AE939E915
:1049A00049E15FE30E94138E20E030E048E454E4E4
:1049B0000E94AA8D20E030E048EF51E40E94138E5F
:1049C0000895CF93DF93EC01662309F042C0403194
:1049D000510509F468C04131510560F44430510576
:1049E000F9F04830510509F45AC04230510509F038
:1049F00073C014C040345105A9F04134510528F466
:104A00004032510509F068C04CC082E04030580780
:104A1000D1F04050504109F05FC00AC085E044C069
:104A200088E042C082E061E00E94110484E03CC062
:104A300086E061E00E94110482E061E00E941104BE
:104A400081E088834AC08AE061E00E94110487E027
:104A50002BC0613011F080E040C04032510519F1A7
:104A60004132510550F444305105C9F040315105EF
:104A7000C1F04230510581F50CC082E0403058074A
:104A800029F180E140305807B9F04034510521F553
:104A90000DC085E060E00E94110481E01EC088E046
:104AA000F9CF89E0F7CF89E061E0F5CF82E060E0FF
:104AB0000E94110484E0EECF86E060E00E941104C1
:104AC00082E060E00E9411041882E7CF8AE060E093
:104AD0000E94110487E0DECF8FEFDF91CF91089520
:104AE000EF92FF920F931F93CF93DF937C0181E0AE
:104AF0006030780709F458C0E1E061307E0720F4A7
:104B00006038710551F40CC0F4E060307F0709F49F
:104B100093C06050784009F4BCC0CFEFDFEFEBC02A
:104B200084E061E00E9411046EE070E080E090E0BB
:104B30000E94990284E060E00E94110464EC73E03A
:104B400080E090E00E94990286E060E00E941104FB
:104B50006AE070E080E090E00E94990282E061E00B
:104B60000E94110463E070E080E090E00E949902EE
:104B700087E00E942489EC0162E070E080E090E030
:104B80000E94990282E060E00E94110468E070E0F7
:104B900080E090E00E949902F7018081882309F467
:104BA000AAC086E061E072C086E060E00E94110465
:104BB00064E070E080E090E00E94990284E061E0AF
:104BC0000E94110462E070E080E090E00E9499028F
:104BD00082E061E00E94110465E070E080E090E016
:104BE0000E94990287E00E942489182F092F82E0F1
:104BF00060E00E94110467E070E080E090E00E94B5
:104C0000990284E060E00E94110462E070E080E0BC
:104C100090E00E949902F7018081882321F086E0CC
:104C200061E00E941104812F902F9C01E90166EE42
:104C300070E080E090E05DC087E061E00E941104D8
:104C40006EE070E080E090E00E94990287E060E012
:104C50000E94110464ED73E080E090E00E949902EC
:104C60008AE061E00E94110463E070E080E090E07F
:104C70000E94990286E00E942489EC0162E070E0C3
:104C800080E090E00E9499028AE060E00E941104B6
:104C900032C087E061E00E94110462E070E080E0D1
:104CA00090E00E9499028AE061E00E94110464E0B1
:104CB00070E080E090E00E94990286E00E942489E2
:104CC000EC0161E070E080E090E00E9499028AE0EF
:104CD00060E00E94110467E070E080E090E00E94D4
:104CE000990287E060E00E9411046CEE70E080E0C1
:104CF00090E00E949902CE01DF91CF911F910F9118
:104D0000FF90EF9008950F931F93CF93DF93EC01E3
:104D10006032710509F460C061327105D0F462300F
:104D2000710509F44FC06330710538F461157105E0
:104D3000C9F16130710589F53DC06830710509F42C
:104D400049C06031710509F447C06430710529F527
:104D500041C082E06030780709F46BC082E06130C6
:104D6000780768F46038710509F45BC081E0603051
:104D7000780709F45AC06034710579F42FC088E0CF
:104D80006030780709F45DC080E16030780709F48D
:104D900046C06050744009F450C060E070E080E8A4
:104DA0009FEB68C081E00E942489BC01CE010E9473
:104DB0009D2460C084E00E942489BC01CE010E9431
:104DC000BC2458C085E00E942489BC01CE010E9409
:104DD0006C2450C083E02EC082E02CC086E060E0EE
:104DE0000E9411046AE070E080E090E00E94990265
:104DF00087E00E9424898C016AE070E080E090E006
:104E00000E9499028881882321F086E061E00E9457
:104E10001104B801882777FD8095982F1DC087E081
:104E200009C0CE0160E870E00FC0CE0160E071E023
:104E30000BC086E00E94248909C0CE0160E074E0C6
:104E400003C0CE0160E078E00E947025AA2797FD9C
:104E5000A095BA2FBC01CD010E94A98E23E333E3B4
:104E600043E550E40E945D8F20E030EC4FE754E4CE
:104E70000E94138EDF91CF911F910F9108950F9390
:104E80001F93162F042F8091F717882321F487EFA3
:104E900097E10E94268164E670E080E090E00E9445
:104EA000990287EF97E1612F0E94A58087EF97E134
:104EB00060E170E00E94FF80802F90E0019796955E
:104EC000982F8827979587956CE97FEF0E94FF8F31
:104ED000605887EF97E10E94DB8087EF97E10E949F
:104EE00002818091F717882371F08091FD12813043
:104EF00051F089EE92E10E94D5138BEE92E160E1D0
:104F000041E00E94A51A1F910F910895613049F068
:104F1000613028F0623039F0643061F408C068E232
:104F200003C06CE201C06EE20E943F2708956AE26E
:104F30000E943F270895DF92EF92FF920F931F93F5
:104F4000D62E79018A018091F717882321F487EF03
:104F500097E10E94268164E670E080E090E00E9484
:104F6000990287EF97E16D2D0E94A58087EF97E169
:104F700060E070E00E94FF80C801B70120E030E0EF
:104F800040E053E40E945D8F20E030E048EC52E4C2
:104F90000E94138E9B01AC0160E070E080E093E41E
:104FA0000E94AA8D0E947B8E9B01AC0187EF97E146
:104FB000622F0E94DB8087EF97E10E94028180913F
:104FC000F717882371F08091FD12813051F089EE3E
:104FD00092E10E94D5138BEE92E160E141E00E94E4
:104FE000A51A1F910F91FF90EF90DF900895603107
:104FF00031F0603241F0683049F46CE201C06EE299
:105000000E949B2708956AE20E949B270895BF9201
:10501000CF92DF92EF92FF920F931F93CF93DF9384
:105020006C01EB01B42E78018901C801B70120E0C1
:1050300030E048EC52E40E94598F181614F480E0D6
:1050400058C085E68B1510F48EEF53C0C038D105DB
:10505000D9F1C138D10598F4C031D10561F1C13120
:10506000D10530F4C430D10519F12897F9F420C0E6
:10507000C032D10501F1C034D105C1F425C084E0AE
:10508000C030D80751F184E0C130D80740F481E046
:10509000C030D807C9F0C050D24041F41EC088E0EB
:1050A000C030D807D1F0C050D04171F08FEF21C08F
:1050B000C60160E01AC0C60168E0A80197010E941D
:1050C000F727C60161E011C0C60160E1A8019701A0
:1050D0000E94F727C60162E008C0C60160E2A8018D
:1050E00097010E94F727C60164E04B2D0E94862796
:1050F00081E0DF91CF911F910F91FF90EF90DF90B2
:10510000CF90BF9008950F931F936430710529F0DD
:105110006830710511F08FEF07C000E010E020E06B
:1051200030E00E94072881E01F910F9108956623C7
:1051300021F06130B1F080E008958AE161E00E94E1
:10514000110488E161E00E9411048091FD1288231E
:1051500031F48BEE92E161E041E00E94A51A81E01A
:1051600008958AE160E00E94110488E160E00E94F5
:10517000110481E0089561E00E949728089560E09D
:105180000E949728089584E061E00E94F30386E07E
:1051900061E00E94F30387E061E00E94F30388E08E
:1051A00061E00E94F30389E061E00E94F3038AE07A
:1051B00061E00E94F30382E061E00E94F3038AE170
:1051C00061E00E94F30388E161E00E94F30384E060
:1051D00060E00E94110486E060E00E94110487E014
:1051E00060E00E94110488E060E00E94110489E000
:1051F00060E00E9411048AE060E00E94110482E0F5
:1052000060E00E9411048AE160E00E94110488E1DC
:1052100060E00E941104089584E393E10E94C32892
:1052200008951092351308950F93FC01CB01BA0134
:105230002AE030E040E050E000810E945B8A0F915C
:105240000895AB0160E070E00E94142908950F9367
:105250001F938C018DE0F80160810E94348A8AE0FE
:10526000F80160810E94348A1F910F910895EF9296
:10527000FF920F931F93CF93DF93EC017A018B0181
:1052800077FF0CC08DE268810E94348A10950095EA
:10529000F094E094E11CF11C011D111DC801B7013F
:1052A0002AE030E040E050E008810E945B8ADF9114
:1052B000CF911F910F91FF90EF900895AB0166275A
:1052C00057FD6095762F0E94372908950F931F93FD
:1052D0008C01AB01662757FD6095762F0E94372918
:1052E000C8010E9427291F910F910895FC01CB014D
:1052F00060810E94458A08950F931F938C01CB0112
:10530000F80160810E94458AC8010E9427291F91E7
:105310000F910895FC0160E076E980E090E0408123
:105320000E94558B0895FB0120E030E002C02F5F02
:105330003F4F81918823D9F7C90108950F931F9397
:10534000CF93DF938B01BA01DA0140E050E0C22F26
:10535000D0E019C0F801E40FF51F8081982F9295D5
:105360009F708F709A3010F4905D01C0995C9C938F
:105370008A3010F4805D01C0895C11968C9311977E
:105380004F5F5F4F12964C175D0724F3CC0FDD1F64
:10539000C60FD71F1882DF91CF911F910F910895EB
:1053A00028E00E949E2908958F929F92AF92BF920B
:1053B000CF92DF92EF92FF920F931F93CF93DF93E1
:1053C000992401C09394FB01E90DF11D8081805364
:1053D0008A30C0F35B01EE24FF24870120C02AE05D
:1053E00030E040E050E00E94C08F0894C11CD11C06
:1053F000CC16DD06A4F3282D332727FD3095205346
:105400003040442737FD4095542F0E94C08FE60E50
:10541000F71E081F191F9A940894A11CB11CF501CE
:105420008080882D80538A3050F461E070E080E005
:1054300090E0CC24DD24C92DD0E02197D9CFB7014D
:10544000C801DF91CF911F910F91FF90EF90DF90F6
:10545000CF90BF90AF909F908F900895FB01908167
:10546000892F80538A3038F4292F332727FD309530
:10547000205330400DC0892F8154863018F020E031
:1054800030E007C0292F332727FD309527533040C0
:1054900031966081862F80538A3030F4772767FDFC
:1054A0007095605370400CC0862F8154863018F080
:1054B00060E070E005C0772767FD70956753704026
:1054C000A4E0220F331FAA95E1F7862F820F0895DB
:1054D0006833A1F1693380F4643341F1653338F402
:1054E000623301F1633300F56133D1F417C06633E1
:1054F00009F1673308F51CC0633441F1643438F4B2
:10550000613401F1623400F5693351F419C0653436
:1055100009F16534E8F0663419F41EC081E01DC05D
:1055200080E01BC082E019C083E017C084E015C092
:1055300085E013C086E011C087E00FC088E00DC091
:1055400089E00BC08AE009C08BE007C08CE005C091
:105550008DE003C08EE001C08FE04733A1F14833F6
:1055600080F4433341F1443338F44133F1F04233B2
:1055700000F54033E1F51BC0453309F1463308F52A
:105580001CC0423441F1433438F4493301F149330A
:10559000E0F0413461F51DC0443409F14434E8F0D1
:1055A0004534F9F04634F9F0089591E01DC090E0DB
:1055B0001BC092E019C093E017C094E015C095E0BD
:1055C00013C096E011C097E00FC098E00DC099E0BD
:1055D0000BC09AE009C09BE007C09CE005C09DE0BD
:1055E00003C09EE001C09FE08295807F890F0895EF
:1055F0000895CB01642F0E9497960895CB010E94D5
:105600008F9608958FE261E00E94F30384E261E0E7
:105610000E94F30385E261E00E94F3038FE261E000
:105620000E94110484E261E00E94110485E261E0BD
:105630000E94110408950F931F93162F042F8FE2D9
:1056400061E00E94F30384E261E00E94F30385E2DB
:1056500061E00E94F3038FE261E00E94110484E2A2
:10566000612F0E94110485E2602F0E9411041F9196
:105670000F91089510927614109278140895EF9275
:10568000FF920F931F93CF93DF93EC017A018B016D
:1056900077FF0CC08DE268810E94348A10950095D6
:1056A000F094E094E11CF11C011D111DC801B7012B
:1056B0002AE030E040E050E008810E945B8ADF9100
:1056C000CF911F910F91FF90EF9008950F931F932B
:1056D000FC01DA018B012115310529F4842F608149
:1056E0000E94348A16C02A30310519F40E943F2BDB
:1056F00010C02031310529F4842F60810E94FD8A79
:1057000008C030E040E050E0BD01C80100810E94C7
:105710005B8A1F910F910895FC0180810E949E89F0
:105720000895FC0180810E9463890895FC018081B5
:105730000E943F890895FC016183613019F0633054
:10574000B9F518C08081882311F486E111C086E381
:1057500093E10E94022B86E061E00E94F30386E061
:1057600061E00E9411048AE261E00E94F3038AE290
:1057700061E005C08081882329F486E160E00E9411
:105780001104089586E393E160E040E00E941B2B42
:1057900086E061E00E94F30386E060E00E9411046D
:1057A0008AE261E00E94F3038AE260E00E94110451
:1057B0000895FC0180810E94378B0895FC01262FFB
:1057C000608360E070E0CB01BA01422F0E94558BEC
:1057D00086E161E00E94F30308950F931F93CF9336
:1057E000DF93DC018B01EC01C658DD4F1982188272
:1057F00040E0BE0106C04F5F2F5F3F4FFB0131838A
:105800002083FB0120813181F801E20FF31F8081A9
:10581000882389F7469583E090E09983888390E018
:10582000ED01C658DD4F50E00BC0FD01E20FF31F44
:10583000E857FD4F8081980F2F5F3F4F39832883B2
:10584000288139812417350780F3892F8095A40F8B
:10585000B51FA957BD4F8C93DF91CF911F910F9129
:105860000895AF92BF92CF92DF92EF92FF920F9383
:105870001F93CF93DF937C018B0106551F4FD801F7
:105880008C910A5A1040F801E855FF4F813009F019
:1058900024C1C22EDD24DA01AC0DBD1D83E28C9340
:1058A0008081813009F446C0813020F0823009F0D7
:1058B00038C2AAC011961C92119701571F4FF801C8
:1058C00081918F0112968C9312978081005910401C
:1058D00013968C931397F701E658FD4F11821082AF
:1058E000EF01FCE7CF2EF2E0DF2ECE0CDF1CB7017C
:1058F00062587D4FAD010FC0FA01E20FF31FA00FF8
:10590000B11FA20FB31F1C968C918483888199814B
:1059100001969983888328813981F601A081B1811C
:10592000FB018081918101968A1B9B0B2817390707
:1059300018F3F7C111968C93B70166587D4FDB01C0
:105940001D921C92EB0110C0FA01EA0FFB1FEC0D37
:10595000FD1DA00FB11FA557BF4F8C918283888179
:105960009981019699838883A881B981A430B10572
:1059700058F3FB0111821082E701C658DD4F10C0B9
:10598000FA01EA0FFB1FEC0DFD1DA00FB11FA95777
:10599000BF4F8C91868388819981019699838883F2
:1059A000A881B981A430B10558F319821882E701A2
:1059B000C658DD4FECE7AE2EE2E0BE2EAE0CBF1CAB
:1059C000970122583D4F11C0FA01E60FF71FEC0D69
:1059D000FD1DA00FB11FA60FB71F1C968C918287CB
:1059E0008881998101969983888368817981F501FD
:1059F000A081B181F9018081918101968A1B9B0B65
:105A00006817790708F38DC111968C93C0E0D0E038
:105A1000D701A658BD4F06C0E9016F5F7F4F1196B1
:105A20007C936E936D917C911197F801E60FF71FAF
:105A3000EF56FF4F80819E012F5F3F4F833261F70A
:105A40001D921C92E701C658DD4F10C0FA01EA0F03
:105A5000FB1FEC0DFD1DA00FB11FAF56BF4F8C916A
:105A6000828388819981019699838883A881B981ED
:105A7000A217B30758F319821882E701C658DD4F01
:105A80007CE7A72E72E0B72EAE0CBF1C8EE792E02B
:105A9000E80EF91E13C0FA01E60FF71FE20FF31F1D
:105AA000EC0DFD1DA00FB11FA60FB71F1C968C910A
:105AB000828388819981019699838883688179811D
:105AC000F501A081B181F7018081918101968A1B46
:105AD0009B0B68177907F8F224C18081813009F4A3
