:100000000C94C6000C9438020C9469020C949A0269
:100010000C94CB020C94FC020C942D030C945E0304
:100020000C948F030C94F0000C94F0000C94F000EE
:100030000C94BA080C94F0000C94F0000C94900707
:100040000C94F0000C94F0000C94F0000C94F00070
:100050000C94F0000C94F0000C94F0000C946B07DE
:100060000C94F0000C94E1110C94F0000C94F0004E
:100070000C94F0000C94F0000C94F0000C94F00040
:100080000C94F0000C94F0000C94F0000C94F00030
:100090000C9422120C94F0000C94F0000C9481103B
:1000A0000C94F0000C94F0000C94F0000C94F00010
:1000B0000C94F0000C94F0000C94F0000C94F00000
:1000C0000C94F0000C94F0000C94F0000021242714
:1000D0002A2D3033002225282B2E313400202326D0
:1000E000292C2F3205050505030303030101010433
:1000F00004030606060606060606010405010501B8
:1001000003020202020202010202050504040304C2
:1001100004010304070707010208101020408004AF
:1001200008102040020204081020408001028020B4
:100130004004200101020408102001408040800199
:1001400002080408800410040201000008090000ED
:10015000000000000000000000000000000000009F
:10016000000000000000000000000000000000008F
:100170000000000000000000000000000000D7099F
:10018000F60D730E7F0FCC1322145B1411241FBEC7
:10019000CFEFD1E2DEBFCDBF12E0A0E0B2E0E4E6F7
:1001A000FEE200E00BBF02C007900D92AC38B10731
:1001B000D9F717E0ACE8B2E001C01D92AD38B10745
:1001C000E1F711E0CCE8D1E004C02297FE010E94E3
:1001D0002C17CE37D107C9F70E949A010C9430171B
:1001E0000C940000EF920F9382E093E060E072E0E5
:1001F00040E022E00EE130E1E32E0E94240E82E096
:1002000093E00E946C0E84E093E00E94550F809171
:100210008C0290918D02A0918E02B0918F0296FF78
:100220001AC084E093E06CE072E00E94470F809176
:10023000950290919602A0919702B0919802019632
:10024000A11DB11D8093950290939602A0939702F1
:10025000B093980210C080918C0290918D02A09171
:100260008E02B0918F0284FF06C084E093E06DE2BD
:1002700072E00E94470F6091950270919602809102
:100280009702909198020E94A71524E83DE04FE85C
:100290005EE30E9457166093990270939A028093CE
:1002A0009B0290939C0284E093E066E472E00E94DB
:1002B000BA0E4091990250919A0260919B027091FE
:1002C0009C0284E093E00E94430F84E093E06DE59C
:1002D00072E00E94470F0E94C0030F91EF900895B3
:1002E0000F931F9304E013E0C8010E94550FC8014B
:1002F00060E672E00E94470F64E670E080E090E004
:100300000E94B50782E093E060E00E94FB0D64E686
:1003100070E080E090E00E94B5078BEB92E00E94D5
:100320008E0D64E670E080E090E00E94B5071F91BA
:100330000F9108950E94FD070E9470010E94F20033
:10034000FDCF883008F069C0E82FF0E0EE0FFF1F06
:10035000E655FD4F71836083833089F1843028F442
:100360008130A1F08230F0F409C08630E9F18730A5
:1003700009F447C0843009F050C02EC08091690054
:100380008C7F842B80936900E89A0895809169009E
:10039000440F551F440F551F837F842B80936900A2
:1003A000E99A08958091690064E0440F551F6A95A9
:1003B000E1F78F7C842B80936900EA9A08958091FD
:1003C000690036E0440F551F3A95E1F78F73842B8F
:1003D00080936900EB9A089580916A008C7F842B4A
:1003E00080936A00EC9A089580916A0024E0440F9B
:1003F000551F2A95E1F78F7C842B80936A00EE9A33
:10040000089580916A0096E0440F551F9A95E1F790
:100410008F73842B80936A00EF9A0895F894883044
:1004200028F58330A1F0843028F4813061F08230E7
:1004300060F407C0863079F0873079F0843071F449
:1004400008C0E8980BC0E99809C0EA9807C0EB9883
:1004500005C0EC9803C0EE9801C0EF98E82FF0E0DB
:10046000EE0FFF1FE655FD4F11821082789408951C
:100470001F920F920FB60F920BB60F9211242F936B
:100480003F934F935F936F937F938F939F93AF931C
:10049000BF93EF93FF938091AA029091AB02892BB7
:1004A00029F0E091AA02F091AB020995FF91EF913A
:1004B000BF91AF919F918F917F916F915F914F917C
:1004C0003F912F910F900BBE0F900FBE0F901F907A
:1004D00018951F920F920FB60F920BB60F92112420
:1004E0002F933F934F935F936F937F938F939F933C
:1004F000AF93BF93EF93FF938091AC029091AD02C5
:10050000892B29F0E091AC02F091AD020995FF91A1
:10051000EF91BF91AF919F918F917F916F915F917B
:100520004F913F912F910F900BBE0F900FBE0F90E8
:100530001F9018951F920F920FB60F920BB60F9245
:1005400011242F933F934F935F936F937F938F93D8
:100550009F93AF93BF93EF93FF938091AE029091DF
:10056000AF02892B29F0E091AE02F091AF0209951C
:10057000FF91EF91BF91AF919F918F917F916F917B
:100580005F914F913F912F910F900BBE0F900FBE37
:100590000F901F9018951F920F920FB60F920BB6E7
:1005A0000F9211242F933F934F935F936F937F93F9
:1005B0008F939F93AF93BF93EF93FF938091B0027C
:1005C0009091B102892B29F0E091B002F091B10233
:1005D0000995FF91EF91BF91AF919F918F917F917D
:1005E0006F915F914F913F912F910F900BBE0F90A4
:1005F0000FBE0F901F9018951F920F920FB60F927B
:100600000BB60F9211242F933F934F935F936F93E9
:100610007F938F939F93AF93BF93EF93FF938091BB
:10062000B2029091B302892B29F0E091B202F091CD
:10063000B3020995FF91EF91BF91AF919F918F9177
:100640007F916F915F914F913F912F910F900BBED2
:100650000F900FBE0F901F9018951F920F920FB61C
:100660000F920BB60F9211242F933F934F935F93EA
:100670006F937F938F939F93AF93BF93EF93FF936A
:100680008091B4029091B502892B29F0E091B402D7
:10069000F091B5020995FF91EF91BF91AF919F91B4
:1006A0008F917F916F915F914F913F912F910F901B
:1006B0000BBE0F900FBE0F901F9018951F920F92B8
:1006C0000FB60F920BB60F9211242F933F934F93B7
:1006D0005F936F937F938F939F93AF93BF93EF93AA
:1006E000FF938091B6029091B702892B29F0E09197
:1006F000B602F091B7020995FF91EF91BF91AF91CA
:100700009F918F917F916F915F914F913F912F9129
:100710000F900BBE0F900FBE0F901F9018951F9259
:100720000F920FB60F920BB60F9211242F933F9397
:100730004F935F936F937F938F939F93AF93BF93E9
:10074000EF93FF938091B8029091B902892B29F021
:10075000E091B802F091B9020995FF91EF91BF9134
:10076000AF919F918F917F916F915F914F913F9149
:100770002F910F900BBE0F900FBE0F901F901895EA
:1007800010928C0210928D0210928E0210928F02A3
:100790000895EF92FF920F931F937B018C01F894C1
:1007A000CB0181709070892B19F082E00E940E02BB
:1007B000E1FE03C083E00E940E02E2FE03C082E07D
:1007C0000E940E02E3FE03C083E00E940E02E4FEDC
:1007D00003C082E00E940E02F3FE03C082E00E948A
:1007E0000E02E5FE03C084E00E940E02F4FE03C088
:1007F00082E00E940E02F5FE03C082E00E940E021B
:10080000F6FE03C083E00E940E0280919002909158
:100810009102A0919202B0919302E094F09400951D
:1008200010958E219F21A023B12380939002909355
:100830009102A0939202B093930278941F910F912A
:10084000FF90EF900895EF92FF920F931F937B011B
:100850008C018091900290919102A0919202B091AE
:1008600093028E299F29A02BB12B80939002909305
:100870009102A0939202B0939302C701817090708D
:10088000892B59F08BE260E00E94F10882E06AE077
:1008900076E041E050E00E94A101E1FE0BC08CE255
:1008A00060E00E94F10883E06CE075E040E050E019
:1008B0000E94A101E2FE0FC08BE260E00E94F108FD
:1008C00086E260E00E94F10882E06AE076E041E0C2
:1008D00050E00E94A101E3FE13C08CE260E00E94A0
:1008E000F10882E360E00E94F1088CE261E00E947E
:1008F0000F0983E06CE075E040E050E00E94A10148
:10090000E4FE0FC08BE260E00E94F10887E260E045
:100910000E94F10882E06AE076E041E050E00E9447
:10092000A101E5FE0FC083E061E00E94F10883E0D1
:1009300061E00E940F0984E06CE075E040E050E067
:100940000E94A101F3FE0FC08BE260E00E94F1085B
:100950008EE260E00E94F10882E06AE076E041E029
:1009600050E00E94A101F4FE0FC08BE260E00E9403
:10097000F10888E060E00E94F10882E06AE076E039
:1009800041E050E00E94A101F5FE17C08BE260E05B
:100990000E94F1088CE260E00E94F10887E060E0CC
:1009A0000E94F1088AE060E00E94F10882E06AE0BB
:1009B00076E041E050E00E94A101F6FE17C08BE214
:1009C00060E00E94F1088CE260E00E94F10887E09C
:1009D00060E00E94F1088AE060E00E94F10883E094
:1009E0006CE075E040E050E00E94A10100FF0FC004
:1009F00084E060E00E94F1088CE260E00E94F1086F
:100A000083E06CE075E040E050E00E94A1011F919E
:100A10000F91FF90EF900895F8948091900290913B
:100A20009102A0919202B091930283FF26C082E3CB
:100A30000E945A09892B09F5809194028F5F809357
:100A4000940280918C0290918D02A0918E02B091BF
:100A50008F02886080938C0290938D02A0938E0207
:100A6000B0938F028091A0028F5F8093A00268E014
:100A700070E080E090E00E94C90380919002909124
:100A80009102A0919202B0919302A0FF26C084E04F
:100A90000E945A09892B09F5809194028F5F8093F7
:100AA000940280918C0290918D02A0918E02B0915F
:100AB0008F02A16080938C0290938D02A0938E028E
:100AC000B0938F028091AB028F5F8093AB0260E0A6
:100AD00070E081E090E00E94C903809190029091C3
:100AE0009102A0919202B091930285FF24C083E00D
:100AF0000E945A09892BF9F4809194028F5F8093A8
:100B0000940280918C0290918D02A0918E02B091FE
:100B10008F02806280938C0290938D02A0938E024C
:100B2000B0938F028091A2028F5F8093A20283E034
:100B300061E00E940F098091900290919102A09132
:100B40009202B091930281FF20C089E20E945A096B
:100B5000892BD9F4809194028F5F809394028091C5
:100B60008C0290918D02A0918E02B0918F028260D2
:100B700080938C0290938D02A0938E02B0938F028B
:100B800080919E028F5F80939E028091900290914F
:100B90009102A0919202B091930296FF39C0809188
:100BA000900290919102A0919202B091930283FFE2
:100BB00005C082E30E945A09892B51F58091900269
:100BC00090919102A0919202B091930285FF05C08D
:100BD00083E00E945A09892BD9F4809194028F5F97
:100BE0008093940280918C0290918D02A0918E024C
:100BF000B0918F02906480938C0290938D02A093A9
:100C00008E02B0938F028091AA028F5F8093AA0216
:100C100078940895F8948091900290919102A09117
:100C20009202B091930282FF20C086E20E945A098C
:100C3000892BD9F0809194028F5F809394028091E8
:100C40008C0290918D02A0918E02B0918F028460EF
:100C500080938C0290938D02A0938E02B0938F02AA
:100C600080919F028F5F80939F028091900290916C
:100C70009102A0919202B091930284FF20C087E27A
:100C80000E945A09892BD9F0809194028F5F80933A
:100C9000940280918C0290918D02A0918E02B0916D
:100CA0008F02806180938C0290938D02A0938E02BC
:100CB000B0938F028091A1028F5F8093A1028091F7
:100CC000900290919102A0919202B091930293FFB1
:100CD00020C08EE20E945A09892BD9F0809194029B
:100CE0008F5F8093940280918C0290918D02A091ED
:100CF0008E02B0918F02986080938C0290938D0247
:100D0000A0938E02B0938F028091A8028F5F809390
:100D1000A8028091900290919102A0919202B091CC
:100D2000930281709070892B51F180919002909183
:100D30009102A0919202B091930296FD20C089E2A7
:100D40000E945A09892BD9F0809194028F5F809379
:100D5000940280918C0290918D02A0918E02B091AC
:100D60008F02816080938C0290938D02A0938E02FB
:100D7000B0938F0280919D028F5F80939D0280913E
:100D8000900290919102A0919202B091930294FFEF
:100D900024C088E00E945A09892BF9F080919402BE
:100DA0008F5F8093940285E060E00E940F0980913C
:100DB0008C0290918D02A0918E02B0918F02906171
:100DC00080938C0290938D02A0938E02B0938F0239
:100DD0008091A9028F5F8093A902809190029091E7
:100DE0009102A0919202B091930295FF20C088E0F9
:100DF0000E945A09892BD9F0809194028F5F8093C9
:100E0000940280918C0290918D02A0918E02B091FB
:100E10008F02906280938C0290938D02A0938E0239
:100E2000B0938F028091AA028F5F8093AA02809173
:100E3000900290919102A0919202B091930296FF3C
:100E400048C08091900290919102A0919202B0913D
:100E5000930282FF05C086E20E945A09892BC9F5D8
:100E60008091900290919102A0919202B091930290
:100E700084FF05C087E20E945A09892B51F58091B1
:100E8000900290919102A0919202B091930293FFEF
:100E900005C08EE20E945A09892BD9F480919402F0
:100EA0008F5F8093940280918C0290918D02A0912B
:100EB0008E02B0918F02906480938C0290938D0289
:100EC000A0938E02B0938F028091AA028F5F8093CD
:100ED000AA02789408951F920F920FB60F921124D0
:100EE0008F939F93AF93BF938091050590910605D3
:100EF000A0910705B09108050196A11DB11D809331
:100F0000050590930605A0930705B0930805BF91CA
:100F1000AF919F918F910F900FBE0F901F901895DA
:100F20001F920F920FB60F9211248F939F93AF933E
:100F3000BF938091090590910A05A0910B05B0918E
:100F40000C050196A11DB11D8093090590930A051A
:100F5000A0930B05B0930C05BF91AF919F918F911A
:100F60000F900FBE0F901F901895AF92BF92CF9227
:100F7000DF92EF92FF920F931F935B016C016091E0
:100F8000050570910605809107059091080547E0D9
:100F9000660F771F881F991F4A95D1F72EE330E01F
:100FA00040E050E00E94D91679018A016091050560
:100FB00070910605809107059091080537E0660F4E
:100FC000771F881F991F3A95D1F72EE330E040E054
:100FD00050E00E94D9162E193F09400B510B2A15DB
:100FE0003B054C055D0510F31F910F91FF90EF90AD
:100FF000DF90CF90BF90AF900895789484B7877FAB
:1010000084BF1092050510920605109207051092F4
:10101000080584B5826084BD84B5816084BD85B5D2
:10102000826085BD85B5816085BDEEE6F0E080819A
:1010300081608083E1E8F0E080818260808380814C
:1010400081608083E0E8F0E0808181608083E1EB73
:10105000F0E0808184608083E1E9F0E08081846059
:101060008083E0EBF0E0808181608083E0E9F0E064
:10107000808181608083E4E6F0E080818E7F8083E0
:10108000ECE7F0E080818F778083808180648083CB
:10109000EAE7F0E0808184608083808182608083E1
:1010A0008081806880831092C1001092C9000895E9
:1010B0009091BA02982B9093BA0280FF32C080912F
:1010C00064008E7F8093640080917C008F77809392
:1010D0007C0080917C00806480937C0080917A0009
:1010E000846080937A0080917A00826080937A0095
:1010F00080917A00806880937A00809164008F7775
:1011000080936400809164008B7F80936400809161
:1011100064008D7F80936400809165008E7F809352
:1011200065000895282F20959091BA0292239093FC
:10113000BA0280FF1EC080917A008F7780937A0078
:101140008091640081608093640080916400806875
:101150008093640080916400846080936400809137
:101160006400826080936400809165008160809358
:10117000650008951F920F920FB60F920BB60F9253
:1011800011242F933F934F935F936F937F938F938C
:101190009F93AF93BF93EF93FF93F89481E0809375
:1011A0008B02E0E6F0E080818068808380818F7B25
:1011B000808383E060E00E940F097894FF91EF91B3
:1011C000BF91AF919F918F917F916F915F914F915F
:1011D0003F912F910F900BBE0F900FBE0F901F905D
:1011E0001895282F30E0C901895E9E4FFC0194912B
:1011F0002C513F4FF9018491882381F0E82FF0E0D2
:10120000E453FF4FE491F0E0662329F48081909548
:101210008923808308958081892B80830895482FB6
:1012200050E0CA01865B9E4FFC012491CA01895E91
:101230009E4FFC0194914C515F4FFA01349133233E
:10124000C1F1222331F1233021F4809180008F7786
:1012500005C0243031F4809180008F7D8093800020
:1012600018C0213019F484B58F7704C0223021F4DE
:1012700084B58F7D84BD0DC0263021F48091B000EF
:101280008F7705C0273029F48091B0008F7D80933F
:10129000B000E32FF0E0EC52FF4FE491F0E0662362
:1012A00029F4808190958923808308958081892BFA
:1012B00080830895482F50E0CA01865B9E4FFC0151
:1012C0002491CA01895E9E4FFC0194914C515F4F5D
:1012D000FA013491332319F420E030E035C02223A1
:1012E00031F1233021F4809180008F7705C02430C4
:1012F00031F4809180008F7D8093800018C0213070
:1013000019F484B58F7704C0223021F484B58F7D21
:1013100084BD0DC0263021F48091B0008F7705C0C8
:10132000273029F48091B0008F7D8093B000E32FA7
:10133000F0E0E452FF4FE491F0E0808120E030E003
:10134000892311F021E030E0C90108950895FC01DE
:10135000138A148A158A168A178A108E118E128E95
:10136000138E148E158E168E178E10A211A212A235
:1013700080E090E0A0E0B0E083A394A3A5A3B6A38F
:101380000895262F862F6AE00E94BA16492F30E072
:10139000C901841B91096AE070E00E94C616E4E06E
:1013A000660F771FEA95E1F7842F862B089508953D
:1013B000DF92EF92FF920F931F938C01D62EABE436
:1013C000EA2EA3E0FA2EC70168E670E00E945E0FE5
:1013D000C7016D2D0E94800F0D0D111DC701F80171
:1013E00060810E94800FC7010E94A70F1F910F917B
:1013F000FF90EF90DF9008958091CA028C7F8093D8
:10140000CA028BEB92E06FE00E94D80908950F9317
:101410001F938C0160E170E080E090E00E94C903BE
:10142000C8010E94FC091F910F9108951F93CF934B
:10143000DF93EC01142F613009F08CC08E858D7F15
:1014400085608E87CE016EE00E94D8098F858C7FE3
:101450008F87CE016FE00E94D809133009F452C083
:10146000143030F4113031F18F811230D8F50AC0C8
:10147000153009F454C0153008F44EC0163009F088
:10148000DDC0D2C08F778F83CE0167E00E94D8097C
:1014900088858F778887CE0168E00E94D809898582
:1014A0008F778987CE0169E00E94D8098A858F7776
:1014B00080644CC08F818F778F83CE0167E00E945C
:1014C000D80988858F778887CE0168E00E94D8097F
:1014D00089858F778987CE0169E00E94D8098A853E
:1014E0008F7334C08F778F83CE0167E00E94D80955
:1014F00088858F778887CE0168E00E94D809898522
:101500008F771DC08F818F778F83CE0167E00E9418
:10151000D80988858F770CC08F818F7702C08F8123
:1015200080688F83CE0167E00E94D8098885806833
:101530008887CE0168E00E94D809898580688987FC
:10154000CE0169E00E94D8098A8580688A87CE0129
:101550006AE067C0623009F071C08E858E7F866058
:101560008E87CE016EE00E94D8098F858C7F8F8791
:10157000CE016FE00E94D809123099F1133030F497
:10158000112361F0113009F059C01AC01430B1F1C3
:10159000143088F1153009F051C046C08B858F7723
:1015A0008B87CE016BE00E94D8098C858F778C8762
:1015B000CE016CE00E94D8098D858F7780642EC0A3
:1015C0008B858F778B87CE016BE00E94D8098C8545
:1015D0008F778C87CE016CE00E94D8098D858F7340
:1015E0001DC08B858F778B87CE016BE00E94D80959
:1015F0008C858F770CC08B858F7702C08B85806838
:101600008B87CE016BE00E94D8098C8580688C871F
:10161000CE016CE00E94D8098D8580688D87CE014F
:101620006DE00E94D8090AC08E85887F8E87CE0122
:101630006EE00E94D809CE010E94070A60E170E0C6
:1016400080E090E00E942304DF91CF911F910895E4
:10165000DF92EF92FF920F931F938C01ABE4EA2E7F
:10166000A3E0FA2EC70168E670E00E945E0FC70192
:1016700067E070E00E94A40FC801F801628D0E942B
:10168000C109FFE7DF2ED822F801D782C801638D98
:101690000E94C1098F77F8018087C801648D0E947C
:1016A000C1098F77F8018187C801658D0E94C10942
:1016B0008F73F8018287C7016D2D0E94800FC701CB
:1016C000F80160850E94800FC701F80161850E94C2
:1016D000800FC701F80162850E94800FC7010E9438
:1016E000A70F1F910F91FF90EF90DF900895CF9279
:1016F000DF92EF92FF921F93CF93DF937C01162F1F
:101700008BE493E068E670E00E945E0F8BE493E068
:1017100060E070E00E94A40F8BE493E00E94A70FAA
:101720008BE493E068E670E042E150E00E94C80F6D
:10173000C0E0D0E0C12EDD241AE009C18BE493E0C3
:101740000E94680F882309F402C18BE493E00E9491
:101750006E0F282FF701EC0FFD1F8083C630D105D7
:1017600009F482C0C730D105B8F4C230D10509F4FC
:101770004EC0C330D10538F4209769F1C130D1058E
:1017800009F0E4C036C0C430D10509F451C0C530F9
:10179000D10508F05BC049C0CA30D10509F49BC02F
:1017A000CB30D10558F4C830D10509F478C090E0A9
:1017B0002F70C930D10508F081C064C0CC30D1058C
:1017C00009F4A7C0CC30D10508F494C0CD30D105C0
:1017D00009F0BCC0ADC090E054E0959587955A954E
:1017E000E1F7819FC00111242F70280FF701208F8E
:1017F000ADC090E044E0959587954A95E1F7819FCB
:10180000C00111242F70280FF701278B9FC090E093
:1018100034E0959587953A95E1F7819FC0011124B1
:101820002F70280FF701268B91C0F701858B8EC092
:1018300090E0B4E095958795BA95E1F7819FC00156
:1018400011242F70280FF701218F80C090E0A4E0B1
:1018500095958795AA95E1F7819FC00111242F7076
:10186000280FF701248B72C090E0F4E095958795DE
:10187000FA95E1F7819FC00111242F70280FF7011D
:10188000238B64C0E4E095958795EA95E1F787702E
:10189000819FC0011124280FF701228F57C090E0CB
:1018A00074E0959587957A95E1F78770819FC001DF
:1018B00011242F70280FF701238F48C064E09595FD
:1018C00087956A95E1F78370819FC0011124280FE5
:1018D000F701248F3BC090E054E0959587955A9589
:1018E000E1F78370819FC00111242F70280FF70149
:1018F000258F2CC090E044E0959587954A95E1F7B7
:101900008770819FC00111242F70280FF701268F47
:101910001DC090E034E0959587953A95E1F7837086
:10192000819FC00111242F70280FF701278F0EC04F
:1019300090E0B4E095958795BA95E1F78370819F23
:10194000C00111242F70280FF70120A32196CC1677
:10195000DD0608F0F3CEDF91CF911F91FF90EF905D
:10196000DF90CF9008951F93CF93DF93EC01FB019D
:10197000122F21812053808180533AE0839FC00140
:101980001124280F2D8F2481205383818053839F1E
:10199000C0011124280F2C8F27812053868180536A
:1019A000839FC0011124280F2B8F2285205381850E
:1019B0008053839FC0011124280F2A8F442309F0EC
:1019C0005BC0CE0166E00E94770B988D8A8D980FE0
:1019D0009A8F9C3328F09C539A8F8B8D8F5F8B8FBF
:1019E0009F898B8D980F9B8F9C3328F09C539B8FE6
:1019F0008C8D8F5F8C8F9E898C8D980F9C8F9831EA
:101A000028F098519C8F8D8D8F5F8D8F2D8D112398
:101A100039F48D89820F8D8F883070F187502BC0FB
:101A2000998D920F9D8F8C89813051F0833041F0D8
:101A3000853031F0873021F0883011F08C3021F47E
:101A4000903210F09F519D8F8C89843041F0863008
:101A500031F0893021F08A3011F08B3029F48D8DEE
:101A60008F3110F08E518D8F8C89823029F48D8DBD
:101A70008D3110F08C518D8F8BEB92E00E94280BF2
:101A80008BEB92E061E0412F0E94160ADF91CF912B
:101A90001F9108950F931F93CF93DF93EC01042FB1
:101AA0006FA380E361E00E94F1081FA1113019F0DB
:101AB000103199F40DC080E361E00E940F090130FC
:101AC00019F482E08A8B09C0002339F41A8B05C00F
:101AD00080E360E00E940F091A8ADF91CF911F9185
:101AE0000F910895CF93DF93EC0161E040E00E94F5
:101AF0004A0D80914B03882321F48BE493E00E94EC
:101B0000CB0FCE010E94FC09CE010E94A709CE0195
:101B10006DE00E94770BDF91CF9108950E94720DC6
:101B2000089582E360E00E94F10882E361E00E9490
:101B30000F0985E061E00E94F10884E061E00E9405
:101B4000F10886E061E00E94F10887E061E00E9410
:101B5000F10889E060E00E94F1088AE061E00E94FB
:101B6000F10888E060E00E94F10882E061E00E94F4
:101B7000F1088EE061E00E94F1088AE161E00E94D4
:101B8000F10888E161E00E94F1088FE060E00E94C6
:101B9000F10881E160E00E94F10883E160E00E94C9
:101BA000F10885E060E00E940F0984E060E00E9497
:101BB0000F0986E060E00E940F0987E060E00E9464
:101BC0000F098AE060E00E940F0982E060E00E9455
:101BD0000F098EE060E00E940F098AE160E00E9438
:101BE0000F0988E160E00E940F09089582E093E008
:101BF0000E94910D0895662319F0613021F517C0F8
:101C00008AE161E00E940F0988E161E00E940F090A
:101C10008091CD02882331F48BEB92E061E041E0CA
:101C20000E944A0D87E061E00E940F0908958AE151
:101C300060E00E940F0988E160E00E940F0987E0E0
:101C400060E00E940F090895EF920F938BEB92E0F2
:101C50000E94B30C8BEB92E00E94A60984E060E046
:101C60000E940F0982E060E00E940F0987E060E0B7
:101C70000E940F098AE060E00E940F0986E060E0A0
:101C80000E940F098EE060E00E940F098FEB93E045
:101C9000602F0E94CD13E4FE06C061E070E480E096
:101CA00090E00E94230483B7817F846083BF83B761
:101CB000816083BF83B7816083BF889583B78E7F40
:101CC00083BF83B78E7F83BF8FEB93E0602F0E942B
:101CD000C6130F91EF90089561E070E480E090E00A
:101CE0000E94C90308951092040308950F93FC0104
:101CF000CB01BA012AE030E040E050E000810E94D0
:101D00008A120F9108950F931F938C018DE0F801B3
:101D100060810E9463128AE0F80160810E94631270
:101D20001F910F910895EF92FF920F931F93CF93FE
:101D3000DF93EC017A018B0177FF0CC08DE26881A3
:101D40000E94631210950095F094E094E11CF11C40
:101D5000011D111DC801B7012AE030E040E050E04C
:101D600008810E948A12DF91CF911F910F91FF90FD
:101D7000EF900895FC01CB0160810E9474120895D8
:101D80009F92AF92BF92CF92DF92EF92FF920F930A
:101D90001F93CF93DF93EC017A018B01922ECB013D
:101DA000BA0120E030E040E050E00E9408158823AE
:101DB00044F48DE268810E94631217FB109517F9B5
:101DC000109520E030E040E05FE3AA240BC0CA0198
:101DD000B90120E030E040E251E40E940C159B0183
:101DE000AC01A394A91498F3C801B7010E94A414EC
:101DF0005B016C010E9479157B018C01CE01B80159
:101E0000A7010E94760E992029F089E892E0688166
:101E10000E947412C801B7010E94A5159B01AC0174
:101E2000C601B5010E94A31420C020E030E040E2CA
:101E300051E40E9457167B018C010E9474155B01CE
:101E40006C01CC24B7FCC094DC2CCE01B601A501FA
:101E50000E94930EC601B5010E94A7159B01AC011B
:101E6000C801B7010E94A3149A949920F1F6DF915A
:101E7000CF911F910F91FF90EF90DF90CF90BF9087
:101E8000AF909F9008952AE00E94C00E08950F938E
:101E90001F938C01CB01F80160810E947412C8016C
:101EA0000E94830E1F910F910895FC0160E076E976
:101EB00080E090E040810E944A13089581E0809381
:101EC0004A03609327031092480310924903089530
:101ED0008091260390912503891B089590912503F5
:101EE00080912603981710F080E00895E92FF0E024
:101EF000EB5FFC4F80819F5F9093250308950895C9
:101F0000DF93CF930F92CDB7DEB7698380914A03F9
:101F1000882389F080914903803290F480914803AE
:101F2000E82FF0E0E85DFC4F60838F5F809348030B
:101F30008093490305C0CE01019661E00E946610BE
:101F40000F90CF91DF9108950E94800F08958091A6
:101F5000270368E273E04091490321E00E943810B2
:101F6000109248031092490310924A0308951F9358
:101F7000142F413208F010E2862F65E073E0412F04
:101F80000E940C1010922503109326031F910895B0
:101F90000E94B70F08950F931F938C011092250391
:101FA00010922503109226031092480310924803C2
:101FB000109249030E94E20F81E0F80180831F9193
:101FC0000F91089510924C03589A599A8091B90034
:101FD0008E7F8093B9008091B9008D7F8093B90086
:101FE00080E28093B80085E48093BC00E2E5F3E0F2
:101FF000119283E0E237F807D9F7E4E7F3E01192B2
:1020000083E0E439F807D9F7E6E9F3E0119283E0D9
:10201000E63BF807D9F70895982F413210F081E098
:10202000089580914C038823E1F781E080934C036D
:102030001092720340937303990F916090934D0334
:1020400085EE8093BC0080914C038130E1F320E069
:1020500030E00AC0FB01E20FF31FD901AE5ABC4FBA
:102060008C9180832F5F3F4F2417A0F380E0089569
:102070001F93582F122F413210F081E025C080911C
:102080004C038823E1F782E080934C0310927203A3
:1020900040937303A2E5B3E0FB0102C081918D93ED
:1020A0008E2F861B8417D0F3852F90E0880F991F01
:1020B00080934D0385EE8093BC00112321F0809125
:1020C0004C038230E1F380E01F910895482F613284
:1020D00010F081E0089580914C03843011F082E08B
:1020E000089560939503A4E7B3E0842F9C01F90160
:1020F00002C081918D938E2F841B8617D0F380E0D0
:1021000008951F920F920FB60F920BB60F921124E3
:102110002F933F934F935F936F937F938F939F93EF
:10212000AF93BF93EF93FF938091B90090E0887FC6
:1021300090708036910509F4CAC081369105CCF5BE
:102140008832910509F47BC089329105B4F480315D
:10215000910509F46FC0813191053CF4009709F4B1
:1021600014C1089709F01AC165C08831910509F4B6
:1021700066C0809709F012C17DC08034910509F4D2
:102180008DC08134910544F48033910509F472C007
:10219000C89709F003C1F5C08035910509F472C0F4
:1021A0008835910509F47FC08834910509F0F6C09F
:1021B00086C08839910509F4E0C089399105ECF4AD
:1021C0008837910509F483C0893791054CF4883626
:1021D000910509F47CC08037910509F0DFC077C014
:1021E0008838910509F4C9C08039910509F475C092
:1021F0008038910509F0D2C070C0803B910509F488
:1022000093C0813B91054CF4803A910509F477C065
:10221000883A910509F0C2C087C0803C910509F455
:10222000B0C0883C910509F4ACC0883B910509F029
:10223000B5C08FC080914D038093BB009CC090912E
:10224000720380917303981768F490917203E92FD9
:10225000F0E0EE5AFC4F80818093BB009F5F90932B
:10226000720389C085ED8093BC008091BC0084FD21
:10227000FCCF92C085ED8093BC008091BC0084FDB2
:10228000FCCF8AC0809172039091BB00E82FF0E0F0
:10229000EE5AFC4F90838F5F80937203909172038C
:1022A0008091730366C0809172039091BB00E82F08
:1022B000F0E0EE5AFC4F90838F5F8093720385EDC0
:1022C0008093BC008091BC0084FDFCCF65C083E09E
:1022D00080934C031092B6034EC08091B6038032B7
:1022E00008F04BC08091B6039091BB00E82FF0E05E
:1022F000EA56FC4F90838F5F8093B6033CC0809179
:10230000B603803230F4E091B603F0E0EA56FC4FB9
:1023100010826091B603E0915003F091510386E979
:1023200093E070E009952DC084E080934C031092F7
:10233000940310929503E0914E03F0914F03099599
:1023400080919503882329F481E08093950310926E
:10235000740390919403E92FF0E0EC58FC4F8081D6
:102360008093BB009F5F909394039091940380911E
:102370009503981710F485EC01C085E88093BC00A4
:102380000DC085EC8093BC0007C085ED8093BC0038
:102390008091BC0084FDFCCF10924C03FF91EF9123
:1023A000BF91AF919F918F917F916F915F914F916D
:1023B0003F912F910F900BBE0F900FBE0F901F906B
:1023C00018951F920F920FB60F920BB60F92112411
:1023D0002F933F934F935F936F937F938F939F932D
:1023E000AF93BF93EF93FF934091C600E091B70383
:1023F000F091B803CF01019660E072E00E94C6162A
:102400009C018091B9039091BA032817390739F0DC
:10241000E357FA4F40833093B8032093B703FF91FB
:10242000EF91BF91AF919F918F917F916F915F914C
:102430004F913F912F910F900BBE0F900FBE0F90B9
:102440001F9018951F920F920FB60F920BB60F9216
:1024500011242F933F934F935F936F937F938F93A9
:102460009F93AF93BF93EF93FF934091CE00E09182
:10247000BB03F091BC03CF01019660E870E00E94BD
:10248000C6169C018091BD039091BE0328173907A1
:1024900039F0E35FFA4F40833093BC032093BB03D2
:1024A000FF91EF91BF91AF919F918F917F916F912C
:1024B0005F914F913F912F910F900BBE0F900FBEE8
:1024C0000F901F901895982F662339F48091C000C3
:1024D00085FFFCCF9093C60008958091C80085FFCA
:1024E000FCCF9093CE000895FC0110C03196662376
:1024F00039F48091C00085FFFCCF9093C60006C0E0
:102500008091C80085FFFCCF9093CE0090819923E5
:1025100069F708952F923F924F925F926F927F9248
:102520008F929F92AF92BF92CF92DF92EF92FF92E3
:102530000F931F93DF93CF93CDB7DEB7A1970FB65D
:10254000F894DEBF0FBECDBF6B017C0129013A01BB
:1025500009A3611571058105910591F4002341F4EA
:102560008091C00085FFFCCF80E38093C6005BC0F4
:102570008091C80085FFFCCF80E38093CE0053C0DC
:102580008824992454011E010894211C311C8101C6
:10259000080D191DC701B601A30192010E94D916A9
:1025A000F80160830894811C911CA11CB11CC70117
:1025B000B601A30192010E94D916C901DA016C018A
:1025C0007D01C114D104E104F10409F79101280D42
:1025D000391DBE016F5F7F4FD501C4010197A1096D
:1025E000B109AC01481959091BC0FA01E20FF31FE8
:1025F000E081EA3010F4E05D01C0E95CF9A1FF235D
:1026000039F48091C00085FFFCCFE093C60006C07E
:102610008091C80085FFFCCFE093CE002150304070
:102620006217730711F7A1960FB6F894DEBF0FBEBD
:10263000CDBFCF91DF911F910F91FF90EF90DF9071
:10264000CF90BF90AF909F908F907F906F905F9052
:102650004F903F902F900895882371F488E00E9456
:1026600092088091C1008F7E8093C1008091C1004B
:10267000877F8093C100089580E10E949208809135
:10268000C9008F7E8093C9008091C900877F8093A5
:10269000C9000895EF92FF920F931F937B018C0165
:1026A0004423C1F588E00E945808C801B70122E020
:1026B00030E040E050E00E94FB16205E3E45484F6F
:1026C0005F4FCA01B901A80197010E94FB16C90119
:1026D000DA010197A109B109292F3A2F4B2F55276C
:1026E00047FD5A950196A11DB11D2093C50081504B
:1026F0008093C4008091C10080618093C10080916B
:10270000C10088608093C1008091C100806880937F
:10271000C10037C080E10E945808C801B70122E01B
:1027200030E040E050E00E94FB16205E3E45484FFE
:102730005F4FCA01B901A80197010E94FB16C901A8
:10274000DA010197A109B109292F3A2F4B2F5527FB
:1027500047FD5A950196A11DB11D2093CD008150D2
:102760008093CC008091C90080618093C9008091E2
:10277000C90088608093C9008091C90080688093F7
:10278000C9001F910F91FF90EF900895EAE7F0E0E4
:10279000808180688083089508951F93162F80910B
:1027A0007A008F7780937A0081E261E00E94F108DD
:1027B00081E260E00E940F098BE161E00E94F10874
:1027C0008BE160E00E940F0910FF10C08AE161E018
:1027D0000E94F1088AE160E00E940F0988E161E04F
:1027E0000E94F10888E160E00E940F0911FF09C012
:1027F00081E095E00E949E1481E095E063E00E94F4
:10280000601412FF13C081E00E942C138FE261E07C
:102810000E94F1088FE260E00E940F0983E261E00C
:102820000E94F10883E260E00E940F0913FF08C0D4
:1028300089E161E00E94F10889E160E00E940F09EE
:102840001F91089508958FE261E00E94F10884E2EB
:1028500061E00E94F10885E261E00E94F1088FE2E8
:1028600061E00E940F0984E261E00E940F0985E2A5
:1028700061E00E940F0908950F931F93162F042FF4
:102880008FE261E00E94F10884E261E00E94F108B9
:1028900085E261E00E94F1088FE261E00E940F0989
:1028A00084E2612F0E940F0985E2602F0E940F09C8
:1028B0001F910F910895109201051092030508953C
:1028C000FC016183613019F06330B9F518C0808173
:1028D000882311F486E111C081EC93E00E94231457
:1028E00086E061E00E94F10886E061E00E940F0945
:1028F0008AE261E00E94F1088AE261E005C080811D
:10290000882329F486E160E00E940F09089581EC94
:1029100093E060E040E00E943C1486E061E00E94A9
:10292000F10886E060E00E940F098AE261E00E94FF
:10293000F1088AE260E00E940F090895FC0180819D
:102940000E942C1308955058BB27AA270ED075C19A
:1029500066D130F06BD120F031F49F3F11F41EF4BA
:102960005BC10EF4E095E7FB51C1E92F77D180F30D
:10297000BA17620773078407950718F071F49EF57C
:102980008FC10EF4E0950B2EBA2FA02D0B01B901CB
:1029900090010C01CA01A0011124FF27591B99F0D5
:1029A000593F50F4503E68F11A16F040A22F232FE1
:1029B000342F4427585FF3CF469537952795A79531
:1029C000F0405395C9F77EF41F16BA0B620B730BD8
:1029D000840BBAF09150A1F0FF0FBB1F661F771F49
:1029E000881FC2F70EC0BA0F621F731F841F48F4FE
:1029F000879577956795B795F7959E3F08F0B3CF84
:102A00009395880F08F09927EE0F9795879508956D
:102A1000D9D008F481E008950CD00FC107D140F05F
:102A2000FED030F021F45F3F19F0F0C0511139C1F0
:102A3000F3C014D198F39923C9F35523B1F3951B2F
:102A4000550BBB27AA2762177307840738F09F5FCF
:102A50005F4F220F331F441FAA1FA9F333D00E2E3E
:102A60003AF0E0E830D091505040E695001CCAF7AB
:102A700029D0FE2F27D0660F771F881FBB1F261770
:102A800037074807AB07B0E809F0BB0B802DBF0143
:102A9000FF2793585F4F2AF09E3F510568F0B6C05C
:102AA00000C15F3FECF3983EDCF386957795679520
:102AB000B795F7959F5FC9F7880F911D96958795F4
:102AC00097F90895E1E0660F771F881FBB1F621713
:102AD00073078407BA0720F0621B730B840BBA0BD1
:102AE000EE1F88F7E095089504D06894B111D9C01D
:102AF0000895BCD088F09F5790F0B92F9927B7510F
:102B0000A0F0D1F0660F771F881F991F1AF0BA95B1
:102B1000C9F712C0B13081F0C3D0B1E00895C0C090
:102B2000672F782F8827B85F39F0B93FCCF38695A7
:102B300077956795B395D9F73EF490958095709504
:102B400061957F4F8F4F9F4F0895E89409C097FB81
:102B50003EF490958095709561957F4F8F4F9F4F74
:102B60009923A9F0F92F96E9BB279395F6958795B8
:102B700077956795B795F111F8CFFAF4BB0F11F47B
:102B800060FF1BC06F5F7F4F8F4F9F4F16C0882322
:102B900011F096E911C0772321F09EE8872F762F58
:102BA00005C0662371F096E8862F70E060E02AF099
:102BB0009A95660F771F881FDAF7880F9695879585
:102BC00097F90895990F0008550FAA0BE0E8FEEF5A
:102BD00016161706E807F907C0F012161306E407E1
:102BE000F50798F0621B730B840B950B39F40A26DA
:102BF00061F0232B242B252B21F408950A2609F4B8
:102C0000A140A6958FEF811D811D089597F99F67BB
:102C100080E870E060E008959FEF80EC0895002464
:102C20000A941616170618060906089500240A9431
:102C300012161306140605060895092E0394000CB7
:102C400011F4882352F0BB0F40F4BF2B11F460FF46
:102C500004C06F5F7F4F8F4F9F4F089557FD90586F
:102C6000440F551F59F05F3F71F04795880F97FB50
:102C7000991F61F09F3F79F087950895121613060A
:102C80001406551FF2CF4695F1DF08C01616170639
:102C90001806991FF1CF869571056105089408956E
:102CA000E894BB2766277727CB0197F908950BD0C7
:102CB000C4CFB5DF28F0BADF18F0952309F0A6CF0E
:102CC000ABCF1124EECFCADFA0F3959FD1F3950FC0
:102CD00050E0551F629FF001729FBB27F00DB11DA0
:102CE000639FAA27F00DB11DAA1F649F6627B00D30
:102CF000A11D661F829F2227B00DA11D621F739F19
:102D0000B00DA11D621F839FA00D611D221F749F26
:102D10003327A00D611D231F849F600D211D822F6D
:102D2000762F6A2F11249F5750408AF0E1F08823B4
:102D30004AF0EE0FFF1FBB1F661F771F881F9150C1
:102D40005040A9F79E3F510570F060CFAACF5F3F7A
:102D5000ECF3983EDCF3869577956795B795F795F4
:102D6000E7959F5FC1F7FE2B880F911D969587957C
:102D700097F90895991B79E004C0991F961708F0F8
:102D8000961B881F7A95C9F78095089597FB092EA1
:102D900007260AD077FD04D049D006D000201AF4C7
:102DA000709561957F4F0895F6F7909581959F4FA7
:102DB0000895A1E21A2EAA1BBB1BFD010DC0AA1F7C
:102DC000BB1FEE1FFF1FA217B307E407F50720F094
:102DD000A21BB30BE40BF50B661F771F881F991F0F
:102DE0001A9469F760957095809590959B01AC0158
:102DF000BD01CF01089597FB092E05260ED057FD82
:102E000004D0D7DF0AD0001C38F450954095309597
:102E100021953F4F4F4F5F4F0895F6F7909580955E
:102E2000709561957F4F8F4F9F4F0895AA1BBB1BD5
:102E300051E107C0AA1FBB1FA617B70710F0A61BBA
:102E4000B70B881F991F5A95A9F780959095BC01DB
:102E5000CD010895EE0FFF1F0590F491E02D099428
:042E6000F894FFCF14
:102E640030303A30303A30303A333000506C757686
:102E7400696F6D6574657220696E746572727570C0
:102E840074696F6E2061727269766564005254438E
:102E940020696E74657272757074696F6E206172E8
:102EA400726976656400416363756D756C61746500
:102EB40064207261696E66616C6C3A20006D6D000D
:102EC40075736220737461727465640A54657374F3
:102ED400207261696E20696E7465727275707420F7
:0C2EE40070726F6772616D0A002E0001B1
:00000001FF
