:100000000C94C9000C94980D0C94C90D0C94FA0D25
:100010000C942B0E0C945C0E0C948D0E0C94BE0E56
:100020000C94EF0E0C94F3000C94F3000C94F3007A
:100030000C94B7020C94F3000C94F3000C948D0113
:100040000C94F3000C94F3000C94F3000C94F30064
:100050000C94F3000C94F3000C94F3000C946801DE
:100060000C94F3000C94C2120C94F3000C94F30063
:100070000C94F3000C94F3000C94F3000C94F30034
:100080000C94F3000C94F3000C94F3000C94F30024
:100090000C9403130C94F3000C94F3000C94A10B38
:1000A0000C94F3000C94F3000C94F3000C94F30004
:1000B0000C94F3000C94F3000C94F3000C94F300F4
:1000C0000C94F3000C94F3000C94F300002124270B
:1000D0002A2D3033002225282B2E313400202326D0
:1000E000292C2F3205050505030303030101010433
:1000F00004030606060606060606010405010501B8
:1001000003020202020202010202050504040304C2
:1001100004010304070707010208101020408004AF
:1001200008102040020204081020408001028020B4
:100130004004200101020408102001408040800199
:1001400002080408800410040201000008090000ED
:10015000000000000000000000000000000000009F
:10016000000000000000000000000000000000008F
:100170000000000000000000000000000000A303D9
:100180008E0455088508D108D6086E0A0514431454
:10019000481411241FBECFEFD1E2DEBFCDBF13E064
:1001A000A0E0B2E0ECE5FFE200E00BBF02C0079088
:1001B0000D92AE3CB107D9F71DE0AEECB3E001C043
:1001C0001D92A732B107E1F711E0C2E9D1E004C006
:1001D0002297FE010E94BB14CE37D107C9F70E94B7
:1001E00061010C94AC170C9400000F931F9381E2F3
:1001F00094E060E072E00E946E0802E214E0C80140
:1002000068EE73E00E94A508C80168EE73E00E94E2
:10021000A5088091CE039091CF03A091D003B09117
:10022000D1039F778093CE039093CF03A093D00305
:10023000B093D1031F910F91089581E294E06DE195
:1002400072E00E946E088091CE039091CF03A0913E
:10025000D003B091D10380709078892B11F00E9467
:10026000F5006091BF037091C00386E695E00E949F
:10027000FB0881E294E060E372E00E94680881E29A
:1002800094E065E678E00E946E0888ED93E065E60C
:1002900078E040E021E00E94130408950F931F933B
:1002A00088ED93E00E94A40301E214E0C8010E94DB
:1002B0007C08C8016BE472E00E946E081F910F91E8
:1002C00008950E94FA010E944E010E941D01FDCF77
:1002D0001F920F920FB60F9211248F939F93AF939B
:1002E000BF9380919F0A9091A00AA091A10AB0911A
:1002F000A20A0196A11DB11D80939F0A9093A00AA6
:10030000A093A10AB093A20ABF91AF919F918F9140
:100310000F900FBE0F901F9018951F920F920FB65F
:100320000F9211248F939F93AF93BF938091A30A51
:100330009091A40AA091A50AB091A60A0196A11DC8
:10034000B11D8093A30A9093A40AA093A50AB09329
:10035000A60ABF91AF919F918F910F900FBE0F9002
:100360001F901895AF92BF92CF92DF92EF92FF92BB
:100370000F931F935B016C0160919F0A7091A00A1B
:100380008091A10A9091A20A47E0660F771F881F0B
:10039000991F4A95D1F72EE330E040E050E00E94EB
:1003A0007C1479018A0160919F0A7091A00A809162
:1003B000A10A9091A20A37E0660F771F881F991F44
:1003C0003A95D1F72EE330E040E050E00E947C14F3
:1003D0002E193F09400B510B2A153B054C055D05B5
:1003E00010F31F910F91FF90EF90DF90CF90BF908F
:1003F000AF900895789484B7877F84BF10929F0A46
:100400001092A00A1092A10A1092A20A84B58260EA
:1004100084BD84B5816084BD85B5826085BD85B5A8
:10042000816085BDEEE6F0E0808181608083E1E857
:10043000F0E0808182608083808181608083E0E859
:10044000F0E0808181608083E1EBF0E08081846076
:100450008083E1E9F0E0808184608083E0EBF0E07C
:10046000808181608083E0E9F0E080818160808329
:10047000E4E6F0E080818E7F8083ECE7F0E080812D
:100480008F778083808180648083EAE7F0E08081D9
:1004900084608083808182608083808180688083A3
:1004A0001092C1001092C90008959091D703982B23
:1004B0009093D70380FF32C0809164008E7F809339
:1004C000640080917C008F7780937C0080917C0019
:1004D000806480937C0080917A00846080937A00AD
:1004E00080917A00826080937A0080917A0080689F
:1004F00080937A00809164008F778093640080916C
:1005000064008B7F80936400809164008D7F809372
:100510006400809165008E7F809365000895282F88
:1005200020959091D70392239093D70380FF1EC00C
:1005300080917A008F7780937A0080916400816047
:10054000809364008091640080688093640080914F
:100550006400846080936400809164008260809372
:1005600064008091650081608093650008951F920A
:100570000F920FB60F920BB60F9211242F933F9349
:100580004F935F936F937F938F939F93AF93BF939B
:10059000EF93FF93F89481E08093C103E0E6F0E0ED
:1005A00080818068808380818F7B808383E060E0AE
:1005B0000E940C037894FF91EF91BF91AF919F91AE
:1005C0008F917F916F915F914F913F912F910F90FC
:1005D0000BBE0F900FBE0F901F901895282F30E084
:1005E000C901895E9E4FFC0194912C513F4FF90146
:1005F0008491882381F0E82FF0E0E453FF4FE491E9
:10060000F0E0662329F48081909589238083089502
:100610008081892B80830895482F50E0CA01865B32
:100620009E4FFC012491CA01895E9E4FFC0194916A
:100630004C515F4FFA0134913323C1F1222331F140
:10064000233021F4809180008F7705C0243031F46D
:10065000809180008F7D8093800018C0213019F434
:1006600084B58F7704C0223021F484B58F7D84BD9A
:100670000DC0263021F48091B0008F7705C027305F
:1006800029F48091B0008F7D8093B000E32FF0E0DB
:10069000EC52FF4FE491F0E0662329F480819095BD
:1006A0008923808308958081892B80830895482F32
:1006B00050E0CA01865B9E4FFC012491CA01895E0D
:1006C0009E4FFC0194914C515F4FFA0134913323BA
:1006D00019F420E030E035C0222331F1233021F439
:1006E000809180008F7705C0243031F480918000A4
:1006F0008F7D8093800018C0213019F484B58F77E6
:1007000004C0223021F484B58F7D84BD0DC0263015
:1007100021F48091B0008F7705C0273029F48091B3
:10072000B0008F7D8093B000E32FF0E0E452FF4FE4
:10073000E491F0E0808120E030E0892311F021E0B5
:1007400030E0C9010895089587E20E945703892B7C
:10075000C9F082E294E060E070E00E948B088A3089
:1007600089F48091CE039091CF03A091D003B091F2
:10077000D10390688093CE039093CF03A093D003CE
:10078000B093D10382E294E060E070E040E00E9428
:1007900086088091CE039091CF03A091D003B091B1
:1007A000D10380709078892B91F487E261E00E94F8
:1007B000EE0287E260E00E940C036AE070E080E0F5
:1007C00090E00E94B20187E261E00E940C038091F8
:1007D000CE039091CF03A091D003B091D10380704C
:1007E0009078892B91F482E294E06CE041E00E94E1
:1007F0008F0868EE73E080E090E00E94B20182E230
:1008000094E06CE040E00E948F08089589E261E086
:100810000E94EE0288E261E00E94EE028DEB98E019
:100820000E946F0A08950F931F93CF93DF93EB01FC
:10083000142F022F86E161E00E94EE0286E160E063
:100840000E940C0380E00E946B1304C083E260E00E
:100850000E940C0383E20E945703892BB9F78AEDAB
:1008600093E00E9452088AED93E0BE01412F202FB1
:100870000E946A078AED93E00E9429088AED93E0BE
:1008800060E140E00E94010882E294E060E070E0F4
:100890004AE00E94860881E361E00E94EE0281E363
:1008A00061E00E940C0362E170E080E090E00E9451
:1008B000B20181E360E00E940C03FFCFFC01138AC8
:1008C000148A158A168A178A108E118E128E138E2C
:1008D000148E158E168E178E10A211A212A280E011
:1008E00090E0A0E0B0E083A394A3A5A3B6A30895ED
:1008F000262F862F6AE00E944914492F30E0C90153
:10090000841B91096AE070E00E946914E4E0660FBC
:10091000771FEA95E1F7842F862B08950895DF92DB
:10092000EF92FF920F931F938C01D62EADEBEA2E20
:10093000A8E0FA2EC70168E670E00E944D0AC701E0
:100940006D2D0E94790A0D0D111DC701F8016081FE
:100950000E94790AC7010E94A00A1F910F91FF907F
:10096000EF90DF9008958091E9038C7F8093E903F5
:100970008AED93E06FE00E948F0408950F931F9318
:100980008C0160E170E080E090E00E94200FC801DF
:100990000E94B3041F910F9108951F93CF93DF938B
:1009A000EC01142F613009F08CC08E858D7F85603D
:1009B0008E87CE016EE00E948F048F858C7F8F879B
:1009C000CE016FE00E948F04133009F452C014303E
:1009D00030F4113031F18F811230D8F50AC0153062
:1009E00009F454C0153008F44EC0163009F0DDC0CB
:1009F000D2C08F778F83CE0167E00E948F048885F5
:100A00008F778887CE0168E00E948F0489858F7771
:100A10008987CE0169E00E948F048A858F77806480
:100A20004CC08F818F778F83CE0167E00E948F0447
:100A300088858F778887CE0168E00E948F0489853A
:100A40008F778987CE0169E00E948F048A858F7332
:100A500034C08F778F83CE0167E00E948F04888532
:100A60008F778887CE0168E00E948F0489858F7711
:100A70001DC08F818F778F83CE0167E00E948F0426
:100A800088858F770CC08F818F7702C08F818068B7
:100A90008F83CE0167E00E948F04888580688887F5
:100AA000CE0168E00E948F04898580688987CE0125
:100AB00069E00E948F048A8580688A87CE016AE097
:100AC00067C0623009F071C08E858E7F86608E8728
:100AD000CE016EE00E948F048F858C7F8F87CE01C0
:100AE0006FE00E948F04123099F1133030F411231B
:100AF00061F0113009F059C01AC01430B1F114304E
:100B000088F1153009F051C046C08B858F778B87EF
:100B1000CE016BE00E948F048C858F778C87CE018D
:100B20006CE00E948F048D858F7780642EC08B854A
:100B30008F778B87CE016BE00E948F048C858F7737
:100B40008C87CE016CE00E948F048D858F731DC051
:100B50008B858F778B87CE016BE00E948F048C850D
:100B60008F770CC08B858F7702C08B8580688B87D1
:100B7000CE016BE00E948F048C8580688C87CE014B
:100B80006CE00E948F048D8580688D87CE016DE0BA
:100B90000E948F040AC08E85887F8E87CE016EE00A
:100BA0000E948F04CE010E94BE0460E170E080E0EC
:100BB00090E00E947A0FDF91CF911F910895DF920C
:100BC000EF92FF920F931F938C01ADEBEA2EA8E0FA
:100BD000FA2EC70168E670E00E944D0AC70167E07F
:100BE00070E00E949D0AC801F801628D0E9478049D
:100BF000FFE7DF2ED822F801D782C801638D0E945B
:100C000078048F77F8018087C801648D0E9478048A
:100C10008F77F8018187C801658D0E9478048F73F2
:100C2000F8018287C7016D2D0E94790AC701F8017A
:100C300060850E94790AC701F80161850E94790ADE
:100C4000C701F80162850E94790AC7010E94A00AC3
:100C50001F910F91FF90EF90DF900895CF92DF9258
:100C6000EF92FF921F93CF93DF937C01162F8DEBB2
:100C700098E068E670E00E944D0A8DEB98E060E035
:100C800070E00E949D0A8DEB98E00E94A00A8DEB17
:100C900098E068E670E042E150E00E94C10AC0E0DE
:100CA000D0E0C12EDD241AE009C18DEB98E00E944E
:100CB000570A882309F402C18DEB98E00E945D0A6F
:100CC000282FF701EC0FFD1F8083C630D10509F4F2
:100CD00082C0C730D105B8F4C230D10509F44EC086
:100CE000C330D10538F4209769F1C130D10509F03E
:100CF000E4C036C0C430D10509F451C0C530D105B7
:100D000008F05BC049C0CA30D10509F49BC0CB30A4
:100D1000D10558F4C830D10509F478C090E02F709F
:100D2000C930D10508F081C064C0CC30D10509F4C8
:100D3000A7C0CC30D10508F494C0CD30D10509F05E
:100D4000BCC0ADC090E054E0959587955A95E1F709
:100D5000819FC00111242F70280FF701208FADC093
:100D600090E044E0959587954A95E1F7819FC00111
:100D700011242F70280FF701278B9FC090E034E0DB
:100D8000959587953A95E1F7819FC00111242F70C1
:100D9000280FF701268B91C0F701858B8EC090E05C
:100DA000B4E095958795BA95E1F7819FC00111242C
:100DB0002F70280FF701218F80C090E0A4E0959557
:100DC0008795AA95E1F7819FC00111242F70280F04
:100DD000F701248B72C090E0F4E095958795FA9521
:100DE000E1F7819FC00111242F70280FF701238B99
:100DF00064C0E4E095958795EA95E1F78770819F57
:100E0000C0011124280FF701228F57C090E074E031
:100E1000959587957A95E1F78770819FC001112498
:100E20002F70280FF701238F48C064E095958795B0
:100E30006A95E1F78370819FC0011124280FF701A3
:100E4000248F3BC090E054E0959587955A95E1F743
:100E50008370819FC00111242F70280FF701258F07
:100E60002CC090E044E0959587954A95E1F787700E
:100E7000819FC00111242F70280FF701268F1DC0FC
:100E800090E034E0959587953A95E1F78370819FDE
:100E9000C00111242F70280FF701278F0EC090E09A
:100EA000B4E095958795BA95E1F78370819FC0016D
:100EB00011242F70280FF70120A32196CC16DD06F0
:100EC00008F0F3CEDF91CF911F91FF90EF90DF906C
:100ED000CF9008951F93CF93DF93EC01FB01122F66
:100EE00021812053808180533AE0839FC0011124E7
:100EF000280F2D8F2481205383818053839FC0012D
:100F00001124280F2C8F2781205386818053839FA3
:100F1000C0011124280F2B8F2285205381858053F7
:100F2000839FC0011124280F2A8F442309F05BC03E
:100F3000CE0166E00E942E06988D8A8D980F9A8FBA
:100F40009C3328F09C539A8F8B8D8F5F8B8F9F895A
:100F50008B8D980F9B8F9C3328F09C539B8F8C8D8F
:100F60008F5F8C8F9E898C8D980F9C8F983128F085
:100F700098519C8F8D8D8F5F8D8F2D8D112339F41E
:100F80008D89820F8D8F883070F187502BC0998D9D
:100F9000920F9D8F8C89813051F0833041F08530E4
:100FA00031F0873021F0883011F08C3021F490320C
:100FB00010F09F519D8F8C89843041F0863031F044
:100FC000893021F08A3011F08B3029F48D8D8F31EA
:100FD00010F08E518D8F8C89823029F48D8D8D315A
:100FE00010F08C518D8F8AED93E00E94DF058AED21
:100FF00093E061E0412F0E94CD04DF91CF911F91DA
:1010000008950F931F93CF93DF93EC01042F6FA3E9
:1010100080E361E00E94EE021FA1113019F010314F
:1010200099F40DC080E361E00E940C03013019F4D3
:1010300082E08A8B09C0002339F41A8B05C080E353
:1010400060E00E940C031A8ADF91CF911F910F91EB
:1010500008958091BD08882341F08091520988232A
:1010600021F488ED93E00E9406040895CF93DF9366
:10107000EC0161E040E00E9401088091BD088823F6
:1010800021F48DEB98E00E94C40ACE010E94B304C3
:10109000CE010E945E04CE016DE00E942E06DF911B
:1010A000CF9108950E943608089510922104089562
:1010B0000F931F938C018DE0F80160810E9444130F
:1010C0008AE0F80160810E9444131F910F910895F6
:1010D000FC01CB0160810E94551308950F931F936B
:1010E0008C01CB01F80160810E945513C8010E9458
:1010F00058081F910F910895FC0160E076E980E0A7
:1011000090E040810E94891308950895CB01642FD7
:101110000E94FE160895CB010E94F61608950F93C3
:101120001F93162F042F862F61E00E94EE020130DC
:1011300019F4812F61E004C0002321F4812F60E0C5
:101140000E940C031F910F910895CF92DF92EF92AE
:10115000FF920F931F936C017B016CE041E00E94B2
:101160008F08C6016DE041E00E948F0800E010E0AA
:10117000C801B7010E94B201C6016CE040E00E94C4
:101180008F08C6016DE040E00E948F08C801B701DA
:101190000E94B2011F910F91FF90EF90DF90CF90CE
:1011A00008951092620510926405089510921C082B
:1011B00010921D08109220081092220810925B08CD
:1011C00083E180935C0882EA80935D0810925E0858
:1011D00080E480935F0889E68093600883E78093CA
:1011E000610884E7809362088AE792E0909364083C
:1011F000809363080895CF92DF92EF92FF920F934E
:101200001F93DF93CF93CDB7DEB72C970FB6F8942B
:10121000DEBF0FBECDBF6C018B01DE011196EBEC82
:10122000F3E083E001900D928150E1F7DE01149626
:10123000E8ECF3E083E001900D928150E1F7DE01EC
:101240001796E5ECF3E083E001900D928150E1F711
:10125000DE011A96E2ECF3E083E001900D928150FA
:10126000E1F781E2003C180750F1C80160EC71E23F
:101270000E945514462FC80160EC71E20E9455147B
:101280008C0100D000D000D0EDB7FEB73196CE0172
:101290000196ADB7BEB712969C938E93119781EFCE
:1012A00092E093838283448315820E94BF148DB79A
:1012B0009EB706960FB6F8949EBF0FBE8DBF91E005
:1012C00008361907D8F1C80168E671E00E94551484
:1012D000462FC80168E671E00E9455148C01CE01CA
:1012E00004964A3078F000D000D000D0EDB7FEB7B9
:1012F0003196ADB7BEB712969C938E93119785EF3A
:1013000092E00EC000D000D000D0EDB7FEB731960D
:10131000ADB7BEB712969C938E93119781EF92E072
:1013200093838283448315820E94BF148DB79EB736
:1013300006960FB6F8949EBF0FBE8DBF06301105FE
:1013400008F440C0C80166E070E00E945514262FE2
:10135000C80166E070E00E9455147C018C01CE014A
:1013600007962A3078F000D000D000D0EDB7FEB755
:101370003196ADB7BEB712969C938E93119785EFB9
:1013800092E00EC000D000D000D0EDB7FEB731968D
:10139000ADB7BEB712969C938E93119781EF92E0F2
:1013A00093838283248315820E94BF148DB79EB7D6
:1013B00006960FB6F8949EBF0FBE8DBF96E0E91655
:1013C000F10458F50115110541F100D000D000D00D
:1013D000EDB7FEB73196CE010A96ADB7BEB71296FD
:1013E0009C938E93119785EF92E093838283C8013B
:1013F00043E0880F991F4A95E1F7000F111F800FF6
:10140000911F848315820E94BF148DB79EB70696E4
:101410000FB6F8949EBF0FBE8DBFADB7BEB71C9779
:101420000FB6F894BEBF0FBEADBFEDB7FEB7319695
:101430008FEF92E0C80ED91E1296DC92CE921197D1
:1014400088EF92E093838283CE0101969583848313
:10145000CE01049697838683CE0107969187808775
:10146000CE010A96938782870E94BF148DB79EB7DC
:101470000C960FB6F8949EBF0FBE8DBF2C960FB67C
:10148000F894DEBF0FBECDBFCF91DF911F910F91BA
:10149000FF90EF90DF90CF90089581E08093BC089B
:1014A000609399081092BA081092BB080895809131
:1014B000980890919708891B0895909197088091BA
:1014C0009808981710F080E00895E92FF0E0E958A7
:1014D000F74F80819F5F90939708089508950F9329
:1014E0001F938C010E947A0BF80110821F910F91BB
:1014F0000895DF93CF930F92CDB7DEB769838091C4
:10150000BC08882389F08091BB08803290F48091D8
:10151000BA08E82FF0E0E656F74F60838F5F8093BC
:10152000BA088093BB0805C0CE01019661E00E9415
:101530005F0B0F90CF91DF9108950E94790A089573
:10154000809199086AE978E04091BB0821E00E9407
:10155000310B1092BA081092BB081092BC08089583
:101560001F93142F413208F010E2862F67E778E0CE
:10157000412F0E94050B10929708109398081F9115
:1015800008950E94B00A08950F931F938C01109242
:10159000970810929708109298081092BA08109223
:1015A000BA081092BB080E94DB0A81E0F801808330
:1015B0001F910F9108951092BE08589A599A8091E0
:1015C000B9008E7F8093B9008091B9008D7F8093A0
:1015D000B90080E28093B80085E48093BC00E4EC1D
:1015E000F8E0119288E0E43EF807D9F7E6EEF8E07B
:1015F000119289E0E630F807D9F7E8E0F9E01192B6
:1016000089E0E832F807D9F70895982F413210F0B1
:1016100081E008958091BE088823E1F781E08093FE
:10162000BE081092E4084093E508990F91609093EA
:10163000BF0885EE8093BC008091BE088130E1F345
:1016400020E030E00AC0FB01E20FF31FD901AC53E8
:10165000B74F8C9180832F5F3F4F2417A0F380E01A
:1016600008951F93582F122F413210F081E025C0AA
:101670008091BE088823E1F782E08093BE08109233
:10168000E4084093E508A4ECB8E0FB0102C08191B6
:101690008D938E2F861B8417D0F3852F90E0880FB3
:1016A000991F8093BF0885EE8093BC00112321F021
:1016B0008091BE088230E1F380E01F910895482FA9
:1016C000613210F081E008958091BE08843011F0FD
:1016D00082E0089560930709A6EEB8E0842F9C018C
:1016E000F90102C081918D938E2F841B8617D0F350
:1016F00080E0089558985998E9EBF0E08081816086
:101700008083808182608083ECEBF0E08081806860
:10171000808380818061808380818F7B80838081D2
:101720008F7D80838081877F8083808184608083B8
:1017300080818E7F8083E4E6F0E080818F778083F4
:1017400008951F920F920FB60F920BB60F921124AD
:101750002F933F934F935F936F937F938F939F93B9
:10176000AF93BF93EF93FF938091B90090E0887F90
:1017700090708036910509F4CAC081369105CCF588
:101780008832910509F47BC089329105B4F4803127
:10179000910509F46FC0813191053CF4009709F47B
:1017A00014C1089709F01AC165C08831910509F480
:1017B00066C0809709F012C17DC08034910509F49C
:1017C0008DC08134910544F48033910509F472C0D1
:1017D000C89709F003C1F5C08035910509F472C0BE
:1017E0008835910509F47FC08834910509F0F6C069
:1017F00086C08839910509F4E0C089399105ECF477
:101800008837910509F483C0893791054CF48836EF
:10181000910509F47CC08037910509F0DFC077C0DD
:101820008838910509F4C9C08039910509F475C05B
:101830008038910509F0D2C070C0803B910509F451
:1018400093C0813B91054CF4803A910509F477C02F
:10185000883A910509F0C2C087C0803C910509F41F
:10186000B0C0883C910509F4ACC0883B910509F0F3
:10187000B5C08FC08091BF088093BB009CC0909181
:10188000E4088091E508981768F49091E408E92F3E
:10189000F0E0EC53F74F80818093BB009F5F909303
:1018A000E40889C085ED8093BC008091BC0084FD74
:1018B000FCCF92C085ED8093BC008091BC0084FD7C
:1018C000FCCF8AC08091E4089091BB00E82FF0E043
:1018D000EC53F74F90838F5F8093E4089091E40876
:1018E0008091E50866C08091E4089091BB00E82FE4
:1018F000F0E0EC53F74F90838F5F8093E40885ED21
:101900008093BC008091BC0084FDFCCF65C083E067
:101910008093BE08109228094EC080912809803219
:1019200008F04BC0809128099091BB00E82FF0E0AF
:10193000E85FF64F90838F5F809328093CC08091C9
:101940002809803230F4E0912809F0E0E85FF64F92
:10195000108260912809E091C208F091C30888E0E4
:1019600099E070E009952DC084E08093BE08109244
:10197000060910920709E091C008F091C108099585
:1019800080910709882329F481E080930709109248
:10199000E60890910609E92FF0E0EA51F74F8081BF
:1019A0008093BB009F5F90930609909106098091F8
:1019B0000709981710F485EC01C085E88093BC00F6
:1019C0000DC085EC8093BC0007C085ED8093BC0002
:1019D0008091BC0084FDFCCF1092BE08FF91EF9176
:1019E000BF91AF919F918F917F916F915F914F9137
:1019F0003F912F910F900BBE0F900FBE0F901F9035
:101A00001895883008F069C0E82FF0E0EE0FFF1F4E
:101A1000EA5CF64F71836083833089F1843028F467
:101A20008130A1F08230F0F409C08630E9F18730CE
:101A300009F447C0843009F050C02EC0809169007D
:101A40008C7F842B80936900E89A089580916900C7
:101A5000440F551F440F551F837F842B80936900CB
:101A6000E99A08958091690064E0440F551F6A95D2
:101A7000E1F78F7C842B80936900EA9A0895809126
:101A8000690036E0440F551F3A95E1F78F73842BB8
:101A900080936900EB9A089580916A008C7F842B73
:101AA00080936A00EC9A089580916A0024E0440FC4
:101AB000551F2A95E1F78F7C842B80936A00EE9A5C
:101AC000089580916A0096E0440F551F9A95E1F7BA
:101AD0008F73842B80936A00EF9A0895F89488306E
:101AE00028F58330A1F0843028F4813061F0823011
:101AF00060F407C0863079F0873079F0843071F473
:101B000008C0E8980BC0E99809C0EA9807C0EB98AC
:101B100005C0EC9803C0EE9801C0EF98E82FF0E004
:101B2000EE0FFF1FEA5CF64F118210827894089541
:101B30001F920F920FB60F920BB60F9211242F9394
:101B40003F934F935F936F937F938F939F93AF9345
:101B5000BF93EF93FF938091360990913709892BBA
:101B600029F0E0913609F09137090995FF91EF913D
:101B7000BF91AF919F918F917F916F915F914F91A5
:101B80003F912F910F900BBE0F900FBE0F901F90A3
:101B900018951F920F920FB60F920BB60F92112449
:101BA0002F933F934F935F936F937F938F939F9365
:101BB000AF93BF93EF93FF938091380990913909C8
:101BC000892B29F0E0913809F09139090995FF91A5
:101BD000EF91BF91AF919F918F917F916F915F91A5
:101BE0004F913F912F910F900BBE0F900FBE0F9012
:101BF0001F9018951F920F920FB60F920BB60F926F
:101C000011242F933F934F935F936F937F938F9301
:101C10009F93AF93BF93EF93FF9380913A09909175
:101C20003B09892B29F0E0913A09F0913B0909958C
:101C3000FF91EF91BF91AF919F918F917F916F91A4
:101C40005F914F913F912F910F900BBE0F900FBE60
:101C50000F901F9018951F920F920FB60F920BB610
:101C60000F9211242F933F934F935F936F937F9322
:101C70008F939F93AF93BF93EF93FF9380913C0912
:101C800090913D09892B29F0E0913C09F0913D09A3
:101C90000995FF91EF91BF91AF919F918F917F91A6
:101CA0006F915F914F913F912F910F900BBE0F90CD
:101CB0000FBE0F901F9018951F920F920FB60F92A4
:101CC0000BB60F9211242F933F934F935F936F9313
:101CD0007F938F939F93AF93BF93EF93FF938091E5
:101CE0003E0990913F09892B29F0E0913E09F0913E
:101CF0003F090995FF91EF91BF91AF919F918F910E
:101D00007F916F915F914F913F912F910F900BBEFB
:101D10000F900FBE0F901F9018951F920F920FB645
:101D20000F920BB60F9211242F933F934F935F9313
:101D30006F937F938F939F93AF93BF93EF93FF9393
:101D40008091400990914109892B29F0E091400947
:101D5000F09141090995FF91EF91BF91AF919F914A
:101D60008F917F916F915F914F913F912F910F9044
:101D70000BBE0F900FBE0F901F9018951F920F92E1
:101D80000FB60F920BB60F9211242F933F934F93E0
:101D90005F936F937F938F939F93AF93BF93EF93D3
:101DA000FF938091420990914309892B29F0E0919A
:101DB0004209F09143090995FF91EF91BF91AF91CD
:101DC0009F918F917F916F915F914F913F912F9153
:101DD0000F900BBE0F900FBE0F901F9018951F9283
:101DE0000F920FB60F920BB60F9211242F933F93C1
:101DF0004F935F936F937F938F939F93AF93BF9313
:101E0000EF93FF938091440990914509892B29F024
:101E1000E0914409F09145090995FF91EF91BF9137
:101E2000AF919F918F917F916F915F914F913F9172
:101E30002F910F900BBE0F900FBE0F901F90189513
:101E4000EF92FF920F931F937B018C01F894CB01CB
:101E500081709070892B19F082E00E946E0DE1FE76
:101E600003C083E00E946E0DE2FE03C082E00E9488
:101E70006E0DE3FE03C083E00E946E0DE4FE03C01E
:101E800082E00E946E0DF3FE03C082E00E946E0DA0
:101E9000E5FE03C084E00E946E0DF4FE03C082E004
:101EA0000E946E0DF5FE03C082E00E946E0DF6FEEC
:101EB00003C083E00E946E0D8091D2039091D30302
:101EC000A091D403B091D503E094F09400951095BF
:101ED0008E219F21A023B1238093D2039093D3031B
:101EE000A093D403B093D50378941F910F91FF90E2
:101EF000EF900895EF92FF920F931F937B018C0157
:101F00008091D2039091D303A091D403B091D503D3
:101F10008E299F29A02BB12B8093D2039093D303BA
:101F2000A093D403B093D503C70181709070892B1F
:101F300059F08BE260E00E94EE0282E061E671E11E
:101F400041E050E00E94010DE1FE0BC08CE260E038
:101F50000E94EE0283E063E670E140E050E00E9400
:101F6000010DE2FE0FC08BE260E00E94EE0286E20D
:101F700060E00E94EE0282E061E671E141E050E043
:101F80000E94010DE3FE13C08CE260E00E94EE02AD
:101F900082E360E00E94EE028CE261E00E940C03AA
:101FA00083E063E670E140E050E00E94010DE4FE52
:101FB0000FC08BE260E00E94EE0287E260E00E94C8
:101FC000EE0282E061E671E141E050E00E94010D25
:101FD000E5FE0FC083E061E00E94EE0283E061E075
:101FE0000E940C0384E063E670E140E050E00E9450
:101FF000010DF3FE0FC08BE260E00E94EE028EE264
:1020000060E00E94EE0282E061E671E141E050E0B2
:102010000E94010DF4FE0FC08BE260E00E94EE0210
:1020200088E060E00E94EE0282E061E671E141E05A
:1020300050E00E94010DF5FE17C08BE260E00E94A7
:10204000EE028CE260E00E94EE0287E060E00E9417
:10205000EE028AE060E00E94EE0282E061E671E159
:1020600041E050E00E94010DF6FE17C08BE260E0F7
:102070000E94EE028CE260E00E94EE0287E060E0E7
:102080000E94EE028AE060E00E94EE0283E063E6D6
:1020900070E140E050E00E94010D00FF0FC084E0BD
:1020A00060E00E94EE028CE260E00E94EE0283E0BB
:1020B00063E670E140E050E00E94010D1F910F9136
:1020C000FF90EF900895F8948091D2039091D303FC
:1020D000A091D403B091D50383FF26C082E30E9470
:1020E0005703892B09F58091D6038F5F8093D60320
:1020F0008091CE039091CF03A091D003B091D103F2
:1021000088608093CE039093CF03A093D003B093C5
:10211000D10380912C098F5F80932C0968E070E0D7
:1021200080E090E00E94200F8091D2039091D30331
:10213000A091D403B091D503A0FF26C084E00E94F3
:102140005703892B09F58091D6038F5F8093D603BF
:102150008091CE039091CF03A091D003B091D10391
:10216000A1608093CE039093CF03A093D003B0934C
:10217000D103809137098F5F8093370960E070E069
:1021800081E090E00E94200F8091D2039091D303D0
:10219000A091D403B091D50385FF24C083E00E94B1
:1021A0005703892BF9F48091D6038F5F8093D60370
:1021B0008091CE039091CF03A091D003B091D10331
:1021C00080628093CE039093CF03A093D003B0930B
:1021D000D10380912E098F5F80932E0983E061E007
:1021E0000E940C038091D2039091D303A091D40359
:1021F000B091D50381FF20C089E20E945703892B4B
:10220000D9F48091D6038F5F8093D6038091CE035B
:102210009091CF03A091D003B091D10382608093BD
:10222000CE039093CF03A093D003B093D1038091BA
:102230002A098F5F80932A098091D2039091D3035A
:10224000A091D403B091D50396FF39C08091D203F9
:102250009091D303A091D403B091D50383FF05C01F
:1022600082E30E945703892B51F58091D20390910C
:10227000D303A091D403B091D50385FF05C083E0BB
:102280000E945703892BD9F48091D6038F5F8093E6
:10229000D6038091CE039091CF03A091D003B0914B
:1022A000D10390648093CE039093CF03A093D00387
:1022B000B093D103809136098F5F8093360978946B
:1022C0000895F8948091D2039091D303A091D40300
:1022D000B091D50382FF20C086E20E945703892B6C
:1022E000D9F08091D6038F5F8093D6038091CE037F
:1022F0009091CF03A091D003B091D10384608093DB
:10230000CE039093CF03A093D003B093D1038091D9
:102310002B098F5F80932B098091D2039091D30377
:10232000A091D403B091D50384FF20C087E20E941E
:102330005703892BD9F08091D6038F5F8093D60302
:102340008091CE039091CF03A091D003B091D1039F
:1023500080618093CE039093CF03A093D003B0937A
:10236000D10380912D098F5F80932D098091D20335
:102370009091D303A091D403B091D50393FF20C0D3
:102380008EE20E945703892BD9F08091D6038F5F8C
:102390008093D6038091CE039091CF03A091D00378
:1023A000B091D10398608093CE039093CF03A09314
:1023B000D003B093D103809134098F5F80933409A7
:1023C0008091D2039091D303A091D403B091D5030F
:1023D00081709070892B51F18091D2039091D30339
:1023E000A091D403B091D50396FD20C089E20E944C
:1023F0005703892BD9F08091D6038F5F8093D60342
:102400008091CE039091CF03A091D003B091D103DE
:1024100081608093CE039093CF03A093D003B093B9
:10242000D103809129098F5F809329098091D2037C
:102430009091D303A091D403B091D50394FF24C00D
:1024400088E00E945703892BF9F08091D6038F5FB3
:102450008093D60385E060E00E940C038091CE0358
:102460009091CF03A091D003B091D103906180935C
:10247000CE039093CF03A093D003B093D103809168
:1024800035098F5F809335098091D2039091D303F2
:10249000A091D403B091D50395FF20C088E00E949D
:1024A0005703892BD9F08091D6038F5F8093D60391
:1024B0008091CE039091CF03A091D003B091D1032E
:1024C00090628093CE039093CF03A093D003B093F8
:1024D000D103809136098F5F809336098091D203B2
:1024E0009091D303A091D403B091D50396FF48C037
:1024F0008091D2039091D303A091D403B091D503DE
:1025000082FF05C086E20E945703892BC9F580919E
:10251000D2039091D303A091D403B091D50384FF4B
:1025200005C087E20E945703892B51F58091D203A1
:102530009091D303A091D403B091D50393FF05C02C
:102540008EE20E945703892BD9F48091D6038F5FC6
:102550008093D6038091CE039091CF03A091D003B6
:10256000B091D10390648093CE039093CF03A09356
:10257000D003B093D103809136098F5F80933609E1
:10258000789408951F920F920FB60F920BB60F9288
:1025900011242F933F934F935F936F937F938F9368
:1025A0009F93AF93BF93EF93FF934091C600E09149
:1025B0004609F0914709CF01019660E072E00E9460
:1025C00069149C018091480990914909281739079D
:1025D00039F0E95DF44F4083309347092093460971
:1025E000FF91EF91BF91AF919F918F917F916F91EB
:1025F0005F914F913F912F910F900BBE0F900FBEA7
:102600000F901F9018951F920F920FB60F920BB656
:102610000F9211242F933F934F935F936F937F9368
:102620008F939F93AF93BF93EF93FF934091CE000F
:10263000E0914A09F0914B09CF01019660E870E002
:102640000E9469149C0180914C0990914D092817B2
:10265000390739F0E955F54F408330934B09209302
:102660004A09FF91EF91BF91AF919F918F917F9117
:102670006F915F914F913F912F910F900BBE0F90F3
:102680000FBE0F901F901895982F662339F48091F4
:10269000C00085FFFCCF9093C60008958091C800CC
:1026A00085FFFCCF9093CE000895FC0110C03196B9
:1026B000662339F48091C00085FFFCCF9093C6005B
:1026C00006C08091C80085FFFCCF9093CE0090811A
:1026D000992369F70895882371F488E00E948F0296
:1026E0008091C1008F7E8093C1008091C100877F5F
:1026F0008093C100089580E10E948F028091C900FB
:102700008F7E8093C9008091C900877F8093C90024
:102710000895EF92FF920F931F937B018C01442346
:10272000C1F588E00E945502C801B70122E030E0FF
:1027300040E050E00E949E14205E3E45484F5F4FAF
:10274000CA01B901A80197010E949E14C901DA01CA
:102750000197A109B109292F3A2F4B2F552747FD82
:102760005A950196A11DB11D2093C50081508093FB
:10277000C4008091C10080618093C1008091C1003C
:1027800088608093C1008091C10080688093C100FF
:1027900037C080E10E945502C801B70122E030E055
:1027A00040E050E00E949E14205E3E45484F5F4F3F
:1027B000CA01B901A80197010E949E14C901DA015A
:1027C0000197A109B109292F3A2F4B2F552747FD12
:1027D0005A950196A11DB11D2093CD008150809383
:1027E000CC008091C90080618093C9008091C900AC
:1027F00088608093C9008091C90080688093C90077
:102800001F910F91FF90EF9008950895FC0180ECC7
:1028100092E1A0E0B0E080839183A283B38381E062
:102820008483E755FF4F22E02083E95AF040178266
:10283000168280E890E0918780871286238784E063
:1028400093E095AB84AB8AE093E097AB86AB81E1F4
:1028500093E091AF80AF85E193E093AF82AF88E1E1
:1028600093E095AF84AF8AE193E097AF86AFE05CE9
:10287000FF4F84E293E0819391938FE293E0819301
:1028800091931082089583E599E00E9406140895BB
:102890000895991B79E004C0991F961708F0961BBC
:1028A000881F7A95C9F780950895AA1BBB1B51E133
:1028B00007C0AA1FBB1FA617B70710F0A61BB70BB0
:1028C000881F991F5A95A9F780959095BC01CD0155
:1028D000089597FB092E07260AD077FD04D0E5DF7F
:1028E00006D000201AF4709561957F4F0895F6F791
:1028F000909581959F4F0895A1E21A2EAA1BBB1BAC
:10290000FD010DC0AA1FBB1FEE1FFF1FA217B307BB
:10291000E407F50720F0A21BB30BE40BF50B661FD1
:10292000771F881F991F1A9469F760957095809595
:1029300090959B01AC01BD01CF01089597FB092E35
:1029400005260ED057FD04D0D7DF0AD0001C38F47E
:1029500050954095309521953F4F4F4F5F4F0895CB
:10296000F6F790958095709561957F4F8F4F9F4FAB
:102970000895EE0FFF1F0590F491E02D09940F9339
:102980001F93DF93CF93CDB7DEB72E970FB6F89492
:10299000DEBF0FBECDBF0D891E8986E08C831A83F2
:1029A00009838FEF9FE79E838D839E01275E3F4FB4
:1029B000CE0101966F89788DA9010E94F0142F81B4
:1029C0003885020F131FF80110822E960FB6F89467
:1029D000DEBF0FBECDBFCF91DF911F910F91089544
:1029E0002F923F924F925F926F927F928F929F921F
:1029F000AF92BF92CF92DF92EF92FF920F931F930D
:102A0000DF93CF93CDB7DEB72B970FB6F894DEBF29
:102A10000FBECDBF3C012B015A01FC01178216826B
:102A2000838181FD03C06FEF7FEFC6C19AE0892EDD
:102A30001E010894211C311CF3012381F20123FDA6
:102A4000859123FF81912F01882309F4B2C185323A
:102A500039F423FD859123FF81912F01853229F4DB
:102A600090E0B3010E942217E7CF982FFF24EE24B5
:102A70009924FFE1FF15D0F09B3269F09C3228F4D5
:102A8000903259F0933291F40EC09D3249F0903358
:102A900069F441E024C052E0F52A84E0F82A28C015
:102AA00098E0F92A25C0E0E1FE2A22C0F7FC29C0FF
:102AB000892F80538A3070F4F6FE05C0989C902CC4
:102AC0001124980E15C0E89CE02C1124E80EF0E2C9
:102AD000FF2A0EC09E3229F4F6FC6BC140E4F42AB2
:102AE00007C09C3619F450E8F52A02C0983649F41C
:102AF000F20123FD959123FF91912F01992309F074
:102B0000B8CF892F8554833018F08052833038F441
:102B100044E050E0A40EB51E5FE359830FC0933626
:102B200031F0933779F0933509F056C020C0F501A4
:102B30008081898342E050E0A40EB51E610101E06E
:102B400010E012C0F501C080D180F6FC03C06FEF29
:102B50007FEF02C0692D70E042E050E0A40EB51E88
:102B6000C6010E9417178C015FE7F52214C0F5011A
:102B7000C080D180F6FC03C06FEF7FEF02C0692DEB
:102B800070E042E050E0A40EB51EC6010E940C1792
:102B90008C0150E8F52AF3FE07C01AC080E290E0ED
:102BA000B3010E942217EA948E2D90E008171907AE
:102BB000A8F30EC0F601F7FC8591F7FE81916F0135
:102BC00090E0B3010E942217E110EA9401501040F6
:102BD0000115110579F7EAC0943611F0993669F5B7
:102BE000F7FE08C0F501208131814281538184E0E4
:102BF00090E00AC0F501808191819C01442737FD56
:102C00004095542F82E090E0A80EB91E9FE6F9226D
:102C100057FF09C050954095309521953F4F4F4F34
:102C20005F4FE0E8FE2ACA01B901A1012AE030E0C5
:102C30000E944E17D82ED21840C0953729F41F2D68
:102C40001F7E2AE030E01DC01F2D197F9F3661F0E6
:102C5000903720F4983509F0ACC00FC0903739F0A8
:102C6000983709F0A6C004C028E030E00AC010611F
:102C700014FD146020E130E004C014FD166020E172
:102C800032E017FF08C0F501608171818281938174
:102C900044E050E008C0F50180819181BC0180E0F2
:102CA00090E042E050E0A40EB51EA1010E944E1734
:102CB000D82ED2188FE7F82EF122F6FE0BC05EEF69
:102CC000F522D91438F4F4FE07C0F2FC05C08FEEEB
:102CD000F82202C01D2D01C0192DF4FE0DC0FE0109
:102CE000ED0DF11D8081803319F499EEF92208C0B1
:102CF0001F5FF2FE05C003C08F2D867809F01F5FAD
:102D00000F2DF3FC14C0F0FE0FC01E1510F09D2C0B
:102D10000BC09D2C9E0C911A1E2D06C080E290E0E7
:102D2000B3010E9422171F5F1E15C0F304C01E15B9
:102D300010F4E11A01C0EE2404FF0FC080E390E01C
:102D4000B3010E94221702FF1DC001FD03C088E7E6
:102D500090E00EC088E590E00BC0802F867891F05F
:102D600001FF02C08BE201C080E2F7FC8DE290E03F
:102D7000B3010E94221706C080E390E0B3010E94D5
:102D800022179A94D914C0F3DA94F101ED0DF11DD4
:102D9000808190E0B3010E942217DD20A9F706C0D0
:102DA00080E290E0B3010E942217EA94EE20C1F77E
:102DB00043CEF30166817781CB012B960FB6F89451
:102DC000DEBF0FBECDBFCF91DF911F910F91FF905E
:102DD000EF90DF90CF90BF90AF909F908F907F90BB
:102DE0006F905F904F903F902F900895F999FECF8C
:102DF00092BD81BDF89A992780B50895262FF9993B
:102E0000FECF1FBA92BD81BD20BD0FB6F894FA9ACD
:102E1000F99A0FBE01960895FC010590615070402B
:102E20000110D8F7809590958E0F9F1F0895FC0193
:102E30006150704001900110D8F7809590958E0FE9
:102E40009F1F08950F931F93CF93DF938C01EB0186
:102E50008B8181FF1BC082FF0DC02E813F818C8141
:102E60009D812817390764F4E881F9810193F9837A
:102E7000E88306C0E885F985802F0995892B31F410
:102E80008E819F8101969F838E8302C00FEF1FEF7B
:102E9000C801DF91CF911F910F910895FA01AA27E0
:102EA000283051F1203181F1E8946F936E7F6E5F8D
:102EB0007F4F8F4F9F4FAF4FB1E03ED0B4E03CD03B
:102EC000670F781F891F9A1FA11D680F791F8A1F1E
:102ED000911DA11D6A0F711D811D911DA11D20D085
:102EE00009F468943F912AE0269F11243019305D3F
:102EF0003193DEF6CF010895462F4770405D419330
:102F0000B3E00FD0C9F7F6CF462F4F70405D4A337C
:102F100018F0495D31FD4052419302D0A9F7EACF44
:102F2000B4E0A6959795879577956795BA95C9F773
:102F300000976105710508959B01AC010A2E069466
:102F40005795479537952795BA95C9F7620F731F1F
:0C2F5000841F951FA01D0895F894FFCF6A
:102F5C004F7574206F662068696265726E61746566
:102F6C002028696E746572727570742900446576D8
:102F7C0069636520656E74657273206C6F6F700089
:102F8C00476F696E6720696E746F2068696265723D
:102F9C006E61746520666F723A20000A50524F477A
:102FAC0052414D3A2048696265726E6174654F6E8C
:102FBC006C79576974685661726961626C655469A1
:102FCC006D655669614150490A0030303A30303AEB
:102FDC0030303A31300073656E736F724D61736BC4
:102FEC00203D200061637469766553656E736F7262
:102FFC004D61736B4C656E677468203D2000706882
:10300C0079736963616C53656E736F724D61736B29
:10301C004C656E677468203D200073656E736F722B
:10302C004D61736B20696E20666F72203D200073BA
:10303C00756D2073656E736F724D61736B203D20DF
:10304C00003025640025640025733A25733A2573F6
:10305C003A25730039363030300034393732363057
:10306C0000393231003132003100343134302E38F5
:10307C003231370030303035332E31373336003182
:10308C003938006572726F723A2074686520475047
:10309C00532074696D6564206F757400245053520D
:1030AC00463130302C302C25752C382C312C302AD4
:1030BC0030460024475047474100244750474C4C6A
:1030CC00002447504753410024475047535600248F
:1030DC004750524D43002447505654470065706882
:1030EC00656D657269732E74787400245053524662
:1030FC003130342C25732C25732C25732C25732CF3
:10310C0025732C25732C25732C25732A3030000144
:0E311C00000130300030300030300030300024
:00000001FF
