:100000000C94CF000C949E520C94CF520C9400533D
:100010000C9431530C9462530C9493530C94C4532A
:100020000C94F5530C94F9000C94F9000C94F9001D
:100030000C9414030C94F9000C94F9000C94D20164
:100040000C94F9000C94F9000C94F9000C94F9004C
:100050000C94F9000C94F9000C94F9000C94AD0187
:100060000C94F9000C94B4540C94F9000C94F9001D
:100070000C94F9000C94F9000C94F9000C94F9001C
:100080000C94F9000C94F9000C94F9000C94F9000C
:100090000C94F5540C94F9000C94F9000C943E5116
:1000A0000C94F9000C94F9000C94F9000C94F900EC
:1000B0000C94F9000C94F9000C94F9000C94F900DC
:1000C0000C94F9000C94F9000C94F90000212427F9
:1000D0002A2D3033002225282B2E313400202326D0
:1000E000292C2F3205050505030303030101010433
:1000F00004030606060606060606010405010501B8
:1001000003020202020202010202050504040304C2
:1001100004010304070707010208101020408004AF
:1001200008102040020204081020408001028020B4
:100130004004200101020408102001408040800199
:1001400002080408800410040201000008090000ED
:10015000000000000000000000000000000000009F
:10016000000000000000000000000000000000008F
:100170000000000000000000000000000000B403C8
:100180002A074D09880C090DDA11DF111F146E14AE
:10019000A74F4B50D356DA56E95627572C57112400
:1001A0001FBECFEFD1E2DEBFCDBF14E1A0E0B2E0D1
:1001B000E6E6FBEB00E00BBF02C007900D92A23712
:1001C000B107D9F71FE1A2E7B4E101C01D92AC3439
:1001D000B107E1F711E0CEE9D1E004C02297FE01BA
:1001E0000E94AE59CE37D107C9F70E94A6010C94E0
:1001F000B15D0C940000CF93DF938BED95E160E04F
:1002000072E00E94FD1268EE73E080E090E00E94D0
:100210000F0287ED94E10E94150887E495E10E94A2
:10022000520983E794E10E94B50380E297E10E94BE
:10023000204E6091221A7091231A87E495E10E9462
:10024000200AC82FD0E0209759F08BED95E164E1AA
:1002500072E00E9465128BED95E1BE010E942C12A6
:100260004091221A5091231A87ED94E16AE474E1D7
:100270000E942608C82FD0E0209759F08BED95E119
:1002800069E472E00E9465128BED95E1BE010E9467
:100290002C128BED95E16DE772E00E9465120E94D1
:1002A000E406BC018BED95E10E942C12DF91CF9109
:1002B00008958BED95E10E940B138BED95E165E8B8
:1002C00072E00E94FD120E94E406BC018BED95E1F4
:1002D0000E942C1283E794E162E574E10E944B06D0
:1002E000882331F08BED95E162E972E00E94FD1206
:1002F0008DB79EB70A970FB6F8949EBF0FBE8DBFFD
:10030000EDB7FEB7319680E297E1ADB7BEB7129672
:100310009C938E93119783E090E09383828381E096
:1003200090E09583848388E090E09783868382E0E1
:1003300090E0918780870E94E04F8DB79EB70A9624
:100340000FB6F8949EBF0FBE8DBF08950E9457024E
:100350000E9459010E94FB00FDCF1F920F920FB621
:100360000F9211248F939F93AF93BF938091C01CE2
:100370009091C11CA091C21CB091C31C0196A11DFB
:10038000B11D8093C01C9093C11CA093C21CB0935C
:10039000C31CBF91AF919F918F910F900FBE0F9093
:1003A0001F9018951F920F920FB60F9211248F93E2
:1003B0009F93AF93BF938091C41C9091C51CA09153
:1003C000C61CB091C71C0196A11DB11D8093C41C11
:1003D0009093C51CA093C61CB093C71CBF91AF914E
:1003E0009F918F910F900FBE0F901F901895609165
:1003F000C01C7091C11C8091C21C9091C31C27E04D
:10040000660F771F881F991F2A95D1F72EE330E0DA
:1004100040E050E00E946F59CA01B9010895AF92BF
:10042000BF92CF92DF92EF92FF920F931F935B01E7
:100430006C016091C01C7091C11C8091C21C909194
:10044000C31C47E0660F771F881F991F4A95D1F795
:100450002EE330E040E050E00E946F5979018A01BC
:100460006091C01C7091C11C8091C21C9091C31CF2
:1004700037E0660F771F881F991F3A95D1F72EE353
:1004800030E040E050E00E946F592E193F09400BC8
:10049000510B2A153B054C055D0510F31F910F917B
:1004A000FF90EF90DF90CF90BF90AF900895789439
:1004B00084B7877F84BF1092C01C1092C11C109219
:1004C000C21C1092C31C84B5826084BD84B5816057
:1004D00084BD85B5826085BD85B5816085BDEEE64C
:1004E000F0E0808181608083E1E8F0E080818260DB
:1004F0008083808181608083E0E8F0E0808181609A
:100500008083E1EBF0E0808184608083E1E9F0E0CA
:10051000808184608083E0EBF0E080818160808373
:10052000E0E9F0E0808181608083E4E6F0E08081B2
:100530008E7F8083ECE7F0E080818F7780838081FD
:1005400080648083EAE7F0E080818460808380813A
:10055000826080838081806880831092C1001092C5
:10056000C900089590917214982B9093721480FF93
:1005700032C0809164008E7F8093640080917C0003
:100580008F7780937C0080917C00806480937C00D6
:1005900080917A00846080937A0080917A008260F2
:1005A00080937A0080917A00806880937A008091AD
:1005B00064008F7780936400809164008B7F8093C8
:1005C0006400809164008D7F809364008091650059
:1005D0008E7F809365000895282F20959091721446
:1005E00092239093721480FF1EC080917A008F77BF
:1005F00080937A0080916400816080936400809190
:1006000064008068809364008091640084608093BB
:100610006400809164008260809364008091650032
:1006200081608093650008951F920F920FB60F921C
:100630000BB60F9211242F933F934F935F936F93B9
:100640007F938F939F93AF93BF93EF93FF93F89410
:1006500081E080935A14E0E6F0E080818068808336
:1006600080818F7B808383E060E00E9469037894BF
:10067000FF91EF91BF91AF919F918F917F916F917A
:100680005F914F913F912F910F900BBE0F900FBE36
:100690000F901F901895282F30E0C901895E9E4F5A
:1006A000FC0194912C513F4FF9018491882381F0F2
:1006B000E82FF0E0E453FF4FE491F0E0662329F4E3
:1006C000808190958923808308958081892B808300
:1006D0000895482F50E0CA01865B9E4FFC0124918B
:1006E000CA01895E9E4FFC0194914C515F4FFA0103
:1006F00034913323C1F1222331F1233021F480914D
:1007000080008F7705C0243031F4809180008F7D88
:100710008093800018C0213019F484B58F7704C00D
:10072000223021F484B58F7D84BD0DC0263021F4A4
:100730008091B0008F7705C0273029F48091B000F8
:100740008F7D8093B000E32FF0E0EC52FF4FE491F7
:10075000F0E0662329F480819095892380830895B1
:100760008081892B8083089508958BED95E16FEA50
:1007700072E00E94651208958091FA198A3209F494
:100780004FC08B3298F48332B9F1843238F481321D
:1007900049F1823260F5882301F16AC08532B1F1F6
:1007A000853278F1873209F063C035C08C3A09F49C
:1007B0004BC08D3A40F48C32E9F18C32B0F18B3A77
:1007C00009F056C03CC08F3A09F448C08F3F09F485
:1007D0004AC08D3A09F04CC03CC08BED95E16EEB00
:1007E00072E04AC08BED95E166EE72E045C08BED9C
:1007F00095E169EF72E040C08BED95E166E373E04F
:100800003BC08BED95E169E873E036C08BED95E177
:1008100068EA73E031C08BED95E16DEE73E02CC0BA
:100820008BED95E169E074E027C08BED95E16AE21C
:1008300074E022C08BED95E16FE474E01DC08BED98
:1008400095E163E774E018C08BED95E164EA74E02C
:1008500013C08BED95E162EE74E00EC08BED95E177
:100860006AE175E009C08BED95E16EE675E004C0C4
:100870008BED95E166EA75E00E94FD120895DF9226
:10088000EF92FF920F931F93CF93DF937B01D42EB0
:1008900089018BED95E163EC75E00E946512F8012A
:1008A00001900020E9F73197E01BF10B8BED95E10A
:1008B000BF010E94EF118BED95E16BED75E00E9499
:1008C00065128BED95E16DED75E00E94FD12C0E0C3
:1008D000D0E0F801EC0FFD1F6081772767FD709570
:1008E0008BED95E10E942C122196CA30D10589F733
:1008F0008BED95E16AE076E00E946512F701618177
:100900008BED95E170E00E942C128BED95E162E198
:1009100076E00E9465128BED95E16D2D70E00E94EE
:100920002C128BED95E16AE176E00E9465120E943F
:10093000E406BC018BED95E10E942C1281E090E071
:1009400064EB70E00E94B259EC011886C658DF4F84
:1009500018822296D8821A92CB57D04010929318C0
:1009600080E297E1BE0140E00E94E14A80E297E127
:10097000BE01A701980101E0EE240E94DC4B80E259
:1009800097E1BE010E94E84664EF71E080E090E0EC
:100990000E940F028BED95E169E276E00E946512FC
:1009A0006091FC18772767FD70958BED95E10E94AB
:1009B0002C128091FC188823D1F48BED95E169E429
:1009C00076E00E94FD128CED95E16DE041E00E9421
:1009D000581464EF71E080E090E00E940F028CED0B
:1009E00095E16DE040E00E94581400E019C08BEDE5
:1009F00095E16DE676E00E94FD128CED95E16CE0EC
:100A000041E00E94581464EF71E080E090E00E94A1
:100A10000F028CED95E16CE040E00E94581401E07B
:100A2000CE010E947B5A802FDF91CF911F910F91B1
:100A3000FF90EF90DF900895EF92FF920F931F9336
:100A40000BED15E1C80161E077E00E94651260E2FC
:100A5000E62E67E1F62EC7010E94C14C4091EF19C6
:100A600050E060E070E0C80120E130E00E943C12FC
:100A70004091F01950E060E070E0C80120E130E002
:100A80000E945A12C80160E177E00E946512C70116
:100A90000E94034D4091E71950E060E070E0C8010A
:100AA00020E130E00E943C124091E81950E060E003
:100AB00070E0C80120E130E00E943C124091E91949
:100AC00050E060E070E0C80120E130E00E943C129C
:100AD0004091EA1950E060E070E0C80120E130E0A8
:100AE0000E943C124091EB1950E060E070E0C801B8
:100AF00020E130E00E943C124091EC1950E060E0AF
:100B000070E0C80120E130E00E943C124091ED19F4
:100B100050E060E070E0C80120E130E00E943C124B
:100B20004091EE1950E060E070E0C80120E130E053
:100B30000E945A12C8016EE177E00E946512C70157
:100B40000E94E23C40914A1850E060E070E0C80129
:100B500020E130E00E945A121F910F91FF90EF9018
:100B60000895EF92FF920F931F93CF93DF93EC01C1
:100B70000E94F7017B018C0180E297E10E94A14C69
:100B80008091FA19882309F481C00E94F7016E1937
:100B90007F09800B910B605C744D8140904008F0A0
:100BA00075C08BED95E168E277E00E94FD12CE0101
:100BB0000E941C0560E777E180E090E00E940F0250
:100BC00080E297E10E94A14CCE010E94BC03D8CFE5
:100BD00080E297E160E00E94454D80E297E10E944B
:100BE000C53C8BED95E16CE477E00E94FD128CED45
:100BF00095E16DE041E00E94581460ED77E080E0FF
:100C000090E00E940F028CED95E16DE040E00E94C3
:100C10005814CE010E941C0580E031C08BED95E197
:100C20006BE777E00E94FD128CED95E16CE041E00E
:100C30000E9458146CE271E080E090E00E940F0284
:100C40008CED95E16CE040E00E9458146CE271E09C
:100C500080E090E00E940F028CED95E16CE041E0B5
:100C60000E9458146CE271E080E090E00E940F0254
:100C70008CED95E16CE040E00E94581481E0DF913A
:100C8000CF911F910F91FF90EF9008958091FA19E5
:100C9000882321F69DCF0F931F93CF93DF93EC0111
:100CA0008B0180E297E162E041E021E00E941A4E70
:100CB00080E297E10E94654C80E297E10E94164C29
:100CC00068EE73E080E090E00E940F0280E297E11E
:100CD000B8010E940D3B882329F48BED95E165E96D
:100CE00077E004C08BED95E16FE977E00E94FD129B
:100CF00080E297E16FE34FEF0E940D3C882329F4D7
:100D00008BED95E16CEA77E004C08BED95E163EC47
:100D100077E00E94FD1280E297E163E00E94404983
:100D2000882329F48BED95E16DED77E004C08BED20
:100D300095E16AEF77E00E94FD1280E297E161E0C1
:100D40000E94454D882329F48BED95E16AE178E016
:100D500004C08BED95E164E378E00E94FD1280E22F
:100D600097E10E94C53C80E297E10E94444C68EB09
:100D70007BE080E090E00E940F0280E297E10E9419
:100D8000654C80E297E10E94164C68EB7BE080E0C6
:100D900090E00E940F02CE010E94B105882341F429
:100DA0008BED95E161E578E00E94FD1280E007C0DF
:100DB0008BED95E16BE678E00E94FD1281E0DF911A
:100DC000CF911F910F910895DF93CF9300D0CDB7AE
:100DD000DEB72091481F3091491FCE0101962115A1
:100DE000310519F48C549F4102C0821B930B9A83E6
:100DF000898389819A810F900F90CF91DF91089517
:100E0000CF93DF93EC01DB0190E030E05FEF4EEF3A
:100E100018C0FE01E30FF11D2485E92FF0E0892FB2
:100E20008F5F222349F4EA0FFB1F5083FD01E80F77
:100E3000F11D40839E5F04C0EA0FFB1F2083982FA3
:100E40003F5F8B85381728F3A90FB11D1C92DF91E6
:100E5000CF9108950895EF92FF920F931F937C0115
:100E60008B0140917B1550917C1560917D1570919F
:100E70007E1587E495E120E130E00E945909F701F1
:100E80009081F801E90FF11D20917F1520839F5F6C
:100E9000F7019083090F111D20918015F80120831F
:100EA0009F5FF70190839091E2149E5F9093E2140C
:100EB0001F910F91FF90EF900895EF92FF920F9383
:100EC0001F937C018B01609178157091791580E0FA
:100ED00090E00E942F58AB01BC0187E495E128E027
:100EE00030E00E945909F7019081090F111D2091EE
:100EF0007A15F80120839F5FF70190839091E214A7
:100F00009F5F9093E2141F910F91FF90EF900895CF
:100F1000EF92FF920F931F937C018B01409172150A
:100F200050917315609174157091751587E495E172
:100F300024E030E00E945909F7019081F801E90F9F
:100F4000F11D2091761520839F5FF7019083090F93
:100F5000111D20917715F80120839F5FF701908381
:100F60009091E2149E5F9093E2141F910F91FF9075
:100F7000EF900895EF92FF920F931F937C018B01E6
:100F800040916D1550916E1560916F1570917015AF
:100F900087E495E122E030E00E945909F701908151
:100FA000090F111D20917115F80120839F5FF70132
:100FB00090839091E2149F5F9093E2141F910F91A0
:100FC000FF90EF900895EF92FF920F931F937C0193
:100FD0008B0140916715509168156091691570916A
:100FE0006A1587E495E121E030E00E945909F70194
:100FF0009081F801E90FF11D20916B1520839F5F0F
:10100000F7019083090F111D20916C15F8012083C1
:101010009F5FF70190839091E2149E5F9093E2149A
:101020001F910F91FF90EF9008950F931F930BED79
:1010300015E1C80166EC78E00E946512C80164ED14
:1010400078E00E94FD121F910F9108954F925F92D8
:101050006F927F928F929F92AF92BF92CF92DF92C8
:10106000EF92FF920F931F93DF93CF930F92CDB721
:10107000DEB75C012B016A0182E08983D5011B96F2
:101080008C931B971C96DC921C971D964C936CE0DE
:10109000862E912C8A0C9B1C0BE514E122E051E07A
:1010A000E52EF12C3E010894611C711CC7018C21B6
:1010B0009D21892B39F0D801ED91FC91C301B40138
:1010C000099520E00E5F1F4FB4E10B371B0719F0A5
:1010D000EE0CFF1CEBCF722EE2E02E1749F48BEDE5
:1010E00095E163EE78E00E94FD127724739485C049
:1010F000222309F082C0D5011B968C9190E0880FC5
:10110000991F019661E070E00E94B259992EE82E75
:10111000F92E882EC5016E2D792D0E9400078BEDCA
:1011200095E165EF78E00E946512AE2DB92DFD01C5
:1011300001900020E9F73197EA1BFB0B8BED95E15D
:10114000BF010E94EF118BED95E16DEF78E00E94F9
:101150006512650100E010E00BC0F601638577279A
:1011600067FD70958BED95E10E942C120F5F1F4F6C
:101170000894C11CD11CD5011B968C9190E00817D6
:1011800019075CF300E010E00DC0F701E00FF11F5C
:101190006081772767FD70958BED95E10E942C1299
:1011A0000F5F1F4FF501838590E0880F991F081787
:1011B00019075CF38BED95E16FEF78E00E94651203
:1011C000D5011B966C918BED95E170E00E942C127D
:1011D0008BED95E163E279E00E9465128BED95E17C
:1011E000B4010E94FD1283E794E1B2014AE0940148
:1011F0000E943F04C4010E947B5A872D0F90CF911B
:10120000DF911F910F91FF90EF90DF90CF90BF90F3
:10121000AF909F908F907F906F905F904F900895C8
:10122000FC01138212828FEE9BE0918380831782F0
:1012300016828EE89BE095838483138612868DE365
:101240009BE0918780871786168680E59CE09587CE
:101250008487138A128A8FEB9AE0918B808B178A8E
:10126000168A89E19AE0958B848B138E128E82E127
:101270009AE0918F808F178E168E8BE09AE0958F73
:10128000848FFA9620E08091251A9091261A8193F6
:1012900091932F5F2830B9F7089587E495E10E9474
:1012A000100908958BED95E167E479E00E946512DD
:1012B0000895CF92DF92EF92FF920F931F93CF93F7
:1012C000DF93EC017A018B012430310509F45DC014
:1012D0002530310544F42130310571F022303105DB
:1012E00009F088C04CC02830310509F46DC02031A8
:1012F000310509F07FC06FC0CB01BA0120E030E0BA
:1013000040E252E40E942E5720E030E048EC52E4E4
:101310000E94E5580E9403587B018C016B01DCA2FE
:101320006DA38BED95E166E579E00E9465128BED8A
:1013300095E1B7010E942C128BED95E16BE579E008
:101340000E9465126CA18BED95E170E00E942C1259
:101350008BED95E166E679E00E9465126DA18BED5B
:1013600095E170E00E942C1240E09CA180E02DA14C
:10137000820F911DE816F90609F042C042C0CB0168
:10138000BA010E9403586AA724C08BED95E161E77A
:1013900079E00E9465128BED95E1B801A7010E94EA
:1013A000F212C801B70120E030E048EC52E40E949C
:1013B000E55820E030E543E457E40E942D570E94B1
:1013C00003587FA768AB0DC0CB01BA010E94035838
:1013D0006BAB40E016C0CB01BA010E94035878AF56
:1013E00069AF40E0372F20E0260F311D62177307E9
:1013F00039F407C08BED95E16DE779E00E94FD12AD
:1014000041E0842FDF91CF911F910F91FF90EF90DA
:10141000DF90CF9008958BED95E16FE879E00E9421
:10142000FD1208958BED95E16CEA79E00E94FD12C2
:1014300008958BED95E167EC79E00E94FD12089527
:10144000DF92EF92FF920F931F93CF93DF93EC0104
:101450007B016115710541F48BED95E163EE79E057
:101460000E94FD1281E083C06830710509F58E8508
:101470009F852C853D8580FF0EC0FC01F595E79585
:10148000EC0FFD1F0190F081E02DE20FF31F0190A2
:10149000F081E02D01C0F901959587958C0F9D1F76
:1014A00009958BED95E163E27AE00E94FD125EC042
:1014B0008BED95E16BE67AE00E9465128BED95E18C
:1014C000B7010E942C128BED95E162EA7AE00E944E
:1014D000FD128AED95E10E948D118AED95E160E0A3
:1014E0000E94651164E670E080E090E00E940F02C7
:1014F00001E010E0DD2432C0C8018E219F21892B3C
:1015000051F18D2D90E0880F991F880F991FFE01D2
:10151000E80FF91F22813381DC0120FF12C0F9019D
:10152000F595E795EC0FFD1FAC0FBD1F0190F08105
:10153000E02D8D919C91E80FF91F0190F081E02D35
:1015400004C0AC0FBD1FED91FC9135952795CE01E0
:10155000820F931F0995000F111FD3948091241AB5
:10156000D81650F28AED95E10E94891180E0DF9152
:10157000CF911F910F91FF90EF90DF900895CF9240
:10158000DF92EF92FF920F931F93CF93DF936C0143
:101590008BED95E16FEE7AE00E94FD1280E090E025
:1015A000A0E0B0E0F60184AB95ABA6ABB7AB8BED9A
:1015B00095E169E07BE00E94FD128AED95E164E02F
:1015C00070E041E00E9451118AED95E160E044E055
:1015D00050E00E94A70D0E94F7017B018C0106C01C
:1015E0008AED95E164E070E00E94490F0E94F701E6
:1015F0006E197F09800B910B6053754780409040B6
:1016000078F3C0E0D0E0F601E4A8F5A806A917A990
:101610008AED95E164E070E00E94490F9B01AC0106
:10162000C801B7010E942E57F60164AB75AB86ABBB
:1016300097AB2196CA30D10531F78AED95E161E08B
:1016400044E050E00E94A70DF60164A975A986A99F
:1016500097A920E030E048EC52E40E94E558F601FA
:1016600064AB75AB86AB97ABDF91CF911F910F91B8
:10167000FF90EF90DF90CF900895CF92DF92EF929E
:10168000FF920F931F93CF93DF936C018BED95E146
:101690006FE17BE00E94FD1280E090E0A0E0B0E00E
:1016A000F60183A794A7A5A7B6A78AED95E160E008
:1016B00042E050E00E94A70DC0E0D0E0F601E3A4B4
:1016C000F4A405A516A58AED95E162E070E00E94FC
:1016D000490F9B01AC01C801B7010E942E57F601CA
:1016E00063A774A785A796A764E670E080E090E002
:1016F0000E940F022196CA30D10501F78AED95E1CB
:1017000061E042E050E00E94A70DDF91CF911F9170
:101710000F91FF90EF90DF90CF900895CF92DF92DE
:10172000EF92FF920F931F93CF93DF936C018BED9A
:1017300095E16EE37BE00E94FD1280E090E0A0E086
:10174000B0E0F60186A397A3A0A7B1A78AED95E123
:1017500060E041E050E00E94A70DC0E0D0E0F6015B
:10176000E6A0F7A000A511A58AED95E161E070E083
:101770000E94490F9B01AC01C801B7010E942E577E
:10178000F60166A377A380A791A764E670E080E0E6
:1017900090E00E940F022196CA30D10501F78AED30
:1017A00095E161E041E050E00E94A70DF60166A1DD
:1017B00077A180A591A520E030E040E251E40E94AD
:1017C0009657F60166A377A380A791A7DF91CF91E3
:1017D0001F910F91FF90EF90DF90CF900895CF92DF
:1017E000DF92EF92FF920F931F93CF93DF936C01E1
:1017F0008BED95E16DE57BE00E94FD1280E090E0CD
:10180000A0E0B0E0F60180A391A3A2A3B3A38AED68
:1018100095E160E040E050E00E94A70DC0E0D0E01C
:10182000F601E0A0F1A002A113A18AED95E160E02C
:1018300070E00E94490F9B01AC01C801B7010E94F2
:101840002E57F60160A371A382A393A364E670E010
:1018500080E090E00E940F022196CA30D10501F786
:101860008AED95E161E040E050E00E94A70DF601AD
:1018700060A171A182A193A120E030E040E251E497
:101880000E949657F60160A371A382A393A3DF91F0
:10189000CF911F910F91FF90EF90DF90CF9008951F
:1018A000EF92FF920F931F93CF93DF937C018BED09
:1018B00095E16FE77BE00E94FD12F70112AA11AAE1
:1018C000C0E0D0E0F70101A912A981E995E10E94E9
:1018D000960C080F111DF70112AB01AB64E670E026
:1018E00080E090E00E940F022196CA30D10551F7A6
:1018F000F70181A992A96AE070E00E94485972AB91
:1019000061ABDF91CF911F910F91FF90EF90089500
:10191000089589E261E00E944B0388E261E00E9441
:101920004B038FE79AE10E944C500895EF92FF928B
:101930000F931F9389E161E00E944B0389E161E00D
:101940000E94690380E00E942654AA2797FDA09573
:10195000BA2FBC01CD010E9431587B018C0120E0DF
:1019600030E040E054E40E949257882334F489E147
:1019700060E00E94690310E046C0C801B70120E0A2
:1019800030EC42E254E40E94E158181634F489E144
:1019900060E00E94690314E636C0C801B70120E088
:1019A00030EC42E254E40E9492571816BCF0C80191
:1019B000B70120E030EC47E054E40E94E1581816EB
:1019C0006CF4C801B70125E535E545E55FE30E9404
:1019D000E55820E030E04DED53E40CC0C801B701FC
:1019E00020E030E040EA5EE30E94E55820E030E08D
:1019F00040E253E40E942D570E940358162F89E1BC
:101A000060E00E946903812F1F910F91FF90EF907A
:101A1000089508950F931F93CF93DF93EC01042F44
:101A20006FA380E361E00E944B031FA1113019F006
:101A3000103199F40DC080E361E00E946903013028
:101A400019F482E08A8B09C0002339F41A8B05C08F
:101A500080E360E00E9469031A8ADF91CF911F91B1
:101A60000F910895882777FD8095982F0E9431580F
:101A700020E030E44EE455E40E94E55820E030ECEC
:101A80004FE754E40E9496572AE939E949E15FE3B8
:101A90000E94965720E030E042E053E40E942D5728
:101AA00020E030E44CE955E40E9496572CE53FE8ED
:101AB00042EC5DE30E942E5720EE3DE240E15CE304
:101AC0000E9496570895882777FD8095982F0E9449
:101AD000315820E030E44EE455E40E94E55820E01F
:101AE00030EC4FE754E40E94965720E030E04AEF94
:101AF00053E40E942D5720E030E040E251E40E9480
:101B000096570895882777FD8095982F0E94315821
:101B100020E030E44EE455E40E94E55820E030EC4B
:101B20004FE754E40E9496572AE939E949E15FE317
:101B30000E94965720E030E048E454E40E942D577C
:101B400020E030E048EF51E40E9496570895CF938B
:101B5000DF93EC01662309F042C04031510509F4DE
:101B600068C04131510560F444305105F9F0483006
:101B7000510509F45AC04230510509F073C014C030
:101B800040345105A9F04134510528F44032510543
:101B900009F068C04CC082E040305807D1F0405096
:101BA000504109F05FC00AC085E044C088E042C0EF
:101BB00082E061E00E94690384E03CC086E061E06D
:101BC0000E94690382E061E00E94690381E08883EA
:101BD0004AC08AE061E00E94690387E02BC061305F
:101BE00011F080E040C04032510519F141325105F9
:101BF00050F444305105C9F040315105C1F0423034
:101C0000510581F50CC082E04030580729F180E190
:101C100040305807B9F04034510521F50DC085E03A
:101C200060E00E94690381E01EC088E0F9CF89E08E
:101C3000F7CF89E061E0F5CF82E060E00E946903C0
:101C400084E0EECF86E060E00E94690382E060E01D
:101C50000E9469031882E7CF8AE060E00E9469036E
:101C600087E0DECF8FEFDF91CF910895EF92FF9263
:101C70000F931F93CF93DF937C0181E0603078074F
:101C800009F458C0E1E061307E0720F46038710546
:101C900051F40CC0F4E060307F0709F493C0605049
:101CA000784009F4BCC0CFEFDFEFEBC084E061E027
:101CB0000E9469036EE070E080E090E00E940F02F5
:101CC00084E060E00E94690364EC73E080E090E0EF
:101CD0000E940F0286E060E00E9469036AE070E003
:101CE00080E090E00E940F0282E061E00E946903C0
:101CF00063E070E080E090E00E940F0287E00E94C5
:101D00002654EC0162E070E080E090E00E940F0257
:101D100082E060E00E94690368E070E080E090E0AB
:101D20000E940F02F7018081882309F4AAC086E08F
:101D300061E072C086E060E00E94690364E070E0E8
:101D400080E090E00E940F0284E061E00E9469035D
:101D500062E070E080E090E00E940F0282E061E0CB
:101D60000E94690365E070E080E090E00E940F024D
:101D700087E00E942654182F092F82E060E00E941D
:101D8000690367E070E080E090E00E940F0284E069
:101D900060E00E94690362E070E080E090E00E94F1
:101DA0000F02F7018081882321F086E061E00E9424
:101DB0006903812F902F9C01E90166EE70E080E0BD
:101DC00090E05DC087E061E00E9469036EE070E032
:101DD00080E090E00E940F0287E060E00E946903CB
:101DE00064ED73E080E090E00E940F028AE061E021
:101DF0000E94690363E070E080E090E00E940F02BF
:101E000086E00E942654EC0162E070E080E090E001
:101E10000E940F028AE060E00E94690332C087E0FE
:101E200061E00E94690362E070E080E090E00E945F
:101E30000F028AE061E00E94690364E070E080E0E4
:101E400090E00E940F0286E00E942654EC0161E0BF
:101E500070E080E090E00E940F028AE060E00E9463
:101E6000690367E070E080E090E00E940F0287E085
:101E700060E00E9469036CEE70E080E090E00E94F8
:101E80000F02CE01DF91CF911F910F91FF90EF9044
:101E900008950F931F93CF93DF93EC016032710588
:101EA00009F460C061327105D0F46230710509F443
:101EB0004FC06330710538F461157105C9F16130A7
:101EC000710589F53DC06830710509F449C060317C
:101ED000710509F447C06430710529F541C082E0FD
:101EE0006030780709F46BC082E06130780768F4ED
:101EF0006038710509F45BC081E06030780709F44F
:101F00005AC06034710579F42FC088E060307807DA
:101F100009F45DC080E16030780709F446C0605084
:101F2000744009F450C060E070E080E89FEB68C046
:101F300081E00E942654BC01CE010E94630D60C066
:101F400084E00E942654BC01CE010E94820D58C03C
:101F500085E00E942654BC01CE010E94320D50C083
:101F600083E02EC082E02CC086E060E00E9469031E
:101F70006AE070E080E090E00E940F0287E00E943B
:101F800026548C016AE070E080E090E00E940F022D
:101F90008881882321F086E061E00E946903B8010E
:101FA000882777FD8095982F1DC087E009C0CE0156
:101FB00060E870E00FC0CE0160E071E00BC086E029
:101FC0000E94265409C0CE0160E074E003C0CE0137
:101FD00060E078E00E94360EAA2797FDA095BA2F00
:101FE000BC01CD010E94315823E333E343E550E4C3
:101FF0000E94E55820E030EC4FE754E40E949657E9
:10200000DF91CF911F910F9108950F931F93162F7A
:10201000042F80917F1A882321F48FE79AE10E9490
:102020008D5064E670E080E090E00E940F028FE740
:102030009AE1612F0E9441508FE79AE160E170E0E0
:102040000E947A50802F90E001979695982F8827CC
:10205000979587956CE97FEF0E945C5960588FE7F0
:102060009AE10E9456508FE79AE10E947D5080913C
:102070007F1A882391F08091731B882371F48091DB
:10208000A515813051F081E995E10E94890C83E921
:1020900095E160E141E00E940A0D1F910F910895C2
:1020A000613049F0613028F0623039F0643061F419
:1020B00008C068E203C06CE201C06EE20E94051035
:1020C00008956AE20E9405100895DF92EF92FF9250
:1020D0000F931F93D62E79018A0180917F1A88234E
:1020E00021F48FE79AE10E948D5064E670E080E071
:1020F00090E00E940F028FE79AE16D2D0E944150FF
:102100008FE79AE160E070E00E947A50C801B70161
:1021100020E030E040E053E40E94E55820E030E069
:1021200048EC52E40E9496579B01AC0160E070E0DD
:1021300080E093E40E942D570E9403589B01AC015C
:102140008FE79AE1622F0E9456508FE79AE10E9432
:102150007D5080917F1A882391F08091731B882392
:1021600071F48091A515813051F081E995E10E94CB
:10217000890C83E995E160E141E00E940A0D1F911D
:102180000F91FF90EF90DF900895603131F0603251
:1021900041F0683049F46CE201C06EE20E946510C3
:1021A00008956AE20E9465100895BF92CF92DF926F
:1021B000EF92FF920F931F93CF93DF936C01EB018C
:1021C000B42E78018901C801B70120E030E048EC65
:1021D00052E40E94E158181614F480E058C085E6D5
:1021E0008B1510F48EEF53C0C038D105D9F1C1382A
:1021F000D10598F4C031D10561F1C131D10530F478
:10220000C430D10519F12897F9F420C0C032D105A6
:1022100001F1C034D105C1F425C084E0C030D80735
:1022200051F184E0C130D80740F481E0C030D807D4
:10223000C9F0C050D24041F41EC088E0C030D80779
:10224000D1F0C050D04171F08FEF21C0C60160E0E5
:102250001AC0C60168E0A80197010E94C510C60116
:1022600061E011C0C60160E1A80197010E94C5109C
:10227000C60162E008C0C60160E2A80197010E94A1
:10228000C510C60164E04B2D0E94501081E0DF9123
:10229000CF911F910F91FF90EF90DF90CF90BF9063
:1022A00008950F931F936430710529F0683071050C
:1022B00011F08FEF07C000E010E020E030E00E9456
:1022C000D51081E01F910F910895662321F06130B0
:1022D000B1F080E008958AE161E00E94690388E13D
:1022E00061E00E9469038091A515882331F483E998
:1022F00095E161E041E00E940A0D81E008958AE1E4
:1023000060E00E94690388E160E00E94690381E067
:10231000089561E00E946511089560E00E946511D2
:10232000089584E061E00E944B0386E061E00E9432
:102330004B0387E061E00E944B0388E061E00E946C
:102340004B0389E061E00E944B038AE061E00E9458
:102350004B0382E061E00E944B038AE161E00E944E
:102360004B0388E161E00E944B0384E060E00E943F
:10237000690386E060E00E94690387E060E00E94F4
:10238000690388E060E00E94690389E060E00E94E0
:1023900069038AE060E00E94690382E060E00E94D5
:1023A00069038AE160E00E94690388E160E00E94BD
:1023B000690308958AED95E10E94911108951092A4
:1023C000DB1508950F93FC01CB01BA012AE030E040
:1023D00040E050E000810E945D550F910895AB01EF
:1023E00060E070E00E94E21108950F931F938C014A
:1023F0008DE0F80160810E9436558AE0F801608125
:102400000E9436551F910F910895EF92FF920F93FE
:102410001F93CF93DF93EC017A018B0177FF0CC000
:102420008DE268810E94365510950095F094E094F5
:10243000E11CF11C011D111DC801B7012AE030E0AB
:1024400040E050E008810E945D55DF91CF911F91DF
:102450000F91FF90EF9008950F931F938C01AB01A4
:10246000662757FD6095762F0E940512C8010E94CD
:10247000F5111F910F9108950F931F93FC01DA013D
:102480008B012115310529F4842F60810E94365576
:102490000EC02A30310519F40E94051208C030E040
:1024A00040E050E0BD01C80100810E945D551F91D0
:1024B0000F9108950F931F938C010E943C12C80145
:1024C0000E94F5111F910F910895FC01CB016081CD
:1024D0000E94475508959F92AF92BF92CF92DF928C
:1024E000EF92FF920F931F93CF93DF93EC017A014A
:1024F0008B01922ECB01BA0120E030E040E050E0A9
:102500000E949257882344F48DE268810E943655D8
:1025100017FB109517F9109520E030E040E05FE3DD
:10252000AA240BC0CA01B90120E030E040E251E426
:102530000E9496579B01AC01A394A91498F3C8017B
:10254000B7010E942E575B016C010E9403587B016A
:102550008C01CE01B801A7010E94E211992029F057
:102560008DE99BE068810E944755C801B7010E9430
:102570002F589B01AC01C601B5010E942D5720C008
:1025800020E030E040E251E40E94E5587B018C01FC
:102590000E94FE575B016C01CC24B7FCC094DC2C7C
:1025A000CE01B601A5010E940512C601B5010E9427
:1025B00031589B01AC01C801B7010E942D579A9474
:1025C0009920F1F6DF91CF911F910F91FF90EF903D
:1025D000DF90CF90BF90AF909F9008952AE00E9427
:1025E0006B1208950F931F938C010E94EE12C80185
:1025F0000E94F5111F910F9108950F931F938C0165
:10260000CB01F80160810E944755C8010E94F51175
:102610001F910F910895FC0160E076E980E090E061
:1026200040810E9457560895FB0120E030E002C02F
:102630002F5F3F4F81918823D9F7C90108950F93E8
:102640001F93CF93DF938B01BA01DA0140E050E092
:10265000C22FD0E019C0F801E40FF51F8081982F38
:1026600092959F708F709A3010F4905D01C0995CC4
:102670009C938A3010F4805D01C0895C11968C9324
:1026800011974F5F5F4F12964C175D0724F3CC0FE5
:10269000DD1FC60FD71F1882DF91CF911F910F91B9
:1026A000089528E00E941F130895FB019081892F4F
:1026B00080538A3038F4292F332727FD3095205353
:1026C00030400DC0892F8154863018F020E030E072
:1026D00007C0292F332727FD3095275330403196E7
:1026E0006081862F80538A3030F4772767FD70959C
:1026F000605370400CC0862F8154863018F060E023
:1027000070E005C0772767FD709567537040A4E0BF
:10271000220F331FAA95E1F7862F820F08956833A1
:10272000A1F1693380F4643341F1653338F46233E5
:1027300001F1633300F56133D1F417C0663309F159
:10274000673308F51CC0633441F1643438F46134F4
:1027500001F1623400F5693351F419C0653409F1AF
:102760006534E8F0663419F41EC081E01DC080E0D5
:102770001BC082E019C083E017C084E015C085E06B
:1027800013C086E011C087E00FC088E00DC089E06B
:102790000BC08AE009C08BE007C08CE005C08DE06B
:1027A00003C08EE001C08FE04733A1F1483380F4CD
:1027B000433341F1443338F44133F1F0423300F50F
:1027C0004033E1F51BC0453309F1463308F51CC021
:1027D000423441F1433438F4493301F14933E0F0F4
:1027E000413461F51DC0443409F14434E8F0453406
:1027F000F9F04634F9F0089591E01DC090E01BC057
:1028000092E019C093E017C094E015C095E013C0A2
:1028100096E011C097E00FC098E00DC099E00BC0A2
:102820009AE009C09BE007C09CE005C09DE003C0A2
:102830009EE001C09FE08295807F890F08950895F2
:102840008FE261E00E944B0384E261E00E944B034F
:1028500085E261E00E944B038FE261E00E94690320
:1028600084E261E00E94690385E261E00E946903FD
:1028700008950F931F93162F042F8FE261E00E949B
:102880004B0384E261E00E944B0385E261E00E9419
:102890004B038FE261E00E94690384E2612F0E9492
:1028A000690385E2602F0E9469031F910F910895CB
:1028B0000F931F93162F042F862F61E00E944B0366
:1028C000013019F4812F61E004C0002321F4812F2D
:1028D00060E00E9469031F910F91089510921C17E8
:1028E00010921E170895EF92FF920F931F93CF93AC
:1028F000DF93EC017A018B0177FF0CC08DE26881D8
:102900000E94365510950095F094E094E11CF11C5E
:10291000011D111DC801B7012AE030E040E050E080
:1029200008810E945D55DF91CF911F910F91FF901B
:10293000EF9008950F931F93FC01DA018B0121158D
:10294000310529F4842F60810E94365516C02A3043
:10295000310519F40E94731410C02031310529F497
:10296000842F60810E94FF5508C030E040E050E0B5
:10297000BD01C80100810E945D551F910F9108950E
:10298000FC0180810E94A0540895FC0180810E9476
:1029900065540895FC0180810E9441540895FC0112
:1029A0006183613019F06330B9F518C080818823E4
:1029B00011F486E111C08CED95E10E94201486E0AF
:1029C00061E00E944B0386E061E00E9469038AE2B5
:1029D00061E00E944B038AE261E005C080818823A8
:1029E00029F486E160E00E94690308958CED95E189
:1029F00060E040E00E94391486E061E00E944B03F1
:102A000086E060E00E9469038AE261E00E944B0375
:102A10008AE260E00E9469030895FC0180810E94BF
:102A200039560895FC01262F608360E070E0CB01E9
:102A3000BA01422F0E94575686E161E00E944B0383
:102A400008950F931F93CF93DF93DC018B01EC016B
:102A5000C658DD4F1982188240E0BE0106C04F5FA4
:102A60002F5F3F4FFB0131832083FB0120813181A8
:102A7000F801E20FF31F8081882389F7469583E0F0
:102A800090E09983888390E0ED01C658DD4F50E0D7
:102A90000BC0FD01E20FF31FE857FD4F8081980F37
:102AA0002F5F3F4F398328832881398124173507C9
:102AB00080F3892F8095A40FB51FA957BD4F8C9324
:102AC000DF91CF911F910F910895AF92BF92CF9256
:102AD000DF92EF92FF920F931F93CF93DF937C01CE
:102AE0008B0106551F4FD8018C910A5A1040F801EE
:102AF000E855FF4F813009F024C1C22EDD24DA01F0
:102B0000AC0DBD1D83E28C938081813009F446C0F9
:102B1000813020F0823009F038C2AAC011961C9290
:102B2000119701571F4FF80181918F0112968C93D5
:102B3000129780810059104013968C931397F701D8
:102B4000E658FD4F11821082EF01FCE7CF2EF2E034
:102B5000DF2ECE0CDF1CB70162587D4FAD010FC0D8
:102B6000FA01E20FF31FA00FB11FA20FB31F1C96B3
:102B70008C918483888199810196998388832881A7
:102B80003981F601A081B181FB018081918101969B
:102B90008A1B9B0B2817390718F3F7C111968C93E2
:102BA000B70166587D4FDB011D921C92EB0110C0EE
:102BB000FA01EA0FFB1FEC0DFD1DA00FB11FA55779
:102BC000BF4F8C91828388819981019699838883F4
:102BD000A881B981A430B10558F3FB01118210829C
:102BE000E701C658DD4F10C0FA01EA0FFB1FEC0DDC
:102BF000FD1DA00FB11FA957BF4F8C9186838881FF
:102C00009981019699838883A881B981A430B105FF
:102C100058F319821882E701C658DD4FECE7AE2E53
:102C2000E2E0BE2EAE0CBF1C970122583D4F11C0F2
:102C3000FA01E60FF71FEC0DFD1DA00FB11FA60F47
:102C4000B71F1C968C918287888199810196998300
:102C5000888368817981F501A081B181F901808142
:102C6000918101968A1B9B0B6817790708F38DC128
:102C700011968C93C0E0D0E0D701A658BD4F06C096
:102C8000E9016F5F7F4F11967C936E936D917C91FC
:102C90001197F801E60FF71FEF56FF4F80819E0155
:102CA0002F5F3F4F833261F71D921C92E701C65898
:102CB000DD4F10C0FA01EA0FFB1FEC0DFD1DA00F48
:102CC000B11FAF56BF4F8C91828388819981019645
:102CD00099838883A881B981A217B30758F3198211
:102CE0001882E701C658DD4F7CE7A72E72E0B72EA9
:102CF000AE0CBF1C8EE792E0E80EF91E13C0FA017D
:102D0000E60FF71FE20FF31FEC0DFD1DA00FB11F23
:102D1000A60FB71F1C968C9182838881998101969A
:102D20009983888368817981F501A081B181F70158
:102D30008081918101968A1B9B0B68177907F8F2B5
:102D400024C18081813009F446C0813020F0823076
:102D500009F01BC1AEC030E0FA01E20FF31F108290
:102D600001571F4FD8018D918D0181838C9100599E
:102D700010408283F701E658FD4F11821082EF0167
:102D80006CE7C62E62E0D62ECE0CDF1CEEE7F2E03A
:102D9000EE0EFF1E11C0FA01E60FF71FE20FF31F40
:102DA000A00FB11FA60FB71F1C968C91838388813B
:102DB000998101969983888368817981F601A08140
:102DC000B181F7018081918101968A1B9B0B681765
:102DD000790708F3DAC030E0FA01E20FF31F8083CD
:102DE000B70166587D4FDB011D921C92EB0110C0AC
:102DF000FA01EA0FFB1FE20FF31FA00FB11FA55747
:102E0000BF4F8C91818388819981019699838883B2
:102E1000A881B981A430B10558F3FB011182108259
:102E2000E701C658DD4F10C0FA01EA0FFB1FE20FA1
:102E3000F31FA00FB11FA957BF4F8C9185838881C5
:102E40009981019699838883A881B981A430B105BD
:102E500058F319821882E701C658DD4F9CE7C92E46
:102E600092E0D92ECE0CDF1C8EE792E0E80EF91E20
:102E700011C0FA01E60FF71FE20FF31FA00FB11FF9
:102E8000A60FB71F1C968C91818788819981019626
:102E90009983888368817981F601A081B181F701E6
:102EA0008081918101968A1B9B0B6817790708F333
:102EB0006CC0C22EDD24FA01EC0DFD1D8083C0E044
:102EC000D0E0D701A658BD4F06C0E9016F5F7F4F24
:102ED00011967C936E936D917C911197F801E60F9A
:102EE000F71FEF56FF4F80819E012F5F3F4F8332C8
:102EF00061F71D921C92E701C658DD4F10C0FA0120
:102F0000EA0FFB1FEC0DFD1DA00FB11FAF56BF4F09
:102F10008C91818388819981019699838883A88186
:102F2000B981A217B30758F319821882E701C6586E
:102F3000DD4F8CE7A82E82E0B82EAE0CBF1C8EE7CA
:102F400092E0E80EF91E13C0FA01E60FF71FE20F38
:102F5000F31FEC0DFD1DA00FB11FA60FB71F1C9690
:102F60008C91818388819981019699838883688176
:102F70007981F501A081B181F7018081918101966C
:102F80008A1B9B0B68177907F8F2DF91CF911F918D
:102F90000F91FF90EF90DF90CF90BF90AF9008958A
:102FA0003F924F925F926F927F928F929F92AF92D9
:102FB000BF92CF92DF92EF92FF920F931F93DF9316
:102FC000CF9300D000D0CDB7DEB76B014A017901B5
:102FD000AA24A39410E022E730E0C20ED31E21E31E
:102FE000422E9DE7792E83E3382EBEE56B2EADE5AC
:102FF0005A2E30C1D401A60FB71F8C91813111F028
:1030000090E04AC04C92F70180818F5F80838C9161
:103010007C926F5F7F4F9401260F371F3C832B8379
:1030200061507040FB013296FA83E98320C0EB8146
:10303000FC81B180418349815A814F5F5F4F329655
:10304000FC83EB8329813A812E5F3F4F3A832983AA
:10305000F70180819801280F311DC901F6012081F7
:103060003181820F931F48175907A8F48B2DEB81EC
:10307000FC8140818083F70180819801280F311DF8
:10308000C901F60120813181820F931F29813A8184
:103090002817390760F291E08C91833109F04DC017
:1030A000992309F04AC03C92F70180818F5F8083A9
:1030B0008C917C926F5F7F4F9401260F371F3C836A
:1030C0002B8361507040FB013296FA83E98320C064
:1030D000EB81FC81B180418349815A814F5F5F4F11
:1030E0003296FC83EB8329813A812E5F3F4F3A83EE
:1030F0002983F70180819801280F311DC901F6014C
:1031000020813181820F931F48175907A8F48B2D16
:10311000EB81FC8140818083F70180819801280F39
:10312000311DC901F60120813181820F931F298150
:103130003A812817390760F291E08C918E3709F0B7
:103140004DC0992309F04AC06C92F70180818F5FCE
:1031500080838C917C926F5F7F4F9401260F371F85
:103160003C832B8361507040FB013296FA83E983E4
:1031700020C0EB81FC81B180418349815A814F5F3E
:103180005F4F3296FC83EB8329813A812E5F3F4F5C
:103190003A832983F70180819801280F311DC901E5
:1031A000F60120813181820F931F48175907A8F437
:1031B0008B2DEB81FC8140818083F7018081980118
:1031C000280F311DC901F60120813181820F931F23
:1031D00029813A812817390760F291E02C912D3727
:1031E000C1F59923B1F55C92F70180818F5F8083EF
:1031F0008C912C936F5F7F4FF401E60FF71F6F5F89
:103200007F4F17C0B1804183AB014F5F5F4F329654
:103210006E5F7F4FD7018C919801280F311DC90136
:10322000D6012D913C91820F931F4817590788F4BE
:103230008B2D40818083D7018C919801280F311DFF
:10324000C901D6012D913C91820F931F6817790710
:10325000C8F2A3946A2D70E0F70180819801280FCD
:10326000311DC901D6012D913C91820F931F681722
:10327000790708F4BFCE0F900F900F900F90CF9169
:10328000DF911F910F91FF90EF90DF90CF90BF9053
:10329000AF909F908F907F906F905F904F903F90F6
:1032A0000895DF92EF92FF920F931F93CF93DF93D6
:1032B000890180E090E0F3E1DF2EEEE7EE2E31E1D0
:1032C000F32E37C02F5F3F4F9C919D3731F0119601
:1032D000319624173507B0F32DC02417350750F564
:1032E000E9012196E60FF71F8181833361F0843372
:1032F00018F4813369F405C08D3549F08E3541F4F9
:1033000004C0FC9205C0DC9203C0EC9201C09C9307
:1033100041505040F901E00FF11FE60FF71F02C0C6
:10332000818180832F5F3F4F3196CE01241735076F
:10333000B8F39C012417350738F4F901E00FF11FA9
:10334000DB01AE0FBF1FC0CFDF91CF911F910F9157
:10335000FF90EF90DF900895EF92FF920F931F93ED
:10336000CF93DF938C01EB017A01FC01E658FD4F0E
:103370002D5F3F4F3183208323503040A0E0B0E0E9
:10338000AF010BC0FE01E60FF71F8081A80FB11D32
:103390006F5F7F4FFA0171836083FA0160817181F1
:1033A0006E157F0578F3AF3FB10521F0AF3F11F007
:1033B00081E008C008521E4FC20FD31F8C81F80154
:1033C000808380E0DF91CF911F910F91FF90EF906C
:1033D0000895EF92FF920F931F93CF93DF93EC0129
:1033E000CA5BDD4FE8808DEEE80E24978881C254D9
:1033F000D240813009F0C9C0CD5DDE4FF880C352A4
:10340000D140FA948E0106581D4FD8011D921C928E
:10341000B8012F2D30E087E290E0289FA001299F7E
:10342000500D389F500D11244C0F5D1F11C0FA0133
:10343000EA0FFB1FE05AFF4FAC0FBD1FA85BBD4F4B
:103440008C918083FB01808191810196918380839F
:10345000FB01A081B181A230B10548F3D8011D92D2
:103460001C92AE0146585D4F2F2D30E087E290E070
:10347000289FB001299F700D389F700D11246C0F8B
:103480007D1F11C0FB01EA0FFB1FEE59FF4FAC0F70
:10349000BD1FA65BBD4F8C918083FA018081918115
:1034A000019691838083FA01A081B181A430B10596
:1034B00048F311821082BE0166587D4F2F2D30E0F7
:1034C00087E290E0289FA001299F500D389F500D62
:1034D00011244C0F5D1F12C0FA01EA0FFB1FEA59BD
:1034E000FF4FAC0FBD1FA25BBD4F8C918083DB01F2
:1034F0008D919C91119701968D939C93FB01A081D6
:10350000B181A430B10540F387E290E0289FF0013B
:10351000299FF00D389FF00D1124EC0FFD1FEA5785
:10352000FF4FCE5ADD4F8881C255D2408083E65886
:10353000F040AE014A5B5D4FDA018D919C910D9791
:1035400020F1DB011D921C929E0126583D4FBA01CD
:10355000AF0111C0FA01EA0FFB1FE659FF4FAC0F94
:10356000BD1FAD5ABD4F8C918083F901808191813F
:10357000019691838083F901A081B181FB01808153
:1035800091810C97A817B90728F3CE5BDD4F88818E
:10359000C254D2408250843008F047C1CD5DDE4F26
:1035A000F880C352D140FA948E0106581D4FD801BD
:1035B0001D921C92B8012F2D30E087E290E0289FE9
:1035C000A001299F500D389F500D11244C0F5D1FF5
:1035D00011C0FA01EA0FFB1FE05AFF4FAC0FBD1FED
:1035E000A85BBD4F8C918083FB0180819181019606
:1035F00091838083FB01A081B181A230B10548F3A2
:10360000D8011D921C92AE0146585D4F2F2D30E01F
:1036100087E290E0289FB001299F700D389F700DC0
:1036200011246C0F7D1F11C0FB01EA0FFB1FEE5927
:10363000FF4FAC0FBD1FA65BBD4F8C918083FA017D
:1036400080819181019691838083FA01A081B1816B
:10365000A430B10548F311821082AE0146585D4F87
:103660002F2D30E087E290E0289FB001299F700D58
:10367000389F700D11246C0F7D1F12C0FB01EA0FE3
:10368000FB1FEA59FF4FAC0FBD1FA25BBD4F8C91D2
:103690008083DA018D919C91119701968D939C9373
:1036A000FA01A081B181A430B10540F311821082EA
:1036B000AE0146585D4F0E2D10E02F2D30E087E211
:1036C00090E0289FB001299F700D389F700D112444
:1036D0006C0F7D1F12C0FB01EA0FFB1FE659FF4F65
:1036E000AC0FBD1FAE5ABD4F8C918083DA018D9116
:1036F0009C91119701968D939C93FA01A081B181C1
:10370000A017B10740F311821082BE0166587D4FA9
:103710002F2D30E087E290E0289FA001299F500DD7
:10372000389F500D11244C0F5D1F14C0FA01EA0F91
:10373000FB1FE258FF4FAC0FBD1FA00FB11FAD5ACA
:10374000BD4F8C918083DB018D919C9111970196E7
:103750008D939C93FB01A081B181A230B10530F320
:1037600087E290E0289FD001299FB00D389FB00DCF
:103770001124AC0FBD1FA058BF4FFE01EE0DF11D6F
:10378000EB5AFD4F81918D9380818C93A158B0406D
:10379000FB0111821082AE0146585D4FBD0114C07D
:1037A000FB01EA0FFB1FEE57FF4FAC0FBD1FA00F31
:1037B000B11FA95ABD4F8C918083DA018D919C91E4
:1037C000119701968D939C93FA01A081B181A2304B
:1037D000B10530F311821082BE0166587D4F87E239
:1037E00090E0289FA001299F500D389F500D112473
:1037F0004C0F5D1F14C0FA01EA0FFB1FEC57FF4F7F
:10380000AC0FBD1FA00FB11FA75ABD4F8C91808375
:10381000DB018D919C91119701968D939C93FB01F7
:10382000A081B181A230B10530F3DF91CF911F911A
:103830000F91FF90EF900895CF92DF92EF92FF9259
:103840000F931F93CF93DF93EC016B017A01B901C2
:10385000FC01E658FD4F0D5F1F4F1183008303509D
:103860001040A0E0B0E09F010BC0F601E40FF51F8F
:103870008081A80FB11D4F5F5F4FF90151834083D5
:10388000F901408151814617570778F3AF3FB105E1
:1038900019F0AF3F09F05AC0F601E00FF11F958112
:1038A000D70115968C911597981709F04FC09681FE
:1038B00016968C91981709F049C09B01201B310B7B
:1038C0002930310529F48781882309F442C03EC09C
:1038D00087818823D9F5FE01E658FD4F11821082B9
:1038E000BF012950304012C0FE01E40FF51FE85B14
:1038F000FD4FD601A40FB51FA00FB11F18968C91D4
:1039000080834F5F5F4FFB0151834083DB014D910B
:103910005C914217530740F3CA5BDD4F398328831C
:10392000C654D240F70185818E3491F48681843467
:1039300079F42230310530F0FE01ED5DFE4F8081DB
:103940008F5F8083CE010E94E91902C081E001C02F
:1039500080E0DF91CF911F910F91FF90EF90DF906A
:10396000CF900895FC01E658FD4F11821082DF01CF
:103970000BC0FC01E20FF31FE857FD4F10822F5FD1
:103980003F4F11963C932E932D913C9111972E31E0
:10399000310578F30895CF92DF92EF92FF920F9363
:1039A0001F93CF93DF936C01FC01E658FD4F11820A
:1039B00010828F01E62EFF24E701CC0FDD1FCC0F14
:1039C000DD1FCE0DDF1D1CC0EC0FFD1F3B96EE0F63
:1039D000FF1FEC0DFD1D808191810E947B5AD80153
:1039E0008D919C911197FE01E80FF91F3B96EE0F08
:1039F000FF1FEC0DFD1D1182108201968D939C938B
:103A0000D801ED91FC91E530F105F0F28701000F4E
:103A1000111F0C0D1D1D075B1F4FD801ED91FC916F
:103A200015AA16AA17AA10AECF010E947B5AF80158
:103A300011821082F601ED5AFF4F80818150808300
:103A4000DF91CF911F910F91FF90EF90DF90CF907A
:103A50000895AF92BF92CF92DF92FF920F931F9380
:103A6000CF93DF936C01FF2460E070E08C01065877
:103A70001D4FD8016D937C93EB01AA96CC0FDD1FEF
:103A8000CC0DDD1D23C05F010894A11CB11CA881D1
:103A9000B981A555BF4FBB96EE0FFF1FEC0DFD1D65
:103AA0000190F081E02DE555FF4F2D913D914D9115
:103AB0005C9180819181A281B38182179307A407D1
:103AC000B50754F4F394F801B182A082D801ED91C6
:103AD000FC91E430F105B8F2B4E0FB1621F4F62EC7
:103AE00065E070E002C0F62EF3946F5F7F4F6530A3
:103AF000710508F4BECF0F2D10E0065D1F4F000FBB
:103B0000111F0C0D1D1DF801808191810E947B5AAF
:103B1000D8011D921C928F2DDF91CF911F910F9193
:103B2000FF90DF90CF90BF90AF900895AF92BF927B
:103B3000CF92DF92FF920F931F93CF93DF936C018D
:103B4000FF2460E070E08C0106581D4FD8016D9392
:103B50007C93EB01AA96CC0FDD1FCC0DDD1D23C09D
:103B60005F010894A11CB11CA881B981A555BF4F64
:103B7000BB96EE0FFF1FEC0DFD1D0190F081E02DB7
:103B8000E555FF4F2D913D914D915C918081918143
:103B9000A281B381281739074A075B0754F4F394CD
:103BA000F801B182A082D801ED91FC91E430F105D9
:103BB000B8F2B4E0FB1621F4F62E65E070E002C026
:103BC000F62EF3946F5F7F4F6530710508F4BECF1A
:103BD0000F2D10E0065D1F4F000F111F0C0D1D1D56
:103BE000F801808191810E947B5AD8011D921C921C
:103BF0008F2DDF91CF911F910F91FF90DF90CF908C
:103C0000BF90AF9008950F931F93CF93DF938C01D4
:103C1000FC01E658FD4F11821082EF0116C0BA96E2
:103C2000EE0FFF1FE00FF11F808191810E947B5AF0
:103C3000888199818A96FC01EE0FFF1FE00FF11F2A
:103C400011821082899799838883E881F981E53010
:103C5000F10528F3DF91CF911F910F910895AF9255
:103C6000BF92CF92DF92EF92FF920F931F93CF9369
:103C7000DF93EC0109E4A02EB12CA80EB91EEE24AE
:103C8000FF241AE7C12E12E0D12EC80ED91ED6018C
:103C90001D921C928701000F111F000F111F0E0DA6
:103CA0001F1D1CC0E00FF11F3B96EE0FFF1FEC0F16
:103CB000FD1F808191810E947B5AF6018081918154
:103CC000F801E80FF91F3B96EE0FFF1FEC0FFD1FE9
:103CD000118210820196D6018D939C93D601ED91AD
:103CE000FC91E530F105F0F2D501ED91FC9115AABA
:103CF00016AA17AA10AECF010E947B5AF5011192A5
:103D000011925F010894E11CF11CF5E0EF16F1043B
:103D100009F0BDCFCD5ADF4F1882C65ADD4F188249
:103D200022961882DF91CF911F910F91FF90EF9013
:103D3000DF90CF90BF90AF900895AF92BF92CF9297
:103D4000DF92EF92FF920F931F93CF93DF93EC01DB
:103D5000FC01E355FD4F108260E070E01AE7A12EF0
:103D600012E0B12EA80EB91E7F01D5016D937C9390
:103D70008B01000F111F0C0F1D1F075B1F4F28C069
:103D8000D8018D919C916F010894C11CD11CF60142
:103D9000EE0FFF1FEC0FFD1FE75BFF4F0190F0815F
:103DA000E02DDC01D5962D913D914D915C91D897F8
:103DB00085A996A9A7A9B0AD281739074A075B07B7
:103DC0006CF4F70180818F5F8083D501CD92DC9206
:103DD000D501ED91FC91E430F10590F2F70180817D
:103DE000843021F4608365E070E004C0862F8F5F2B
:103DF000D7018C936F5F7F4F6530710508F4B5CFA5
:103E0000FE01E658FD4F118210828F017DEAE72EF8
:103E100072E0F72EEC0EFD1E2FC0F701808190E0BE
:103E2000FC01EE0FFF1FEE0FFF1FE80FF91FE20F5F
:103E3000F31F3B96EE0FFF1FEC0FFD1F808191815A
:103E40000E947B5AD7018C9190E0FC01EE0FFF1F7E
:103E5000EE0FFF1FE80FF91FD8018D919C9111976C
:103E6000E80FF91F3B96EE0FFF1FEC0FFD1F1182AD
:103E7000108201968D939C93F80120813181253029
:103E8000310558F2D701EC91F0E0EE0FFF1FEC0F77
:103E9000FD1FE75BFF4F0190F081E02D15AA16AAE8
:103EA00017AA10AEEC91F0E0EE0FFF1FEC0FFD1F14
:103EB000E75BFF4F808191810E947B5AD701EC9193
:103EC000F0E0EE0FFF1FEC0FFD1FE75BFF4F1182CD
:103ED0001082FE01ED5AFF4F808181508083C155D1
:103EE000DD4F1882DF91CF911F910F91FF90EF90DE
:103EF000DF90CF90BF90AF9008952F923F924F9256
:103F00005F926F927F928F929F92AF92BF92CF9269
:103F1000DF92EF92FF920F931F93DF93CF93CDB772
:103F2000DEB760970FB6F894DEBF0FBECDBF7C0141
:103F30006B01FC01E658FD4F118210822FEA32E03E
:103F4000E20EF31ED7018C9121E53DEFE20EF31E48
:103F5000882311F1DF0110C0F901EE0FFF1FEE0DF4
:103F6000FF1DE75BFF4F80819181892B59F02F5F07
:103F70003F4F11963C932E932D913C9111972530F4
:103F8000310550F34DEA52E0E40EF51ED7012C93B3
:103F9000E3E5FDEFEE0EFF1E2AE732E0E20EF31E30
:103FA000D7011D921C92E8ECFFEFEE0EFF1ED70129
:103FB0008C91EEEBFDEFEE0EFF1E813079F026E4E2
:103FC00032E0E20EF31ED7018D919C91EAEBFDEFFA
:103FD000EE0EFF1E0C9770F50C94773120E832E05E
:103FE000E20EF31ED7018C91E0E8FDEFEE0EFF1E0E
:103FF000882379F426E432E0E20EF31ED7018D9196
:104000009C91EAEBFDEFEE0EFF1E059798F40C94E1
:104010007731813079F426E432E0E20EF31ED701E5
:104020008D919C91EAEBFDEFEE0EFF1E0B9710F4C5
:104030000C94773100E010E06624882477249924DA
:10404000B70166587D4FE2E44E2EE2E05E2E4E0C44
:104050005F1C51E8252E52E0352E2E0C3F1C970197
:1040600020583D4F3E872D87DB011D921C92F801A1
:10407000EE0FFF1FEE0DFF1DE75BFF4F0190F0817C
:10408000E02D85A996A9A7A9B0AD181619061A069C
:104090001B060CF08CC3D2018C91813009F0D0C189
:1040A000AD85BE858C91882309F0E1C0D6011496B8
:1040B0009C9114978081981709F079C3AA24BB2496
:1040C00016968C91833219F431E0A32EB12C96010F
:1040D0002A0D3B1DD90116968C91DB011D921C9275
:1040E0008130A9F0813020F0823009F088C070C0A2
:1040F0009389D90117968C911797981709F07FC06B
:10410000948918968C91981709F079C07CC0FB01AE
:1041100011821082A801440F551F4E0D5F1D475B91
:104120005F4F17C0FA01A081B181A20FB31FF60142
:10413000E20FF31FEA0DFB1D1B969C9187819817D8
:1041400019F0882483940BC02F5F3F4FDB012D9320
:104150003C93FB01208131812430310518F3DB01D0
:104160001D921C92A801440F551F4E0D5F1D475B09
:104170005F4F14C0FA01A081B181A20FB31FF601F5
:10418000E20FF31FEA0DFB1D1F969C918385981784
:10419000A1F52F5F3F4FDB012D933C93FB01208165
:1041A00031812430310530F325C0992787FD909562
:1041B000F601E40FF51FEA0DFB1D278130E08217A1
:1041C0009307D9F44F5F5F4FFB015183408307C0D2
:1041D000D801AA0FBB1FAE0DBF1DA75BBF4FFB01D0
:1041E00040815181ED91FC911197E40FF51F858974
:1041F0008332D9F6882039F002C088248394F1E014
:104200006F1609F0D4C2702E21E0A216B10479F421
:10421000E02FF0E0EE0FFF1FEE0DFF1DE75BFF4FFD
:104220000190F081E02DD60115968C9182AFE72D9B
:10423000F0E0EE0FFF1FEE0DFF1DE75BFF4FA081CB
:10424000B181DB968C91DB978F5FDB968C9301902D
:10425000F081E02DD60112962C91129783A994A992
:10426000820F911D94AB83AB15969C90E3C0813077
:1042700009F09DC2D6011A969C911A9780819817D1
:1042800009F095C2AA24BB241C968C91833219F4A0
:10429000B1E0AB2EB12C96012A0D3B1DD9011C9625
:1042A0008C91DB011D921C928130A9F0813020F0AD
:1042B000823009F088C070C09389D9011D968C9115
:1042C0001D97981709F07FC094891E968C919817B6
:1042D00009F079C07CC0FB0111821082A801440F53
:1042E000551F4E0D5F1D475B5F4F17C0FA01A08140
:1042F000B181A20FB31FF601E20FF31FEA0DFB1D00
:104300001B969C918585981719F0882483940BC07F
:104310002F5F3F4FDB012D933C93FB0120813181C7
:104320002430310518F3DB011D921C92A801440FC3
:10433000551F4E0D5F1D475B5F4F14C0FA01A081F2
:10434000B181A20FB31FF601E20FF31FEA0DFB1DAF
:104350001F969C9181899817A1F52F5F3F4FDB0134
:104360002D933C93FB01208131812430310530F3C2
:1043700025C0992787FD9095F601E40FF51FEA0DFA
:10438000FB1D258530E082179307D9F44F5F5F4FFF
:10439000FB015183408307C0D801AA0FBB1FAE0D9C
:1043A000BF1DA75BBF4FFB0140815181ED91FC9187
:1043B0001197E40FF51F85898332D9F6882039F0EB
:1043C00002C088248394F1E06F1609F0F0C1702ECA
:1043D00021E0A216B10479F4E02FF0E0EE0FFF1F08
:1043E000EE0DFF1DE75BFF4F0190F081E02DD60140
:1043F0001B968C9182AFE72DF0E0EE0FFF1FEE0DC4
:10440000FF1DE75BFF4FA081B181DB968C91DB97AD
:104410008F5FDB968C930190F081E02DD60118968A
:104420002C91189783A994A9820F911D94AB83AB0B
:104430001B969C909A94B4E0B91508F0B4C1F8C6E4
:104440008250843008F0B3C1D1018C91882309F0E7
:10445000D2C0D6011B969C911B978081981709F0BA
:10446000A6C1AA24BB241D968C91833219F431E095
:10447000A32EB12C96012A0D3B1DD9011D968C91BE
:10448000DB011D921C928130A9F0813020F0823036
:1044900009F088C070C09389D9011E968C911E972F
:1044A000981709F07FC094891F968C91981709F08E
:1044B00079C07CC0FB0111821082A801440F551FF6
:1044C0004E0D5F1D475B5F4F17C0FA01A081B181A0
:1044D000A20FB31FF601E20FF31FEA0DFB1D1B969F
:1044E0009C918685981719F0882483940BC02F5FC0
:1044F0003F4FDB012D933C93FB0120813181243020
:10450000310518F3DB011D921C92A801440F551FC1
:104510004E0D5F1D475B5F4F14C0FA01A081B18152
:10452000A20FB31FF601E20FF31FEA0DFB1D1F964A
:104530009C9182899817A1F52F5F3F4FDB012D9346
:104540003C93FB01208131812430310530F325C0BB
:10455000992787FD9095F601E40FF51FEA0DFB1DE5
:10456000268530E082179307D9F44F5F5F4FFB0138
:104570005183408307C0D801AA0FBB1FAE0DBF1DDA
:10458000A75BBF4FFB0140815181ED91FC911197D9
:10459000E40FF51F85898332D9F6882039F002C0EF
:1045A00088248394F1E06F1609F001C1702E21E098
:1045B000A216B10479F4E02FF0E0EE0FFF1FEE0D2C
:1045C000FF1DE75BFF4F0190F081E02DD6011C96A7
:1045D0008C9182AFE72DF0E0EE0FFF1FEE0DFF1D77
:1045E000E75BFF4F0190F081E02D83AD8F5F83AFDC
:1045F000F6019484D3C0823009F0D9C0D601519617
:104600009C9151978081981709F0D1C0AA24BB24AE
:1046100053968C91833219F4B1E0AB2EB12C9601F4
:104620002A0D3B1DD90153968C91DB011D921C92E2
:104630008130A9F0813020F0823009F088C070C04C
:104640009389D90154968C915497981709F07FC09B
:10465000948955968C91981709F079C07BC0FB011D
:1046600011821082A801440F551F4E0D5F1D475B3C
:104670005F4F17C0FA01A081B181A20FB31FF601ED
:10468000E20FF31FEA0DFB1D1B969C91848998177E
:1046900019F0882483940BC02F5F3F4FDB012D93CB
:1046A0003C93FB01208131812430310518F3DB017B
:1046B0001D921C92A801440F551F4E0D5F1D475BB4
:1046C0005F4F14C0FA01A081B181A20FB31FF601A0
:1046D000E20FF31FEA0DFB1D1F969C91808D98172A
:1046E000A1F52F5F3F4FDB012D933C93FB01208110
:1046F00031812430310530F325C0992787FD90950D
:10470000F601E40FF51FEA0DFB1D248930E0821746
:104710009307D9F44F5F5F4FFB015183408307C07C
:10472000D801AA0FBB1FAE0DBF1DA75BBF4FFB017A
:1047300040815181ED91FC911197E40FF51F85891E
:104740008332D9F6882031F002C088248394F1E0C6
:104750006F1669F5702E21E0A216B10479F4E02FEE
:10476000F0E0EE0FFF1FEE0DFF1DE75BFF4F019026
:10477000F081E02DD60152968C9182AFE72DF0E0CA
:10478000EE0FFF1FEE0DFF1DE75BFF4F0190F08165
:10479000E02D83AD8F5F83AFF60192889A94F4E0A9
:1047A000F91508F445C505E010E0662463940F5F31
:1047B0001F4F0530110508F457CC2AE732E0E20E0E
:1047C000F31ED7011D921C92E6E8FDEFEE0EFF1ED0
:1047D000662009F015C6870103551D4FD8017C904E
:1047E000EFEAF2E0EE0EFF1E81E0D7018C93E4EADF
:1047F000FDEFEE0EFF1ED7018C91EDEAFFEFEE0EFE
:10480000FF1E853028F0C7010E949D1ED8017C90B4
:10481000F701ED5AFF4F80818F5F8083A72CBB2467
:1048200081E090E06EE370E00E94B259FC01250146
:10483000440C551C4E0C5F1C29E430E0420E531E04
:10484000D2018D939C93009709F4F8C522E432E0DD
:10485000E20EF31ED7018C912EEB3DEFE20EF31E1C
:10486000813009F084C240E852E0E40EF51ED70121
:104870008C9120E83DEFE20EF31E882309F022C15F
:1048800012A6D201ED91FC91D60114968C918083F1
:10489000F201008111810E94F701D801D5966D9334
:1048A0007D938D939C93D897F701E658FD4F118225
:1048B00010829F01A20111C0FA01608171816A0F0B
:1048C0007B1FAC0DBD1D8C91DB0119968C93F901FA
:1048D00080819181019691838083F901A081B181CA
:1048E000A230B10548F340E050E0D60116968C9115
:1048F000833211F441E050E0D501AA0FBB1FAE0D89
:10490000BF1DA75BBF4F2D913C911197B601640F5E
:10491000751FFB018681F90181A7970126583D4F3C
:10492000F901118210820D911C911197F80181A556
:10493000813089F0813020F0823009F089C063C075
:10494000FB018781F801838BED91FC91DB011896C7
:104950008C91848B7DC0F901118210824901BD01C7
:1049600014C0FB01008111810A0F1B1FAC0DBD1D7E
:10497000A40FB51F17968C91D8011B968C93F40148
:1049800080819181019691838083F401A081B1811E
:10499000A430B10530F3D9011D921C92970126581D
:1049A0003D4FB501660F771F6E0D7F1D675B7F4F13
:1049B00014C0FB01008111810A0F1B1FAC0DBD1D2E
:1049C000A40FB51F1B968C91D8011F968C93F901EB
:1049D00080819181019691838083F901A081B181C9
:1049E000A430B10530F334C0ED91FC911197E80F7C
:1049F000F91F258BFB018081918101969183808332
:104A0000459710F00CC0B901FB0180819181F6013E
:104A1000E80FF91FE40FF51F2781233229F7F5016D
:104A2000EE0FFF1FEE0DFF1DE75BFF4F0190F081C2
:104A3000E02D2AE732E0E20EF31ED7018D919C9122
:104A400026E83DEFE20EF31EE80FF91F83E2858BA7
:104A50004130510571F4F501EE0FFF1FEE0DFF1D02
:104A6000E75BFF4F0190F081E02DD60115968C9108
:104A700082AFD501AA0FBB1FAE0DBF1DA75BBF4FF5
:104A8000ED91FC91119791E093AFF60195809A9486
:104A9000F4E0F91508F4CCC32D913C911197F6017F
:104AA0008281F90183AB14AAF6018381F90182ABFB
:104AB000ED91FC9182A98150823010F493A7A0C49B
:104AC00013A69EC4813009F09BC482A7D201ED9148
:104AD000FC91D6011A968C918083F201008111819C
:104AE0000E94F701D801D5966D937D938D939C9389
:104AF000D897A70146585D4FFA01118210829A019A
:104B0000B20111C0FB01008111810A0F1B1FAC0D06
:104B1000BD1D8C91D80115968C93F90180819181EE
:104B2000019691838083F901A081B181A430B10500
:104B300048F3DA011D921C92970126583D4FA501BA
:104B4000440F551F4E0D5F1D475B5F4F12C0FA01AA
:104B5000608171816A0F7B1FAC0DBD1D14968C9115
:104B6000DB0111968C93F9018081918101969183EB
:104B70008083F901A081B181A430B10540F360E0E8
:104B800070E0D6011C968C91833211F461E070E0E4
:104B9000D501AA0FBB1FAE0DBF1DA75BBF4F2D9147
:104BA0003C911197A601460F571FFA018485F90120
:104BB00081A7970126583D4FF901118210820D916E
:104BC0001C911197F80181A5813089F0813020F086
:104BD000823009F089C063C0FA018585F801838BB2
:104BE000ED91FC91DA011E968C91848B7DC0F901C8
:104BF000118210824901AD0114C0FA0100811181B6
:104C00000A0F1B1FAC0DBD1DA60FB71F1D968C9163
:104C1000D8011B968C93F401808191810196918338
:104C20008083F401A081B181A430B10530F3D901B2
:104C30001D921C92970126583D4FA501440F551F08
:104C40004E0D5F1D475B5F4F14C0FA01008111815B
:104C50000A0F1B1FAC0DBD1DA60FB71F51968C91DF
:104C6000D8011F968C93F9018081918101969183DF
:104C70008083F901A081B181A430B10530F334C043
:104C8000ED91FC911197E80FF91F258BFA018081B6
:104C90009181019691838083459710F00CC0A90102
:104CA000FA0180819181F601E80FF91FE60FF71FE5
:104CB0002585233229F7F501EE0FFF1FEE0DFF1DAD
:104CC000E75BFF4F0190F081E02D2AE732E0E20E32
:104CD000F31ED7018D919C9126E83DEFE20EF31E65
:104CE000E80FF91F83E2858BD501AA0FBB1FAE0D1C
:104CF000BF1DA75BBF4F2D913C911197F601808599
:104D0000F90183AB14AAF6018185F90182ABED911B
:104D1000FC9182A98150823018F481E083A701C000
:104D200013A66130710571F4F501EE0FFF1FEE0D52
:104D3000FF1DE75BFF4F0190F081E02DD6011B9630
:104D40008C9182AFAA0CBB1CAE0CBF1CE9E4F0E056
:104D5000AE0EBF1ED501ED91FC9181E083AFF6014F
:104D600093849A94F4E0F91508F04AC361C2825022
:104D7000843008F045C321E832E0E20EF31ED7018B
:104D80008C912FE73DEFE20EF31E882309F066C1F8
:104D9000D6011B968C918083F201008111810E94C3
:104DA000F701D801D5966D937D938D939C93D897F9
:104DB00040E050E0F6018585833211F441E050E097
:104DC000D501AA0FBB1FAE0DBF1DA75BBF4F2D9115
:104DD0003C911197B601640F751FFB018585F901A0
:104DE00081A7970126583D4FF901118210820D913C
:104DF0001C911197F80181A5813089F0813020F054
:104E0000823009F089C063C0FB018685F801838B7D
:104E1000ED91FC91DB011F968C91848B7DC0F90193
:104E2000118210824901BD0114C0FB010081118172
:104E30000A0F1B1FAC0DBD1DA40FB51F1E968C9134
:104E4000D8011B968C93F401808191810196918306
:104E50008083F401A081B181A430B10530F3D90180
:104E60001D921C92970126583D4FB501660F771F82
:104E70006E0D7F1D675B7F4F14C0FB0100811181A8
:104E80000A0F1B1FAC0DBD1DA40FB51F52968C91B0
:104E9000D8011F968C93F9018081918101969183AD
:104EA0008083F901A081B181A430B10530F334C011
:104EB000ED91FC911197E80FF91F258BFB01808183
:104EC0009181019691838083459710F00CC0B901C0
:104ED000FB0180819181F601E80FF91FE40FF51FB6
:104EE0002685233229F7F501EE0FFF1FEE0DFF1D7A
:104EF000E75BFF4F0190F081E02D2AE732E0E20E00
:104F0000F31ED7018D919C9126E83DEFE20EF31E32
:104F1000E80FF91F83E2858B4130510571F4F501EB
:104F2000EE0FFF1FEE0DFF1DE75BFF4F0190F081BD
:104F3000E02DD6011C968C9182AFD501AA0FBB1F24
:104F4000AE0DBF1DA75BBF4FED91FC91119781E0A6
:104F500083AFF60194849A94F4E0F91508F468C1DB
:104F6000970126583D4FF901118210828901AD0148
:104F700011C0FA01608171816A0F7B1FAC0DBD1DEC
:104F80008C91DB0115968C93F801808191810196BB
:104F900091838083F801A081B181A430B10548F3E9
:104FA000D9011D921C92970126583D4FA501440F2F
:104FB000551F4E0D5F1D475B5F4F12C0FA016081A8
:104FC00071816A0F7B1FAC0DBD1D14968C91DB01A6
:104FD00011968C93F9018081918101969183808350
:104FE000F901A081B181A430B10540F31182108292
:104FF000970126583D4FA501440F551FD701A40F17
:10500000B51FA75BBF4F11C06D917C911197680FC1
:10501000791F8C0D9D1DFC018085FB018187F901A5
:1050200080819181019691838083F90180819181B2
:105030008230910548F3D701A40FB51FA75BBF4F7E
:10504000ED91FC91119713A62D913C911197F601CA
:105050008285F90182ABED91FC91CDC1823009F0DE
:10506000CFC1D60151968C918083F20100811181CC
:105070000E94F701D801D5966D937D938D939C93F3
:10508000D89740E050E0F6018389833211F441E083
:1050900050E0D501AA0FBB1FAE0DBF1DA75BBF4FD0
:1050A0002D913C911197B601640F751FFB01838907
:1050B000F90181A7970126583D4FF901118210820D
:1050C0000D911C911197F80181A5813089F08130F3
:1050D00020F0823009F089C063C0FB018489F801A7
:1050E000838BED91FC91DB0155968C91848B7DC077
:1050F000F901118210824901BD0114C0FB01008138
:1051000011810A0F1B1FAC0DBD1DA40FB51F5496B6
:105110008C91D8011B968C93F4018081918101962A
:1051200091838083F401A081B181A430B10530F373
:10513000D9011D921C92970126583D4FB501660F6B
:10514000771F6E0D7F1D675B7F4F14C0FB010081D1
:1051500011810A0F1B1FAC0DBD1DA40FB51F589662
:105160008C91D8011F968C93F901808191810196D1
:1051700091838083F901A081B181A430B10530F31E
:1051800034C0ED91FC911197E80FF91F258BFB01BD
:1051900080819181019691838083459710F00CC0A6
:1051A000B901FB0180819181F601E80FF91FE40F3D
:1051B000F51F2489233229F7F501EE0FFF1FEE0DAD
:1051C000FF1DE75BFF4F0190F081E02D2AE732E001
:1051D000E20EF31ED7018D919C9126E83DEFE20E81
:1051E000F31EE80FF91F83E2858B4130510571F4FE
:1051F000F501EE0FFF1FEE0DFF1DE75BFF4F019066
:10520000F081E02DD60152968C9182AFD501AA0F84
:10521000BB1FAE0DBF1DA75BBF4FED91FC9111975A
:1052200081E083AFF60192889A94F4E0F91518F4BE
:10523000C701672D2BC5970126583D4FF9011182F3
:1052400010828901AD0111C0FA01608171816A0F7C
:105250007B1FAC0DBD1D8C91DB0115968C93F80165
:1052600080819181019691838083F801A081B18131
:10527000A430B10548F3D9011D921C92970126581C
:105280003D4FA501440F551F4E0D5F1D475B5F4FFE
:1052900012C0FA01608171816A0F7B1FAC0DBD1DC8
:1052A00014968C91DB0111968C93F9018081918188
:1052B000019691838083F901A081B181A430B10569
:1052C00040F311821082970126583D4FA501440FEB
:1052D000551FB701640F751F675B7F4F12C0FB013D
:1052E000008111810A0F1B1FAC0DBD1D18968C91FA
:1052F000D80119968C93F90180819181019691834F
:105300008083F901A081B181A230B10540F3F7019A
:10531000E40FF51FE75BFF4FA081B18182E09B9610
:105320008C9340815181D6011A968C91DA019C961A
:105330008C930190F081E02DD6011B968C9185A76E
:10534000F90111821082970126583D4FA501440FA3
:10535000551F4E0D5F1D475B5F4F12C0FA01608104
:1053600071816A0F7B1FAC0DBD1D1C968C91DB01FA
:105370009E968C93F901808191810196918380831F
:10538000F901A081B181A230B10540F311821082F0
:10539000970126583D4FA501440F551FD701A40F73
:1053A000B51FA75BBF4F11C06D917C911197680F1E
:1053B000791F8C0D9D1DFC018685FB0180ABF901D9
:1053C00080819181019691838083F901808191810F
:1053D0008230910548F3F701E40FF51FE75BFF4FBB
:1053E00020813181D60150968C91D901D2968C932F
:1053F0000190F081E02D82A9823011F481E083A731
:10540000072D10E0A92CBB2481E090E068E670E055
:105410000E94B259AC01F801EE0FFF1FEE0FFF1F03
:10542000E00FF11FEA0DFB1D3B96EE0FFF1FEE0D87
:10543000FF1D518340834115510521F4C7010E948E
:105440002F1E26C422E432E0E20EF31ED7019C9107
:105450002EEB3DEFE20EF31E913009F0A2C1A0E861
:10546000B2E0EA0EFB1ED7018C9120E83DEFE20E80
:10547000F31E882309F0BCC04A595F4FD601159628
:105480008C91DA018C93D60116968C910190F08163
:10549000E02D833221F4E959FF4F908303C0E9598D
:1054A000FF4F1082F801EE0FFF1FEE0FFF1FE00FFE
:1054B000F11FEA0DFB1D3B96EE0FFF1FEE0DFF1DCA
:1054C0000190F081E02DE959FF4F6081862E9924EB
:1054D000D701A658BD4F11961C921E92F801EE0FEF
:1054E000FF1FEE0DFF1DE75BFF4F0190F081E02DE8
:1054F00081A5813071F0813018F0823039F403C019
:1055000082E090E01CC040E050E00BC080E090E002
:1055100016C088E090E013C02F5F3F4F11963C9378
:105520002E932D913C911197F601E20FF31FE80D98
:10553000F91D87814F5F5F4F833271F7CA01695F41
:10554000680F262F30E0F701EA5BFD4F80819181E3
:105550008217930710F431832083F801EE0FFF1FA9
:10556000EE0FFF1FE00FF11FEA0DFB1D3B96EE0F44
:10557000FF1FEE0DFF1D608171816C597F4F46E466
:1055800052E0E40EF51ED7018D919C914AEB5DEF40
:10559000E40EF51E821B930BDB018D939C93D701C8
:1055A000A658BD4F11961C921E924D01AF0110C01E
:1055B0006E0F7F1FEC0DFD1DE20FF31F8081FB01BD
:1055C0008083D4018D919C91119701968D939C932A
:1055D000D401ED91FC91DA016D917C916C597F4F72
:1055E000DB018D919C9164567040E817F90700F338
:1055F000E0E8F2E0EE0EFF1ED7019C91E0E8FDEF3F
:10560000EE0EFF1E913009F0CCC0F801EE0FFF1F27
:10561000EE0FFF1FE00FF11FEA0DFB1D3B96EE0F93
:10562000FF1FEE0DFF1D208131812A593F4FD6010A
:105630001B968C91D9018C93D6011C968C9101906C
:10564000F081E02D833221F4E959FF4F908303C0AC
:10565000E959FF4F1082F801EE0FFF1FEE0FFF1FF9
:10566000E00FF11FEA0DFB1D3B96EE0FFF1FEE0D45
:10567000FF1D0190F081E02DE959FF4F6081862EDA
:105680009924D701A658BD4F11961C921E92F8017D
:10569000EE0FFF1FEE0DFF1DE75BFF4F0190F08146
:1056A000E02D81A5813071F0813018F0823039F41D
:1056B00003C082E090E01CC040E050E00BC080E0FE
:1056C00090E016C088E090E013C02F5F3F4F119626
:1056D0003C932E932D913C911197F601E20FF31F0D
:1056E000E80DF91D85854F5F5F4F833271F7CA0161
:1056F000635F680F262F30E0F701EA5BFD4F808182
:1057000091818217930710F431832083F801EE0F03
:10571000FF1FEE0FFF1FE00FF11FEA0DFB1D3B9671
:10572000EE0FFF1FEE0DFF1D608171816C597F4FE1
:1057300046E452E0E40EF51ED7018D919C914AEBB0
:105740005DEFE40EF51E821B930BDB018D939C93A2
:10575000D701A658BD4F11961C921E924D01AF0164
:1057600010C06E0F7F1FEC0DFD1DE20FF31F808137
:10577000FB018083D4018D919C91119701968D93AB
:105780009C93D401ED91FC91DA016D917C916C595F
:105790007F4FDB018D919C9164567040E817F907AB
:1057A00000F3E2E4F2E0EE0EFF1ED7018C91EEEB87
:1057B000FDEFEE0EFF1E8250843008F0ABC121E8F1
:1057C00032E0E20EF31ED7018C91EFE7FDEFEE0E13
:1057D000FF1E882309F0CEC0F801EE0FFF1FEE0F69
:1057E000FF1FE00FF11FEA0DFB1D3B96EE0FFF1FA1
:1057F000EE0DFF1D208131812A593F4FD6011C96A5
:105800008C91D9018C93D6011D968C910190F081D9
:10581000E02D833229F4E959FF4F81E0808303C0F2
:10582000E959FF4F1082F801EE0FFF1FEE0FFF1F27
:10583000E00FF11FEA0DFB1D3B96EE0FFF1FEE0D73
:10584000FF1D0190F081E02DE959FF4F6081862E08
:105850009924D701A658BD4F11961C921E92F801AB
:10586000EE0FFF1FEE0DFF1DE75BFF4F0190F08174
:10587000E02D81A5813071F0813018F0823039F44B
:1058800003C082E090E01CC040E050E00BC080E02C
:1058900090E016C088E090E013C02F5F3F4F119654
:1058A0003C932E932D913C911197F601E20FF31F3B
:1058B000E80DF91D86854F5F5F4F833271F7CA018E
:1058C000625F680F262F30E0F701EA5BFD4F8081B1
:1058D00091818217930710F431832083F801EE0F32
:1058E000FF1FEE0FFF1FE00FF11FEA0DFB1D3B96A0
:1058F000EE0FFF1FEE0DFF1D608171816C597F4F10
:1059000046E452E0E40EF51ED7018D919C914AEBDE
:105910005DEFE40EF51E821B930BDB018D939C93D0
:10592000D701A658BD4F11961C921E925D01AF0182
:1059300010C06E0F7F1FEC0DFD1DE20FF31F808165
:10594000FB018083D5018D919C91119701968D93D8
:105950009C93D501ED91FC91DA016D917C916C598C
:105960007F4FDB018D919C9164567040E817F907D9
:1059700000F3D0C0823009F0CDC0F801EE0FFF1F58
:10598000EE0FFF1FE00FF11FEA0DFB1D3B96EE0F20
:10599000FF1FEE0DFF1D208131812A593F4FD60197
:1059A00052968C91D9018C93D60153968C9101908B
:1059B000F081E02D833229F4E959FF4F81E08083A3
:1059C00003C0E959FF4F1082F801EE0FFF1FEE0FE1
:1059D000FF1FE00FF11FEA0DFB1D3B96EE0FFF1FAF
:1059E000EE0DFF1D0190F081E02DE959FF4F608120
:1059F000862E9924D701A658BD4F11961C921E924F
:105A0000F801EE0FFF1FEE0DFF1DE75BFF4F01904A
:105A1000F081E02D81A5813071F0813018F0823065
:105A200039F403C082E090E01CC040E050E00BC0BD
:105A300080E090E016C088E090E013C02F5F3F4FF9
:105A400011963C932E932D913C911197F601E20F04
:105A5000F31FE80DF91D87894F5F5F4F833271F7A0
:105A6000CA016C5E680F262F30E0F701EA5BFD4F3C
:105A7000808191818217930710F431832083F8018C
:105A8000EE0FFF1FEE0FFF1FE00FF11FEA0DFB1DD2
:105A90003B96EE0FFF1FEE0DFF1D608171816C596B
:105AA0007F4F46E452E0E40EF51ED7018D919C91A4
:105AB0004AEB5DEFE40EF51E821B930BDB018D9329
:105AC0009C93D701A658BD4F11961C921E925D0162
:105AD000AF0110C06E0F7F1FEC0DFD1DE20FF31F15
