:100000000C94CC000C9427760C9458760C9489763A
:100010000C94BA760C94EB760C941C770C944D7778
:100020000C947E770C94F6000C94F6000C94F60079
:100030000C947D030C94F6000C94F6000C942D02A5
:100040000C94F6000C94F6000C94F6000C94F60058
:100050000C94F6000C94F6000C94F6000C94080234
:100060000C94F6000C94DF7B0C94F6000C94F600D4
:100070000C94F6000C94F6000C94F6000C94F60028
:100080000C94F6000C94F6000C94F6000C94F60018
:100090000C94207C0C94F6000C94F6000C943074B4
:1000A0000C94F6000C94F6000C94F6000C94F600F8
:1000B0000C94F6000C94F6000C94F6000C94F600E8
:1000C0000C94F6000C94F6000C94F6000021242702
:1000D0002A2D3033002225282B2E313400202326D0
:1000E000292C2F3205050505030303030101010433
:1000F00004030606060606060606010405010501B8
:1001000003020202020202010202050504040304C2
:1001100004010304070707010208101020408004AF
:1001200008102040020204081020408001028020B4
:100130004004200101020408102001408040800199
:1001400002080408800410040201000008090000ED
:10015000000000000000000000000000000000009F
:10016000000000000000000000000000000000008F
:100170000000000000000000000000000000690412
:100180002B062C06EC07460C850D0918F220F720EB
:10019000FF224123CD72FD7211241FBECFEFD1E2A9
:1001A000DEBFCDBF10E1A0E0B2E0E8EEF2E101E099
:1001B0000BBF02C007900D92A232B107D9F719E127
:1001C000A2E2B0E101C01D92A133B107E1F711E055
:1001D000C8E9D1E004C02297FE010E947E82CE379A
:1001E000D107C9F70E9401020C9472890C94000097
:1001F0000F93CF93DF9381E591E160E072E00E947D
:10020000832160919B1570919C1587EA90E10E9473
:10021000CD08C82FD0E0209759F081E591E165E144
:1002200072E00E947D2181E591E1BE010E944F2193
:1002300081E591E16AE472E00E947D2180E390E132
:1002400061E070E00E947A05C82FD0E0209759F055
:1002500081E591E162E772E00E947D2181E591E113
:10026000BE010E944F210E94520260932B10709396
:100270002C1080932D1090932E1080E390E167E076
:1002800070E142EA52E00E946A04C82FD0E0209751
:1002900059F081E591E16CEA72E00E947D2181E5EF
:1002A00091E1BE010E944F2181E591E160ED72E094
:1002B0000E947D210E945202AB01BC0180912B1053
:1002C00090912C10A0912D10B0912E10481B590B1D
:1002D0006A0B7B0B81E591E10E941D2180E390E197
:1002E0000E94B104C82FD0E0209759F081E591E138
:1002F0006FED72E00E947D2181E591E1BE010E94D7
:100300004F2181E591E167E073E00E94832186E956
:1003100092E10E94F46A85E091E164E173E040E0DB
:1003200021E00DE10E941C0D86E992E10E94C66A5F
:1003300081E591E160E273E00E948321DF91CF913A
:100340000F91089581E591E10E94912181E591E16C
:1003500066E273E00E94832180E390E10E94C90578
:10036000882331F081E591E169E373E00E94832104
:1003700087E091E166E573E00E94581087E091E123
:100380000E947F12BC0181E591E10E9483218DB71B
:100390009EB740970FB6F8949EBF0FBE8DBFEDB7C6
:1003A000FEB7319686E992E1ADB7BEB712969C933F
:1003B0008E93119786E090E09383828381E090E0B2
:1003C000958384838EE190E09783868388E090E034
:1003D0009187808784E190E09387828782E090E034
:1003E0009587848782E390E0978786870E94E671ED
:1003F0008DB79EB740960FB6F8949EBF0FBE8DBFC7
:1004000008950E94C0020E94A2010E94F800FDCF40
:100410001F920F920FB60F9211248F939F93AF9359
:10042000BF938091A5169091A616A091A716B091A2
:10043000A8160196A11DB11D8093A5169093A6162E
:10044000A093A716B093A816BF91AF919F918F91DB
:100450000F900FBE0F901F9018951F920F920FB61E
:100460000F9211248F939F93AF93BF938091A916FE
:100470009091AA16A091AB16B091AC160196A11D51
:10048000B11D8093A9169093AA16A093AB16B093B2
:10049000AC16BF91AF919F918F910F900FBE0F90AF
:1004A0001F9018956091A5167091A6168091A716B9
:1004B0009091A81627E0660F771F881F991F2A952D
:1004C000D1F72EE330E040E050E00E943F82CA01C5
:1004D000B9010895AF92BF92CF92DF92EF92FF924F
:1004E0000F931F935B016C016091A5167091A61686
:1004F0008091A7169091A81647E0660F771F881F76
:10050000991F4A95D1F72EE330E040E050E00E9479
:100510003F8279018A016091A5167091A61680919B
:10052000A7169091A81637E0660F771F881F991FAE
:100530003A95D1F72EE330E040E050E00E943F8250
:100540002E193F09400B510B2A153B054C055D0543
:1005500010F31F910F91FF90EF90DF90CF90BF901D
:10056000AF900895019759F0019749F0FC01EE0F03
:10057000FF1F31978FB7F8943197F1F78FBF089528
:10058000789484B7877F84BF1092A5161092A61620
:100590001092A7161092A81684B5826084BD84B507
:1005A000816084BD85B5826085BD85B5816085BD6E
:1005B000EEE6F0E0808181608083E1E8F0E0808118
:1005C00082608083808181608083E0E8F0E08081C8
:1005D00081608083E1EBF0E0808184608083E1E9E9
:1005E000F0E0808184608083E0EBF0E080818160D6
:1005F0008083E0E9F0E0808181608083E4E6F0E0E0
:1006000080818E7F8083ECE7F0E080818F7780832C
:10061000808180648083EAE7F0E080818460808369
:100620008081826080838081806880831092C10095
:100630001092C900089590912F10982B90932F102D
:1006400080FF32C0809164008E7F8093640080912F
:100650007C008F7780937C0080917C008064809305
:100660007C0080917A00846080937A0080917A0087
:10067000826080937A0080917A00806880937A000B
:10068000809164008F7780936400809164008B7FF9
:1006900080936400809164008D7F809364008091DA
:1006A00065008E7F809365000895282F2095909196
:1006B0002F10922390932F1080FF1EC080917A00FC
:1006C0008F7780937A0080916400816080936400CA
:1006D00080916400806880936400809164008460ED
:1006E00080936400809164008260809364008091B4
:1006F000650081608093650008951F920F920FB688
:100700000F920BB60F9211242F933F934F935F9349
:100710006F937F938F939F93AF93BF93EF93FF93C9
:10072000F89481E080930F10E0E6F0E0808180682B
:10073000808380818F7B808383E060E00E94D2038E
:100740007894FF91EF91BF91AF919F918F917F919D
:100750006F915F914F913F912F910F900BBE0F9032
:100760000FBE0F901F901895282F30E0C901895EA9
:100770009E4FFC0194912C513F4FF90184918823A5
:1007800081F0E82FF0E0E453FF4FE491F0E06623BE
:1007900029F4808190958923808308958081892B15
:1007A00080830895482F50E0CA01865B9E4FFC016C
:1007B0002491CA01895E9E4FFC0194914C515F4F78
:1007C000FA0134913323C1F1222331F1233021F492
:1007D000809180008F7705C0243031F480918000B3
:1007E0008F7D8093800018C0213019F484B58F77F5
:1007F00004C0223021F484B58F7D84BD0DC0263025
:1008000021F48091B0008F7705C0273029F48091C2
:10081000B0008F7D8093B000E32FF0E0EC52FF4FEB
:10082000E491F0E0662329F4808190958923808308
:1008300008958081892B80830895482F50E0CA0154
:10084000865B9E4FFC012491CA01895E9E4FFC018C
:1008500094914C515F4FFA013491332319F420E005
:1008600030E035C0222331F1233021F48091800023
:100870008F7705C0243031F4809180008F7D809384
:10088000800018C0213019F484B58F7704C022305D
:1008900021F484B58F7D84BD0DC0263021F4809174
:1008A000B0008F7705C0273029F48091B0008F7D8C
:1008B0008093B000E32FF0E0E452FF4FE491F0E0CA
:1008C000808120E030E0892311F021E030E0C9018F
:1008D00008950895CF92DF92EF92FF920F931F93A6
:1008E0008B017A0181E090E064EB70E00E948282EB
:1008F0006C01FC0110868AE790E0C80ED91EF60153
:10090000108282E090E0C80ED91E8CE0F601808350
:1009100012926F0185E89FEFC80ED91E109209143C
:1009200086E992E1B60140E00E94035F86E992E128
:10093000B601A801970101E0EE240E94FE5F86E95E
:1009400092E1B6010E945B5610917214C6010E949A
:100950004B83812F1F910F91FF90EF90DF90CF90ED
:100960000895AF92BF92DF92EF92FF920F931F9381
:10097000CF93DF935C010E94520281E591E16EE723
:1009800073E00E9483210E945202AC01CB01DA0184
:100990007C018D01B2E0DB2E96C082E992E10E94DB
:1009A0009D23882309F48FC086E992E10E9494690F
:1009B00080917114882309F07EC0DD24D3946EC029
:1009C00081E591E16DE973E00E947D21C0E0D0E016
:1009D00021C0F501EC0FFD1FAC0FBD1F1C968C91C3
:1009E0008083E091F512F0E0EE0FFF1FE851FD4E1D
:1009F0000190F081E02DEC0FFD1F4485552747FD48
:100A00005095652F752F81E591E120E030E00E943F
:100A10005F212196E091F512F0E0EE0FFF1FE85103
:100A2000FD4EA081B181A059BF4F8D919C9111972E
:100A3000A057B040C817D90760F281E591E165EA97
:100A400073E00E947D21E091F512F0E0EE0FFF1FB0
:100A5000E851FD4E0190F081E02DE458FF4F608198
:100A600081E591E170E00E944F21E091F512F0E004
:100A7000EE0FFF1FE851FD4E808191810E944B8354
:100A80008091F512E82FF0E0EE0FFF1FE851FD4EC8
:100A90001182108281508093F512DD248091F5122D
:100AA000882309F08DCF0E945202AC01CB01DA01FC
:100AB0007C018D0108C081E591E16BEA73E00E9441
:100AC000832133E0D32E0E9452026E197F09800BDE
:100AD000910B60527E448040904008F45ECF8D2D93
:100AE000DF91CF911F910F91FF90EF90DF90BF901A
:100AF000AF900895EF92FF920F931F93CF93DF93E0
:100B0000EB010E9452027B018C0106C060E777E195
:100B100080E090E00E946A0286E992E10E94726B96
:100B200080917015882379F10E9452026E197F0915
:100B3000800B910B60527E448040904020F52097BE
:100B400059F7E4CF86E992E10E94926B8091641597
:100B5000882341F481E591E16EE075E00E948321F4
:100B600081E00AC086E992E160E00E94D46B86E9E8
:100B700092E10E94384C80E0DF91CF911F910F915C
:100B8000FF90EF900895809170158823D9F282E04C
:100B9000F3CF0F931F938C0186E992E162E041E06D
:100BA00021E00E94A96C86E992E10E94366B86E9F9
:100BB00092E10E94C66A68EE73E080E090E00E94D5
:100BC0006A0286E992E166E875E10E94804A86E958
:100BD00092E16FE34FEF0E94804B86E992E163E080
:100BE0000E94B35886E992E161E00E94D46B86E9E5
:100BF00092E10E94384C86E992E10E94156B68EB05
:100C00007BE080E090E00E946A0286E992E10E9427
:100C1000366B86E992E10E94C66AC80160E070E026
:100C20000E947A05182F87E091E10E94D41287E094
:100C300091E160E140E00E948B1260919F157091FC
:100C4000A01584E990E10E947C07111111E0812F29
:100C50001F910F91089508950895CF92DF92EF921A
:100C6000FF920F931F93DF93CF93CDB7DEB72C97EF
:100C70000FB6F894DEBF0FBECDBF8B016901DE0158
:100C80001196E9E1F0E183E001900D928150E1F7E6
:100C9000DE011496E6E1F0E183E001900D928150CF
:100CA000E1F7DE011796E3E1F0E183E001900D92B8
:100CB0008150E1F7DE011A96E0E1F0E183E0019076
:100CC0000D928150E1F781E2003C180750F1C80114
:100CD00060EC71E20E941882462FC80160EC71E25C
:100CE0000E9418828C0100D000D000D0EDB7FEB772
:100CF0003196CE010196ADB7BEB712969C938E93F6
:100D000011978CE295E093838283448315820E943D
:100D100085868DB79EB706960FB6F8949EBF0FBE18
:100D20008DBF91E008361907D8F1C80168E671E077
:100D30000E941882462FC80168E671E00E9418825E
:100D40008C01CE0104964A3078F000D000D000D05B
:100D5000EDB7FEB73196ADB7BEB712969C938E93A2
:100D6000119780E395E00EC000D000D000D0EDB721
:100D7000FEB73196ADB7BEB712969C938E9311977E
:100D80008CE295E093838283448315820E9485865A
:100D90008DB79EB706960FB6F8949EBF0FBE8DBF57
:100DA0000630110508F440C0C80166E070E00E94FA
:100DB0001882262FC80166E070E00E9418827C012C
:100DC0008C01CE0107962A3078F000D000D000D0F8
:100DD000EDB7FEB73196ADB7BEB712969C938E9322
:100DE000119780E395E00EC000D000D000D0EDB7A1
:100DF000FEB73196ADB7BEB712969C938E931197FE
:100E00008CE295E093838283248315820E948586F9
:100E10008DB79EB706960FB6F8949EBF0FBE8DBFD6
:100E200096E0E916F10458F50115110541F100D0DD
:100E300000D000D0EDB7FEB73196CE010A96ADB71F
:100E4000BEB712969C938E93119780E395E093839F
:100E50008283C80133E0880F991F3A95E1F7000FAC
:100E6000111F800F911F848315820E9485868DB784
:100E70009EB706960FB6F8949EBF0FBE8DBFADB756
:100E8000BEB71C970FB6F894BEBF0FBEADBFEDB78F
:100E9000FEB731961296DC92CE92119783E395E0DD
:100EA00093838283CE01019695838483CE01049639
:100EB00097838683CE01079691878087CE010A9615
:100EC000938782870E9485868DB79EB70C960FB652
:100ED000F8949EBF0FBE8DBF80E02C960FB6F8949D
:100EE000DEBF0FBECDBFCF91DF911F910F91FF905D
:100EF000EF90DF90CF900895CF93DF93FC01EB014B
:100F000041E2603C7407B8F0CB0160EC71E20E94F2
:100F10001882262F30E080E49EEDAC01249FC001B2
:100F2000259F900D349F900D1124C80FD91F8091DB
:100F30002011860F02C0809120118683608171810B
:100F40006C0F7D1F75836483CF01468137969F01A7
:100F50000E942D0680E0DF91CF910895FC0113825D
:100F6000128280EC9BE0918380831782168280E757
:100F70009BE0958384831386128680E29BE09187B1
:100F800080871786168680E19CE095878487138A80
:100F9000128A82EA9AE0918B808B178A168A87E4FC
:100FA0009AE0958B848B138E128E83EE99E0918F4D
:100FB000808F178E168E88E999E0958F848FEA5B73
:100FC000FF4F20E080919F159091A0158193919300
:100FD0002F5F2830B9F7089587EA90E10E94AE07A5
:100FE0000895AF92BF92CF92DF92EF92FF921F933C
:100FF000CF93DF9336E4C32ED12CC80ED91E21E047
:10100000A22EB12C96EDE92E97E0F92E80919B153A
:1010100090919C158A219B21892BB1F0B7016150D9
:10102000704082E591E10E940523182F82E591E14D
:10103000B7010E940523D82FC0E0CE01810F911D7A
:10104000F6019183808303C0F6011182108282E051
:1010500090E0E80EF91EC80ED91E98EFE91697E049
:10106000F90619F0AA0CBB1CD1CFDF91CF911F91CB
:10107000FF90EF90DF90CF90BF90AF900895EF92E8
:10108000FF920F931F93CF93DF938C010A5B1F4F47
:1010900051E0E52EF12CC6EDD7E080919B159091A3
:1010A0009C158E219F21892B81F0BE0161507040DB
:1010B00086E992E1F80140810E942D6DF80141819D
:1010C00086E992E1BE010E942D6D22960E5F1F4FB0
:1010D000F7E0C83FDF0719F0EE0CFF1CDECFDF9111
:1010E000CF911F910F91FF90EF900895EF92FF9293
:1010F0000F931F93CF93DF93EC018B017A0181E56E
:1011000091E164E575E00E947D2181E591E1B701FF
:101110000E944F210830110541F10930110554F4A6
:1011200002301105E1F004301105E1F00130110544
:1011300089F412C000321105F1F00132110524F4D6
:101140000031110539F414C000341105B9F000382C
:101150001105B9F081E01AC0CA5BDF4F14C0C85B4B
:10116000DF4F11C0C65BDF4F0EC0C45BDF4F0BC04B
:10117000C25BDF4F08C0C05BDF4F05C0CE5ADF4FF8
:1011800002C0CC5ADF4FF982E88280E0DF91CF9134
:101190001F910F91FF90EF900895AF92BF92DF9251
:1011A000EF92FF920F931F93CF93DF93EC017B019C
:1011B0006115710511F481E0B1C068307105D9F491
:1011C0008E859F852C853D8580FF0EC0FC01F595A1
:1011D000E795EC0FFD1F0190F081E02DE20FF31F6A
:1011E0000190F081E02D01C0F901959587958C0F54
:1011F0009D1F099592C065FD03C0862F807C31F04C
:101200008EE491E160E00E941D1A09C080E591E141
:101210000E94A52080E591E160E00E947D2064E6C7
:1012200070E080E090E00E946A02DD2401E010E0BE
:1012300041E0A42EB12C63C08091C615882339F0FB
:10124000C8018E219F21892B09F456C02BC08091A3
:10125000C2159091C31598012E213F210297A0F449
:10126000232B09F449C08091B7159091B8158A19BC
:101270009B09880F991FE091B315F091B415E80F01
:10128000F91F6081718106C0232BB1F16091BB15FC
:101290007091BC1580919410909195100E941882C5
:1012A000892B51F58D2D90E0880F991F880F991F7C
:1012B000FE01E80FF91F22813381DC0120FF12C0FB
:1012C000F901F595E795EC0FFD1FAC0FBD1F0190DF
:1012D000F081E02D8D919C91E80FF91F0190F08134
:1012E000E02D04C0AC0FBD1FED91FC913595279505
:1012F000CE01820F931F0995000F111FD394809187
:101300009D15D81608F498CF8EE491E161E00E9413
:101310001D1A80E591E10E94A12080E0DF91CF912C
:101320001F910F91FF90EF90DF90BF90AF900895C5
:10133000AF92BF92CF92DF92EF92FF920F931F93E3
:10134000CF93DF93E2E4CE2ED12CC80ED91E80E0DD
:1013500090E0A0E0B0E0F60180839183A283B383A4
:10136000C0E0D0E05601F501E080F18002811381F8
:101370008EE491E160E170E00E944E1C9B01AC01A3
:10138000C801B7010E94D87FF50160837183828311
:1013900093832196C330D10531F720E030E040E45B
:1013A00050E40E944080F6016083718382839383BE
:1013B000DF91CF911F910F91FF90EF90DF90CF9031
:1013C000BF90AF900895AF92BF92CF92DF92EF920D
:1013D000FF920F931F93CF93DF93FEE3CF2ED12C79
:1013E000C80ED91E80E090E0A0E0B0E0F601808356
:1013F0009183A283B3838EE491E160E040E050E00A
:101400000E94FF1662E370E080E090E00E946A02B2
:10141000C0E0D0E05601F501E080F1800281138147
:101420008EE491E160E070E00E944E1C9B01AC01F3
:10143000C801B7010E94D87FF50160837183828360
:1014400093832196C330D10531F78EE491E161E0B9
:1014500040E050E00E94FF16F601608171818281B8
:10146000938120E030E040E450E40E944080F601A7
:101470006083718382839383DF91CF911F910F915A
:10148000FF90EF90DF90CF90BF90AF900895CF92F4
:10149000DF92EF92FF920F931F93CF93DF936C0134
:1014A00080E090E0A0E0B0E0F60182AF93AFA4AF9F
:1014B000B5AF8EE491E160E041E050E00E94FF169C
:1014C00062E370E080E090E00E946A02C0E0D0E059
:1014D000F601E2ACF3AC04AD15AD8EE491E161E050
:1014E00070E00E944E1C9B01AC01C801B7010E9434
:1014F000D87FF60162AF73AF84AF95AF2196C3304A
:10150000D10531F78EE491E161E041E050E00E94C5
:10151000FF16F60162AD73AD84AD95AD20E030E00D
:1015200040E450E40E944080F60162AF73AF84AFA4
:1015300095AFDF91CF911F910F91FF90EF90DF90CA
:10154000CF900895CF92DF92EF92FF920F931F9367
:10155000CF93DF936C0180E090E0A0E0B0E0F60173
:1015600084AB95ABA6ABB7AB81E591E165E775E0E0
:101570000E94832180E591E164E070E041E00E94F7
:10158000692080E591E160E044E050E00E94C71CE2
:101590000E9452027B018C0106C080E591E164E06B
:1015A00070E00E94691E0E9452026E197F09800B32
:1015B000910B605375478040904078F3C0E0D0E0D5
:1015C000F601E4A8F5A806A917A980E591E164E071
:1015D00070E00E94691E9B01AC01C801B7010E9426
:1015E000D87FF60164AB75AB86AB97AB2196C33061
:1015F000D10531F780E591E161E044E050E00E94DF
:10160000C71CF60164A975A986A997A920E030E056
:1016100040E450E40E94408020E030E04AE754E497
:101620000E948A81F60164AB75AB86AB97ABDF9104
:10163000CF911F910F91FF90EF90DF90CF90089581
:10164000CF92DF92EF92FF920F931F93CF93DF938E
:101650006C0180E090E0A0E0B0E0F60183A794A7E1
:10166000A5A7B6A780E591E160E042E050E00E94C6
:10167000C71CC0E0D0E0F601E3A4F4A405A516A5BC
:1016800080E591E162E070E00E94691E9B01AC017F
:10169000C801B7010E94D87FF60163A774A785A788
:1016A00096A72196C330D10531F720E030E040E421
:1016B00050E40E944080F60163A774A785A796A70F
:1016C00080E591E161E042E050E00E94C71CDF91BB
:1016D000CF911F910F91FF90EF90DF90CF900895E1
:1016E000CF92DF92EF92FF920F931F93CF93DF93EE
:1016F0006C0180E090E0A0E0B0E0F60186A397A343
:10170000A0A7B1A780E591E160E041E050E00E9430
:10171000C71CC0E0D0E0F601E6A0F7A000A511A527
:1017200080E591E161E070E00E94691E9B01AC01DF
:10173000C801B7010E94D87FF60166A377A380A7EE
:1017400091A72196C330D10531F720E030E040E485
:1017500050E40E944080F60166A377A380A791A77A
:1017600080E591E161E041E050E00E94C71CDF911B
:10177000CF911F910F91FF90EF90DF90CF90089540
:10178000CF92DF92EF92FF920F931F93CF93DF934D
:101790006C0180E090E0A0E0B0E0F60180A391A3AE
:1017A000A2A3B3A380E591E160E040E050E00E9495
:1017B000C71CC0E0D0E0F601E0A0F1A002A113A197
:1017C00080E591E160E070E00E94691E9B01AC0140
:1017D000C801B7010E94D87FF60160A371A382A35C
:1017E00093A32196C330D10531F720E030E040E4E7
:1017F00050E40E944080F60160A371A382A393A3EA
:1018000080E591E161E040E050E00E94C71CDF917B
:10181000CF911F910F91FF90EF90DF90CF9008959F
:10182000CF92DF92EF92FF920F931F936C01FC0116
:1018300012AA11AAA5E0EA2EA1E1FA2EC7010E9480
:10184000540C082F10E0F60112AB01ABC7010E9447
:10185000540C080F111DF60112AB01ABC7010E9419
:10186000540C9801280F311DC90163E070E00E94FB
:101870001882F60172AB61AB1F910F91FF90EF9050
:10188000DF90CF9008950C9400F00895089589E2B8
:1018900061E00E94B40388E261E00E94B40384E145
:1018A00096E10E94FE720895EF92FF920F931F93AC
:1018B00089E161E00E94B40389E161E00E94D20302
:1018C00080E00E94517BAA2797FDA095BA2FBC010A
:1018D000CD010E94D6807B018C0120E030E040E009
:1018E00054E40E943C80882334F489E160E00E9443
:1018F000D20310E046C0C801B70120E030EC42E25C
:1019000054E40E948681181634F489E160E00E9454
:10191000D20314E636C0C801B70120E030EC42E241
:1019200054E40E943C801816BCF0C801B70120E0C6
:1019300030EC47E054E40E94868118166CF4C8012C
:10194000B70125E535E545E55FE30E948A8120E0A2
:1019500030E04DED53E40CC0C801B70120E030E0A9
:1019600040EA5EE30E948A8120E030E040E253E4F6
:101970000E94D77F0E94A880162F89E160E00E9414
:10198000D203812F1F910F91FF90EF9008951F9325
:10199000162F80917A008F7780937A0081E261E040
:1019A0000E94B40381E260E00E94D2038BE161E017
:1019B0000E94B4038BE160E00E94D20310FF10C0CC
:1019C0008AE161E00E94B4038AE160E00E94D203F0
:1019D00088E161E00E94B40388E160E00E94D203E4
:1019E00011FF09C082E992E10E94E02382E992E1BD
:1019F00063E00E94A22312FF13C081E00E94647D75
:101A00008FE261E00E94B4038FE260E00E94D203A3
:101A100083E261E00E94B40383E260E00E94D203AB
:101A200013FF08C089E161E00E94B40389E160E02E
:101A30000E94D2031F910895EF92FF920F937C01B1
:101A400087E091E10E94E81187E091E10E94540D46
:101A5000C701602F0E94C70C83B7817F846083BF5A
:101A600083B7816083BF83B7816083BF889583B765
:101A70008E7F83BF83B78E7F83BF80917A0080681B
:101A800080937A0087E091E10E94D41287E091E18F
:101A90000E94940E04FF04C087E091E10E94B312FB
:101AA0000F91FF90EF9008950895FC01138A148A16
:101AB000158A168A178A108E118E128E138E148E26
:101AC000158E168E178E10A211A212A280E090E041
:101AD000A0E0B0E083A394A3A5A3B6A30895262F06
:101AE000862F6AE00E940C82492F30E0C901841BD6
:101AF00091096AE070E00E942C82E4E0660F771F93
:101B0000EA95E1F7842F862B08950895CF93DF930C
:101B1000EC018D89843009F45FC0853048F482304F
:101B200059F1833008F040C0813009F0D2C00AC0BA
:101B3000863009F481C0863008F466C0873009F029
:101B4000C8C092C08DB79EB742970FB6F8949EBF9B
:101B50000FBE8DBFEDB7FEB73196A896ADB7BEB735
:101B60001296DC93CE931197A8978BE895E0938318
:101B700082838FEA95E08FC0ADB7BEB752970FB69C
:101B8000F894BEBF0FBEADBFEDB7FEB73196A896B5
:101B90001296DC93CE931197A8978BE895E09383E8
:101BA000828386EB95E077C0ADB7BEB752970FB68C
:101BB000F894BEBF0FBEADBFEDB7FEB73196A89685
:101BC0001296DC93CE931197A8978BE895E09383B8
:101BD00082838DEB95E05FC0ADB7BEB752970FB66D
:101BE000F894BEBF0FBEADBFEDB7FEB73196A89655
:101BF0001296DC93CE931197A8978BE895E0938388
:101C0000828385EC95E047C0ADB7BEB752970FB65B
:101C1000F894BEBF0FBEADBFEDB7FEB73196A89624
:101C20001296DC93CE931197A8978BE895E0938357
:101C300082838FEC95E02FC0ADB7BEB752970FB639
:101C4000F894BEBF0FBEADBFEDB7FEB73196A896F4
:101C50001296DC93CE931197A8978BE895E0938327
:101C6000828388ED95E017C0ADB7BEB752970FB627
:101C7000F894BEBF0FBEADBFEDB7FEB73196A896C4
:101C80001296DC93CE931197A8978BE895E09383F7
:101C900082838FED95E0958384838B898683178279
:101CA0008C8980871186898D828713868E898487A7
:101CB00015868F8986871786888D808B118A0E946A
:101CC00085868DB79EB742960FB6F8949EBF0FBE1D
:101CD0008DBF9E01285D3F4FC901DF91CF910895CF
:101CE000DF92EF92FF920F931F938C01D62EA4E107
:101CF000EA2EA6E1FA2EC70168E670E00E94DC72C7
:101D0000C7016D2D0E9408730D0D111DC701F8014B
:101D100060810E940873C7010E942F731F910F9169
:101D2000FF90EF90DF900895809116118C7F809343
:101D3000161187E091E16FE00E94700E08950F93F5
:101D40001F938C0160E170E080E090E00E94AF772B
:101D5000C8010E94940E1F910F9108951F93CF9375
:101D6000DF93EC01142F613009F08CC08E858D7FDC
:101D700085608E87CE016EE00E94700E8F858C7F0D
:101D80008F87CE016FE00E94700E133009F452C0AD
:101D9000143030F4113031F18F811230D8F50AC08F
:101DA000153009F454C0153008F44EC0163009F04F
:101DB000DDC0D2C08F778F83CE0167E00E94700EA6
:101DC00088858F778887CE0168E00E94700E8985AC
:101DD0008F778987CE0169E00E94700E8A858F77A0
:101DE00080644CC08F818F778F83CE0167E00E9423
:101DF000700E88858F778887CE0168E00E94700E0C
:101E000089858F778987CE0169E00E94700E8A8567
:101E10008F7334C08F778F83CE0167E00E94700E7E
:101E200088858F778887CE0168E00E94700E89854B
:101E30008F771DC08F818F778F83CE0167E00E94DF
:101E4000700E88858F770CC08F818F7702C08F814D
:101E500080688F83CE0167E00E94700E888580685D
:101E60008887CE0168E00E94700E89858068898726
:101E7000CE0169E00E94700E8A8580688A87CE0153
:101E80006AE067C0623009F071C08E858E7F86601F
:101E90008E87CE016EE00E94700E8F858C7F8F87BB
:101EA000CE016FE00E94700E123099F1133030F4C1
:101EB000112361F0113009F059C01AC01430B1F18A
:101EC000143088F1153009F051C046C08B858F77EA
:101ED0008B87CE016BE00E94700E8C858F778C878C
:101EE000CE016CE00E94700E8D858F7780642EC0CD
:101EF0008B858F778B87CE016BE00E94700E8C856F
:101F00008F778C87CE016CE00E94700E8D858F7369
:101F10001DC08B858F778B87CE016BE00E94700E82
:101F20008C858F770CC08B858F7702C08B858068FE
:101F30008B87CE016BE00E94700E8C8580688C8749
:101F4000CE016CE00E94700E8D8580688D87CE0179
:101F50006DE00E94700E0AC08E85887F8E87CE014C
:101F60006EE00E94700ECE010E949F0E60E170E054
:101F700080E090E00E940978DF91CF911F91089551
:101F8000DF92EF92FF920F931F938C01A4E1EA2E50
:101F9000A6E1FA2EC70168E670E00E94DC72C70174
:101FA00067E070E00E942C73C801F801628D0E9406
:101FB0006F0DFFE7DF2ED822F801D782C801638DAD
:101FC0000E946F0D8F77F8018087C801648D0E9491
:101FD0006F0D8F77F8018187C801658D0E946F0DA5
:101FE0008F73F8018287C7016D2D0E940873C701A6
:101FF000F80160850E940873C701F80161850E949D
:102000000873C701F80162850E940873C7010E9426
:102010002F731F910F91FF90EF90DF9008950F9312
:102020001F93CF93DF93EC0184E196E168E670E0C3
:102030000E94DC7284E196E160E070E00E942C7303
:10204000CE01688D0E946F0D8883CE016F890E943A
:102050006F0D8983CE016E890E946F0D8A838D89F1
:102060008B83CE01698D0E946F0D8C83CE016C89AC
:102070000E946F0D8D83CE016B890E946F0D8E8340
:1020800000E010E0FE01E00FF11F84E196E16081C5
:102090000E9408730F5F1F4F0730110599F784E105
:1020A00096E10E942F73DF91CF911F910F910895B8
:1020B000DC01FB0121812053808180533AE0839F22
:1020C000C0011124280F53962C9353972481205339
:1020D00083818053839FC0011124280F54962C9331
:1020E00054972781205386818053839FC0011124F8
:1020F000280F59962C935997228520538185805318
:10210000839FC0011124280F55962C935597258540
:10211000205384858053839FC0011124280F569635
:102120002C9356972089205387858053839FC00125
:102130001124280F57962C9357972389205382896F
:102140008053839FC0011124280F58962C935897D1
:10215000CD010E940F100895CF92DF92EF92FF926F
:102160001F93CF93DF937C01162F84E196E168E6FD
:1021700070E00E94DC7284E196E160E070E00E9411
:102180002C7384E196E10E942F7384E196E168E666
:1021900070E042E150E00E945073C0E0D0E0C12EF8
:1021A000DD241AE009C184E196E10E94E6728823E9
:1021B00009F402C184E196E10E94EC72282FF70134
:1021C000EC0FFD1F8083C630D10509F482C0C730F3
:1021D000D105B8F4C230D10509F44EC0C330D105E1
:1021E00038F4209769F1C130D10509F0E4C036C058
:1021F000C430D10509F451C0C530D10508F05BC029
:1022000049C0CA30D10509F49BC0CB30D10558F480
:10221000C830D10509F478C090E02F70C930D105DD
:1022200008F081C064C0CC30D10509F4A7C0CC301F
:10223000D10508F494C0CD30D10509F0BCC0ADC0C3
:1022400090E054E0959587955A95E1F7819FC001FC
:1022500011242F70280FF701208FADC090E044E0CB
:10226000959587954A95E1F7819FC00111242F70BC
:10227000280FF701278B9FC090E034E09595879554
:102280003A95E1F7819FC00111242F70280FF701C3
:10229000268B91C0F701858B8EC090E0B4E09595B8
:1022A0008795BA95E1F7819FC00111242F70280FFF
:1022B000F701218F80C090E0A4E095958795AA95BD
:1022C000E1F7819FC00111242F70280FF701248BA3
:1022D00072C090E0F4E095958795FA95E1F7819FBB
:1022E000C00111242F70280FF701238B64C0E4E094
:1022F00095958795EA95E1F78770819FC001112434
:10230000280FF701228F57C090E074E095958795CC
:102310007A95E1F78770819FC00111242F70280FF3
:10232000F701238F48C064E0959587956A95E1F79A
:102330008370819FC0011124280FF701248F3BC0B7
:1023400090E054E0959587955A95E1F78370819FC9
:10235000C00111242F70280FF701258F2CC090E0A9
:1023600044E0959587954A95E1F78770819FC00174
:1023700011242F70280FF701268F1DC090E034E044
:10238000959587953A95E1F78370819FC001112457
:102390002F70280FF701278F0EC090E0B4E09595BD
:1023A0008795BA95E1F78370819FC00111242F7042
:1023B000280FF70120A32196CC16DD0608F0F3CEF6
:1023C000DF91CF911F91FF90EF90DF90CF90089514
:1023D0001F93CF93DF93EC01FB01122F2181205338
:1023E000808180533AE0839FC0011124280F2D8FF4
:1023F0002481205383818053839FC0011124280F9F
:102400002C8F2781205386818053839FC001112404
:10241000280F2B8F2285205381858053839FC001F5
:102420001124280F2A8F442309F05BC0CE0166E0F7
:102430000E94AC10988D8A8D980F9A8F9C3328F04B
:102440009C539A8F8B8D8F5F8B8F9F898B8D980F6D
:102450009B8F9C3328F09C539B8F8C8D8F5F8C8F30
:102460009E898C8D980F9C8F983128F098519C8F65
:102470008D8D8F5F8D8F2D8D112339F48D89820F76
:102480008D8F883070F187502BC0998D920F9D8F62
:102490008C89813051F0833041F0853031F08730C4
:1024A00021F0883011F08C3021F4903210F09F51DF
:1024B0009D8F8C89843041F0863031F0893021F055
:1024C0008A3011F08B3029F48D8D8F3110F08E51C0
:1024D0008D8F8C89823029F48D8D8D3110F08C5147
:1024E0008D8F87E091E10E94C00F87E091E161E06C
:1024F000412F0E94AE0EDF91CF911F9108950F934F
:102500001F938C0166E00E94AC10C8010E94860DEA
:102510001F910F9108950F931F93CF93DF93EC01B9
:10252000042F6FA380E361E00E94B4031FA1113068
:1025300019F0103199F40DC080E361E00E94D203DC
:10254000013019F482E08A8B09C0002339F41A8B18
:1025500005C080E360E00E94D2031A8ADF91CF9128
:102560001F910F91089560E140E00E948B12089541
:10257000CF93DF93EC0161E040E00E948B128091E9
:102580001416882321F484E196E10E945373CE014E
:102590000E94940ECE010E94550DCE016DE00E9466
:1025A000AC10DF91CF9108950E94B8120895AF92B8
:1025B000BF92CF92DF92EF92FF920F931F939B01F6
:1025C0004115510561F14130510559F00F2EF0E0F0
:1025D000EF2EF0E0FF2EF0E00F2FF0E01F2FF02D98
:1025E00049C0B901882777FD8095982F0E94D68031
:1025F0007B018C012DEB32E546E15DE30E948A818F
:1026000025EC3EEF42E050E40E94D77F5B016C0175
:10261000C801B70126EF34E246ED55EB1DC0B90104
:10262000882777FD8095982F0E94D6807B018C01AA
:102630002DEB32E546E15FE30E948A8125EC3EEF17
:1026400042E050E40E94D77F5B016C01C801B701F2
:102650002BE335E246ED59EB0E948A81A8019701F0
:102660000E948A819B01AC01C601B5010E94D87FFE
:102670007B018C01C801B70120E030E046EC52E458
:102680000E948681181654F40F2EF0E0EF2EF0E031
:10269000FF2EF8EC0F2FF2E41F2FF02DB701C80129
:1026A0001F910F91FF90EF90DF90CF90BF90AF9070
:1026B0000895AF92BF92CF92DF92EF92FF920F9365
:1026C0001F93FB01142F8081282F30E066E03595A1
:1026D00027956A95E1F751E0C52ED12CC222D3226D
:1026E00090E0A0E0B0E08F739070A070B0704427CD
:1026F000582F692F7A2F8181480F511D611D711D3F
:1027000092E0440F551F661F771F9A95D1F782817B
:102710008295869586958370480F511D611D711DA8
:10272000359527952130310579F481E0C816D1041B
:10273000E1F40F2EF0E0AF2EF0E0BF2EF0E0CF2E50
:10274000F0E4DF2EF02D23C0CD2859F40F2EF0E059
:10275000AF2EF0E0BF2EF0E0CF2EF0ECDF2EF02D0C
:1027600016C04F5F5F4F60407040CB01BA010E94BE
:10277000D68020E030E040EC5FE30E948A8120E0D8
:102780003FEF4FE757E40E9440805B016C0111303E
:1027900009F04FC0C601B50120E030E44BE754E436
:1027A0000E948A8120E030E44BEF54E40E948A8149
:1027B0002AE63FE64BE45AE40E94D87F7B018C0175
:1027C000C601B50120E030E44BEF54E40E948A8159
:1027D0009B01AC0160E078E48FE495E40E94D77F30
:1027E0009B01AC01C801B7010E94408028E431E69A
:1027F0004AE754E40E94D77F2EEA3FEF48EA54E4C8
:102800000E94408028EB3EEC4AEB54E40E948A810F
:102810002FE832E049E754E40E94D87F20E030E01E
:102820004AE754E40E94D77F26E931E24AE750E4C0
:102830000EC01123A1F4C601B50120E030EE4BE239
:1028400056E40E948A8120E030E04AE754E40E9486
:1028500040809B01AC01832F942F752F00C0262F41
:10286000382F492F572FB901CA011F910F91FF909F
:10287000EF90DF90CF90BF90AF900895882777FDBD
:102880008095982F0E94D68020E030E44EE455E4F5
:102890000E948A8120E030EC4FE754E40E9440809F
:1028A0002AE939E949E15FE30E94408020E030E015
:1028B00047E853E40E94D87F20E030E44CE955E437
:1028C0000E9440802CE53FE842EC5DE30E94D87F07
:1028D00020EE3DE240E15CE30E9440800895EF92EB
:1028E000FF920F931F93CF93DF93EC017A018B013B
:1028F000CB01BA0120E030E040E85EE30E943C807A
:1029000088231CF480E190E04EC1C801B70120E0AB
:1029100030E040E85EE30E94868188236CF0C801C5
:10292000B70129E23CE54FE85EE30E943C80882342
:102930001CF484E090E037C1C801B70129E23CE50E
:102940004FE85EE30E94868188236CF0C801B701DE
:1029500023E333E343EB5EE30E943C8088231CF4D3
:1029600088E090E020C1C801B70123E333E343EBE3
:102970005EE30E94868188236CF0C801B70120E0E5
:1029800030E040E05FE30E943C8088231CF480E458
:1029900090E009C1C801B70120E030E040E05FE30A
:1029A0000E94868188236CF0C801B70126E636E6CE
:1029B00046E25FE30E943C8088231CF480E290E0C2
:1029C000F2C0C801B70126E636E646E25FE30E94A0
:1029D000868188236CF0C801B7012AE939E949E505
:1029E0005FE30E943C8088231CF480E091E0DBC020
:1029F000C801B7012AE939E949E55FE30E94868108
:102A000088236CF0C801B7012DEC3CEC4CE85FE387
:102A10000E943C8088231CF480E890E0C4C0C80178
:102A2000B7012DEC3CEC4CE85FE30E9486818823E3
:102A30006CF0C801B70127ED33EA40EB5FE30E9479
:102A40003C8088231CF481E090E0ADC0C801B70150
:102A500027ED33EA40EB5FE30E94868188236CF028
:102A6000C801B7012DEC3CEC4CEC5FE30E943C80CC
:102A700088231CF482E090E096C0C801B7012DECD9
:102A80003CEC4CEC5FE30E94868188236CF0C8012B
:102A9000B70128E431EE4AEF5FE30E943C808823CF
:102AA0001CF480E094E07FC0C801B70128E431EE57
:102AB0004AEF5FE30E94868188236CF0C801B7016A
:102AC0002AE939E949E050E40E943C8088231CF45B
:102AD00080E092E068C0C801B7012AE939E949E01D
:102AE00050E40E94868188236CF0C801B70126E675
:102AF00036E646E150E40E943C8088231CF480E0E6
:102B000090E451C0C801B70126E636E646E150E43C
:102B10000E94868188236CF0C801B70126E636E65C
:102B200046E250E40E943C8088231CF419821882FB
:102B30003CC0C801B70126E636E646E250E40E94F2
:102B4000868188236CF0C801B70123E333E343E3B4
:102B500050E40E943C8088231CF480E090E123C074
:102B6000C801B70123E333E343E350E40E948681C5
:102B700088236CF0C801B70126E636E646E450E447
:102B80000E943C8088231CF480E098E00CC0C801BF
:102B9000B70126E636E646E450E40E9486818823A3
:102BA00024F080E090E299838883DF91CF911F9198
:102BB0000F91FF90EF900895882777FD8095982FCB
:102BC0000E94D68020E030E44EE455E40E948A81E1
:102BD00020E030EC4FE754E40E9440802AE939E9D4
:102BE00049E15FE30E94408020E030E048E454E4A3
:102BF0000E94D77F20E030E048EF51E40E944080FF
:102C00000895882777FD8095982F0E94D68020E030
:102C100030E44EE455E40E948A8120E030EC4FE736
:102C200054E40E94408020E030E04AEF53E40E94E8
:102C3000D77F20E030E040E251E40E9440800895D8
:102C4000AF92BF92CF92DF92EF92FF920F931F93BA
:102C5000CF93DF930E9452025B016C01EE24FF24AC
:102C6000C0E0D0E00EC089E00E941D048C0121E08C
:102C7000E216F10419F4009709F421960E94520219
:102C800078010E9452026A197B098C099D09695BCF
:102C90007B408040904038F364E670E080E090E054
:102CA0000E946A02CE01DF91CF911F910F91FF9098
:102CB000EF90DF90CF90BF90AF900895AF92BF920A
:102CC000CF92DF92EF92FF920F931F93CF93DF93F8
:102CD0000E9452025B016C01EE24FF24C0E0D0E0B0
:102CE0000EC088E00E941D048C0121E0E216F10470
:102CF00019F4009709F421960E94520278010E946B
:102D000052026A197B098C099D09695B7B408040EE
:102D1000904038F364E670E080E090E00E946A0240
:102D2000BE01882777FD8095982F0E94D680DF917D
:102D3000CF911F910F91FF90EF90DF90CF90BF90B8
:102D4000AF900895BF92CF92DF92EF92FF920F93D0
:102D50001F93CF93DF93162F8FE060E00E94B403A0
:102D600081E160E00E94B40383E160E00E94B4036B
:102D70008AE060E00E94D203143049F0183051F02C
:102D8000123019F4FFE0BF2E07C0BB2405C0E3E1F9
:102D9000BE2E02C071E1B72E0E9452026B017C016F
:102DA000C0E0D0E000E010E08B2D0E941D042197D0
:102DB00039F4009729F40F5F1F4FC0E0D0E001C045
:102DC000EC0187E0003D18077CF30E9452026C1969
:102DD0007D098E099F090E94D4809B01AC0160E0AF
:102DE00074E284EF99E40E944080DF91CF911F91BB
:102DF0000F91FF90EF90DF90CF90BF9008956623E2
:102E000009F051C04034510509F44AC0413451051C
:102E1000C8F442305105D1F14330510540F4411519
:102E20005105B1F14130510509F08DC031C0483034
:102E3000510561F14032510599F14430510509F0D5
:102E400082C024C084E04030580751F184E0413012
:102E5000580768F481E040305807E1F082E04030E4
:102E60005807C1F04038510509F06DC013C080E12A
:102E70004030580749F080E24030580789F0405010
:102E8000584009F060C00CC084E00BC082E009C06B
:102E90008EE007C087E061E00E94D2038AE001C0B3
:102EA00087E061E049C0613009F04DC04034510510
:102EB00009F440C041345105B8F442305105B1F134
:102EC0004330510538F44115510591F14130510518
:102ED000D1F52EC04830510549F14032510551F12C
:102EE0004430510581F522C084E04030580711F18B
:102EF00084E04130580760F481E040305807D1F059
:102F000082E040305807B1F040385105E1F412C07A
:102F100080E14030580741F080E24030580779F0B6
:102F20004050584081F406C084E005C082E003C0F0
:102F30008EE001C087E060E00E94D203089587E040
:102F400060E00E94D203089582E360E00E94B4032F
:102F500082E361E00E94D20385E061E00E94B40355
:102F600084E061E00E94B40386E061E00E94B40363
:102F700087E061E00E94B40389E060E00E94B4034E
:102F80008AE061E00E94B40388E060E00E94B4033C
:102F900082E061E00E94B4038EE061E00E94B4032D
:102FA0008AE161E00E94B40388E161E00E94B40319
:102FB0008FE060E00E94B40381E160E00E94B4030E
:102FC00083E160E00E94B40385E060E00E94D203E8
:102FD00084E060E00E94D20386E060E00E94D203B9
:102FE00087E060E00E94D2038AE060E00E94D203A2
:102FF00082E060E00E94D2038EE060E00E94D20393
:103000008AE160E00E94D20388E160E00E94D2037E
:1030100008958EE491E10E94A41708954F925F9263
:103020007F928F929F92AF92BF92CF92DF92EF9258
:10303000FF920F931F93CF93DF932C01762E66237D
:1030400019F403E0702E05C021E0621711F415E0B9
:10305000712E86E061E00E94B40385E061E00E9489
:10306000B40386E061E00E94D20385E061E00E9443
:10307000D20381E090E00E94B20286E060E00E940C
:10308000D20385E060E00E94D20381E090E00E94DC
:10309000B20285E061E00E94D20386E061E00E9416
:1030A000D20381E090E00E94B20285E060E00E94DD
:1030B000D20386E065E041E0272D0E94FE7D85E099
:1030C00061E00E94D20386E060E00E94B4030E94A7
:1030D00052025B016C0186E00E941D04EC0104C0F9
:1030E0000E9452025B016C01219709F0DBC00E9433
:1030F0005202750186016E197F09800B910B6A30AF
:1031000071058105910508F0CDC086E00E941D047F
:10311000EC010E9452026E157F058007910720F78F
:10312000DFCF0E9452025B016C01CD2B09F0C9C0B8
:103130000E945202750186016E197F09800B910B66
:103140006A3071058105910508F0BBC086E00E94D8
:103150001D04EC010E9452026E157F058007910745
:1031600020F7DFCF0130110509F0B6C00E945202EE
:103170006C197D098E099F0960597140804090400B
:1031800008F0AAC086E00E941D048C01EBCF85E008
:1031900061E00E94D203CC0FDD1F86E00E941D0477
:1031A000C80FD91F85E060E00E94D2030F5F1F4F58
:1031B0000830110561F70E94520286E00E941D044A
:1031C0006C010E9452024B015C01CD2809F08DC0B8
:1031D0000E945202740185016E197F09800B910BC8
:1031E0006A3071058105910508F07FC086E00E9474
:1031F0001D046C010E9452026E157F058007910725
:1032000020F7DFCF85E061E00E94D203CC0FDD1F05
:1032100086E00E941D04C80FD91F85E060E00E946F
:10322000D2030F5F1F4F0830110561F70E94520251
:1032300086E061E00E94B40386E061E00E94D20370
:1032400085E061E00E94D20380E991E00E94B20231
:1032500085E060E00E94D20386E060E00E94D20335
:1032600083E07816A1F4BE01882777FD8095982F1A
:103270000E94D6802AE037ED43E25CE30E948A8117
:103280002DEC3CEC4EE152E40E94D77F51C025E08A
:10329000721639F4C201BE0141E050E00E94D7121B
:1032A00047C046C00E94520285E060E00E94D203FF
:1032B0000E9452025B016C0186E00E941D04EC0139
:1032C00034CF0E94520286E00E941D048C010E94AD
:1032D00052026B017C0146CF0E9452020E945202B0
:1032E000C0E0D0E000E010E052CF0E94520286E041
:1032F00061E00E94B40386E060E00E94D20381E0B6
:1033000090E00E94B20285E061E00E94D20380E971
:1033100091E00E94B20285E060E00E94D20386E064
:1033200060E00E94B4030E94520200E010E06ACF05
:10333000DF91CF911F910F91FF90EF90DF90CF9091
:10334000BF90AF909F908F907F905F904F90089527
:103350000F931F93DF93CF9300D0CDB7DEB780914B
:103360001416882321F484E196E10E945373198294
:103370001A8264E670E080E090E00E946A0262E3F4
:1033800070E080E090E00E946A0284E196E164E1EE
:1033900070E042E050E00E9450738E010F5F1F4FBB
:1033A00007C084E196E10E94EC72F80181938F01DD
:1033B00084E196E10E94E672882399F780911416C1
:1033C000882371F080911911813051F085E091E1ED
:1033D0000E94470C87E091E160E141E00E948B127E
:1033E000298130E040E050E0542F432F322F222734
:1033F0008A81280F311D411D511DCA01B901E3E029
:10340000660F771F881F991FEA95D1F7620F731F08
:10341000841F951F69507048844090400E94D68058
:1034200020E03FEF4FE757E40E9440800F900F905D
:10343000CF91DF911F910F910895662319F06130AC
:1034400021F517C08AE161E00E94D20388E161E0C2
:103450000E94D20380911911882331F487E091E111
:1034600061E041E00E948B1287E061E00E94D2039C
:1034700008958AE160E00E94D20388E160E00E9442
:10348000D20387E060E00E94D2030895EF92FF929A
:103490000F931F93DF93CF9300D00F92CDB7DEB77A
:1034A0007C01DE011196ECE1F0E183E001900D92E8
:1034B0008150E1F780911416882321F484E196E18C
:1034C0000E94537364E670E080E090E00E946A021C
:1034D00064E670E080E090E00E946A0264E670E0DA
:1034E00080E090E00E946A0284E196E166E170E08B
:1034F0000E94DC7284E196E160EA0E94087384E134
:1035000096E165E570E00E942C7384E196E10E94EB
:103510002F736CE271E080E090E00E946A0284E127
:1035200096E166E170E043E050E00E9450738E0146
:103530000F5F1F4F07C084E196E10E94EC72F80113
:1035400081938F0184E196E10E94E672882399F7C6
:1035500080911416882371F080911911813051F0F7
:1035600085E091E10E94470C87E091E160E141E054
:103570000E948B12C701BE016F5F7F4F41E00E9426
:1035800059130F900F900F90CF91DF911F910F91D2
:10359000FF90EF900895EF92FF920F931F93DF93A8
:1035A000CF9300D00F92CDB7DEB77C01DE0111962C
:1035B000EFE1F0E183E001900D928150E1F780911D
:1035C0001416882321F484E196E10E94537364E683
:1035D00070E080E090E00E946A0264E670E080E0C3
:1035E00090E00E946A0264E670E080E090E00E9451
:1035F0006A0284E196E166E170E00E94DC7284E197
:1036000096E161EA0E94087384E196E165E570E065
:103610000E942C7384E196E10E942F736CE271E0AA
:1036200080E090E00E946A0284E196E166E170E049
:1036300043E050E00E9450738E010F5F1F4F07C0A0
:1036400084E196E10E94EC72F80181938F0184E19C
:1036500096E10E94E672882399F7809114168823D8
:1036600071F080911911813051F085E091E10E9453
:10367000470C87E091E160E141E00E948B12C701B5
:10368000BE016F5F7F4F40E00E9459130F900F9073
:103690000F90CF91DF911F910F91FF90EF900895C0
:1036A000EF92FF920F931F93CF93DF93EC0160345F
:1036B000710509F494C06134710508F56430710531
:1036C00009F452C06530710568F46130710509F480
:1036D00061C06130710508F460C06230710509F0A5
:1036E000D0C03BC06031710509F49EC060327105E5
:1036F00009F472C06830710509F0C3C03CC084E0B1
:103700006030780709F480C084E06130780778F48D
:1037100081E06030780709F467C082E060307807A4
:1037200009F46AC06038710509F0ABC05BC080E184
:103730006030780751F080E26030780709F489C082
:103740006050784009F09DC063C083E00E94517BC7
:10375000BC01CE010E943E1491C08AE060E00E944C
:10376000D203CE0162E00DC08AE060E00E94D20385
:10377000CE0164E006C08AE060E00E94D203CE0180
:1037800068E00E94A2167B018C018AE061E00E9441
:10379000D2037BC00E945E1671C085E00E94517BFF
:1037A000A0E0B0E0BC01CD010E94D48023E333E36C
:1037B00043E550E40E948A8120E030EC4FE754E476
:1037C0000E9440809B01AC017B018A01CE01A901CE
:1037D000B8010E946F1459C00E94CB1A4FC00E94BA
:1037E000461A4CC086E036C084E00E94517BBC0182
:1037F000CE010E94011642C082E00E94517BBC01B2
:10380000CE010E94DC153AC0CE010E94A81936C034
:10381000442319F4CE0160E004C0413091F5CE019B
:1038200061E00E940E182AC00E942016A0E0B0E0BD
:10383000BC01CD010E94D48024E83DE04FE85EE366
:103840000E948A8120E030E040EA51E40E948A81AF
:1038500015C087E00E94517BA0E0B0E0BC01CD0123
:103860000E94D48023E333E343E550E40E948A813D
:1038700020E030EC4FE754E40E9440807B018C0153
:1038800004C0EE24FF2400E010E0B701C801DF917E
:10389000CF911F910F91FF90EF90089540E00E940B
:1038A000501B0895882777FD8095982F0E94D68019
:1038B00020E030E44EE455E40E948A8120E030ECC0
:1038C0004FE754E40E9440802AE939E949E15FE387
:1038D0000E94408020E030E042E053E40E94D77F25
:1038E00020E030E44CE955E40E9440802CE53FE8BC
:1038F00042EC5DE30E94D87F20EE3DE240E15CE3D4
:103900000E9440800895882777FD8095982F0E9417
:10391000D68020E030E44EE455E40E948A8120E025
:1039200030EC4FE754E40E94408020E030E04AEF62
:1039300053E40E94D77F20E030E040E251E40E944F
:1039400040800895882777FD8095982F0E94D68023
:1039500020E030E44EE455E40E948A8120E030EC1F
:103960004FE754E40E9440802AE939E949E15FE3E6
:103970000E94408020E030E048E454E40E94D77F79
:1039800020E030E048EF51E40E9440800895CF935A
:10399000DF93EC01662309F042C04031510509F480
:1039A00068C04131510560F444305105F9F04830A8
:1039B000510509F45AC04230510509F073C014C0D2
:1039C00040345105A9F04134510528F440325105E5
:1039D00009F068C04CC082E040305807D1F0405038
:1039E000504109F05FC00AC085E044C088E042C091
:1039F00082E061E00E94D20384E03CC086E061E0A6
:103A00000E94D20382E061E00E94D20381E08883B9
:103A10004AC08AE061E00E94D20387E02BC0613097
:103A200011F080E040C04032510519F1413251059A
:103A300050F444305105C9F040315105C1F04230D5
:103A4000510581F50CC082E04030580729F180E132
:103A500040305807B9F04034510521F50DC085E0DC
:103A600060E00E94D20381E01EC088E0F9CF89E0C7
:103A7000F7CF89E061E0F5CF82E060E00E94D203F9
:103A800084E0EECF86E060E00E94D20382E060E056
:103A90000E94D2031882E7CF8AE060E00E94D2033E
:103AA00087E0DECF8FEFDF91CF910895EF92FF9205
:103AB0000F931F93CF93DF937C0181E060307807F1
:103AC00009F458C0E1E061307E0720F460387105E8
:103AD00051F40CC0F4E060307F0709F493C06050EB
:103AE000784009F4BCC0CFEFDFEFEBC084E061E0C9
:103AF0000E94D2036EE070E080E090E00E946A02D3
:103B000084E060E00E94D20364EC73E080E090E027
:103B10000E946A0286E060E00E94D2036AE070E0E0
:103B200080E090E00E946A0282E061E00E94D2039D
:103B300063E070E080E090E00E946A0287E00E940B
:103B4000517BEC0162E070E080E090E00E946A024C
:103B500082E060E00E94D20368E070E080E090E0E4
:103B60000E946A02F7018081882309F4AAC086E0D6
:103B700061E072C086E060E00E94D20364E070E021
:103B800080E090E00E946A0284E061E00E94D2033B
:103B900062E070E080E090E00E946A0282E061E012
:103BA0000E94D20365E070E080E090E00E946A022B
:103BB00087E00E94517B182F092F82E060E00E946D
:103BC000D20367E070E080E090E00E946A0284E047
:103BD00060E00E94D20362E070E080E090E00E942A
:103BE0006A02F7018081882321F086E061E00E946B
:103BF000D203812F902F9C01E90166EE70E080E0F6
:103C000090E05DC087E061E00E94D2036EE070E06A
:103C100080E090E00E946A0287E060E00E94D203A8
:103C200064ED73E080E090E00E946A028AE061E067
:103C30000E94D20363E070E080E090E00E946A029C
:103C400086E00E94517BEC0162E070E080E090E051
:103C50000E946A028AE060E00E94D20332C087E0DC
:103C600061E00E94D20362E070E080E090E00E9498
:103C70006A028AE061E00E94D20364E070E080E0C2
:103C800090E00E946A0286E00E94517BEC0161E0B4
:103C900070E080E090E00E946A028AE060E00E94AA
:103CA000D20367E070E080E090E00E946A0287E063
:103CB00060E00E94D2036CEE70E080E090E00E9431
:103CC0006A02CE01DF91CF911F910F91FF90EF908B
:103CD00008950F931F93CF93DF93EC01603271052A
:103CE00009F460C061327105D0F46230710509F4E5
:103CF0004FC06330710538F461157105C9F1613049
:103D0000710589F53DC06830710509F449C060311D
:103D1000710509F447C06430710529F541C082E09E
:103D20006030780709F46BC082E06130780768F48E
:103D30006038710509F45BC081E06030780709F4F0
:103D40005AC06034710579F42FC088E0603078077C
:103D500009F45DC080E16030780709F446C0605026
:103D6000744009F450C060E070E080E89FEB68C0E8
:103D700081E00E94517BBC01CE010E94831C60C087
:103D800084E00E94517BBC01CE010E94A21C58C05D
:103D900085E00E94517BBC01CE010E94521C50C0A4
:103DA00083E02EC082E02CC086E060E00E94D20357
:103DB0006AE070E080E090E00E946A0287E00E9482
:103DC000517B8C016AE070E080E090E00E946A0222
:103DD0008881882321F086E061E00E94D203B80147
:103DE000882777FD8095982F1DC087E009C0CE01F8
:103DF00060E870E00FC0CE0160E071E00BC086E0CB
:103E00000E94517B09C0CE0160E074E003C0CE0186
:103E100060E078E00E94561DAA2797FDA095BA2F72
:103E2000BC01CD010E94D68023E333E343E550E497
:103E30000E948A8120E030EC4FE754E40E944080E9
:103E4000DF91CF911F910F9108950F931F93162F1C
:103E5000042F80911416882321F484E196E10E94B6
:103E6000537364E670E080E090E00E946A0284E1AF
:103E700096E1612F0E94D27284E196E160E170E0E8
:103E80000E942C73802F90E001979695982F882799
:103E9000979587956CE97FEF0E942C82605884E1AA
:103EA00096E10E94087384E196E10E942F7380914D
:103EB0001416882371F080911911813051F085E03A
:103EC00091E10E94470C87E091E160E141E00E94AE
:103ED0008B121F910F910895613049F0613028F0E5
:103EE000623039F0643061F408C068E203C06CE20B
:103EF00001C06EE20E94251F08956AE20E94251FFC
:103F00000895DF92EF92FF920F931F93D62E7901BF
:103F10008A0180911416882321F484E196E10E949D
:103F2000537364E670E080E090E00E946A0284E1EE
:103F300096E16D2D0E94D27284E196E160E070E01E
:103F40000E942C73C801B70120E030E040E053E448
:103F50000E948A8120E030E048EC52E40E944080D8
:103F60009B01AC0160E070E080E093E40E94D77FA9
:103F70000E94A8809B01AC0184E196E1622F0E941F
:103F8000087384E196E10E942F73809114168823B0
:103F900071F080911911813051F085E091E10E941A
:103FA000470C87E091E160E141E00E948B121F9194
:103FB0000F91FF90EF90DF900895603131F0603203
:103FC00041F0683049F46CE201C06EE20E94811F4A
:103FD00008956AE20E94811F0895BF92CF92DF92F6
:103FE000EF92FF920F931F93CF93DF936C01EB013E
:103FF000B42E78018901C801B70120E030E048EC17
:1040000052E40E948681181614F480E058C085E6B8
:104010008B1510F48EEF53C0C038D105D9F1C138DB
:10402000D10598F4C031D10561F1C131D10530F429
:10403000C430D10519F12897F9F420C0C032D10558
:1040400001F1C034D105C1F425C084E0C030D807E7
:1040500051F184E0C130D80740F481E0C030D80786
:10406000C9F0C050D24041F41EC088E0C030D8072B
:10407000D1F0C050D04171F08FEF21C0C60160E097
:104080001AC0C60168E0A80197010E94DD1FC601A1
:1040900061E011C0C60160E1A80197010E94DD1F27
:1040A000C60162E008C0C60160E2A80197010E9453
:1040B000DD1FC60164E04B2D0E946C1F81E0DF9183
:1040C000CF911F910F91FF90EF90DF90CF90BF9015
:1040D00008950F931F936430710529F068307105BE
:1040E00011F08FEF07C000E010E020E030E00E9408
:1040F000ED1F81E01F910F910895662321F061303B
:10410000B1F080E008958AE161E00E94D20388E185
:1041100061E00E94D20380911911882331F487E075
:1041200091E161E041E00E948B1281E008958AE113
:1041300060E00E94D20388E160E00E94D20381E047
:10414000089561E00E947D20089560E00E947D2036
:10415000089584E061E00E94B40386E061E00E947B
:10416000B40387E061E00E94B40388E061E00E944C
:10417000B40389E061E00E94B4038AE061E00E9438
:10418000B40382E061E00E94B4038AE161E00E942E
:10419000B40388E161E00E94B40384E060E00E941F
:1041A000D20386E060E00E94D20387E060E00E94D4
:1041B000D20388E060E00E94D20389E060E00E94C0
:1041C000D2038AE060E00E94D20382E060E00E94B5
:1041D000D2038AE160E00E94D20388E160E00E949D
:1041E000D203089580E591E10E94A92008951092DC
:1041F000511108950F93FC01CB01BA012AE030E080
:1042000040E050E000810E94887C0F910895AB014E
:1042100060E070E00E94FA2008950F931F938C01D4
:104220008DE0F80160810E94617C8AE0F801608184
:104230000E94617C1F910F9108950F931F938C0131
:104240000E94FA20C8010E940D211F910F9108952C
:10425000EF92FF920F931F93CF93DF93EC017A01BC
:104260008B0177FF0CC08DE268810E94617C109504
:104270000095F094E094E11CF11C011D111DC80192
:10428000B7012AE030E040E050E008810E94887CDD
:10429000DF91CF911F910F91FF90EF9008950F93B1
:1042A0001F938C01AB01662757FD6095762F0E9406
:1042B0002821C8010E940D211F910F9108950F938D
:1042C0001F93FC01DA018B012115310529F4842F9C
:1042D00060810E94617C0EC02A30310519F40E9471
:1042E000282108C030E040E050E0BD01C801008155
:1042F0000E94887C1F910F910895FC01CB01608181
:104300000E94727C08950F931F938C01CB01F801DA
:1043100060810E94727CC8010E940D211F910F9143
:104320000895FC0160E076E980E090E040810E9421
:10433000827D0895FB0120E030E002C02F5F3F4FF7
:1043400081918823D9F7C90108950F931F93CF93C3
:10435000DF938B01BA01DA0140E050E0C22FD0E0D8
:1043600019C0F801E40FF51F8081982F92959F7076
:104370008F709A3010F4905D01C0995C9C938A30E4
:1043800010F4805D01C0895C11968C9311974F5F8A
:104390005F4F12964C175D0724F3CC0FDD1FC60F3D
:1043A000D71F1882DF91CF911F910F91089528E0B8
:1043B0000E94A52108958F929F92AF92BF92CF92B3
:1043C000DF92EF92FF920F931F93CF93DF93992485
:1043D00001C09394FB01E90DF11D808180538A3067
:1043E000C0F35B01EE24FF24870120C02AE030E007
:1043F00040E050E00E94ED810894C11CD11CCC1615
:10440000DD06A4F3282D332727FD309520533040B7
:10441000442737FD4095542F0E94ED81E60EF71E8C
:10442000081F191F9A940894A11CB11CF5018080E3
:10443000882D80538A3050F461E070E080E090E095
:10444000CC24DD24C92DD0E02197D9CFB701C801F4
:10445000DF91CF911F910F91FF90EF90DF90CF9060
:10446000BF90AF909F908F900895FB019081892F0E
:1044700080538A3038F4292F332727FD3095205375
:1044800030400DC0892F8154863018F020E030E094
:1044900007C0292F332727FD309527533040319609
:1044A0006081862F80538A3030F4772767FD7095BE
:1044B000605370400CC0862F8154863018F060E045
:1044C00070E005C0772767FD709567537040A4E0E2
:1044D000220F331FAA95E1F7862F820F08956833C4
:1044E000A1F1693380F4643341F1653338F4623308
:1044F00001F1633300F56133D1F417C0663309F17C
:10450000673308F51CC0633441F1643438F4613416
:1045100001F1623400F5693351F419C0653409F1D1
:104520006534E8F0663419F41EC081E01DC080E0F7
:104530001BC082E019C083E017C084E015C085E08D
:1045400013C086E011C087E00FC088E00DC089E08D
:104550000BC08AE009C08BE007C08CE005C08DE08D
:1045600003C08EE001C08FE04733A1F1483380F4EF
:10457000433341F1443338F44133F1F0423300F531
:104580004033E1F51BC0453309F1463308F51CC043
:10459000423441F1433438F4493301F14933E0F016
:1045A000413461F51DC0443409F14434E8F0453428
:1045B000F9F04634F9F0089591E01DC090E01BC079
:1045C00092E019C093E017C094E015C095E013C0C5
:1045D00096E011C097E00FC098E00DC099E00BC0C5
:1045E0009AE009C09BE007C09CE005C09DE003C0C5
:1045F0009EE001C09FE08295807F890F0895089515
:10460000CB01642F0E94C4880895CB010E94BC880E
:1046100008958FE261E00E94B40384E261E00E94A9
:10462000B40385E261E00E94B4038FE261E00E947E
:10463000D20384E261E00E94D20385E261E00E943D
:10464000D20308950F931F93162F042F8FE261E07A
:104650000E94B40384E261E00E94B40385E261E059
:104660000E94B4038FE261E00E94D20384E2612FD2
:104670000E94D20385E2602F0E94D2031F910F9106
:10468000089510929212109294120895EF92FF9250
:104690000F931F93CF93DF93EC017A018B0177FF88
:1046A0000CC08DE268810E94617C10950095F094A9
:1046B000E094E11CF11C011D111DC801B7012AE0A5
:1046C00030E040E050E008810E94887CDF91CF918B
:1046D0001F910F91FF90EF9008950F931F93FC018E
:1046E000DA018B012115310529F4842F60810E94A4
:1046F000617C16C02A30310519F40E94462310C08F
:104700002031310529F4842F60810E942A7D08C060
:1047100030E040E050E0BD01C80100810E94887C8B
:104720001F910F910895FC0180810E94CB7B089519
:10473000FC0180810E94907B0895FC0180810E9491
:104740006C7B0895FC016183613019F06330B9F529
:1047500018C08081882311F486E111C082E591E1BF
:104760000E94092386E061E00E94B40386E061E0D4
:104770000E94D2038AE261E00E94B4038AE261E00F
:1047800005C08081882329F486E160E00E94D2037D
:10479000089582E591E160E040E00E94222386E0F6
:1047A00061E00E94B40386E060E00E94D2038AE2E6
:1047B00061E00E94B4038AE260E00E94D20308959F
:1047C000FC0180810E94647D0895FC01262F608396
:1047D00060E070E0CB01BA01422F0E94827D86E149
:1047E00061E00E94B40308950F931F93CF93DF936A
:1047F000DC018B01EC01C658DD4F1982188240E0C4
:10480000BE0106C04F5F2F5F3F4FFB013183208306
:10481000FB0120813181F801E20FF31F80818823A1
:1048200089F7469583E090E09983888390E0ED01D5
:10483000C658DD4F50E00BC0FD01E20FF31FE857F3
:10484000FD4F8081980F2F5F3F4F39832883288148
:1048500039812417350780F3892F8095A40FB51F60
:10486000A957BD4F8C93DF91CF911F910F91089560
:10487000AF92BF92CF92DF92EF92FF920F931F936E
:10488000CF93DF937C018B0106551F4FD8018C918C
:104890000A5A1040F801E855FF4F813009F024C151
:1048A000C22EDD24DA01AC0DBD1D83E28C93808124
:1048B000813009F446C0813020F0823009F038C2DE
:1048C000AAC011961C92119701571F4FF8018191B0
:1048D0008F0112968C931297808100591040139685
:1048E0008C931397F701E658FD4F11821082EF0168
:1048F000FCE7CF2EF2E0DF2ECE0CDF1CB7016258B2
:104900007D4FAD010FC0FA01E20FF31FA00FB11FE1
:10491000A20FB31F1C968C91848388819981019684
:104920009983888328813981F601A081B181FB01B7
:104930008081918101968A1B9B0B2817390718F3F8
:10494000F7C111968C93B70166587D4FDB011D921C
:104950001C92EB0110C0FA01EA0FFB1FEC0DFD1DCC
:10496000A00FB11FA557BF4F8C9182838881998179
:10497000019699838883A881B981A430B10558F341
:10498000FB0111821082E701C658DD4F10C0FA0109
:10499000EA0FFB1FEC0DFD1DA00FB11FA957BF4F64
:1049A0008C91868388819981019699838883A881D7
:1049B000B981A430B10558F319821882E701C658AD
:1049C000DD4FECE7AE2EE2E0BE2EAE0CBF1C970131
:1049D00022583D4F11C0FA01E60FF71FEC0DFD1DE7
:1049E000A00FB11FA60FB71F1C968C9182878881DC
:1049F000998101969983888368817981F501A081E5
:104A0000B181F9018081918101968A1B9B0B681706
:104A1000790708F38DC111968C93C0E0D0E0D701DF
:104A2000A658BD4F06C0E9016F5F7F4F11967C937A
:104A30006E936D917C911197F801E60FF71FEF5679
:104A4000FF4F80819E012F5F3F4F833261F71D92A0
:104A50001C92E701C658DD4F10C0FA01EA0FFB1F98
:104A6000EC0DFD1DA00FB11FAF56BF4F8C9182837F
:104A700088819981019699838883A881B981A21739
:104A8000B30758F319821882E701C658DD4F7CE757
:104A9000A72E72E0B72EAE0CBF1C8EE792E0E80E98
:104AA000F91E13C0FA01E60FF71FE20FF31FEC0D1A
:104AB000FD1DA00FB11FA60FB71F1C968C918283FE
:104AC0008881998101969983888368817981F5012C
:104AD000A081B181F7018081918101968A1B9B0B96
:104AE00068177907F8F224C18081813009F446C043
:104AF000813020F0823009F01BC1AEC030E0FA01F5
:104B0000E20FF31F108201571F4FD8018D918D01C5
:104B100081838C91005910408283F701E658FD4F44
:104B200011821082EF016CE7C62E62E0D62ECE0C09
:104B3000DF1CEEE7F2E0EE0EFF1E11C0FA01E60FF9
:104B4000F71FE20FF31FA00FB11FA60FB71F1C9690
:104B50008C91838388819981019699838883688168
:104B60007981F601A081B181F7018081918101965F
:104B70008A1B9B0B6817790708F3DAC030E0FA014B
:104B8000E20FF31F8083B70166587D4FDB011D9252
:104B90001C92EB0110C0FA01EA0FFB1FE20FF31F9A
:104BA000A00FB11FA557BF4F8C9181838881998138
:104BB000019699838883A881B981A430B10558F3FF
:104BC000FB0111821082E701C658DD4F10C0FA01C7
:104BD000EA0FFB1FE20FF31FA00FB11FA957BF4F32
:104BE0008C91858388819981019699838883A88196
:104BF000B981A430B10558F319821882E701C6586B
:104C0000DD4F9CE7C92E92E0D92ECE0CDF1C8EE73B
:104C100092E0E80EF91E11C0FA01E60FF71FE20F4D
:104C2000F31FA00FB11FA60FB71F1C968C91818791
:104C30008881998101969983888368817981F601B9
:104C4000A081B181F7018081918101968A1B9B0B24
:104C50006817790708F36CC0C22EDD24FA01EC0D49
:104C6000FD1D8083C0E0D0E0D701A658BD4F06C02F
:104C7000E9016F5F7F4F11967C936E936D917C91EC
:104C80001197F801E60FF71FEF56FF4F80819E0145
:104C90002F5F3F4F833261F71D921C92E701C65888
:104CA000DD4F10C0FA01EA0FFB1FEC0DFD1DA00F38
:104CB000B11FAF56BF4F8C91818388819981019636
:104CC00099838883A881B981A217B30758F3198201
:104CD0001882E701C658DD4F8CE7A82E82E0B82E77
:104CE000AE0CBF1C8EE792E0E80EF91E13C0FA016D
:104CF000E60FF71FE20FF31FEC0DFD1DA00FB11F14
:104D0000A60FB71F1C968C9181838881998101968B
:104D10009983888368817981F501A081B181F70148
:104D20008081918101968A1B9B0B68177907F8F2A5
:104D3000DF91CF911F910F91FF90EF90DF90CF9077
:104D4000BF90AF9008953F924F925F926F927F9283
:104D50008F929F92AF92BF92CF92DF92EF92FF928B
:104D60000F931F93DF93CF9300D000D0CDB7DEB762
:104D70006B014A017901AA24A39410E022E730E0F4
:104D8000C20ED31E21E3422E9DE7792E83E3382EF7
:104D9000BEE56B2EADE55A2E30C1D401A60FB71F6C
:104DA0008C91813111F090E04AC04C92F7018081E2
:104DB0008F5F80838C917C926F5F7F4F9401260F71
:104DC000371F3C832B8361507040FB013296FA837E
:104DD000E98320C0EB81FC81B180418349815A8104
:104DE0004F5F5F4F3296FC83EB8329813A812E5FC0
:104DF0003F4F3A832983F70180819801280F311DA5
:104E0000C901F60120813181820F931F481759078C
:104E1000A8F48B2DEB81FC8140818083F701808198
:104E20009801280F311DC901F60120813181820FBF
:104E3000931F29813A812817390760F291E08C91FC
:104E4000833109F04DC0992309F04AC03C92F70123
:104E500080818F5F80838C917C926F5F7F4F940104
:104E6000260F371F3C832B8361507040FB01329625
:104E7000FA83E98320C0EB81FC81B18041834981C1
:104E80005A814F5F5F4F3296FC83EB8329813A81D1
:104E90002E5F3F4F3A832983F70180819801280FC5
:104EA000311DC901F60120813181820F931F4817FE
:104EB0005907A8F48B2DEB81FC8140818083F70199
:104EC00080819801280F311DC901F60120813181AF
:104ED000820F931F29813A812817390760F291E0E8
:104EE0008C918E3709F04DC0992309F04AC06C921D
:104EF000F70180818F5F80838C917C926F5F7F4F01
:104F00009401260F371F3C832B8361507040FB01B7
:104F10003296FA83E98320C0EB81FC81B180418322
:104F200049815A814F5F5F4F3296FC83EB83298121
:104F30003A812E5F3F4F3A832983F70180819801A0
:104F4000280F311DC901F60120813181820F931F85
:104F500048175907A8F48B2DEB81FC814081808391
:104F6000F70180819801280F311DC901F6012081C8
:104F70003181820F931F29813A812817390760F206
:104F800091E02C912D37C1F59923B1F55C92F70191
:104F900080818F5F80838C912C936F5F7F4FF401B2
:104FA000E60FF71F6F5F7F4F17C0B1804183AB01E2
:104FB0004F5F5F4F32966E5F7F4FD7018C919801A4
:104FC000280F311DC901D6012D913C91820F931FED
:104FD0004817590788F48B2D40818083D7018C9125
:104FE0009801280F311DC901D6012D913C91820FE6
:104FF000931F68177907C8F2A3946A2D70E0F70130
:1050000080819801280F311DC901D6012D913C9155
:10501000820F931F6817790708F4BFCE0F900F9087
:105020000F900F90CF91DF911F910F91FF90EF9014
:10503000DF90CF90BF90AF909F908F907F906F90B8
:105040005F904F903F900895DF92EF92FF920F9301
:105050001F93CF93DF93890180E090E0F3E1DF2E8F
:10506000EEE7EE2E31E1F32E37C02F5F3F4F9C91DC
:105070009D3731F01196319624173507B0F32DC0C6
:105080002417350750F5E9012196E60FF71F8181B6
:10509000833361F0843318F4813369F405C08D35AE
:1050A00049F08E3541F404C0FC9205C0DC9203C087
:1050B000EC9201C09C9341505040F901E00FF11F68
:1050C000E60FF71F02C0818180832F5F3F4F31962B
:1050D000CE0124173507B8F39C012417350738F49F
:1050E000F901E00FF11FDB01AE0FBF1FC0CFDF9151
:1050F000CF911F910F91FF90EF90DF900895EF9265
:10510000FF920F931F93CF93DF938C01EB017A01F2
:10511000FC01E658FD4F2D5F3F4F31832083235024
:105120003040A0E0B0E0AF010BC0FE01E60FF71F7A
:105130008081A80FB11D6F5F7F4FFA01718360837B
:10514000FA01608171816E157F0578F3AF3FB1057B
:1051500021F0AF3F11F081E008C008521E4FC20F8E
:10516000D31F8C81F801808380E0DF91CF911F9164
:105170000F91FF90EF900895EF92FF920F931F937E
:10518000CF93DF93EC01CA5BDD4FE8808DEEE80E34
:1051900024978881C254D240813009F0C9C0CD5DC6
:1051A000DE4FF880C352D140FA948E0106581D4F4D
:1051B000D8011D921C92B8012F2D30E087E290E0BB
:1051C000289FA001299F500D389F500D11244C0F8E
:1051D0005D1F11C0FA01EA0FFB1FE05AFF4FAC0F31
:1051E000BD1FA85BBD4F8C918083FB0180819181A5
:1051F000019691838083FB01A081B181A230B1052A
:1052000048F3D8011D921C92AE0146585D4F2F2DD8
:1052100030E087E290E0289FB001299F700D389F11
:10522000700D11246C0F7D1F11C0FB01EA0FFB1FD5
:10523000EE59FF4FAC0FBD1FA65BBD4F8C91808315
:10524000FA0180819181019691838083FA01A08186
:10525000B181A430B10548F311821082BE016658B5
:105260007D4F2F2D30E087E290E0289FA001299FFD
:10527000500D389F500D11244C0F5D1F12C0FA01C4
:10528000EA0FFB1FEA59FF4FAC0FBD1FA25BBD4FDA
:105290008C918083DB018D919C91119701968D9368
:1052A0009C93FB01A081B181A430B10540F387E25A
:1052B00090E0289FF001299FF00D389FF00D1124F8
:1052C000EC0FFD1FEA57FF4FCE5ADD4F8881C255C4
:1052D000D2408083E658F040AE014A5B5D4FDA0170
:1052E0008D919C910D9720F1DB011D921C929E01E6
:1052F00026583D4FBA01AF0111C0FA01EA0FFB1F5A
:10530000E659FF4FAC0FBD1FAD5ABD4F8C91808346
:10531000F90180819181019691838083F901A081B7
:10532000B181FB01808191810C97A817B90728F3FF
:10533000CE5BDD4F8881C254D2408250843008F069
:1053400047C1CD5DDE4FF880C352D140FA948E0143
:1053500006581D4FD8011D921C92B8012F2D30E028
:1053600087E290E0289FA001299F500D389F500DA3
:1053700011244C0F5D1F11C0FA01EA0FFB1FE05A08
:10538000FF4FAC0FBD1FA85BBD4F8C918083FB010D
:1053900080819181019691838083FB01A081B181FD
:1053A000A230B10548F3D8011D921C92AE014658B7
:1053B0005D4F2F2D30E087E290E0289FB001299FBC
:1053C000700D389F700D11246C0F7D1F11C0FB01F3
:1053D000EA0FFB1FEE59FF4FAC0FBD1FA65BBD4F81
:1053E0008C918083FA0180819181019691838083E1
:1053F000FA01A081B181A430B10548F31182108275
:10540000AE0146585D4F2F2D30E087E290E0289F97
:10541000B001299F700D389F700D11246C0F7D1FF6
:1054200012C0FB01EA0FFB1FEA59FF4FAC0FBD1F73
:10543000A25BBD4F8C918083DA018D919C91119775
:1054400001968D939C93FA01A081B181A430B1059E
:1054500040F311821082AE0146585D4F0E2D10E0D0
:105460002F2D30E087E290E0289FB001299F700D3A
:10547000389F700D11246C0F7D1F12C0FB01EA0FC5
:10548000FB1FE659FF4FAC0FBD1FAE5ABD4F8C91AD
:105490008083DA018D919C91119701968D939C9355
:1054A000FA01A081B181A017B10740F311821082E7
:1054B000BE0166587D4F2F2D30E087E290E0289F97
:1054C000A001299F500D389F500D11244C0F5D1FD6
:1054D00014C0FA01EA0FFB1FE258FF4FAC0FBD1FCB
:1054E000A00FB11FAD5ABD4F8C918083DB018D9110
:1054F0009C91119701968D939C93FB01A081B181A2
:10550000A230B10530F387E290E0289FD001299FB7
:10551000B00D389FB00D1124AC0FBD1FA058BF4F68
:10552000FE01EE0DF11DEB5AFD4F81918D938081AF
:105530008C93A158B040FB0111821082AE014658F5
:105540005D4FBD0114C0FB01EA0FFB1FEE57FF4F7B
:10555000AC0FBD1FA00FB11FA95ABD4F8C91808306
:10556000DA018D919C91119701968D939C93FA018C
:10557000A081B181A230B10530F311821082BE0149
:1055800066587D4F87E290E0289FA001299F500D2B
:10559000389F500D11244C0F5D1F14C0FA01EA0F03
:1055A000FB1FEC57FF4FAC0FBD1FA00FB11FA75A39
:1055B000BD4F8C918083DB018D919C911197019659
:1055C0008D939C93FB01A081B181A230B10530F392
:1055D000DF91CF911F910F91FF90EF900895CF929F
:1055E000DF92EF92FF920F931F93CF93DF93EC0123
:1055F0006B017A01B901FC01E658FD4F0D5F1F4FA9
:105600001183008303501040A0E0B0E09F010BC065
:10561000F601E40FF51F8081A80FB11D4F5F5F4FAA
:10562000F90151834083F9014081518146175707A1
:1056300078F3AF3FB10519F0AF3F09F05AC0F6015A
:10564000E00FF11F9581D70115968C91159798174A
:1056500009F04FC0968116968C91981709F049C0B1
:105660009B01201B310B2930310529F487818823C8
:1056700009F442C03EC087818823D9F5FE01E6586F
:10568000FD4F11821082BF012950304012C0FE012F
:10569000E40FF51FE85BFD4FD601A40FB51FA00F67
:1056A000B11F18968C9180834F5F5F4FFB01518330
:1056B0004083DB014D915C914217530740F3CA5B75
:1056C000DD4F39832883C654D240F70185818E345B
:1056D00091F48681843479F42230310530F0FE0172
:1056E000ED5DFE4F80818F5F8083CE010E94BC28DC
:1056F00002C081E001C080E0DF91CF911F910F9146
:10570000FF90EF90DF90CF900895FC01E658FD4F99
:1057100011821082DF010BC0FC01E20FF31FE8577A
:10572000FD4F10822F5F3F4F11963C932E932D918A
:105730003C9111972E31310578F30895CF92DF9285
:10574000EF92FF920F931F93CF93DF936C01FC01B5
:10575000E658FD4F118210828F01E62EFF24E701EB
:10576000CC0FDD1FCC0FDD1FCE0DDF1D1CC0EC0FDD
:10577000FD1F3B96EE0FFF1FEC0DFD1D80819181FB
:105780000E944B83D8018D919C911197FE01E80FE7
:10579000F91F3B96EE0FFF1FEC0DFD1D11821082CD
:1057A00001968D939C93D801ED91FC91E530F10524
:1057B000F0F28701000F111F0C0D1D1D075B1F4F1D
:1057C000D801ED91FC9115AA16AA17AA10AECF0127
:1057D0000E944B83F80111821082F601ED5AFF4FAF
:1057E000808181508083DF91CF911F910F91FF9035
:1057F000EF90DF90CF900895AF92BF92CF92DF925B
:10580000FF920F931F93CF93DF936C01FF2460E00F
:1058100070E08C0106581D4FD8016D937C93EB010D
:10582000AA96CC0FDD1FCC0DDD1D23C05F010894AF
:10583000A11CB11CA881B981A555BF4FBB96EE0F25
:10584000FF1FEC0DFD1D0190F081E02DE555FF4F90
:105850002D913D914D915C9180819181A281B38187
:1058600082179307A407B50754F4F394F801B182A3
:10587000A082D801ED91FC91E430F105B8F2B4E0DA
:10588000FB1621F4F62E65E070E002C0F62EF394CC
:105890006F5F7F4F6530710508F4BECF0F2D10E0AC
:1058A000065D1F4F000F111F0C0D1D1DF80180819B
:1058B00091810E944B83D8011D921C928F2DDF9104
:1058C000CF911F910F91FF90DF90CF90BF90AF903D
:1058D0000895AF92BF92CF92DF92FF920F931F93E2
:1058E000CF93DF936C01FF2460E070E08C010658D9
:1058F0001D4FD8016D937C93EB01AA96CC0FDD1F51
:10590000CC0DDD1D23C05F010894A11CB11CA88132
:10591000B981A555BF4FBB96EE0FFF1FEC0DFD1DC6
:105920000190F081E02DE555FF4F2D913D914D9176
:105930005C9180819181A281B381281739074A0740
:105940005B0754F4F394F801B182A082D801ED9181
:10595000FC91E430F105B8F2B4E0FB1621F4F62E28
:1059600065E070E002C0F62EF3946F5F7F4F653004
:10597000710508F4BECF0F2D10E0065D1F4F000F1C
:10598000111F0C0D1D1DF801808191810E944B8318
:10599000D8011D921C928F2DDF91CF911F910F91F5
:1059A000FF90DF90CF90BF90AF9008950F931F931B
:1059B000CF93DF938C01FC01E658FD4F11821082DA
:1059C000EF0116C0BA96EE0FFF1FE00FF11F8081A6
:1059D00091810E944B83888199818A96FC01EE0F08
:1059E000FF1FE00FF11F118210828997998388832E
:1059F000E881F981E530F10528F3DF91CF911F911E
:105A00000F910895AF92BF92CF92DF92EF92FF92E3
:105A10000F931F93CF93DF93EC0109E4A02EB12CD9
:105A2000A80EB91EEE24FF241AE7C12E12E0D12ED3
:105A3000C80ED91ED6011D921C928701000F111F9E
:105A4000000F111F0E0D1F1D1CC0E00FF11F3B9614
:105A5000EE0FFF1FEC0FFD1F808191810E944B8391
:105A6000F60180819181F801E80FF91F3B96EE0F56
:105A7000FF1FEC0FFD1F118210820196D6018D933E
:105A80009C93D601ED91FC91E530F105F0F2D50142
:105A9000ED91FC9115AA16AA17AA10AECF010E948B
:105AA0004B83F501119211925F010894E11CF11CE6
:105AB000F5E0EF16F10409F0BDCFCD5ADF4F1882A3
:105AC000C65ADD4F188222961882DF91CF911F911E
:105AD0000F91FF90EF90DF90CF90BF90AF9008951F
