:100000000C94C9000C94750D0C94A60D0C94D70D8E
:100010000C94080E0C94390E0C946A0E0C949B0EE2
:100020000C94CC0E0C94F3000C94F3000C94F3009D
:100030000C94D0020C94F3000C94F3000C94A601E1
:100040000C94F3000C94F3000C94F3000C94F30064
:100050000C94F3000C94F3000C94F3000C948101C5
:100060000C94F3000C949F120C94F3000C94F30086
:100070000C94F3000C94F3000C94F3000C94F30034
:100080000C94F3000C94F3000C94F3000C94F30024
:100090000C94E0120C94F3000C94F3000C947E0B7F
:1000A0000C94F3000C94F3000C94F3000C94F30004
:1000B0000C94F3000C94F3000C94F3000C94F300F4
:1000C0000C94F3000C94F3000C94F300002124270B
:1000D0002A2D3033002225282B2E313400202326D0
:1000E000292C2F3205050505030303030101010433
:1000F00004030606060606060606010405010501B8
:1001000003020202020202010202050504040304C2
:1001100004010304070707010208101020408004AF
:1001200008102040020204081020408001028020B4
:100130004004200101020408102001408040800199
:1001400002080408800410040201000008090000ED
:10015000000000000000000000000000000000009F
:10016000000000000000000000000000000000008F
:100170000000000000000000000000000000BC03C0
:10018000A7046E089808E408E9084B0AE213201453
:10019000251411241FBECFEFD1E2DEBFCDBF13E087
:1001A000A0E0B2E0E6E1FFE200E00BBF02C0079092
:1001B0000D92A439B107D9F71CE0A4E9B3E001C05E
:1001C0001D92AD3EB107E1F711E0C2E9D1E004C0F4
:1001D0002297FE010E949814CE37D107C9F70E94DA
:1001E0007A010C9489170C9400000F931F9387EEEB
:1001F00093E060E072E00E94810808EE13E0C8011D
:1002000068EE73E00E94B808C80168EE73E00E94CF
:10021000B8088091940390919503A0919603B091B2
:1002200097039F778093940390939503A0939603ED
:10023000B09397031F910F91089581E090E0909300
:1002400085038093840387EE93E06DE072E00E9463
:10025000810888EE93E068EE73E00E94B808609130
:100260008403709185038CE295E00E940E0987EE6D
:1002700093E06BE278E00E94810880918403909182
:100280008503019690938503809384038091940362
:1002900090919503A0919603B09197038070907808
:1002A000892B11F00E94F50087EE93E060E272E086
:1002B0000E9481088EE993E06BE278E040E021E063
:1002C0000E942C0408950F931F938EE993E00E94DF
:1002D000BD0380EA93E00E946B0807EE13E0C801BB
:1002E0000E948F08C80163E372E00E9481081F9199
:1002F0000F9108950E9413020E9463010E941D0144
:10030000FDCF1F920F920FB60F9211248F939F93E0
:10031000AF93BF938091650A9091660AA091670A96
:10032000B091680A0196A11DB11D8093650A909352
:10033000660AA093670AB093680ABF91AF919F9134
:100340008F910F900FBE0F901F9018951F920F92D4
:100350000FB60F9211248F939F93AF93BF93809109
:10036000690A90916A0AA0916B0AB0916C0A019691
:10037000A11DB11D8093690A90936A0AA0936B0A2C
:10038000B0936C0ABF91AF919F918F910F900FBE68
:100390000F901F901895AF92BF92CF92DF92EF927D
:1003A000FF920F931F935B016C016091650A70913E
:1003B000660A8091670A9091680A47E0660F771F86
:1003C000881F991F4A95D1F72EE330E040E050E0B6
:1003D0000E94591479018A016091650A7091660A38
:1003E0008091670A9091680A37E0660F771F881F2F
:1003F000991F3A95D1F72EE330E040E050E00E949B
:1004000059142E193F09400B510B2A153B054C0579
:100410005D0510F31F910F91FF90EF90DF90CF904B
:10042000BF90AF900895789484B7877F84BF10926F
:10043000650A1092660A1092670A1092680A84B5DB
:10044000826084BD84B5816084BD85B5826085BDD0
:1004500085B5816085BDEEE6F0E0808181608083B6
:10046000E1E8F0E080818260808380818160808328
:10047000E0E8F0E0808181608083E1EBF0E0808162
:1004800084608083E1E9F0E0808184608083E0EB38
:10049000F0E0808181608083E0E9F0E0808181602C
:1004A0008083E4E6F0E080818E7F8083ECE7F0E0FB
:1004B00080818F778083808180648083EAE7F0E0A9
:1004C0008081846080838081826080838081806875
:1004D00080831092C1001092C900089590919D03ED
:1004E000982B90939D0380FF32C0809164008E7F93
:1004F0008093640080917C008F7780937C00809152
:100500007C00806480937C0080917A00846080937A
:100510007A0080917A00826080937A0080917A00DC
:10052000806880937A00809164008F778093640064
:10053000809164008B7F80936400809164008D7F44
:1005400080936400809165008E7F8093650008959C
:10055000282F209590919D03922390939D0380FFD7
:100560001EC080917A008F7780937A00809164001A
:10057000816080936400809164008068809364004F
:100580008091640084608093640080916400826044
:100590008093640080916500816080936500089578
:1005A0001F920F920FB60F920BB60F9211242F933A
:1005B0003F934F935F936F937F938F939F93AF93EB
:1005C000BF93EF93FF93F89481E080938603E0E676
:1005D000F0E080818068808380818F7B808383E0EE
:1005E00060E00E9425037894FF91EF91BF91AF9155
:1005F0009F918F917F916F915F914F913F912F913B
:100600000F900BBE0F900FBE0F901F901895282FC4
:1006100030E0C901895E9E4FFC0194912C513F4FFF
:10062000F9018491882381F0E82FF0E0E453FF4F33
:10063000E491F0E0662329F48081909589238083FA
:1006400008958081892B80830895482F50E0CA0146
:10065000865B9E4FFC012491CA01895E9E4FFC017E
:1006600094914C515F4FFA0134913323C1F122230D
:1006700031F1233021F4809180008F7705C0243040
:1006800031F4809180008F7D8093800018C02130EC
:1006900019F484B58F7704C0223021F484B58F7D9E
:1006A00084BD0DC0263021F48091B0008F7705C045
:1006B000273029F48091B0008F7D8093B000E32F24
:1006C000F0E0EC52FF4FE491F0E0662329F48081E2
:1006D00090958923808308958081892B8083089554
:1006E000482F50E0CA01865B9E4FFC012491CA014D
:1006F000895E9E4FFC0194914C515F4FFA013491F9
:10070000332319F420E030E035C0222331F12330C7
:1007100021F4809180008F7705C0243031F48091DE
:1007200080008F7D8093800018C0213019F484B53B
:100730008F7704C0223021F484B58F7D84BD0DC035
:10074000263021F48091B0008F7705C0273029F43E
:100750008091B0008F7D8093B000E32FF0E0E452F1
:10076000FF4FE491F0E0808120E030E0892311F038
:1007700021E030E0C9010895089587E20E947003E6
:10078000892BC9F088EE93E060E070E00E949E083B
:100790008A3089F48091940390919503A0919603F7
:1007A000B091970390688093940390939503A093DE
:1007B0009603B093970388EE93E060E070E040E02A
:1007C0000E9499088091940390919503A0919603BB
:1007D000B091970380709078892B91F487E261E063
:1007E0000E94070387E260E00E9425036AE070E050
:1007F00080E090E00E94CB0187E261E00E94250347
:100800008091940390919503A0919603B0919703E2
:1008100080709078892B91F488EE93E06CE041E051
:100820000E94A20868EE73E080E090E00E94CB0195
:1008300088EE93E06CE040E00E94A208089589E20F
:1008400061E00E94070388E261E00E94070383E8F9
:1008500098E00E944C0A08950F931F93CF93DF9363
:10086000EB01142F022F86E161E00E94070386E16D
:1008700060E00E94250380E00E94481304C083E2E8
:1008800060E00E94250383E20E947003892BB9F780
:1008900080EA93E00E946B0880EA93E0BE01412F5A
:1008A000202F0E94830780EA93E00E94420880EA9A
:1008B00093E060E140E00E941A0888EE93E060E077
:1008C00070E04AE00E94990881E361E00E9407031A
:1008D00081E361E00E94250362E170E080E090E046
:1008E0000E94CB0181E360E00E942503FFCFFC0161
:1008F000138A148A158A168A178A108E118E128E00
:10090000138E148E158E168E178E10A211A212A29F
:1009100080E090E0A0E0B0E083A394A3A5A3B6A3F9
:100920000895262F862F6AE00E942614492F30E072
:10093000C901841B91096AE070E00E944614E4E05A
:10094000660F771FEA95E1F7842F862B08950895A7
:10095000DF92EF92FF920F931F938C01D62EA3E8A4
:10096000EA2EA8E0FA2EC70168E670E00E942A0A83
:10097000C7016D2D0E94560A0D0D111DC701F8010A
:1009800060810E94560AC7010E947D0A1F910F9143
:10099000FF90EF90DF9008958091AF038C7F80935C
:1009A000AF0380EA93E06FE00E94A80408950F93DC
:1009B0001F938C0160E170E080E090E00E94FD0EEA
:1009C000C8010E94CC041F910F9108951F93CF93EB
:1009D000DF93EC01142F613009F08CC08E858D7F80
:1009E00085608E87CE016EE00E94A8048F858C7F83
:1009F0008F87CE016FE00E94A804133009F452C023
:100A0000143030F4113031F18F811230D8F50AC032
:100A1000153009F454C0153008F44EC0163009F0F2
:100A2000DDC0D2C08F778F83CE0167E00E94A8041B
:100A300088858F778887CE0168E00E94A804898521
:100A40008F778987CE0169E00E94A8048A858F7715
:100A500080644CC08F818F778F83CE0167E00E94C6
:100A6000A80488858F778887CE0168E00E94A80453
:100A700089858F778987CE0169E00E94A8048A85DD
:100A80008F7334C08F778F83CE0167E00E94A804F4
:100A900088858F778887CE0168E00E94A8048985C1
:100AA0008F771DC08F818F778F83CE0167E00E9483
:100AB000A80488858F770CC08F818F7702C08F81C3
:100AC00080688F83CE0167E00E94A80488858068D3
:100AD0008887CE0168E00E94A8048985806889879C
:100AE000CE0169E00E94A8048A8580688A87CE01C9
:100AF0006AE067C0623009F071C08E858E7F8660C3
:100B00008E87CE016EE00E94A8048F858C7F8F8730
:100B1000CE016FE00E94A804123099F1133030F436
:100B2000112361F0113009F059C01AC01430B1F12D
:100B3000143088F1153009F051C046C08B858F778D
:100B40008B87CE016BE00E94A8048C858F778C8701
:100B5000CE016CE00E94A8048D858F7780642EC042
:100B60008B858F778B87CE016BE00E94A8048C85E4
:100B70008F778C87CE016CE00E94A8048D858F73DF
:100B80001DC08B858F778B87CE016BE00E94A804F8
:100B90008C858F770CC08B858F7702C08B858068A2
:100BA0008B87CE016BE00E94A8048C8580688C87BF
:100BB000CE016CE00E94A8048D8580688D87CE01EF
:100BC0006DE00E94A8040AC08E85887F8E87CE01C2
:100BD0006EE00E94A804CE010E94D70460E170E09C
:100BE00080E090E00E94570FDF91CF911F91089510
:100BF000DF92EF92FF920F931F938C01A3E8EA2EEE
:100C0000A8E0FA2EC70168E670E00E942A0AC70130
:100C100067E070E00E947A0AC801F801628D0E94C4
:100C20009104FFE7DF2ED822F801D782C801638D37
:100C30000E9491048F77F8018087C801648D0E941B
:100C400091048F77F8018187C801658D0E94910416
:100C50008F73F8018287C7016D2D0E94560AC70164
:100C6000F80160850E94560AC701F80161850E945B
:100C7000560AC701F80162850E94560AC7010E9400
:100C80007D0A1F910F91FF90EF90DF900895CF9212
:100C9000DF92EF92FF921F93CF93DF937C01162F89
:100CA00083E898E068E670E00E942A0A83E898E00A
:100CB00060E070E00E947A0A83E898E00E947D0A72
:100CC00083E898E068E670E042E150E00E949E0A06
:100CD000C0E0D0E0C12EDD241AE009C183E898E02D
:100CE0000E94340A882309F402C183E898E00E9434
:100CF0003A0A282FF701EC0FFD1F8083C630D1057B
:100D000009F482C0C730D105B8F4C230D10509F466
:100D10004EC0C330D10538F4209769F1C130D105F8
:100D200009F0E4C036C0C430D10509F451C0C53063
:100D3000D10508F05BC049C0CA30D10509F49BC099
:100D4000CB30D10558F4C830D10509F478C090E013
:100D50002F70C930D10508F081C064C0CC30D105F6
:100D600009F4A7C0CC30D10508F494C0CD30D1052A
:100D700009F0BCC0ADC090E054E0959587955A95B8
:100D8000E1F7819FC00111242F70280FF701208FF8
:100D9000ADC090E044E0959587954A95E1F7819F35
:100DA000C00111242F70280FF701278B9FC090E0FE
:100DB00034E0959587953A95E1F7819FC00111241C
:100DC0002F70280FF701268B91C0F701858B8EC0FD
:100DD00090E0B4E095958795BA95E1F7819FC001C1
:100DE00011242F70280FF701218F80C090E0A4E01C
:100DF00095958795AA95E1F7819FC00111242F70E1
:100E0000280FF701248B72C090E0F4E09595879548
:100E1000FA95E1F7819FC00111242F70280FF70187
:100E2000238B64C0E4E095958795EA95E1F7877098
:100E3000819FC0011124280FF701228F57C090E035
:100E400074E0959587957A95E1F78770819FC00149
:100E500011242F70280FF701238F48C064E0959567
:100E600087956A95E1F78370819FC0011124280F4F
:100E7000F701248F3BC090E054E0959587955A95F3
:100E8000E1F78370819FC00111242F70280FF701B3
:100E9000258F2CC090E044E0959587954A95E1F721
:100EA0008770819FC00111242F70280FF701268FB2
:100EB0001DC090E034E0959587953A95E1F78370F1
:100EC000819FC00111242F70280FF701278F0EC0BA
:100ED00090E0B4E095958795BA95E1F78370819F8E
:100EE000C00111242F70280FF70120A32196CC16E2
:100EF000DD0608F0F3CEDF91CF911F91FF90EF90C8
:100F0000DF90CF9008951F93CF93DF93EC01FB0107
:100F1000122F21812053808180533AE0839FC001AA
:100F20001124280F2D8F2481205383818053839F88
:100F3000C0011124280F2C8F2781205386818053D4
:100F4000839FC0011124280F2B8F22852053818578
:100F50008053839FC0011124280F2A8F442309F056
:100F60005BC0CE0166E00E944706988D8A8D980F7F
:100F70009A8F9C3328F09C539A8F8B8D8F5F8B8F29
:100F80009F898B8D980F9B8F9C3328F09C539B8F50
:100F90008C8D8F5F8C8F9E898C8D980F9C8F983154
:100FA00028F098519C8F8D8D8F5F8D8F2D8D112303
:100FB00039F48D89820F8D8F883070F187502BC066
:100FC000998D920F9D8F8C89813051F0833041F043
:100FD000853031F0873021F0883011F08C3021F4E9
:100FE000903210F09F519D8F8C89843041F0863073
:100FF00031F0893021F08A3011F08B3029F48D8D59
:101000008F3110F08E518D8F8C89823029F48D8D27
:101010008D3110F08C518D8F80EA93E00E94F8059D
:1010200080EA93E061E0412F0E94E604DF91CF91D6
:101030001F9108950F931F93CF93DF93EC01042F1B
:101040006FA380E361E00E9407031FA1113019F034
:10105000103199F40DC080E361E00E942503013056
:1010600019F482E08A8B09C0002339F41A8B05C079
:1010700080E360E00E9425031A8ADF91CF911F91DF
:101080000F91089580918308882341F08091180979
:10109000882321F48EE993E00E941F040895CF93E2
:1010A000DF93EC0161E040E00E941A088091830820
:1010B000882321F483E898E00E94A10ACE010E94CF
:1010C000CC04CE010E947704CE016DE00E94470659
:1010D000DF91CF9108950E944F0808951092E70381
:1010E00008950F931F938C018DE0F80160810E9499
:1010F00021138AE0F80160810E9421131F910F9152
:1011000008950F931F938C01CB01F80160810E9419
:101110003213C8010E9471081F910F910895FC01BC
:1011200060E076E980E090E040810E9466130895D7
:101130000895CB01642F0E94DB160895CB010E9415
:10114000D31608950F931F93162F042F862F61E057
:101150000E940703013019F4812F61E004C00023CD
:1011600021F4812F60E00E9425031F910F910895C3
:10117000CF92DF92EF92FF920F931F936C017B014E
:101180006CE041E00E94A208C6016DE041E00E94CF
:10119000A20800E010E0C801B7010E94CB01C6011F
:1011A0006CE040E00E94A208C6016DE040E00E94B1
:1011B000A208C801B7010E94CB011F910F91FF90B7
:1011C000EF90DF90CF9008951092280510922A0595
:1011D00008951092E2071092E3071092E60710922A
:1011E000E8071092210883E18093220882EA809325
:1011F00023081092240880E48093250889E68093D0
:10120000260883E78093270884E7809328088BE4E7
:1012100092E090932A08809329080895EF92FF9214
:101220000F931F93DF93CF93CDB7DEB72C970FB6F5
:10123000F894DEBF0FBECDBF8B01DE011196E0E951
:10124000F3E083E001900D928150E1F7DE01149606
:10125000EDE8F3E083E001900D928150E1F7DE01CB
:101260001796EAE8F3E083E001900D928150E1F7F0
:10127000DE011A96E7E8F3E083E001900D928150D9
:10128000E1F781E2003C180750F1C80160EC71E21F
:101290000E943214462FC80160EC71E20E943214A1
:1012A0008C0100D000D000D0EDB7FEB73196CE0152
:1012B0000196ADB7BEB712969C938E93119782ECB0
:1012C00092E093838283448315820E949C148DB79D
:1012D0009EB706960FB6F8949EBF0FBE8DBF91E0E5
:1012E00008361907D8F1C80168E671E00E94321487
:1012F000462FC80168E671E00E9432148C01CE01CD
:1013000004964A3078F000D000D000D0EDB7FEB798
:101310003196ADB7BEB712969C938E93119786EC1B
:1013200092E00EC000D000D000D0EDB7FEB73196ED
:10133000ADB7BEB712969C938E93119782EC92E054
:1013400093838283448315820E949C148DB79EB739
:1013500006960FB6F8949EBF0FBE8DBF06301105DE
:1013600008F440C0C80166E070E00E943214262FE5
:10137000C80166E070E00E9432147C018C01CE014D
:1013800007962A3078F000D000D000D0EDB7FEB735
:101390003196ADB7BEB712969C938E93119786EC9B
:1013A00092E00EC000D000D000D0EDB7FEB731966D
:1013B000ADB7BEB712969C938E93119782EC92E0D4
:1013C00093838283248315820E949C148DB79EB7D9
:1013D00006960FB6F8949EBF0FBE8DBF96E0E91635
:1013E000F10458F50115110541F100D000D000D0ED
:1013F000EDB7FEB73196CE010A96ADB7BEB71296DD
:101400009C938E93119786EC92E093838283C8011C
:1014100043E0880F991F4A95E1F7000F111F800FD5
:10142000911F848315820E949C148DB79EB70696E7
:101430000FB6F8949EBF0FBE8DBF2C960FB6F894D2
:10144000DEBF0FBECDBFCF91DF911F910F91FF90F7
:10145000EF90089581E08093820860935F08109276
:10146000800810928108089580915E0890915D082F
:10147000891B089590915D0880915E08981710F07F
:1014800080E00895E92FF0E0E35CF74F80819F5FF3
:1014900090935D08089508950F931F938C010E9407
:1014A000570BF80110821F910F910895DF93CF938E
:1014B0000F92CDB7DEB7698380918208882389F0C7
:1014C00080918108803290F480918008E82FF0E0CC
:1014D000E05AF74F60838F5F809380088093810884
:1014E00005C0CE01019661E00E943C0B0F90CF91A8
:1014F000DF9108950E94560A089580915F0860E682
:1015000078E04091810821E00E940E0B1092800843
:10151000109281081092820808951F93142F41326F
:1015200008F010E2862F6DE378E0412F0E94E20A76
:1015300010925D0810935E081F9108950E948D0A15
:1015400008950F931F938C0110925D0810925D080F
:1015500010925E0810928008109280081092810804
:101560000E94B80A81E0F80180831F910F910895CD
:1015700010928408589A599A8091B9008E7F80936E
:10158000B9008091B9008D7F8093B90080E280938B
:10159000B80085E48093BC00EAE8F8E0119288E0A6
:1015A000EA3AF807D9F7ECEAF8E0119288E0EC3C67
:1015B000F807D9F7EEECF8E0119288E0EE3EF80774
:1015C000D9F70895982F413210F081E00895809165
:1015D00084088823E1F781E0809384081092AA08A8
:1015E0004093AB08990F91609093850885EE8093A6
:1015F000BC00809184088130E1F320E030E00AC033
:10160000FB01E20FF31FD901A657B74F8C918083DE
:101610002F5F3F4F2417A0F380E008951F93582FAA
:10162000122F413210F081E025C080918408882378
:10163000E1F782E0809384081092AA084093AB08F7
:10164000AAE8B8E0FB0102C081918D938E2F861B22
:101650008417D0F3852F90E0880F991F8093850819
:1016600085EE8093BC00112321F0809184088230A4
:10167000E1F380E01F910895482F613210F081E07E
:10168000089580918408843011F082E00895609379
:10169000CD08ACEAB8E0842F9C01F90102C0819129
:1016A0008D938E2F841B8617D0F380E00895589871
:1016B0005998E9EBF0E080818160808380818260CD
:1016C0008083ECEBF0E080818068808380818061A2
:1016D000808380818F7B808380818F7D80838081E8
:1016E000877F808380818460808380818E7F8083F8
:1016F000E4E6F0E080818F77808308951F920F9257
:101700000FB60F920BB60F9211242F933F934F9366
:101710005F936F937F938F939F93AF93BF93EF9359
:10172000FF938091B90090E0887F9070803691059A
:1017300009F4CAC081369105CCF58832910509F4C7
:101740007BC089329105B4F48031910509F46FC0F2
:10175000813191053CF4009709F414C1089709F010
:101760001AC165C08831910509F466C0809709F0F7
:1017700012C17DC08034910509F48DC0813491057A
:1017800044F48033910509F472C0C89709F003C18D
:10179000F5C08035910509F472C08835910509F4CA
:1017A0007FC08834910509F0F6C086C0883991055C
:1017B00009F4E0C089399105ECF48837910509F402
:1017C00083C0893791054CF48836910509F47CC0B3
:1017D0008037910509F0DFC077C08838910509F49A
:1017E000C9C08039910509F475C08038910509F0A8
:1017F000D2C070C0803B910509F493C0813B910534
:101800004CF4803A910509F477C0883A910509F0C3
:10181000C2C087C0803C910509F4B0C0883C9105E6
:1018200009F4ACC0883B910509F0B5C08FC0809128
:1018300085088093BB009CC09091AA088091AB085A
:10184000981768F49091AA08E92FF0E0E657F74F4F
:1018500080818093BB009F5F9093AA0889C085ED2B
:101860008093BC008091BC0084FDFCCF92C085EDCC
:101870008093BC008091BC0084FDFCCF8AC0809125
:10188000AA089091BB00E82FF0E0E657F74F90834D
:101890008F5F8093AA089091AA088091AB0866C0D8
:1018A0008091AA089091BB00E82FF0E0E657F74F2F
:1018B00090838F5F8093AA0885ED8093BC00809110
:1018C000BC0084FDFCCF65C083E080938408109247
:1018D000EE084EC08091EE08803208F04BC0809137
:1018E000EE089091BB00E82FF0E0E253F74F9083B1
:1018F0008F5F8093EE083CC08091EE08803230F418
:10190000E091EE08F0E0E253F74F10826091EE08AC
:10191000E0918808F09189088EEC98E070E00995D4
:101920002DC084E0809384081092CC081092CD08DA
:10193000E0918608F091870809958091CD08882369
:1019400029F481E08093CD081092AC089091CC08E6
:10195000E92FF0E0E455F74F80818093BB009F5F53
:101960009093CC089091CC088091CD08981710F4F2
:1019700085EC01C085E88093BC000DC085EC8093A8
:10198000BC0007C085ED8093BC008091BC0084FD45
:10199000FCCF10928408FF91EF91BF91AF919F917E
:1019A0008F917F916F915F914F913F912F910F9008
:1019B0000BBE0F900FBE0F901F901895883008F047
:1019C00069C0E82FF0E0EE0FFF1FE450F74F71837E
:1019D0006083833089F1843028F48130A1F0823033
:1019E000F0F409C08630E9F1873009F447C084304B
:1019F00009F050C02EC0809169008C7F842B8093A9
:101A00006900E89A089580916900440F551F440FBA
:101A1000551F837F842B80936900E99A08958091F4
:101A2000690064E0440F551F6A95E1F78F7C842BB1
:101A300080936900EA9A08958091690036E0440F26
:101A4000551F3A95E1F78F73842B80936900EB9AC9
:101A5000089580916A008C7F842B80936A00EC9AB1
:101A6000089580916A0024E0440F551F2A95E1F7FC
:101A70008F7C842B80936A00EE9A089580916A008F
:101A800096E0440F551F9A95E1F78F73842B80934E
:101A90006A00EF9A0895F894883028F58330A1F011
:101AA000843028F4813061F0823060F407C08630E1
:101AB00079F0873079F0843071F408C0E8980BC071
:101AC000E99809C0EA9807C0EB9805C0EC9803C0F4
:101AD000EE9801C0EF98E82FF0E0EE0FFF1FE45002
:101AE000F74F11821082789408951F920F920FB6CB
:101AF0000F920BB60F9211242F933F934F935F9346
:101B00006F937F938F939F93AF93BF93EF93FF93C5
:101B10008091FC089091FD08892B29F0E091FC0848
:101B2000F091FD080995FF91EF91BF91AF919F91C1
:101B30008F917F916F915F914F913F912F910F9076
:101B40000BBE0F900FBE0F901F9018951F920F9213
:101B50000FB60F920BB60F9211242F933F934F9312
:101B60005F936F937F938F939F93AF93BF93EF9305
:101B7000FF938091FE089091FF08892B29F0E09156
:101B8000FE08F091FF080995FF91EF91BF91AF9189
:101B90009F918F917F916F915F914F913F912F9185
:101BA0000F900BBE0F900FBE0F901F9018951F92B5
:101BB0000F920FB60F920BB60F9211242F933F93F3
:101BC0004F935F936F937F938F939F93AF93BF9345
:101BD000EF93FF938091000990910109892B29F0DF
:101BE000E0910009F09101090995FF91EF91BF91F2
:101BF000AF919F918F917F916F915F914F913F91A5
:101C00002F910F900BBE0F900FBE0F901F90189545
:101C10001F920F920FB60F920BB60F9211242F93B3
:101C20003F934F935F936F937F938F939F93AF9364
:101C3000BF93EF93FF938091020990910309892B41
:101C400029F0E0910209F09103090995FF91EF91C4
:101C5000BF91AF919F918F917F916F915F914F91C4
:101C60003F912F910F900BBE0F900FBE0F901F90C2
:101C700018951F920F920FB60F920BB60F92112468
:101C80002F933F934F935F936F937F938F939F9384
:101C9000AF93BF93EF93FF9380910409909105094F
:101CA000892B29F0E0910409F09105090995FF912C
:101CB000EF91BF91AF919F918F917F916F915F91C4
:101CC0004F913F912F910F900BBE0F900FBE0F9031
:101CD0001F9018951F920F920FB60F920BB60F928E
:101CE00011242F933F934F935F936F937F938F9321
:101CF0009F93AF93BF93EF93FF93809106099091C9
:101D00000709892B29F0E0910609F0910709099547
:101D1000FF91EF91BF91AF919F918F917F916F91C3
:101D20005F914F913F912F910F900BBE0F900FBE7F
:101D30000F901F9018951F920F920FB60F920BB62F
:101D40000F9211242F933F934F935F936F937F9341
:101D50008F939F93AF93BF93EF93FF938091080965
:101D600090910909892B29F0E0910809F09109095E
:101D70000995FF91EF91BF91AF919F918F917F91C5
:101D80006F915F914F913F912F910F900BBE0F90EC
:101D90000FBE0F901F9018951F920F920FB60F92C3
:101DA0000BB60F9211242F933F934F935F936F9332
:101DB0007F938F939F93AF93BF93EF93FF93809104
:101DC0000A0990910B09892B29F0E0910A09F091F9
:101DD0000B090995FF91EF91BF91AF919F918F9161
:101DE0007F916F915F914F913F912F910F900BBE1B
:101DF0000F900FBE0F901F901895EF92FF920F93C8
:101E00001F937B018C01F894CB0181709070892B1A
:101E100019F082E00E944B0DE1FE03C083E00E94B6
:101E20004B0DE2FE03C082E00E944B0DE3FE03C0B7
:101E300083E00E944B0DE4FE03C082E00E944B0D44
:101E4000F3FE03C082E00E944B0DE5FE03C084E078
:101E50000E944B0DF4FE03C082E00E944B0DF5FE84
:101E600003C082E00E944B0DF6FE03C083E00E9497
:101E70004B0D8091980390919903A0919A03B09192
:101E80009B03E094F094009510958E219F21A02350
:101E9000B1238093980390939903A0939A03B093EE
:101EA0009B0378941F910F91FF90EF900895EF920C
:101EB000FF920F931F937B018C0180919803909167
:101EC0009903A0919A03B0919B038E299F29A02B7F
:101ED000B12B8093980390939903A0939A03B093A6
:101EE0009B03C70181709070892B59F08BE260E0F1
:101EF0000E94070382E06EE371E141E050E00E943E
:101F0000DE0CE1FE0BC08CE260E00E94070383E080
:101F100060E470E140E050E00E94DE0CE2FE0FC0A1
:101F20008BE260E00E94070386E260E00E94070304
:101F300082E06EE371E141E050E00E94DE0CE3FEDE
:101F400013C08CE260E00E94070382E360E00E941D
:101F500007038CE261E00E94250383E060E470E106
:101F600040E050E00E94DE0CE4FE0FC08BE260E037
:101F70000E94070387E260E00E94070382E06EE3AD
:101F800071E141E050E00E94DE0CE5FE0FC083E00D
:101F900061E00E94070383E061E00E94250384E082
:101FA00060E470E140E050E00E94DE0CF3FE0FC000
:101FB0008BE260E00E9407038EE260E00E9407036C
:101FC00082E06EE371E141E050E00E94DE0CF4FE3D
:101FD0000FC08BE260E00E94070388E060E00E948F
:101FE000070382E06EE371E141E050E00E94DE0C05
:101FF000F5FE17C08BE260E00E9407038CE260E010
:102000000E94070387E060E00E9407038AE060E027
:102010000E94070382E06EE371E141E050E00E941C
:10202000DE0CF6FE17C08BE260E00E9407038CE234
:1020300060E00E94070387E060E00E9407038AE0F7
:1020400060E00E94070383E060E470E140E050E05C
:102050000E94DE0C00FF0FC084E060E00E940703D6
:102060008CE260E00E94070383E060E470E140E0FE
:1020700050E00E94DE0C1F910F91FF90EF900895A9
:10208000F8948091980390919903A0919A03B0914C
:102090009B0383FF26C082E30E947003892B09F50E
:1020A00080919C038F5F80939C0380919403909117
:1020B0009503A0919603B091970388608093940351
:1020C00090939503A0939603B09397038091F208A1
:1020D0008F5F8093F20868E070E080E090E00E94FB
:1020E000FD0E8091980390919903A0919A03B0916D
:1020F0009B03A0FF26C084E00E947003892B09F592
:1021000080919C038F5F80939C03809194039091B6
:102110009503A0919603B0919703A16080939403D7
:1021200090939503A0939603B09397038091FD0835
:102130008F5F8093FD0860E070E081E090E00E9496
:10214000FD0E8091980390919903A0919A03B0910C
:102150009B0385FF24C083E00E947003892BF9F460
:1021600080919C038F5F80939C0380919403909156
:102170009503A0919603B091970380628093940396
:1021800090939503A0939603B09397038091F408DE
:102190008F5F8093F40883E061E00E9425038091C3
:1021A000980390919903A0919A03B0919B0381FFAA
:1021B00020C089E20E947003892BD9F480919C038E
:1021C0008F5F80939C038091940390919503A091DD
:1021D0009603B09197038260809394039093950344
:1021E000A0939603B09397038091F0088F5F80933C
:1021F000F0088091980390919903A0919A03B0916F
:102200009B0396FF39C08091980390919903A09108
:102210009A03B0919B0383FF05C082E30E94700381
:10222000892B51F58091980390919903A0919A037D
:10223000B0919B0385FF05C083E00E947003892B4A
:10224000D9F480919C038F5F80939C0380919403C9
:1022500090919503A0919603B09197039064809319
:10226000940390939503A0939603B0939703809162
:10227000FC088F5F8093FC0878940895F89480910F
:10228000980390919903A0919A03B0919B0382FFC8
:1022900020C086E20E947003892BD9F080919C03B4
:1022A0008F5F80939C038091940390919503A091FC
:1022B0009603B09197038460809394039093950361
:1022C000A0939603B09397038091F1088F5F80935A
:1022D000F1088091980390919903A0919A03B0918D
:1022E0009B0384FF20C087E20E947003892BD9F0F2
:1022F00080919C038F5F80939C03809194039091C5
:102300009503A0919603B091970380618093940305
:1023100090939503A0939603B09397038091F3084D
:102320008F5F8093F3088091980390919903A09117
:102330009A03B0919B0393FF20C08EE20E9470032A
:10234000892BD9F080919C038F5F80939C038091AF
:10235000940390919503A0919603B0919703986090
:102360008093940390939503A0939603B09397035F
:102370008091FA088F5F8093FA088091980390917A
:102380009903A0919A03B0919B0381709070892B5F
:1023900051F18091980390919903A0919A03B09183
:1023A0009B0396FD20C089E20E947003892BD9F01F
:1023B00080919C038F5F80939C0380919403909104
:1023C0009503A0919603B091970381608093940345
:1023D00090939503A0939603B09397038091EF0891
:1023E0008F5F8093EF088091980390919903A0915B
:1023F0009A03B0919B0394FF24C088E00E9470036D
:10240000892BF9F080919C038F5F80939C0385E07A
:1024100060E00E9425038091940390919503A09120
:102420009603B091970390618093940390939503E2
:10243000A0939603B09397038091FB088F5F8093DE
:10244000FB088091980390919903A0919A03B09111
:102450009B0395FF20C088E00E947003892BD9F070
:1024600080919C038F5F80939C0380919403909153
:102470009503A0919603B091970390628093940383
:1024800090939503A0939603B09397038091FC08D3
:102490008F5F8093FC088091980390919903A0919D
:1024A0009A03B0919B0396FF48C080919803909146
:1024B0009903A0919A03B0919B0382FF05C086E225
:1024C0000E947003892BC9F580919803909199031C
:1024D000A0919A03B0919B0384FF05C087E20E94FC
:1024E0007003892B51F58091980390919903A091E5
:1024F0009A03B0919B0393FF05C08EE20E94700384
:10250000892BD9F480919C038F5F80939C038091E9
:10251000940390919503A0919603B09197039064D2
:102520008093940390939503A0939603B09397039D
:102530008091FC088F5F8093FC08789408951F9227
:102540000F920FB60F920BB60F9211242F933F9359
:102550004F935F936F937F938F939F93AF93BF93AB
:10256000EF93FF934091C600E0910C09F0910D09A3
:10257000CF01019660E072E00E9446149C018091B8
:102580000E0990910F092817390739F0E351F54FDB
:10259000408330930D0920930C09FF91EF91BF9177
:1025A000AF919F918F917F916F915F914F913F91EB
:1025B0002F910F900BBE0F900FBE0F901F9018958C
:1025C0001F920F920FB60F920BB60F9211242F93FA
:1025D0003F934F935F936F937F938F939F93AF93AB
:1025E000BF93EF93FF934091CE00E0911009F091DB
:1025F0001109CF01019660E870E00E9446149C0129
:1026000080911209909113092817390739F0E3597D
:10261000F54F40833093110920931009FF91EF91FA
:10262000BF91AF919F918F917F916F915F914F91EA
:102630003F912F910F900BBE0F900FBE0F901F90E8
:102640001895982F662339F48091C00085FFFCCF40
:102650009093C60008958091C80085FFFCCF9093A9
:10266000CE000895FC0110C03196662339F48091A4
:10267000C00085FFFCCF9093C60006C08091C800C3
:1026800085FFFCCF9093CE009081992369F7089540
:10269000882371F488E00E94A8028091C1008F7E97
:1026A0008093C1008091C100877F8093C10008950D
:1026B00080E10E94A8028091C9008F7E8093C900AA
:1026C0008091C900877F8093C9000895EF92FF929F
:1026D0000F931F937B018C014423C1F588E00E9476
:1026E0006E02C801B70122E030E040E050E00E94F5
:1026F0007B14205E3E45484F5F4FCA01B901A801D7
:1027000097010E947B14C901DA010197A109B1095F
:10271000292F3A2F4B2F552747FD5A950196A11D7A
:10272000B11D2093C50081508093C4008091C100E9
:1027300080618093C1008091C10088608093C10056
:102740008091C10080688093C10037C080E10E9401
:102750006E02C801B70122E030E040E050E00E9484
:102760007B14205E3E45484F5F4FCA01B901A80166
:1027700097010E947B14C901DA010197A109B109EF
:10278000292F3A2F4B2F552747FD5A950196A11D0A
:10279000B11D2093CD0081508093CC008091C90061
:1027A00080618093C9008091C90088608093C900CE
:1027B0008091C90080688093C9001F910F91FF909C
:1027C000EF9008950895FC0180EC92E1A0E0B0E064
:1027D00080839183A283B38381E08483E755FF4F95
:1027E00022E02083E95AF0401782168280E890E0C8
:1027F000918780871286238789EC92E095AB84AB22
:102800008FEC92E097AB86AB86ED92E091AF80AF14
:102810008AED92E093AF82AF8DED92E095AF84AFF9
:102820008FED92E097AF86AFE05CFF4F89EE92E0CC
:102830008193919384EF92E0819391931082089514
:1028400089E199E00E94E31308950895991B79E0C6
:1028500004C0991F961708F0961B881F7A95C9F730
:1028600080950895AA1BBB1B51E107C0AA1FBB1F7F
:10287000A617B70710F0A61BB70B881F991F5A950C
:10288000A9F780959095BC01CD01089597FB092E7D
:1028900007260AD077FD04D0E5DF06D000201AF421
:1028A000709561957F4F0895F6F7909581959F4FAC
:1028B0000895A1E21A2EAA1BBB1BFD010DC0AA1F81
:1028C000BB1FEE1FFF1FA217B307E407F50720F099
:1028D000A21BB30BE40BF50B661F771F881F991F14
:1028E0001A9469F760957095809590959B01AC015D
:1028F000BD01CF01089597FB092E05260ED057FD87
:1029000004D0D7DF0AD0001C38F45095409530959C
:1029100021953F4F4F4F5F4F0895F6F79095809563
:10292000709561957F4F8F4F9F4F0895EE0FFF1F5A
:102930000590F491E02D09940F931F93DF93CF93AB
:10294000CDB7DEB72E970FB6F894DEBF0FBECDBF62
:102950000D891E8986E08C831A8309838FEF9FE798
:102960009E838D839E01275E3F4FCE0101966F8926
:10297000788DA9010E94CD142F813885020F131F75
:10298000F80110822E960FB6F894DEBF0FBECDBFB1
:10299000CF91DF911F910F9108952F923F924F9207
:1029A0005F926F927F928F929F92AF92BF92CF92DF
:1029B000DF92EF92FF920F931F93DF93CF93CDB7E8
:1029C000DEB72B970FB6F894DEBF0FBECDBF3C012C
:1029D0002B015A01FC0117821682838181FD03C0FD
:1029E0006FEF7FEFC6C19AE0892E1E010894211C6B
:1029F000311CF3012381F20123FD859123FF819195
:102A00002F01882309F4B2C1853239F423FD859161
:102A100023FF81912F01853229F490E0B3010E94B8
:102A2000FF16E7CF982FFF24EE249924FFE1FF152E
:102A3000D0F09B3269F09C3228F4903259F09332F6
:102A400091F40EC09D3249F0903369F441E024C006
:102A500052E0F52A84E0F82A28C098E0F92A25C037
:102A6000E0E1FE2A22C0F7FC29C0892F80538A307A
:102A700070F4F6FE05C0989C902C1124980E15C099
:102A8000E89CE02C1124E80EF0E2FF2A0EC09E32F2
:102A900029F4F6FC6BC140E4F42A07C09C3619F413
:102AA00050E8F52A02C0983649F4F20123FD9591C9
:102AB00023FF91912F01992309F0B8CF892F8554D5
:102AC000833018F08052833038F444E050E0A40E94
:102AD000B51E5FE359830FC0933631F0933779F019
:102AE000933509F056C020C0F5018081898342E00A
:102AF00050E0A40EB51E610101E010E012C0F50126
:102B0000C080D180F6FC03C06FEF7FEF02C0692D5B
:102B100070E042E050E0A40EB51EC6010E94F4161B
:102B20008C015FE7F52214C0F501C080D180F6FC6E
:102B300003C06FEF7FEF02C0692D70E042E050E00C
:102B4000A40EB51EC6010E94E9168C0150E8F52AB4
:102B5000F3FE07C01AC080E290E0B3010E94FF16A6
:102B6000EA948E2D90E008171907A8F30EC0F6011D
:102B7000F7FC8591F7FE81916F0190E0B3010E940F
:102B8000FF16E110EA94015010400115110579F784
:102B9000EAC0943611F0993669F5F7FE08C0F501E0
:102BA000208131814281538184E090E00AC0F501A7
:102BB000808191819C01442737FD4095542F82E00C
:102BC00090E0A80EB91E9FE6F92257FF09C0509564
:102BD0004095309521953F4F4F4F5F4FE0E8FE2ADB
:102BE000CA01B901A1012AE030E00E942B17D82EBA
:102BF000D21840C0953729F41F2D1F7E2AE030E0FF
:102C00001DC01F2D197F9F3661F0903720F4983535
:102C100009F0ACC00FC0903739F0983709F0A6C062
:102C200004C028E030E00AC0106114FD146020E107
:102C300030E004C014FD166020E132E017FF08C048
:102C4000F501608171818281938144E050E008C088
:102C5000F50180819181BC0180E090E042E050E08C
:102C6000A40EB51EA1010E942B17D82ED2188FE7F3
:102C7000F82EF122F6FE0BC05EEFF522D91438F4DF
:102C8000F4FE07C0F2FC05C08FEEF82202C01D2D35
:102C900001C0192DF4FE0DC0FE01ED0DF11D808166
:102CA000803319F499EEF92208C01F5FF2FE05C0C7
:102CB00003C08F2D867809F01F5F0F2DF3FC14C021
:102CC000F0FE0FC01E1510F09D2C0BC09D2C9E0C0D
:102CD000911A1E2D06C080E290E0B3010E94FF16FB
:102CE0001F5F1E15C0F304C01E1510F4E11A01C0C9
:102CF000EE2404FF0FC080E390E0B3010E94FF16B2
:102D000002FF1DC001FD03C088E790E00EC088E50A
:102D100090E00BC0802F867891F001FF02C08BE21B
:102D200001C080E2F7FC8DE290E0B3010E94FF1643
:102D300006C080E390E0B3010E94FF169A94D91474
:102D4000C0F3DA94F101ED0DF11D808190E0B30143
:102D50000E94FF16DD20A9F706C080E290E0B301D3
:102D60000E94FF16EA94EE20C1F743CEF30166817C
:102D70007781CB012B960FB6F894DEBF0FBECDBF87
:102D8000CF91DF911F910F91FF90EF90DF90CF9047
:102D9000BF90AF909F908F907F906F905F904F907B
:102DA0003F902F900895F999FECF92BD81BDF89A7A
:102DB000992780B50895262FF999FECF1FBA92BDA5
:102DC00081BD20BD0FB6F894FA9AF99A0FBE01960C
:102DD0000895FC010590615070400110D8F780956E
:102DE00090958E0F9F1F0895FC01615070400190D7
:102DF0000110D8F7809590958E0F9F1F08950F931F
:102E00001F93CF93DF938C01EB018B8181FF1BC05C
:102E100082FF0DC02E813F818C819D81281739074B
:102E200064F4E881F9810193F983E88306C0E885B9
:102E3000F985802F0995892B31F48E819F81019628
:102E40009F838E8302C00FEF1FEFC801DF91CF91E8
:102E50001F910F910895FA01AA27283051F12031CE
:102E600081F1E8946F936E7F6E5F7F4F8F4F9F4F1E
:102E7000AF4FB1E03ED0B4E03CD0670F781F891F60
:102E80009A1FA11D680F791F8A1F911DA11D6A0F2E
:102E9000711D811D911DA11D20D009F468943F91E1
:102EA0002AE0269F11243019305D3193DEF6CF01E0
:102EB0000895462F4770405D4193B3E00FD0C9F7A6
:102EC000F6CF462F4F70405D4A3318F0495D31FD13
:102ED0004052419302D0A9F7EACFB4E0A695979566
:102EE000879577956795BA95C9F70097610571053C
:102EF00008959B01AC010A2E069457954795379586
:102F00002795BA95C9F7620F731F841F951FA01DDF
:062F10000895F894FFCFC4
:102F1600686962496E74657272757074006465766C
:102F260069636520656E74657273206C6F6F7000DF
:102F3600656E746572696E672068696265726E6136
:102F46007465007573622073746172746564003011
:102F5600303A30303A30303A31300030303A303072
:102F66003A30303A31300073656E736F724D61736B
:102F76006B203D200061637469766553656E736FDF
:102F8600724D61736B4C656E677468203D200070EE
:102F96006879736963616C53656E736F724D6173A3
:102FA6006B4C656E677468203D200073656E736FA9
:102FB600724D61736B20696E20666F72203D200032
:102FC60073756D2073656E736F724D61736B203D03
:102FD6002000302564002564003936303030003456
:102FE600393732363000393231003132003100346F
:102FF6003134302E383231370030303035332E31DF
:1030060037333600313938006572726F723A207480
:103016006865204750532074696D6564206F757428
:103026000024505352463130302C302C25752C3824
:103036002C312C302A304600244750474741002483
:103046004750474C4C0024475047534100244750B3
:1030560047535600244750524D4300244750565478
:103066004700657068656D657269732E74787400C3
:1030760024505352463130342C25732C25732C257D
:10308600732C25732C25732C25732C25732C2573F3
:103096002A3030000100013030003030003030007E
:0430A60030300000C6
:00000001FF
