:100000000C94C1000C94EB000C94EB000C94EB00EE
:100010000C94EB000C94EB000C94EB000C94EB00B4
:100020000C94EB000C94EB000C94EB000C94EB00A4
:100030000C943B080C94EB000C94EB000C943907E7
:100040000C94EB000C94EB000C94EB000C94EB0084
:100050000C94EB000C94EB000C94EB000C94140744
:100060000C94EB000C94E50D0C94EB000C94EB005D
:100070000C94EB000C94EB000C94EB000C94EB0054
:100080000C94EB000C94EB000C94EB000C94EB0044
:100090000C94260E0C94EB000C94EB000C94EB00EB
:1000A0000C94EB000C94EB000C94EB000C94EB0024
:1000B0000C94EB000C94EB000C94EB000C94EB0014
:1000C0000C94EB000C94EB000C94EB000021242723
:1000D0002A2D3033002225282B2E313400202326D0
:1000E000292C2F3205050505030303030101010433
:1000F00004030606060606060606010405010501B8
:1001000003020202020202010202050504040304C2
:1001100004010304070707010208101020408004AF
:1001200008102040020204081020408001028020B4
:100130004004200101020408102001408040800199
:1001400002080408800410040201000008090000ED
:10015000000000000000000000000000000000009F
:10016000000000000000000000000000000000008F
:100170000000000000000000000000000000D509A1
:100180005F0D11241FBECFEFD1E2DEBFCDBF12E065
:10019000A0E0B2E0E4EDF5E200E00BBF02C00790A2
:1001A0000D92AA3BB107D9F717E0AAEBB2E001C064
:1001B0001D92A33DB107E1F711E0C2E8D1E004C010
:1001C0002297FE010E94BC11CE37D107C9F70E94C9
:1001D0000D070C94E8120C9400000024C69531F031
:1001E00008F40D26DD0F08F4D927F8CF08F40D2602
:1001F00008954EE003C04CE001C04AE02F923F92C8
:100200004F925F926F927F928F929F92AF92BF9226
:10021000CF92DF92EF92FF920F931F93CF93DF93D2
:100220008F939F93DB01FC01842F43954295A40F8C
:10023000B11DE89481909190A190B190C190D1901E
:10024000E190F19001911191219131914191519160
:10025000619171919BE1F8E00E9070250E90602500
:100260000E9050250E9040250E9030250E902025A2
:100270000E9010250E9000250E90F0240E90E02494
:100280000E90D0240E90C0240E90B0240E90A02486
:100290000E9090240E9080248A9509F46894E82D9D
:1002A0008490EC2DC490E02F0491E42F4491E52F2D
:1002B0002490E12F5491ED2D1491E92DD490922C9E
:1002C000E62F2490E22F3490EE2D6491EA2D2491B4
:1002D000E22CA32CEB2D2490EF2DB490E32FF4907F
:1002E000E72F3491722D0E9070250E9060250E90A0
:1002F00050250E9040250E9030250E9020250E9012
:1003000010250E9000250E90F0240E90E0240E9003
:10031000D0240E90C0240E90B0240E90A0240E90F5
:1003200090240E9080242EF5FF91EF91819291926E
:10033000A192B192C192D192E192F1920193119363
:10034000219331934193519361937193DF91CF91B5
:100350001F910F91FF90EF90DF90CF90BF90AF90E3
:100360009F908F907F906F905F904F903F902F90D5
:1003700008952B2C2A24382C3924422C4324D42DA4
:10038000C8E02BDF4024DA2DD825C4E026DF502C2E
:100390005424DB2DD925C4E020DF4024682C6B24B5
:1003A000660C08F469266424B6246A2C6924660C59
:1003B00008F4692664249624220C08F429262524AE
:1003C000A224330C08F43926352483242F2C2E2420
:1003D0003C2C3D24422C4324D42DC8E0FEDE402496
:1003E000DE2DDC25C4E0F9DE502C5424DF2DDD2584
:1003F000C4E0F3DE40246C2C6F24660C08F46926FC
:100400006424F6246E2C6D24660C08F4692664249A
:10041000D624220C08F429262524E224330C08F4DF
:1004200039263524C324232E2226302E3126422C71
:100430004324D42DC8E0D1DE4024D22FD027C4E0FD
:10044000CCDE502C5424D32FD127C4E0C6DE402468
:10045000602E6326660C08F4692664243625622E15
:100460006126660C08F4692664241625220C08F41B
:10047000292625242225330C08F439263524032582
:10048000272E2626342E3526422C4324D42DC8E090
:10049000A4DE4024D62FD427C4E09FDE502C542461
:1004A000D72FD527C4E099DE4024642E6726660C3A
:1004B00008F4692664247625662E6526660C08F401
:1004C000692664245625220C08F429262524622551
:1004D000330C08F4392635244325DECE4EE003C024
:1004E0004CE001C04AE02F923F924F925F926F9290
:1004F0007F928F929F92AF92BF92CF92DF92EF92B4
:10050000FF920F931F93CF93DF938F939F93DB0102
:10051000FC01842FE89481909190A190B190C190BA
:10052000D190E190F19001911191219131914191FE
:100530005191619171919BE1FAE00D9080240D90B1
:1005400090240D90A0240D90B0240D90C0240D9007
:10055000D0240D90E0240D90F0240D9000250D90F6
:1005600010250D9020250D9030250D9040250D90E3
:1005700050250D9060250D9070252EF5FF91EF917F
:1005800081929192A192B192C192D192E192F19213
:1005900001931193219331934193519361937193FB
:1005A000DF91CF911F910F91FF90EF90DF90CF904F
:1005B000BF90AF909F908F907F906F905F904F9083
:1005C0003F902F9008958A9509F46894E82D8490BF
:1005D000EC2DC490E02F0491E42F4491E92D249058
:1005E000ED2D9490E12FD490E52F1491522DEA2D0A
:1005F0002490EE2D3490E22FA490E62FE490222D4B
:10060000632DEB2D2490E72FB490E32F7491EF2D01
:100610003491F22C0EF491CF0A2C0B24402C282C70
:1006200089240824880C08F4892680248224392C03
:100630003A24330C08F4392630249324440C08F46B
:1006400049264024A4242B24220C08F42926202403
:10065000B2240E2C0F24402C2C2CCD240C24CC0C9A
:1006600008F4C926C024C2243D2C3E24330C08F4CF
:1006700039263024D324440C08F449264024E424A9
:100680002F24220C08F429262024F224022E0326EB
:10069000402C202E01270026000F08F409270025F2
:1006A0000225312E3226330C08F439263024132546
:1006B000440C08F44926402424252326220C08F45F
:1006C000292620243225062E0726402C242E4527B5
:1006D0000426440F08F4492740254225352E3626A6
:1006E000330C08F4392630245325440C08F44926E9
:1006F000402464252726220C08F42926202472256C
:100700001CCF0000000000000000000000000000FE
:1007100000000000000000000000000000000000D9
:1007200000000000000000000000000000000000C9
:1007300000000000000000000000000000000000B9
:1007400000000000000000000000000000000000A9
:100750000000000000000000000000000000000099
:100760000000000000000000000000000000000089
:100770000000000000000000000000000000000079
:100780000000000000000000000000000000000069
:100790000000000000000000000000000000000059
:1007A0000000000000000000000000000000000049
:1007B0000000000000000000000000000000000039
:1007C0000000000000000000000000000000000029
:1007D0000000000000000000000000000000000019
:1007E0000000000000000000000000000000000009
:1007F00000000000000000000000000000000000F9
:1008000052096AD53036A538BF40A39E81F3D7FB85
:100810007CE339829B2FFF87348E4344C4DEE9CBCF
:10082000547B9432A6C2233DEE4C950B42FAC34E44
:10083000082EA16628D924B2765BA2496D8BD125FA
:1008400072F8F66486689816D4A45CCC5D65B6929E
:100850006C704850FDEDB9DA5E154657A78D9D8442
:1008600090D8AB008CBCD30AF7E45805B8B3450662
:10087000D02C1E8FCA3F0F02C1AFBD0301138A6B7C
:100880003A9111414F67DCEA97F2CFCEF0B4E673AC
:1008900096AC7422E7AD3585E2F937E81C75DF6E5A
:1008A00047F11A711D29C5896FB7620EAA18BE1BC0
:1008B000FC563E4BC6D279209ADBC0FE78CD5AF466
:1008C0001FDDA8338807C731B11210592780EC5FAC
:1008D00060517FA919B54A0D2DE57A9F93C99CEF08
:1008E000A0E03B4DAE2AF5B0C8EBBB3C8353996109
:1008F000172B047EBA77D626E169146355210C7D47
:10090000AB0171E060E007C0AB0170E060EC03C0D8
:10091000AB01772760E8EF92FF920F931F93CF937D
:10092000DF93FA01EA01DC01769567956695669595
:10093000262F0D9001922A95E1F76695669563FB47
:10094000362F762F795F770F770FDF011497262FD9
:10095000E0E0FAE07F0111E04D915D918D919D9174
:100960003217B1F05EF5022F0770043039F5F70148
:10097000E40FF11D4491F701E50FF11D5491F701CA
:10098000E80FF11D8491F701E90FF11D949116C054
:10099000360FF701E40FF11D0491F701E50FF11D8A
:1009A0004491F701E80FF11D5491F701E90FF11D92
:1009B0008491902F4127110F08F41BE1FD0109904C
:1009C00004260192099005260192099008260192B9
:1009D0000990092601922395271709F0BDCFE894C5
:1009E000DF91CF911F910F91FF90EF90089500003C
:1009F00000000000000000000000000000000000F7
:100A0000637C777BF26B6FC53001672BFED7AB76CB
:100A1000CA82C97DFA5947F0ADD4A2AF9CA472C076
:100A2000B7FD9326363FF7CC34A5E5F171D83115E3
:100A300004C723C31896059A071280E2EB27B27504
:100A400009832C1A1B6E5AA0523BD6B329E32F847C
:100A500053D100ED20FCB15B6ACBBE394A4C58CF74
:100A6000D0EFAAFB434D338545F9027F503C9FA848
:100A700051A3408F929D38F5BCB6DA2110FFF3D216
:100A8000CD0C13EC5F974417C4A77E3D645D1973CA
:100A900060814FDC222A908846EEB814DE5E0BDBC4
:100AA000E0323A0A4906245CC2D3AC629195E479FB
:100AB000E7C8376D8DD54EA96C56F4EA657AAE0855
:100AC000BA78252E1CA6B4C6E8DD741F4BBD8B8AF0
:100AD000703EB5664803F60E613557B986C11D9E56
:100AE000E1F8981169D98E949B1E87E9CE5528DFCD
:100AF0008CA1890DBFE6426841992D0FB054BB16F9
:100B00004F925F926F927F928F929F92AF92BF921D
:100B1000CF92DF92EF92FF920F931F93DF93CF93C9
:100B2000CDB7DEB7C756D0400FB6F894DEBF0FBEC4
:100B3000CDBF8E0109591F4FF80180834DB65EB6B7
:100B40008EEB92E0B8010E94D60990E09093BB0230
:100B50008093BA024C010894810891082DB73EB7E2
:100B6000281B390B0FB6F8943EBF0FBE2DBFADB694
:100B7000BEB60894A11CB11C4091B5025091B602BA
:100B80008EEB92E060E870E098018501EE24E3943A
:100B9000A3E0CA2E0E94CD0C4091BA025091BB0234
:100BA0008EEB92E0B5010E940D0A83948092BC0204
:100BB0004091B5025091B602F3E06F2E712C6C0E8D
:100BC0007D1E8EEB92E060E870E09501082D7301C8
:100BD0006E010894C11CD11CAA24A394E3E08E2EBC
:100BE0000E948E0B8EE395E00E94680D49815A8128
:100BF00060E070E08EE395E02AE030E00E94BD0DF9
:100C000010E008C0EE0DFF1D8EE395E060810E94AC
:100C1000620D1F5FE12FF0E089819A81E817F907E3
:100C200088F3C7010E9489120FB6F8945EBE0FBE0A
:100C30004DBEC959DF4F0FB6F894DEBF0FBECDBF12
:100C4000CF91DF911F910F91FF90EF90DF90CF90A8
:100C5000BF90AF909F908F907F906F905F904F90DC
:100C600008954F925F926F927F928F929F92AF9270
:100C7000BF92CF92DF92EF92FF920F931F93DF9379
:100C8000CF93CDB7DEB7C656D0400FB6F894DEBFCF
:100C90000FBECDBF8C014DB65EB68EEB92E0B801B3
:100CA0000E94D60990E09093BB028093BA024C0157
:100CB0000894810891082DB73EB7281B390B0FB651
:100CC000F8943EBF0FBE2DBFADB6BEB60894A11CB2
:100CD000B11C4091B5025091B6028EEB92E060E8F3
:100CE00070E098018501EE24E394E3E0CE2E0E94AB
:100CF000CD0C4091BA025091BB028EEB92E0B5014F
:100D00000E940D0A83948092BC024091B5025091DA
:100D1000B60213E0612E712C6C0E7D1E8EEB92E0FC
:100D200060E870E09501082D73016E010894C11C04
:100D3000D11CAA24A394B3E08B2E0E948E0B8EE3C9
:100D400095E00E94680D49815A8160E070E08EE371
:100D500095E02AE030E00E94BD0D10E008C0EE0DE5
:100D6000FF1D8EE395E060810E94620D1F5FE12F01
:100D7000F0E089819A81E817F90788F3C7010E949A
:100D800089120FB6F8945EBE0FBE4DBECA59DF4F32
:100D90000FB6F894DEBF0FBECDBFCF91DF911F918C
:100DA0000F91FF90EF90DF90CF90BF90AF909F900A
:100DB0008F907F906F905F904F9008950F931F9347
:100DC0000EE315E0C80160E072E00E94CE0D809154
:100DD000B7029091B8020E943106C80166E372E042
:100DE0000E94CE0D84E00E94800568E873E180E0F7
:100DF00090E00E945E071F910F9108950F931F933B
:100E00000EE315E0C8010E94DC0DC8016CE672E03B
:100E10000E94CE0D1F910F9108950E94A6070E9477
:100E2000FE060E94DE06FDCF1F920F920FB60F92B4
:100E300011248F939F93AF93BF9380914705909117
:100E40004805A0914905B0914A050196A11DB11D23
:100E50008093470590934805A0934905B0934A05B0
:100E6000BF91AF919F918F910F900FBE0F901F90E8
:100E700018951F920F920FB60F9211248F939F9384
:100E8000AF93BF9380914B0590914C05A0914D0578
:100E9000B0914E050196A11DB11D80934B05909315
:100EA0004C05A0934D05B0934E05BF91AF919F9116
:100EB0008F910F900FBE0F901F901895AF92BF9219
:100EC000CF92DF92EF92FF920F931F935B016C0121
:100ED00060914705709148058091490590914A05B8
:100EE00047E0660F771F881F991F4A95D1F72EE3B9
:100EF00030E040E050E00E94691179018A01609180
:100F00004705709148058091490590914A0537E061
:100F1000660F771F881F991F3A95D1F72EE330E0AF
:100F200040E050E00E9469112E193F09400B510B1F
:100F30002A153B054C055D0510F31F910F91FF909D
:100F4000EF90DF90CF90BF90AF900895789484B7E2
:100F5000877F84BF1092470510924805109249057B
:100F600010924A0584B5826084BD84B5816084BDD9
:100F700085B5826085BD85B5816085BDEEE6F0E012
:100F8000808181608083E1E8F0E0808182608083FD
:100F9000808181608083E0E8F0E0808181608083EF
:100FA000E1EBF0E0808184608083E1E9F0E0808122
:100FB00084608083E0EBF0E0808181608083E0E901
:100FC000F0E0808181608083E4E6F0E080818E7FC4
:100FD0008083ECE7F0E080818F778083808180647C
:100FE0008083EAE7F0E08081846080838081826092
:100FF00080838081806880831092C1001092C90034
:1010000008959091BD02982B9093BD0280FF32C04D
:10101000809164008E7F8093640080917C008F7744
:1010200080937C0080917C00806480937C00809120
:101030007A00846080937A0080917A008260809345
:101040007A0080917A00806880937A0080916400B1
:101050008F7780936400809164008B7F809364001D
:10106000809164008D7F80936400809165008E7F05
:101070008093650008951F920F920FB60F920BB6E2
:101080000F9211242F933F934F935F936F937F930E
:101090008F939F93AF93BF93EF93FF93F89481E067
:1010A0008093B902E0E6F0E08081806880838081EF
:1010B0008F7B808383E060E00E9472087894FF91C8
:1010C000EF91BF91AF919F918F917F916F915F91C0
:1010D0004F913F912F910F900BBE0F900FBE0F902D
:1010E0001F901895482F50E0CA01865B9E4FFC0167
:1010F0002491CA01895E9E4FFC0194914C515F4F2F
:10110000FA0134913323C1F1222331F1233021F448
:10111000809180008F7705C0243031F48091800069
:101120008F7D8093800018C0213019F484B58F77AB
:1011300004C0223021F484B58F7D84BD0DC02630DB
:1011400021F48091B0008F7705C0273029F4809179
:10115000B0008F7D8093B000E32FF0E0EC52FF4FA2
:10116000E491F0E0662329F48081909589238083BF
:1011700008958081892B808308957F928F929F921A
:10118000AF92BF92CF92DF92EF92FF920F931F9395
:10119000FB01033009F06CC02417350708F08CC040
:1011A000822F8F70E20FF31F99E0792E05E0802ED9
:1011B00013E0912EB4E0AB2EA2E0BA2ECC24C3945F
:1011C00077E0D72E66E0E62E98E0F92E1DE00BE0E2
:1011D000BAE0ACE07FE060E19EE0873071F18830FA
:1011E00070F4833011F1843028F48130D1F08230F2
:1011F000D0F435C08530E9F08630E8F418C08B3083
:1012000021F18C3028F48930E1F08A30E0F417C005
:101210008D30F9F08D30D8F08E30E9F08F3001F557
:101220001CC070831DC090831BC0108319C0A08395
:1012300017C0008315C0B08313C0708211C0F08244
:101240000FC0D0820DC0E0820BC0808209C0A08296
:1012500007C0908205C0B08203C0C08201C0608315
:101260002F5F3F4F31962417350708F4B6CF24C0BF
:10127000043061F424173507F8F4E20FF31F1192DC
:101280002F5F3F4F24173507D0F316C00530A1F468
:10129000CA0101972817390778F4DB01A20FB31FA1
:1012A000B9011D926F5F7F4F68177907D0F3821BDA
:1012B000E40FF51F319780831F910F91FF90EF90FE
:1012C000DF90CF90BF90AF909F908F907F900895C8
:1012D000EF92FF920F93CF93DF93EC017A01A90174
:1012E000A22FA150033079F5F701E20FF31F3197D8
:1012F000908160E070E002C06F5F7F4F8A2F861B95
:10130000F701E80FF11D80818917B1F3F701DE01C4
:101310007A01E61AF70A9A01220F331F2C0F3D1F9C
:10132000660F771F261B370B06C081918C93119691
:101330001C9211971296A217B307B9F7C853DF4F43
:10134000F982E88229C0043049F520E030E002C08B
:101350002F5F3F4F8A2F821BF701E80FF11D80811D
:101360008823B1F3CA01821B930B9C0190E00BC050
:10137000FD01EE0FFF1FEC0FFD1FAE0DBF1D8C9189
:10138000808311829F5FA92FB0E0A217B30780F37B
:10139000C853DF4F39832883C85CD040CE01DF912A
:1013A000CF910F91FF90EF9008950895EF92FF92E3
:1013B0000F931F93FB0101900020E9F73197E61B83
:1013C000F70BE295EF706E2F70E0882777FD809520
:1013D000982F0E9443107B018C0120E030E040E018
:1013E00050E00E941110882311F480E111C0C8015F
:1013F000B70120E030E040E851E40E94F31020E023
:1014000030E040E851E40E94AD0F0E941510862F95
:101410001F910F91FF90EF900895EF92FF920F931D
:101420001F93CF93DF93162F072F7A018EE395E05A
:1014300066E972E00E94C80D212F302FC901EC012E
:1014400000E010E016C048814F3038F48EE395E09C
:1014500069E972E00E94C80D488150E060E070E0E8
:101460008EE395E020E130E00E949F0D0F5F1F4F5B
:1014700021960E151F0538F38EE395E06BE972E0B7
:101480000E94CE0DDF91CF911F910F91FF90EF90B1
:1014900008950F931F93CF93DF938C01EB01403C92
:1014A000510509F445C081E04030580709F47BC07C
:1014B0004038510511F080E0B1C080E190E061E07A
:1014C00070E00E94C0119C01FE0101900020E9F72C
:1014D0003197EC1BFD0B719720F540E050E00AC0FE
:1014E000F901E40FF51FDE01A40FB51F8C91808375
:1014F0004F5F5F4FDE010D900020E9F71197AC1BA5
:10150000BD0B4A175B0760F3A031B10550F4F90138
:10151000EA0FFB1FC901409601C01192E817F907B5
:10152000E1F7005F1F4FC901B8010E94880475C030
:1015300088E190E061E070E00E94C0119C01FE0132
:1015400001900020E9F73197EC1BFD0B799720F50E
:1015500040E050E00AC0F901E40FF51FDE01A40FDE
:10156000B51F8C9180834F5F5F4FDE010D9000208F
:10157000E9F71197AC1BBD0B4A175B0760F3A83165
:10158000B10550F4F901EA0FFB1FC901489601C0EB
:101590001192E817F907E1F700541F4FC901B8018C
:1015A0000E9484043AC080E290E061E070E00E9412
:1015B000C0119C01FE0101900020E9F73197EC1B5E
:1015C000FD0BB19720F540E050E00AC0F901E40FAF
:1015D000F51FDE01A40FB51F8C9180834F5F5F4F15
:1015E000DE010D900020E9F71197AC1BBD0B4A17E7
:1015F0005B0760F3A032B10550F4F901EA0FFB1F5D
:10160000C901809601C01192E817F907E1F7005768
:101610001E4FC901B8010E94800481E0DF91CF9183
:101620001F910F9108952F923F924F925F926F9268
:101630007F928F929F92AF92BF92CF92DF92EF9262
:10164000FF920F931F93CF93DF93EC011A0169016F
:101650005C01F0E14F2E512C480E591EE0EC6E2E2D
:10166000712C680E791E50E9852E51E0952E880E5A
:10167000991E8B01EE24FF243BC0D80120E030E00E
:10168000FE01E20FF31F8D9180832F5F3F4F2031CA
:101690003105B1F780E190E0E80EF91E90ECC91633
:1016A000D10471F080E0C81681E0D80671F090E8AE
:1016B000C916D10471F4C501B2010E94FD0009C030
:1016C000C501B3010E94FB0004C0C501B4010E9422
:1016D000F900D80120E030E0FE01E20FF31F808125
:1016E0008D932F5F3F4F20313105B1F7005F1F4FC2
:1016F000E214F30410F2DF91CF911F910F91FF904C
:10170000EF90DF90CF90BF90AF909F908F907F90A1
:101710006F905F904F903F902F9008952F923F923F
:101720004F925F926F927F928F929F92AF92BF92F1
:10173000CF92DF92EF92FF920F931F93DF93CF939D
:10174000CDB7DEB7CF5CD0400FB6F894DEBF0FBE8A
:10175000CDBF3C012B011901C553DF4FF982E8824F
:10176000CB5CD040C353DF4FD982C882CD5CD04020
:10177000FA2CADB6BEB6BA01A2010E94490A88236E
:1017800009F46BC09DB62EB7C153DF4F2883CF5CE1
:10179000D040802F90E0EDB7FEB7E81BF90B0FB6F5
:1017A000F894FEBF0FBEEDBF0DB71EB70F5F1F4F02
:1017B00060E070E06C010AC0F801E60FF71FD1018C
:1017C000A60FB71F8C9180836F5F7F4F6C157D05CF
:1017D00098F3F1E0FF1631F4C301B801A6019201BC
:1017E0000E94130B7E010894E11CF11CC701B30198
:1017F000A8019601082D0E946809FE01E753FF4FDA
:101800002081318190E00FC0C553DF4FE881F9811D
:10181000CB5CD040EA0FFB1FAA0FBB1FAE0DBF1D54
:101820008C9180839F5FA92FB0E0A217B30760F36C
:10183000C353DF4FE881F981CD5CD04031832083F1
:10184000892DC153DF4F9881CF5CD0409C010FB6EA
:10185000F8943EBF0FBE2DBF06C08EE395E060EA50
:1018600072E00E94CE0D0FB6F894BEBE0FBEADBEA4
:10187000C153DF4F0FB6F894DEBF0FBECDBFCF917F
:10188000DF911F910F91FF90EF90DF90CF90BF906D
:10189000AF909F908F907F906F905F904F903F9010
:1018A0002F9008952F923F924F925F926F927F9266
:1018B0008F929F92AF92BF92CF92DF92EF92FF9260
:1018C0000F931F93CF93DF93EC011A0169015C0121
:1018D00050E1452E512C480E591E40EC642E712CBF
:1018E000680E791E30E9832E31E0932E880E991E02
:1018F0008B01EE24FF243BC0D80120E030E0FE0144
:10190000E20FF31F8D9180832F5F3F4F2031310510
:10191000B1F780E190E0E80EF91E90ECC916D10411
:1019200071F080E0C81681E0D80671F090E8C91621
:10193000D10471F4C501B2010E94720209C0C5014F
:10194000B3010E94700204C0C501B4010E946E027E
:10195000D80120E030E0FE01E20FF31F80818D937B
:101960002F5F3F4F20313105B1F7005F1F4FE21469
:10197000F30410F2DF91CF911F910F91FF90EF9040
:10198000DF90CF90BF90AF909F908F907F906F909F
:101990005F904F903F902F9008952F923F924F92DB
:1019A0005F926F927F928F929F92AF92BF92CF92EF
:1019B000DF92EF92FF920F931F93DF93CF9300D0AC
:1019C000CDB7DEB73C012B015A01490118011E2D8C
:1019D0000C2D2DB73EB73A832983B4010E94D60956
:1019E000E82EFF248DB79EB78E199F090FB6F89485
:1019F0009EBF0FBE8DBFCDB6DEB60894C11CD11CF4
:101A0000C301B501A2010E94490A8823E1F120E047
:101A100030E00AC0F601E20FF31FD401A20FB31F9A
:101A20008C9180832F5F3F4FD4010D900020E9F708
:101A30001197A819B9092A173B0760F3AE15BF051E
:101A400030F4C301B601A7019D010E94BD08113009
:101A500031F4C301B601A70192010E94520C20E0AB
:101A600030E0A7014F5F5F4F0AC0F101E20FF31FA3
:101A7000D601A20FB31F8C9180832F5F3F4F241795
:101A8000350798F381E029813A810FB6F8943EBF7B
:101A90000FBE2DBF0F900F90CF91DF911F910F912F
:101AA000FF90EF90DF90CF90BF90AF909F908F907E
:101AB0007F906F905F904F903F902F90089510927D
:101AC0003E050895FC01862F60810E94670E0895EF
:101AD0000F931F938C018DE0F80160810E94670EC7
:101AE0008AE0F80160810E94670E1F910F910895AE
:101AF000EF92FF920F931F93CF93DF93EC017A0144
:101B00008B0177FF0CC08DE268810E94670E1095F3
:101B10000095F094E094E11CF11C011D111DC80119
:101B2000B7012AE030E040E050E008810E948E0ECC
:101B3000DF91CF911F910F91FF90EF9008950F9338
:101B40001F93FC01DA018B012115310529F4842F43
:101B500060810E94670E0EC02A30310519F40E9480
:101B6000780D08C030E040E050E0BD01C8010081C0
:101B70000E948E0E1F910F9108950F931F938C0159
:101B80000E949F0DC8010E94680D1F910F9108953A
:101B9000FC01CB0160810E94780E08950F931F9382
:101BA0008C01CB01F80160810E94780EC8010E946F
:101BB000680D1F910F910895FC0160E076E980E0C7
:101BC00090E040810E94300F08951F920F920FB64F
:101BD0000F920BB60F9211242F933F934F935F9365
:101BE0006F937F938F939F93AF93BF93EF93FF93E5
:101BF0004091C600E0913F05F0914005CF0101966C
:101C000060E072E00E9456119C0180914105909124
:101C100042052817390739F0E153FA4F40833093D2
:101C2000400520933F05FF91EF91BF91AF919F91A8
:101C30008F917F916F915F914F913F912F910F9075
:101C40000BBE0F900FBE0F901F9018951F920F9212
:101C50000FB60F920BB60F9211242F933F934F9311
:101C60005F936F937F938F939F93AF93BF93EF9304
:101C7000FF934091CE00E0914305F0914405CF01E0
:101C8000019660E870E00E9456119C018091450524
:101C9000909146052817390739F0E15BFA4F4083E8
:101CA0003093440520934305FF91EF91BF91AF918D
:101CB0009F918F917F916F915F914F913F912F9164
:101CC0000F900BBE0F900FBE0F901F901895982F7E
:101CD000662339F48091C00085FFFCCF9093C60045
:101CE00008958091C80085FFFCCF9093CE000895A1
:101CF000FC0110C03196662339F48091C00085FF45
:101D0000FCCF9093C60006C08091C80085FFFCCF31
:101D10009093CE009081992369F708952F923F9276
:101D20004F925F926F927F928F929F92AF92BF92EB
:101D3000CF92DF92EF92FF920F931F93DF93CF9397
:101D4000CDB7DEB7A1970FB6F894DEBF0FBECDBFFB
:101D50006B017C0129013A0109A361157105810517
:101D6000910591F4002341F48091C00085FFFCCFE0
:101D700080E38093C6005BC08091C80085FFFCCFE4
:101D800080E38093CE0053C08824992454011E011F
:101D90000894211C311C8101080D191DC701B601D1
:101DA000A30192010E946911F80160830894811CCB
:101DB000911CA11CB11CC701B601A30192010E9494
:101DC0006911C901DA016C017D01C114D104E1047A
:101DD000F10409F79101280D391DBE016F5F7F4F96
:101DE000D501C4010197A109B109AC0148195909EC
:101DF0001BC0FA01E20FF31FE081EA3010F4E05D4E
:101E000001C0E95CF9A1FF2339F48091C00085FF8E
:101E1000FCCFE093C60006C08091C80085FFFCCFD0
:101E2000E093CE00215030406217730711F7A1965E
:101E30000FB6F894DEBF0FBECDBFCF91DF911F91DB
:101E40000F91FF90EF90DF90CF90BF90AF909F9059
:101E50008F907F906F905F904F903F902F9008955C
:101E6000EF92FF920F931F937B018C014423C1F5E6
:101E700088E00E940108C801B70122E030E040E09C
:101E800050E00E948B11205E3E45484F5F4FCA01D3
:101E9000B901A80197010E948B11C901DA010197CC
:101EA000A109B109292F3A2F4B2F552747FD5A95E4
:101EB0000196A11DB11D2093C50081508093C400DF
:101EC0008091C10080618093C1008091C1008860D1
:101ED0008093C1008091C10080688093C10037C0A9
:101EE00080E10E940108C801B70122E030E040E033
:101EF00050E00E948B11205E3E45484F5F4FCA0163
:101F0000B901A80197010E948B11C901DA0101975B
:101F1000A109B109292F3A2F4B2F552747FD5A9573
:101F20000196A11DB11D2093CD0081508093CC005E
:101F30008091C90080618093C9008091C900886048
:101F40008093C9008091C90080688093C9001F9167
:101F50000F91FF90EF9008955058BB27AA270ED0FD
:101F600008C1F9D030F0FED020F031F49F3F11F4D9
:101F70001EF4EEC00EF4E095E7FBE4C0E92F0AD1B1
:101F800080F3BA17620773078407950718F071F496
:101F90009EF522C10EF4E0950B2EBA2FA02D0B0159
:101FA000B90190010C01CA01A0011124FF27591B9E
:101FB00099F0593F50F4503E68F11A16F040A22FA4
:101FC000232F342F4427585FF3CF46953795279515
:101FD000A795F0405395C9F77EF41F16BA0B620B14
:101FE000730B840BBAF09150A1F0FF0FBB1F661F5B
:101FF000771F881FC2F70EC0BA0F621F731F841F9E
:1020000048F4879577956795B795F7959E3F08F0C3
:10201000B3CF9395880F08F09927EE0F9795879582
:1020200008956CD008F481E00895BCD088F09F57E3
:1020300090F0B92F9927B751A0F0D1F0660F771F14
:10204000881F991F1AF0BA95C9F712C0B13081F0F4
:10205000C3D0B1E00895C0C0672F782F8827B85F3C
:1020600039F0B93FCCF3869577956795B395D9F755
:102070003EF490958095709561957F4F8F4F9F4F5F
:102080000895E89409C097FB3EF49095809570956B
:1020900061957F4F8F4F9F4F9923A9F0F92F96E9B4
:1020A000BB279395F695879577956795B795F11129
:1020B000F8CFFAF4BB0F11F460FF1BC06F5F7F4FC6
:1020C0008F4F9F4F16C0882311F096E911C07723D8
:1020D00021F09EE8872F762F05C0662371F096E8E1
:1020E000862F70E060E02AF09A95660F771F881FB0
:1020F000DAF7880F9695879597F90895990F000854
:10210000550FAA0BE0E8FEEF16161706E807F907C9
:10211000C0F012161306E407F50798F0621B730B64
:10212000840B950B39F40A2661F0232B242B252BE5
:1021300021F408950A2609F4A140A6958FEF811D88
:10214000811D089597F99F6780E870E060E0089529
:102150009FEF80EC089500240A94161617061806BF
:102160000906089500240A9412161306140605069B
:102170000895092E0394000C11F4882352F0BB0F2C
:1021800040F4BF2B11F460FF04C06F5F7F4F8F4F8F
:102190009F4F089557FD9058440F551F59F05F3FCA
:1021A00071F04795880F97FB991F61F09F3F79F079
:1021B00087950895121613061406551FF2CF4695FB
:1021C000F1DF08C0161617061806991FF1CF86957D
:1021D0007105610508940895E894BB276627772761
:1021E000CB0197F908950BD0C4CFB5DF28F0BADF43
:1021F00018F0952309F0A6CFABCF1124EECFCADF9C
:10220000A0F3959FD1F3950F50E0551F629FF00109
:10221000729FBB27F00DB11D639FAA27F00DB11D62
:10222000AA1F649F6627B00DA11D661F829F2227EB
:10223000B00DA11D621F739FB00DA11D621F839F72
:10224000A00D611D221F749F3327A00D611D231F48
:10225000849F600D211D822F762F6A2F11249F5796
:1022600050408AF0E1F088234AF0EE0FFF1FBB1FB9
:10227000661F771F881F91505040A9F79E3F510558
:1022800070F060CFAACF5F3FECF3983EDCF3869509
:1022900077956795B795F795E7959F5FC1F7FE2B03
:1022A000880F911D9695879597F9089597FB092EAC
:1022B00007260AD077FD04D049D006D000201AF4B2
:1022C000709561957F4F0895F6F7909581959F4F92
:1022D0000895A1E21A2EAA1BBB1BFD010DC0AA1F67
:1022E000BB1FEE1FFF1FA217B307E407F50720F07F
:1022F000A21BB30BE40BF50B661F771F881F991FFA
:102300001A9469F760957095809590959B01AC0142
:10231000BD01CF01089597FB092E05260ED057FD6C
:1023200004D0D7DF0AD0001C38F450954095309582
:1023300021953F4F4F4F5F4F0895F6F79095809549
:10234000709561957F4F8F4F9F4F0895AA1BBB1BC0
:1023500051E107C0AA1FBB1FA617B70710F0A61BA5
:10236000B70B881F991F5A95A9F780959095BC01C6
:10237000CD010895EE0FFF1F0590F491E02D099413
:102380000F931F93CF93DF93689F8001699F100D78
:10239000789F100D1124C8010E94DC11EC010097F8
:1023A00029F060E070E0A8010E94E112CE01DF9107
:1023B000CF911F910F910895CF93DF93BC0182308D
:1023C000910510F462E070E0A091D107B091D207BE
:1023D000ED01E0E0F0E040E050E021C0888199812B
:1023E0008617970769F48A819B81309719F0938348
:1023F000828304C09093D2078093D107FE0134C03A
:102400006817790738F44115510519F084179507B5
:1024100008F4AC01FE018A819B819C01E9012097AF
:10242000E9F641155105A9F1CA01861B970B0497DE
:1024300008F4BA01E0E0F0E02AC08D919C91119778
:1024400084179507F9F46417750781F412968D9136
:102450009C911397309719F09383828304C09093D3
:10246000D2078093D107FD0132964FC0CA01861B67
:10247000970BFD01E80FF91F6193719302978D93FC
:102480009C9343C0FD01828193819C01D9011097E7
:10249000A1F68091CF079091D007892B41F48091CC
:1024A000B1029091B2029093D0078093CF074091F0
:1024B000B3025091B4024115510541F44DB75EB7D6
:1024C0008091AF029091B002481B590B2091CF0729
:1024D0003091D00724173507B0F4CA01821B930B43
:1024E0008617970780F0AB014E5F5F4F8417950703
:1024F00050F0420F531F5093D0074093CF07F9017C
:102500006193719302C0E0E0F0E0CF01DF91CF91E1
:102510000895CF93DF93009709F450C0EC01229700
:102520001B821A82A091D107B091D207109709F1AE
:1025300040E050E0AC17BD0708F1BB83AA83FE0161
:1025400021913191E20FF31FAE17BF0779F48D91FE
:102550009C911197280F391F2E5F3F4F3983288395
:1025600012968D919C9113979B838A8341155105F7
:1025700071F4D093D207C093D10720C012968D91E9
:102580009C911397AD01009711F0DC01D3CFFA01B4
:10259000D383C28321913191E20FF31FCE17DF075E
:1025A00069F488819981280F391F2E5F3F4FFA0106
:1025B000318320838A819B8193838283DF91CF91B2
:1025C0000895DC0101C06D9341505040E0F708953B
:0425D000F894FFCFAD
:1025D4000A2D2D2D2D2D2D2D2D2D2D2D2D2D2D4532
:1025E4004E4352595054494E47204D455353414749
:1025F4004520312D2D2D2D2D2D2D2D2D2D2D2D2DF8
:102604002D2D2D2D2D000A2D2D2D2D2D2D2D2D2D46
:102614002D2D2D2D2D454E4352595054494E4720B2
:102624004D45535341474520322D2D2D2D2D2D2D14
:102634002D2D2D2D2D2D2D2D2D2D2D00454E43527F
:10264400595054494F4E206578616D706C65004156
:10265400455320706173736F776F7264004C6962C5
:10266400656C69756D002022003000220020200076
:1026740057726F6E67204B65792053697A65002025
:0A26840000D30700007F028D020161
:00000001FF
